{
  "address": "0x9E6219b7befCEc8251C1c6f8CF608857AEa78e8e",
  "abi": [
    {
      "inputs": [
        {
          "internalType": "address",
          "name": "owner",
          "type": "address"
        },
        {
          "internalType": "address",
          "name": "pauser",
          "type": "address"
        },
        {
          "internalType": "contract IProviders",
          "name": "providers",
          "type": "address"
        },
        {
          "internalType": "address",
          "name": "messageReceiver",
          "type": "address"
        },
        {
          "internalType": "contract IERC20Upgradeable",
          "name": "token",
          "type": "address"
        }
      ],
      "stateMutability": "nonpayable",
      "type": "constructor"
    },
    {
      "anonymous": false,
      "inputs": [
        {
          "indexed": false,
          "internalType": "contract INormalResourceController",
          "name": "_arStorageController",
          "type": "address"
        }
      ],
      "name": "ARStorageControllerUpdated",
      "type": "event"
    },
    {
      "anonymous": false,
      "inputs": [
        {
          "indexed": false,
          "internalType": "contract INormalResourceController",
          "name": "_bandwidthController",
          "type": "address"
        }
      ],
      "name": "BandwidthControllerUpdated",
      "type": "event"
    },
    {
      "anonymous": false,
      "inputs": [
        {
          "indexed": false,
          "internalType": "contract INormalResourceController",
          "name": "_buildingTimeController",
          "type": "address"
        }
      ],
      "name": "BuildingTimeControllerUpdated",
      "type": "event"
    },
    {
      "anonymous": false,
      "inputs": [
        {
          "indexed": false,
          "internalType": "contract IIPFSStorageController",
          "name": "_ipfsStorageController",
          "type": "address"
        }
      ],
      "name": "IPFSStorageControllerUpdated",
      "type": "event"
    },
    {
      "anonymous": false,
      "inputs": [
        {
          "indexed": false,
          "internalType": "address",
          "name": "messageReceiver",
          "type": "address"
        }
      ],
      "name": "MessageReceiverUpdated",
      "type": "event"
    },
    {
      "anonymous": false,
      "inputs": [
        {
          "indexed": false,
          "internalType": "address",
          "name": "to",
          "type": "address"
        },
        {
          "indexed": false,
          "internalType": "uint256",
          "name": "value",
          "type": "uint256"
        }
      ],
      "name": "NativeWithdrawal",
      "type": "event"
    },
    {
      "anonymous": false,
      "inputs": [
        {
          "indexed": true,
          "internalType": "address",
          "name": "previousOwner",
          "type": "address"
        },
        {
          "indexed": true,
          "internalType": "address",
          "name": "newOwner",
          "type": "address"
        }
      ],
      "name": "OwnershipTransferred",
      "type": "event"
    },
    {
      "anonymous": false,
      "inputs": [
        {
          "indexed": false,
          "internalType": "address",
          "name": "payer",
          "type": "address"
        },
        {
          "indexed": false,
          "internalType": "contract IERC20Upgradeable",
          "name": "token",
          "type": "address"
        },
        {
          "components": [
            {
              "internalType": "address",
              "name": "provider",
              "type": "address"
            },
            {
              "internalType": "uint64",
              "name": "nonce",
              "type": "uint64"
            },
            {
              "internalType": "bytes32",
              "name": "account",
              "type": "bytes32"
            },
            {
              "components": [
                {
                  "internalType": "enum ResourceData.ResourceType",
                  "name": "resourceType",
                  "type": "uint8"
                },
                {
                  "internalType": "uint256[]",
                  "name": "values",
                  "type": "uint256[]"
                }
              ],
              "internalType": "struct ResourceData.Payload[]",
              "name": "payloads",
              "type": "tuple[]"
            }
          ],
          "indexed": false,
          "internalType": "struct IDstChainPayment.PaymentPayload",
          "name": "payload",
          "type": "tuple"
        }
      ],
      "name": "Paid",
      "type": "event"
    },
    {
      "anonymous": false,
      "inputs": [
        {
          "indexed": false,
          "internalType": "address",
          "name": "account",
          "type": "address"
        }
      ],
      "name": "Paused",
      "type": "event"
    },
    {
      "anonymous": false,
      "inputs": [
        {
          "indexed": false,
          "internalType": "address",
          "name": "account",
          "type": "address"
        }
      ],
      "name": "PauserAdded",
      "type": "event"
    },
    {
      "anonymous": false,
      "inputs": [
        {
          "indexed": false,
          "internalType": "address",
          "name": "account",
          "type": "address"
        }
      ],
      "name": "PauserRemoved",
      "type": "event"
    },
    {
      "anonymous": false,
      "inputs": [
        {
          "indexed": false,
          "internalType": "contract IProviders",
          "name": "providers",
          "type": "address"
        }
      ],
      "name": "ProvidersUpdated",
      "type": "event"
    },
    {
      "anonymous": false,
      "inputs": [
        {
          "indexed": false,
          "internalType": "address",
          "name": "provider",
          "type": "address"
        },
        {
          "indexed": false,
          "internalType": "contract IERC20Upgradeable",
          "name": "token",
          "type": "address"
        },
        {
          "indexed": false,
          "internalType": "address",
          "name": "to",
          "type": "address"
        },
        {
          "indexed": false,
          "internalType": "uint256",
          "name": "value",
          "type": "uint256"
        }
      ],
      "name": "ProvidetWithdraw",
      "type": "event"
    },
    {
      "anonymous": false,
      "inputs": [
        {
          "indexed": false,
          "internalType": "contract IERC20Upgradeable",
          "name": "token",
          "type": "address"
        }
      ],
      "name": "TokenUpdated",
      "type": "event"
    },
    {
      "anonymous": false,
      "inputs": [
        {
          "indexed": false,
          "internalType": "address",
          "name": "account",
          "type": "address"
        }
      ],
      "name": "Unpaused",
      "type": "event"
    },
    {
      "anonymous": false,
      "inputs": [
        {
          "indexed": false,
          "internalType": "contract IERC20Upgradeable",
          "name": "token",
          "type": "address"
        },
        {
          "indexed": false,
          "internalType": "address",
          "name": "to",
          "type": "address"
        },
        {
          "indexed": false,
          "internalType": "uint256",
          "name": "value",
          "type": "uint256"
        }
      ],
      "name": "Withdrawal",
      "type": "event"
    },
    {
      "inputs": [
        {
          "internalType": "address",
          "name": "owner",
          "type": "address"
        },
        {
          "internalType": "address",
          "name": "pauser",
          "type": "address"
        },
        {
          "internalType": "contract IProviders",
          "name": "providers",
          "type": "address"
        },
        {
          "internalType": "address",
          "name": "messageReceiver",
          "type": "address"
        },
        {
          "internalType": "contract IERC20Upgradeable",
          "name": "token",
          "type": "address"
        }
      ],
      "name": "Init_Payment",
      "outputs": [],
      "stateMutability": "nonpayable",
      "type": "function"
    },
    {
      "inputs": [
        {
          "internalType": "address",
          "name": "account",
          "type": "address"
        }
      ],
      "name": "addPauser",
      "outputs": [],
      "stateMutability": "nonpayable",
      "type": "function"
    },
    {
      "inputs": [],
      "name": "arStorageController",
      "outputs": [
        {
          "internalType": "contract INormalResourceController",
          "name": "",
          "type": "address"
        }
      ],
      "stateMutability": "view",
      "type": "function"
    },
    {
      "inputs": [],
      "name": "bandwidthController",
      "outputs": [
        {
          "internalType": "contract INormalResourceController",
          "name": "",
          "type": "address"
        }
      ],
      "stateMutability": "view",
      "type": "function"
    },
    {
      "inputs": [],
      "name": "buildingTimeController",
      "outputs": [
        {
          "internalType": "contract INormalResourceController",
          "name": "",
          "type": "address"
        }
      ],
      "stateMutability": "view",
      "type": "function"
    },
    {
      "inputs": [
        {
          "internalType": "uint256",
          "name": "amount",
          "type": "uint256"
        },
        {
          "components": [
            {
              "internalType": "enum ResourceData.ResourceType",
              "name": "resourceType",
              "type": "uint8"
            },
            {
              "internalType": "uint256[]",
              "name": "values",
              "type": "uint256[]"
            }
          ],
          "internalType": "struct ResourceData.Payload[]",
          "name": "payloads",
          "type": "tuple[]"
        }
      ],
      "name": "convertSourceChainPayloads",
      "outputs": [
        {
          "components": [
            {
              "internalType": "enum ResourceData.ResourceType",
              "name": "resourceType",
              "type": "uint8"
            },
            {
              "internalType": "uint256[]",
              "name": "values",
              "type": "uint256[]"
            }
          ],
          "internalType": "struct ResourceData.Payload[]",
          "name": "",
          "type": "tuple[]"
        }
      ],
      "stateMutability": "view",
      "type": "function"
    },
    {
      "inputs": [
        {
          "internalType": "bytes",
          "name": "message",
          "type": "bytes"
        }
      ],
      "name": "decodeSourceChainMessage",
      "outputs": [
        {
          "internalType": "address",
          "name": "provider",
          "type": "address"
        },
        {
          "internalType": "uint64",
          "name": "nonce",
          "type": "uint64"
        },
        {
          "internalType": "bytes32",
          "name": "account",
          "type": "bytes32"
        },
        {
          "components": [
            {
              "internalType": "enum ResourceData.ResourceType",
              "name": "resourceType",
              "type": "uint8"
            },
            {
              "internalType": "uint256[]",
              "name": "values",
              "type": "uint256[]"
            }
          ],
          "internalType": "struct ResourceData.Payload[]",
          "name": "payloads",
          "type": "tuple[]"
        }
      ],
      "stateMutability": "view",
      "type": "function"
    },
    {
      "inputs": [],
      "name": "ipfsStorageController",
      "outputs": [
        {
          "internalType": "contract IIPFSStorageController",
          "name": "",
          "type": "address"
        }
      ],
      "stateMutability": "view",
      "type": "function"
    },
    {
      "inputs": [
        {
          "internalType": "address",
          "name": "account",
          "type": "address"
        }
      ],
      "name": "isPauser",
      "outputs": [
        {
          "internalType": "bool",
          "name": "",
          "type": "bool"
        }
      ],
      "stateMutability": "view",
      "type": "function"
    },
    {
      "inputs": [],
      "name": "messageReceiver",
      "outputs": [
        {
          "internalType": "address",
          "name": "",
          "type": "address"
        }
      ],
      "stateMutability": "view",
      "type": "function"
    },
    {
      "inputs": [],
      "name": "owner",
      "outputs": [
        {
          "internalType": "address",
          "name": "",
          "type": "address"
        }
      ],
      "stateMutability": "view",
      "type": "function"
    },
    {
      "inputs": [],
      "name": "pause",
      "outputs": [],
      "stateMutability": "nonpayable",
      "type": "function"
    },
    {
      "inputs": [],
      "name": "paused",
      "outputs": [
        {
          "internalType": "bool",
          "name": "",
          "type": "bool"
        }
      ],
      "stateMutability": "view",
      "type": "function"
    },
    {
      "inputs": [
        {
          "internalType": "address",
          "name": "",
          "type": "address"
        }
      ],
      "name": "pausers",
      "outputs": [
        {
          "internalType": "bool",
          "name": "",
          "type": "bool"
        }
      ],
      "stateMutability": "view",
      "type": "function"
    },
    {
      "inputs": [
        {
          "components": [
            {
              "internalType": "address",
              "name": "provider",
              "type": "address"
            },
            {
              "internalType": "uint64",
              "name": "nonce",
              "type": "uint64"
            },
            {
              "internalType": "bytes32",
              "name": "account",
              "type": "bytes32"
            },
            {
              "components": [
                {
                  "internalType": "enum ResourceData.ResourceType",
                  "name": "resourceType",
                  "type": "uint8"
                },
                {
                  "internalType": "uint256[]",
                  "name": "values",
                  "type": "uint256[]"
                }
              ],
              "internalType": "struct ResourceData.Payload[]",
              "name": "payloads",
              "type": "tuple[]"
            }
          ],
          "internalType": "struct IDstChainPayment.PaymentPayload",
          "name": "payload",
          "type": "tuple"
        }
      ],
      "name": "pay",
      "outputs": [
        {
          "internalType": "uint256",
          "name": "value",
          "type": "uint256"
        }
      ],
      "stateMutability": "nonpayable",
      "type": "function"
    },
    {
      "inputs": [
        {
          "internalType": "contract IERC20Upgradeable",
          "name": "_token",
          "type": "address"
        },
        {
          "internalType": "uint256",
          "name": "dstAmount",
          "type": "uint256"
        },
        {
          "internalType": "bytes",
          "name": "message",
          "type": "bytes"
        }
      ],
      "name": "payFromSourceChain",
      "outputs": [
        {
          "internalType": "uint256",
          "name": "value",
          "type": "uint256"
        }
      ],
      "stateMutability": "nonpayable",
      "type": "function"
    },
    {
      "inputs": [
        {
          "internalType": "address",
          "name": "",
          "type": "address"
        }
      ],
      "name": "providerBalances",
      "outputs": [
        {
          "internalType": "uint256",
          "name": "",
          "type": "uint256"
        }
      ],
      "stateMutability": "view",
      "type": "function"
    },
    {
      "inputs": [
        {
          "internalType": "contract IERC20Upgradeable",
          "name": "token",
          "type": "address"
        },
        {
          "internalType": "address",
          "name": "to",
          "type": "address"
        },
        {
          "internalType": "uint256",
          "name": "value",
          "type": "uint256"
        }
      ],
      "name": "providerWithdraw",
      "outputs": [],
      "stateMutability": "nonpayable",
      "type": "function"
    },
    {
      "inputs": [],
      "name": "providers",
      "outputs": [
        {
          "internalType": "contract IProviders",
          "name": "",
          "type": "address"
        }
      ],
      "stateMutability": "view",
      "type": "function"
    },
    {
      "inputs": [
        {
          "internalType": "address",
          "name": "account",
          "type": "address"
        }
      ],
      "name": "removePauser",
      "outputs": [],
      "stateMutability": "nonpayable",
      "type": "function"
    },
    {
      "inputs": [],
      "name": "renounceOwnership",
      "outputs": [],
      "stateMutability": "nonpayable",
      "type": "function"
    },
    {
      "inputs": [],
      "name": "renouncePauser",
      "outputs": [],
      "stateMutability": "nonpayable",
      "type": "function"
    },
    {
      "inputs": [
        {
          "internalType": "contract INormalResourceController",
          "name": "_arStorageController",
          "type": "address"
        }
      ],
      "name": "setARStorageController",
      "outputs": [],
      "stateMutability": "nonpayable",
      "type": "function"
    },
    {
      "inputs": [
        {
          "internalType": "contract INormalResourceController",
          "name": "_bandwidthController",
          "type": "address"
        }
      ],
      "name": "setBandwidthController",
      "outputs": [],
      "stateMutability": "nonpayable",
      "type": "function"
    },
    {
      "inputs": [
        {
          "internalType": "contract INormalResourceController",
          "name": "_buildingTimeController",
          "type": "address"
        }
      ],
      "name": "setBuildingTimeController",
      "outputs": [],
      "stateMutability": "nonpayable",
      "type": "function"
    },
    {
      "inputs": [
        {
          "internalType": "contract IIPFSStorageController",
          "name": "_ipfsStorageController",
          "type": "address"
        }
      ],
      "name": "setIPFSStorageController",
      "outputs": [],
      "stateMutability": "nonpayable",
      "type": "function"
    },
    {
      "inputs": [
        {
          "internalType": "address",
          "name": "_messageReceiver",
          "type": "address"
        }
      ],
      "name": "setMessageReceiver",
      "outputs": [],
      "stateMutability": "nonpayable",
      "type": "function"
    },
    {
      "inputs": [
        {
          "internalType": "contract IERC20Upgradeable",
          "name": "_token",
          "type": "address"
        }
      ],
      "name": "setToken",
      "outputs": [],
      "stateMutability": "nonpayable",
      "type": "function"
    },
    {
      "inputs": [],
      "name": "token",
      "outputs": [
        {
          "internalType": "contract IERC20Upgradeable",
          "name": "",
          "type": "address"
        }
      ],
      "stateMutability": "view",
      "type": "function"
    },
    {
      "inputs": [
        {
          "components": [
            {
              "internalType": "enum ResourceData.ResourceType",
              "name": "resourceType",
              "type": "uint8"
            },
            {
              "internalType": "uint256[]",
              "name": "values",
              "type": "uint256[]"
            }
          ],
          "internalType": "struct ResourceData.Payload[]",
          "name": "payloads",
          "type": "tuple[]"
        }
      ],
      "name": "totalValue",
      "outputs": [
        {
          "internalType": "uint256",
          "name": "value",
          "type": "uint256"
        }
      ],
      "stateMutability": "pure",
      "type": "function"
    },
    {
      "inputs": [
        {
          "internalType": "address",
          "name": "newOwner",
          "type": "address"
        }
      ],
      "name": "transferOwnership",
      "outputs": [],
      "stateMutability": "nonpayable",
      "type": "function"
    },
    {
      "inputs": [],
      "name": "unpause",
      "outputs": [],
      "stateMutability": "nonpayable",
      "type": "function"
    },
    {
      "inputs": [
        {
          "internalType": "contract IERC20Upgradeable",
          "name": "token",
          "type": "address"
        },
        {
          "internalType": "address",
          "name": "to",
          "type": "address"
        },
        {
          "internalType": "uint256",
          "name": "value",
          "type": "uint256"
        }
      ],
      "name": "withdraw",
      "outputs": [],
      "stateMutability": "nonpayable",
      "type": "function"
    },
    {
      "inputs": [
        {
          "internalType": "address payable",
          "name": "to",
          "type": "address"
        },
        {
          "internalType": "uint256",
          "name": "value",
          "type": "uint256"
        }
      ],
      "name": "withdrawNative",
      "outputs": [],
      "stateMutability": "nonpayable",
      "type": "function"
    }
  ],
  "transactionHash": "0x8620d7e4aac0979a83b052e2b04cc0b95f140cf8555833cd41366a1379b53c18",
  "args": [
    "0xF1658C608708172655A8e70a1624c29F956Ee63D",
    "0xF1658C608708172655A8e70a1624c29F956Ee63D",
    "0x033B7570B5f789f6Db1A280f9e784cAc65F4d942",
    "0xA5B142d374982B08A95B9c0AB221975dE0109eD1",
    "0x7d43AABC515C356145049227CeE54B608342c0ad"
  ],
  "solcInputHash": "4a5f2ec43e2694c7d59c6f445ff0e705",
  "bytecode": "0x60806040523480156200001157600080fd5b50604051620036a0380380620036a0833981016040819052620000349162000431565b600054610100900460ff16620000515760005460ff16156200005b565b6200005b620000fc565b620000835760405162461bcd60e51b81526004016200007a9062000503565b60405180910390fd5b600054610100900460ff16158015620000a6576000805461ffff19166101011790555b620000b1866200011a565b620000bc856200016c565b620000c784620001a4565b620000d283620001d9565b620000dd826200020e565b8015620000f0576000805461ff00191690555b50505050505062000629565b600062000114306200024360201b62000daa1760201c565b15905090565b603380546001600160a01b038381166001600160a01b0319831681179093556040519116919082907f8be0079c531659141344cd1fd0a4f28419497f9722a3daafe3b4186f6b6457e090600090a35050565b600054610100900460ff16620001965760405162461bcd60e51b81526004016200007a906200055e565b620001a18162000252565b50565b600054610100900460ff16620001ce5760405162461bcd60e51b81526004016200007a906200055e565b620001a181620002ee565b600054610100900460ff16620002035760405162461bcd60e51b81526004016200007a906200055e565b620001a1816200033b565b600054610100900460ff16620002385760405162461bcd60e51b81526004016200007a906200055e565b620001a18162000388565b6001600160a01b03163b151590565b6001600160a01b038116600090815260ca602052604090205460ff16156200028e5760405162461bcd60e51b81526004016200007a90620005af565b6001600160a01b038116600090815260ca602052604090819020805460ff19166001179055517f6719d08c1888103bea251a4ed56406bd0c3e69723c8a1686e017e7bbe159b6f890620002e3908390620005d2565b60405180910390a150565b60cb80546001600160a01b0319166001600160a01b0383161790556040517fe63288198842f0dacdcbdc3f22dcd4e473d1f3cee7e10603ae6ddc3e667c528490620002e390839062000619565b606580546001600160a01b0319166001600160a01b0383161790556040517fafe9b28ca24a54df8c44769c685f7b92824aae021cdfcaa4719d493571a23c4c90620002e3908390620005d2565b60d080546001600160a01b0319166001600160a01b0383161790556040517f5ba6b30cd4b2f9e9e67f4feb9b9df10d5da3b057598e6901b217b7d590345e3090620002e390839062000619565b60006001600160a01b0382165b92915050565b620003f381620003d5565b8114620001a157600080fd5b8051620003e281620003e8565b6000620003e282620003d5565b620003f3816200040c565b8051620003e28162000419565b600080600080600060a086880312156200044e576200044e600080fd5b60006200045c8888620003ff565b95505060206200046f88828901620003ff565b9450506040620004828882890162000424565b93505060606200049588828901620003ff565b9250506080620004a88882890162000424565b9150509295509295909350565b602e81526000602082017f496e697469616c697a61626c653a20636f6e747261637420697320616c72656181526d191e481a5b9a5d1a585b1a5e995960921b602082015291505b5060400190565b60208082528101620003e281620004b5565b602b81526000602082017f496e697469616c697a61626c653a20636f6e7472616374206973206e6f74206981526a6e697469616c697a696e6760a81b60208201529150620004fc565b60208082528101620003e28162000515565b602181526000602082017f5061757365723a204163636f756e7420697320616c72656164792070617573658152603960f91b60208201529150620004fc565b60208082528101620003e28162000570565b620005cc81620003d5565b82525050565b60208101620003e28284620005c1565b60006001600160a01b038216620003e2565b6000620003e282620005e2565b6000620003e282620005f4565b620005cc8162000601565b60208101620003e282846200060e565b61306780620006396000396000f3fe608060405234801561001057600080fd5b50600436106102065760003560e01c806377ef533c1161011a578063bb371111116100ad578063e84372491161007c578063e843724914610471578063f2fde38b14610484578063f8401fe614610497578063f8f071fa146104aa578063fc0c546a146104bd57600080fd5b8063bb37111114610415578063bd16997514610428578063d9caed121461044b578063e2cae9f51461045e57600080fd5b80638456cb59116100e95780638456cb59146103cd5780638da5cb5b146103d5578063914fd2c3146103ef578063b05f87a81461040257600080fd5b806377ef533c146103715780637a7fa7531461038457806380f51c121461039757806382dc1ec4146103ba57600080fd5b80634540a85b1161019d5780635618ce2d1161016c5780635618ce2d146103235780635c975abb146103435780636b2c0f551461034e5780636ef8d66d14610361578063715018a61461036957600080fd5b80634540a85b146102ca57806346fbf68e146102dd578063490e4fa2146102fd57806349ea49e01461031057600080fd5b806328ac7f2c116101d957806328ac7f2c1461026f57806329dbfc751461029c5780633b8ccfb1146102af5780633f4ba83a146102c257600080fd5b806307b18bde1461020b578063144fa6d71461022057806315e07769146102335780632413c1271461025c575b600080fd5b61021e610219366004611ab2565b6104d0565b005b61021e61022e366004611b0e565b610587565b60ce54610246906001600160a01b031681565b6040516102539190611b49565b60405180910390f35b61021e61026a366004611b57565b6105bd565b61028f61027d366004611bcf565b60d16020526000908152604090205481565b6040516102539190611bf6565b60cc54610246906001600160a01b031681565b61021e6102bd366004611bcf565b610661565b61021e610694565b61021e6102d8366004611b0e565b6106c3565b6102f06102eb366004611bcf565b6106f6565b6040516102539190611c0c565b61028f61030b366004611ed2565b610714565b61021e61031e366004611f0c565b61077b565b610336610331366004611f5c565b610916565b60405161025391906120f1565b60985460ff166102f0565b61021e61035c366004611bcf565b61092b565b61021e61095e565b61021e610967565b61028f61037f366004612153565b61099b565b61021e610392366004611b0e565b610af0565b6102f06103a5366004611bcf565b60ca6020526000908152604090205460ff1681565b61021e6103c8366004611bcf565b610b23565b61021e610b56565b6033546001600160a01b03165b60405161025391906121c9565b61021e6103fd366004611b0e565b610b83565b60cf54610246906001600160a01b031681565b61028f6104233660046121d7565b610bb6565b61043b6104363660046122a7565b610c83565b60405161025394939291906122f0565b61021e610459366004611f0c565b610cad565b6065546103e2906001600160a01b031681565b61021e61047f366004611b0e565b610d1e565b61021e610492366004611bcf565b610d51565b60cb54610246906001600160a01b031681565b60cd54610246906001600160a01b031681565b60d054610246906001600160a01b031681565b6033546001600160a01b031633146105035760405162461bcd60e51b81526004016104fa90612369565b60405180910390fd5b6040516000906001600160a01b0384169083156108fc0290849084818181858888f193505050509050806105495760405162461bcd60e51b81526004016104fa906123be565b7f2c876ecb97b3c6854f2488d373403f903eacb800e51c159a5c0c7a9c857e4827838360405161057a9291906123ce565b60405180910390a1505050565b6033546001600160a01b031633146105b15760405162461bcd60e51b81526004016104fa90612369565b6105ba81610db9565b50565b600054610100900460ff166105d85760005460ff16156105dc565b303b155b6105f85760405162461bcd60e51b81526004016104fa90612434565b600054610100900460ff1615801561061a576000805461ffff19166101011790555b61062386610e0f565b61062c85610e61565b61063584610e88565b61063e83610eb8565b61064782610edf565b8015610659576000805461ff00191690555b505050505050565b6033546001600160a01b0316331461068b5760405162461bcd60e51b81526004016104fa90612369565b6105ba81610f06565b61069d336106f6565b6106b95760405162461bcd60e51b81526004016104fa90612478565b6106c1610f51565b565b6033546001600160a01b031633146106ed5760405162461bcd60e51b81526004016104fa90612369565b6105ba81610fb7565b6001600160a01b0316600090815260ca602052604090205460ff1690565b600061072260985460ff1690565b1561073f5760405162461bcd60e51b81526004016104fa906124af565b600260665414156107625760405162461bcd60e51b81526004016104fa906124f3565b600260665561077082611002565b600160665592915050565b60985460ff161561079e5760405162461bcd60e51b81526004016104fa906124af565b600260665414156107c15760405162461bcd60e51b81526004016104fa906124f3565b600260665560cb54604051636b074a0760e01b81526001600160a01b0390911690636b074a07906107f69033906004016121c9565b60206040518083038186803b15801561080e57600080fd5b505afa158015610822573d6000803e3d6000fd5b505050506040513d601f19601f820116820180604052508101906108469190612516565b6108625760405162461bcd60e51b81526004016104fa9061257d565b33600090815260d160205260409020548111156108915760405162461bcd60e51b81526004016104fa906125d8565b33600090815260d160205260409020546108ab9082611161565b33600090815260d160205260409020556108cf6001600160a01b038416838361116d565b7f6a5b5b630c1c43e83d8863b2f40228b9238480ce8c629132ea0862c7ce6c1b233384848460405161090494939291906125e8565b60405180910390a15050600160665550565b606061092283836111c8565b90505b92915050565b6033546001600160a01b031633146109555760405162461bcd60e51b81526004016104fa90612369565b6105ba81611346565b6106c133611346565b6033546001600160a01b031633146109915760405162461bcd60e51b81526004016104fa90612369565b6106c16000610e0f565b6065546000906001600160a01b031633146109c85760405162461bcd60e51b81526004016104fa90612670565b60985460ff16156109eb5760405162461bcd60e51b81526004016104fa906124af565b60026066541415610a0e5760405162461bcd60e51b81526004016104fa906124f3565b600260665560d0546001600160a01b03868116911614610a405760405162461bcd60e51b81526004016104fa906126b4565b600080600080610a8587878080601f016020809104026020016040519081016040528093929190818152602001838380828437600092019190915250610c8392505050565b935093509350935060006040518060800160405280866001600160a01b03168152602001856001600160401b03168152602001848152602001610ad0610aca8c6113bb565b856111c8565b90529050610add81611002565b60016066559a9950505050505050505050565b6033546001600160a01b03163314610b1a5760405162461bcd60e51b81526004016104fa90612369565b6105ba816113cc565b6033546001600160a01b03163314610b4d5760405162461bcd60e51b81526004016104fa90612369565b6105ba81611417565b610b5f336106f6565b610b7b5760405162461bcd60e51b81526004016104fa90612478565b6106c1611490565b6033546001600160a01b03163314610bad5760405162461bcd60e51b81526004016104fa90612369565b6105ba816114e8565b600080825111610bd85760405162461bcd60e51b81526004016104fa9061270b565b60005b8251811015610c7d5760005b838281518110610bf957610bf961271b565b60200260200101516020015151811015610c6a57610c56848381518110610c2257610c2261271b565b6020026020010151602001518281518110610c3f57610c3f61271b565b60200260200101518461153390919063ffffffff16565b925080610c6281612747565b915050610be7565b5080610c7581612747565b915050610bdb565b50919050565b6000806000606084806020019051810190610c9e91906128ec565b92989197509550909350915050565b6033546001600160a01b03163314610cd75760405162461bcd60e51b81526004016104fa90612369565b610ceb6001600160a01b038416838361116d565b7f2717ead6b9200dd235aad468c9809ea400fe33ac69b5bfaa6d3e90fc922b639883838360405161057a9392919061296a565b6033546001600160a01b03163314610d485760405162461bcd60e51b81526004016104fa90612369565b6105ba8161153f565b6033546001600160a01b03163314610d7b5760405162461bcd60e51b81526004016104fa90612369565b6001600160a01b038116610da15760405162461bcd60e51b81526004016104fa906129d5565b6105ba81610e0f565b6001600160a01b03163b151590565b60d080546001600160a01b0319166001600160a01b0383161790556040517f5ba6b30cd4b2f9e9e67f4feb9b9df10d5da3b057598e6901b217b7d590345e3090610e04908390611b49565b60405180910390a150565b603380546001600160a01b038381166001600160a01b0319831681179093556040519116919082907f8be0079c531659141344cd1fd0a4f28419497f9722a3daafe3b4186f6b6457e090600090a35050565b600054610100900460ff16610b4d5760405162461bcd60e51b81526004016104fa90612a2d565b600054610100900460ff16610eaf5760405162461bcd60e51b81526004016104fa90612a2d565b6105ba8161158a565b600054610100900460ff1661068b5760405162461bcd60e51b81526004016104fa90612a2d565b600054610100900460ff166105b15760405162461bcd60e51b81526004016104fa90612a2d565b606580546001600160a01b0319166001600160a01b0383161790556040517fafe9b28ca24a54df8c44769c685f7b92824aae021cdfcaa4719d493571a23c4c90610e049083906121c9565b60985460ff16610f735760405162461bcd60e51b81526004016104fa90612a68565b6098805460ff191690557f5db9ee0a495bf2e6ff9c91a7834c1ba4fdd244a5e8aa4e537bd38aeae4b073aa335b604051610fad91906121c9565b60405180910390a1565b60cf80546001600160a01b0319166001600160a01b0383161790556040517f7b091d9397a2f75213edeec1728b27a9d863f0f8aafb62fce0f1154f48f110f890610e04908390611b49565b60cb548151604051636b074a0760e01b81526000926001600160a01b031691636b074a079161103491906004016121c9565b60206040518083038186803b15801561104c57600080fd5b505afa158015611060573d6000803e3d6000fd5b505050506040513d601f19601f820116820180604052508101906110849190612516565b6110a05760405162461bcd60e51b81526004016104fa90612aba565b6110b2826040015183606001516115d5565b90506110bd8161174a565b60d0549091506110d8906001600160a01b031633308461175b565b81516001600160a01b0316600090815260d160205260409020546110fc9082611533565b82516001600160a01b03908116600090815260d16020526040908190209290925560d05491517f699b2f7653a6bfb60eabd345a469cd1a72cf9733ed0179acb41b3d0b8d6b8583926111549233929116908690612b75565b60405180910390a1919050565b60006109228284612ba2565b6111c38363a9059cbb60e01b848460405160240161118c929190612bb9565b60408051601f198184030181529190526020810180516001600160e01b03166001600160e01b031990931692909217909152611782565b505050565b606060008251116111eb5760405162461bcd60e51b81526004016104fa90612c0d565b60006111f683610bb6565b9050600081116112185760405162461bcd60e51b81526004016104fa90612c51565b60005b835181101561133d5760008482815181106112385761123861271b565b60200260200101516020015151116112625760405162461bcd60e51b81526004016104fa90612ca5565b60005b8482815181106112775761127761271b565b6020026020010151602001515181101561132a576112de836112d8888886815181106112a5576112a561271b565b60200260200101516020015185815181106112c2576112c261271b565b602002602001015161181190919063ffffffff16565b9061181d565b8583815181106112f0576112f061271b565b602002602001015160200151828151811061130d5761130d61271b565b60209081029190910101528061132281612747565b915050611265565b508061133581612747565b91505061121b565b50919392505050565b61134f816106f6565b61136b5760405162461bcd60e51b81526004016104fa90612ce9565b6001600160a01b038116600090815260ca602052604090819020805460ff19169055517fcd265ebaf09df2871cc7bd4133404a235ba12eff2041bb89d9c714a2621c7c7e90610e049083906121c9565b60006109258264e8d4a51000611811565b60cd80546001600160a01b0319166001600160a01b0383161790556040517f100702071f8eb4f459f5f9dcf12bba9b3aeafa0eca6a018364f645558d792c3790610e04908390611b49565b611420816106f6565b1561143d5760405162461bcd60e51b81526004016104fa90612d37565b6001600160a01b038116600090815260ca602052604090819020805460ff19166001179055517f6719d08c1888103bea251a4ed56406bd0c3e69723c8a1686e017e7bbe159b6f890610e049083906121c9565b60985460ff16156114b35760405162461bcd60e51b81526004016104fa906124af565b6098805460ff191660011790557f62e78cea01bee320cd4e420270b5ea74000d11b0c9f74754ebdbfc544b05a258610fa03390565b60ce80546001600160a01b0319166001600160a01b0383161790556040517f6a7e09ebc58179cd1c17c89209474e58d29e43b1bf78dd57f896e7be983220eb90610e04908390611b49565b60006109228284612d47565b60cc80546001600160a01b0319166001600160a01b0383161790556040517feb1b948f6c63784a1d91e42dd967c49aae87b1db36d3107e9b913963ae7cd03990610e04908390611b49565b60cb80546001600160a01b0319166001600160a01b0383161790556040517fe63288198842f0dacdcbdc3f22dcd4e473d1f3cee7e10603ae6ddc3e667c528490610e04908390611b49565b6000808251116115f75760405162461bcd60e51b81526004016104fa90612d9d565b60005b82518110156117435760008382815181106116175761161761271b565b602002602001015190506001600481111561163457611634611fa9565b8151600481111561164757611647611fa9565b14156116765760cc5461166f90611668906001600160a01b03168784611829565b8490611533565b9250611730565b60038151600481111561168b5761168b611fa9565b14156116ac5760ce5461166f90611668906001600160a01b03168784611829565b6002815160048111156116c1576116c1611fa9565b14156116e25760cd5461166f90611668906001600160a01b03168784611829565b6004815160048111156116f7576116f7611fa9565b14156117185760cf5461166f90611668906001600160a01b031687846118f8565b60405162461bcd60e51b81526004016104fa90612df0565b508061173b81612747565b9150506115fa565b5092915050565b60006109258264e8d4a5100061181d565b61177c846323b872dd60e01b85858560405160240161118c93929190612e00565b50505050565b60006117d7826040518060400160405280602081526020017f5361666545524332303a206c6f772d6c6576656c2063616c6c206661696c6564815250856001600160a01b031661198b9092919063ffffffff16565b8051909150156111c357808060200190518101906117f59190612516565b6111c35760405162461bcd60e51b81526004016104fa90612e55565b60006109228284612e65565b60006109228284612e9a565b60008160200151516001146118505760405162461bcd60e51b81526004016104fa90612ef6565b836001600160a01b031663467aa8de8484602001516000815181106118775761187761271b565b60200260200101516040518363ffffffff1660e01b815260040161189c929190612f06565b602060405180830381600087803b1580156118b657600080fd5b505af11580156118ca573d6000803e3d6000fd5b505050506040513d601f19601f820116820180604052508101906118ee9190612f14565b90505b9392505050565b600081602001515160021461191f5760405162461bcd60e51b81526004016104fa90612ef6565b836001600160a01b0316634235fec08484602001516000815181106119465761194661271b565b602002602001015185602001516001815181106119655761196561271b565b60200260200101516040518463ffffffff1660e01b815260040161189c93929190612f35565b60606118ee8484600085856001600160a01b0385163b6119bd5760405162461bcd60e51b81526004016104fa90612f84565b600080866001600160a01b031685876040516119d99190612fe2565b60006040518083038185875af1925050503d8060008114611a16576040519150601f19603f3d011682016040523d82523d6000602084013e611a1b565b606091505b5091509150611a2b828286611a38565b925050505b949350505050565b60608315611a475750816118f1565b825115611a575782518084602001fd5b8160405162461bcd60e51b81526004016104fa9190613020565b60006001600160a01b038216610925565b611a8b81611a71565b81146105ba57600080fd5b803561092581611a82565b80611a8b565b803561092581611aa1565b60008060408385031215611ac857611ac8600080fd5b6000611ad48585611a96565b9250506020611ae585828601611aa7565b9150509250929050565b600061092582611a71565b611a8b81611aef565b803561092581611afa565b600060208284031215611b2357611b23600080fd5b6000611a308484611b03565b600061092582611aef565b611b4381611b2f565b82525050565b602081016109258284611b3a565b600080600080600060a08688031215611b7257611b72600080fd5b6000611b7e8888611a96565b9550506020611b8f88828901611a96565b9450506040611ba088828901611b03565b9350506060611bb188828901611a96565b9250506080611bc288828901611b03565b9150509295509295909350565b600060208284031215611be457611be4600080fd5b6000611a308484611a96565b80611b43565b602081016109258284611bf0565b801515611b43565b602081016109258284611c04565b634e487b7160e01b600052604160045260246000fd5b601f19601f83011681018181106001600160401b0382111715611c5557611c55611c1a565b6040525050565b6000611c6760405190565b9050611c738282611c30565b919050565b6001600160401b038116611a8b565b803561092581611c78565b60006001600160401b03821115611cab57611cab611c1a565b5060209081020190565b600581106105ba57600080fd5b803561092581611cb5565b6000611ce0611cdb84611c92565b611c5c565b83815290506020808201908402830185811115611cff57611cff600080fd5b835b81811015611d235780611d148882611aa7565b84525060209283019201611d01565b5050509392505050565b600082601f830112611d4157611d41600080fd5b8135611a30848260208601611ccd565b600060408284031215611d6657611d66600080fd5b611d706040611c5c565b90506000611d7e8484611cc2565b82525060208201356001600160401b03811115611d9d57611d9d600080fd5b611da984828501611d2d565b60208301525092915050565b6000611dc3611cdb84611c92565b83815290506020808201908402830185811115611de257611de2600080fd5b835b81811015611d235780356001600160401b03811115611e0557611e05600080fd5b808601611e128982611d51565b8552505060209283019201611de4565b600082601f830112611e3657611e36600080fd5b8135611a30848260208601611db5565b600060808284031215611e5b57611e5b600080fd5b611e656080611c5c565b90506000611e738484611a96565b8252506020611e8484848301611c87565b6020830152506040611e9884828501611aa7565b60408301525060608201356001600160401b03811115611eba57611eba600080fd5b611ec684828501611e22565b60608301525092915050565b600060208284031215611ee757611ee7600080fd5b81356001600160401b03811115611f0057611f00600080fd5b611a3084828501611e46565b600080600060608486031215611f2457611f24600080fd5b6000611f308686611b03565b9350506020611f4186828701611a96565b9250506040611f5286828701611aa7565b9150509250925092565b60008060408385031215611f7257611f72600080fd5b6000611f7e8585611aa7565b92505060208301356001600160401b03811115611f9d57611f9d600080fd5b611ae585828601611e22565b634e487b7160e01b600052602160045260246000fd5b600581106105ba576105ba611fa9565b80611c7381611fbf565b600061092582611fcf565b611b4381611fd9565b6000611ff98383611bf0565b505060200190565b600061200b825190565b80845260209384019383018060005b8381101561203f57815161202e8882611fed565b97506020830192505060010161201a565b509495945050505050565b8051600090604084019061205e8582611fe4565b50602083015184820360208601526120768282612001565b95945050505050565b6000610922838361204a565b6000612095825190565b808452602084019350836020820285016120af8560200190565b8060005b858110156120e457848403895281516120cc858261207f565b94506020830160209a909a01999250506001016120b3565b5091979650505050505050565b60208082528101610922818461208b565b60008083601f84011261211757612117600080fd5b5081356001600160401b0381111561213157612131600080fd5b60208301915083600182028301111561214c5761214c600080fd5b9250929050565b6000806000806060858703121561216c5761216c600080fd5b60006121788787611b03565b945050602061218987828801611aa7565b93505060408501356001600160401b038111156121a8576121a8600080fd5b6121b487828801612102565b95989497509550505050565b611b4381611a71565b6020810161092582846121c0565b6000602082840312156121ec576121ec600080fd5b81356001600160401b0381111561220557612205600080fd5b611a3084828501611e22565b60006001600160401b0382111561222a5761222a611c1a565b601f19601f83011660200192915050565b82818337506000910152565b6000612255611cdb84612211565b90508281526020810184848401111561227057612270600080fd5b61227b84828561223b565b509392505050565b600082601f83011261229757612297600080fd5b8135611a30848260208601612247565b6000602082840312156122bc576122bc600080fd5b81356001600160401b038111156122d5576122d5600080fd5b611a3084828501612283565b6001600160401b038116611b43565b608081016122fe82876121c0565b61230b60208301866122e1565b6123186040830185611bf0565b818103606083015261232a818461208b565b9695505050505050565b60208082527f4f776e61626c653a2063616c6c6572206973206e6f7420746865206f776e6572910190815260005b5060200190565b6020808252810161092581612334565b602581526000602082017f5061796d656e743a207769746864726177206e617469766520746f6b656e2066815264185a5b195960da1b602082015291505b5060400190565b6020808252810161092581612379565b604081016123dc8285611b3a565b6118f16020830184611bf0565b602e81526000602082017f496e697469616c697a61626c653a20636f6e747261637420697320616c72656181526d191e481a5b9a5d1a585b1a5e995960921b602082015291506123b7565b60208082528101610925816123e9565b601c81526000602082017f5061757365723a2043616c6c6572206973206e6f74207061757365720000000081529150612362565b6020808252810161092581612444565b601081526000602082016f14185d5cd8589b194e881c185d5cd95960821b81529150612362565b6020808252810161092581612488565b601f81526000602082017f5265656e7472616e637947756172643a207265656e7472616e742063616c6c0081529150612362565b60208082528101610925816124bf565b801515611a8b565b805161092581612503565b60006020828403121561252b5761252b600080fd5b6000611a30848461250b565b602981526000602082017f447374436861696e5061796d656e743a2063616c6c6572206973206e6f74206181526810383937bb34b232b960b91b602082015291506123b7565b6020808252810161092581612537565b602e81526000602082017f447374436861696e5061796d656e743a20696e73756666696369656e7420707281526d6f76696465722062616c616e636560901b602082015291506123b7565b602080825281016109258161258d565b608081016125f682876121c0565b6126036020830186611b3a565b61261060408301856121c0565b6120766060830184611bf0565b603681526000602082017f4d6573736167655265636569766572577261707065723a2063616c6c6572206981527539903737ba1036b2b9b9b0b3b2903932b1b2b4bb32b960511b602082015291506123b7565b602080825281016109258161261d565b601e81526000602082017f447374436861696e5061796d656e743a20696e76616c696420746f6b656e000081529150612362565b6020808252810161092581612680565b602a81526000602082017f5265736f75725061796c6f6164546f6f6c3a20696e76616c6964207061796c6f8152690c2c8e640d8cadccee8d60b31b602082015291506123b7565b60208082528101610925816126c4565b634e487b7160e01b600052603260045260246000fd5b634e487b7160e01b600052601160045260246000fd5b600060001982141561275b5761275b612731565b5060010190565b805161092581611a82565b805161092581611c78565b805161092581611aa1565b805161092581611cb5565b600061279c611cdb84611c92565b838152905060208082019084028301858111156127bb576127bb600080fd5b835b81811015611d2357806127d08882612778565b845250602092830192016127bd565b600082601f8301126127f3576127f3600080fd5b8151611a3084826020860161278e565b60006040828403121561281857612818600080fd5b6128226040611c5c565b905060006128308484612783565b82525060208201516001600160401b0381111561284f5761284f600080fd5b611da9848285016127df565b6000612869611cdb84611c92565b8381529050602080820190840283018581111561288857612888600080fd5b835b81811015611d235780516001600160401b038111156128ab576128ab600080fd5b8086016128b88982612803565b855250506020928301920161288a565b600082601f8301126128dc576128dc600080fd5b8151611a3084826020860161285b565b6000806000806080858703121561290557612905600080fd5b60006129118787612762565b94505060206129228782880161276d565b935050604061293387828801612778565b92505060608501516001600160401b0381111561295257612952600080fd5b61295e878288016128c8565b91505092959194509250565b606081016129788286611b3a565b61298560208301856121c0565b611a306040830184611bf0565b602681526000602082017f4f776e61626c653a206e6577206f776e657220697320746865207a65726f206181526564647265737360d01b602082015291506123b7565b6020808252810161092581612992565b602b81526000602082017f496e697469616c697a61626c653a20636f6e7472616374206973206e6f74206981526a6e697469616c697a696e6760a81b602082015291506123b7565b60208082528101610925816129e5565b601481526000602082017314185d5cd8589b194e881b9bdd081c185d5cd95960621b81529150612362565b6020808252810161092581612a3d565b602581526000602082017f447374436861696e5061796d656e743a206e6f6e6578697374656e742070726f8152643b34b232b960d91b602082015291506123b7565b6020808252810161092581612a78565b6000612ad4825190565b80845260208401935083602082028501612aee8560200190565b8060005b858110156120e45784840389528151612b0b858261207f565b94506020830160209a909a0199925050600101612af2565b80516000906080840190612b3785826121c0565b506020830151612b4a60208601826122e1565b506040830151612b5d6040860182611bf0565b50606083015184820360608601526120768282612aca565b60608101612b8382866121c0565b612b906020830185611b3a565b81810360408301526120768184612b23565b600082821015612bb457612bb4612731565b500390565b604081016123dc82856121c0565b602981526000602082017f5265736f75725061796c6f6164546f6f6c3a20696e76616c6964207061796c6f8152680c2c840d8cadccee8d60bb1b602082015291506123b7565b6020808252810161092581612bc7565b601e81526000602082017f5265736f75725061796c6f6164546f6f6c3a207a65726f2076616c756573000081529150612362565b6020808252810161092581612c1d565b602781526000602082017f5265736f75725061796c6f6164546f6f6c3a20696e76616c69642076616c7565815266040d8cadccee8d60cb1b602082015291506123b7565b6020808252810161092581612c61565b601d81526000602082017f5061757365723a204163636f756e74206973206e6f742070617573657200000081529150612362565b6020808252810161092581612cb5565b602181526000602082017f5061757365723a204163636f756e7420697320616c72656164792070617573658152603960f91b602082015291506123b7565b6020808252810161092581612cf9565b60008219821115612d5a57612d5a612731565b500190565b602181526000602082017f447374436861696e5061796d656e743a20696e76616c6964207061796c6f61648152607360f81b602082015291506123b7565b6020808252810161092581612d5f565b602681526000602082017f447374436861696e5061796d656e743a20756e6b6e6f776e207265736f75726381526565207479706560d01b602082015291506123b7565b6020808252810161092581612dad565b6060810161297882866121c0565b602a81526000602082017f5361666545524332303a204552433230206f7065726174696f6e20646964206e8152691bdd081cdd58d8d9595960b21b602082015291506123b7565b6020808252810161092581612e0e565b6000816000190483118215151615612e7f57612e7f612731565b500290565b634e487b7160e01b600052601260045260246000fd5b600082612ea957612ea9612e84565b500490565b602b81526000602082017f447374436861696e5061796d656e743a20696e76616c696420746f6b656e207681526a0c2d8eaca40d8cadccee8d60ab1b602082015291506123b7565b6020808252810161092581612eae565b604081016123dc8285611bf0565b600060208284031215612f2957612f29600080fd5b6000611a308484612778565b60608101612f438286611bf0565b6129856020830185611bf0565b601d81526000602082017f416464726573733a2063616c6c20746f206e6f6e2d636f6e747261637400000081529150612362565b6020808252810161092581612f50565b60005b83811015612faf578181015183820152602001612f97565b8381111561177c5750506000910152565b6000612fca825190565b612fd8818560208601612f94565b9290920192915050565b60006118f18284612fc0565b6000612ff8825190565b80845260208401935061300f818560208601612f94565b601f01601f19169290920192915050565b602080825281016109228184612fee56fea26469706673582212200493b6ce94abb3a1fa0d7ce25b9e793b00d98c4d71c50d4b0ff7f42397f179bc64736f6c63430008090033",
  "devdoc": {
    "kind": "dev",
    "methods": {
      "owner()": {
        "details": "Returns the address of the current owner."
      },
      "paused()": {
        "details": "Returns true if the contract is paused, and false otherwise."
      },
      "renounceOwnership()": {
        "details": "Leaves the contract without owner. It will not be possible to call `onlyOwner` functions anymore. Can only be called by the current owner. NOTE: Renouncing ownership will leave the contract without an owner, thereby removing any functionality that is only available to the owner."
      },
      "transferOwnership(address)": {
        "details": "Transfers ownership of the contract to a new account (`newOwner`). Can only be called by the current owner."
      }
    },
    "version": 1
  },
  "userdoc": {
    "kind": "user",
    "methods": {},
    "version": 1
  },
  "storageLayout": {
    "storage": [
      {
        "astId": 147,
        "contract": "contracts/payment/DstChainPayment.sol:DstChainPayment",
        "label": "_initialized",
        "offset": 0,
        "slot": "0",
        "type": "t_bool"
      },
      {
        "astId": 150,
        "contract": "contracts/payment/DstChainPayment.sol:DstChainPayment",
        "label": "_initializing",
        "offset": 1,
        "slot": "0",
        "type": "t_bool"
      },
      {
        "astId": 1608,
        "contract": "contracts/payment/DstChainPayment.sol:DstChainPayment",
        "label": "__gap",
        "offset": 0,
        "slot": "1",
        "type": "t_array(t_uint256)50_storage"
      },
      {
        "astId": 10,
        "contract": "contracts/payment/DstChainPayment.sol:DstChainPayment",
        "label": "_owner",
        "offset": 0,
        "slot": "51",
        "type": "t_address"
      },
      {
        "astId": 122,
        "contract": "contracts/payment/DstChainPayment.sol:DstChainPayment",
        "label": "__gap",
        "offset": 0,
        "slot": "52",
        "type": "t_array(t_uint256)49_storage"
      },
      {
        "astId": 4221,
        "contract": "contracts/payment/DstChainPayment.sol:DstChainPayment",
        "label": "messageReceiver",
        "offset": 0,
        "slot": "101",
        "type": "t_address"
      },
      {
        "astId": 339,
        "contract": "contracts/payment/DstChainPayment.sol:DstChainPayment",
        "label": "_status",
        "offset": 0,
        "slot": "102",
        "type": "t_uint256"
      },
      {
        "astId": 383,
        "contract": "contracts/payment/DstChainPayment.sol:DstChainPayment",
        "label": "__gap",
        "offset": 0,
        "slot": "103",
        "type": "t_array(t_uint256)49_storage"
      },
      {
        "astId": 235,
        "contract": "contracts/payment/DstChainPayment.sol:DstChainPayment",
        "label": "_paused",
        "offset": 0,
        "slot": "152",
        "type": "t_bool"
      },
      {
        "astId": 324,
        "contract": "contracts/payment/DstChainPayment.sol:DstChainPayment",
        "label": "__gap",
        "offset": 0,
        "slot": "153",
        "type": "t_array(t_uint256)49_storage"
      },
      {
        "astId": 3319,
        "contract": "contracts/payment/DstChainPayment.sol:DstChainPayment",
        "label": "pausers",
        "offset": 0,
        "slot": "202",
        "type": "t_mapping(t_address,t_bool)"
      },
      {
        "astId": 6419,
        "contract": "contracts/payment/DstChainPayment.sol:DstChainPayment",
        "label": "providers",
        "offset": 0,
        "slot": "203",
        "type": "t_contract(IProviders)3798"
      },
      {
        "astId": 6597,
        "contract": "contracts/payment/DstChainPayment.sol:DstChainPayment",
        "label": "buildingTimeController",
        "offset": 0,
        "slot": "204",
        "type": "t_contract(INormalResourceController)7909"
      },
      {
        "astId": 6600,
        "contract": "contracts/payment/DstChainPayment.sol:DstChainPayment",
        "label": "bandwidthController",
        "offset": 0,
        "slot": "205",
        "type": "t_contract(INormalResourceController)7909"
      },
      {
        "astId": 6603,
        "contract": "contracts/payment/DstChainPayment.sol:DstChainPayment",
        "label": "arStorageController",
        "offset": 0,
        "slot": "206",
        "type": "t_contract(INormalResourceController)7909"
      },
      {
        "astId": 6606,
        "contract": "contracts/payment/DstChainPayment.sol:DstChainPayment",
        "label": "ipfsStorageController",
        "offset": 0,
        "slot": "207",
        "type": "t_contract(IIPFSStorageController)7881"
      },
      {
        "astId": 4937,
        "contract": "contracts/payment/DstChainPayment.sol:DstChainPayment",
        "label": "token",
        "offset": 0,
        "slot": "208",
        "type": "t_contract(IERC20Upgradeable)1075"
      },
      {
        "astId": 4941,
        "contract": "contracts/payment/DstChainPayment.sol:DstChainPayment",
        "label": "providerBalances",
        "offset": 0,
        "slot": "209",
        "type": "t_mapping(t_address,t_uint256)"
      }
    ],
    "types": {
      "t_address": {
        "encoding": "inplace",
        "label": "address",
        "numberOfBytes": "20"
      },
      "t_array(t_uint256)49_storage": {
        "base": "t_uint256",
        "encoding": "inplace",
        "label": "uint256[49]",
        "numberOfBytes": "1568"
      },
      "t_array(t_uint256)50_storage": {
        "base": "t_uint256",
        "encoding": "inplace",
        "label": "uint256[50]",
        "numberOfBytes": "1600"
      },
      "t_bool": {
        "encoding": "inplace",
        "label": "bool",
        "numberOfBytes": "1"
      },
      "t_contract(IERC20Upgradeable)1075": {
        "encoding": "inplace",
        "label": "contract IERC20Upgradeable",
        "numberOfBytes": "20"
      },
      "t_contract(IIPFSStorageController)7881": {
        "encoding": "inplace",
        "label": "contract IIPFSStorageController",
        "numberOfBytes": "20"
      },
      "t_contract(INormalResourceController)7909": {
        "encoding": "inplace",
        "label": "contract INormalResourceController",
        "numberOfBytes": "20"
      },
      "t_contract(IProviders)3798": {
        "encoding": "inplace",
        "label": "contract IProviders",
        "numberOfBytes": "20"
      },
      "t_mapping(t_address,t_bool)": {
        "encoding": "mapping",
        "key": "t_address",
        "label": "mapping(address => bool)",
        "numberOfBytes": "32",
        "value": "t_bool"
      },
      "t_mapping(t_address,t_uint256)": {
        "encoding": "mapping",
        "key": "t_address",
        "label": "mapping(address => uint256)",
        "numberOfBytes": "32",
        "value": "t_uint256"
      },
      "t_uint256": {
        "encoding": "inplace",
        "label": "uint256",
        "numberOfBytes": "32"
      }
    }
  }
}