{
  "address": "0x3bC6f62413b9aedaD34CF0AC53A33cCdf43d2B28",
  "abi": [
    {
      "inputs": [
        {
          "internalType": "address",
          "name": "owner",
          "type": "address"
        },
        {
          "internalType": "address",
          "name": "pauser",
          "type": "address"
        },
        {
          "internalType": "contract IProviders",
          "name": "providers",
          "type": "address"
        },
        {
          "internalType": "address",
          "name": "messageReceiver",
          "type": "address"
        },
        {
          "internalType": "contract IERC20Upgradeable",
          "name": "token",
          "type": "address"
        }
      ],
      "stateMutability": "nonpayable",
      "type": "constructor"
    },
    {
      "anonymous": false,
      "inputs": [
        {
          "indexed": false,
          "internalType": "contract INormalResourceController",
          "name": "_arStorageController",
          "type": "address"
        }
      ],
      "name": "ARStorageControllerUpdated",
      "type": "event"
    },
    {
      "anonymous": false,
      "inputs": [
        {
          "indexed": false,
          "internalType": "contract INormalResourceController",
          "name": "_bandwidthController",
          "type": "address"
        }
      ],
      "name": "BandwidthControllerUpdated",
      "type": "event"
    },
    {
      "anonymous": false,
      "inputs": [
        {
          "indexed": false,
          "internalType": "contract INormalResourceController",
          "name": "_buildingTimeController",
          "type": "address"
        }
      ],
      "name": "BuildingTimeControllerUpdated",
      "type": "event"
    },
    {
      "anonymous": false,
      "inputs": [
        {
          "indexed": false,
          "internalType": "contract IIPFSStorageController",
          "name": "_ipfsStorageController",
          "type": "address"
        }
      ],
      "name": "IPFSStorageControllerUpdated",
      "type": "event"
    },
    {
      "anonymous": false,
      "inputs": [
        {
          "indexed": false,
          "internalType": "address",
          "name": "messageReceiver",
          "type": "address"
        }
      ],
      "name": "MessageReceiverUpdated",
      "type": "event"
    },
    {
      "anonymous": false,
      "inputs": [
        {
          "indexed": false,
          "internalType": "address",
          "name": "to",
          "type": "address"
        },
        {
          "indexed": false,
          "internalType": "uint256",
          "name": "value",
          "type": "uint256"
        }
      ],
      "name": "NativeWithdrawal",
      "type": "event"
    },
    {
      "anonymous": false,
      "inputs": [
        {
          "indexed": true,
          "internalType": "address",
          "name": "previousOwner",
          "type": "address"
        },
        {
          "indexed": true,
          "internalType": "address",
          "name": "newOwner",
          "type": "address"
        }
      ],
      "name": "OwnershipTransferred",
      "type": "event"
    },
    {
      "anonymous": false,
      "inputs": [
        {
          "indexed": false,
          "internalType": "address",
          "name": "payer",
          "type": "address"
        },
        {
          "indexed": false,
          "internalType": "contract IERC20Upgradeable",
          "name": "token",
          "type": "address"
        },
        {
          "components": [
            {
              "internalType": "address",
              "name": "provider",
              "type": "address"
            },
            {
              "internalType": "uint64",
              "name": "nonce",
              "type": "uint64"
            },
            {
              "internalType": "bytes32",
              "name": "account",
              "type": "bytes32"
            },
            {
              "components": [
                {
                  "internalType": "enum ResourceData.ResourceType",
                  "name": "resourceType",
                  "type": "uint8"
                },
                {
                  "internalType": "uint256[]",
                  "name": "values",
                  "type": "uint256[]"
                }
              ],
              "internalType": "struct ResourceData.Payload[]",
              "name": "payloads",
              "type": "tuple[]"
            }
          ],
          "indexed": false,
          "internalType": "struct IDstChainPayment.PaymentPayload",
          "name": "payload",
          "type": "tuple"
        }
      ],
      "name": "Paid",
      "type": "event"
    },
    {
      "anonymous": false,
      "inputs": [
        {
          "indexed": false,
          "internalType": "address",
          "name": "account",
          "type": "address"
        }
      ],
      "name": "Paused",
      "type": "event"
    },
    {
      "anonymous": false,
      "inputs": [
        {
          "indexed": false,
          "internalType": "address",
          "name": "account",
          "type": "address"
        }
      ],
      "name": "PauserAdded",
      "type": "event"
    },
    {
      "anonymous": false,
      "inputs": [
        {
          "indexed": false,
          "internalType": "address",
          "name": "account",
          "type": "address"
        }
      ],
      "name": "PauserRemoved",
      "type": "event"
    },
    {
      "anonymous": false,
      "inputs": [
        {
          "indexed": false,
          "internalType": "contract IProviders",
          "name": "providers",
          "type": "address"
        }
      ],
      "name": "ProvidersUpdated",
      "type": "event"
    },
    {
      "anonymous": false,
      "inputs": [
        {
          "indexed": false,
          "internalType": "address",
          "name": "provider",
          "type": "address"
        },
        {
          "indexed": false,
          "internalType": "contract IERC20Upgradeable",
          "name": "token",
          "type": "address"
        },
        {
          "indexed": false,
          "internalType": "address",
          "name": "to",
          "type": "address"
        },
        {
          "indexed": false,
          "internalType": "uint256",
          "name": "value",
          "type": "uint256"
        }
      ],
      "name": "ProvidetWithdraw",
      "type": "event"
    },
    {
      "anonymous": false,
      "inputs": [
        {
          "indexed": false,
          "internalType": "contract IERC20Upgradeable",
          "name": "token",
          "type": "address"
        }
      ],
      "name": "TokenUpdated",
      "type": "event"
    },
    {
      "anonymous": false,
      "inputs": [
        {
          "indexed": false,
          "internalType": "address",
          "name": "account",
          "type": "address"
        }
      ],
      "name": "Unpaused",
      "type": "event"
    },
    {
      "anonymous": false,
      "inputs": [
        {
          "indexed": false,
          "internalType": "contract IERC20Upgradeable",
          "name": "token",
          "type": "address"
        },
        {
          "indexed": false,
          "internalType": "address",
          "name": "to",
          "type": "address"
        },
        {
          "indexed": false,
          "internalType": "uint256",
          "name": "value",
          "type": "uint256"
        }
      ],
      "name": "Withdrawal",
      "type": "event"
    },
    {
      "inputs": [
        {
          "internalType": "address",
          "name": "owner",
          "type": "address"
        },
        {
          "internalType": "address",
          "name": "pauser",
          "type": "address"
        },
        {
          "internalType": "contract IProviders",
          "name": "providers",
          "type": "address"
        },
        {
          "internalType": "address",
          "name": "messageReceiver",
          "type": "address"
        },
        {
          "internalType": "contract IERC20Upgradeable",
          "name": "token",
          "type": "address"
        }
      ],
      "name": "Init_Payment",
      "outputs": [],
      "stateMutability": "nonpayable",
      "type": "function"
    },
    {
      "inputs": [
        {
          "internalType": "address",
          "name": "account",
          "type": "address"
        }
      ],
      "name": "addPauser",
      "outputs": [],
      "stateMutability": "nonpayable",
      "type": "function"
    },
    {
      "inputs": [],
      "name": "arStorageController",
      "outputs": [
        {
          "internalType": "contract INormalResourceController",
          "name": "",
          "type": "address"
        }
      ],
      "stateMutability": "view",
      "type": "function"
    },
    {
      "inputs": [],
      "name": "bandwidthController",
      "outputs": [
        {
          "internalType": "contract INormalResourceController",
          "name": "",
          "type": "address"
        }
      ],
      "stateMutability": "view",
      "type": "function"
    },
    {
      "inputs": [],
      "name": "buildingTimeController",
      "outputs": [
        {
          "internalType": "contract INormalResourceController",
          "name": "",
          "type": "address"
        }
      ],
      "stateMutability": "view",
      "type": "function"
    },
    {
      "inputs": [
        {
          "internalType": "uint256",
          "name": "amount",
          "type": "uint256"
        },
        {
          "components": [
            {
              "internalType": "enum ResourceData.ResourceType",
              "name": "resourceType",
              "type": "uint8"
            },
            {
              "internalType": "uint256[]",
              "name": "values",
              "type": "uint256[]"
            }
          ],
          "internalType": "struct ResourceData.Payload[]",
          "name": "payloads",
          "type": "tuple[]"
        }
      ],
      "name": "convertSourceChainPayloads",
      "outputs": [
        {
          "components": [
            {
              "internalType": "enum ResourceData.ResourceType",
              "name": "resourceType",
              "type": "uint8"
            },
            {
              "internalType": "uint256[]",
              "name": "values",
              "type": "uint256[]"
            }
          ],
          "internalType": "struct ResourceData.Payload[]",
          "name": "",
          "type": "tuple[]"
        }
      ],
      "stateMutability": "view",
      "type": "function"
    },
    {
      "inputs": [
        {
          "internalType": "bytes",
          "name": "message",
          "type": "bytes"
        }
      ],
      "name": "decodeSourceChainMessage",
      "outputs": [
        {
          "internalType": "address",
          "name": "provider",
          "type": "address"
        },
        {
          "internalType": "uint64",
          "name": "nonce",
          "type": "uint64"
        },
        {
          "internalType": "bytes32",
          "name": "account",
          "type": "bytes32"
        },
        {
          "components": [
            {
              "internalType": "enum ResourceData.ResourceType",
              "name": "resourceType",
              "type": "uint8"
            },
            {
              "internalType": "uint256[]",
              "name": "values",
              "type": "uint256[]"
            }
          ],
          "internalType": "struct ResourceData.Payload[]",
          "name": "payloads",
          "type": "tuple[]"
        }
      ],
      "stateMutability": "view",
      "type": "function"
    },
    {
      "inputs": [
        {
          "internalType": "address",
          "name": "owner",
          "type": "address"
        },
        {
          "internalType": "address",
          "name": "pauser",
          "type": "address"
        },
        {
          "internalType": "contract IProviders",
          "name": "providers",
          "type": "address"
        },
        {
          "internalType": "address",
          "name": "messageReceiver",
          "type": "address"
        },
        {
          "internalType": "contract IERC20Upgradeable",
          "name": "token",
          "type": "address"
        }
      ],
      "name": "initialize",
      "outputs": [],
      "stateMutability": "nonpayable",
      "type": "function"
    },
    {
      "inputs": [],
      "name": "ipfsStorageController",
      "outputs": [
        {
          "internalType": "contract IIPFSStorageController",
          "name": "",
          "type": "address"
        }
      ],
      "stateMutability": "view",
      "type": "function"
    },
    {
      "inputs": [
        {
          "internalType": "address",
          "name": "account",
          "type": "address"
        }
      ],
      "name": "isPauser",
      "outputs": [
        {
          "internalType": "bool",
          "name": "",
          "type": "bool"
        }
      ],
      "stateMutability": "view",
      "type": "function"
    },
    {
      "inputs": [],
      "name": "messageReceiver",
      "outputs": [
        {
          "internalType": "address",
          "name": "",
          "type": "address"
        }
      ],
      "stateMutability": "view",
      "type": "function"
    },
    {
      "inputs": [],
      "name": "owner",
      "outputs": [
        {
          "internalType": "address",
          "name": "",
          "type": "address"
        }
      ],
      "stateMutability": "view",
      "type": "function"
    },
    {
      "inputs": [],
      "name": "pause",
      "outputs": [],
      "stateMutability": "nonpayable",
      "type": "function"
    },
    {
      "inputs": [],
      "name": "paused",
      "outputs": [
        {
          "internalType": "bool",
          "name": "",
          "type": "bool"
        }
      ],
      "stateMutability": "view",
      "type": "function"
    },
    {
      "inputs": [
        {
          "internalType": "address",
          "name": "",
          "type": "address"
        }
      ],
      "name": "pausers",
      "outputs": [
        {
          "internalType": "bool",
          "name": "",
          "type": "bool"
        }
      ],
      "stateMutability": "view",
      "type": "function"
    },
    {
      "inputs": [
        {
          "components": [
            {
              "internalType": "address",
              "name": "provider",
              "type": "address"
            },
            {
              "internalType": "uint64",
              "name": "nonce",
              "type": "uint64"
            },
            {
              "internalType": "bytes32",
              "name": "account",
              "type": "bytes32"
            },
            {
              "components": [
                {
                  "internalType": "enum ResourceData.ResourceType",
                  "name": "resourceType",
                  "type": "uint8"
                },
                {
                  "internalType": "uint256[]",
                  "name": "values",
                  "type": "uint256[]"
                }
              ],
              "internalType": "struct ResourceData.Payload[]",
              "name": "payloads",
              "type": "tuple[]"
            }
          ],
          "internalType": "struct IDstChainPayment.PaymentPayload",
          "name": "payload",
          "type": "tuple"
        }
      ],
      "name": "pay",
      "outputs": [
        {
          "internalType": "uint256",
          "name": "value",
          "type": "uint256"
        }
      ],
      "stateMutability": "nonpayable",
      "type": "function"
    },
    {
      "inputs": [
        {
          "internalType": "contract IERC20Upgradeable",
          "name": "_token",
          "type": "address"
        },
        {
          "internalType": "uint256",
          "name": "dstAmount",
          "type": "uint256"
        },
        {
          "internalType": "bytes",
          "name": "message",
          "type": "bytes"
        }
      ],
      "name": "payFromSourceChain",
      "outputs": [
        {
          "internalType": "uint256",
          "name": "value",
          "type": "uint256"
        }
      ],
      "stateMutability": "nonpayable",
      "type": "function"
    },
    {
      "inputs": [
        {
          "internalType": "address",
          "name": "",
          "type": "address"
        }
      ],
      "name": "providerBalances",
      "outputs": [
        {
          "internalType": "uint256",
          "name": "",
          "type": "uint256"
        }
      ],
      "stateMutability": "view",
      "type": "function"
    },
    {
      "inputs": [
        {
          "internalType": "contract IERC20Upgradeable",
          "name": "token",
          "type": "address"
        },
        {
          "internalType": "address",
          "name": "to",
          "type": "address"
        },
        {
          "internalType": "uint256",
          "name": "value",
          "type": "uint256"
        }
      ],
      "name": "providerWithdraw",
      "outputs": [],
      "stateMutability": "nonpayable",
      "type": "function"
    },
    {
      "inputs": [],
      "name": "providers",
      "outputs": [
        {
          "internalType": "contract IProviders",
          "name": "",
          "type": "address"
        }
      ],
      "stateMutability": "view",
      "type": "function"
    },
    {
      "inputs": [
        {
          "internalType": "address",
          "name": "account",
          "type": "address"
        }
      ],
      "name": "removePauser",
      "outputs": [],
      "stateMutability": "nonpayable",
      "type": "function"
    },
    {
      "inputs": [],
      "name": "renounceOwnership",
      "outputs": [],
      "stateMutability": "nonpayable",
      "type": "function"
    },
    {
      "inputs": [],
      "name": "renouncePauser",
      "outputs": [],
      "stateMutability": "nonpayable",
      "type": "function"
    },
    {
      "inputs": [
        {
          "internalType": "contract INormalResourceController",
          "name": "_arStorageController",
          "type": "address"
        }
      ],
      "name": "setARStorageController",
      "outputs": [],
      "stateMutability": "nonpayable",
      "type": "function"
    },
    {
      "inputs": [
        {
          "internalType": "contract INormalResourceController",
          "name": "_bandwidthController",
          "type": "address"
        }
      ],
      "name": "setBandwidthController",
      "outputs": [],
      "stateMutability": "nonpayable",
      "type": "function"
    },
    {
      "inputs": [
        {
          "internalType": "contract INormalResourceController",
          "name": "_buildingTimeController",
          "type": "address"
        }
      ],
      "name": "setBuildingTimeController",
      "outputs": [],
      "stateMutability": "nonpayable",
      "type": "function"
    },
    {
      "inputs": [
        {
          "internalType": "contract IIPFSStorageController",
          "name": "_ipfsStorageController",
          "type": "address"
        }
      ],
      "name": "setIPFSStorageController",
      "outputs": [],
      "stateMutability": "nonpayable",
      "type": "function"
    },
    {
      "inputs": [
        {
          "internalType": "address",
          "name": "_messageReceiver",
          "type": "address"
        }
      ],
      "name": "setMessageReceiver",
      "outputs": [],
      "stateMutability": "nonpayable",
      "type": "function"
    },
    {
      "inputs": [
        {
          "internalType": "contract IERC20Upgradeable",
          "name": "_token",
          "type": "address"
        }
      ],
      "name": "setToken",
      "outputs": [],
      "stateMutability": "nonpayable",
      "type": "function"
    },
    {
      "inputs": [],
      "name": "token",
      "outputs": [
        {
          "internalType": "contract IERC20Upgradeable",
          "name": "",
          "type": "address"
        }
      ],
      "stateMutability": "view",
      "type": "function"
    },
    {
      "inputs": [
        {
          "components": [
            {
              "internalType": "enum ResourceData.ResourceType",
              "name": "resourceType",
              "type": "uint8"
            },
            {
              "internalType": "uint256[]",
              "name": "values",
              "type": "uint256[]"
            }
          ],
          "internalType": "struct ResourceData.Payload[]",
          "name": "payloads",
          "type": "tuple[]"
        }
      ],
      "name": "totalValue",
      "outputs": [
        {
          "internalType": "uint256",
          "name": "value",
          "type": "uint256"
        }
      ],
      "stateMutability": "pure",
      "type": "function"
    },
    {
      "inputs": [
        {
          "internalType": "address",
          "name": "newOwner",
          "type": "address"
        }
      ],
      "name": "transferOwnership",
      "outputs": [],
      "stateMutability": "nonpayable",
      "type": "function"
    },
    {
      "inputs": [],
      "name": "unpause",
      "outputs": [],
      "stateMutability": "nonpayable",
      "type": "function"
    },
    {
      "inputs": [
        {
          "internalType": "contract IERC20Upgradeable",
          "name": "token",
          "type": "address"
        },
        {
          "internalType": "address",
          "name": "to",
          "type": "address"
        },
        {
          "internalType": "uint256",
          "name": "value",
          "type": "uint256"
        }
      ],
      "name": "withdraw",
      "outputs": [],
      "stateMutability": "nonpayable",
      "type": "function"
    },
    {
      "inputs": [
        {
          "internalType": "address payable",
          "name": "to",
          "type": "address"
        },
        {
          "internalType": "uint256",
          "name": "value",
          "type": "uint256"
        }
      ],
      "name": "withdrawNative",
      "outputs": [],
      "stateMutability": "nonpayable",
      "type": "function"
    }
  ],
  "transactionHash": "0xfb647ef295829b570f0df8fad815829df6301ddb8a3a88074e1c8e8df38cf9b0",
  "args": [
    "0xF1658C608708172655A8e70a1624c29F956Ee63D",
    "0xF1658C608708172655A8e70a1624c29F956Ee63D",
    "0x7F3ea749e22cA595aD6Eb7492acc01be52d67162",
    "0x45dcD6db359B99dA8B38D6B172bCaCFe4182c495",
    "0x7d43AABC515C356145049227CeE54B608342c0ad"
  ],
  "solcInputHash": "d14b910da57705a90a5bf292fa17bfe8",
  "bytecode": "0x60806040523480156200001157600080fd5b506040516200392d3803806200392d833981016040819052620000349162000431565b600054610100900460ff16620000515760005460ff16156200005b565b6200005b620000fc565b620000835760405162461bcd60e51b81526004016200007a9062000503565b60405180910390fd5b600054610100900460ff16158015620000a6576000805461ffff19166101011790555b620000b1866200011a565b620000bc856200016c565b620000c784620001a4565b620000d283620001d9565b620000dd826200020e565b8015620000f0576000805461ff00191690555b50505050505062000629565b600062000114306200024360201b62000e851760201c565b15905090565b603380546001600160a01b038381166001600160a01b0319831681179093556040519116919082907f8be0079c531659141344cd1fd0a4f28419497f9722a3daafe3b4186f6b6457e090600090a35050565b600054610100900460ff16620001965760405162461bcd60e51b81526004016200007a906200055e565b620001a18162000252565b50565b600054610100900460ff16620001ce5760405162461bcd60e51b81526004016200007a906200055e565b620001a181620002ee565b600054610100900460ff16620002035760405162461bcd60e51b81526004016200007a906200055e565b620001a1816200033b565b600054610100900460ff16620002385760405162461bcd60e51b81526004016200007a906200055e565b620001a18162000388565b6001600160a01b03163b151590565b6001600160a01b038116600090815260ca602052604090205460ff16156200028e5760405162461bcd60e51b81526004016200007a90620005af565b6001600160a01b038116600090815260ca602052604090819020805460ff19166001179055517f6719d08c1888103bea251a4ed56406bd0c3e69723c8a1686e017e7bbe159b6f890620002e3908390620005d2565b60405180910390a150565b60cb80546001600160a01b0319166001600160a01b0383161790556040517fe63288198842f0dacdcbdc3f22dcd4e473d1f3cee7e10603ae6ddc3e667c528490620002e390839062000619565b606580546001600160a01b0319166001600160a01b0383161790556040517fafe9b28ca24a54df8c44769c685f7b92824aae021cdfcaa4719d493571a23c4c90620002e3908390620005d2565b60d080546001600160a01b0319166001600160a01b0383161790556040517f5ba6b30cd4b2f9e9e67f4feb9b9df10d5da3b057598e6901b217b7d590345e3090620002e390839062000619565b60006001600160a01b0382165b92915050565b620003f381620003d5565b8114620001a157600080fd5b8051620003e281620003e8565b6000620003e282620003d5565b620003f3816200040c565b8051620003e28162000419565b600080600080600060a086880312156200044e576200044e600080fd5b60006200045c8888620003ff565b95505060206200046f88828901620003ff565b9450506040620004828882890162000424565b93505060606200049588828901620003ff565b9250506080620004a88882890162000424565b9150509295509295909350565b602e81526000602082017f496e697469616c697a61626c653a20636f6e747261637420697320616c72656181526d191e481a5b9a5d1a585b1a5e995960921b602082015291505b5060400190565b60208082528101620003e281620004b5565b602b81526000602082017f496e697469616c697a61626c653a20636f6e7472616374206973206e6f74206981526a6e697469616c697a696e6760a81b60208201529150620004fc565b60208082528101620003e28162000515565b602181526000602082017f5061757365723a204163636f756e7420697320616c72656164792070617573658152603960f91b60208201529150620004fc565b60208082528101620003e28162000570565b620005cc81620003d5565b82525050565b60208101620003e28284620005c1565b60006001600160a01b038216620003e2565b6000620003e282620005e2565b6000620003e282620005f4565b620005cc8162000601565b60208101620003e282846200060e565b6132f480620006396000396000f3fe608060405234801561001057600080fd5b50600436106102115760003560e01c8063715018a611610125578063bb371111116100ad578063e84372491161007c578063e84372491461047c578063f2fde38b1461048f578063f8401fe6146104a2578063f8f071fa146104b5578063fc0c546a146104c857600080fd5b8063bb37111114610420578063bd16997514610433578063d9caed1214610456578063e2cae9f51461046957600080fd5b806382dc1ec4116100f457806382dc1ec4146103c55780638456cb59146103d85780638da5cb5b146103e0578063914fd2c3146103fa578063b05f87a81461040d57600080fd5b8063715018a61461037457806377ef533c1461037c5780637a7fa7531461038f57806380f51c12146103a257600080fd5b80633f4ba83a116101a857806349ea49e01161017757806349ea49e01461031b5780635618ce2d1461032e5780635c975abb1461034e5780636b2c0f55146103595780636ef8d66d1461036c57600080fd5b80633f4ba83a146102cd5780634540a85b146102d557806346fbf68e146102e8578063490e4fa21461030857600080fd5b80632413c127116101e45780632413c1271461023e57806328ac7f2c1461027a57806329dbfc75146102a75780633b8ccfb1146102ba57600080fd5b806307b18bde14610216578063144fa6d71461022b5780631459457a1461023e57806315e0776914610251575b600080fd5b610229610224366004611be3565b6104db565b005b610229610239366004611c3f565b610592565b61022961024c366004611c60565b6105c8565b60ce54610264906001600160a01b031681565b6040516102719190611cf2565b60405180910390f35b61029a610288366004611d00565b60d16020526000908152604090205481565b6040516102719190611d27565b60cc54610264906001600160a01b031681565b6102296102c8366004611d00565b61066c565b61022961069f565b6102296102e3366004611c3f565b6106ce565b6102fb6102f6366004611d00565b610701565b6040516102719190611d3d565b61029a610316366004612003565b61071f565b61022961032936600461203d565b6107f5565b61034161033c36600461208d565b610990565b6040516102719190612222565b60985460ff166102fb565b610229610367366004611d00565b6109a5565b6102296109d8565b6102296109e1565b61029a61038a366004612284565b610a15565b61022961039d366004611c3f565b610bcb565b6102fb6103b0366004611d00565b60ca6020526000908152604090205460ff1681565b6102296103d3366004611d00565b610bfe565b610229610c31565b6033546001600160a01b03165b60405161027191906122fa565b610229610408366004611c3f565b610c5e565b60cf54610264906001600160a01b031681565b61029a61042e366004612308565b610c91565b6104466104413660046123d0565b610d5e565b6040516102719493929190612419565b61022961046436600461203d565b610d88565b6065546103ed906001600160a01b031681565b61022961048a366004611c3f565b610df9565b61022961049d366004611d00565b610e2c565b60cb54610264906001600160a01b031681565b60cd54610264906001600160a01b031681565b60d054610264906001600160a01b031681565b6033546001600160a01b0316331461050e5760405162461bcd60e51b815260040161050590612492565b60405180910390fd5b6040516000906001600160a01b0384169083156108fc0290849084818181858888f193505050509050806105545760405162461bcd60e51b8152600401610505906124e7565b7f2c876ecb97b3c6854f2488d373403f903eacb800e51c159a5c0c7a9c857e482783836040516105859291906124f7565b60405180910390a1505050565b6033546001600160a01b031633146105bc5760405162461bcd60e51b815260040161050590612492565b6105c581610e94565b50565b600054610100900460ff166105e35760005460ff16156105e7565b303b155b6106035760405162461bcd60e51b81526004016105059061255d565b600054610100900460ff16158015610625576000805461ffff19166101011790555b61062e86610eea565b61063785610f3c565b61064084610f63565b61064983610f93565b61065282610fba565b8015610664576000805461ff00191690555b505050505050565b6033546001600160a01b031633146106965760405162461bcd60e51b815260040161050590612492565b6105c581610fe1565b6106a833610701565b6106c45760405162461bcd60e51b8152600401610505906125a1565b6106cc61102c565b565b6033546001600160a01b031633146106f85760405162461bcd60e51b815260040161050590612492565b6105c581611092565b6001600160a01b0316600090815260ca602052604090205460ff1690565b600061072d60985460ff1690565b1561074a5760405162461bcd60e51b8152600401610505906125d8565b6002606654141561076d5760405162461bcd60e51b81526004016105059061261c565b600260665560408201516060830151610788919060016110dd565b905061079381611440565b90506107a3826000015182611451565b5060d0546040517f699b2f7653a6bfb60eabd345a469cd1a72cf9733ed0179acb41b3d0b8d6b8583916107e39133916001600160a01b03169086906126d7565b60405180910390a16001606655919050565b60985460ff16156108185760405162461bcd60e51b8152600401610505906125d8565b6002606654141561083b5760405162461bcd60e51b81526004016105059061261c565b600260665560cb54604051636b074a0760e01b81526001600160a01b0390911690636b074a07906108709033906004016122fa565b60206040518083038186803b15801561088857600080fd5b505afa15801561089c573d6000803e3d6000fd5b505050506040513d601f19601f820116820180604052508101906108c09190612717565b6108dc5760405162461bcd60e51b81526004016105059061277e565b33600090815260d1602052604090205481111561090b5760405162461bcd60e51b8152600401610505906127d9565b33600090815260d16020526040902054610925908261154a565b33600090815260d160205260409020556109496001600160a01b0384168383611556565b7f6a5b5b630c1c43e83d8863b2f40228b9238480ce8c629132ea0862c7ce6c1b233384848460405161097e94939291906127e9565b60405180910390a15050600160665550565b606061099c83836115b1565b90505b92915050565b6033546001600160a01b031633146109cf5760405162461bcd60e51b815260040161050590612492565b6105c58161172f565b6106cc3361172f565b6033546001600160a01b03163314610a0b5760405162461bcd60e51b815260040161050590612492565b6106cc6000610eea565b6065546000906001600160a01b03163314610a425760405162461bcd60e51b815260040161050590612871565b60985460ff1615610a655760405162461bcd60e51b8152600401610505906125d8565b60026066541415610a885760405162461bcd60e51b81526004016105059061261c565b600260665560d0546001600160a01b03868116911614610aba5760405162461bcd60e51b8152600401610505906128b5565b600080600080610aff87878080601f016020809104026020016040519081016040528093929190818152602001838380828437600092019190915250610d5e92505050565b935093509350935060006040518060800160405280866001600160a01b03168152602001856001600160401b03168152602001848152602001610b4a610b448c6117a4565b856115b1565b8152509050610b638160400151826060015160006110dd565b508051610b70908a611451565b5060d0546040517f699b2f7653a6bfb60eabd345a469cd1a72cf9733ed0179acb41b3d0b8d6b858391610bb09133916001600160a01b03169085906126d7565b60405180910390a15050600160665550919695505050505050565b6033546001600160a01b03163314610bf55760405162461bcd60e51b815260040161050590612492565b6105c5816117b5565b6033546001600160a01b03163314610c285760405162461bcd60e51b815260040161050590612492565b6105c581611800565b610c3a33610701565b610c565760405162461bcd60e51b8152600401610505906125a1565b6106cc611879565b6033546001600160a01b03163314610c885760405162461bcd60e51b815260040161050590612492565b6105c5816118d1565b600080825111610cb35760405162461bcd60e51b81526004016105059061290c565b60005b8251811015610d585760005b838281518110610cd457610cd461291c565b60200260200101516020015151811015610d4557610d31848381518110610cfd57610cfd61291c565b6020026020010151602001518281518110610d1a57610d1a61291c565b60200260200101518461191c90919063ffffffff16565b925080610d3d81612948565b915050610cc2565b5080610d5081612948565b915050610cb6565b50919050565b6000806000606084806020019051810190610d799190612aed565b92989197509550909350915050565b6033546001600160a01b03163314610db25760405162461bcd60e51b815260040161050590612492565b610dc66001600160a01b0384168383611556565b7f2717ead6b9200dd235aad468c9809ea400fe33ac69b5bfaa6d3e90fc922b639883838360405161058593929190612b6b565b6033546001600160a01b03163314610e235760405162461bcd60e51b815260040161050590612492565b6105c581611928565b6033546001600160a01b03163314610e565760405162461bcd60e51b815260040161050590612492565b6001600160a01b038116610e7c5760405162461bcd60e51b815260040161050590612bd6565b6105c581610eea565b6001600160a01b03163b151590565b60d080546001600160a01b0319166001600160a01b0383161790556040517f5ba6b30cd4b2f9e9e67f4feb9b9df10d5da3b057598e6901b217b7d590345e3090610edf908390611cf2565b60405180910390a150565b603380546001600160a01b038381166001600160a01b0319831681179093556040519116919082907f8be0079c531659141344cd1fd0a4f28419497f9722a3daafe3b4186f6b6457e090600090a35050565b600054610100900460ff16610c285760405162461bcd60e51b815260040161050590612c2e565b600054610100900460ff16610f8a5760405162461bcd60e51b815260040161050590612c2e565b6105c581611973565b600054610100900460ff166106965760405162461bcd60e51b815260040161050590612c2e565b600054610100900460ff166105bc5760405162461bcd60e51b815260040161050590612c2e565b606580546001600160a01b0319166001600160a01b0383161790556040517fafe9b28ca24a54df8c44769c685f7b92824aae021cdfcaa4719d493571a23c4c90610edf9083906122fa565b60985460ff1661104e5760405162461bcd60e51b815260040161050590612c69565b6098805460ff191690557f5db9ee0a495bf2e6ff9c91a7834c1ba4fdd244a5e8aa4e537bd38aeae4b073aa335b60405161108891906122fa565b60405180910390a1565b60cf80546001600160a01b0319166001600160a01b0383161790556040517f7b091d9397a2f75213edeec1728b27a9d863f0f8aafb62fce0f1154f48f110f890610edf908390611cf2565b6000808351116110ff5760405162461bcd60e51b815260040161050590612cb7565b60005b835181101561143857600084828151811061111f5761111f61291c565b602002602001015190506001600481111561113c5761113c6120da565b8151600481111561114f5761114f6120da565b14156112245780602001515160011461117a5760405162461bcd60e51b815260040161050590612d08565b60cc54602082015180516001600160a01b039092169163467aa8de9189916000906111a7576111a761291c565b60200260200101516040518363ffffffff1660e01b81526004016111cc929190612d18565b602060405180830381600087803b1580156111e657600080fd5b505af11580156111fa573d6000803e3d6000fd5b505050506040513d601f19601f8201168201806040525081019061121e9190612d26565b506113c8565b600381516004811115611239576112396120da565b1415611291578060200151516001146112645760405162461bcd60e51b815260040161050590612d85565b60ce54602082015180516001600160a01b039092169163467aa8de9189916000906111a7576111a761291c565b6002815160048111156112a6576112a66120da565b14156112fe578060200151516001146112d15760405162461bcd60e51b815260040161050590612dd3565b60cd54602082015180516001600160a01b039092169163467aa8de9189916000906111a7576111a761291c565b600481516004811115611313576113136120da565b14156113b05780602001515160021461133e5760405162461bcd60e51b815260040161050590612e23565b60cf54602082015180516001600160a01b0390921691634235fec091899160009061136b5761136b61291c565b6020026020010151846020015160018151811061138a5761138a61291c565b60200260200101516040518463ffffffff1660e01b81526004016111cc93929190612e33565b60405162461bcd60e51b815260040161050590612e91565b83156114255760005b8160200151518110156114235761140f82602001516000815181106113f8576113f861291c565b60200260200101518561191c90919063ffffffff16565b93508061141b81612948565b9150506113d1565b505b508061143081612948565b915050611102565b509392505050565b600061099f8264e8d4a510006119be565b60cb54604051636b074a0760e01b81526000916001600160a01b031690636b074a07906114829086906004016122fa565b60206040518083038186803b15801561149a57600080fd5b505afa1580156114ae573d6000803e3d6000fd5b505050506040513d601f19601f820116820180604052508101906114d29190612717565b6114ee5760405162461bcd60e51b815260040161050590612ee3565b60d054611506906001600160a01b03163330856119ca565b6001600160a01b038316600090815260d16020526040902054611529908361191c565b6001600160a01b03909316600090815260d160205260409020929092555090565b600061099c8284612ef3565b6115ac8363a9059cbb60e01b8484604051602401611575929190612f0a565b60408051601f198184030181529190526020810180516001600160e01b03166001600160e01b0319909316929092179091526119f1565b505050565b606060008251116115d45760405162461bcd60e51b815260040161050590612f5e565b60006115df83610c91565b9050600081116116015760405162461bcd60e51b815260040161050590612fae565b60005b83518110156117265760008482815181106116215761162161291c565b602002602001015160200151511161164b5760405162461bcd60e51b815260040161050590613002565b60005b8482815181106116605761166061291c565b60200260200101516020015151811015611713576116c7836116c18888868151811061168e5761168e61291c565b60200260200101516020015185815181106116ab576116ab61291c565b6020026020010151611a8090919063ffffffff16565b906119be565b8583815181106116d9576116d961291c565b60200260200101516020015182815181106116f6576116f661291c565b60209081029190910101528061170b81612948565b91505061164e565b508061171e81612948565b915050611604565b50919392505050565b61173881610701565b6117545760405162461bcd60e51b815260040161050590613046565b6001600160a01b038116600090815260ca602052604090819020805460ff19169055517fcd265ebaf09df2871cc7bd4133404a235ba12eff2041bb89d9c714a2621c7c7e90610edf9083906122fa565b600061099f8264e8d4a51000611a80565b60cd80546001600160a01b0319166001600160a01b0383161790556040517f100702071f8eb4f459f5f9dcf12bba9b3aeafa0eca6a018364f645558d792c3790610edf908390611cf2565b61180981610701565b156118265760405162461bcd60e51b815260040161050590613094565b6001600160a01b038116600090815260ca602052604090819020805460ff19166001179055517f6719d08c1888103bea251a4ed56406bd0c3e69723c8a1686e017e7bbe159b6f890610edf9083906122fa565b60985460ff161561189c5760405162461bcd60e51b8152600401610505906125d8565b6098805460ff191660011790557f62e78cea01bee320cd4e420270b5ea74000d11b0c9f74754ebdbfc544b05a25861107b3390565b60ce80546001600160a01b0319166001600160a01b0383161790556040517f6a7e09ebc58179cd1c17c89209474e58d29e43b1bf78dd57f896e7be983220eb90610edf908390611cf2565b600061099c82846130a4565b60cc80546001600160a01b0319166001600160a01b0383161790556040517feb1b948f6c63784a1d91e42dd967c49aae87b1db36d3107e9b913963ae7cd03990610edf908390611cf2565b60cb80546001600160a01b0319166001600160a01b0383161790556040517fe63288198842f0dacdcbdc3f22dcd4e473d1f3cee7e10603ae6ddc3e667c528490610edf908390611cf2565b600061099c82846130d2565b6119eb846323b872dd60e01b858585604051602401611575939291906130e6565b50505050565b6000611a46826040518060400160405280602081526020017f5361666545524332303a206c6f772d6c6576656c2063616c6c206661696c6564815250856001600160a01b0316611a8c9092919063ffffffff16565b8051909150156115ac5780806020019051810190611a649190612717565b6115ac5760405162461bcd60e51b81526004016105059061313b565b600061099c828461314b565b6060611a9b8484600085611aa5565b90505b9392505050565b606082471015611ac75760405162461bcd60e51b8152600401610505906131ad565b6001600160a01b0385163b611aee5760405162461bcd60e51b8152600401610505906131f1565b600080866001600160a01b03168587604051611b0a919061324f565b60006040518083038185875af1925050503d8060008114611b47576040519150601f19603f3d011682016040523d82523d6000602084013e611b4c565b606091505b5091509150611b5c828286611b69565b925050505b949350505050565b60608315611b78575081611a9e565b825115611b885782518084602001fd5b8160405162461bcd60e51b8152600401610505919061328d565b60006001600160a01b03821661099f565b611bbc81611ba2565b81146105c557600080fd5b803561099f81611bb3565b80611bbc565b803561099f81611bd2565b60008060408385031215611bf957611bf9600080fd5b6000611c058585611bc7565b9250506020611c1685828601611bd8565b9150509250929050565b600061099f82611ba2565b611bbc81611c20565b803561099f81611c2b565b600060208284031215611c5457611c54600080fd5b6000611b618484611c34565b600080600080600060a08688031215611c7b57611c7b600080fd5b6000611c878888611bc7565b9550506020611c9888828901611bc7565b9450506040611ca988828901611c34565b9350506060611cba88828901611bc7565b9250506080611ccb88828901611c34565b9150509295509295909350565b600061099f82611c20565b611cec81611cd8565b82525050565b6020810161099f8284611ce3565b600060208284031215611d1557611d15600080fd5b6000611b618484611bc7565b80611cec565b6020810161099f8284611d21565b801515611cec565b6020810161099f8284611d35565b634e487b7160e01b600052604160045260246000fd5b601f19601f83011681018181106001600160401b0382111715611d8657611d86611d4b565b6040525050565b6000611d9860405190565b9050611da48282611d61565b919050565b6001600160401b038116611bbc565b803561099f81611da9565b60006001600160401b03821115611ddc57611ddc611d4b565b5060209081020190565b600581106105c557600080fd5b803561099f81611de6565b6000611e11611e0c84611dc3565b611d8d565b83815290506020808201908402830185811115611e3057611e30600080fd5b835b81811015611e545780611e458882611bd8565b84525060209283019201611e32565b5050509392505050565b600082601f830112611e7257611e72600080fd5b8135611b61848260208601611dfe565b600060408284031215611e9757611e97600080fd5b611ea16040611d8d565b90506000611eaf8484611df3565b82525060208201356001600160401b03811115611ece57611ece600080fd5b611eda84828501611e5e565b60208301525092915050565b6000611ef4611e0c84611dc3565b83815290506020808201908402830185811115611f1357611f13600080fd5b835b81811015611e545780356001600160401b03811115611f3657611f36600080fd5b808601611f438982611e82565b8552505060209283019201611f15565b600082601f830112611f6757611f67600080fd5b8135611b61848260208601611ee6565b600060808284031215611f8c57611f8c600080fd5b611f966080611d8d565b90506000611fa48484611bc7565b8252506020611fb584848301611db8565b6020830152506040611fc984828501611bd8565b60408301525060608201356001600160401b03811115611feb57611feb600080fd5b611ff784828501611f53565b60608301525092915050565b60006020828403121561201857612018600080fd5b81356001600160401b0381111561203157612031600080fd5b611b6184828501611f77565b60008060006060848603121561205557612055600080fd5b60006120618686611c34565b935050602061207286828701611bc7565b925050604061208386828701611bd8565b9150509250925092565b600080604083850312156120a3576120a3600080fd5b60006120af8585611bd8565b92505060208301356001600160401b038111156120ce576120ce600080fd5b611c1685828601611f53565b634e487b7160e01b600052602160045260246000fd5b600581106105c5576105c56120da565b80611da4816120f0565b600061099f82612100565b611cec8161210a565b600061212a8383611d21565b505060200190565b600061213c825190565b80845260209384019383018060005b8381101561217057815161215f888261211e565b97506020830192505060010161214b565b509495945050505050565b8051600090604084019061218f8582612115565b50602083015184820360208601526121a78282612132565b95945050505050565b600061099c838361217b565b60006121c6825190565b808452602084019350836020820285016121e08560200190565b8060005b8581101561221557848403895281516121fd85826121b0565b94506020830160209a909a01999250506001016121e4565b5091979650505050505050565b6020808252810161099c81846121bc565b60008083601f84011261224857612248600080fd5b5081356001600160401b0381111561226257612262600080fd5b60208301915083600182028301111561227d5761227d600080fd5b9250929050565b6000806000806060858703121561229d5761229d600080fd5b60006122a98787611c34565b94505060206122ba87828801611bd8565b93505060408501356001600160401b038111156122d9576122d9600080fd5b6122e587828801612233565b95989497509550505050565b611cec81611ba2565b6020810161099f82846122f1565b60006020828403121561231d5761231d600080fd5b81356001600160401b0381111561233657612336600080fd5b611b6184828501611f53565b60006001600160401b0382111561235b5761235b611d4b565b601f19601f83011660200192915050565b82818337506000910152565b6000612386611e0c84612342565b9050828152602081018484840111156123a1576123a1600080fd5b61143884828561236c565b600082601f8301126123c0576123c0600080fd5b8135611b61848260208601612378565b6000602082840312156123e5576123e5600080fd5b81356001600160401b038111156123fe576123fe600080fd5b611b61848285016123ac565b6001600160401b038116611cec565b6080810161242782876122f1565b612434602083018661240a565b6124416040830185611d21565b818103606083015261245381846121bc565b9695505050505050565b60208082527f4f776e61626c653a2063616c6c6572206973206e6f7420746865206f776e6572910190815260005b5060200190565b6020808252810161099f8161245d565b602581526000602082017f5061796d656e743a207769746864726177206e617469766520746f6b656e2066815264185a5b195960da1b602082015291505b5060400190565b6020808252810161099f816124a2565b604081016125058285611ce3565b611a9e6020830184611d21565b602e81526000602082017f496e697469616c697a61626c653a20636f6e747261637420697320616c72656181526d191e481a5b9a5d1a585b1a5e995960921b602082015291506124e0565b6020808252810161099f81612512565b601c81526000602082017f5061757365723a2043616c6c6572206973206e6f7420706175736572000000008152915061248b565b6020808252810161099f8161256d565b601081526000602082016f14185d5cd8589b194e881c185d5cd95960821b8152915061248b565b6020808252810161099f816125b1565b601f81526000602082017f5265656e7472616e637947756172643a207265656e7472616e742063616c6c008152915061248b565b6020808252810161099f816125e8565b6000612636825190565b808452602084019350836020820285016126508560200190565b8060005b85811015612215578484038952815161266d85826121b0565b94506020830160209a909a0199925050600101612654565b8051600090608084019061269985826122f1565b5060208301516126ac602086018261240a565b5060408301516126bf6040860182611d21565b50606083015184820360608601526121a7828261262c565b606081016126e582866122f1565b6126f26020830185611ce3565b81810360408301526121a78184612685565b801515611bbc565b805161099f81612704565b60006020828403121561272c5761272c600080fd5b6000611b61848461270c565b602981526000602082017f447374436861696e5061796d656e743a2063616c6c6572206973206e6f74206181526810383937bb34b232b960b91b602082015291506124e0565b6020808252810161099f81612738565b602e81526000602082017f447374436861696e5061796d656e743a20696e73756666696369656e7420707281526d6f76696465722062616c616e636560901b602082015291506124e0565b6020808252810161099f8161278e565b608081016127f782876122f1565b6128046020830186611ce3565b61281160408301856122f1565b6121a76060830184611d21565b603681526000602082017f4d6573736167655265636569766572577261707065723a2063616c6c6572206981527539903737ba1036b2b9b9b0b3b2903932b1b2b4bb32b960511b602082015291506124e0565b6020808252810161099f8161281e565b601e81526000602082017f447374436861696e5061796d656e743a20696e76616c696420746f6b656e00008152915061248b565b6020808252810161099f81612881565b602a81526000602082017f5265736f75725061796c6f6164546f6f6c3a20696e76616c6964207061796c6f8152690c2c8e640d8cadccee8d60b31b602082015291506124e0565b6020808252810161099f816128c5565b634e487b7160e01b600052603260045260246000fd5b634e487b7160e01b600052601160045260246000fd5b600060001982141561295c5761295c612932565b5060010190565b805161099f81611bb3565b805161099f81611da9565b805161099f81611bd2565b805161099f81611de6565b600061299d611e0c84611dc3565b838152905060208082019084028301858111156129bc576129bc600080fd5b835b81811015611e5457806129d18882612979565b845250602092830192016129be565b600082601f8301126129f4576129f4600080fd5b8151611b6184826020860161298f565b600060408284031215612a1957612a19600080fd5b612a236040611d8d565b90506000612a318484612984565b82525060208201516001600160401b03811115612a5057612a50600080fd5b611eda848285016129e0565b6000612a6a611e0c84611dc3565b83815290506020808201908402830185811115612a8957612a89600080fd5b835b81811015611e545780516001600160401b03811115612aac57612aac600080fd5b808601612ab98982612a04565b8552505060209283019201612a8b565b600082601f830112612add57612add600080fd5b8151611b61848260208601612a5c565b60008060008060808587031215612b0657612b06600080fd5b6000612b128787612963565b9450506020612b238782880161296e565b9350506040612b3487828801612979565b92505060608501516001600160401b03811115612b5357612b53600080fd5b612b5f87828801612ac9565b91505092959194509250565b60608101612b798286611ce3565b612b8660208301856122f1565b611b616040830184611d21565b602681526000602082017f4f776e61626c653a206e6577206f776e657220697320746865207a65726f206181526564647265737360d01b602082015291506124e0565b6020808252810161099f81612b93565b602b81526000602082017f496e697469616c697a61626c653a20636f6e7472616374206973206e6f74206981526a6e697469616c697a696e6760a81b602082015291506124e0565b6020808252810161099f81612be6565b601481526000602082017314185d5cd8589b194e881b9bdd081c185d5cd95960621b8152915061248b565b6020808252810161099f81612c3e565b602181526000602082017f447374436861696e5061796d656e743a20696e76616c6964207061796c6f61648152607360f81b602082015291506124e0565b6020808252810161099f81612c79565b6036815260006020820160008051602061329f833981519152815275656e67746820666f72204275696c64696e6754696d6560501b602082015291506124e0565b6020808252810161099f81612cc7565b604081016125058285611d21565b600060208284031215612d3b57612d3b600080fd5b6000611b618484612979565b6033815260006020820160008051602061329f833981519152815272656e67746820666f7220415253746f7261676560681b602082015291506124e0565b6020808252810161099f81612d47565b6033815260006020820160008051602061329f8339815191528152720cadccee8d040ccdee44084c2dcc8eed2c8e8d606b1b602082015291506124e0565b6020808252810161099f81612d95565b6035815260006020820160008051602061329f833981519152815274656e67746820666f72204950465353746f7261676560581b602082015291506124e0565b6020808252810161099f81612de3565b60608101612e418286611d21565b612b866020830185611d21565b602681526000602082017f447374436861696e5061796d656e743a20756e6b6e6f776e207265736f75726381526565207479706560d01b602082015291506124e0565b6020808252810161099f81612e4e565b602581526000602082017f447374436861696e5061796d656e743a206e6f6e6578697374656e742070726f8152643b34b232b960d91b602082015291506124e0565b6020808252810161099f81612ea1565b600082821015612f0557612f05612932565b500390565b6040810161250582856122f1565b602981526000602082017f5265736f75725061796c6f6164546f6f6c3a20696e76616c6964207061796c6f8152680c2c840d8cadccee8d60bb1b602082015291506124e0565b6020808252810161099f81612f18565b602381526000602082017f5265736f75725061796c6f6164546f6f6c3a207a65726f20746f74616c2076618152626c756560e81b602082015291506124e0565b6020808252810161099f81612f6e565b602781526000602082017f5265736f75725061796c6f6164546f6f6c3a20696e76616c69642076616c7565815266040d8cadccee8d60cb1b602082015291506124e0565b6020808252810161099f81612fbe565b601d81526000602082017f5061757365723a204163636f756e74206973206e6f74207061757365720000008152915061248b565b6020808252810161099f81613012565b602181526000602082017f5061757365723a204163636f756e7420697320616c72656164792070617573658152603960f91b602082015291506124e0565b6020808252810161099f81613056565b600082198211156130b7576130b7612932565b500190565b634e487b7160e01b600052601260045260246000fd5b6000826130e1576130e16130bc565b500490565b60608101612b7982866122f1565b602a81526000602082017f5361666545524332303a204552433230206f7065726174696f6e20646964206e8152691bdd081cdd58d8d9595960b21b602082015291506124e0565b6020808252810161099f816130f4565b600081600019048311821515161561316557613165612932565b500290565b602681526000602082017f416464726573733a20696e73756666696369656e742062616c616e636520666f8152651c8818d85b1b60d21b602082015291506124e0565b6020808252810161099f8161316a565b601d81526000602082017f416464726573733a2063616c6c20746f206e6f6e2d636f6e74726163740000008152915061248b565b6020808252810161099f816131bd565b60005b8381101561321c578181015183820152602001613204565b838111156119eb5750506000910152565b6000613237825190565b613245818560208601613201565b9290920192915050565b6000611a9e828461322d565b6000613265825190565b80845260208401935061327c818560208601613201565b601f01601f19169290920192915050565b6020808252810161099c818461325b56fe447374436861696e5061796d656e743a20696e76616c69642076616c7565206ca2646970667358221220d89d8fbe7743446ab704cc19db08cec1c5b58c74eed4d5a0ff33d908fd24993664736f6c63430008090033",
  "devdoc": {
    "kind": "dev",
    "methods": {
      "owner()": {
        "details": "Returns the address of the current owner."
      },
      "paused()": {
        "details": "Returns true if the contract is paused, and false otherwise."
      },
      "renounceOwnership()": {
        "details": "Leaves the contract without owner. It will not be possible to call `onlyOwner` functions anymore. Can only be called by the current owner. NOTE: Renouncing ownership will leave the contract without an owner, thereby removing any functionality that is only available to the owner."
      },
      "transferOwnership(address)": {
        "details": "Transfers ownership of the contract to a new account (`newOwner`). Can only be called by the current owner."
      }
    },
    "version": 1
  },
  "userdoc": {
    "kind": "user",
    "methods": {},
    "version": 1
  },
  "storageLayout": {
    "storage": [
      {
        "astId": 147,
        "contract": "contracts/payment/DstChainPayment.sol:DstChainPayment",
        "label": "_initialized",
        "offset": 0,
        "slot": "0",
        "type": "t_bool"
      },
      {
        "astId": 150,
        "contract": "contracts/payment/DstChainPayment.sol:DstChainPayment",
        "label": "_initializing",
        "offset": 1,
        "slot": "0",
        "type": "t_bool"
      },
      {
        "astId": 1608,
        "contract": "contracts/payment/DstChainPayment.sol:DstChainPayment",
        "label": "__gap",
        "offset": 0,
        "slot": "1",
        "type": "t_array(t_uint256)50_storage"
      },
      {
        "astId": 10,
        "contract": "contracts/payment/DstChainPayment.sol:DstChainPayment",
        "label": "_owner",
        "offset": 0,
        "slot": "51",
        "type": "t_address"
      },
      {
        "astId": 122,
        "contract": "contracts/payment/DstChainPayment.sol:DstChainPayment",
        "label": "__gap",
        "offset": 0,
        "slot": "52",
        "type": "t_array(t_uint256)49_storage"
      },
      {
        "astId": 5151,
        "contract": "contracts/payment/DstChainPayment.sol:DstChainPayment",
        "label": "messageReceiver",
        "offset": 0,
        "slot": "101",
        "type": "t_address"
      },
      {
        "astId": 339,
        "contract": "contracts/payment/DstChainPayment.sol:DstChainPayment",
        "label": "_status",
        "offset": 0,
        "slot": "102",
        "type": "t_uint256"
      },
      {
        "astId": 383,
        "contract": "contracts/payment/DstChainPayment.sol:DstChainPayment",
        "label": "__gap",
        "offset": 0,
        "slot": "103",
        "type": "t_array(t_uint256)49_storage"
      },
      {
        "astId": 235,
        "contract": "contracts/payment/DstChainPayment.sol:DstChainPayment",
        "label": "_paused",
        "offset": 0,
        "slot": "152",
        "type": "t_bool"
      },
      {
        "astId": 324,
        "contract": "contracts/payment/DstChainPayment.sol:DstChainPayment",
        "label": "__gap",
        "offset": 0,
        "slot": "153",
        "type": "t_array(t_uint256)49_storage"
      },
      {
        "astId": 4249,
        "contract": "contracts/payment/DstChainPayment.sol:DstChainPayment",
        "label": "pausers",
        "offset": 0,
        "slot": "202",
        "type": "t_mapping(t_address,t_bool)"
      },
      {
        "astId": 7177,
        "contract": "contracts/payment/DstChainPayment.sol:DstChainPayment",
        "label": "providers",
        "offset": 0,
        "slot": "203",
        "type": "t_contract(IProviders)4728"
      },
      {
        "astId": 7392,
        "contract": "contracts/payment/DstChainPayment.sol:DstChainPayment",
        "label": "buildingTimeController",
        "offset": 0,
        "slot": "204",
        "type": "t_contract(INormalResourceController)8704"
      },
      {
        "astId": 7395,
        "contract": "contracts/payment/DstChainPayment.sol:DstChainPayment",
        "label": "bandwidthController",
        "offset": 0,
        "slot": "205",
        "type": "t_contract(INormalResourceController)8704"
      },
      {
        "astId": 7398,
        "contract": "contracts/payment/DstChainPayment.sol:DstChainPayment",
        "label": "arStorageController",
        "offset": 0,
        "slot": "206",
        "type": "t_contract(INormalResourceController)8704"
      },
      {
        "astId": 7401,
        "contract": "contracts/payment/DstChainPayment.sol:DstChainPayment",
        "label": "ipfsStorageController",
        "offset": 0,
        "slot": "207",
        "type": "t_contract(IIPFSStorageController)8676"
      },
      {
        "astId": 5610,
        "contract": "contracts/payment/DstChainPayment.sol:DstChainPayment",
        "label": "token",
        "offset": 0,
        "slot": "208",
        "type": "t_contract(IERC20Upgradeable)1075"
      },
      {
        "astId": 5614,
        "contract": "contracts/payment/DstChainPayment.sol:DstChainPayment",
        "label": "providerBalances",
        "offset": 0,
        "slot": "209",
        "type": "t_mapping(t_address,t_uint256)"
      }
    ],
    "types": {
      "t_address": {
        "encoding": "inplace",
        "label": "address",
        "numberOfBytes": "20"
      },
      "t_array(t_uint256)49_storage": {
        "base": "t_uint256",
        "encoding": "inplace",
        "label": "uint256[49]",
        "numberOfBytes": "1568"
      },
      "t_array(t_uint256)50_storage": {
        "base": "t_uint256",
        "encoding": "inplace",
        "label": "uint256[50]",
        "numberOfBytes": "1600"
      },
      "t_bool": {
        "encoding": "inplace",
        "label": "bool",
        "numberOfBytes": "1"
      },
      "t_contract(IERC20Upgradeable)1075": {
        "encoding": "inplace",
        "label": "contract IERC20Upgradeable",
        "numberOfBytes": "20"
      },
      "t_contract(IIPFSStorageController)8676": {
        "encoding": "inplace",
        "label": "contract IIPFSStorageController",
        "numberOfBytes": "20"
      },
      "t_contract(INormalResourceController)8704": {
        "encoding": "inplace",
        "label": "contract INormalResourceController",
        "numberOfBytes": "20"
      },
      "t_contract(IProviders)4728": {
        "encoding": "inplace",
        "label": "contract IProviders",
        "numberOfBytes": "20"
      },
      "t_mapping(t_address,t_bool)": {
        "encoding": "mapping",
        "key": "t_address",
        "label": "mapping(address => bool)",
        "numberOfBytes": "32",
        "value": "t_bool"
      },
      "t_mapping(t_address,t_uint256)": {
        "encoding": "mapping",
        "key": "t_address",
        "label": "mapping(address => uint256)",
        "numberOfBytes": "32",
        "value": "t_uint256"
      },
      "t_uint256": {
        "encoding": "inplace",
        "label": "uint256",
        "numberOfBytes": "32"
      }
    }
  }
}