{
  "address": "0x3549894bb5feccc1AB63EbE33194b3e5ae9227f7",
  "abi": [
    {
      "inputs": [],
      "stateMutability": "nonpayable",
      "type": "constructor"
    },
    {
      "anonymous": false,
      "inputs": [
        {
          "indexed": false,
          "internalType": "bytes32",
          "name": "hash",
          "type": "bytes32"
        }
      ],
      "name": "BillTypedHashUpdated",
      "type": "event"
    },
    {
      "anonymous": false,
      "inputs": [
        {
          "indexed": false,
          "internalType": "address",
          "name": "provider",
          "type": "address"
        },
        {
          "indexed": false,
          "internalType": "uint64",
          "name": "nonce",
          "type": "uint64"
        },
        {
          "indexed": false,
          "internalType": "bytes32",
          "name": "account",
          "type": "bytes32"
        },
        {
          "indexed": false,
          "internalType": "bytes",
          "name": "bill",
          "type": "bytes"
        },
        {
          "indexed": false,
          "internalType": "uint256",
          "name": "amount",
          "type": "uint256"
        }
      ],
      "name": "Billing",
      "type": "event"
    },
    {
      "anonymous": false,
      "inputs": [
        {
          "indexed": false,
          "internalType": "address",
          "name": "provider",
          "type": "address"
        },
        {
          "indexed": false,
          "internalType": "uint64",
          "name": "nonce",
          "type": "uint64"
        },
        {
          "indexed": false,
          "internalType": "address",
          "name": "owner",
          "type": "address"
        },
        {
          "indexed": false,
          "internalType": "bytes32",
          "name": "account",
          "type": "bytes32"
        },
        {
          "indexed": false,
          "internalType": "uint256",
          "name": "amount",
          "type": "uint256"
        }
      ],
      "name": "Charge",
      "type": "event"
    },
    {
      "anonymous": false,
      "inputs": [
        {
          "indexed": false,
          "internalType": "address",
          "name": "to",
          "type": "address"
        },
        {
          "indexed": false,
          "internalType": "uint256",
          "name": "value",
          "type": "uint256"
        }
      ],
      "name": "NativeWithdrawal",
      "type": "event"
    },
    {
      "anonymous": false,
      "inputs": [
        {
          "indexed": false,
          "internalType": "address",
          "name": "provider",
          "type": "address"
        },
        {
          "indexed": false,
          "internalType": "bytes32",
          "name": "account",
          "type": "bytes32"
        },
        {
          "indexed": false,
          "internalType": "uint64",
          "name": "nonce",
          "type": "uint64"
        },
        {
          "indexed": false,
          "internalType": "enum IFundWallet.Purpose",
          "name": "purpose",
          "type": "uint8"
        }
      ],
      "name": "NonceUpdated",
      "type": "event"
    },
    {
      "anonymous": false,
      "inputs": [
        {
          "indexed": true,
          "internalType": "address",
          "name": "previousOwner",
          "type": "address"
        },
        {
          "indexed": true,
          "internalType": "address",
          "name": "newOwner",
          "type": "address"
        }
      ],
      "name": "OwnershipTransferred",
      "type": "event"
    },
    {
      "anonymous": false,
      "inputs": [
        {
          "indexed": false,
          "internalType": "address",
          "name": "account",
          "type": "address"
        }
      ],
      "name": "Paused",
      "type": "event"
    },
    {
      "anonymous": false,
      "inputs": [
        {
          "indexed": false,
          "internalType": "address",
          "name": "account",
          "type": "address"
        }
      ],
      "name": "PauserAdded",
      "type": "event"
    },
    {
      "anonymous": false,
      "inputs": [
        {
          "indexed": false,
          "internalType": "address",
          "name": "account",
          "type": "address"
        }
      ],
      "name": "PauserRemoved",
      "type": "event"
    },
    {
      "anonymous": false,
      "inputs": [
        {
          "indexed": false,
          "internalType": "contract IProviders",
          "name": "providers",
          "type": "address"
        }
      ],
      "name": "ProvidersUpdated",
      "type": "event"
    },
    {
      "anonymous": false,
      "inputs": [
        {
          "indexed": false,
          "internalType": "bytes32",
          "name": "hash",
          "type": "bytes32"
        }
      ],
      "name": "RechargeTypedHashUpdated",
      "type": "event"
    },
    {
      "anonymous": false,
      "inputs": [
        {
          "indexed": false,
          "internalType": "contract IResourceAdaptor",
          "name": "adaptor",
          "type": "address"
        }
      ],
      "name": "ResourceAdaptorUpdated",
      "type": "event"
    },
    {
      "anonymous": false,
      "inputs": [
        {
          "indexed": false,
          "internalType": "address",
          "name": "provider",
          "type": "address"
        },
        {
          "indexed": false,
          "internalType": "uint64",
          "name": "nonce",
          "type": "uint64"
        },
        {
          "indexed": false,
          "internalType": "bytes32",
          "name": "account",
          "type": "bytes32"
        },
        {
          "indexed": false,
          "internalType": "uint256",
          "name": "fee",
          "type": "uint256"
        }
      ],
      "name": "Spend",
      "type": "event"
    },
    {
      "anonymous": false,
      "inputs": [
        {
          "indexed": false,
          "internalType": "contract IERC20Upgradeable",
          "name": "token",
          "type": "address"
        }
      ],
      "name": "TokenUpdated",
      "type": "event"
    },
    {
      "anonymous": false,
      "inputs": [
        {
          "indexed": false,
          "internalType": "address",
          "name": "account",
          "type": "address"
        }
      ],
      "name": "Unpaused",
      "type": "event"
    },
    {
      "anonymous": false,
      "inputs": [
        {
          "indexed": false,
          "internalType": "address",
          "name": "provider",
          "type": "address"
        },
        {
          "indexed": false,
          "internalType": "bytes32",
          "name": "account",
          "type": "bytes32"
        },
        {
          "indexed": false,
          "internalType": "address",
          "name": "newOwner",
          "type": "address"
        }
      ],
      "name": "WalletOwnerTransferred",
      "type": "event"
    },
    {
      "anonymous": false,
      "inputs": [
        {
          "indexed": false,
          "internalType": "contract IERC20Upgradeable",
          "name": "token",
          "type": "address"
        },
        {
          "indexed": false,
          "internalType": "address",
          "name": "to",
          "type": "address"
        },
        {
          "indexed": false,
          "internalType": "uint256",
          "name": "value",
          "type": "uint256"
        }
      ],
      "name": "Withdrawal",
      "type": "event"
    },
    {
      "anonymous": false,
      "inputs": [
        {
          "indexed": false,
          "internalType": "address",
          "name": "provider",
          "type": "address"
        },
        {
          "indexed": false,
          "internalType": "uint64",
          "name": "nonce",
          "type": "uint64"
        },
        {
          "indexed": false,
          "internalType": "bytes32",
          "name": "account",
          "type": "bytes32"
        },
        {
          "indexed": false,
          "internalType": "address",
          "name": "to",
          "type": "address"
        },
        {
          "indexed": false,
          "internalType": "uint256",
          "name": "amount",
          "type": "uint256"
        }
      ],
      "name": "Withdrawn",
      "type": "event"
    },
    {
      "inputs": [],
      "name": "adaptor",
      "outputs": [
        {
          "internalType": "contract IResourceAdaptor",
          "name": "",
          "type": "address"
        }
      ],
      "stateMutability": "view",
      "type": "function"
    },
    {
      "inputs": [
        {
          "internalType": "address",
          "name": "account",
          "type": "address"
        }
      ],
      "name": "addPauser",
      "outputs": [],
      "stateMutability": "nonpayable",
      "type": "function"
    },
    {
      "inputs": [
        {
          "internalType": "address",
          "name": "provider",
          "type": "address"
        },
        {
          "internalType": "bytes32",
          "name": "account",
          "type": "bytes32"
        }
      ],
      "name": "balanceOf",
      "outputs": [
        {
          "internalType": "uint256",
          "name": "",
          "type": "uint256"
        }
      ],
      "stateMutability": "view",
      "type": "function"
    },
    {
      "inputs": [
        {
          "internalType": "address",
          "name": "provider",
          "type": "address"
        },
        {
          "internalType": "uint64",
          "name": "nonce",
          "type": "uint64"
        },
        {
          "internalType": "bytes32",
          "name": "account",
          "type": "bytes32"
        },
        {
          "internalType": "bytes",
          "name": "bill",
          "type": "bytes"
        }
      ],
      "name": "billHash",
      "outputs": [
        {
          "internalType": "bytes32",
          "name": "",
          "type": "bytes32"
        }
      ],
      "stateMutability": "view",
      "type": "function"
    },
    {
      "inputs": [],
      "name": "billTypedHash",
      "outputs": [
        {
          "internalType": "bytes32",
          "name": "",
          "type": "bytes32"
        }
      ],
      "stateMutability": "view",
      "type": "function"
    },
    {
      "inputs": [
        {
          "internalType": "bytes",
          "name": "message",
          "type": "bytes"
        }
      ],
      "name": "decodeBill",
      "outputs": [
        {
          "components": [
            {
              "internalType": "uint256",
              "name": "totalValue",
              "type": "uint256"
            },
            {
              "components": [
                {
                  "internalType": "uint256",
                  "name": "indexBlock",
                  "type": "uint256"
                },
                {
                  "components": [
                    {
                      "internalType": "enum ResourceData.ResourceType",
                      "name": "resourceType",
                      "type": "uint8"
                    },
                    {
                      "internalType": "uint256",
                      "name": "amount",
                      "type": "uint256"
                    }
                  ],
                  "internalType": "struct IBilling.BillEntry[]",
                  "name": "entries",
                  "type": "tuple[]"
                }
              ],
              "internalType": "struct IBilling.BillPayload[]",
              "name": "payloads",
              "type": "tuple[]"
            }
          ],
          "internalType": "struct IBilling.Bill",
          "name": "",
          "type": "tuple"
        }
      ],
      "stateMutability": "pure",
      "type": "function"
    },
    {
      "inputs": [
        {
          "components": [
            {
              "internalType": "uint256",
              "name": "totalValue",
              "type": "uint256"
            },
            {
              "components": [
                {
                  "internalType": "uint256",
                  "name": "indexBlock",
                  "type": "uint256"
                },
                {
                  "components": [
                    {
                      "internalType": "enum ResourceData.ResourceType",
                      "name": "resourceType",
                      "type": "uint8"
                    },
                    {
                      "internalType": "uint256",
                      "name": "amount",
                      "type": "uint256"
                    }
                  ],
                  "internalType": "struct IBilling.BillEntry[]",
                  "name": "entries",
                  "type": "tuple[]"
                }
              ],
              "internalType": "struct IBilling.BillPayload[]",
              "name": "payloads",
              "type": "tuple[]"
            }
          ],
          "internalType": "struct IBilling.Bill",
          "name": "bills",
          "type": "tuple"
        }
      ],
      "name": "encodeBill",
      "outputs": [
        {
          "internalType": "bytes",
          "name": "",
          "type": "bytes"
        }
      ],
      "stateMutability": "pure",
      "type": "function"
    },
    {
      "inputs": [
        {
          "internalType": "address",
          "name": "provider",
          "type": "address"
        },
        {
          "internalType": "uint64",
          "name": "nonce",
          "type": "uint64"
        },
        {
          "internalType": "bytes32",
          "name": "account",
          "type": "bytes32"
        },
        {
          "internalType": "bytes",
          "name": "bill",
          "type": "bytes"
        }
      ],
      "name": "hashTypedDataV4ForBill",
      "outputs": [
        {
          "internalType": "bytes32",
          "name": "",
          "type": "bytes32"
        }
      ],
      "stateMutability": "view",
      "type": "function"
    },
    {
      "inputs": [
        {
          "internalType": "address",
          "name": "provider",
          "type": "address"
        },
        {
          "internalType": "uint64",
          "name": "nonce",
          "type": "uint64"
        },
        {
          "internalType": "address",
          "name": "owner",
          "type": "address"
        },
        {
          "internalType": "bytes32",
          "name": "account",
          "type": "bytes32"
        },
        {
          "internalType": "uint256",
          "name": "amount",
          "type": "uint256"
        }
      ],
      "name": "hashTypedDataV4ForRecharge",
      "outputs": [
        {
          "internalType": "bytes32",
          "name": "",
          "type": "bytes32"
        }
      ],
      "stateMutability": "view",
      "type": "function"
    },
    {
      "inputs": [
        {
          "internalType": "address",
          "name": "owner",
          "type": "address"
        },
        {
          "internalType": "address",
          "name": "pauser",
          "type": "address"
        },
        {
          "internalType": "contract IResourceAdaptor",
          "name": "adaptor",
          "type": "address"
        },
        {
          "internalType": "contract IProviders",
          "name": "_providers",
          "type": "address"
        },
        {
          "internalType": "contract IERC20Upgradeable",
          "name": "_token",
          "type": "address"
        },
        {
          "internalType": "string",
          "name": "name",
          "type": "string"
        },
        {
          "internalType": "string",
          "name": "version",
          "type": "string"
        },
        {
          "internalType": "string",
          "name": "rechargeTypes",
          "type": "string"
        },
        {
          "internalType": "string",
          "name": "billTypes",
          "type": "string"
        }
      ],
      "name": "initialize",
      "outputs": [],
      "stateMutability": "nonpayable",
      "type": "function"
    },
    {
      "inputs": [
        {
          "internalType": "address",
          "name": "account",
          "type": "address"
        }
      ],
      "name": "isPauser",
      "outputs": [
        {
          "internalType": "bool",
          "name": "",
          "type": "bool"
        }
      ],
      "stateMutability": "view",
      "type": "function"
    },
    {
      "inputs": [
        {
          "internalType": "address",
          "name": "",
          "type": "address"
        },
        {
          "internalType": "bytes32",
          "name": "",
          "type": "bytes32"
        },
        {
          "internalType": "uint64",
          "name": "",
          "type": "uint64"
        }
      ],
      "name": "nonces",
      "outputs": [
        {
          "internalType": "enum IFundWallet.Purpose",
          "name": "",
          "type": "uint8"
        }
      ],
      "stateMutability": "view",
      "type": "function"
    },
    {
      "inputs": [],
      "name": "owner",
      "outputs": [
        {
          "internalType": "address",
          "name": "",
          "type": "address"
        }
      ],
      "stateMutability": "view",
      "type": "function"
    },
    {
      "inputs": [
        {
          "internalType": "address",
          "name": "provider",
          "type": "address"
        },
        {
          "internalType": "bytes32",
          "name": "account",
          "type": "bytes32"
        }
      ],
      "name": "ownerOf",
      "outputs": [
        {
          "internalType": "address",
          "name": "",
          "type": "address"
        }
      ],
      "stateMutability": "view",
      "type": "function"
    },
    {
      "inputs": [
        {
          "internalType": "contract IERC20Upgradeable",
          "name": "token",
          "type": "address"
        },
        {
          "internalType": "address",
          "name": "to",
          "type": "address"
        },
        {
          "internalType": "uint256",
          "name": "value",
          "type": "uint256"
        }
      ],
      "name": "ownerWithdrawERC20",
      "outputs": [],
      "stateMutability": "nonpayable",
      "type": "function"
    },
    {
      "inputs": [
        {
          "internalType": "address payable",
          "name": "to",
          "type": "address"
        },
        {
          "internalType": "uint256",
          "name": "value",
          "type": "uint256"
        }
      ],
      "name": "ownerWithdrawNative",
      "outputs": [],
      "stateMutability": "nonpayable",
      "type": "function"
    },
    {
      "inputs": [],
      "name": "pause",
      "outputs": [],
      "stateMutability": "nonpayable",
      "type": "function"
    },
    {
      "inputs": [],
      "name": "paused",
      "outputs": [
        {
          "internalType": "bool",
          "name": "",
          "type": "bool"
        }
      ],
      "stateMutability": "view",
      "type": "function"
    },
    {
      "inputs": [
        {
          "internalType": "address",
          "name": "",
          "type": "address"
        }
      ],
      "name": "pausers",
      "outputs": [
        {
          "internalType": "bool",
          "name": "",
          "type": "bool"
        }
      ],
      "stateMutability": "view",
      "type": "function"
    },
    {
      "inputs": [],
      "name": "providers",
      "outputs": [
        {
          "internalType": "contract IProviders",
          "name": "",
          "type": "address"
        }
      ],
      "stateMutability": "view",
      "type": "function"
    },
    {
      "inputs": [
        {
          "internalType": "address",
          "name": "provider",
          "type": "address"
        },
        {
          "internalType": "uint64",
          "name": "nonce",
          "type": "uint64"
        },
        {
          "internalType": "address",
          "name": "owner",
          "type": "address"
        },
        {
          "internalType": "bytes32",
          "name": "account",
          "type": "bytes32"
        },
        {
          "internalType": "uint256",
          "name": "amount",
          "type": "uint256"
        },
        {
          "internalType": "bytes",
          "name": "signature",
          "type": "bytes"
        }
      ],
      "name": "recharge",
      "outputs": [],
      "stateMutability": "nonpayable",
      "type": "function"
    },
    {
      "inputs": [
        {
          "internalType": "address",
          "name": "provider",
          "type": "address"
        },
        {
          "internalType": "uint64",
          "name": "nonce",
          "type": "uint64"
        },
        {
          "internalType": "address",
          "name": "owner",
          "type": "address"
        },
        {
          "internalType": "bytes32",
          "name": "account",
          "type": "bytes32"
        },
        {
          "internalType": "uint256",
          "name": "amount",
          "type": "uint256"
        }
      ],
      "name": "rechargeHash",
      "outputs": [
        {
          "internalType": "bytes32",
          "name": "",
          "type": "bytes32"
        }
      ],
      "stateMutability": "view",
      "type": "function"
    },
    {
      "inputs": [],
      "name": "rechargeTypedHash",
      "outputs": [
        {
          "internalType": "bytes32",
          "name": "",
          "type": "bytes32"
        }
      ],
      "stateMutability": "view",
      "type": "function"
    },
    {
      "inputs": [
        {
          "internalType": "address",
          "name": "account",
          "type": "address"
        }
      ],
      "name": "removePauser",
      "outputs": [],
      "stateMutability": "nonpayable",
      "type": "function"
    },
    {
      "inputs": [],
      "name": "renounceOwnership",
      "outputs": [],
      "stateMutability": "nonpayable",
      "type": "function"
    },
    {
      "inputs": [],
      "name": "renouncePauser",
      "outputs": [],
      "stateMutability": "nonpayable",
      "type": "function"
    },
    {
      "inputs": [
        {
          "internalType": "string",
          "name": "types",
          "type": "string"
        }
      ],
      "name": "setBillTypedHash",
      "outputs": [],
      "stateMutability": "nonpayable",
      "type": "function"
    },
    {
      "inputs": [
        {
          "internalType": "string",
          "name": "types",
          "type": "string"
        }
      ],
      "name": "setRechargeTypedHash",
      "outputs": [],
      "stateMutability": "nonpayable",
      "type": "function"
    },
    {
      "inputs": [
        {
          "internalType": "contract IERC20Upgradeable",
          "name": "_token",
          "type": "address"
        }
      ],
      "name": "setToken",
      "outputs": [],
      "stateMutability": "nonpayable",
      "type": "function"
    },
    {
      "inputs": [
        {
          "internalType": "address",
          "name": "provider",
          "type": "address"
        },
        {
          "internalType": "uint64",
          "name": "nonce",
          "type": "uint64"
        },
        {
          "internalType": "bytes32",
          "name": "account",
          "type": "bytes32"
        },
        {
          "internalType": "bytes",
          "name": "bill",
          "type": "bytes"
        },
        {
          "internalType": "bytes",
          "name": "signature",
          "type": "bytes"
        }
      ],
      "name": "spend",
      "outputs": [
        {
          "internalType": "uint256",
          "name": "fee",
          "type": "uint256"
        }
      ],
      "stateMutability": "nonpayable",
      "type": "function"
    },
    {
      "inputs": [],
      "name": "token",
      "outputs": [
        {
          "internalType": "contract IERC20Upgradeable",
          "name": "",
          "type": "address"
        }
      ],
      "stateMutability": "view",
      "type": "function"
    },
    {
      "inputs": [
        {
          "internalType": "address",
          "name": "newOwner",
          "type": "address"
        }
      ],
      "name": "transferOwnership",
      "outputs": [],
      "stateMutability": "nonpayable",
      "type": "function"
    },
    {
      "inputs": [
        {
          "internalType": "address",
          "name": "provider",
          "type": "address"
        },
        {
          "internalType": "bytes32",
          "name": "account",
          "type": "bytes32"
        },
        {
          "internalType": "address",
          "name": "newOwner",
          "type": "address"
        },
        {
          "internalType": "bytes",
          "name": "signature",
          "type": "bytes"
        }
      ],
      "name": "transferWalletOwner",
      "outputs": [],
      "stateMutability": "nonpayable",
      "type": "function"
    },
    {
      "inputs": [],
      "name": "unpause",
      "outputs": [],
      "stateMutability": "nonpayable",
      "type": "function"
    },
    {
      "inputs": [
        {
          "internalType": "address",
          "name": "provider",
          "type": "address"
        },
        {
          "internalType": "uint64",
          "name": "nonce",
          "type": "uint64"
        },
        {
          "internalType": "bytes32",
          "name": "account",
          "type": "bytes32"
        },
        {
          "internalType": "address",
          "name": "to",
          "type": "address"
        },
        {
          "internalType": "bytes",
          "name": "bill",
          "type": "bytes"
        },
        {
          "internalType": "bytes",
          "name": "signature",
          "type": "bytes"
        }
      ],
      "name": "withdraw",
      "outputs": [
        {
          "internalType": "uint256",
          "name": "amount",
          "type": "uint256"
        }
      ],
      "stateMutability": "nonpayable",
      "type": "function"
    }
  ],
  "transactionHash": "0x795083f8b7e12ffb5f2cb081b154bdd0f4449b49e38af46f9af659c3f2e0ccd2",
  "args": [],
  "solcInputHash": "9e100c3eb450aac9cf89c4ce9965fe71",
  "bytecode": "0x60806040523480156200001157600080fd5b50600054610100900460ff166200002f5760005460ff161562000039565b620000396200009e565b620000615760405162461bcd60e51b81526004016200005890620000cb565b60405180910390fd5b600054610100900460ff1615801562000084576000805461ffff19166101011790555b801562000097576000805461ff00191690555b5062000124565b6000620000b630620000bc60201b620012791760201c565b15905090565b6001600160a01b03163b151590565b602080825281016200011e81602e81527f496e697469616c697a61626c653a20636f6e747261637420697320616c72656160208201526d191e481a5b9a5d1a585b1a5e995960921b604082015260600190565b92915050565b61392780620001346000396000f3fe608060405234801561001057600080fd5b50600436106102115760003560e01c806382dc1ec411610125578063d5ed04b6116100ad578063f2fde38b1161007c578063f2fde38b146104e6578063f8401fe6146104f9578063f960ff0b1461050c578063fc0c546a1461051f578063fc173ad21461053257600080fd5b8063d5ed04b61461047f578063da66bd6714610492578063ddc5517e146104c9578063e7356a07146104dc57600080fd5b806393563a95116100f457806393563a9514610410578063a50d817d14610423578063c2cd9b2b14610436578063c47ca60314610456578063d29ed85e1461047657600080fd5b806382dc1ec4146103c85780638456cb59146103db5780638da5cb5b146103e3578063924bf9a7146103fd57600080fd5b80635c975abb116101a85780636ef8d66d116101775780636ef8d66d1461036f578063715018a6146103775780637acc238b1461037f5780637dc186cd1461039257806380f51c12146103a557600080fd5b80635c975abb1461032b578063699256f4146103365780636b2c0f55146103495780636d9d0ae11461035c57600080fd5b8063474902a2116101e4578063474902a21461027c5780634bf1fcda1461029c5780634d30b6be146102de5780635a4c1a201461031857600080fd5b8063144fa6d7146102165780633f4ba83a1461022b578063453866001461023357806346fbf68e1461025c575b600080fd5b610229610224366004611f75565b610545565b005b610229610584565b61024661024136600461208f565b6105b3565b6040516102539190612260565b60405180910390f35b61026f61026a366004612285565b6105e2565b60405161025391906122ae565b61028f61028a3660046122e7565b610600565b60405161025391906123a5565b6102d16102aa3660046123b3565b61010360209081526000938452604080852082529284528284209052825290205460ff1681565b6040516102539190612431565b61028f6102ec36600461243f565b6001600160a01b0391909116600090815261010460209081526040808320938352929052206001015490565b61022961032636600461247c565b61081c565b60655460ff1661026f565b61022961034436600461243f565b610ad3565b610229610357366004612285565b610b81565b61022961036a36600461208f565b610bb4565b610229610bee565b610229610bf7565b61022961038d36600461208f565b610c2b565b6102296103a03660046124e8565b610c65565b61026f6103b3366004612285565b60976020526000908152604090205460ff1681565b6102296103d6366004612285565b610e21565b610229610e54565b6033546001600160a01b03165b604051610253919061256f565b61028f61040b36600461257d565b610e81565b61022961041e3660046125c4565b610ea2565b61028f61043136600461260a565b610f13565b60cf54610449906001600160a01b031681565b60405161025391906126ca565b61046961046436600461291f565b611090565b60405161025391906129b7565b61028f60cd5481565b61028f61048d36600461257d565b6110b9565b6103f06104a036600461243f565b6001600160a01b0391821660009081526101046020908152604080832093835292905220541690565b6102296104d73660046129c8565b6110fd565b61028f6101025481565b6102296104f4366004612285565b6111c1565b609854610449906001600160a01b031681565b61028f61051a366004612af7565b61121a565b60ce54610449906001600160a01b031681565b61028f610540366004612af7565b611238565b6033546001600160a01b031633146105785760405162461bcd60e51b815260040161056f90612b97565b60405180910390fd5b61058181611288565b50565b61058d336105e2565b6105a95760405162461bcd60e51b815260040161056f90612bdb565b6105b16112de565b565b604080518082019091526000815260606020820152818060200190518101906105dc9190612df7565b92915050565b6001600160a01b031660009081526097602052604090205460ff1690565b6000868587836001600160a01b03841660009081526101036020908152604080832086845282528083206001600160401b038616845290915290205460ff166003811115610650576106506120d1565b1461066d5760405162461bcd60e51b815260040161056f90612e65565b6001600160a01b03808b166000908152610104602090815260408083208c84529091529020548b918a911633146106b65760405162461bcd60e51b815260040161056f90612ebb565b60655460ff16156106d95760405162461bcd60e51b815260040161056f90612ef2565b600260d05414156106fc5760405162461bcd60e51b815260040161056f90612f36565b600260d0558b6000610711828e8e8d8d611344565b9050610760816101046000856001600160a01b03166001600160a01b0316815260200190815260200160002060008f8152602001908152602001600020600101546115ca90919063ffffffff16565b975060006101046000846001600160a01b03166001600160a01b0316815260200190815260200160002060008e8152602001908152602001600020600101819055506107af828d8f60036115dd565b60ce546107c6906001600160a01b03168c8a611677565b7f26b8aa9e5d4f71b867c84264e57eab543daba6bf03a6ac7c3be51697b5132f70828e8e8e8c6040516107fd959493929190612f55565b60405180910390a15050600160d05550939a9950505050505050505050565b85838660006001600160a01b03841660009081526101036020908152604080832086845282528083206001600160401b038616845290915290205460ff16600381111561086b5761086b6120d1565b146108885760405162461bcd60e51b815260040161056f90612e65565b60655460ff16156108ab5760405162461bcd60e51b815260040161056f90612ef2565b600260d05414156108ce5760405162461bcd60e51b815260040161056f90612f36565b600260d055846108f05760405162461bcd60e51b815260040161056f90612fd5565b60006108ff8a8a8a8a8a61121a565b6098546040516311c5268f60e11b81529192506001600160a01b03169063238a4d1e90610934908d9085908a90600401612fe5565b602060405180830381600087803b15801561094e57600080fd5b505af1158015610962573d6000803e3d6000fd5b505050506040513d601f19601f820116820180604052508101906109869190613025565b6109a25760405162461bcd60e51b815260040161056f9061307a565b6001600160a01b038a81166000908152610104602090815260408083208b845290915290205416610a08576001600160a01b038a81166000908152610104602090815260408083208b8452909152902080546001600160a01b031916918a169190911790555b6001600160a01b038a166000908152610104602090815260408083208a8452909152902060010154610a3a90876116d2565b6001600160a01b03808c166000908152610104602090815260408083208c845290915290206001019190915560ce54610a7691163330896116de565b610a838a888b60016115dd565b7f21fb7d7ead2d8cc1ee15ffa7f67fd957c51ab1c3576a96207d3d2784b6dbe0328a8a8a8a8a604051610aba95949392919061308a565b60405180910390a15050600160d0555050505050505050565b6033546001600160a01b03163314610afd5760405162461bcd60e51b815260040161056f90612b97565b6040516000906001600160a01b0384169083156108fc0290849084818181858888f19350505050905080610b435760405162461bcd60e51b815260040161056f90613101565b7f2c876ecb97b3c6854f2488d373403f903eacb800e51c159a5c0c7a9c857e48278383604051610b74929190613111565b60405180910390a1505050565b6033546001600160a01b03163314610bab5760405162461bcd60e51b815260040161056f90612b97565b61058181611705565b6033546001600160a01b03163314610bde5760405162461bcd60e51b815260040161056f90612b97565b610581818051906020012061177a565b6105b133611705565b6033546001600160a01b03163314610c215760405162461bcd60e51b815260040161056f90612b97565b6105b160006117af565b6033546001600160a01b03163314610c555760405162461bcd60e51b815260040161056f90612b97565b6105818180519060200120611801565b60655460ff1615610c885760405162461bcd60e51b815260040161056f90612ef2565b6001600160a01b0380851660009081526101046020908152604080832087845290915290205485918591163314610cd15760405162461bcd60e51b815260040161056f90612ebb565b6000868587604051602001610ce89392919061315a565b60408051601f198184030181529082905280516020909101206098546311c5268f60e11b83529092506001600160a01b03169063238a4d1e90610d33908a9085908990600401612fe5565b602060405180830381600087803b158015610d4d57600080fd5b505af1158015610d61573d6000803e3d6000fd5b505050506040513d601f19601f82011682018060405250810190610d859190613025565b610da15760405162461bcd60e51b815260040161056f9061307a565b6001600160a01b038781166000908152610104602090815260408083208a84529091529081902080546001600160a01b03191692881692909217909155517f4ddee4675a37f5c882a56b9be609ea55023c460cafb24ab74c1cb024abc84b3b90610e1090899089908990613191565b60405180910390a150505050505050565b6033546001600160a01b03163314610e4b5760405162461bcd60e51b815260040161056f90612b97565b61058181611837565b610e5d336105e2565b610e795760405162461bcd60e51b815260040161056f90612bdb565b6105b16118b0565b6000610e97610e92868686866110b9565b611908565b90505b949350505050565b6033546001600160a01b03163314610ecc5760405162461bcd60e51b815260040161056f90612b97565b610ee06001600160a01b0384168383611677565b7f2717ead6b9200dd235aad468c9809ea400fe33ac69b5bfaa6d3e90fc922b6398838383604051610b74939291906131b9565b6000858486836001600160a01b03841660009081526101036020908152604080832086845282528083206001600160401b038616845290915290205460ff166003811115610f6357610f636120d1565b14610f805760405162461bcd60e51b815260040161056f90612e65565b60655460ff1615610fa35760405162461bcd60e51b815260040161056f90612ef2565b600260d0541415610fc65760405162461bcd60e51b815260040161056f90612f36565b600260d055610fd88989898989611344565b6001600160a01b038a166000908152610104602090815260408083208b845290915290206001015490945061100d90856115ca565b6001600160a01b038a166000908152610104602090815260408083208b845290915290206001015561104289888a60026115dd565b7ff87a79acd45d3f401d9b7ff78e67a64bbe1d2cfa30bb106f0eba621b4f28053f8989898760405161107794939291906131e1565b60405180910390a15050600160d0555095945050505050565b6060816040516020016110a39190612260565b6040516020818303038152906040529050919050565b600060cd5485858585805190602001206040516020016110dd959493929190613216565b604051602081830303815290604052805190602001209050949350505050565b600054610100900460ff166111185760005460ff161561111c565b303b155b6111385760405162461bcd60e51b815260040161056f90613289565b600054610100900460ff1615801561115a576000805461ffff19166101011790555b6111638a6117af565b61116c8961191b565b61117587611942565b61117e88611972565b611187866119a2565b61119185856119c9565b61119a836119fe565b6111a382611a25565b80156111b5576000805461ff00191690555b50505050505050505050565b6033546001600160a01b031633146111eb5760405162461bcd60e51b815260040161056f90612b97565b6001600160a01b0381166112115760405162461bcd60e51b815260040161056f906132dc565b610581816117af565b600061122c610e928787878787611238565b90505b95945050505050565b6000610102548686868686604051602001611258969594939291906132ec565b60405160208183030381529060405280519060200120905095945050505050565b6001600160a01b03163b151590565b60ce80546001600160a01b0319166001600160a01b0383161790556040517f5ba6b30cd4b2f9e9e67f4feb9b9df10d5da3b057598e6901b217b7d590345e30906112d39083906126ca565b60405180910390a150565b60655460ff166113005760405162461bcd60e51b815260040161056f90613366565b6065805460ff191690557f5db9ee0a495bf2e6ff9c91a7834c1ba4fdd244a5e8aa4e537bd38aeae4b073aa335b60405161133a919061256f565b60405180910390a1565b609854604051636b074a0760e01b81526000916001600160a01b031690636b074a079061137590339060040161256f565b60206040518083038186803b15801561138d57600080fd5b505afa1580156113a1573d6000803e3d6000fd5b505050506040513d601f19601f820116820180604052508101906113c59190613025565b6113e15760405162461bcd60e51b815260040161056f906133b4565b60006113ef87878787610e81565b6098546040516311c5268f60e11b81529192506001600160a01b03169063238a4d1e90611424908a9085908890600401612fe5565b602060405180830381600087803b15801561143e57600080fd5b505af1158015611452573d6000803e3d6000fd5b505050506040513d601f19601f820116820180604052508101906114769190613025565b6114925760405162461bcd60e51b815260040161056f906133f8565b835115611581576001600160a01b038716600090815261010460209081526040808320888452909152812060010154906114d36114ce87611a4c565b611c04565b90508082116114e257816114e4565b805b6098546040516389b08f1160e01b815291955061157e916001600160a01b03909116906389b08f119061151b908d9060040161256f565b60206040518083038186803b15801561153357600080fd5b505afa158015611547573d6000803e3d6000fd5b505050506040513d601f19601f8201168201806040525081019061156b9190613413565b60ce546001600160a01b03169086611677565b50505b7f086575d4de5bb5f0addd08773b7097a00aaa37120293013f54da4433812adfa787878787866040516115b8959493929190613434565b60405180910390a15095945050505050565b60006115d68284613493565b9392505050565b6001600160a01b03841660009081526101036020908152604080832086845282528083206001600160401b03861684529091529020805482919060ff1916600183600381111561162f5761162f6120d1565b02179055507fc4f15e84da288f27234e3626e64c8035b984fd65cee49fcd86b4910de1d13e7c8484848460405161166994939291906134aa565b60405180910390a150505050565b6116cd8363a9059cbb60e01b84846040516024016116969291906134df565b60408051601f198184030181529190526020810180516001600160e01b03166001600160e01b031990931692909217909152611c15565b505050565b60006115d682846134ed565b6116ff846323b872dd60e01b85858560405160240161169693929190613505565b50505050565b61170e816105e2565b61172a5760405162461bcd60e51b815260040161056f90613547565b6001600160a01b03811660009081526097602052604090819020805460ff19169055517fcd265ebaf09df2871cc7bd4133404a235ba12eff2041bb89d9c714a2621c7c7e906112d390839061256f565b60cd8190556040517f44e8ce8f81d5513d3e950d9a75224f8ff590d2687c88df09ffc509671aa670a1906112d39083906123a5565b603380546001600160a01b038381166001600160a01b0319831681179093556040519116919082907f8be0079c531659141344cd1fd0a4f28419497f9722a3daafe3b4186f6b6457e090600090a35050565b6101028190556040517f921d5c4a3c33eaff9e0f2fee28d7dd04f45183c3070cc30adfd5d90be5154699906112d39083906123a5565b611840816105e2565b1561185d5760405162461bcd60e51b815260040161056f90613595565b6001600160a01b03811660009081526097602052604090819020805460ff19166001179055517f6719d08c1888103bea251a4ed56406bd0c3e69723c8a1686e017e7bbe159b6f8906112d390839061256f565b60655460ff16156118d35760405162461bcd60e51b815260040161056f90612ef2565b6065805460ff191660011790557f62e78cea01bee320cd4e420270b5ea74000d11b0c9f74754ebdbfc544b05a25861132d3390565b60006105dc611915611ca4565b83611ce0565b600054610100900460ff16610e4b5760405162461bcd60e51b815260040161056f906135ed565b600054610100900460ff166119695760405162461bcd60e51b815260040161056f906135ed565b61058181611d13565b600054610100900460ff166119995760405162461bcd60e51b815260040161056f906135ed565b61058181611d5e565b600054610100900460ff166105785760405162461bcd60e51b815260040161056f906135ed565b600054610100900460ff166119f05760405162461bcd60e51b815260040161056f906135ed565b6119fa8282611da9565b5050565b600054610100900460ff16610c555760405162461bcd60e51b815260040161056f906135ed565b600054610100900460ff16610bde5760405162461bcd60e51b815260040161056f906135ed565b60008082806020019051810190611a639190612df7565b9050600081602001515111611a8a5760405162461bcd60e51b815260040161056f90613631565b60005b816020015151811015611bdd57600082602001518281518110611ab257611ab2613641565b60200260200101519050600081602001515111611ae15760405162461bcd60e51b815260040161056f90613695565b60005b816020015151811015611bc857600082602001518481518110611b0957611b09613641565b60209081029190910181015160cf5481519282015186516040516354bf93b960e11b81529395506000946001600160a01b039093169363a97f277293611b5593909290916004016136a5565b60206040518083038186803b158015611b6d57600080fd5b505afa158015611b81573d6000803e3d6000fd5b505050506040513d601f19601f82011682018060405250810190611ba591906136c0565b9050611bb187826116d2565b965050508080611bc0906136e1565b915050611ae4565b50508080611bd5906136e1565b915050611a8d565b5080518214611bfe5760405162461bcd60e51b815260040161056f90613728565b50919050565b60006105dc8264e8d4a51000611dea565b6000611c6a826040518060400160405280602081526020017f5361666545524332303a206c6f772d6c6576656c2063616c6c206661696c6564815250856001600160a01b0316611df69092919063ffffffff16565b8051909150156116cd5780806020019051810190611c889190613025565b6116cd5760405162461bcd60e51b815260040161056f9061377f565b6000611cdb7f8b73c3c69bb8fe3d512ecc4cf759cc79239f7b179b0ffacaa9a75d522b39400f611cd360995490565b609a54611e05565b905090565b60008282604051602001611cf592919061378f565b60405160208183030381529060405280519060200120905092915050565b609880546001600160a01b0319166001600160a01b0383161790556040517fe63288198842f0dacdcbdc3f22dcd4e473d1f3cee7e10603ae6ddc3e667c5284906112d39083906126ca565b60cf80546001600160a01b0319166001600160a01b0383161790556040517fcb398744d70dd9f7eb9e1e65c9c74f4d3276143240e25316135eb6585db6c1c1906112d39083906126ca565b600054610100900460ff16611dd05760405162461bcd60e51b815260040161056f906135ed565b815160209283012081519190920120609991909155609a55565b60006115d682846137d6565b6060610e9a8484600085611e3f565b60008383834630604051602001611e209594939291906137ea565b6040516020818303038152906040528051906020012090509392505050565b606082471015611e615760405162461bcd60e51b815260040161056f9061386f565b6001600160a01b0385163b611e885760405162461bcd60e51b815260040161056f906138b3565b600080866001600160a01b03168587604051611ea491906138e5565b60006040518083038185875af1925050503d8060008114611ee1576040519150601f19603f3d011682016040523d82523d6000602084013e611ee6565b606091505b5091509150611ef6828286611f01565b979650505050505050565b60608315611f105750816115d6565b825115611f205782518084602001fd5b8160405162461bcd60e51b815260040161056f91906129b7565b60006001600160a01b0382166105dc565b60006105dc82611f3a565b611f5f81611f4b565b811461058157600080fd5b80356105dc81611f56565b600060208284031215611f8a57611f8a600080fd5b6000610e9a8484611f6a565b634e487b7160e01b600052604160045260246000fd5b601f19601f83011681018181106001600160401b0382111715611fd157611fd1611f96565b6040525050565b6000611fe360405190565b9050611fef8282611fac565b919050565b60006001600160401b0382111561200d5761200d611f96565b601f19601f83011660200192915050565b82818337506000910152565b600061203d61203884611ff4565b611fd8565b90508281526020810184848401111561205857612058600080fd5b61206384828561201e565b509392505050565b600082601f83011261207f5761207f600080fd5b8135610e9a84826020860161202a565b6000602082840312156120a4576120a4600080fd5b81356001600160401b038111156120bd576120bd600080fd5b610e9a8482850161206b565b805b82525050565b634e487b7160e01b600052602160045260246000fd5b60058110610581576105816120d1565b80611fef816120e7565b60006105dc826120f7565b6120cb81612101565b80516040830190612126848261210c565b5060208201516116ff60208501826120c9565b60006121458383612115565b505060400190565b6000612157825190565b80845260209384019383018060005b8381101561218b57815161217a8882612139565b975060208301925050600101612166565b509495945050505050565b805160009060408401906121aa85826120c9565b506020830151848203602086015261122f828261214d565b60006115d68383612196565b60006121d8825190565b808452602084019350836020820285016121f28560200190565b8060005b85811015612227578484038952815161220f85826121c2565b94506020830160209a909a01999250506001016121f6565b5091979650505050505050565b8051600090604084019061224885826120c9565b506020830151848203602086015261122f82826121ce565b602080825281016115d68184612234565b611f5f81611f3a565b80356105dc81612271565b60006020828403121561229a5761229a600080fd5b6000610e9a848461227a565b8015156120cb565b602081016105dc82846122a6565b6001600160401b038116611f5f565b80356105dc816122bc565b80611f5f565b80356105dc816122d6565b60008060008060008060c0878903121561230357612303600080fd5b600061230f898961227a565b965050602061232089828a016122cb565b955050604061233189828a016122dc565b945050606061234289828a0161227a565b93505060808701356001600160401b0381111561236157612361600080fd5b61236d89828a0161206b565b92505060a08701356001600160401b0381111561238c5761238c600080fd5b61239889828a0161206b565b9150509295509295509295565b602081016105dc82846120c9565b6000806000606084860312156123cb576123cb600080fd5b60006123d7868661227a565b93505060206123e8868287016122dc565b92505060406123f9868287016122cb565b9150509250925092565b60048110610581576105816120d1565b80611fef81612403565b60006105dc82612413565b6120cb8161241d565b602081016105dc8284612428565b6000806040838503121561245557612455600080fd5b6000612461858561227a565b9250506020612472858286016122dc565b9150509250929050565b60008060008060008060c0878903121561249857612498600080fd5b60006124a4898961227a565b96505060206124b589828a016122cb565b95505060406124c689828a0161227a565b94505060606124d789828a016122dc565b935050608061236d89828a016122dc565b6000806000806080858703121561250157612501600080fd5b600061250d878761227a565b945050602061251e878288016122dc565b935050604061252f8782880161227a565b92505060608501356001600160401b0381111561254e5761254e600080fd5b61255a8782880161206b565b91505092959194509250565b6120cb81611f3a565b602081016105dc8284612566565b6000806000806080858703121561259657612596600080fd5b60006125a2878761227a565b94505060206125b3878288016122cb565b935050604061252f878288016122dc565b6000806000606084860312156125dc576125dc600080fd5b60006125e88686611f6a565b93505060206125f98682870161227a565b92505060406123f9868287016122dc565b600080600080600060a0868803121561262557612625600080fd5b6000612631888861227a565b9550506020612642888289016122cb565b9450506040612653888289016122dc565b93505060608601356001600160401b0381111561267257612672600080fd5b61267e8882890161206b565b92505060808601356001600160401b0381111561269d5761269d600080fd5b6126a98882890161206b565b9150509295509295909350565b60006105dc82611f4b565b6120cb816126b6565b602081016105dc82846126c1565b60006001600160401b038211156126f1576126f1611f96565b5060209081020190565b6005811061058157600080fd5b80356105dc816126fb565b60006040828403121561272857612728600080fd5b6127326040611fd8565b905060006127408484612708565b8252506020612751848483016122dc565b60208301525092915050565b600061276b612038846126d8565b8381529050602081016040840283018581111561278a5761278a600080fd5b835b818110156127b0578061279f8882612713565b84525060209092019160400161278c565b5050509392505050565b600082601f8301126127ce576127ce600080fd5b8135610e9a84826020860161275d565b6000604082840312156127f3576127f3600080fd5b6127fd6040611fd8565b9050600061280b84846122dc565b82525060208201356001600160401b0381111561282a5761282a600080fd5b612751848285016127ba565b6000612844612038846126d8565b8381529050602080820190840283018581111561286357612863600080fd5b835b818110156127b05780356001600160401b0381111561288657612886600080fd5b80860161289389826127de565b8552505060209283019201612865565b600082601f8301126128b7576128b7600080fd5b8135610e9a848260208601612836565b6000604082840312156128dc576128dc600080fd5b6128e66040611fd8565b905060006128f484846122dc565b82525060208201356001600160401b0381111561291357612913600080fd5b612751848285016128a3565b60006020828403121561293457612934600080fd5b81356001600160401b0381111561294d5761294d600080fd5b610e9a848285016128c7565b60005b8381101561297457818101518382015260200161295c565b838111156116ff5750506000910152565b600061298f825190565b8084526020840193506129a6818560208601612959565b601f01601f19169290920192915050565b602080825281016115d68184612985565b60008060008060008060008060006101208a8c0312156129ea576129ea600080fd5b60006129f68c8c61227a565b9950506020612a078c828d0161227a565b9850506040612a188c828d01611f6a565b9750506060612a298c828d01611f6a565b9650506080612a3a8c828d01611f6a565b95505060a08a01356001600160401b03811115612a5957612a59600080fd5b612a658c828d0161206b565b94505060c08a01356001600160401b03811115612a8457612a84600080fd5b612a908c828d0161206b565b93505060e08a01356001600160401b03811115612aaf57612aaf600080fd5b612abb8c828d0161206b565b9250506101008a01356001600160401b03811115612adb57612adb600080fd5b612ae78c828d0161206b565b9150509295985092959850929598565b600080600080600060a08688031215612b1257612b12600080fd5b6000612b1e888861227a565b9550506020612b2f888289016122cb565b9450506040612b408882890161227a565b9350506060612b51888289016122dc565b92505060806126a9888289016122dc565b60208082527f4f776e61626c653a2063616c6c6572206973206e6f7420746865206f776e6572910190815260005b5060200190565b602080825281016105dc81612b62565b601c81526000602082017f5061757365723a2043616c6c6572206973206e6f74207061757365720000000081529150612b90565b602080825281016105dc81612ba7565b80516105dc816122d6565b80516105dc816126fb565b600060408284031215612c1657612c16600080fd5b612c206040611fd8565b90506000612c2e8484612bf6565b825250602061275184848301612beb565b6000612c4d612038846126d8565b83815290506020810160408402830185811115612c6c57612c6c600080fd5b835b818110156127b05780612c818882612c01565b845250602090920191604001612c6e565b600082601f830112612ca657612ca6600080fd5b8151610e9a848260208601612c3f565b600060408284031215612ccb57612ccb600080fd5b612cd56040611fd8565b90506000612ce38484612beb565b82525060208201516001600160401b03811115612d0257612d02600080fd5b61275184828501612c92565b6000612d1c612038846126d8565b83815290506020808201908402830185811115612d3b57612d3b600080fd5b835b818110156127b05780516001600160401b03811115612d5e57612d5e600080fd5b808601612d6b8982612cb6565b8552505060209283019201612d3d565b600082601f830112612d8f57612d8f600080fd5b8151610e9a848260208601612d0e565b600060408284031215612db457612db4600080fd5b612dbe6040611fd8565b90506000612dcc8484612beb565b82525060208201516001600160401b03811115612deb57612deb600080fd5b61275184828501612d7b565b600060208284031215612e0c57612e0c600080fd5b81516001600160401b03811115612e2557612e25600080fd5b610e9a84828501612d9f565b601981526000602082017f46756e6457616c6c65743a20696e76616c6964206e6f6e63650000000000000081529150612b90565b602080825281016105dc81612e31565b602681526000602082017f46756e6457616c6c65743a2063616c6c6572206973206e6f742077616c6c65748152651037bbb732b960d11b602082015291505b5060400190565b602080825281016105dc81612e75565b601081526000602082016f14185d5cd8589b194e881c185d5cd95960821b81529150612b90565b602080825281016105dc81612ecb565b601f81526000602082017f5265656e7472616e637947756172643a207265656e7472616e742063616c6c0081529150612b90565b602080825281016105dc81612f02565b6001600160401b0381166120cb565b60a08101612f638288612566565b612f706020830187612f46565b612f7d60408301866120c9565b612f8a6060830185612566565b612f9760808301846120c9565b9695505050505050565b601781526000602082017f46756e6457616c6c65743a207a65726f20616d6f756e7400000000000000000081529150612b90565b602080825281016105dc81612fa1565b60608101612ff38286612566565b61300060208301856120c9565b8181036040830152610e978184612985565b801515611f5f565b80516105dc81613012565b60006020828403121561303a5761303a600080fd5b6000610e9a848461301a565b601d81526000602082017f46756e6457616c6c65743a20696e76616c6964207369676e617475726500000081529150612b90565b602080825281016105dc81613046565b60a081016130988288612566565b6130a56020830187612f46565b6130b26040830186612566565b612f8a60608301856120c9565b602581526000602082017f5061796d656e743a207769746864726177206e617469766520746f6b656e2066815264185a5b195960da1b60208201529150612eb4565b602080825281016105dc816130bf565b6040810161311f82856126c1565b6115d660208301846120c9565b60006105dc8260601b90565b60006105dc8261312c565b6120cb61314f82611f3a565b613138565b806120cb565b60006131668286613143565b6014820191506131768285613143565b6014820191506131868284613154565b506020019392505050565b6060810161319f8286612566565b6131ac60208301856120c9565b610e9a6040830184612566565b606081016131c782866126c1565b6131d46020830185612566565b610e9a60408301846120c9565b608081016131ef8287612566565b6131fc6020830186612f46565b61320960408301856120c9565b61122f60608301846120c9565b60a0810161322482886120c9565b6132316020830187612566565b6130b26040830186612f46565b602e81526000602082017f496e697469616c697a61626c653a20636f6e747261637420697320616c72656181526d191e481a5b9a5d1a585b1a5e995960921b60208201529150612eb4565b602080825281016105dc8161323e565b602681526000602082017f4f776e61626c653a206e6577206f776e657220697320746865207a65726f206181526564647265737360d01b60208201529150612eb4565b602080825281016105dc81613299565b60c081016132fa82896120c9565b6133076020830188612566565b6133146040830187612f46565b6133216060830186612566565b61332e60808301856120c9565b611ef660a08301846120c9565b601481526000602082017314185d5cd8589b194e881b9bdd081c185d5cd95960621b81529150612b90565b602080825281016105dc8161333b565b602181526000602082017f42696c6c696e673a2063616c6c6572206973206e6f7420612070726f766964658152603960f91b60208201529150612eb4565b602080825281016105dc81613376565b601a81526000602082017f42696c6c696e673a20696e76616c6964207369676e617475726500000000000081529150612b90565b602080825281016105dc816133c4565b80516105dc81612271565b60006020828403121561342857613428600080fd5b6000610e9a8484613408565b60a081016134428288612566565b61344f6020830187612f46565b61345c60408301866120c9565b818103606083015261346e8185612985565b9050612f9760808301846120c9565b634e487b7160e01b600052601160045260246000fd5b6000828210156134a5576134a561347d565b500390565b608081016134b88287612566565b6134c560208301866120c9565b6134d26040830185612f46565b61122f6060830184612428565b6040810161311f8285612566565b600082198211156135005761350061347d565b500190565b606081016131c78286612566565b601d81526000602082017f5061757365723a204163636f756e74206973206e6f742070617573657200000081529150612b90565b602080825281016105dc81613513565b602181526000602082017f5061757365723a204163636f756e7420697320616c72656164792070617573658152603960f91b60208201529150612eb4565b602080825281016105dc81613557565b602b81526000602082017f496e697469616c697a61626c653a20636f6e7472616374206973206e6f74206981526a6e697469616c697a696e6760a81b60208201529150612eb4565b602080825281016105dc816135a5565b601c81526000602082017f42696c6c696e673a20656d7074792062696c6c207061796c6f6164730000000081529150612b90565b602080825281016105dc816135fd565b634e487b7160e01b600052603260045260246000fd5b602181526000602082017f42696c6c696e673a20656d7074792062696c6c207061796c6f616420656e74728152607960f81b60208201529150612eb4565b602080825281016105dc81613657565b606081016136b3828661210c565b6131d460208301856120c9565b6000602082840312156136d5576136d5600080fd5b6000610e9a8484612beb565b60006000198214156136f5576136f561347d565b5060010190565b6015815260006020820174109a5b1b1a5b99ce881a5b9d985b1a5908189a5b1b605a1b81529150612b90565b602080825281016105dc816136fc565b602a81526000602082017f5361666545524332303a204552433230206f7065726174696f6e20646964206e8152691bdd081cdd58d8d9595960b21b60208201529150612eb4565b602080825281016105dc81613738565b61190160f01b815260020160006137a68285613154565b6020820191506137b68284613154565b5060200192915050565b634e487b7160e01b600052601260045260246000fd5b6000826137e5576137e56137c0565b500490565b60a081016137f882886120c9565b61380560208301876120c9565b61381260408301866120c9565b61381f60608301856120c9565b612f976080830184612566565b602681526000602082017f416464726573733a20696e73756666696369656e742062616c616e636520666f8152651c8818d85b1b60d21b60208201529150612eb4565b602080825281016105dc8161382c565b601d81526000602082017f416464726573733a2063616c6c20746f206e6f6e2d636f6e747261637400000081529150612b90565b602080825281016105dc8161387f565b60006138cd825190565b6138db818560208601612959565b9290920192915050565b60006115d682846138c356fea2646970667358221220a0821c0e67e96fe3f7ecf78ce32d9ab6a3bb4a0a207cc6967209fea35cb5d37064736f6c63430008090033",
  "devdoc": {
    "kind": "dev",
    "methods": {
      "owner()": {
        "details": "Returns the address of the current owner."
      },
      "paused()": {
        "details": "Returns true if the contract is paused, and false otherwise."
      },
      "renounceOwnership()": {
        "details": "Leaves the contract without owner. It will not be possible to call `onlyOwner` functions anymore. Can only be called by the current owner. NOTE: Renouncing ownership will leave the contract without an owner, thereby removing any functionality that is only available to the owner."
      },
      "transferOwnership(address)": {
        "details": "Transfers ownership of the contract to a new account (`newOwner`). Can only be called by the current owner."
      }
    },
    "version": 1
  },
  "userdoc": {
    "kind": "user",
    "methods": {},
    "version": 1
  },
  "storageLayout": {
    "storage": [
      {
        "astId": 147,
        "contract": "contracts/wallets/FundWallet.sol:FundWallet",
        "label": "_initialized",
        "offset": 0,
        "slot": "0",
        "type": "t_bool"
      },
      {
        "astId": 150,
        "contract": "contracts/wallets/FundWallet.sol:FundWallet",
        "label": "_initializing",
        "offset": 1,
        "slot": "0",
        "type": "t_bool"
      },
      {
        "astId": 970,
        "contract": "contracts/wallets/FundWallet.sol:FundWallet",
        "label": "__gap",
        "offset": 0,
        "slot": "1",
        "type": "t_array(t_uint256)50_storage"
      },
      {
        "astId": 10,
        "contract": "contracts/wallets/FundWallet.sol:FundWallet",
        "label": "_owner",
        "offset": 0,
        "slot": "51",
        "type": "t_address"
      },
      {
        "astId": 122,
        "contract": "contracts/wallets/FundWallet.sol:FundWallet",
        "label": "__gap",
        "offset": 0,
        "slot": "52",
        "type": "t_array(t_uint256)49_storage"
      },
      {
        "astId": 235,
        "contract": "contracts/wallets/FundWallet.sol:FundWallet",
        "label": "_paused",
        "offset": 0,
        "slot": "101",
        "type": "t_bool"
      },
      {
        "astId": 324,
        "contract": "contracts/wallets/FundWallet.sol:FundWallet",
        "label": "__gap",
        "offset": 0,
        "slot": "102",
        "type": "t_array(t_uint256)49_storage"
      },
      {
        "astId": 3742,
        "contract": "contracts/wallets/FundWallet.sol:FundWallet",
        "label": "pausers",
        "offset": 0,
        "slot": "151",
        "type": "t_mapping(t_address,t_bool)"
      },
      {
        "astId": 6575,
        "contract": "contracts/wallets/FundWallet.sol:FundWallet",
        "label": "providers",
        "offset": 0,
        "slot": "152",
        "type": "t_contract(IProviders)4243"
      },
      {
        "astId": 1670,
        "contract": "contracts/wallets/FundWallet.sol:FundWallet",
        "label": "_HASHED_NAME",
        "offset": 0,
        "slot": "153",
        "type": "t_bytes32"
      },
      {
        "astId": 1672,
        "contract": "contracts/wallets/FundWallet.sol:FundWallet",
        "label": "_HASHED_VERSION",
        "offset": 0,
        "slot": "154",
        "type": "t_bytes32"
      },
      {
        "astId": 1810,
        "contract": "contracts/wallets/FundWallet.sol:FundWallet",
        "label": "__gap",
        "offset": 0,
        "slot": "155",
        "type": "t_array(t_uint256)50_storage"
      },
      {
        "astId": 8136,
        "contract": "contracts/wallets/FundWallet.sol:FundWallet",
        "label": "billTypedHash",
        "offset": 0,
        "slot": "205",
        "type": "t_bytes32"
      },
      {
        "astId": 8140,
        "contract": "contracts/wallets/FundWallet.sol:FundWallet",
        "label": "token",
        "offset": 0,
        "slot": "206",
        "type": "t_contract(IERC20Upgradeable)462"
      },
      {
        "astId": 8144,
        "contract": "contracts/wallets/FundWallet.sol:FundWallet",
        "label": "adaptor",
        "offset": 0,
        "slot": "207",
        "type": "t_contract(IResourceAdaptor)8102"
      },
      {
        "astId": 339,
        "contract": "contracts/wallets/FundWallet.sol:FundWallet",
        "label": "_status",
        "offset": 0,
        "slot": "208",
        "type": "t_uint256"
      },
      {
        "astId": 383,
        "contract": "contracts/wallets/FundWallet.sol:FundWallet",
        "label": "__gap",
        "offset": 0,
        "slot": "209",
        "type": "t_array(t_uint256)49_storage"
      },
      {
        "astId": 8547,
        "contract": "contracts/wallets/FundWallet.sol:FundWallet",
        "label": "rechargeTypedHash",
        "offset": 0,
        "slot": "258",
        "type": "t_bytes32"
      },
      {
        "astId": 8556,
        "contract": "contracts/wallets/FundWallet.sol:FundWallet",
        "label": "nonces",
        "offset": 0,
        "slot": "259",
        "type": "t_mapping(t_address,t_mapping(t_bytes32,t_mapping(t_uint64,t_enum(Purpose)4024)))"
      },
      {
        "astId": 8563,
        "contract": "contracts/wallets/FundWallet.sol:FundWallet",
        "label": "wallets",
        "offset": 0,
        "slot": "260",
        "type": "t_mapping(t_address,t_mapping(t_bytes32,t_struct(Wallet)4029_storage))"
      }
    ],
    "types": {
      "t_address": {
        "encoding": "inplace",
        "label": "address",
        "numberOfBytes": "20"
      },
      "t_array(t_uint256)49_storage": {
        "base": "t_uint256",
        "encoding": "inplace",
        "label": "uint256[49]",
        "numberOfBytes": "1568"
      },
      "t_array(t_uint256)50_storage": {
        "base": "t_uint256",
        "encoding": "inplace",
        "label": "uint256[50]",
        "numberOfBytes": "1600"
      },
      "t_bool": {
        "encoding": "inplace",
        "label": "bool",
        "numberOfBytes": "1"
      },
      "t_bytes32": {
        "encoding": "inplace",
        "label": "bytes32",
        "numberOfBytes": "32"
      },
      "t_contract(IERC20Upgradeable)462": {
        "encoding": "inplace",
        "label": "contract IERC20Upgradeable",
        "numberOfBytes": "20"
      },
      "t_contract(IProviders)4243": {
        "encoding": "inplace",
        "label": "contract IProviders",
        "numberOfBytes": "20"
      },
      "t_contract(IResourceAdaptor)8102": {
        "encoding": "inplace",
        "label": "contract IResourceAdaptor",
        "numberOfBytes": "20"
      },
      "t_enum(Purpose)4024": {
        "encoding": "inplace",
        "label": "enum IFundWallet.Purpose",
        "numberOfBytes": "1"
      },
      "t_mapping(t_address,t_bool)": {
        "encoding": "mapping",
        "key": "t_address",
        "label": "mapping(address => bool)",
        "numberOfBytes": "32",
        "value": "t_bool"
      },
      "t_mapping(t_address,t_mapping(t_bytes32,t_mapping(t_uint64,t_enum(Purpose)4024)))": {
        "encoding": "mapping",
        "key": "t_address",
        "label": "mapping(address => mapping(bytes32 => mapping(uint64 => enum IFundWallet.Purpose)))",
        "numberOfBytes": "32",
        "value": "t_mapping(t_bytes32,t_mapping(t_uint64,t_enum(Purpose)4024))"
      },
      "t_mapping(t_address,t_mapping(t_bytes32,t_struct(Wallet)4029_storage))": {
        "encoding": "mapping",
        "key": "t_address",
        "label": "mapping(address => mapping(bytes32 => struct IFundWallet.Wallet))",
        "numberOfBytes": "32",
        "value": "t_mapping(t_bytes32,t_struct(Wallet)4029_storage)"
      },
      "t_mapping(t_bytes32,t_mapping(t_uint64,t_enum(Purpose)4024))": {
        "encoding": "mapping",
        "key": "t_bytes32",
        "label": "mapping(bytes32 => mapping(uint64 => enum IFundWallet.Purpose))",
        "numberOfBytes": "32",
        "value": "t_mapping(t_uint64,t_enum(Purpose)4024)"
      },
      "t_mapping(t_bytes32,t_struct(Wallet)4029_storage)": {
        "encoding": "mapping",
        "key": "t_bytes32",
        "label": "mapping(bytes32 => struct IFundWallet.Wallet)",
        "numberOfBytes": "32",
        "value": "t_struct(Wallet)4029_storage"
      },
      "t_mapping(t_uint64,t_enum(Purpose)4024)": {
        "encoding": "mapping",
        "key": "t_uint64",
        "label": "mapping(uint64 => enum IFundWallet.Purpose)",
        "numberOfBytes": "32",
        "value": "t_enum(Purpose)4024"
      },
      "t_struct(Wallet)4029_storage": {
        "encoding": "inplace",
        "label": "struct IFundWallet.Wallet",
        "members": [
          {
            "astId": 4026,
            "contract": "contracts/wallets/FundWallet.sol:FundWallet",
            "label": "owner",
            "offset": 0,
            "slot": "0",
            "type": "t_address"
          },
          {
            "astId": 4028,
            "contract": "contracts/wallets/FundWallet.sol:FundWallet",
            "label": "amount",
            "offset": 0,
            "slot": "1",
            "type": "t_uint256"
          }
        ],
        "numberOfBytes": "64"
      },
      "t_uint256": {
        "encoding": "inplace",
        "label": "uint256",
        "numberOfBytes": "32"
      },
      "t_uint64": {
        "encoding": "inplace",
        "label": "uint64",
        "numberOfBytes": "8"
      }
    }
  }
}