{
  "address": "0xBda5e829CB449e56F98fA73eb73c6C4621e9dF25",
  "abi": [
    {
      "inputs": [
        {
          "internalType": "address",
          "name": "owner",
          "type": "address"
        },
        {
          "internalType": "address",
          "name": "pauser",
          "type": "address"
        },
        {
          "internalType": "contract IProviders",
          "name": "_providers",
          "type": "address"
        },
        {
          "internalType": "contract IERC20Upgradeable",
          "name": "_token",
          "type": "address"
        }
      ],
      "stateMutability": "nonpayable",
      "type": "constructor"
    },
    {
      "anonymous": false,
      "inputs": [
        {
          "indexed": false,
          "internalType": "address",
          "name": "provider",
          "type": "address"
        },
        {
          "indexed": false,
          "internalType": "uint64",
          "name": "nonce",
          "type": "uint64"
        },
        {
          "indexed": false,
          "internalType": "bytes32",
          "name": "account",
          "type": "bytes32"
        },
        {
          "indexed": false,
          "internalType": "bytes",
          "name": "bill",
          "type": "bytes"
        },
        {
          "indexed": false,
          "internalType": "uint256",
          "name": "amount",
          "type": "uint256"
        }
      ],
      "name": "Billing",
      "type": "event"
    },
    {
      "anonymous": false,
      "inputs": [
        {
          "indexed": false,
          "internalType": "address",
          "name": "provider",
          "type": "address"
        },
        {
          "indexed": false,
          "internalType": "uint64",
          "name": "nonce",
          "type": "uint64"
        },
        {
          "indexed": false,
          "internalType": "address",
          "name": "owner",
          "type": "address"
        },
        {
          "indexed": false,
          "internalType": "bytes32",
          "name": "account",
          "type": "bytes32"
        },
        {
          "indexed": false,
          "internalType": "uint256",
          "name": "amount",
          "type": "uint256"
        }
      ],
      "name": "Charge",
      "type": "event"
    },
    {
      "anonymous": false,
      "inputs": [
        {
          "indexed": false,
          "internalType": "address",
          "name": "to",
          "type": "address"
        },
        {
          "indexed": false,
          "internalType": "uint256",
          "name": "value",
          "type": "uint256"
        }
      ],
      "name": "NativeWithdrawal",
      "type": "event"
    },
    {
      "anonymous": false,
      "inputs": [
        {
          "indexed": true,
          "internalType": "address",
          "name": "previousOwner",
          "type": "address"
        },
        {
          "indexed": true,
          "internalType": "address",
          "name": "newOwner",
          "type": "address"
        }
      ],
      "name": "OwnershipTransferred",
      "type": "event"
    },
    {
      "anonymous": false,
      "inputs": [
        {
          "indexed": false,
          "internalType": "address",
          "name": "account",
          "type": "address"
        }
      ],
      "name": "Paused",
      "type": "event"
    },
    {
      "anonymous": false,
      "inputs": [
        {
          "indexed": false,
          "internalType": "address",
          "name": "account",
          "type": "address"
        }
      ],
      "name": "PauserAdded",
      "type": "event"
    },
    {
      "anonymous": false,
      "inputs": [
        {
          "indexed": false,
          "internalType": "address",
          "name": "account",
          "type": "address"
        }
      ],
      "name": "PauserRemoved",
      "type": "event"
    },
    {
      "anonymous": false,
      "inputs": [
        {
          "indexed": false,
          "internalType": "contract IProviders",
          "name": "providers",
          "type": "address"
        }
      ],
      "name": "ProvidersUpdated",
      "type": "event"
    },
    {
      "anonymous": false,
      "inputs": [
        {
          "indexed": false,
          "internalType": "contract IResourceAdaptor",
          "name": "adaptor",
          "type": "address"
        }
      ],
      "name": "ResourceAdaptorUpdated",
      "type": "event"
    },
    {
      "anonymous": false,
      "inputs": [
        {
          "indexed": false,
          "internalType": "address",
          "name": "provider",
          "type": "address"
        },
        {
          "indexed": false,
          "internalType": "uint64",
          "name": "nonce",
          "type": "uint64"
        },
        {
          "indexed": false,
          "internalType": "bytes32",
          "name": "account",
          "type": "bytes32"
        },
        {
          "indexed": false,
          "internalType": "uint256",
          "name": "fee",
          "type": "uint256"
        },
        {
          "indexed": false,
          "internalType": "uint256",
          "name": "balance",
          "type": "uint256"
        }
      ],
      "name": "Spend",
      "type": "event"
    },
    {
      "anonymous": false,
      "inputs": [
        {
          "indexed": false,
          "internalType": "contract IERC20Upgradeable",
          "name": "token",
          "type": "address"
        }
      ],
      "name": "TokenUpdated",
      "type": "event"
    },
    {
      "anonymous": false,
      "inputs": [
        {
          "indexed": false,
          "internalType": "address",
          "name": "account",
          "type": "address"
        }
      ],
      "name": "Unpaused",
      "type": "event"
    },
    {
      "anonymous": false,
      "inputs": [
        {
          "indexed": false,
          "internalType": "address",
          "name": "provider",
          "type": "address"
        },
        {
          "indexed": false,
          "internalType": "bytes32",
          "name": "account",
          "type": "bytes32"
        },
        {
          "indexed": false,
          "internalType": "address",
          "name": "newOwner",
          "type": "address"
        }
      ],
      "name": "WalletOwnerTransferred",
      "type": "event"
    },
    {
      "anonymous": false,
      "inputs": [
        {
          "indexed": false,
          "internalType": "contract IERC20Upgradeable",
          "name": "token",
          "type": "address"
        },
        {
          "indexed": false,
          "internalType": "address",
          "name": "to",
          "type": "address"
        },
        {
          "indexed": false,
          "internalType": "uint256",
          "name": "value",
          "type": "uint256"
        }
      ],
      "name": "Withdrawal",
      "type": "event"
    },
    {
      "anonymous": false,
      "inputs": [
        {
          "indexed": false,
          "internalType": "address",
          "name": "provider",
          "type": "address"
        },
        {
          "indexed": false,
          "internalType": "uint64",
          "name": "nonce",
          "type": "uint64"
        },
        {
          "indexed": false,
          "internalType": "bytes32",
          "name": "account",
          "type": "bytes32"
        },
        {
          "indexed": false,
          "internalType": "address",
          "name": "to",
          "type": "address"
        },
        {
          "indexed": false,
          "internalType": "uint256",
          "name": "amount",
          "type": "uint256"
        }
      ],
      "name": "Withdrawn",
      "type": "event"
    },
    {
      "inputs": [],
      "name": "adaptor",
      "outputs": [
        {
          "internalType": "contract IResourceAdaptor",
          "name": "",
          "type": "address"
        }
      ],
      "stateMutability": "view",
      "type": "function"
    },
    {
      "inputs": [
        {
          "internalType": "address",
          "name": "account",
          "type": "address"
        }
      ],
      "name": "addPauser",
      "outputs": [],
      "stateMutability": "nonpayable",
      "type": "function"
    },
    {
      "inputs": [
        {
          "internalType": "address",
          "name": "provider",
          "type": "address"
        },
        {
          "internalType": "bytes32",
          "name": "account",
          "type": "bytes32"
        }
      ],
      "name": "balanceOf",
      "outputs": [
        {
          "internalType": "uint256",
          "name": "",
          "type": "uint256"
        }
      ],
      "stateMutability": "view",
      "type": "function"
    },
    {
      "inputs": [
        {
          "internalType": "address",
          "name": "provider",
          "type": "address"
        },
        {
          "internalType": "uint64",
          "name": "nonce",
          "type": "uint64"
        },
        {
          "internalType": "address",
          "name": "owner",
          "type": "address"
        },
        {
          "internalType": "bytes32",
          "name": "account",
          "type": "bytes32"
        },
        {
          "internalType": "uint256",
          "name": "amount",
          "type": "uint256"
        },
        {
          "internalType": "bytes",
          "name": "signature",
          "type": "bytes"
        }
      ],
      "name": "charge",
      "outputs": [],
      "stateMutability": "nonpayable",
      "type": "function"
    },
    {
      "inputs": [
        {
          "internalType": "bytes",
          "name": "message",
          "type": "bytes"
        }
      ],
      "name": "decodeBill",
      "outputs": [
        {
          "components": [
            {
              "internalType": "uint256",
              "name": "totalValue",
              "type": "uint256"
            },
            {
              "components": [
                {
                  "internalType": "uint256",
                  "name": "indexBlock",
                  "type": "uint256"
                },
                {
                  "components": [
                    {
                      "internalType": "enum ResourceData.ResourceType",
                      "name": "resourceType",
                      "type": "uint8"
                    },
                    {
                      "internalType": "uint256",
                      "name": "amount",
                      "type": "uint256"
                    }
                  ],
                  "internalType": "struct IBilling.BillEntry[]",
                  "name": "entries",
                  "type": "tuple[]"
                }
              ],
              "internalType": "struct IBilling.BillPayload[]",
              "name": "payloads",
              "type": "tuple[]"
            }
          ],
          "internalType": "struct IBilling.Bill",
          "name": "",
          "type": "tuple"
        }
      ],
      "stateMutability": "pure",
      "type": "function"
    },
    {
      "inputs": [
        {
          "components": [
            {
              "internalType": "uint256",
              "name": "totalValue",
              "type": "uint256"
            },
            {
              "components": [
                {
                  "internalType": "uint256",
                  "name": "indexBlock",
                  "type": "uint256"
                },
                {
                  "components": [
                    {
                      "internalType": "enum ResourceData.ResourceType",
                      "name": "resourceType",
                      "type": "uint8"
                    },
                    {
                      "internalType": "uint256",
                      "name": "amount",
                      "type": "uint256"
                    }
                  ],
                  "internalType": "struct IBilling.BillEntry[]",
                  "name": "entries",
                  "type": "tuple[]"
                }
              ],
              "internalType": "struct IBilling.BillPayload[]",
              "name": "payloads",
              "type": "tuple[]"
            }
          ],
          "internalType": "struct IBilling.Bill",
          "name": "bills",
          "type": "tuple"
        }
      ],
      "name": "encodeBill",
      "outputs": [
        {
          "internalType": "bytes",
          "name": "",
          "type": "bytes"
        }
      ],
      "stateMutability": "pure",
      "type": "function"
    },
    {
      "inputs": [
        {
          "internalType": "address",
          "name": "provider",
          "type": "address"
        },
        {
          "internalType": "uint64",
          "name": "nonce",
          "type": "uint64"
        },
        {
          "internalType": "bytes32",
          "name": "account",
          "type": "bytes32"
        },
        {
          "internalType": "bytes",
          "name": "bill",
          "type": "bytes"
        }
      ],
      "name": "hashBill",
      "outputs": [
        {
          "internalType": "bytes32",
          "name": "",
          "type": "bytes32"
        }
      ],
      "stateMutability": "pure",
      "type": "function"
    },
    {
      "inputs": [
        {
          "internalType": "address",
          "name": "owner",
          "type": "address"
        },
        {
          "internalType": "address",
          "name": "pauser",
          "type": "address"
        },
        {
          "internalType": "contract IProviders",
          "name": "_providers",
          "type": "address"
        },
        {
          "internalType": "contract IERC20Upgradeable",
          "name": "_token",
          "type": "address"
        }
      ],
      "name": "initialize",
      "outputs": [],
      "stateMutability": "nonpayable",
      "type": "function"
    },
    {
      "inputs": [
        {
          "internalType": "address",
          "name": "account",
          "type": "address"
        }
      ],
      "name": "isPauser",
      "outputs": [
        {
          "internalType": "bool",
          "name": "",
          "type": "bool"
        }
      ],
      "stateMutability": "view",
      "type": "function"
    },
    {
      "inputs": [],
      "name": "owner",
      "outputs": [
        {
          "internalType": "address",
          "name": "",
          "type": "address"
        }
      ],
      "stateMutability": "view",
      "type": "function"
    },
    {
      "inputs": [
        {
          "internalType": "address",
          "name": "provider",
          "type": "address"
        },
        {
          "internalType": "bytes32",
          "name": "account",
          "type": "bytes32"
        }
      ],
      "name": "ownerOf",
      "outputs": [
        {
          "internalType": "address",
          "name": "",
          "type": "address"
        }
      ],
      "stateMutability": "view",
      "type": "function"
    },
    {
      "inputs": [],
      "name": "pause",
      "outputs": [],
      "stateMutability": "nonpayable",
      "type": "function"
    },
    {
      "inputs": [],
      "name": "paused",
      "outputs": [
        {
          "internalType": "bool",
          "name": "",
          "type": "bool"
        }
      ],
      "stateMutability": "view",
      "type": "function"
    },
    {
      "inputs": [
        {
          "internalType": "address",
          "name": "",
          "type": "address"
        }
      ],
      "name": "pausers",
      "outputs": [
        {
          "internalType": "bool",
          "name": "",
          "type": "bool"
        }
      ],
      "stateMutability": "view",
      "type": "function"
    },
    {
      "inputs": [],
      "name": "providers",
      "outputs": [
        {
          "internalType": "contract IProviders",
          "name": "",
          "type": "address"
        }
      ],
      "stateMutability": "view",
      "type": "function"
    },
    {
      "inputs": [
        {
          "internalType": "address",
          "name": "account",
          "type": "address"
        }
      ],
      "name": "removePauser",
      "outputs": [],
      "stateMutability": "nonpayable",
      "type": "function"
    },
    {
      "inputs": [],
      "name": "renounceOwnership",
      "outputs": [],
      "stateMutability": "nonpayable",
      "type": "function"
    },
    {
      "inputs": [],
      "name": "renouncePauser",
      "outputs": [],
      "stateMutability": "nonpayable",
      "type": "function"
    },
    {
      "inputs": [
        {
          "internalType": "contract IERC20Upgradeable",
          "name": "_token",
          "type": "address"
        }
      ],
      "name": "setToken",
      "outputs": [],
      "stateMutability": "nonpayable",
      "type": "function"
    },
    {
      "inputs": [
        {
          "internalType": "address",
          "name": "provider",
          "type": "address"
        },
        {
          "internalType": "uint64",
          "name": "nonce",
          "type": "uint64"
        },
        {
          "internalType": "bytes32",
          "name": "account",
          "type": "bytes32"
        },
        {
          "internalType": "bytes",
          "name": "bill",
          "type": "bytes"
        },
        {
          "internalType": "bytes",
          "name": "signature",
          "type": "bytes"
        }
      ],
      "name": "spend",
      "outputs": [
        {
          "internalType": "uint256",
          "name": "fee",
          "type": "uint256"
        }
      ],
      "stateMutability": "nonpayable",
      "type": "function"
    },
    {
      "inputs": [],
      "name": "token",
      "outputs": [
        {
          "internalType": "contract IERC20Upgradeable",
          "name": "",
          "type": "address"
        }
      ],
      "stateMutability": "view",
      "type": "function"
    },
    {
      "inputs": [
        {
          "internalType": "address",
          "name": "newOwner",
          "type": "address"
        }
      ],
      "name": "transferOwnership",
      "outputs": [],
      "stateMutability": "nonpayable",
      "type": "function"
    },
    {
      "inputs": [
        {
          "internalType": "address",
          "name": "provider",
          "type": "address"
        },
        {
          "internalType": "bytes32",
          "name": "account",
          "type": "bytes32"
        },
        {
          "internalType": "address",
          "name": "newOwner",
          "type": "address"
        },
        {
          "internalType": "bytes",
          "name": "signature",
          "type": "bytes"
        }
      ],
      "name": "transferWalletOwner",
      "outputs": [],
      "stateMutability": "nonpayable",
      "type": "function"
    },
    {
      "inputs": [],
      "name": "unpause",
      "outputs": [],
      "stateMutability": "nonpayable",
      "type": "function"
    },
    {
      "inputs": [
        {
          "internalType": "address",
          "name": "provider",
          "type": "address"
        },
        {
          "internalType": "uint64",
          "name": "nonce",
          "type": "uint64"
        },
        {
          "internalType": "bytes32",
          "name": "account",
          "type": "bytes32"
        },
        {
          "internalType": "address",
          "name": "to",
          "type": "address"
        },
        {
          "internalType": "bytes",
          "name": "bill",
          "type": "bytes"
        },
        {
          "internalType": "bytes",
          "name": "signature",
          "type": "bytes"
        }
      ],
      "name": "withdraw",
      "outputs": [
        {
          "internalType": "uint256",
          "name": "amount",
          "type": "uint256"
        }
      ],
      "stateMutability": "nonpayable",
      "type": "function"
    },
    {
      "inputs": [
        {
          "internalType": "contract IERC20Upgradeable",
          "name": "token",
          "type": "address"
        },
        {
          "internalType": "address",
          "name": "to",
          "type": "address"
        },
        {
          "internalType": "uint256",
          "name": "value",
          "type": "uint256"
        }
      ],
      "name": "withdraw",
      "outputs": [],
      "stateMutability": "nonpayable",
      "type": "function"
    },
    {
      "inputs": [
        {
          "internalType": "address payable",
          "name": "to",
          "type": "address"
        },
        {
          "internalType": "uint256",
          "name": "value",
          "type": "uint256"
        }
      ],
      "name": "withdrawNative",
      "outputs": [],
      "stateMutability": "nonpayable",
      "type": "function"
    }
  ],
  "transactionHash": "0x63a06f8c24f85b4b69742531f5220ba280d1a9443b075d6ce0baf4b5386aeca1",
  "args": [
    "0xF1658C608708172655A8e70a1624c29F956Ee63D",
    "0xF1658C608708172655A8e70a1624c29F956Ee63D",
    "0x7F3ea749e22cA595aD6Eb7492acc01be52d67162",
    "0x7d43AABC515C356145049227CeE54B608342c0ad"
  ],
  "solcInputHash": "6b7d4021fb734729a112b7e1f4361bcb",
  "bytecode": "0x60806040523480156200001157600080fd5b5060405162003553380380620035538339810160408190526200003491620003a3565b600054610100900460ff16620000515760005460ff16156200005b565b6200005b620000f0565b620000835760405162461bcd60e51b81526004016200007a906200045f565b60405180910390fd5b600054610100900460ff16158015620000a6576000805461ffff19166101011790555b620000b1856200010e565b620000bc8462000160565b620000c78362000198565b620000d282620001cd565b8015620000e5576000805461ff00191690555b505050505062000585565b600062000108306200020260201b62000f841760201c565b15905090565b603380546001600160a01b038381166001600160a01b0319831681179093556040519116919082907f8be0079c531659141344cd1fd0a4f28419497f9722a3daafe3b4186f6b6457e090600090a35050565b600054610100900460ff166200018a5760405162461bcd60e51b81526004016200007a90620004ba565b620001958162000211565b50565b600054610100900460ff16620001c25760405162461bcd60e51b81526004016200007a90620004ba565b6200019581620002ad565b600054610100900460ff16620001f75760405162461bcd60e51b81526004016200007a90620004ba565b6200019581620002fa565b6001600160a01b03163b151590565b6001600160a01b03811660009081526097602052604090205460ff16156200024d5760405162461bcd60e51b81526004016200007a906200050b565b6001600160a01b03811660009081526097602052604090819020805460ff19166001179055517f6719d08c1888103bea251a4ed56406bd0c3e69723c8a1686e017e7bbe159b6f890620002a29083906200052e565b60405180910390a150565b609880546001600160a01b0319166001600160a01b0383161790556040517fe63288198842f0dacdcbdc3f22dcd4e473d1f3cee7e10603ae6ddc3e667c528490620002a290839062000575565b609980546001600160a01b0319166001600160a01b0383161790556040517f5ba6b30cd4b2f9e9e67f4feb9b9df10d5da3b057598e6901b217b7d590345e3090620002a290839062000575565b60006001600160a01b0382165b92915050565b620003658162000347565b81146200019557600080fd5b805162000354816200035a565b6000620003548262000347565b62000365816200037e565b805162000354816200038b565b60008060008060808587031215620003be57620003be600080fd5b6000620003cc878762000371565b9450506020620003df8782880162000371565b9350506040620003f28782880162000396565b9250506060620004058782880162000396565b91505092959194509250565b602e81526000602082017f496e697469616c697a61626c653a20636f6e747261637420697320616c72656181526d191e481a5b9a5d1a585b1a5e995960921b602082015291505b5060400190565b60208082528101620003548162000411565b602b81526000602082017f496e697469616c697a61626c653a20636f6e7472616374206973206e6f74206981526a6e697469616c697a696e6760a81b6020820152915062000458565b60208082528101620003548162000471565b602181526000602082017f5061757365723a204163636f756e7420697320616c72656164792070617573658152603960f91b6020820152915062000458565b602080825281016200035481620004cc565b620005288162000347565b82525050565b602081016200035482846200051d565b60006001600160a01b03821662000354565b600062000354826200053e565b6000620003548262000550565b62000528816200055d565b602081016200035482846200056a565b612fbe80620005956000396000f3fe608060405234801561001057600080fd5b50600436106101a95760003560e01c806380f51c12116100f9578063d9caed1211610097578063f2fde38b11610071578063f2fde38b146103db578063f8401fe6146103ee578063f8c8765e14610401578063fc0c546a1461041457600080fd5b8063d9caed121461037f578063da66bd6714610392578063e4f4d7f0146103c857600080fd5b80638da5cb5b116100d35780638da5cb5b14610312578063a50d817d1461032c578063c2cd9b2b1461033f578063c47ca6031461035f57600080fd5b806380f51c12146102d457806382dc1ec4146102f75780638456cb591461030a57600080fd5b8063474902a2116101665780636b2c0f55116101405780636b2c0f551461029e5780636ef8d66d146102b1578063715018a6146102b95780637dc186cd146102c157600080fd5b8063474902a21461023a5780634d30b6be1461025a5780635c975abb1461029357600080fd5b806307b18bde146101ae578063144fa6d7146101c357806314714226146101d65780633f4ba83a146101e957806345386600146101f157806346fbf68e1461021a575b600080fd5b6101c16101bc366004611927565b610427565b005b6101c16101d1366004611983565b6104de565b6101c16101e4366004611ab7565b610514565b6101c16107a4565b6102046101ff366004611b5b565b6107d3565b6040516102119190611d35565b60405180910390f35b61022d610228366004611d46565b610802565b6040516102119190611d6f565b61024d610248366004611d7d565b610820565b6040516102119190611e03565b61024d610268366004611927565b6001600160a01b0391909116600090815260cd60209081526040808320938352929052206001015490565b60655460ff1661022d565b6101c16102ac366004611d46565b6109df565b6101c1610a12565b6101c1610a1b565b6101c16102cf366004611e11565b610a4f565b61022d6102e2366004611d46565b60976020526000908152604090205460ff1681565b6101c1610305366004611d46565b610c09565b6101c1610c3c565b6033546001600160a01b03165b6040516102119190611e98565b61024d61033a366004611ea6565b610c69565b609a54610352906001600160a01b031681565b6040516102119190611f66565b61037261036d3660046121bb565b610dbd565b6040516102119190612253565b6101c161038d366004612264565b610de6565b61031f6103a0366004611927565b6001600160a01b03918216600090815260cd6020908152604080832093835292905220541690565b61024d6103d63660046122b4565b610e57565b6101c16103e9366004611d46565b610e91565b609854610352906001600160a01b031681565b6101c161040f3660046122fb565b610eea565b609954610352906001600160a01b031681565b6033546001600160a01b0316331461045a5760405162461bcd60e51b815260040161045190612388565b60405180910390fd5b6040516000906001600160a01b0384169083156108fc0290849084818181858888f193505050509050806104a05760405162461bcd60e51b8152600401610451906123dd565b7f2c876ecb97b3c6854f2488d373403f903eacb800e51c159a5c0c7a9c857e482783836040516104d19291906123ed565b60405180910390a1505050565b6033546001600160a01b031633146105085760405162461bcd60e51b815260040161045190612388565b61051181610f93565b50565b6001600160a01b038616600090815260ce602090815260408083206001600160401b03891684529091529020548690869060ff16156105655760405162461bcd60e51b81526004016104519061243c565b60655460ff16156105885760405162461bcd60e51b815260040161045190612473565b6002609b5414156105ab5760405162461bcd60e51b8152600401610451906124b7565b6002609b556040516000906105cc908a908a908a908a908a90602001612513565b60408051601f198184030181529082905280516020909101206098546311c5268f60e11b83529092506001600160a01b03169063238a4d1e90610617908c908590899060040161256c565b602060405180830381600087803b15801561063157600080fd5b505af1158015610645573d6000803e3d6000fd5b505050506040513d601f19601f8201168201806040525081019061066991906125ac565b6106855760405162461bcd60e51b815260040161045190612601565b6001600160a01b03898116600090815260cd602090815260408083208a8452909152902054166106e9576001600160a01b03898116600090815260cd602090815260408083208a8452909152902080546001600160a01b0319169189169190911790555b6001600160a01b038916600090815260cd6020908152604080832089845290915290206001015461071a9086610fe9565b6001600160a01b03808b16600090815260cd602090815260408083208b84529091529020600101919091556099546107559116333088610ffc565b7f21fb7d7ead2d8cc1ee15ffa7f67fd957c51ab1c3576a96207d3d2784b6dbe032898989898960405161078c959493929190612620565b60405180910390a150506001609b5550505050505050565b6107ad33610802565b6107c95760405162461bcd60e51b8152600401610451906126a0565b6107d161105a565b565b604080518082019091526000815260606020820152818060200190518101906107fc91906128bc565b92915050565b6001600160a01b031660009081526097602052604090205460ff1690565b6001600160a01b038616600090815260ce602090815260408083206001600160401b03891684529091528120548790879060ff16156108715760405162461bcd60e51b81526004016104519061243c565b6001600160a01b03808a16600090815260cd602090815260408083208b84529091529020548a9189911633146108b95760405162461bcd60e51b815260040161045190612939565b60655460ff16156108dc5760405162461bcd60e51b815260040161045190612473565b6002609b5414156108ff5760405162461bcd60e51b8152600401610451906124b7565b6002609b5560006109138c8c8c8b8b6110c0565b6001600160a01b038d16600090815260cd602090815260408083208e84529091529020600101549091506109479082611335565b609954909650610961906001600160a01b03168a88611341565b6001600160a01b038c16600090815260cd602090815260408083208d845290915280822060010191909155517f26b8aa9e5d4f71b867c84264e57eab543daba6bf03a6ac7c3be51697b5132f70906109c2908e908e908e908e908c90612949565b60405180910390a150506001609b55509198975050505050505050565b6033546001600160a01b03163314610a095760405162461bcd60e51b815260040161045190612388565b61051181611365565b6107d133611365565b6033546001600160a01b03163314610a455760405162461bcd60e51b815260040161045190612388565b6107d160006113da565b60655460ff1615610a725760405162461bcd60e51b815260040161045190612473565b6001600160a01b03808516600090815260cd6020908152604080832087845290915290205485918591163314610aba5760405162461bcd60e51b815260040161045190612939565b6000868587604051602001610ad19392919061297e565b60408051601f198184030181529082905280516020909101206098546311c5268f60e11b83529092506001600160a01b03169063238a4d1e90610b1c908a908590899060040161256c565b602060405180830381600087803b158015610b3657600080fd5b505af1158015610b4a573d6000803e3d6000fd5b505050506040513d601f19601f82011682018060405250810190610b6e91906125ac565b610b8a5760405162461bcd60e51b815260040161045190612601565b6001600160a01b03878116600090815260cd602090815260408083208a84529091529081902080546001600160a01b03191692881692909217909155517f4ddee4675a37f5c882a56b9be609ea55023c460cafb24ab74c1cb024abc84b3b90610bf8908990899089906129b5565b60405180910390a150505050505050565b6033546001600160a01b03163314610c335760405162461bcd60e51b815260040161045190612388565b6105118161142c565b610c4533610802565b610c615760405162461bcd60e51b8152600401610451906126a0565b6107d16114a5565b6001600160a01b038516600090815260ce602090815260408083206001600160401b03881684529091528120548690869060ff1615610cba5760405162461bcd60e51b81526004016104519061243c565b60655460ff1615610cdd5760405162461bcd60e51b815260040161045190612473565b6002609b541415610d005760405162461bcd60e51b8152600401610451906124b7565b6002609b55610d1288888888886110c0565b6001600160a01b038916600090815260cd602090815260408083208a8452909152902060010154909350610d469084611335565b6001600160a01b038916600090815260cd602090815260408083208a845290915290819020600101829055517f08405b7f1e4b92db46d17b712f587b31b6f4f6e2c5a02953704d0d202814970091610da5918b918b918b9189916129dd565b60405180910390a150506001609b5595945050505050565b606081604051602001610dd09190611d35565b6040516020818303038152906040529050919050565b6033546001600160a01b03163314610e105760405162461bcd60e51b815260040161045190612388565b610e246001600160a01b0384168383611341565b7f2717ead6b9200dd235aad468c9809ea400fe33ac69b5bfaa6d3e90fc922b63988383836040516104d193929190612a05565b600084848484604051602001610e709493929190612a4f565b6040516020818303038152906040528051906020012090505b949350505050565b6033546001600160a01b03163314610ebb5760405162461bcd60e51b815260040161045190612388565b6001600160a01b038116610ee15760405162461bcd60e51b815260040161045190612ace565b610511816113da565b600054610100900460ff16610f055760005460ff1615610f09565b303b155b610f255760405162461bcd60e51b815260040161045190612b29565b600054610100900460ff16158015610f47576000805461ffff19166101011790555b610f50856113da565b610f59846114fd565b610f6283611524565b610f6b82611554565b8015610f7d576000805461ff00191690555b5050505050565b6001600160a01b03163b151590565b609980546001600160a01b0319166001600160a01b0383161790556040517f5ba6b30cd4b2f9e9e67f4feb9b9df10d5da3b057598e6901b217b7d590345e3090610fde908390611f66565b60405180910390a150565b6000610ff58284612b4f565b9392505050565b611054846323b872dd60e01b85858560405160240161101d93929190612b67565b60408051601f198184030181529190526020810180516001600160e01b03166001600160e01b03199093169290921790915261157b565b50505050565b60655460ff1661107c5760405162461bcd60e51b815260040161045190612ba0565b6065805460ff191690557f5db9ee0a495bf2e6ff9c91a7834c1ba4fdd244a5e8aa4e537bd38aeae4b073aa335b6040516110b69190611e98565b60405180910390a1565b609854604051636b074a0760e01b81526000916001600160a01b031690636b074a07906110f1903390600401611e98565b60206040518083038186803b15801561110957600080fd5b505afa15801561111d573d6000803e3d6000fd5b505050506040513d601f19601f8201168201806040525081019061114191906125ac565b61115d5760405162461bcd60e51b815260040161045190612bee565b600061116b87878787610e57565b6098546040516311c5268f60e11b81529192506001600160a01b03169063238a4d1e906111a0908a908590889060040161256c565b602060405180830381600087803b1580156111ba57600080fd5b505af11580156111ce573d6000803e3d6000fd5b505050506040513d601f19601f820116820180604052508101906111f291906125ac565b61120e5760405162461bcd60e51b815260040161045190612c32565b6001600160a01b038716600090815260cd602090815260408083208884529091528120600101549061123f8661160a565b905080821161124e5781611250565b805b6098546040516389b08f1160e01b81529195506112ea916001600160a01b03909116906389b08f1190611287908d90600401611e98565b60206040518083038186803b15801561129f57600080fd5b505afa1580156112b3573d6000803e3d6000fd5b505050506040513d601f19601f820116820180604052508101906112d79190612c4d565b6099546001600160a01b03169086611341565b7f086575d4de5bb5f0addd08773b7097a00aaa37120293013f54da4433812adfa78989898988604051611321959493929190612c6e565b60405180910390a150505095945050505050565b6000610ff58284612cb7565b6113608363a9059cbb60e01b848460405160240161101d929190612cce565b505050565b61136e81610802565b61138a5760405162461bcd60e51b815260040161045190612d10565b6001600160a01b03811660009081526097602052604090819020805460ff19169055517fcd265ebaf09df2871cc7bd4133404a235ba12eff2041bb89d9c714a2621c7c7e90610fde908390611e98565b603380546001600160a01b038381166001600160a01b0319831681179093556040519116919082907f8be0079c531659141344cd1fd0a4f28419497f9722a3daafe3b4186f6b6457e090600090a35050565b61143581610802565b156114525760405162461bcd60e51b815260040161045190612d5e565b6001600160a01b03811660009081526097602052604090819020805460ff19166001179055517f6719d08c1888103bea251a4ed56406bd0c3e69723c8a1686e017e7bbe159b6f890610fde908390611e98565b60655460ff16156114c85760405162461bcd60e51b815260040161045190612473565b6065805460ff191660011790557f62e78cea01bee320cd4e420270b5ea74000d11b0c9f74754ebdbfc544b05a2586110a93390565b600054610100900460ff16610c335760405162461bcd60e51b815260040161045190612db6565b600054610100900460ff1661154b5760405162461bcd60e51b815260040161045190612db6565b61051181611785565b600054610100900460ff166105085760405162461bcd60e51b815260040161045190612db6565b60006115d0826040518060400160405280602081526020017f5361666545524332303a206c6f772d6c6576656c2063616c6c206661696c6564815250856001600160a01b03166117d09092919063ffffffff16565b80519091501561136057808060200190518101906115ee91906125ac565b6113605760405162461bcd60e51b815260040161045190612e0d565b6000808280602001905181019061162191906128bc565b905060005b81602001515181101561175e5760008260200151828151811061164b5761164b612e1d565b6020026020010151905060005b8160200151518110156117495760008260200151848151811061167d5761167d612e1d565b602090810291909101810151609a5481519282015186516040516354bf93b960e11b8152939550600094611726946001600160a01b039094169363a97f2772936116cb939091600401612e33565b60206040518083038186803b1580156116e357600080fd5b505afa1580156116f7573d6000803e3d6000fd5b505050506040513d601f19601f8201168201806040525081019061171b9190612e4e565b6020840151906117df565b90506117328782610fe9565b96505050808061174190612e6f565b915050611658565b5050808061175690612e6f565b915050611626565b508051821461177f5760405162461bcd60e51b815260040161045190612eb6565b50919050565b609880546001600160a01b0319166001600160a01b0383161790556040517fe63288198842f0dacdcbdc3f22dcd4e473d1f3cee7e10603ae6ddc3e667c528490610fde908390611f66565b6060610e8984846000856117eb565b6000610ff58284612ec6565b60608247101561180d5760405162461bcd60e51b815260040161045190612f28565b6001600160a01b0385163b6118345760405162461bcd60e51b815260040161045190612f6c565b600080866001600160a01b031685876040516118509190612f7c565b60006040518083038185875af1925050503d806000811461188d576040519150601f19603f3d011682016040523d82523d6000602084013e611892565b606091505b50915091506118a28282866118ad565b979650505050505050565b606083156118bc575081610ff5565b8251156118cc5782518084602001fd5b8160405162461bcd60e51b81526004016104519190612253565b60006001600160a01b0382166107fc565b611900816118e6565b811461051157600080fd5b80356107fc816118f7565b80611900565b80356107fc81611916565b6000806040838503121561193d5761193d600080fd5b6000611949858561190b565b925050602061195a8582860161191c565b9150509250929050565b60006107fc826118e6565b61190081611964565b80356107fc8161196f565b60006020828403121561199857611998600080fd5b6000610e898484611978565b6001600160401b038116611900565b80356107fc816119a4565b634e487b7160e01b600052604160045260246000fd5b601f19601f83011681018181106001600160401b03821117156119f9576119f96119be565b6040525050565b6000611a0b60405190565b9050611a1782826119d4565b919050565b60006001600160401b03821115611a3557611a356119be565b601f19601f83011660200192915050565b82818337506000910152565b6000611a65611a6084611a1c565b611a00565b905082815260208101848484011115611a8057611a80600080fd5b611a8b848285611a46565b509392505050565b600082601f830112611aa757611aa7600080fd5b8135610e89848260208601611a52565b60008060008060008060c08789031215611ad357611ad3600080fd5b6000611adf898961190b565b9650506020611af089828a016119b3565b9550506040611b0189828a0161190b565b9450506060611b1289828a0161191c565b9350506080611b2389828a0161191c565b92505060a08701356001600160401b03811115611b4257611b42600080fd5b611b4e89828a01611a93565b9150509295509295509295565b600060208284031215611b7057611b70600080fd5b81356001600160401b03811115611b8957611b89600080fd5b610e8984828501611a93565b805b82525050565b634e487b7160e01b600052602160045260246000fd5b6005811061051157610511611b9d565b80611a1781611bb3565b60006107fc82611bc3565b611b9781611bcd565b80516040830190611bf28482611bd8565b5060208201516110546020850182611b95565b6000611c118383611be1565b505060400190565b6000611c23825190565b80845260209384019383018060005b83811015611c57578151611c468882611c05565b975060208301925050600101611c32565b509495945050505050565b80516000906040840190611c768582611b95565b5060208301518482036020860152611c8e8282611c19565b95945050505050565b6000610ff58383611c62565b6000611cad825190565b80845260208401935083602082028501611cc78560200190565b8060005b85811015611cfc5784840389528151611ce48582611c97565b94506020830160209a909a0199925050600101611ccb565b5091979650505050505050565b80516000906040840190611d1d8582611b95565b5060208301518482036020860152611c8e8282611ca3565b60208082528101610ff58184611d09565b600060208284031215611d5b57611d5b600080fd5b6000610e89848461190b565b801515611b97565b602081016107fc8284611d67565b60008060008060008060c08789031215611d9957611d99600080fd5b6000611da5898961190b565b9650506020611db689828a016119b3565b9550506040611dc789828a0161191c565b9450506060611dd889828a0161190b565b93505060808701356001600160401b03811115611df757611df7600080fd5b611b2389828a01611a93565b602081016107fc8284611b95565b60008060008060808587031215611e2a57611e2a600080fd5b6000611e36878761190b565b9450506020611e478782880161191c565b9350506040611e588782880161190b565b92505060608501356001600160401b03811115611e7757611e77600080fd5b611e8387828801611a93565b91505092959194509250565b611b97816118e6565b602081016107fc8284611e8f565b600080600080600060a08688031215611ec157611ec1600080fd5b6000611ecd888861190b565b9550506020611ede888289016119b3565b9450506040611eef8882890161191c565b93505060608601356001600160401b03811115611f0e57611f0e600080fd5b611f1a88828901611a93565b92505060808601356001600160401b03811115611f3957611f39600080fd5b611f4588828901611a93565b9150509295509295909350565b60006107fc82611964565b611b9781611f52565b602081016107fc8284611f5d565b60006001600160401b03821115611f8d57611f8d6119be565b5060209081020190565b6005811061051157600080fd5b80356107fc81611f97565b600060408284031215611fc457611fc4600080fd5b611fce6040611a00565b90506000611fdc8484611fa4565b8252506020611fed8484830161191c565b60208301525092915050565b6000612007611a6084611f74565b8381529050602081016040840283018581111561202657612026600080fd5b835b8181101561204c578061203b8882611faf565b845250602090920191604001612028565b5050509392505050565b600082601f83011261206a5761206a600080fd5b8135610e89848260208601611ff9565b60006040828403121561208f5761208f600080fd5b6120996040611a00565b905060006120a7848461191c565b82525060208201356001600160401b038111156120c6576120c6600080fd5b611fed84828501612056565b60006120e0611a6084611f74565b838152905060208082019084028301858111156120ff576120ff600080fd5b835b8181101561204c5780356001600160401b0381111561212257612122600080fd5b80860161212f898261207a565b8552505060209283019201612101565b600082601f83011261215357612153600080fd5b8135610e898482602086016120d2565b60006040828403121561217857612178600080fd5b6121826040611a00565b90506000612190848461191c565b82525060208201356001600160401b038111156121af576121af600080fd5b611fed8482850161213f565b6000602082840312156121d0576121d0600080fd5b81356001600160401b038111156121e9576121e9600080fd5b610e8984828501612163565b60005b838110156122105781810151838201526020016121f8565b838111156110545750506000910152565b600061222b825190565b8084526020840193506122428185602086016121f5565b601f01601f19169290920192915050565b60208082528101610ff58184612221565b60008060006060848603121561227c5761227c600080fd5b60006122888686611978565b93505060206122998682870161190b565b92505060406122aa8682870161191c565b9150509250925092565b600080600080608085870312156122cd576122cd600080fd5b60006122d9878761190b565b94505060206122ea878288016119b3565b9350506040611e588782880161191c565b6000806000806080858703121561231457612314600080fd5b6000612320878761190b565b94505060206123318782880161190b565b935050604061234287828801611978565b9250506060611e8387828801611978565b60208082527f4f776e61626c653a2063616c6c6572206973206e6f7420746865206f776e6572910190815260005b5060200190565b602080825281016107fc81612353565b602581526000602082017f5061796d656e743a207769746864726177206e617469766520746f6b656e2066815264185a5b195960da1b602082015291505b5060400190565b602080825281016107fc81612398565b604081016123fb8285611f5d565b610ff56020830184611b95565b601981526000602082017f46756e6457616c6c65743a20696e76616c6964206e6f6e63650000000000000081529150612381565b602080825281016107fc81612408565b601081526000602082016f14185d5cd8589b194e881c185d5cd95960821b81529150612381565b602080825281016107fc8161244c565b601f81526000602082017f5265656e7472616e637947756172643a207265656e7472616e742063616c6c0081529150612381565b602080825281016107fc81612483565b60006107fc8260601b90565b60006107fc826124c7565b611b976124ea826118e6565b6124d3565b60006107fc8260c01b90565b611b976001600160401b0382166124ef565b80611b97565b600061251f82886124de565b60148201915061252f82876124fb565b60088201915061253f82866124de565b60148201915061254f828561250d565b60208201915061255f828461250d565b5060200195945050505050565b6060810161257a8286611e8f565b6125876020830185611b95565b8181036040830152611c8e8184612221565b801515611900565b80516107fc81612599565b6000602082840312156125c1576125c1600080fd5b6000610e8984846125a1565b601d81526000602082017f46756e6457616c6c65743a20696e76616c6964207369676e617475726500000081529150612381565b602080825281016107fc816125cd565b6001600160401b038116611b97565b60a0810161262e8288611e8f565b61263b6020830187612611565b6126486040830186611e8f565b6126556060830185611b95565b6126626080830184611b95565b9695505050505050565b601c81526000602082017f5061757365723a2043616c6c6572206973206e6f74207061757365720000000081529150612381565b602080825281016107fc8161266c565b80516107fc81611916565b80516107fc81611f97565b6000604082840312156126db576126db600080fd5b6126e56040611a00565b905060006126f384846126bb565b8252506020611fed848483016126b0565b6000612712611a6084611f74565b8381529050602081016040840283018581111561273157612731600080fd5b835b8181101561204c578061274688826126c6565b845250602090920191604001612733565b600082601f83011261276b5761276b600080fd5b8151610e89848260208601612704565b60006040828403121561279057612790600080fd5b61279a6040611a00565b905060006127a884846126b0565b82525060208201516001600160401b038111156127c7576127c7600080fd5b611fed84828501612757565b60006127e1611a6084611f74565b8381529050602080820190840283018581111561280057612800600080fd5b835b8181101561204c5780516001600160401b0381111561282357612823600080fd5b808601612830898261277b565b8552505060209283019201612802565b600082601f83011261285457612854600080fd5b8151610e898482602086016127d3565b60006040828403121561287957612879600080fd5b6128836040611a00565b9050600061289184846126b0565b82525060208201516001600160401b038111156128b0576128b0600080fd5b611fed84828501612840565b6000602082840312156128d1576128d1600080fd5b81516001600160401b038111156128ea576128ea600080fd5b610e8984828501612864565b602681526000602082017f46756e6457616c6c65743a2063616c6c6572206973206e6f742077616c6c65748152651037bbb732b960d11b602082015291506123d6565b602080825281016107fc816128f6565b60a081016129578288611e8f565b6129646020830187612611565b6129716040830186611b95565b6126556060830185611e8f565b600061298a82866124de565b60148201915061299a82856124de565b6014820191506129aa828461250d565b506020019392505050565b606081016129c38286611e8f565b6129d06020830185611b95565b610e896040830184611e8f565b60a081016129eb8288611e8f565b6129f86020830187612611565b6126486040830186611b95565b60608101612a138286611f5d565b612a206020830185611e8f565b610e896040830184611b95565b6000612a37825190565b612a458185602086016121f5565b9290920192915050565b6000612a5b82876124de565b601482019150612a6b82866124fb565b600882019150612a7b828561250d565b6020820191506126628284612a2d565b602681526000602082017f4f776e61626c653a206e6577206f776e657220697320746865207a65726f206181526564647265737360d01b602082015291506123d6565b602080825281016107fc81612a8b565b602e81526000602082017f496e697469616c697a61626c653a20636f6e747261637420697320616c72656181526d191e481a5b9a5d1a585b1a5e995960921b602082015291506123d6565b602080825281016107fc81612ade565b634e487b7160e01b600052601160045260246000fd5b60008219821115612b6257612b62612b39565b500190565b60608101612a138286611e8f565b601481526000602082017314185d5cd8589b194e881b9bdd081c185d5cd95960621b81529150612381565b602080825281016107fc81612b75565b602181526000602082017f42696c6c696e673a2063616c6c6572206973206e6f7420612070726f766964658152603960f91b602082015291506123d6565b602080825281016107fc81612bb0565b601a81526000602082017f42696c6c696e673a20696e76616c6964207369676e617475726500000000000081529150612381565b602080825281016107fc81612bfe565b80516107fc816118f7565b600060208284031215612c6257612c62600080fd5b6000610e898484612c42565b60a08101612c7c8288611e8f565b612c896020830187612611565b612c966040830186611b95565b8181036060830152612ca88185612221565b90506126626080830184611b95565b600082821015612cc957612cc9612b39565b500390565b604081016123fb8285611e8f565b601d81526000602082017f5061757365723a204163636f756e74206973206e6f742070617573657200000081529150612381565b602080825281016107fc81612cdc565b602181526000602082017f5061757365723a204163636f756e7420697320616c72656164792070617573658152603960f91b602082015291506123d6565b602080825281016107fc81612d20565b602b81526000602082017f496e697469616c697a61626c653a20636f6e7472616374206973206e6f74206981526a6e697469616c697a696e6760a81b602082015291506123d6565b602080825281016107fc81612d6e565b602a81526000602082017f5361666545524332303a204552433230206f7065726174696f6e20646964206e8152691bdd081cdd58d8d9595960b21b602082015291506123d6565b602080825281016107fc81612dc6565b634e487b7160e01b600052603260045260246000fd5b60608101612e418286611bd8565b612a206020830185611b95565b600060208284031215612e6357612e63600080fd5b6000610e8984846126b0565b6000600019821415612e8357612e83612b39565b5060010190565b6015815260006020820174109a5b1b1a5b99ce881a5b9d985b1a5908189a5b1b605a1b81529150612381565b602080825281016107fc81612e8a565b6000816000190483118215151615612ee057612ee0612b39565b500290565b602681526000602082017f416464726573733a20696e73756666696369656e742062616c616e636520666f8152651c8818d85b1b60d21b602082015291506123d6565b602080825281016107fc81612ee5565b601d81526000602082017f416464726573733a2063616c6c20746f206e6f6e2d636f6e747261637400000081529150612381565b602080825281016107fc81612f38565b6000610ff58284612a2d56fea2646970667358221220f950c1ba47ea5a91ae0e76217210762153c0fc43f60f29205626a96b0673734664736f6c63430008090033",
  "devdoc": {
    "kind": "dev",
    "methods": {
      "owner()": {
        "details": "Returns the address of the current owner."
      },
      "paused()": {
        "details": "Returns true if the contract is paused, and false otherwise."
      },
      "renounceOwnership()": {
        "details": "Leaves the contract without owner. It will not be possible to call `onlyOwner` functions anymore. Can only be called by the current owner. NOTE: Renouncing ownership will leave the contract without an owner, thereby removing any functionality that is only available to the owner."
      },
      "transferOwnership(address)": {
        "details": "Transfers ownership of the contract to a new account (`newOwner`). Can only be called by the current owner."
      }
    },
    "version": 1
  },
  "userdoc": {
    "kind": "user",
    "methods": {},
    "version": 1
  },
  "storageLayout": {
    "storage": [
      {
        "astId": 147,
        "contract": "contracts/wallets/FundWallet.sol:FundWallet",
        "label": "_initialized",
        "offset": 0,
        "slot": "0",
        "type": "t_bool"
      },
      {
        "astId": 150,
        "contract": "contracts/wallets/FundWallet.sol:FundWallet",
        "label": "_initializing",
        "offset": 1,
        "slot": "0",
        "type": "t_bool"
      },
      {
        "astId": 970,
        "contract": "contracts/wallets/FundWallet.sol:FundWallet",
        "label": "__gap",
        "offset": 0,
        "slot": "1",
        "type": "t_array(t_uint256)50_storage"
      },
      {
        "astId": 10,
        "contract": "contracts/wallets/FundWallet.sol:FundWallet",
        "label": "_owner",
        "offset": 0,
        "slot": "51",
        "type": "t_address"
      },
      {
        "astId": 122,
        "contract": "contracts/wallets/FundWallet.sol:FundWallet",
        "label": "__gap",
        "offset": 0,
        "slot": "52",
        "type": "t_array(t_uint256)49_storage"
      },
      {
        "astId": 235,
        "contract": "contracts/wallets/FundWallet.sol:FundWallet",
        "label": "_paused",
        "offset": 0,
        "slot": "101",
        "type": "t_bool"
      },
      {
        "astId": 324,
        "contract": "contracts/wallets/FundWallet.sol:FundWallet",
        "label": "__gap",
        "offset": 0,
        "slot": "102",
        "type": "t_array(t_uint256)49_storage"
      },
      {
        "astId": 3592,
        "contract": "contracts/wallets/FundWallet.sol:FundWallet",
        "label": "pausers",
        "offset": 0,
        "slot": "151",
        "type": "t_mapping(t_address,t_bool)"
      },
      {
        "astId": 6520,
        "contract": "contracts/wallets/FundWallet.sol:FundWallet",
        "label": "providers",
        "offset": 0,
        "slot": "152",
        "type": "t_contract(IProviders)4071"
      },
      {
        "astId": 8135,
        "contract": "contracts/wallets/FundWallet.sol:FundWallet",
        "label": "token",
        "offset": 0,
        "slot": "153",
        "type": "t_contract(IERC20Upgradeable)462"
      },
      {
        "astId": 8139,
        "contract": "contracts/wallets/FundWallet.sol:FundWallet",
        "label": "adaptor",
        "offset": 0,
        "slot": "154",
        "type": "t_contract(IResourceAdaptor)8113"
      },
      {
        "astId": 339,
        "contract": "contracts/wallets/FundWallet.sol:FundWallet",
        "label": "_status",
        "offset": 0,
        "slot": "155",
        "type": "t_uint256"
      },
      {
        "astId": 383,
        "contract": "contracts/wallets/FundWallet.sol:FundWallet",
        "label": "__gap",
        "offset": 0,
        "slot": "156",
        "type": "t_array(t_uint256)49_storage"
      },
      {
        "astId": 8453,
        "contract": "contracts/wallets/FundWallet.sol:FundWallet",
        "label": "wallets",
        "offset": 0,
        "slot": "205",
        "type": "t_mapping(t_address,t_mapping(t_bytes32,t_struct(Wallet)3870_storage))"
      },
      {
        "astId": 8459,
        "contract": "contracts/wallets/FundWallet.sol:FundWallet",
        "label": "nonces",
        "offset": 0,
        "slot": "206",
        "type": "t_mapping(t_address,t_mapping(t_uint64,t_bool))"
      }
    ],
    "types": {
      "t_address": {
        "encoding": "inplace",
        "label": "address",
        "numberOfBytes": "20"
      },
      "t_array(t_uint256)49_storage": {
        "base": "t_uint256",
        "encoding": "inplace",
        "label": "uint256[49]",
        "numberOfBytes": "1568"
      },
      "t_array(t_uint256)50_storage": {
        "base": "t_uint256",
        "encoding": "inplace",
        "label": "uint256[50]",
        "numberOfBytes": "1600"
      },
      "t_bool": {
        "encoding": "inplace",
        "label": "bool",
        "numberOfBytes": "1"
      },
      "t_bytes32": {
        "encoding": "inplace",
        "label": "bytes32",
        "numberOfBytes": "32"
      },
      "t_contract(IERC20Upgradeable)462": {
        "encoding": "inplace",
        "label": "contract IERC20Upgradeable",
        "numberOfBytes": "20"
      },
      "t_contract(IProviders)4071": {
        "encoding": "inplace",
        "label": "contract IProviders",
        "numberOfBytes": "20"
      },
      "t_contract(IResourceAdaptor)8113": {
        "encoding": "inplace",
        "label": "contract IResourceAdaptor",
        "numberOfBytes": "20"
      },
      "t_mapping(t_address,t_bool)": {
        "encoding": "mapping",
        "key": "t_address",
        "label": "mapping(address => bool)",
        "numberOfBytes": "32",
        "value": "t_bool"
      },
      "t_mapping(t_address,t_mapping(t_bytes32,t_struct(Wallet)3870_storage))": {
        "encoding": "mapping",
        "key": "t_address",
        "label": "mapping(address => mapping(bytes32 => struct IFundWallet.Wallet))",
        "numberOfBytes": "32",
        "value": "t_mapping(t_bytes32,t_struct(Wallet)3870_storage)"
      },
      "t_mapping(t_address,t_mapping(t_uint64,t_bool))": {
        "encoding": "mapping",
        "key": "t_address",
        "label": "mapping(address => mapping(uint64 => bool))",
        "numberOfBytes": "32",
        "value": "t_mapping(t_uint64,t_bool)"
      },
      "t_mapping(t_bytes32,t_struct(Wallet)3870_storage)": {
        "encoding": "mapping",
        "key": "t_bytes32",
        "label": "mapping(bytes32 => struct IFundWallet.Wallet)",
        "numberOfBytes": "32",
        "value": "t_struct(Wallet)3870_storage"
      },
      "t_mapping(t_uint64,t_bool)": {
        "encoding": "mapping",
        "key": "t_uint64",
        "label": "mapping(uint64 => bool)",
        "numberOfBytes": "32",
        "value": "t_bool"
      },
      "t_struct(Wallet)3870_storage": {
        "encoding": "inplace",
        "label": "struct IFundWallet.Wallet",
        "members": [
          {
            "astId": 3867,
            "contract": "contracts/wallets/FundWallet.sol:FundWallet",
            "label": "owner",
            "offset": 0,
            "slot": "0",
            "type": "t_address"
          },
          {
            "astId": 3869,
            "contract": "contracts/wallets/FundWallet.sol:FundWallet",
            "label": "amount",
            "offset": 0,
            "slot": "1",
            "type": "t_uint256"
          }
        ],
        "numberOfBytes": "64"
      },
      "t_uint256": {
        "encoding": "inplace",
        "label": "uint256",
        "numberOfBytes": "32"
      },
      "t_uint64": {
        "encoding": "inplace",
        "label": "uint64",
        "numberOfBytes": "8"
      }
    }
  }
}