{
  "address": "0xC5ED610C1f23761e1CBcfeA43a5CF7a19F417F3d",
  "abi": [
    {
      "inputs": [
        {
          "internalType": "address",
          "name": "_messageBus",
          "type": "address"
        }
      ],
      "stateMutability": "nonpayable",
      "type": "constructor"
    },
    {
      "anonymous": false,
      "inputs": [
        {
          "indexed": false,
          "internalType": "address",
          "name": "messageBus",
          "type": "address"
        }
      ],
      "name": "MessageBusUpdated",
      "type": "event"
    },
    {
      "anonymous": false,
      "inputs": [
        {
          "indexed": true,
          "internalType": "address",
          "name": "previousOwner",
          "type": "address"
        },
        {
          "indexed": true,
          "internalType": "address",
          "name": "newOwner",
          "type": "address"
        }
      ],
      "name": "OwnershipTransferred",
      "type": "event"
    },
    {
      "inputs": [],
      "name": "chainId",
      "outputs": [
        {
          "internalType": "uint256",
          "name": "",
          "type": "uint256"
        }
      ],
      "stateMutability": "view",
      "type": "function"
    },
    {
      "inputs": [],
      "name": "messageBus",
      "outputs": [
        {
          "internalType": "address",
          "name": "",
          "type": "address"
        }
      ],
      "stateMutability": "view",
      "type": "function"
    },
    {
      "inputs": [],
      "name": "owner",
      "outputs": [
        {
          "internalType": "address",
          "name": "",
          "type": "address"
        }
      ],
      "stateMutability": "view",
      "type": "function"
    },
    {
      "inputs": [
        {
          "internalType": "address",
          "name": "_receiver",
          "type": "address"
        },
        {
          "internalType": "uint64",
          "name": "_dstChainId",
          "type": "uint64"
        },
        {
          "internalType": "bytes",
          "name": "_message",
          "type": "bytes"
        }
      ],
      "name": "sendMessage",
      "outputs": [],
      "stateMutability": "payable",
      "type": "function"
    },
    {
      "inputs": [
        {
          "internalType": "address",
          "name": "_messageBus",
          "type": "address"
        }
      ],
      "name": "setMessageBus",
      "outputs": [],
      "stateMutability": "nonpayable",
      "type": "function"
    },
    {
      "inputs": [
        {
          "internalType": "address",
          "name": "newOwner",
          "type": "address"
        }
      ],
      "name": "transferOwnership",
      "outputs": [],
      "stateMutability": "nonpayable",
      "type": "function"
    }
  ],
  "transactionHash": "0x2fb21b09097780db056c906c8798ffb962ab07579a898b27809866c2205f759e",
  "args": [
    "0xAd204986D6cB67A5Bc76a3CB8974823F43Cb9AAA"
  ],
  "bytecode": "0x608060405234801561001057600080fd5b5060405161068638038061068683398101604081905261002f916100ad565b6100383361005d565b600180546001600160a01b0319166001600160a01b03929092169190911790556100dd565b600080546001600160a01b038381166001600160a01b0319831681178455604051919092169283917f8be0079c531659141344cd1fd0a4f28419497f9722a3daafe3b4186f6b6457e09190a35050565b6000602082840312156100bf57600080fd5b81516001600160a01b03811681146100d657600080fd5b9392505050565b61059a806100ec6000396000f3fe6080604052600436106100555760003560e01c8063547cad121461005a5780638da5cb5b1461007c5780639a8a0592146100b3578063a1a227fa146100d7578063c81739cd146100f7578063f2fde38b1461010a575b600080fd5b34801561006657600080fd5b5061007a6100753660046103ff565b61012a565b005b34801561008857600080fd5b506000546001600160a01b03165b6040516001600160a01b0390911681526020015b60405180910390f35b3480156100bf57600080fd5b506100c960025481565b6040519081526020016100aa565b3480156100e357600080fd5b50600154610096906001600160a01b031681565b61007a610105366004610421565b6101ec565b34801561011657600080fd5b5061007a6101253660046103ff565b61022c565b3361013d6000546001600160a01b031690565b6001600160a01b0316146101985760405162461bcd60e51b815260206004820181905260248201527f4f776e61626c653a2063616c6c6572206973206e6f7420746865206f776e657260448201526064015b60405180910390fd5b600180546001600160a01b0319166001600160a01b0383169081179091556040519081527f3f8223bcd8b3b875473e9f9e14e1ad075451a2b5ffd31591655da9a01516bf5e9060200160405180910390a150565b46600281905560405160009161020891859085906020016104b8565b604051602081830303815290604052905061022585858334610306565b5050505050565b3361023f6000546001600160a01b031690565b6001600160a01b0316146102955760405162461bcd60e51b815260206004820181905260248201527f4f776e61626c653a2063616c6c6572206973206e6f7420746865206f776e6572604482015260640161018f565b6001600160a01b0381166102fa5760405162461bcd60e51b815260206004820152602660248201527f4f776e61626c653a206e6577206f776e657220697320746865207a65726f206160448201526564647265737360d01b606482015260840161018f565b61030381610328565b50565b600154610322908590859085906001600160a01b031685610378565b50505050565b600080546001600160a01b038381166001600160a01b0319831681178455604051919092169283917f8be0079c531659141344cd1fd0a4f28419497f9722a3daafe3b4186f6b6457e09190a35050565b604051634f9e72ad60e11b81526001600160a01b03831690639f3ce55a9083906103aa908990899089906004016104ee565b6000604051808303818588803b1580156103c357600080fd5b505af11580156103d7573d6000803e3d6000fd5b50505050505050505050565b80356001600160a01b03811681146103fa57600080fd5b919050565b60006020828403121561041157600080fd5b61041a826103e3565b9392505050565b6000806000806060858703121561043757600080fd5b610440856103e3565b9350602085013567ffffffffffffffff808216821461045e57600080fd5b9093506040860135908082111561047457600080fd5b818701915087601f83011261048857600080fd5b81358181111561049757600080fd5b8860208285010111156104a957600080fd5b95989497505060200194505050565b83815260406020820152816040820152818360608301376000818301606090810191909152601f909201601f1916010192915050565b60018060a01b03841681526000602067ffffffffffffffff85168184015260606040840152835180606085015260005b8181101561053a5785810183015185820160800152820161051e565b8181111561054c576000608083870101525b50601f01601f1916929092016080019594505050505056fea2646970667358221220ea88e71ff8f85c9d50e9da9bdde992c1972b5c57bbd4a88d9b8d0f4957395f1f64736f6c63430008090033"
}