{
  "address": "0xfEDFe70a3F03094DA60B93e53cf06Ecc82BD5eAE",
  "abi": [
    {
      "inputs": [
        {
          "internalType": "address",
          "name": "owner",
          "type": "address"
        },
        {
          "internalType": "address",
          "name": "_messageBus",
          "type": "address"
        },
        {
          "internalType": "address",
          "name": "_executor",
          "type": "address"
        }
      ],
      "stateMutability": "nonpayable",
      "type": "constructor"
    },
    {
      "anonymous": false,
      "inputs": [
        {
          "indexed": false,
          "internalType": "contract IDstChainPayment",
          "name": "_dstChainPayment",
          "type": "address"
        }
      ],
      "name": "DstChainPaymentUpdated",
      "type": "event"
    },
    {
      "anonymous": false,
      "inputs": [
        {
          "indexed": false,
          "internalType": "address",
          "name": "executor",
          "type": "address"
        }
      ],
      "name": "ExecutorUpdated",
      "type": "event"
    },
    {
      "anonymous": false,
      "inputs": [
        {
          "indexed": false,
          "internalType": "address",
          "name": "messageBus",
          "type": "address"
        }
      ],
      "name": "MessageBusUpdated",
      "type": "event"
    },
    {
      "anonymous": false,
      "inputs": [
        {
          "indexed": false,
          "internalType": "address",
          "name": "sender",
          "type": "address"
        },
        {
          "indexed": false,
          "internalType": "contract IERC20Upgradeable",
          "name": "token",
          "type": "address"
        },
        {
          "indexed": false,
          "internalType": "uint256",
          "name": "amount",
          "type": "uint256"
        },
        {
          "indexed": false,
          "internalType": "uint64",
          "name": "srcChainId",
          "type": "uint64"
        },
        {
          "indexed": false,
          "internalType": "bytes",
          "name": "message",
          "type": "bytes"
        },
        {
          "indexed": false,
          "internalType": "address",
          "name": "executor",
          "type": "address"
        }
      ],
      "name": "MessageWithTransferExecuted",
      "type": "event"
    },
    {
      "anonymous": false,
      "inputs": [
        {
          "indexed": false,
          "internalType": "address",
          "name": "sender",
          "type": "address"
        },
        {
          "indexed": false,
          "internalType": "contract IERC20Upgradeable",
          "name": "token",
          "type": "address"
        },
        {
          "indexed": false,
          "internalType": "uint256",
          "name": "amount",
          "type": "uint256"
        },
        {
          "indexed": false,
          "internalType": "uint64",
          "name": "srcChainId",
          "type": "uint64"
        },
        {
          "indexed": false,
          "internalType": "bytes",
          "name": "message",
          "type": "bytes"
        },
        {
          "indexed": false,
          "internalType": "address",
          "name": "executor",
          "type": "address"
        },
        {
          "indexed": false,
          "internalType": "bytes",
          "name": "error",
          "type": "bytes"
        }
      ],
      "name": "MessageWithTransferFailed",
      "type": "event"
    },
    {
      "anonymous": false,
      "inputs": [
        {
          "indexed": false,
          "internalType": "address",
          "name": "_sender",
          "type": "address"
        },
        {
          "indexed": false,
          "internalType": "address",
          "name": "_token",
          "type": "address"
        },
        {
          "indexed": false,
          "internalType": "uint256",
          "name": "_amount",
          "type": "uint256"
        },
        {
          "indexed": false,
          "internalType": "uint64",
          "name": "_srcChainId",
          "type": "uint64"
        },
        {
          "indexed": false,
          "internalType": "bytes",
          "name": "_message",
          "type": "bytes"
        },
        {
          "indexed": false,
          "internalType": "address",
          "name": "executor",
          "type": "address"
        }
      ],
      "name": "MessageWithTransferFallback",
      "type": "event"
    },
    {
      "anonymous": false,
      "inputs": [
        {
          "indexed": false,
          "internalType": "address",
          "name": "to",
          "type": "address"
        },
        {
          "indexed": false,
          "internalType": "uint256",
          "name": "value",
          "type": "uint256"
        }
      ],
      "name": "NativeWithdrawal",
      "type": "event"
    },
    {
      "anonymous": false,
      "inputs": [
        {
          "indexed": true,
          "internalType": "address",
          "name": "previousOwner",
          "type": "address"
        },
        {
          "indexed": true,
          "internalType": "address",
          "name": "newOwner",
          "type": "address"
        }
      ],
      "name": "OwnershipTransferred",
      "type": "event"
    },
    {
      "anonymous": false,
      "inputs": [
        {
          "indexed": false,
          "internalType": "contract IERC20Upgradeable",
          "name": "token",
          "type": "address"
        },
        {
          "indexed": false,
          "internalType": "address",
          "name": "to",
          "type": "address"
        },
        {
          "indexed": false,
          "internalType": "uint256",
          "name": "value",
          "type": "uint256"
        }
      ],
      "name": "Withdrawal",
      "type": "event"
    },
    {
      "inputs": [],
      "name": "dstChainPayment",
      "outputs": [
        {
          "internalType": "contract IDstChainPayment",
          "name": "",
          "type": "address"
        }
      ],
      "stateMutability": "view",
      "type": "function"
    },
    {
      "inputs": [
        {
          "internalType": "address",
          "name": "sender",
          "type": "address"
        },
        {
          "internalType": "contract IERC20Upgradeable",
          "name": "token",
          "type": "address"
        },
        {
          "internalType": "uint256",
          "name": "amount",
          "type": "uint256"
        },
        {
          "internalType": "uint64",
          "name": "srcChainId",
          "type": "uint64"
        },
        {
          "internalType": "bytes",
          "name": "message",
          "type": "bytes"
        },
        {
          "internalType": "address",
          "name": "_executor",
          "type": "address"
        }
      ],
      "name": "executeMessageWithTransfer",
      "outputs": [
        {
          "internalType": "enum MessageReceiver.ExecutionStatus",
          "name": "",
          "type": "uint8"
        }
      ],
      "stateMutability": "payable",
      "type": "function"
    },
    {
      "inputs": [
        {
          "internalType": "address",
          "name": "_sender",
          "type": "address"
        },
        {
          "internalType": "address",
          "name": "_token",
          "type": "address"
        },
        {
          "internalType": "uint256",
          "name": "_amount",
          "type": "uint256"
        },
        {
          "internalType": "uint64",
          "name": "_srcChainId",
          "type": "uint64"
        },
        {
          "internalType": "bytes",
          "name": "_message",
          "type": "bytes"
        },
        {
          "internalType": "address",
          "name": "executor",
          "type": "address"
        }
      ],
      "name": "executeMessageWithTransferFallback",
      "outputs": [
        {
          "internalType": "enum MessageReceiver.ExecutionStatus",
          "name": "",
          "type": "uint8"
        }
      ],
      "stateMutability": "payable",
      "type": "function"
    },
    {
      "inputs": [],
      "name": "executor",
      "outputs": [
        {
          "internalType": "address",
          "name": "",
          "type": "address"
        }
      ],
      "stateMutability": "view",
      "type": "function"
    },
    {
      "inputs": [
        {
          "internalType": "address",
          "name": "owner",
          "type": "address"
        },
        {
          "internalType": "address",
          "name": "_messageBus",
          "type": "address"
        },
        {
          "internalType": "address",
          "name": "_executor",
          "type": "address"
        }
      ],
      "name": "initialize",
      "outputs": [],
      "stateMutability": "nonpayable",
      "type": "function"
    },
    {
      "inputs": [],
      "name": "messageBus",
      "outputs": [
        {
          "internalType": "address",
          "name": "",
          "type": "address"
        }
      ],
      "stateMutability": "view",
      "type": "function"
    },
    {
      "inputs": [
        {
          "components": [
            {
              "internalType": "address",
              "name": "sender",
              "type": "address"
            },
            {
              "internalType": "address",
              "name": "receiver",
              "type": "address"
            },
            {
              "internalType": "uint64",
              "name": "srcChainId",
              "type": "uint64"
            },
            {
              "internalType": "bytes32",
              "name": "srcTxHash",
              "type": "bytes32"
            }
          ],
          "internalType": "struct MsgDataTypes.RouteInfo",
          "name": "route",
          "type": "tuple"
        },
        {
          "internalType": "uint64",
          "name": "dstChainId",
          "type": "uint64"
        },
        {
          "internalType": "bytes",
          "name": "message",
          "type": "bytes"
        }
      ],
      "name": "messageId",
      "outputs": [
        {
          "internalType": "bytes32",
          "name": "",
          "type": "bytes32"
        }
      ],
      "stateMutability": "view",
      "type": "function"
    },
    {
      "inputs": [],
      "name": "owner",
      "outputs": [
        {
          "internalType": "address",
          "name": "",
          "type": "address"
        }
      ],
      "stateMutability": "view",
      "type": "function"
    },
    {
      "inputs": [],
      "name": "renounceOwnership",
      "outputs": [],
      "stateMutability": "nonpayable",
      "type": "function"
    },
    {
      "inputs": [
        {
          "internalType": "contract IDstChainPayment",
          "name": "_dstChainPayment",
          "type": "address"
        }
      ],
      "name": "setDstChainPayment",
      "outputs": [],
      "stateMutability": "nonpayable",
      "type": "function"
    },
    {
      "inputs": [
        {
          "internalType": "address",
          "name": "_executor",
          "type": "address"
        }
      ],
      "name": "setExecutor",
      "outputs": [],
      "stateMutability": "nonpayable",
      "type": "function"
    },
    {
      "inputs": [
        {
          "internalType": "address",
          "name": "messageBus",
          "type": "address"
        }
      ],
      "name": "setMessageBus",
      "outputs": [],
      "stateMutability": "nonpayable",
      "type": "function"
    },
    {
      "inputs": [
        {
          "internalType": "address",
          "name": "newOwner",
          "type": "address"
        }
      ],
      "name": "transferOwnership",
      "outputs": [],
      "stateMutability": "nonpayable",
      "type": "function"
    },
    {
      "inputs": [
        {
          "internalType": "contract IERC20Upgradeable",
          "name": "token",
          "type": "address"
        },
        {
          "internalType": "address",
          "name": "to",
          "type": "address"
        },
        {
          "internalType": "uint256",
          "name": "value",
          "type": "uint256"
        }
      ],
      "name": "withdraw",
      "outputs": [],
      "stateMutability": "nonpayable",
      "type": "function"
    },
    {
      "inputs": [
        {
          "internalType": "address payable",
          "name": "to",
          "type": "address"
        },
        {
          "internalType": "uint256",
          "name": "value",
          "type": "uint256"
        }
      ],
      "name": "withdrawNative",
      "outputs": [],
      "stateMutability": "nonpayable",
      "type": "function"
    }
  ],
  "transactionHash": "0x5708f9dfc845631fe31634f4ee20e083fa5e24829398d20b405ffabbaf2531d8",
  "args": [
    "0xF1658C608708172655A8e70a1624c29F956Ee63D",
    "0xAd204986D6cB67A5Bc76a3CB8974823F43Cb9AAA",
    "0xF1658C608708172655A8e70a1624c29F956Ee63D"
  ],
  "solcInputHash": "55cb943cd24eeac199a015c55188fb4b",
  "bytecode": "0x60806040523480156200001157600080fd5b5060405162001c0038038062001c00833981016040819052620000349162000243565b600054610100900460ff16620000515760005460ff16156200005b565b6200005b620000e4565b620000835760405162461bcd60e51b81526004016200007a906200029b565b60405180910390fd5b600054610100900460ff16158015620000a6576000805461ffff19166101011790555b620000b18462000102565b620000bc8362000154565b620000c782620001ad565b8015620000da576000805461ff00191690555b505050506200030f565b6000620000fc30620001fa60201b6200088a1760201c565b15905090565b603380546001600160a01b038381166001600160a01b0319831681179093556040519116919082907f8be0079c531659141344cd1fd0a4f28419497f9722a3daafe3b4186f6b6457e090600090a35050565b606680546001600160a01b0319166001600160a01b0383169081179091556040517f3f8223bcd8b3b875473e9f9e14e1ad075451a2b5ffd31591655da9a01516bf5e91620001a291620002ff565b60405180910390a150565b606780546001600160a01b0319166001600160a01b0383161790556040517fd9436ef9ce00ffeabc5da2489701502d3bd1a5ed7b254a1981fc5ffef9828e1190620001a2908390620002ff565b6001600160a01b03163b151590565b60006001600160a01b0382165b92915050565b620002278162000209565b81146200023357600080fd5b50565b805162000216816200021c565b6000806000606084860312156200025d576200025d600080fd5b60006200026b868662000236565b93505060206200027e8682870162000236565b9250506040620002918682870162000236565b9150509250925092565b602080825281016200021681602e81527f496e697469616c697a61626c653a20636f6e747261637420697320616c72656160208201526d191e481a5b9a5d1a585b1a5e995960921b604082015260600190565b620002f98162000209565b82525050565b60208101620002168284620002ee565b6118e1806200031f6000396000f3fe6080604052600436106100e85760003560e01c80638da5cb5b1161008a578063c34c08e511610059578063c34c08e514610254578063d9caed1214610274578063f2fde38b14610294578063f60cfa59146102b457600080fd5b80638da5cb5b146101c0578063a1a227fa146101e7578063bb0248aa14610207578063c0c53b8b1461023457600080fd5b8063547cad12116100c6578063547cad121461014f5780635ab7afc61461016f578063715018a6146101985780637cd2bffc146101ad57600080fd5b806307b18bde146100ed5780631c3c0ea81461010f578063429aafd91461012f575b600080fd5b3480156100f957600080fd5b5061010d610108366004610cdc565b6102e1565b005b34801561011b57600080fd5b5061010d61012a366004610d19565b610398565b34801561013b57600080fd5b5061010d61014a366004610d59565b6103ce565b34801561015b57600080fd5b5061010d61016a366004610d19565b610401565b61018261017d366004610e90565b610434565b60405161018f9190610f7f565b60405180910390f35b3480156101a457600080fd5b5061010d6104af565b6101826101bb366004610f8d565b6104e5565b3480156101cc57600080fd5b506033546001600160a01b03165b60405161018f9190610fcf565b3480156101f357600080fd5b506066546101da906001600160a01b031681565b34801561021357600080fd5b5061022761022236600461104a565b6106bf565b60405161018f91906110be565b34801561024057600080fd5b5061010d61024f3660046110cc565b610730565b34801561026057600080fd5b506067546101da906001600160a01b031681565b34801561028057600080fd5b5061010d61028f36600461111c565b6107c0565b3480156102a057600080fd5b5061010d6102af366004610d19565b610831565b3480156102c057600080fd5b506065546102d4906001600160a01b031681565b60405161018f9190611192565b6033546001600160a01b031633146103145760405162461bcd60e51b815260040161030b906111d5565b60405180910390fd5b6040516000906001600160a01b0384169083156108fc0290849084818181858888f1935050505090508061035a5760405162461bcd60e51b815260040161030b9061122a565b7f2c876ecb97b3c6854f2488d373403f903eacb800e51c159a5c0c7a9c857e4827838360405161038b92919061123a565b60405180910390a1505050565b6033546001600160a01b031633146103c25760405162461bcd60e51b815260040161030b906111d5565b6103cb81610899565b50565b6033546001600160a01b031633146103f85760405162461bcd60e51b815260040161030b906111d5565b6103cb816108ef565b6033546001600160a01b0316331461042b5760405162461bcd60e51b815260040161030b906111d5565b6103cb8161093a565b6066546000906001600160a01b031633146104615760405162461bcd60e51b815260040161030b9061129c565b7fa0b35e480a2add0100f918632470cc8260628f0e8e277690f77da458ff8f4ab787878787878760405161049a9695949392919061131a565b60405180910390a15060019695505050505050565b6033546001600160a01b031633146104d95760405162461bcd60e51b815260040161030b906111d5565b6104e36000610986565b565b6066546000906001600160a01b031633146105125760405162461bcd60e51b815260040161030b9061129c565b6067546001600160a01b0383811691161461053f5760405162461bcd60e51b815260040161030b906113ae565b606554610559906001600160a01b038881169116876109d8565b606554604051631dfbd4cf60e21b81526001600160a01b03909116906377ef533c9061058d908990899088906004016113be565b602060405180830381600087803b1580156105a757600080fd5b505af19250505080156105d7575060408051601f3d908101601f191682019092526105d4918101906113ff565b60015b610654573d808015610605576040519150601f19603f3d011682016040523d82523d6000602084013e61060a565b606091505b507f3538e4460f392ef0ea71ed8ac3c3ddd96cdb41831e212d8fe3a145e1956e85d5888888888888876040516106469796959493929190611420565b60405180910390a150610697565b507fa2ea2fb459fe24fd2d3083215ee27cdee6cd1773cd34d407ce9a5f910409ccfe87878787878760405161068e96959493929190611495565b60405180910390a15b6065546106b2906001600160a01b03888116911660006109d8565b5060019695505050505050565b600060016106d06020870187610d19565b6106e06040880160208901610d19565b6106f06060890160408a016114b0565b886060013588888860405160200161070f98979695949392919061156d565b6040516020818303038152906040528051906020012090505b949350505050565b600054610100900460ff1661074b5760005460ff161561074f565b303b155b61076b5760405162461bcd60e51b815260040161030b90611633565b600054610100900460ff1615801561078d576000805461ffff19166101011790555b61079684610986565b61079f8361093a565b6107a882610899565b80156107ba576000805461ff00191690555b50505050565b6033546001600160a01b031633146107ea5760405162461bcd60e51b815260040161030b906111d5565b6107fe6001600160a01b0384168383610ad7565b7f2717ead6b9200dd235aad468c9809ea400fe33ac69b5bfaa6d3e90fc922b639883838360405161038b93929190611643565b6033546001600160a01b0316331461085b5760405162461bcd60e51b815260040161030b906111d5565b6001600160a01b0381166108815760405162461bcd60e51b815260040161030b906116ae565b6103cb81610986565b6001600160a01b03163b151590565b606780546001600160a01b0319166001600160a01b0383161790556040517fd9436ef9ce00ffeabc5da2489701502d3bd1a5ed7b254a1981fc5ffef9828e11906108e4908390610fcf565b60405180910390a150565b606580546001600160a01b0319166001600160a01b0383161790556040517ff2071e1b38ab3c561fb5d090a912ad00d911946da5f417b4eac46024a2f6ed60906108e4908390611192565b606680546001600160a01b0319166001600160a01b0383169081179091556040517f3f8223bcd8b3b875473e9f9e14e1ad075451a2b5ffd31591655da9a01516bf5e916108e491610fcf565b603380546001600160a01b038381166001600160a01b0319831681179093556040519116919082907f8be0079c531659141344cd1fd0a4f28419497f9722a3daafe3b4186f6b6457e090600090a35050565b801580610a605750604051636eb1769f60e11b81526001600160a01b0384169063dd62ed3e90610a0e90309086906004016116be565b60206040518083038186803b158015610a2657600080fd5b505afa158015610a3a573d6000803e3d6000fd5b505050506040513d601f19601f82011682018060405250810190610a5e91906113ff565b155b610a7c5760405162461bcd60e51b815260040161030b9061172c565b610ad28363095ea7b360e01b8484604051602401610a9b92919061173c565b60408051601f198184030181529190526020810180516001600160e01b03166001600160e01b031990931692909217909152610af6565b505050565b610ad28363a9059cbb60e01b8484604051602401610a9b92919061173c565b6000610b4b826040518060400160405280602081526020017f5361666545524332303a206c6f772d6c6576656c2063616c6c206661696c6564815250856001600160a01b0316610b859092919063ffffffff16565b805190915015610ad25780806020019051810190610b69919061175d565b610ad25760405162461bcd60e51b815260040161030b906117c5565b6060610b948484600085610b9e565b90505b9392505050565b606082471015610bc05760405162461bcd60e51b815260040161030b90611818565b6001600160a01b0385163b610be75760405162461bcd60e51b815260040161030b9061185c565b600080866001600160a01b03168587604051610c03919061188e565b60006040518083038185875af1925050503d8060008114610c40576040519150601f19603f3d011682016040523d82523d6000602084013e610c45565b606091505b5091509150610c55828286610c60565b979650505050505050565b60608315610c6f575081610b97565b825115610c7f5782518084602001fd5b8160405162461bcd60e51b815260040161030b919061189a565b60006001600160a01b0382165b92915050565b610cb581610c99565b81146103cb57600080fd5b8035610ca681610cac565b80610cb5565b8035610ca681610ccb565b60008060408385031215610cf257610cf2600080fd5b6000610cfe8585610cc0565b9250506020610d0f85828601610cd1565b9150509250929050565b600060208284031215610d2e57610d2e600080fd5b60006107288484610cc0565b6000610ca682610c99565b610cb581610d3a565b8035610ca681610d45565b600060208284031215610d6e57610d6e600080fd5b60006107288484610d4e565b67ffffffffffffffff8116610cb5565b8035610ca681610d7a565b634e487b7160e01b600052604160045260246000fd5b601f19601f830116810181811067ffffffffffffffff82111715610dd157610dd1610d95565b6040525050565b6000610de360405190565b9050610def8282610dab565b919050565b600067ffffffffffffffff821115610e0e57610e0e610d95565b601f19601f83011660200192915050565b82818337506000910152565b6000610e3e610e3984610df4565b610dd8565b905082815260208101848484011115610e5957610e59600080fd5b610e64848285610e1f565b509392505050565b600082601f830112610e8057610e80600080fd5b8135610728848260208601610e2b565b60008060008060008060c08789031215610eac57610eac600080fd5b6000610eb88989610cc0565b9650506020610ec989828a01610cc0565b9550506040610eda89828a01610cd1565b9450506060610eeb89828a01610d8a565b935050608087013567ffffffffffffffff811115610f0b57610f0b600080fd5b610f1789828a01610e6c565b92505060a0610f2889828a01610cc0565b9150509295509295509295565b634e487b7160e01b600052602160045260246000fd5b600381106103cb576103cb610f35565b80610def81610f4b565b6000610ca682610f5b565b610f7981610f65565b82525050565b60208101610ca68284610f70565b60008060008060008060c08789031215610fa957610fa9600080fd5b6000610fb58989610cc0565b9650506020610ec989828a01610d4e565b610f7981610c99565b60208101610ca68284610fc6565b600060808284031215610ff257610ff2600080fd5b50919050565b60008083601f84011261100d5761100d600080fd5b50813567ffffffffffffffff81111561102857611028600080fd5b60208301915083600182028301111561104357611043600080fd5b9250929050565b60008060008060c0858703121561106357611063600080fd5b600061106f8787610fdd565b945050608061108087828801610d8a565b93505060a085013567ffffffffffffffff8111156110a0576110a0600080fd5b6110ac87828801610ff8565b95989497509550505050565b80610f79565b60208101610ca682846110b8565b6000806000606084860312156110e4576110e4600080fd5b60006110f08686610cc0565b935050602061110186828701610cc0565b925050604061111286828701610cc0565b9150509250925092565b60008060006060848603121561113457611134600080fd5b60006111408686610d4e565b935050602061115186828701610cc0565b925050604061111286828701610cd1565b60006001600160a01b038216610ca6565b6000610ca682611162565b6000610ca682611173565b610f798161117e565b60208101610ca68284611189565b60208082527f4f776e61626c653a2063616c6c6572206973206e6f7420746865206f776e6572910190815260005b5060200190565b60208082528101610ca6816111a0565b602581526000602082017f5061796d656e743a207769746864726177206e617469766520746f6b656e2066815264185a5b195960da1b602082015291505b5060400190565b60208082528101610ca6816111e5565b604081016112488285611189565b610b9760208301846110b8565b602a81526000602082017f4d65737361676552656365697665723a2063616c6c6572206973206e6f74206d8152696573736167652062757360b01b60208201529150611223565b60208082528101610ca681611255565b67ffffffffffffffff8116610f79565b60005b838110156112d75781810151838201526020016112bf565b838111156107ba5750506000910152565b60006112f2825190565b8084526020840193506113098185602086016112bc565b601f01601f19169290920192915050565b60c081016113288289610fc6565b6113356020830188610fc6565b61134260408301876110b8565b61134f60608301866112ac565b818103608083015261136181856112e8565b9050610c5560a0830184610fc6565b602181526000602082017f4d65737361676552656365697665723a20696e76616c6964206578656375746f8152603960f91b60208201529150611223565b60208082528101610ca681611370565b606081016113cc8286611189565b6113d960208301856110b8565b81810360408301526113eb81846112e8565b95945050505050565b8051610ca681610ccb565b60006020828403121561141457611414600080fd5b600061072884846113f4565b60e0810161142e828a610fc6565b61143b6020830189611189565b61144860408301886110b8565b61145560608301876112ac565b818103608083015261146781866112e8565b905061147660a0830185610fc6565b81810360c083015261148881846112e8565b9998505050505050505050565b60c081016114a38289610fc6565b6113356020830188611189565b6000602082840312156114c5576114c5600080fd5b60006107288484610d8a565b600281106103cb576103cb610f35565b80610def816114d1565b6000610ca6826114e1565b6000610ca68260f81b90565b610f7961150e826114eb565b6114f6565b6000610ca68260601b90565b6000610ca682611513565b610f7961153682610c99565b61151f565b6000610ca68260c01b90565b610f7967ffffffffffffffff821661153b565b6000611567838584610e1f565b50500190565b6000611579828b611502565b600182019150611589828a61152a565b601482019150611599828961152a565b6014820191506115a98288611547565b6008820191506115b982876110b8565b6020820191506115c98286611547565b6008820191506115da82848661155a565b9a9950505050505050505050565b602e81526000602082017f496e697469616c697a61626c653a20636f6e747261637420697320616c72656181526d191e481a5b9a5d1a585b1a5e995960921b60208201529150611223565b60208082528101610ca6816115e8565b606081016116518286611189565b61165e6020830185610fc6565b61072860408301846110b8565b602681526000602082017f4f776e61626c653a206e6577206f776e657220697320746865207a65726f206181526564647265737360d01b60208201529150611223565b60208082528101610ca68161166b565b604081016116cc8285610fc6565b610b976020830184610fc6565b603681526000602082017f5361666545524332303a20617070726f76652066726f6d206e6f6e2d7a65726f81527520746f206e6f6e2d7a65726f20616c6c6f77616e636560501b60208201529150611223565b60208082528101610ca6816116d9565b604081016112488285610fc6565b801515610cb5565b8051610ca68161174a565b60006020828403121561177257611772600080fd5b60006107288484611752565b602a81526000602082017f5361666545524332303a204552433230206f7065726174696f6e20646964206e8152691bdd081cdd58d8d9595960b21b60208201529150611223565b60208082528101610ca68161177e565b602681526000602082017f416464726573733a20696e73756666696369656e742062616c616e636520666f8152651c8818d85b1b60d21b60208201529150611223565b60208082528101610ca6816117d5565b601d81526000602082017f416464726573733a2063616c6c20746f206e6f6e2d636f6e7472616374000000815291506111ce565b60208082528101610ca681611828565b6000611876825190565b6118848185602086016112bc565b9290920192915050565b6000610b97828461186c565b60208082528101610b9781846112e856fea2646970667358221220994f876f726f8390630d5c26dfb723c114f3f549daf9ca3dc53444ac0916ba2164736f6c63430008090033",
  "devdoc": {
    "kind": "dev",
    "methods": {
      "owner()": {
        "details": "Returns the address of the current owner."
      },
      "renounceOwnership()": {
        "details": "Leaves the contract without owner. It will not be possible to call `onlyOwner` functions anymore. Can only be called by the current owner. NOTE: Renouncing ownership will leave the contract without an owner, thereby removing any functionality that is only available to the owner."
      },
      "transferOwnership(address)": {
        "details": "Transfers ownership of the contract to a new account (`newOwner`). Can only be called by the current owner."
      }
    },
    "version": 1
  },
  "userdoc": {
    "kind": "user",
    "methods": {},
    "version": 1
  },
  "storageLayout": {
    "storage": [
      {
        "astId": 147,
        "contract": "contracts/messages/MessageReceiver.sol:MessageReceiver",
        "label": "_initialized",
        "offset": 0,
        "slot": "0",
        "type": "t_bool"
      },
      {
        "astId": 150,
        "contract": "contracts/messages/MessageReceiver.sol:MessageReceiver",
        "label": "_initializing",
        "offset": 1,
        "slot": "0",
        "type": "t_bool"
      },
      {
        "astId": 1608,
        "contract": "contracts/messages/MessageReceiver.sol:MessageReceiver",
        "label": "__gap",
        "offset": 0,
        "slot": "1",
        "type": "t_array(t_uint256)50_storage"
      },
      {
        "astId": 10,
        "contract": "contracts/messages/MessageReceiver.sol:MessageReceiver",
        "label": "_owner",
        "offset": 0,
        "slot": "51",
        "type": "t_address"
      },
      {
        "astId": 122,
        "contract": "contracts/messages/MessageReceiver.sol:MessageReceiver",
        "label": "__gap",
        "offset": 0,
        "slot": "52",
        "type": "t_array(t_uint256)49_storage"
      },
      {
        "astId": 4790,
        "contract": "contracts/messages/MessageReceiver.sol:MessageReceiver",
        "label": "dstChainPayment",
        "offset": 0,
        "slot": "101",
        "type": "t_contract(IDstChainPayment)4517"
      },
      {
        "astId": 4792,
        "contract": "contracts/messages/MessageReceiver.sol:MessageReceiver",
        "label": "messageBus",
        "offset": 0,
        "slot": "102",
        "type": "t_address"
      },
      {
        "astId": 4794,
        "contract": "contracts/messages/MessageReceiver.sol:MessageReceiver",
        "label": "executor",
        "offset": 0,
        "slot": "103",
        "type": "t_address"
      }
    ],
    "types": {
      "t_address": {
        "encoding": "inplace",
        "label": "address",
        "numberOfBytes": "20"
      },
      "t_array(t_uint256)49_storage": {
        "base": "t_uint256",
        "encoding": "inplace",
        "label": "uint256[49]",
        "numberOfBytes": "1568"
      },
      "t_array(t_uint256)50_storage": {
        "base": "t_uint256",
        "encoding": "inplace",
        "label": "uint256[50]",
        "numberOfBytes": "1600"
      },
      "t_bool": {
        "encoding": "inplace",
        "label": "bool",
        "numberOfBytes": "1"
      },
      "t_contract(IDstChainPayment)4517": {
        "encoding": "inplace",
        "label": "contract IDstChainPayment",
        "numberOfBytes": "20"
      },
      "t_uint256": {
        "encoding": "inplace",
        "label": "uint256",
        "numberOfBytes": "32"
      }
    }
  }
}