{
  "address": "0x1141eB47EbCAcf39CDc2e4317Dc8c3C23a96cF0D",
  "abi": [
    {
      "inputs": [],
      "stateMutability": "nonpayable",
      "type": "constructor"
    },
    {
      "anonymous": false,
      "inputs": [
        {
          "indexed": true,
          "internalType": "address",
          "name": "previousOwner",
          "type": "address"
        },
        {
          "indexed": true,
          "internalType": "address",
          "name": "newOwner",
          "type": "address"
        }
      ],
      "name": "OwnershipTransferred",
      "type": "event"
    },
    {
      "anonymous": false,
      "inputs": [
        {
          "indexed": false,
          "internalType": "address",
          "name": "provider",
          "type": "address"
        },
        {
          "indexed": false,
          "internalType": "address",
          "name": "wallet",
          "type": "address"
        }
      ],
      "name": "ProviderUpdated",
      "type": "event"
    },
    {
      "anonymous": false,
      "inputs": [
        {
          "indexed": false,
          "internalType": "address",
          "name": "provider",
          "type": "address"
        }
      ],
      "name": "RemoveProvider",
      "type": "event"
    },
    {
      "inputs": [
        {
          "internalType": "address",
          "name": "provider",
          "type": "address"
        },
        {
          "internalType": "address",
          "name": "wallet",
          "type": "address"
        }
      ],
      "name": "addProvider",
      "outputs": [],
      "stateMutability": "nonpayable",
      "type": "function"
    },
    {
      "inputs": [
        {
          "internalType": "address",
          "name": "owner",
          "type": "address"
        },
        {
          "internalType": "address[]",
          "name": "_providers",
          "type": "address[]"
        },
        {
          "internalType": "address[]",
          "name": "_wallets",
          "type": "address[]"
        }
      ],
      "name": "initialize",
      "outputs": [],
      "stateMutability": "nonpayable",
      "type": "function"
    },
    {
      "inputs": [
        {
          "internalType": "address",
          "name": "provider",
          "type": "address"
        }
      ],
      "name": "isProvider",
      "outputs": [
        {
          "internalType": "bool",
          "name": "",
          "type": "bool"
        }
      ],
      "stateMutability": "view",
      "type": "function"
    },
    {
      "inputs": [
        {
          "internalType": "address",
          "name": "provider",
          "type": "address"
        },
        {
          "internalType": "bytes32",
          "name": "hash",
          "type": "bytes32"
        },
        {
          "internalType": "bytes",
          "name": "signature",
          "type": "bytes"
        }
      ],
      "name": "isValidSignature",
      "outputs": [
        {
          "internalType": "bool",
          "name": "",
          "type": "bool"
        }
      ],
      "stateMutability": "view",
      "type": "function"
    },
    {
      "inputs": [],
      "name": "owner",
      "outputs": [
        {
          "internalType": "address",
          "name": "",
          "type": "address"
        }
      ],
      "stateMutability": "view",
      "type": "function"
    },
    {
      "inputs": [
        {
          "internalType": "address",
          "name": "provider",
          "type": "address"
        }
      ],
      "name": "removeProvider",
      "outputs": [],
      "stateMutability": "nonpayable",
      "type": "function"
    },
    {
      "inputs": [],
      "name": "renounceOwnership",
      "outputs": [],
      "stateMutability": "nonpayable",
      "type": "function"
    },
    {
      "inputs": [
        {
          "internalType": "address",
          "name": "wallet",
          "type": "address"
        }
      ],
      "name": "setWallet",
      "outputs": [],
      "stateMutability": "nonpayable",
      "type": "function"
    },
    {
      "inputs": [
        {
          "internalType": "address",
          "name": "newOwner",
          "type": "address"
        }
      ],
      "name": "transferOwnership",
      "outputs": [],
      "stateMutability": "nonpayable",
      "type": "function"
    },
    {
      "inputs": [
        {
          "internalType": "address",
          "name": "",
          "type": "address"
        }
      ],
      "name": "wallets",
      "outputs": [
        {
          "internalType": "address",
          "name": "",
          "type": "address"
        }
      ],
      "stateMutability": "view",
      "type": "function"
    }
  ],
  "transactionHash": "0x3e84340c95303789ec18ebd3ae876a636401a9a370d74558d38707ca946c1488",
  "args": [],
  "solcInputHash": "61e95662612605715b08b2cd7376c09f",
  "bytecode": "0x60806040523480156200001157600080fd5b50600054610100900460ff166200002f5760005460ff161562000039565b620000396200009e565b620000615760405162461bcd60e51b81526004016200005890620000cb565b60405180910390fd5b600054610100900460ff1615801562000084576000805461ffff19166101011790555b801562000097576000805461ff00191690555b5062000124565b6000620000b630620000bc60201b620003a61760201c565b15905090565b6001600160a01b03163b151590565b602080825281016200011e81602e81527f496e697469616c697a61626c653a20636f6e747261637420697320616c72656160208201526d191e481a5b9a5d1a585b1a5e995960921b604082015260600190565b92915050565b6110d080620001346000396000f3fe608060405234801561001057600080fd5b506004361061009e5760003560e01c80638a355a57116100665780638a355a57146101325780638da5cb5b146101455780639755f5be14610156578063deaa59df14610169578063f2fde38b1461017c57600080fd5b8063238a4d1e146100a35780634a200fa5146100cc5780636b074a07146100e1578063715018a6146100f457806389b08f11146100fc575b600080fd5b6100b66100b1366004610a54565b61018f565b6040516100c39190610ac9565b60405180910390f35b6100df6100da366004610b7a565b6101d4565b005b6100b66100ef366004610bf6565b61025c565b6100df61027a565b61012561010a366004610bf6565b6066602052600090815260409020546001600160a01b031681565b6040516100c39190610c20565b6100df610140366004610bf6565b6102b0565b6033546001600160a01b0316610125565b6100df610164366004610c2e565b6102e6565b6100df610177366004610bf6565b61031e565b6100df61018a366004610bf6565b61034d565b600061019a8461025c565b6101bf5760405162461bcd60e51b81526004016101b690610ca2565b60405180910390fd5b6101ca8484846103b5565b90505b9392505050565b600054610100900460ff166101ef5760005460ff16156101f3565b303b155b61020f5760405162461bcd60e51b81526004016101b690610d00565b600054610100900460ff16158015610231576000805461ffff19166101011790555b61023a84610501565b6102448383610553565b8015610256576000805461ff00191690555b50505050565b6001600160a01b031660009081526065602052604090205460ff1690565b6033546001600160a01b031633146102a45760405162461bcd60e51b81526004016101b690610d42565b6102ae6000610501565b565b6033546001600160a01b031633146102da5760405162461bcd60e51b81526004016101b690610d42565b6102e3816105fa565b50565b6033546001600160a01b031633146103105760405162461bcd60e51b81526004016101b690610d42565b61031a828261067a565b5050565b6103273361025c565b6103435760405162461bcd60e51b81526004016101b690610d92565b6102e33382610724565b6033546001600160a01b031633146103775760405162461bcd60e51b81526004016101b690610d42565b6001600160a01b03811661039d5760405162461bcd60e51b81526004016101b690610de5565b6102e381610501565b6001600160a01b03163b151590565b60008060006103c48585610785565b909250905060008160048111156103dd576103dd610df5565b1480156103fb5750856001600160a01b0316826001600160a01b0316145b1561040b576001925050506101cd565b600080876001600160a01b0316631626ba7e60e01b8888604051602401610433929190610e6f565b60408051601f198184030181529181526020820180516001600160e01b03166001600160e01b03199094169390931790925290516104719190610eb1565b600060405180830381855afa9150503d80600081146104ac576040519150601f19603f3d011682016040523d82523d6000602084013e6104b1565b606091505b50915091508180156104c4575080516020145b80156104f557508051630b135d3f60e11b906104e99083016020908101908401610ed8565b6001600160e01b031916145b98975050505050505050565b603380546001600160a01b038381166001600160a01b0319831681179093556040519116919082907f8be0079c531659141344cd1fd0a4f28419497f9722a3daafe3b4186f6b6457e090600090a35050565b600054610100900460ff1661057a5760405162461bcd60e51b81526004016101b690610f41565b805182511461059b5760405162461bcd60e51b81526004016101b690610f85565b60005b82518110156105f5576105e38382815181106105bc576105bc610f95565b60200260200101518383815181106105d6576105d6610f95565b602002602001015161067a565b806105ed81610fc1565b91505061059e565b505050565b6106038161025c565b61061f5760405162461bcd60e51b81526004016101b690610ca2565b6001600160a01b03811660009081526065602052604090819020805460ff19169055517f8ab468b9f8f57e82f33d9a1742c03768ff84410a4911e8647bfa6418268769049061066f908390610c20565b60405180910390a150565b6106838261025c565b156106a05760405162461bcd60e51b81526004016101b690611010565b6001600160a01b038083166000908152606560209081526040808320805460ff1916600117905560669091529081902080549284166001600160a01b031990931692909217909155517fa4652513510d8a8ef70d7c10761c2fd3d3f582d2e903ac7f7a74c3075331f53f906107189084908490611020565b60405180910390a15050565b6001600160a01b038281166000908152606660205260409081902080546001600160a01b03191692841692909217909155517fa4652513510d8a8ef70d7c10761c2fd3d3f582d2e903ac7f7a74c3075331f53f906107189084908490611020565b6000808251604114156107bc5760208301516040840151606085015160001a6107b0878285856107f5565b945094505050506107ee565b8251604014156107e657602083015160408401516107db8683836108d5565b9350935050506107ee565b506000905060025b9250929050565b6000807f7fffffffffffffffffffffffffffffff5d576e7357a4501ddfe92f46681b20a083111561082c57506000905060036108cc565b8460ff16601b1415801561084457508460ff16601c14155b1561085557506000905060046108cc565b60006001878787876040516000815260200160405260405161087a9493929190611044565b6020604051602081039080840390855afa15801561089c573d6000803e3d6000fd5b5050604051601f1901519150506001600160a01b0381166108c5576000600192509250506108cc565b9150600090505b94509492505050565b6000806001600160ff1b038316816108f260ff86901c601b611082565b9050610900878288856107f5565b935093505050935093915050565b60006001600160a01b0382165b92915050565b61092a8161090e565b81146102e357600080fd5b803561091b81610921565b8061092a565b803561091b81610940565b634e487b7160e01b600052604160045260246000fd5b601f19601f830116810181811067ffffffffffffffff8211171561098d5761098d610951565b6040525050565b600061099f60405190565b90506109ab8282610967565b919050565b600067ffffffffffffffff8211156109ca576109ca610951565b601f19601f83011660200192915050565b82818337506000910152565b60006109fa6109f5846109b0565b610994565b905082815260208101848484011115610a1557610a15600080fd5b610a208482856109db565b509392505050565b600082601f830112610a3c57610a3c600080fd5b8135610a4c8482602086016109e7565b949350505050565b600080600060608486031215610a6c57610a6c600080fd5b6000610a788686610935565b9350506020610a8986828701610946565b925050604084013567ffffffffffffffff811115610aa957610aa9600080fd5b610ab586828701610a28565b9150509250925092565b8015155b82525050565b6020810161091b8284610abf565b600067ffffffffffffffff821115610af157610af1610951565b5060209081020190565b6000610b096109f584610ad7565b83815290506020808201908402830185811115610b2857610b28600080fd5b835b81811015610b4c5780610b3d8882610935565b84525060209283019201610b2a565b5050509392505050565b600082601f830112610b6a57610b6a600080fd5b8135610a4c848260208601610afb565b600080600060608486031215610b9257610b92600080fd5b6000610b9e8686610935565b935050602084013567ffffffffffffffff811115610bbe57610bbe600080fd5b610bca86828701610b56565b925050604084013567ffffffffffffffff811115610bea57610bea600080fd5b610ab586828701610b56565b600060208284031215610c0b57610c0b600080fd5b6000610a4c8484610935565b610ac38161090e565b6020810161091b8284610c17565b60008060408385031215610c4457610c44600080fd5b6000610c508585610935565b9250506020610c6185828601610935565b9150509250929050565b601f81526000602082017f50726f7669646572733a206e6f6e6578697374656e742070726f766964657200815291505b5060200190565b6020808252810161091b81610c6b565b602e81526000602082017f496e697469616c697a61626c653a20636f6e747261637420697320616c72656181526d191e481a5b9a5d1a585b1a5e995960921b602082015291505b5060400190565b6020808252810161091b81610cb2565b60208082527f4f776e61626c653a2063616c6c6572206973206e6f7420746865206f776e657291019081526000610c9b565b6020808252810161091b81610d10565b602381526000602082017f50726f7669646572733a2063616c6c6572206973206e6f7420612070726f76698152623232b960e91b60208201529150610cf9565b6020808252810161091b81610d52565b602681526000602082017f4f776e61626c653a206e6577206f776e657220697320746865207a65726f206181526564647265737360d01b60208201529150610cf9565b6020808252810161091b81610da2565b634e487b7160e01b600052602160045260246000fd5b80610ac3565b60005b83811015610e2c578181015183820152602001610e14565b838111156102565750506000910152565b6000610e47825190565b808452602084019350610e5e818560208601610e11565b601f01601f19169290920192915050565b60408101610e7d8285610e0b565b81810360208301526101ca8184610e3d565b6000610e99825190565b610ea7818560208601610e11565b9290920192915050565b60006101cd8284610e8f565b6001600160e01b0319811661092a565b805161091b81610ebd565b600060208284031215610eed57610eed600080fd5b6000610a4c8484610ecd565b602b81526000602082017f496e697469616c697a61626c653a20636f6e7472616374206973206e6f74206981526a6e697469616c697a696e6760a81b60208201529150610cf9565b6020808252810161091b81610ef9565b601e81526000602082017f50726f7669646572733a20696e636f6e73697374656e74206c656e677468000081529150610c9b565b6020808252810161091b81610f51565b634e487b7160e01b600052603260045260246000fd5b634e487b7160e01b600052601160045260246000fd5b6000600019821415610fd557610fd5610fab565b5060010190565b601b81526000602082017f50726f7669646572733a2070726f76696465722065786973746564000000000081529150610c9b565b6020808252810161091b81610fdc565b6040810161102e8285610c17565b6101cd6020830184610c17565b60ff8116610ac3565b608081016110528287610e0b565b61105f602083018661103b565b61106c6040830185610e0b565b6110796060830184610e0b565b95945050505050565b6000821982111561109557611095610fab565b50019056fea2646970667358221220d76c36d7a3a89e3c49bb9bd0e0bbaea21604b9dac13f657abb4415faeb8978d464736f6c63430008090033",
  "devdoc": {
    "kind": "dev",
    "methods": {
      "owner()": {
        "details": "Returns the address of the current owner."
      },
      "renounceOwnership()": {
        "details": "Leaves the contract without owner. It will not be possible to call `onlyOwner` functions anymore. Can only be called by the current owner. NOTE: Renouncing ownership will leave the contract without an owner, thereby removing any functionality that is only available to the owner."
      },
      "transferOwnership(address)": {
        "details": "Transfers ownership of the contract to a new account (`newOwner`). Can only be called by the current owner."
      }
    },
    "version": 1
  },
  "userdoc": {
    "kind": "user",
    "methods": {},
    "version": 1
  },
  "storageLayout": {
    "storage": [
      {
        "astId": 147,
        "contract": "contracts/providers/Providers.sol:Providers",
        "label": "_initialized",
        "offset": 0,
        "slot": "0",
        "type": "t_bool"
      },
      {
        "astId": 150,
        "contract": "contracts/providers/Providers.sol:Providers",
        "label": "_initializing",
        "offset": 1,
        "slot": "0",
        "type": "t_bool"
      },
      {
        "astId": 970,
        "contract": "contracts/providers/Providers.sol:Providers",
        "label": "__gap",
        "offset": 0,
        "slot": "1",
        "type": "t_array(t_uint256)50_storage"
      },
      {
        "astId": 10,
        "contract": "contracts/providers/Providers.sol:Providers",
        "label": "_owner",
        "offset": 0,
        "slot": "51",
        "type": "t_address"
      },
      {
        "astId": 122,
        "contract": "contracts/providers/Providers.sol:Providers",
        "label": "__gap",
        "offset": 0,
        "slot": "52",
        "type": "t_array(t_uint256)49_storage"
      },
      {
        "astId": 6419,
        "contract": "contracts/providers/Providers.sol:Providers",
        "label": "providers",
        "offset": 0,
        "slot": "101",
        "type": "t_mapping(t_address,t_bool)"
      },
      {
        "astId": 6424,
        "contract": "contracts/providers/Providers.sol:Providers",
        "label": "wallets",
        "offset": 0,
        "slot": "102",
        "type": "t_mapping(t_address,t_address)"
      }
    ],
    "types": {
      "t_address": {
        "encoding": "inplace",
        "label": "address",
        "numberOfBytes": "20"
      },
      "t_array(t_uint256)49_storage": {
        "base": "t_uint256",
        "encoding": "inplace",
        "label": "uint256[49]",
        "numberOfBytes": "1568"
      },
      "t_array(t_uint256)50_storage": {
        "base": "t_uint256",
        "encoding": "inplace",
        "label": "uint256[50]",
        "numberOfBytes": "1600"
      },
      "t_bool": {
        "encoding": "inplace",
        "label": "bool",
        "numberOfBytes": "1"
      },
      "t_mapping(t_address,t_address)": {
        "encoding": "mapping",
        "key": "t_address",
        "label": "mapping(address => address)",
        "numberOfBytes": "32",
        "value": "t_address"
      },
      "t_mapping(t_address,t_bool)": {
        "encoding": "mapping",
        "key": "t_address",
        "label": "mapping(address => bool)",
        "numberOfBytes": "32",
        "value": "t_bool"
      },
      "t_uint256": {
        "encoding": "inplace",
        "label": "uint256",
        "numberOfBytes": "32"
      }
    }
  }
}