{
  "address": "0x1ea7CC607ceD7C6f0755F676eb9d0FA99ce8590F",
  "abi": [
    {
      "anonymous": false,
      "inputs": [
        {
          "indexed": false,
          "internalType": "contract IIPFSStorageController",
          "name": "controller",
          "type": "address"
        }
      ],
      "name": "ControllerUpdated",
      "type": "event"
    },
    {
      "anonymous": false,
      "inputs": [
        {
          "indexed": false,
          "internalType": "address",
          "name": "provider",
          "type": "address"
        },
        {
          "indexed": false,
          "internalType": "bytes32",
          "name": "account",
          "type": "bytes32"
        },
        {
          "indexed": false,
          "internalType": "string",
          "name": "content",
          "type": "string"
        },
        {
          "indexed": false,
          "internalType": "uint256",
          "name": "size",
          "type": "uint256"
        },
        {
          "indexed": false,
          "internalType": "uint256",
          "name": "count",
          "type": "uint256"
        },
        {
          "indexed": false,
          "internalType": "uint256",
          "name": "expiration",
          "type": "uint256"
        }
      ],
      "name": "Insert",
      "type": "event"
    },
    {
      "anonymous": false,
      "inputs": [
        {
          "indexed": true,
          "internalType": "address",
          "name": "previousOwner",
          "type": "address"
        },
        {
          "indexed": true,
          "internalType": "address",
          "name": "newOwner",
          "type": "address"
        }
      ],
      "name": "OwnershipTransferred",
      "type": "event"
    },
    {
      "anonymous": false,
      "inputs": [
        {
          "indexed": false,
          "internalType": "contract IProviders",
          "name": "providers",
          "type": "address"
        }
      ],
      "name": "ProvidersUpdated",
      "type": "event"
    },
    {
      "anonymous": false,
      "inputs": [
        {
          "indexed": false,
          "internalType": "address",
          "name": "provider",
          "type": "address"
        },
        {
          "indexed": false,
          "internalType": "bytes32",
          "name": "account",
          "type": "bytes32"
        },
        {
          "indexed": false,
          "internalType": "string",
          "name": "content",
          "type": "string"
        },
        {
          "indexed": false,
          "internalType": "uint256",
          "name": "size",
          "type": "uint256"
        },
        {
          "indexed": false,
          "internalType": "uint256",
          "name": "count",
          "type": "uint256"
        }
      ],
      "name": "Remove",
      "type": "event"
    },
    {
      "inputs": [],
      "name": "controller",
      "outputs": [
        {
          "internalType": "contract IIPFSStorageController",
          "name": "",
          "type": "address"
        }
      ],
      "stateMutability": "view",
      "type": "function"
    },
    {
      "inputs": [
        {
          "internalType": "address",
          "name": "provider",
          "type": "address"
        },
        {
          "internalType": "bytes32",
          "name": "account",
          "type": "bytes32"
        },
        {
          "internalType": "string",
          "name": "content",
          "type": "string"
        }
      ],
      "name": "exists",
      "outputs": [
        {
          "internalType": "bool",
          "name": "",
          "type": "bool"
        }
      ],
      "stateMutability": "view",
      "type": "function"
    },
    {
      "inputs": [
        {
          "internalType": "address",
          "name": "owner",
          "type": "address"
        },
        {
          "internalType": "contract IProviders",
          "name": "providers",
          "type": "address"
        },
        {
          "internalType": "contract IIPFSStorageController",
          "name": "controller",
          "type": "address"
        }
      ],
      "name": "initialize",
      "outputs": [],
      "stateMutability": "nonpayable",
      "type": "function"
    },
    {
      "inputs": [
        {
          "internalType": "bytes32",
          "name": "account",
          "type": "bytes32"
        },
        {
          "internalType": "string",
          "name": "content",
          "type": "string"
        },
        {
          "internalType": "uint256",
          "name": "size",
          "type": "uint256"
        },
        {
          "internalType": "uint256",
          "name": "count",
          "type": "uint256"
        }
      ],
      "name": "insert",
      "outputs": [],
      "stateMutability": "nonpayable",
      "type": "function"
    },
    {
      "inputs": [
        {
          "internalType": "bytes32[]",
          "name": "accounts",
          "type": "bytes32[]"
        },
        {
          "internalType": "string[]",
          "name": "contents",
          "type": "string[]"
        },
        {
          "internalType": "uint256[]",
          "name": "sizes",
          "type": "uint256[]"
        },
        {
          "internalType": "uint256[]",
          "name": "counts",
          "type": "uint256[]"
        }
      ],
      "name": "insertMult",
      "outputs": [],
      "stateMutability": "nonpayable",
      "type": "function"
    },
    {
      "inputs": [
        {
          "internalType": "address",
          "name": "",
          "type": "address"
        },
        {
          "internalType": "bytes32",
          "name": "",
          "type": "bytes32"
        },
        {
          "internalType": "string",
          "name": "",
          "type": "string"
        }
      ],
      "name": "metas",
      "outputs": [
        {
          "internalType": "uint256",
          "name": "size",
          "type": "uint256"
        },
        {
          "internalType": "uint256",
          "name": "count",
          "type": "uint256"
        }
      ],
      "stateMutability": "view",
      "type": "function"
    },
    {
      "inputs": [],
      "name": "owner",
      "outputs": [
        {
          "internalType": "address",
          "name": "",
          "type": "address"
        }
      ],
      "stateMutability": "view",
      "type": "function"
    },
    {
      "inputs": [],
      "name": "providers",
      "outputs": [
        {
          "internalType": "contract IProviders",
          "name": "",
          "type": "address"
        }
      ],
      "stateMutability": "view",
      "type": "function"
    },
    {
      "inputs": [
        {
          "internalType": "bytes32",
          "name": "account",
          "type": "bytes32"
        },
        {
          "internalType": "string",
          "name": "content",
          "type": "string"
        }
      ],
      "name": "remove",
      "outputs": [],
      "stateMutability": "nonpayable",
      "type": "function"
    },
    {
      "inputs": [
        {
          "internalType": "bytes32[]",
          "name": "accounts",
          "type": "bytes32[]"
        },
        {
          "internalType": "string[]",
          "name": "contents",
          "type": "string[]"
        }
      ],
      "name": "removeMult",
      "outputs": [],
      "stateMutability": "nonpayable",
      "type": "function"
    },
    {
      "inputs": [],
      "name": "renounceOwnership",
      "outputs": [],
      "stateMutability": "nonpayable",
      "type": "function"
    },
    {
      "inputs": [
        {
          "internalType": "contract IIPFSStorageController",
          "name": "_controller",
          "type": "address"
        }
      ],
      "name": "setController",
      "outputs": [],
      "stateMutability": "nonpayable",
      "type": "function"
    },
    {
      "inputs": [
        {
          "internalType": "address",
          "name": "provider",
          "type": "address"
        },
        {
          "internalType": "bytes32",
          "name": "account",
          "type": "bytes32"
        },
        {
          "internalType": "string",
          "name": "content",
          "type": "string"
        }
      ],
      "name": "size",
      "outputs": [
        {
          "internalType": "uint256",
          "name": "",
          "type": "uint256"
        }
      ],
      "stateMutability": "view",
      "type": "function"
    },
    {
      "inputs": [
        {
          "internalType": "address",
          "name": "newOwner",
          "type": "address"
        }
      ],
      "name": "transferOwnership",
      "outputs": [],
      "stateMutability": "nonpayable",
      "type": "function"
    }
  ],
  "transactionHash": "0x6ae43cce349b80ce97ec8e09cb4654111b12269f8048a717bee3dc4f5af04f76",
  "args": [],
  "solcInputHash": "ec72d91282387ee141c9901f905a1de5",
  "bytecode": "0x608060405234801561001057600080fd5b50611a1d806100206000396000f3fe608060405234801561001057600080fd5b50600436106100ea5760003560e01c8063db1701251161008c578063e65da1e711610066578063e65da1e714610208578063f2fde38b14610228578063f77c47911461023b578063f8401fe61461025b57600080fd5b8063db170125146101cf578063dbfd4737146101e2578063de47238c146101f557600080fd5b806392eefe9b116100c857806392eefe9b14610176578063b7ab288314610189578063b840f921146101a9578063c0c53b8b146101bc57600080fd5b8063715018a6146100ef57806389512e17146100f95780638da5cb5b1461015d575b600080fd5b6100f7610274565b005b610146610107366004610ef9565b60666020908152600093845260408085208252928452919092208251808401830180519281529083019390920192909220919052805460019091015482565b604051610154929190610f6b565b60405180910390f35b6033546001600160a01b03166040516101549190610f8f565b6100f7610184366004610fbc565b6102b3565b61019c610197366004610ef9565b6102e9565b6040516101549190610fe5565b6100f76101b736600461119b565b610336565b6100f76101ca366004611266565b6104d0565b6100f76101dd3660046112ac565b610560565b6100f76101f0366004611303565b610610565b6100f7610203366004611375565b6106df565b61021b610216366004610ef9565b610801565b60405161015491906113db565b6100f76102363660046113e9565b610915565b60655461024e906001600160a01b031681565b604051610154919061143a565b60005461024e906201000090046001600160a01b031681565b6033546001600160a01b031633146102a75760405162461bcd60e51b815260040161029e9061147d565b60405180910390fd5b6102b1600061096a565b565b6033546001600160a01b031633146102dd5760405162461bcd60e51b815260040161029e9061147d565b6102e6816109bc565b50565b6001600160a01b0383166000908152606660209081526040808320858452909152808220905161031a9084906114db565b90815260405190819003602001902054151590505b9392505050565b600054604051636b074a0760e01b8152620100009091046001600160a01b031690636b074a079061036b903390600401610f8f565b60206040518083038186803b15801561038357600080fd5b505afa158015610397573d6000803e3d6000fd5b505050506040513d601f19601f820116820180604052508101906103bb91906114fa565b6103d75760405162461bcd60e51b815260040161029e90611564565b82518451146103f85760405162461bcd60e51b815260040161029e906115b9565b81518451146104195760405162461bcd60e51b815260040161029e906115b9565b805184511461043a5760405162461bcd60e51b815260040161029e906115b9565b60005b84518110156104c9576104b73386838151811061045c5761045c6115c9565b6020026020010151868481518110610476576104766115c9565b6020026020010151868581518110610490576104906115c9565b60200260200101518686815181106104aa576104aa6115c9565b6020026020010151610a12565b806104c1816115f5565b91505061043d565b5050505050565b600054610100900460ff166104eb5760005460ff16156104ef565b303b155b61050b5760405162461bcd60e51b815260040161029e9061165b565b600054610100900460ff1615801561052d576000805461ffff19166101011790555b6105368461096a565b61053f83610c25565b610548826109bc565b801561055a576000805461ff00191690555b50505050565b600054604051636b074a0760e01b8152620100009091046001600160a01b031690636b074a0790610595903390600401610f8f565b60206040518083038186803b1580156105ad57600080fd5b505afa1580156105c1573d6000803e3d6000fd5b505050506040513d601f19601f820116820180604052508101906105e591906114fa565b6106015760405162461bcd60e51b815260040161029e90611564565b61060c338383610c55565b5050565b81600081116106315760405162461bcd60e51b815260040161029e9061169f565b600054604051636b074a0760e01b8152620100009091046001600160a01b031690636b074a0790610666903390600401610f8f565b60206040518083038186803b15801561067e57600080fd5b505afa158015610692573d6000803e3d6000fd5b505050506040513d601f19601f820116820180604052508101906106b691906114fa565b6106d25760405162461bcd60e51b815260040161029e90611564565b6104c93386868686610a12565b600054604051636b074a0760e01b8152620100009091046001600160a01b031690636b074a0790610714903390600401610f8f565b60206040518083038186803b15801561072c57600080fd5b505afa158015610740573d6000803e3d6000fd5b505050506040513d601f19601f8201168201806040525081019061076491906114fa565b6107805760405162461bcd60e51b815260040161029e90611564565b80518251146107a15760405162461bcd60e51b815260040161029e906116f3565b60005b82518110156107fc576107ea338483815181106107c3576107c36115c9565b60200260200101518484815181106107dd576107dd6115c9565b6020026020010151610c55565b806107f4816115f5565b9150506107a4565b505050565b60008054604051636b074a0760e01b8152620100009091046001600160a01b031690636b074a0790610837908790600401610f8f565b60206040518083038186803b15801561084f57600080fd5b505afa158015610863573d6000803e3d6000fd5b505050506040513d601f19601f8201168201806040525081019061088791906114fa565b6108a35760405162461bcd60e51b815260040161029e90611743565b6108ae8484846102e9565b6108ca5760405162461bcd60e51b815260040161029e90611792565b6001600160a01b03841660009081526066602090815260408083208684529091529081902090516108fc9084906114db565b9081526040519081900360200190205490509392505050565b6033546001600160a01b0316331461093f5760405162461bcd60e51b815260040161029e9061147d565b6001600160a01b0381166109655760405162461bcd60e51b815260040161029e906117e5565b6102e6815b603380546001600160a01b038381166001600160a01b0319831681179093556040519116919082907f8be0079c531659141344cd1fd0a4f28419497f9722a3daafe3b4186f6b6457e090600090a35050565b606580546001600160a01b0319166001600160a01b0383161790556040517f1304018cfe79741dcf02ba6b61d39cc4757d59395d03224d9925c7aa8300214690610a0790839061143a565b60405180910390a150565b8160008111610a335760405162461bcd60e51b815260040161029e9061169f565b610a3e8686866102e9565b15610a5b5760405162461bcd60e51b815260040161029e90611829565b6065546040516336d97f5960e11b81526001600160a01b0390911690636db2feb290610a8b9088906004016113db565b60206040518083038186803b158015610aa357600080fd5b505afa158015610ab7573d6000803e3d6000fd5b505050506040513d601f19601f82011682018060405250810190610adb91906114fa565b15610af85760405162461bcd60e51b815260040161029e9061186d565b60408051808201825284815260208082018590526001600160a01b0389166000908152606682528381208982529091528290209151909190610b3b9087906114db565b90815260405190819003602090810182208351815592015160019092019190915560655463f74d561f60e01b82527fd8be615b569e10ab81c7e1ad876540845a9ad057e7bf224af878656a43ccbae791889188918891889188916001600160a01b03169063f74d561f90610bb39087906004016113db565b60206040518083038186803b158015610bcb57600080fd5b505afa158015610bdf573d6000803e3d6000fd5b505050506040513d601f19601f82011682018060405250810190610c039190611888565b604051610c15969594939291906118db565b60405180910390a1505050505050565b600054610100900460ff16610c4c5760405162461bcd60e51b815260040161029e90611984565b6102e681610d63565b610c608383836102e9565b610c7c5760405162461bcd60e51b815260040161029e90611792565b6001600160a01b03831660009081526066602090815260408083208584529091528082209051610cad9084906114db565b90815260408051918290036020908101832083830183528054845260010154838201526001600160a01b038716600090815260668252828120878252909152819020905191925090610d009084906114db565b908152604051908190036020908101822060008082556001909101558251908301517fededfe806a15f843a0e88eb73d17bdae19981e0402af0c2946a3d9834e66877b92610d55928892889288929190611994565b60405180910390a150505050565b6000805462010000600160b01b031916620100006001600160a01b038416021790556040517fe63288198842f0dacdcbdc3f22dcd4e473d1f3cee7e10603ae6ddc3e667c528490610a0790839061143a565b60006001600160a01b0382165b92915050565b610dd181610db5565b81146102e657600080fd5b8035610dc281610dc8565b80610dd1565b8035610dc281610de7565b634e487b7160e01b600052604160045260246000fd5b601f19601f83011681018181106001600160401b0382111715610e3357610e33610df8565b6040525050565b6000610e4560405190565b9050610e518282610e0e565b919050565b60006001600160401b03821115610e6f57610e6f610df8565b601f19601f83011660200192915050565b82818337506000910152565b6000610e9f610e9a84610e56565b610e3a565b905082815260208101848484011115610eba57610eba600080fd5b610ec5848285610e80565b509392505050565b600082601f830112610ee157610ee1600080fd5b8135610ef1848260208601610e8c565b949350505050565b600080600060608486031215610f1157610f11600080fd5b6000610f1d8686610ddc565b9350506020610f2e86828701610ded565b92505060408401356001600160401b03811115610f4d57610f4d600080fd5b610f5986828701610ecd565b9150509250925092565b805b82525050565b60408101610f798285610f63565b61032f6020830184610f63565b610f6581610db5565b60208101610dc28284610f86565b6000610dc282610db5565b610dd181610f9d565b8035610dc281610fa8565b600060208284031215610fd157610fd1600080fd5b6000610ef18484610fb1565b801515610f65565b60208101610dc28284610fdd565b60006001600160401b0382111561100c5761100c610df8565b5060209081020190565b6000611024610e9a84610ff3565b8381529050602080820190840283018581111561104357611043600080fd5b835b8181101561106757806110588882610ded565b84525060209283019201611045565b5050509392505050565b600082601f83011261108557611085600080fd5b8135610ef1848260208601611016565b60006110a3610e9a84610ff3565b838152905060208082019084028301858111156110c2576110c2600080fd5b835b818110156110675780356001600160401b038111156110e5576110e5600080fd5b8086016110f28982610ecd565b85525050602092830192016110c4565b600082601f83011261111657611116600080fd5b8135610ef1848260208601611095565b6000611134610e9a84610ff3565b8381529050602080820190840283018581111561115357611153600080fd5b835b8181101561106757806111688882610ded565b84525060209283019201611155565b600082601f83011261118b5761118b600080fd5b8135610ef1848260208601611126565b600080600080608085870312156111b4576111b4600080fd5b84356001600160401b038111156111cd576111cd600080fd5b6111d987828801611071565b94505060208501356001600160401b038111156111f8576111f8600080fd5b61120487828801611102565b93505060408501356001600160401b0381111561122357611223600080fd5b61122f87828801611177565b92505060608501356001600160401b0381111561124e5761124e600080fd5b61125a87828801611177565b91505092959194509250565b60008060006060848603121561127e5761127e600080fd5b600061128a8686610ddc565b935050602061129b86828701610fb1565b9250506040610f5986828701610fb1565b600080604083850312156112c2576112c2600080fd5b60006112ce8585610ded565b92505060208301356001600160401b038111156112ed576112ed600080fd5b6112f985828601610ecd565b9150509250929050565b6000806000806080858703121561131c5761131c600080fd5b60006113288787610ded565b94505060208501356001600160401b0381111561134757611347600080fd5b61135387828801610ecd565b935050604061136487828801610ded565b925050606061125a87828801610ded565b6000806040838503121561138b5761138b600080fd5b82356001600160401b038111156113a4576113a4600080fd5b6113b085828601611071565b92505060208301356001600160401b038111156113cf576113cf600080fd5b6112f985828601611102565b60208101610dc28284610f63565b6000602082840312156113fe576113fe600080fd5b6000610ef18484610ddc565b60006001600160a01b038216610dc2565b6000610dc28261140a565b6000610dc28261141b565b610f6581611426565b60208101610dc28284611431565b60208082527f4f776e61626c653a2063616c6c6572206973206e6f7420746865206f776e6572910190815260005b5060200190565b60208082528101610dc281611448565b60005b838110156114a8578181015183820152602001611490565b8381111561055a5750506000910152565b60006114c3825190565b6114d181856020860161148d565b9290920192915050565b600061032f82846114b9565b801515610dd1565b8051610dc2816114e7565b60006020828403121561150f5761150f600080fd5b6000610ef184846114ef565b602981526000602082017f436f6e74656e745472616365723a2063616c6c6572206973206e6f742074686581526810383937bb34b232b960b91b602082015291505b5060400190565b60208082528101610dc28161151b565b602881526000602082017f436f6e74656e745472616365723a20496e76616c696420706172616d65746572815267103632b733ba341760c11b6020820152915061155d565b60208082528101610dc281611574565b634e487b7160e01b600052603260045260246000fd5b634e487b7160e01b600052601160045260246000fd5b6000600019821415611609576116096115df565b5060010190565b602e81526000602082017f496e697469616c697a61626c653a20636f6e747261637420697320616c72656181526d191e481a5b9a5d1a585b1a5e995960921b6020820152915061155d565b60208082528101610dc281611610565b601981526000602082017f436f6e74656e745472616365723a207a65726f2073697a652e0000000000000081529150611476565b60208082528101610dc28161166b565b602781526000602082017f436f6e74656e745472616365723a20496e76616c696420706172616d65746572815266040d8cadccee8d60cb1b6020820152915061155d565b60208082528101610dc2816116af565b602381526000602082017f436f6e74656e745472616365723a206e6f6e6578697374656e742070726f76698152623232b960e91b6020820152915061155d565b60208082528101610dc281611703565b602281526000602082017f436f6e74656e745472616365723a206e6f6e6578697374656e7420636f6e74658152611b9d60f21b6020820152915061155d565b60208082528101610dc281611753565b602681526000602082017f4f776e61626c653a206e6577206f776e657220697320746865207a65726f206181526564647265737360d01b6020820152915061155d565b60208082528101610dc2816117a2565b601d81526000602082017f436f6e74656e745472616365723a20636f6e74656e742065786973747300000081529150611476565b60208082528101610dc2816117f5565b601e81526000602082017f436f6e74656e745472616365723a206163636f756e742065787069726564000081529150611476565b60208082528101610dc281611839565b8051610dc281610de7565b60006020828403121561189d5761189d600080fd5b6000610ef1848461187d565b60006118b3825190565b8084526020840193506118ca81856020860161148d565b601f01601f19169290920192915050565b60c081016118e98289610f86565b6118f66020830188610f63565b818103604083015261190881876118a9565b90506119176060830186610f63565b6119246080830185610f63565b61193160a0830184610f63565b979650505050505050565b602b81526000602082017f496e697469616c697a61626c653a20636f6e7472616374206973206e6f74206981526a6e697469616c697a696e6760a81b6020820152915061155d565b60208082528101610dc28161193c565b60a081016119a28288610f86565b6119af6020830187610f63565b81810360408301526119c181866118a9565b90506119d06060830185610f63565b6119dd6080830184610f63565b969550505050505056fea2646970667358221220ccfb80c772dc30eb5740ad42edb67abf7acd721fc01be717c5c8b9583a80339164736f6c63430008090033",
  "devdoc": {
    "author": "Alexandas",
    "details": "IPFS content tracer",
    "events": {
      "ControllerUpdated(address)": {
        "details": "emit when ipfs storage controller updated",
        "params": {
          "controller": "ipfs storage controller"
        }
      },
      "Insert(address,bytes32,string,uint256,uint256,uint256)": {
        "details": "emit when ipfs content inserted",
        "params": {
          "account": "user account",
          "content": "ipfs content",
          "count": "ipfs content count",
          "expiration": "ipfs content expiration",
          "provider": "provider address",
          "size": "ipfs content size"
        }
      },
      "Remove(address,bytes32,string,uint256,uint256)": {
        "details": "emit when ipfs content removed",
        "params": {
          "account": "user account",
          "content": "ipfs content",
          "count": "ipfs content count",
          "provider": "provider address",
          "size": "ipfs content size"
        }
      }
    },
    "kind": "dev",
    "methods": {
      "exists(address,bytes32,string)": {
        "details": "return whether ipfs content exists in provider",
        "params": {
          "account": "user account",
          "content": "ipfs content",
          "provider": "provider address"
        },
        "returns": {
          "_0": "ipfs ipfs content exists"
        }
      },
      "initialize(address,address,address)": {
        "details": "proxy initialize function",
        "params": {
          "controller": "ipfs storage controller",
          "owner": "contract owner",
          "providers": "providers contract address"
        }
      },
      "insert(bytes32,string,uint256,uint256)": {
        "details": "insert ipfs content",
        "params": {
          "account": "user account",
          "content": "ipfs content",
          "size": "ipfs account size"
        }
      },
      "insertMult(bytes32[],string[],uint256[],uint256[])": {
        "details": "insert multiple ipfs content for accounts",
        "params": {
          "accounts": "array of user account",
          "contents": "array of ipfs contents",
          "counts": "array of ipfs content count",
          "sizes": "array of ipfs content size"
        }
      },
      "owner()": {
        "details": "Returns the address of the current owner."
      },
      "remove(bytes32,string)": {
        "details": "remove ipfs content",
        "params": {
          "account": "user account",
          "content": "ipfs content"
        }
      },
      "removeMult(bytes32[],string[])": {
        "details": "remove ipfs content",
        "params": {
          "accounts": "array of user account",
          "contents": "array of ipfs contents"
        }
      },
      "renounceOwnership()": {
        "details": "Leaves the contract without owner. It will not be possible to call `onlyOwner` functions anymore. Can only be called by the current owner. NOTE: Renouncing ownership will leave the contract without an owner, thereby removing any functionality that is only available to the owner."
      },
      "setController(address)": {
        "details": "update ipfs storage controller",
        "params": {
          "_controller": "ipfs storage controller"
        }
      },
      "size(address,bytes32,string)": {
        "details": "return ipfs content size",
        "params": {
          "account": "user account",
          "content": "ipfs content",
          "provider": "provider address"
        },
        "returns": {
          "_0": "ipfs ipfs content size"
        }
      },
      "transferOwnership(address)": {
        "details": "Transfers ownership of the contract to a new account (`newOwner`). Can only be called by the current owner."
      }
    },
    "stateVariables": {
      "controller": {
        "details": "ipfs storage controller"
      },
      "metas": {
        "details": "ipfs content content meta"
      }
    },
    "version": 1
  },
  "userdoc": {
    "kind": "user",
    "methods": {},
    "version": 1
  },
  "storageLayout": {
    "storage": [
      {
        "astId": 147,
        "contract": "contracts/ipfs/ContentTracer.sol:ContentTracer",
        "label": "_initialized",
        "offset": 0,
        "slot": "0",
        "type": "t_bool"
      },
      {
        "astId": 150,
        "contract": "contracts/ipfs/ContentTracer.sol:ContentTracer",
        "label": "_initializing",
        "offset": 1,
        "slot": "0",
        "type": "t_bool"
      },
      {
        "astId": 7037,
        "contract": "contracts/ipfs/ContentTracer.sol:ContentTracer",
        "label": "providers",
        "offset": 2,
        "slot": "0",
        "type": "t_contract(IProviders)4279"
      },
      {
        "astId": 970,
        "contract": "contracts/ipfs/ContentTracer.sol:ContentTracer",
        "label": "__gap",
        "offset": 0,
        "slot": "1",
        "type": "t_array(t_uint256)50_storage"
      },
      {
        "astId": 10,
        "contract": "contracts/ipfs/ContentTracer.sol:ContentTracer",
        "label": "_owner",
        "offset": 0,
        "slot": "51",
        "type": "t_address"
      },
      {
        "astId": 122,
        "contract": "contracts/ipfs/ContentTracer.sol:ContentTracer",
        "label": "__gap",
        "offset": 0,
        "slot": "52",
        "type": "t_array(t_uint256)49_storage"
      },
      {
        "astId": 4315,
        "contract": "contracts/ipfs/ContentTracer.sol:ContentTracer",
        "label": "controller",
        "offset": 0,
        "slot": "101",
        "type": "t_contract(IIPFSStorageController)8522"
      },
      {
        "astId": 4330,
        "contract": "contracts/ipfs/ContentTracer.sol:ContentTracer",
        "label": "metas",
        "offset": 0,
        "slot": "102",
        "type": "t_mapping(t_address,t_mapping(t_bytes32,t_mapping(t_string_memory_ptr,t_struct(ContentMeta)4320_storage)))"
      }
    ],
    "types": {
      "t_address": {
        "encoding": "inplace",
        "label": "address",
        "numberOfBytes": "20"
      },
      "t_array(t_uint256)49_storage": {
        "base": "t_uint256",
        "encoding": "inplace",
        "label": "uint256[49]",
        "numberOfBytes": "1568"
      },
      "t_array(t_uint256)50_storage": {
        "base": "t_uint256",
        "encoding": "inplace",
        "label": "uint256[50]",
        "numberOfBytes": "1600"
      },
      "t_bool": {
        "encoding": "inplace",
        "label": "bool",
        "numberOfBytes": "1"
      },
      "t_bytes32": {
        "encoding": "inplace",
        "label": "bytes32",
        "numberOfBytes": "32"
      },
      "t_contract(IIPFSStorageController)8522": {
        "encoding": "inplace",
        "label": "contract IIPFSStorageController",
        "numberOfBytes": "20"
      },
      "t_contract(IProviders)4279": {
        "encoding": "inplace",
        "label": "contract IProviders",
        "numberOfBytes": "20"
      },
      "t_mapping(t_address,t_mapping(t_bytes32,t_mapping(t_string_memory_ptr,t_struct(ContentMeta)4320_storage)))": {
        "encoding": "mapping",
        "key": "t_address",
        "label": "mapping(address => mapping(bytes32 => mapping(string => struct ContentTracer.ContentMeta)))",
        "numberOfBytes": "32",
        "value": "t_mapping(t_bytes32,t_mapping(t_string_memory_ptr,t_struct(ContentMeta)4320_storage))"
      },
      "t_mapping(t_bytes32,t_mapping(t_string_memory_ptr,t_struct(ContentMeta)4320_storage))": {
        "encoding": "mapping",
        "key": "t_bytes32",
        "label": "mapping(bytes32 => mapping(string => struct ContentTracer.ContentMeta))",
        "numberOfBytes": "32",
        "value": "t_mapping(t_string_memory_ptr,t_struct(ContentMeta)4320_storage)"
      },
      "t_mapping(t_string_memory_ptr,t_struct(ContentMeta)4320_storage)": {
        "encoding": "mapping",
        "key": "t_string_memory_ptr",
        "label": "mapping(string => struct ContentTracer.ContentMeta)",
        "numberOfBytes": "32",
        "value": "t_struct(ContentMeta)4320_storage"
      },
      "t_string_memory_ptr": {
        "encoding": "bytes",
        "label": "string",
        "numberOfBytes": "32"
      },
      "t_struct(ContentMeta)4320_storage": {
        "encoding": "inplace",
        "label": "struct ContentTracer.ContentMeta",
        "members": [
          {
            "astId": 4317,
            "contract": "contracts/ipfs/ContentTracer.sol:ContentTracer",
            "label": "size",
            "offset": 0,
            "slot": "0",
            "type": "t_uint256"
          },
          {
            "astId": 4319,
            "contract": "contracts/ipfs/ContentTracer.sol:ContentTracer",
            "label": "count",
            "offset": 0,
            "slot": "1",
            "type": "t_uint256"
          }
        ],
        "numberOfBytes": "64"
      },
      "t_uint256": {
        "encoding": "inplace",
        "label": "uint256",
        "numberOfBytes": "32"
      }
    }
  }
}