{
  "address": "0xd69B0579B4DE5B619db9e019088C7049557Cd309",
  "abi": [
    {
      "inputs": [],
      "stateMutability": "nonpayable",
      "type": "constructor"
    },
    {
      "anonymous": false,
      "inputs": [
        {
          "indexed": false,
          "internalType": "contract INormalResourceController",
          "name": "_arStorageController",
          "type": "address"
        }
      ],
      "name": "ARStorageControllerUpdated",
      "type": "event"
    },
    {
      "anonymous": false,
      "inputs": [
        {
          "indexed": false,
          "internalType": "contract INormalResourceController",
          "name": "_bandwidthController",
          "type": "address"
        }
      ],
      "name": "BandwidthControllerUpdated",
      "type": "event"
    },
    {
      "anonymous": false,
      "inputs": [
        {
          "indexed": false,
          "internalType": "contract INormalResourceController",
          "name": "_buildingTimeController",
          "type": "address"
        }
      ],
      "name": "BuildingTimeControllerUpdated",
      "type": "event"
    },
    {
      "anonymous": false,
      "inputs": [
        {
          "indexed": false,
          "internalType": "contract IIPFSStorageController",
          "name": "_ipfsStorageController",
          "type": "address"
        }
      ],
      "name": "IPFSStorageControllerUpdated",
      "type": "event"
    },
    {
      "anonymous": false,
      "inputs": [
        {
          "indexed": false,
          "internalType": "address",
          "name": "messageReceiver",
          "type": "address"
        }
      ],
      "name": "MessageReceiverUpdated",
      "type": "event"
    },
    {
      "anonymous": false,
      "inputs": [
        {
          "indexed": false,
          "internalType": "address",
          "name": "to",
          "type": "address"
        },
        {
          "indexed": false,
          "internalType": "uint256",
          "name": "value",
          "type": "uint256"
        }
      ],
      "name": "NativeWithdrawal",
      "type": "event"
    },
    {
      "anonymous": false,
      "inputs": [
        {
          "indexed": true,
          "internalType": "address",
          "name": "previousOwner",
          "type": "address"
        },
        {
          "indexed": true,
          "internalType": "address",
          "name": "newOwner",
          "type": "address"
        }
      ],
      "name": "OwnershipTransferred",
      "type": "event"
    },
    {
      "anonymous": false,
      "inputs": [
        {
          "indexed": false,
          "internalType": "address",
          "name": "payer",
          "type": "address"
        },
        {
          "indexed": false,
          "internalType": "contract IERC20Upgradeable",
          "name": "token",
          "type": "address"
        },
        {
          "components": [
            {
              "internalType": "address",
              "name": "provider",
              "type": "address"
            },
            {
              "internalType": "uint64",
              "name": "nonce",
              "type": "uint64"
            },
            {
              "internalType": "bytes32",
              "name": "account",
              "type": "bytes32"
            },
            {
              "components": [
                {
                  "internalType": "enum ResourceData.ResourceType",
                  "name": "resourceType",
                  "type": "uint8"
                },
                {
                  "internalType": "uint256[]",
                  "name": "values",
                  "type": "uint256[]"
                }
              ],
              "internalType": "struct ResourceData.Payload[]",
              "name": "payloads",
              "type": "tuple[]"
            }
          ],
          "indexed": false,
          "internalType": "struct IDstChainPayment.PaymentPayload",
          "name": "payload",
          "type": "tuple"
        }
      ],
      "name": "Paid",
      "type": "event"
    },
    {
      "anonymous": false,
      "inputs": [
        {
          "indexed": false,
          "internalType": "address",
          "name": "account",
          "type": "address"
        }
      ],
      "name": "Paused",
      "type": "event"
    },
    {
      "anonymous": false,
      "inputs": [
        {
          "indexed": false,
          "internalType": "address",
          "name": "account",
          "type": "address"
        }
      ],
      "name": "PauserAdded",
      "type": "event"
    },
    {
      "anonymous": false,
      "inputs": [
        {
          "indexed": false,
          "internalType": "address",
          "name": "account",
          "type": "address"
        }
      ],
      "name": "PauserRemoved",
      "type": "event"
    },
    {
      "anonymous": false,
      "inputs": [
        {
          "indexed": false,
          "internalType": "contract IProviders",
          "name": "providers",
          "type": "address"
        }
      ],
      "name": "ProvidersUpdated",
      "type": "event"
    },
    {
      "anonymous": false,
      "inputs": [
        {
          "indexed": false,
          "internalType": "contract IERC20Upgradeable",
          "name": "token",
          "type": "address"
        }
      ],
      "name": "TokenUpdated",
      "type": "event"
    },
    {
      "anonymous": false,
      "inputs": [
        {
          "indexed": false,
          "internalType": "address",
          "name": "account",
          "type": "address"
        }
      ],
      "name": "Unpaused",
      "type": "event"
    },
    {
      "anonymous": false,
      "inputs": [
        {
          "indexed": false,
          "internalType": "contract IERC20Upgradeable",
          "name": "token",
          "type": "address"
        },
        {
          "indexed": false,
          "internalType": "address",
          "name": "to",
          "type": "address"
        },
        {
          "indexed": false,
          "internalType": "uint256",
          "name": "value",
          "type": "uint256"
        }
      ],
      "name": "Withdrawal",
      "type": "event"
    },
    {
      "inputs": [
        {
          "internalType": "address",
          "name": "account",
          "type": "address"
        }
      ],
      "name": "addPauser",
      "outputs": [],
      "stateMutability": "nonpayable",
      "type": "function"
    },
    {
      "inputs": [],
      "name": "arStorageController",
      "outputs": [
        {
          "internalType": "contract INormalResourceController",
          "name": "",
          "type": "address"
        }
      ],
      "stateMutability": "view",
      "type": "function"
    },
    {
      "inputs": [],
      "name": "bandwidthController",
      "outputs": [
        {
          "internalType": "contract INormalResourceController",
          "name": "",
          "type": "address"
        }
      ],
      "stateMutability": "view",
      "type": "function"
    },
    {
      "inputs": [],
      "name": "buildingTimeController",
      "outputs": [
        {
          "internalType": "contract INormalResourceController",
          "name": "",
          "type": "address"
        }
      ],
      "stateMutability": "view",
      "type": "function"
    },
    {
      "inputs": [
        {
          "internalType": "uint256",
          "name": "amount",
          "type": "uint256"
        },
        {
          "components": [
            {
              "internalType": "enum ResourceData.ResourceType",
              "name": "resourceType",
              "type": "uint8"
            },
            {
              "internalType": "uint256[]",
              "name": "values",
              "type": "uint256[]"
            }
          ],
          "internalType": "struct ResourceData.Payload[]",
          "name": "payloads",
          "type": "tuple[]"
        }
      ],
      "name": "convertSourceChainPayloads",
      "outputs": [
        {
          "components": [
            {
              "internalType": "enum ResourceData.ResourceType",
              "name": "resourceType",
              "type": "uint8"
            },
            {
              "internalType": "uint256[]",
              "name": "values",
              "type": "uint256[]"
            }
          ],
          "internalType": "struct ResourceData.Payload[]",
          "name": "",
          "type": "tuple[]"
        }
      ],
      "stateMutability": "view",
      "type": "function"
    },
    {
      "inputs": [
        {
          "internalType": "bytes",
          "name": "message",
          "type": "bytes"
        }
      ],
      "name": "decodeSourceChainMessage",
      "outputs": [
        {
          "internalType": "address",
          "name": "provider",
          "type": "address"
        },
        {
          "internalType": "uint64",
          "name": "nonce",
          "type": "uint64"
        },
        {
          "internalType": "bytes32",
          "name": "account",
          "type": "bytes32"
        },
        {
          "components": [
            {
              "internalType": "enum ResourceData.ResourceType",
              "name": "resourceType",
              "type": "uint8"
            },
            {
              "internalType": "uint256[]",
              "name": "values",
              "type": "uint256[]"
            }
          ],
          "internalType": "struct ResourceData.Payload[]",
          "name": "payloads",
          "type": "tuple[]"
        }
      ],
      "stateMutability": "view",
      "type": "function"
    },
    {
      "inputs": [
        {
          "internalType": "address",
          "name": "owner",
          "type": "address"
        },
        {
          "internalType": "address",
          "name": "pauser",
          "type": "address"
        },
        {
          "internalType": "contract IProviders",
          "name": "providers",
          "type": "address"
        },
        {
          "internalType": "address",
          "name": "messageReceiver",
          "type": "address"
        },
        {
          "internalType": "contract IERC20Upgradeable",
          "name": "token",
          "type": "address"
        }
      ],
      "name": "initialize",
      "outputs": [],
      "stateMutability": "nonpayable",
      "type": "function"
    },
    {
      "inputs": [],
      "name": "ipfsStorageController",
      "outputs": [
        {
          "internalType": "contract IIPFSStorageController",
          "name": "",
          "type": "address"
        }
      ],
      "stateMutability": "view",
      "type": "function"
    },
    {
      "inputs": [
        {
          "internalType": "address",
          "name": "account",
          "type": "address"
        }
      ],
      "name": "isPauser",
      "outputs": [
        {
          "internalType": "bool",
          "name": "",
          "type": "bool"
        }
      ],
      "stateMutability": "view",
      "type": "function"
    },
    {
      "inputs": [],
      "name": "messageReceiver",
      "outputs": [
        {
          "internalType": "address",
          "name": "",
          "type": "address"
        }
      ],
      "stateMutability": "view",
      "type": "function"
    },
    {
      "inputs": [],
      "name": "owner",
      "outputs": [
        {
          "internalType": "address",
          "name": "",
          "type": "address"
        }
      ],
      "stateMutability": "view",
      "type": "function"
    },
    {
      "inputs": [
        {
          "internalType": "contract IERC20Upgradeable",
          "name": "token",
          "type": "address"
        },
        {
          "internalType": "address",
          "name": "to",
          "type": "address"
        },
        {
          "internalType": "uint256",
          "name": "value",
          "type": "uint256"
        }
      ],
      "name": "ownerWithdrawERC20",
      "outputs": [],
      "stateMutability": "nonpayable",
      "type": "function"
    },
    {
      "inputs": [
        {
          "internalType": "address payable",
          "name": "to",
          "type": "address"
        },
        {
          "internalType": "uint256",
          "name": "value",
          "type": "uint256"
        }
      ],
      "name": "ownerWithdrawNative",
      "outputs": [],
      "stateMutability": "nonpayable",
      "type": "function"
    },
    {
      "inputs": [],
      "name": "pause",
      "outputs": [],
      "stateMutability": "nonpayable",
      "type": "function"
    },
    {
      "inputs": [],
      "name": "paused",
      "outputs": [
        {
          "internalType": "bool",
          "name": "",
          "type": "bool"
        }
      ],
      "stateMutability": "view",
      "type": "function"
    },
    {
      "inputs": [
        {
          "internalType": "address",
          "name": "",
          "type": "address"
        }
      ],
      "name": "pausers",
      "outputs": [
        {
          "internalType": "bool",
          "name": "",
          "type": "bool"
        }
      ],
      "stateMutability": "view",
      "type": "function"
    },
    {
      "inputs": [
        {
          "components": [
            {
              "internalType": "address",
              "name": "provider",
              "type": "address"
            },
            {
              "internalType": "uint64",
              "name": "nonce",
              "type": "uint64"
            },
            {
              "internalType": "bytes32",
              "name": "account",
              "type": "bytes32"
            },
            {
              "components": [
                {
                  "internalType": "enum ResourceData.ResourceType",
                  "name": "resourceType",
                  "type": "uint8"
                },
                {
                  "internalType": "uint256[]",
                  "name": "values",
                  "type": "uint256[]"
                }
              ],
              "internalType": "struct ResourceData.Payload[]",
              "name": "payloads",
              "type": "tuple[]"
            }
          ],
          "internalType": "struct IDstChainPayment.PaymentPayload",
          "name": "payload",
          "type": "tuple"
        }
      ],
      "name": "pay",
      "outputs": [
        {
          "internalType": "uint256",
          "name": "value",
          "type": "uint256"
        }
      ],
      "stateMutability": "nonpayable",
      "type": "function"
    },
    {
      "inputs": [
        {
          "internalType": "contract IERC20Upgradeable",
          "name": "_token",
          "type": "address"
        },
        {
          "internalType": "uint256",
          "name": "dstAmount",
          "type": "uint256"
        },
        {
          "internalType": "bytes",
          "name": "message",
          "type": "bytes"
        }
      ],
      "name": "payFromSourceChain",
      "outputs": [
        {
          "internalType": "uint256",
          "name": "value",
          "type": "uint256"
        }
      ],
      "stateMutability": "nonpayable",
      "type": "function"
    },
    {
      "inputs": [],
      "name": "providers",
      "outputs": [
        {
          "internalType": "contract IProviders",
          "name": "",
          "type": "address"
        }
      ],
      "stateMutability": "view",
      "type": "function"
    },
    {
      "inputs": [
        {
          "internalType": "address",
          "name": "account",
          "type": "address"
        }
      ],
      "name": "removePauser",
      "outputs": [],
      "stateMutability": "nonpayable",
      "type": "function"
    },
    {
      "inputs": [],
      "name": "renounceOwnership",
      "outputs": [],
      "stateMutability": "nonpayable",
      "type": "function"
    },
    {
      "inputs": [],
      "name": "renouncePauser",
      "outputs": [],
      "stateMutability": "nonpayable",
      "type": "function"
    },
    {
      "inputs": [
        {
          "internalType": "contract INormalResourceController",
          "name": "_arStorageController",
          "type": "address"
        }
      ],
      "name": "setARStorageController",
      "outputs": [],
      "stateMutability": "nonpayable",
      "type": "function"
    },
    {
      "inputs": [
        {
          "internalType": "contract INormalResourceController",
          "name": "_bandwidthController",
          "type": "address"
        }
      ],
      "name": "setBandwidthController",
      "outputs": [],
      "stateMutability": "nonpayable",
      "type": "function"
    },
    {
      "inputs": [
        {
          "internalType": "contract INormalResourceController",
          "name": "_buildingTimeController",
          "type": "address"
        }
      ],
      "name": "setBuildingTimeController",
      "outputs": [],
      "stateMutability": "nonpayable",
      "type": "function"
    },
    {
      "inputs": [
        {
          "internalType": "contract IIPFSStorageController",
          "name": "_ipfsStorageController",
          "type": "address"
        }
      ],
      "name": "setIPFSStorageController",
      "outputs": [],
      "stateMutability": "nonpayable",
      "type": "function"
    },
    {
      "inputs": [
        {
          "internalType": "address",
          "name": "_messageReceiver",
          "type": "address"
        }
      ],
      "name": "setMessageReceiver",
      "outputs": [],
      "stateMutability": "nonpayable",
      "type": "function"
    },
    {
      "inputs": [
        {
          "internalType": "contract IERC20Upgradeable",
          "name": "_token",
          "type": "address"
        }
      ],
      "name": "setToken",
      "outputs": [],
      "stateMutability": "nonpayable",
      "type": "function"
    },
    {
      "inputs": [],
      "name": "token",
      "outputs": [
        {
          "internalType": "contract IERC20Upgradeable",
          "name": "",
          "type": "address"
        }
      ],
      "stateMutability": "view",
      "type": "function"
    },
    {
      "inputs": [
        {
          "components": [
            {
              "internalType": "enum ResourceData.ResourceType",
              "name": "resourceType",
              "type": "uint8"
            },
            {
              "internalType": "uint256[]",
              "name": "values",
              "type": "uint256[]"
            }
          ],
          "internalType": "struct ResourceData.Payload[]",
          "name": "payloads",
          "type": "tuple[]"
        }
      ],
      "name": "totalValue",
      "outputs": [
        {
          "internalType": "uint256",
          "name": "value",
          "type": "uint256"
        }
      ],
      "stateMutability": "pure",
      "type": "function"
    },
    {
      "inputs": [
        {
          "internalType": "address",
          "name": "newOwner",
          "type": "address"
        }
      ],
      "name": "transferOwnership",
      "outputs": [],
      "stateMutability": "nonpayable",
      "type": "function"
    },
    {
      "inputs": [],
      "name": "unpause",
      "outputs": [],
      "stateMutability": "nonpayable",
      "type": "function"
    }
  ],
  "transactionHash": "0xc73ab918c6591043422b0804e2194ee376879bb9c3149c4d303ed83f86e6a3c0",
  "args": [],
  "solcInputHash": "da9c392996f5bb5463935f1dd409f50d",
  "bytecode": "0x60806040523480156200001157600080fd5b50600054610100900460ff166200002f5760005460ff161562000039565b620000396200009e565b620000615760405162461bcd60e51b81526004016200005890620000cb565b60405180910390fd5b600054610100900460ff1615801562000084576000805461ffff19166101011790555b801562000097576000805461ff00191690555b5062000124565b6000620000b630620000bc60201b62000ca61760201c565b15905090565b6001600160a01b03163b151590565b602080825281016200011e81602e81527f496e697469616c697a61626c653a20636f6e747261637420697320616c72656160208201526d191e481a5b9a5d1a585b1a5e995960921b604082015260600190565b92915050565b612f9b80620001346000396000f3fe608060405234801561001057600080fd5b50600436106101f05760003560e01c80637a7fa7531161010f578063bb371111116100a2578063f2fde38b11610071578063f2fde38b14610442578063f8401fe614610455578063f8f071fa14610468578063fc0c546a1461047b57600080fd5b8063bb371111146103e6578063bd169975146103f9578063e2cae9f51461041c578063e84372491461042f57600080fd5b80638da5cb5b116100de5780638da5cb5b14610393578063914fd2c3146103ad57806393563a95146103c0578063b05f87a8146103d357600080fd5b80637a7fa7531461034257806380f51c121461035557806382dc1ec4146103785780638456cb591461038b57600080fd5b8063490e4fa2116101875780636b2c0f55116101565780636b2c0f551461030c5780636ef8d66d1461031f578063715018a61461032757806377ef533c1461032f57600080fd5b8063490e4fa2146102a75780635618ce2d146102c75780635c975abb146102e7578063699256f4146102f957600080fd5b80633b8ccfb1116101c35780633b8ccfb1146102595780633f4ba83a1461026c5780634540a85b1461027457806346fbf68e1461028757600080fd5b8063144fa6d7146101f55780631459457a1461020a57806315e077691461021d57806329dbfc7514610246575b600080fd5b6102086102033660046119a4565b61048e565b005b6102086102183660046119d9565b6104cd565b609b54610230906001600160a01b031681565b60405161023d9190611a6b565b60405180910390f35b609954610230906001600160a01b031681565b610208610267366004611a79565b610571565b6102086105a4565b6102086102823660046119a4565b6105d3565b61029a610295366004611a79565b610606565b60405161023d9190611aa2565b6102ba6102b5366004611d79565b610624565b60405161023d9190611db9565b6102da6102d5366004611dc7565b6106fc565b60405161023d9190611f66565b609c54600160a01b900460ff1661029a565b610208610307366004611f77565b610711565b61020861031a366004611a79565b6107bf565b6102086107f2565b6102086107fb565b6102ba61033d366004611ffb565b61082f565b6102086103503660046119a4565b6109ec565b61029a610363366004611a79565b60ce6020526000908152604090205460ff1681565b610208610386366004611a79565b610a1f565b610208610a52565b6033546001600160a01b03165b60405161023d9190612071565b6102086103bb3660046119a4565b610a7f565b6102086103ce36600461207f565b610ab2565b609c54610230906001600160a01b031681565b6102ba6103f43660046120cf565b610b23565b61040c610407366004612197565b610bf0565b60405161023d94939291906121e0565b6065546103a0906001600160a01b031681565b61020861043d3660046119a4565b610c1a565b610208610450366004611a79565b610c4d565b609854610230906001600160a01b031681565b609a54610230906001600160a01b031681565b60cf54610230906001600160a01b031681565b6033546001600160a01b031633146104c15760405162461bcd60e51b81526004016104b890612259565b60405180910390fd5b6104ca81610cb5565b50565b600054610100900460ff166104e85760005460ff16156104ec565b303b155b6105085760405162461bcd60e51b81526004016104b8906122b7565b600054610100900460ff1615801561052a576000805461ffff19166101011790555b61053386610d0b565b61053c85610d5d565b61054584610d84565b61054e83610db4565b61055782610ddb565b8015610569576000805461ff00191690555b505050505050565b6033546001600160a01b0316331461059b5760405162461bcd60e51b81526004016104b890612259565b6104ca81610e02565b6105ad33610606565b6105c95760405162461bcd60e51b81526004016104b8906122f9565b6105d1610e4d565b565b6033546001600160a01b031633146105fd5760405162461bcd60e51b81526004016104b890612259565b6104ca81610ebd565b6001600160a01b0316600090815260ce602052604090205460ff1690565b609c54600090600160a01b900460ff16156106515760405162461bcd60e51b81526004016104b890612330565b600260665414156106745760405162461bcd60e51b81526004016104b890612374565b60026066556040820151606083015161068f91906001610f08565b905061069a8161124a565b90506106aa82600001518261125b565b5060cf546040517f699b2f7653a6bfb60eabd345a469cd1a72cf9733ed0179acb41b3d0b8d6b8583916106ea9133916001600160a01b031690869061242f565b60405180910390a16001606655919050565b60606107088383611310565b90505b92915050565b6033546001600160a01b0316331461073b5760405162461bcd60e51b81526004016104b890612259565b6040516000906001600160a01b0384169083156108fc0290849084818181858888f193505050509050806107815760405162461bcd60e51b81526004016104b89061249e565b7f2c876ecb97b3c6854f2488d373403f903eacb800e51c159a5c0c7a9c857e482783836040516107b29291906124ae565b60405180910390a1505050565b6033546001600160a01b031633146107e95760405162461bcd60e51b81526004016104b890612259565b6104ca8161148e565b6105d13361148e565b6033546001600160a01b031633146108255760405162461bcd60e51b81526004016104b890612259565b6105d16000610d0b565b6065546000906001600160a01b0316331461085c5760405162461bcd60e51b81526004016104b89061251c565b609c54600160a01b900460ff16156108865760405162461bcd60e51b81526004016104b890612330565b600260665414156108a95760405162461bcd60e51b81526004016104b890612374565b600260665560cf546001600160a01b038681169116146108db5760405162461bcd60e51b81526004016104b890612560565b60008060008061092087878080601f016020809104026020016040519081016040528093929190818152602001838380828437600092019190915250610bf092505050565b935093509350935060006040518060800160405280866001600160a01b03168152602001856001600160401b0316815260200184815260200161096b6109658c611503565b85611310565b8152509050610984816040015182606001516000610f08565b508051610991908a61125b565b5060cf546040517f699b2f7653a6bfb60eabd345a469cd1a72cf9733ed0179acb41b3d0b8d6b8583916109d19133916001600160a01b031690859061242f565b60405180910390a15050600160665550919695505050505050565b6033546001600160a01b03163314610a165760405162461bcd60e51b81526004016104b890612259565b6104ca81611514565b6033546001600160a01b03163314610a495760405162461bcd60e51b81526004016104b890612259565b6104ca8161155f565b610a5b33610606565b610a775760405162461bcd60e51b81526004016104b8906122f9565b6105d16115d8565b6033546001600160a01b03163314610aa95760405162461bcd60e51b81526004016104b890612259565b6104ca8161163d565b6033546001600160a01b03163314610adc5760405162461bcd60e51b81526004016104b890612259565b610af06001600160a01b0384168383611688565b7f2717ead6b9200dd235aad468c9809ea400fe33ac69b5bfaa6d3e90fc922b63988383836040516107b293929190612570565b600080825111610b455760405162461bcd60e51b81526004016104b8906125df565b60005b8251811015610bea5760005b838281518110610b6657610b666125ef565b60200260200101516020015151811015610bd757610bc3848381518110610b8f57610b8f6125ef565b6020026020010151602001518281518110610bac57610bac6125ef565b6020026020010151846116e390919063ffffffff16565b925080610bcf8161261b565b915050610b54565b5080610be28161261b565b915050610b48565b50919050565b6000806000606084806020019051810190610c0b91906127c0565b92989197509550909350915050565b6033546001600160a01b03163314610c445760405162461bcd60e51b81526004016104b890612259565b6104ca816116ef565b6033546001600160a01b03163314610c775760405162461bcd60e51b81526004016104b890612259565b6001600160a01b038116610c9d5760405162461bcd60e51b81526004016104b890612881565b6104ca81610d0b565b6001600160a01b03163b151590565b60cf80546001600160a01b0319166001600160a01b0383161790556040517f5ba6b30cd4b2f9e9e67f4feb9b9df10d5da3b057598e6901b217b7d590345e3090610d00908390611a6b565b60405180910390a150565b603380546001600160a01b038381166001600160a01b0319831681179093556040519116919082907f8be0079c531659141344cd1fd0a4f28419497f9722a3daafe3b4186f6b6457e090600090a35050565b600054610100900460ff16610a495760405162461bcd60e51b81526004016104b8906128d9565b600054610100900460ff16610dab5760405162461bcd60e51b81526004016104b8906128d9565b6104ca8161173a565b600054610100900460ff1661059b5760405162461bcd60e51b81526004016104b8906128d9565b600054610100900460ff166104c15760405162461bcd60e51b81526004016104b8906128d9565b606580546001600160a01b0319166001600160a01b0383161790556040517fafe9b28ca24a54df8c44769c685f7b92824aae021cdfcaa4719d493571a23c4c90610d00908390612071565b609c54600160a01b900460ff16610e765760405162461bcd60e51b81526004016104b890612914565b609c805460ff60a01b191690557f5db9ee0a495bf2e6ff9c91a7834c1ba4fdd244a5e8aa4e537bd38aeae4b073aa335b604051610eb39190612071565b60405180910390a1565b609c80546001600160a01b0319166001600160a01b0383161790556040517f7b091d9397a2f75213edeec1728b27a9d863f0f8aafb62fce0f1154f48f110f890610d00908390611a6b565b600080835111610f2a5760405162461bcd60e51b81526004016104b890612962565b60005b8351811015611242576000848281518110610f4a57610f4a6125ef565b6020026020010151905060016004811115610f6757610f67611e1e565b81516004811115610f7a57610f7a611e1e565b141561102e57806020015151600114610fa55760405162461bcd60e51b81526004016104b8906129b3565b609954602082015180516001600160a01b039092169163467aa8de918991600090610fd257610fd26125ef565b60200260200101516040518363ffffffff1660e01b8152600401610ff79291906129c3565b600060405180830381600087803b15801561101157600080fd5b505af1158015611025573d6000803e3d6000fd5b505050506111d2565b60038151600481111561104357611043611e1e565b141561109b5780602001515160011461106e5760405162461bcd60e51b81526004016104b890612a0f565b609b54602082015180516001600160a01b039092169163467aa8de918991600090610fd257610fd26125ef565b6002815160048111156110b0576110b0611e1e565b1415611108578060200151516001146110db5760405162461bcd60e51b81526004016104b890612a5d565b609a54602082015180516001600160a01b039092169163467aa8de918991600090610fd257610fd26125ef565b60048151600481111561111d5761111d611e1e565b14156111ba578060200151516002146111485760405162461bcd60e51b81526004016104b890612aad565b609c54602082015180516001600160a01b0390921691634235fec0918991600090611175576111756125ef565b60200260200101518460200151600181518110611194576111946125ef565b60200260200101516040518463ffffffff1660e01b8152600401610ff793929190612abd565b60405162461bcd60e51b81526004016104b890612b1b565b831561122f5760005b81602001515181101561122d576112198260200151600081518110611202576112026125ef565b6020026020010151856116e390919063ffffffff16565b9350806112258161261b565b9150506111db565b505b508061123a8161261b565b915050610f2d565b509392505050565b600061070b8264e8d4a51000611785565b609854604051636b074a0760e01b81526000916001600160a01b031690636b074a079061128c908690600401612071565b60206040518083038186803b1580156112a457600080fd5b505afa1580156112b8573d6000803e3d6000fd5b505050506040513d601f19601f820116820180604052508101906112dc9190612b3e565b6112f85760405162461bcd60e51b81526004016104b890612ba1565b60cf5461070b906001600160a01b0316333085611791565b606060008251116113335760405162461bcd60e51b81526004016104b890612bf7565b600061133e83610b23565b9050600081116113605760405162461bcd60e51b81526004016104b890612c47565b60005b8351811015611485576000848281518110611380576113806125ef565b60200260200101516020015151116113aa5760405162461bcd60e51b81526004016104b890612c9b565b60005b8482815181106113bf576113bf6125ef565b602002602001015160200151518110156114725761142683611420888886815181106113ed576113ed6125ef565b602002602001015160200151858151811061140a5761140a6125ef565b60200260200101516117b890919063ffffffff16565b90611785565b858381518110611438576114386125ef565b6020026020010151602001518281518110611455576114556125ef565b60209081029190910101528061146a8161261b565b9150506113ad565b508061147d8161261b565b915050611363565b50919392505050565b61149781610606565b6114b35760405162461bcd60e51b81526004016104b890612cdf565b6001600160a01b038116600090815260ce602052604090819020805460ff19169055517fcd265ebaf09df2871cc7bd4133404a235ba12eff2041bb89d9c714a2621c7c7e90610d00908390612071565b600061070b8264e8d4a510006117b8565b609a80546001600160a01b0319166001600160a01b0383161790556040517f100702071f8eb4f459f5f9dcf12bba9b3aeafa0eca6a018364f645558d792c3790610d00908390611a6b565b61156881610606565b156115855760405162461bcd60e51b81526004016104b890612d2d565b6001600160a01b038116600090815260ce602052604090819020805460ff19166001179055517f6719d08c1888103bea251a4ed56406bd0c3e69723c8a1686e017e7bbe159b6f890610d00908390612071565b609c54600160a01b900460ff16156116025760405162461bcd60e51b81526004016104b890612330565b609c805460ff60a01b1916600160a01b1790557f62e78cea01bee320cd4e420270b5ea74000d11b0c9f74754ebdbfc544b05a258610ea63390565b609b80546001600160a01b0319166001600160a01b0383161790556040517f6a7e09ebc58179cd1c17c89209474e58d29e43b1bf78dd57f896e7be983220eb90610d00908390611a6b565b6116de8363a9059cbb60e01b84846040516024016116a7929190612d3d565b60408051601f198184030181529190526020810180516001600160e01b03166001600160e01b0319909316929092179091526117c4565b505050565b60006107088284612d4b565b609980546001600160a01b0319166001600160a01b0383161790556040517feb1b948f6c63784a1d91e42dd967c49aae87b1db36d3107e9b913963ae7cd03990610d00908390611a6b565b609880546001600160a01b0319166001600160a01b0383161790556040517fe63288198842f0dacdcbdc3f22dcd4e473d1f3cee7e10603ae6ddc3e667c528490610d00908390611a6b565b60006107088284612d79565b6117b2846323b872dd60e01b8585856040516024016116a793929190612d8d565b50505050565b60006107088284612d9b565b6000611819826040518060400160405280602081526020017f5361666545524332303a206c6f772d6c6576656c2063616c6c206661696c6564815250856001600160a01b03166118539092919063ffffffff16565b8051909150156116de57808060200190518101906118379190612b3e565b6116de5760405162461bcd60e51b81526004016104b890612e01565b6060611862848460008561186c565b90505b9392505050565b60608247101561188e5760405162461bcd60e51b81526004016104b890612e54565b6001600160a01b0385163b6118b55760405162461bcd60e51b81526004016104b890612e98565b600080866001600160a01b031685876040516118d19190612ef6565b60006040518083038185875af1925050503d806000811461190e576040519150601f19603f3d011682016040523d82523d6000602084013e611913565b606091505b5091509150611923828286611930565b925050505b949350505050565b6060831561193f575081611865565b82511561194f5782518084602001fd5b8160405162461bcd60e51b81526004016104b89190612f34565b60006001600160a01b03821661070b565b600061070b82611969565b61198e8161197a565b81146104ca57600080fd5b803561070b81611985565b6000602082840312156119b9576119b9600080fd5b60006119288484611999565b61198e81611969565b803561070b816119c5565b600080600080600060a086880312156119f4576119f4600080fd5b6000611a0088886119ce565b9550506020611a11888289016119ce565b9450506040611a2288828901611999565b9350506060611a33888289016119ce565b9250506080611a4488828901611999565b9150509295509295909350565b600061070b8261197a565b611a6581611a51565b82525050565b6020810161070b8284611a5c565b600060208284031215611a8e57611a8e600080fd5b600061192884846119ce565b801515611a65565b6020810161070b8284611a9a565b634e487b7160e01b600052604160045260246000fd5b601f19601f83011681018181106001600160401b0382111715611aeb57611aeb611ab0565b6040525050565b6000611afd60405190565b9050611b098282611ac6565b919050565b6001600160401b03811661198e565b803561070b81611b0e565b8061198e565b803561070b81611b28565b60006001600160401b03821115611b5257611b52611ab0565b5060209081020190565b600581106104ca57600080fd5b803561070b81611b5c565b6000611b87611b8284611b39565b611af2565b83815290506020808201908402830185811115611ba657611ba6600080fd5b835b81811015611bca5780611bbb8882611b2e565b84525060209283019201611ba8565b5050509392505050565b600082601f830112611be857611be8600080fd5b8135611928848260208601611b74565b600060408284031215611c0d57611c0d600080fd5b611c176040611af2565b90506000611c258484611b69565b82525060208201356001600160401b03811115611c4457611c44600080fd5b611c5084828501611bd4565b60208301525092915050565b6000611c6a611b8284611b39565b83815290506020808201908402830185811115611c8957611c89600080fd5b835b81811015611bca5780356001600160401b03811115611cac57611cac600080fd5b808601611cb98982611bf8565b8552505060209283019201611c8b565b600082601f830112611cdd57611cdd600080fd5b8135611928848260208601611c5c565b600060808284031215611d0257611d02600080fd5b611d0c6080611af2565b90506000611d1a84846119ce565b8252506020611d2b84848301611b1d565b6020830152506040611d3f84828501611b2e565b60408301525060608201356001600160401b03811115611d6157611d61600080fd5b611d6d84828501611cc9565b60608301525092915050565b600060208284031215611d8e57611d8e600080fd5b81356001600160401b03811115611da757611da7600080fd5b61192884828501611ced565b80611a65565b6020810161070b8284611db3565b60008060408385031215611ddd57611ddd600080fd5b6000611de98585611b2e565b92505060208301356001600160401b03811115611e0857611e08600080fd5b611e1485828601611cc9565b9150509250929050565b634e487b7160e01b600052602160045260246000fd5b600581106104ca576104ca611e1e565b80611b0981611e34565b600061070b82611e44565b611a6581611e4e565b6000611e6e8383611db3565b505060200190565b6000611e80825190565b80845260209384019383018060005b83811015611eb4578151611ea38882611e62565b975060208301925050600101611e8f565b509495945050505050565b80516000906040840190611ed38582611e59565b5060208301518482036020860152611eeb8282611e76565b95945050505050565b60006107088383611ebf565b6000611f0a825190565b80845260208401935083602082028501611f248560200190565b8060005b85811015611f595784840389528151611f418582611ef4565b94506020830160209a909a0199925050600101611f28565b5091979650505050505050565b602080825281016107088184611f00565b60008060408385031215611f8d57611f8d600080fd5b6000611f9985856119ce565b9250506020611e1485828601611b2e565b60008083601f840112611fbf57611fbf600080fd5b5081356001600160401b03811115611fd957611fd9600080fd5b602083019150836001820283011115611ff457611ff4600080fd5b9250929050565b6000806000806060858703121561201457612014600080fd5b60006120208787611999565b945050602061203187828801611b2e565b93505060408501356001600160401b0381111561205057612050600080fd5b61205c87828801611faa565b95989497509550505050565b611a6581611969565b6020810161070b8284612068565b60008060006060848603121561209757612097600080fd5b60006120a38686611999565b93505060206120b4868287016119ce565b92505060406120c586828701611b2e565b9150509250925092565b6000602082840312156120e4576120e4600080fd5b81356001600160401b038111156120fd576120fd600080fd5b61192884828501611cc9565b60006001600160401b0382111561212257612122611ab0565b601f19601f83011660200192915050565b82818337506000910152565b600061214d611b8284612109565b90508281526020810184848401111561216857612168600080fd5b611242848285612133565b600082601f83011261218757612187600080fd5b813561192884826020860161213f565b6000602082840312156121ac576121ac600080fd5b81356001600160401b038111156121c5576121c5600080fd5b61192884828501612173565b6001600160401b038116611a65565b608081016121ee8287612068565b6121fb60208301866121d1565b6122086040830185611db3565b818103606083015261221a8184611f00565b9695505050505050565b60208082527f4f776e61626c653a2063616c6c6572206973206e6f7420746865206f776e6572910190815260005b5060200190565b6020808252810161070b81612224565b602e81526000602082017f496e697469616c697a61626c653a20636f6e747261637420697320616c72656181526d191e481a5b9a5d1a585b1a5e995960921b602082015291505b5060400190565b6020808252810161070b81612269565b60208082527f5061757365723a2063616c6c6572206973206e6f74207468652070617573657291019081526000612252565b6020808252810161070b816122c7565b601081526000602082016f14185d5cd8589b194e881c185d5cd95960821b81529150612252565b6020808252810161070b81612309565b601f81526000602082017f5265656e7472616e637947756172643a207265656e7472616e742063616c6c0081529150612252565b6020808252810161070b81612340565b600061238e825190565b808452602084019350836020820285016123a88560200190565b8060005b85811015611f5957848403895281516123c58582611ef4565b94506020830160209a909a01999250506001016123ac565b805160009060808401906123f18582612068565b50602083015161240460208601826121d1565b5060408301516124176040860182611db3565b5060608301518482036060860152611eeb8282612384565b6060810161243d8286612068565b61244a6020830185611a5c565b8181036040830152611eeb81846123dd565b602581526000602082017f5061796d656e743a207769746864726177206e617469766520746f6b656e2066815264185a5b195960da1b602082015291506122b0565b6020808252810161070b8161245c565b604081016124bc8285611a5c565b6118656020830184611db3565b603681526000602082017f4d6573736167655265636569766572577261707065723a2063616c6c6572206981527539903737ba1036b2b9b9b0b3b2903932b1b2b4bb32b960511b602082015291506122b0565b6020808252810161070b816124c9565b601e81526000602082017f447374436861696e5061796d656e743a20696e76616c696420746f6b656e000081529150612252565b6020808252810161070b8161252c565b6060810161257e8286611a5c565b61258b6020830185612068565b6119286040830184611db3565b602a81526000602082017f5265736f75725061796c6f6164546f6f6c3a20696e76616c6964207061796c6f8152690c2c8e640d8cadccee8d60b31b602082015291506122b0565b6020808252810161070b81612598565b634e487b7160e01b600052603260045260246000fd5b634e487b7160e01b600052601160045260246000fd5b600060001982141561262f5761262f612605565b5060010190565b805161070b816119c5565b805161070b81611b0e565b805161070b81611b28565b805161070b81611b5c565b6000612670611b8284611b39565b8381529050602080820190840283018581111561268f5761268f600080fd5b835b81811015611bca57806126a4888261264c565b84525060209283019201612691565b600082601f8301126126c7576126c7600080fd5b8151611928848260208601612662565b6000604082840312156126ec576126ec600080fd5b6126f66040611af2565b905060006127048484612657565b82525060208201516001600160401b0381111561272357612723600080fd5b611c50848285016126b3565b600061273d611b8284611b39565b8381529050602080820190840283018581111561275c5761275c600080fd5b835b81811015611bca5780516001600160401b0381111561277f5761277f600080fd5b80860161278c89826126d7565b855250506020928301920161275e565b600082601f8301126127b0576127b0600080fd5b815161192884826020860161272f565b600080600080608085870312156127d9576127d9600080fd5b60006127e58787612636565b94505060206127f687828801612641565b93505060406128078782880161264c565b92505060608501516001600160401b0381111561282657612826600080fd5b6128328782880161279c565b91505092959194509250565b602681526000602082017f4f776e61626c653a206e6577206f776e657220697320746865207a65726f206181526564647265737360d01b602082015291506122b0565b6020808252810161070b8161283e565b602b81526000602082017f496e697469616c697a61626c653a20636f6e7472616374206973206e6f74206981526a6e697469616c697a696e6760a81b602082015291506122b0565b6020808252810161070b81612891565b601481526000602082017314185d5cd8589b194e881b9bdd081c185d5cd95960621b81529150612252565b6020808252810161070b816128e9565b602181526000602082017f447374436861696e5061796d656e743a20696e76616c6964207061796c6f61648152607360f81b602082015291506122b0565b6020808252810161070b81612924565b60368152600060208201600080516020612f46833981519152815275656e67746820666f72204275696c64696e6754696d6560501b602082015291506122b0565b6020808252810161070b81612972565b604081016124bc8285611db3565b60338152600060208201600080516020612f46833981519152815272656e67746820666f7220415253746f7261676560681b602082015291506122b0565b6020808252810161070b816129d1565b60338152600060208201600080516020612f468339815191528152720cadccee8d040ccdee44084c2dcc8eed2c8e8d606b1b602082015291506122b0565b6020808252810161070b81612a1f565b60358152600060208201600080516020612f46833981519152815274656e67746820666f72204950465353746f7261676560581b602082015291506122b0565b6020808252810161070b81612a6d565b60608101612acb8286611db3565b61258b6020830185611db3565b602681526000602082017f447374436861696e5061796d656e743a20756e6b6e6f776e207265736f75726381526565207479706560d01b602082015291506122b0565b6020808252810161070b81612ad8565b80151561198e565b805161070b81612b2b565b600060208284031215612b5357612b53600080fd5b60006119288484612b33565b602581526000602082017f447374436861696e5061796d656e743a206e6f6e6578697374656e742070726f8152643b34b232b960d91b602082015291506122b0565b6020808252810161070b81612b5f565b602981526000602082017f5265736f75725061796c6f6164546f6f6c3a20696e76616c6964207061796c6f8152680c2c840d8cadccee8d60bb1b602082015291506122b0565b6020808252810161070b81612bb1565b602381526000602082017f5265736f75725061796c6f6164546f6f6c3a207a65726f20746f74616c2076618152626c756560e81b602082015291506122b0565b6020808252810161070b81612c07565b602781526000602082017f5265736f75725061796c6f6164546f6f6c3a20696e76616c69642076616c7565815266040d8cadccee8d60cb1b602082015291506122b0565b6020808252810161070b81612c57565b601d81526000602082017f5061757365723a206163636f756e74206973206e6f742070617573657200000081529150612252565b6020808252810161070b81612cab565b602181526000602082017f5061757365723a206163636f756e7420697320616c72656164792070617573658152603960f91b602082015291506122b0565b6020808252810161070b81612cef565b604081016124bc8285612068565b60008219821115612d5e57612d5e612605565b500190565b634e487b7160e01b600052601260045260246000fd5b600082612d8857612d88612d63565b500490565b6060810161257e8286612068565b6000816000190483118215151615612db557612db5612605565b500290565b602a81526000602082017f5361666545524332303a204552433230206f7065726174696f6e20646964206e8152691bdd081cdd58d8d9595960b21b602082015291506122b0565b6020808252810161070b81612dba565b602681526000602082017f416464726573733a20696e73756666696369656e742062616c616e636520666f8152651c8818d85b1b60d21b602082015291506122b0565b6020808252810161070b81612e11565b601d81526000602082017f416464726573733a2063616c6c20746f206e6f6e2d636f6e747261637400000081529150612252565b6020808252810161070b81612e64565b60005b83811015612ec3578181015183820152602001612eab565b838111156117b25750506000910152565b6000612ede825190565b612eec818560208601612ea8565b9290920192915050565b60006118658284612ed4565b6000612f0c825190565b808452602084019350612f23818560208601612ea8565b601f01601f19169290920192915050565b602080825281016107088184612f0256fe447374436861696e5061796d656e743a20696e76616c69642076616c7565206ca26469706673582212206a0c2a7d30282de30ef0d81367764ee67c860a0b5bc406a748f0b4777cea221b64736f6c63430008090033",
  "devdoc": {
    "author": "Alexandas",
    "details": "Celer SGN source chain sender contract",
    "kind": "dev",
    "methods": {
      "addPauser(address)": {
        "details": "add a pauser for the contract",
        "params": {
          "account": "address"
        }
      },
      "convertSourceChainPayloads(uint256,(uint8,uint256[])[])": {
        "details": "convert source chain payloads",
        "params": {
          "amount": "amount tokens",
          "payloads": "payment payloads"
        },
        "returns": {
          "_0": "converted payment payloads"
        }
      },
      "decodeSourceChainMessage(bytes)": {
        "details": "decode source chain message",
        "params": {
          "message": "message bytes"
        },
        "returns": {
          "account": "user account",
          "nonce": "nonce",
          "payloads": "payment payloads",
          "provider": "provider address"
        }
      },
      "initialize(address,address,address,address,address)": {
        "details": "proxy initialize function",
        "params": {
          "messageReceiver": "message receiver contract address",
          "owner": "contract owner",
          "pauser": "contract pauser",
          "providers": "providers contract",
          "token": "token address"
        }
      },
      "isPauser(address)": {
        "details": "whether the account is the contract pauser",
        "params": {
          "account": "address"
        },
        "returns": {
          "_0": "whether account is a pauser"
        }
      },
      "owner()": {
        "details": "Returns the address of the current owner."
      },
      "ownerWithdrawERC20(address,address,uint256)": {
        "details": "withdraw token ",
        "params": {
          "to": "receiver address",
          "token": "token address",
          "value": "token value"
        }
      },
      "ownerWithdrawNative(address,uint256)": {
        "details": "withdraw ETH ",
        "params": {
          "to": "receiver address",
          "value": "token value"
        }
      },
      "pause()": {
        "details": "pause the contract"
      },
      "paused()": {
        "details": "Returns true if the contract is paused, and false otherwise."
      },
      "pay((address,uint64,bytes32,(uint8,uint256[])[]))": {
        "details": "pay on dst chain",
        "params": {
          "payload": "payment payload"
        },
        "returns": {
          "value": "payment value"
        }
      },
      "payFromSourceChain(address,uint256,bytes)": {
        "details": "pay from source chain only called by message receiver",
        "params": {
          "_token": "token address",
          "dstAmount": "token amount",
          "message": "payment payload message bytes"
        },
        "returns": {
          "value": "payment value"
        }
      },
      "removePauser(address)": {
        "details": "remove a pauser for the contract",
        "params": {
          "account": "address"
        }
      },
      "renounceOwnership()": {
        "details": "Leaves the contract without owner. It will not be possible to call `onlyOwner` functions anymore. Can only be called by the current owner. NOTE: Renouncing ownership will leave the contract without an owner, thereby removing any functionality that is only available to the owner."
      },
      "renouncePauser()": {
        "details": "remove a pauser for the contract"
      },
      "setARStorageController(address)": {
        "details": "update AR storage controller contract",
        "params": {
          "_arStorageController": "AR storage controller contract"
        }
      },
      "setBandwidthController(address)": {
        "details": "update bandwidth controller contract",
        "params": {
          "_bandwidthController": "bandwidth controller contract"
        }
      },
      "setBuildingTimeController(address)": {
        "details": "update building time controller contract",
        "params": {
          "_buildingTimeController": "building time controller contract"
        }
      },
      "setIPFSStorageController(address)": {
        "details": "update ipfs storage controller contract",
        "params": {
          "_ipfsStorageController": "IPFS storage controller contract"
        }
      },
      "setMessageReceiver(address)": {
        "details": "set messageReceiver contract address",
        "params": {
          "_messageReceiver": "message receiver contract address"
        }
      },
      "setToken(address)": {
        "details": "set token address",
        "params": {
          "_token": "token address"
        }
      },
      "totalValue((uint8,uint256[])[])": {
        "details": "payment payload total value",
        "params": {
          "payloads": "payment payloads"
        },
        "returns": {
          "value": "total value"
        }
      },
      "transferOwnership(address)": {
        "details": "Transfers ownership of the contract to a new account (`newOwner`). Can only be called by the current owner."
      },
      "unpause()": {
        "details": "unpause the contract"
      }
    },
    "stateVariables": {
      "token": {
        "details": "token address"
      }
    },
    "version": 1
  },
  "userdoc": {
    "kind": "user",
    "methods": {},
    "version": 1
  },
  "storageLayout": {
    "storage": [
      {
        "astId": 147,
        "contract": "contracts/payment/DstChainPayment.sol:DstChainPayment",
        "label": "_initialized",
        "offset": 0,
        "slot": "0",
        "type": "t_bool"
      },
      {
        "astId": 150,
        "contract": "contracts/payment/DstChainPayment.sol:DstChainPayment",
        "label": "_initializing",
        "offset": 1,
        "slot": "0",
        "type": "t_bool"
      },
      {
        "astId": 970,
        "contract": "contracts/payment/DstChainPayment.sol:DstChainPayment",
        "label": "__gap",
        "offset": 0,
        "slot": "1",
        "type": "t_array(t_uint256)50_storage"
      },
      {
        "astId": 10,
        "contract": "contracts/payment/DstChainPayment.sol:DstChainPayment",
        "label": "_owner",
        "offset": 0,
        "slot": "51",
        "type": "t_address"
      },
      {
        "astId": 122,
        "contract": "contracts/payment/DstChainPayment.sol:DstChainPayment",
        "label": "__gap",
        "offset": 0,
        "slot": "52",
        "type": "t_array(t_uint256)49_storage"
      },
      {
        "astId": 5226,
        "contract": "contracts/payment/DstChainPayment.sol:DstChainPayment",
        "label": "messageReceiver",
        "offset": 0,
        "slot": "101",
        "type": "t_address"
      },
      {
        "astId": 339,
        "contract": "contracts/payment/DstChainPayment.sol:DstChainPayment",
        "label": "_status",
        "offset": 0,
        "slot": "102",
        "type": "t_uint256"
      },
      {
        "astId": 383,
        "contract": "contracts/payment/DstChainPayment.sol:DstChainPayment",
        "label": "__gap",
        "offset": 0,
        "slot": "103",
        "type": "t_array(t_uint256)49_storage"
      },
      {
        "astId": 6983,
        "contract": "contracts/payment/DstChainPayment.sol:DstChainPayment",
        "label": "providers",
        "offset": 0,
        "slot": "152",
        "type": "t_contract(IProviders)4319"
      },
      {
        "astId": 7248,
        "contract": "contracts/payment/DstChainPayment.sol:DstChainPayment",
        "label": "buildingTimeController",
        "offset": 0,
        "slot": "153",
        "type": "t_contract(INormalResourceController)8503"
      },
      {
        "astId": 7252,
        "contract": "contracts/payment/DstChainPayment.sol:DstChainPayment",
        "label": "bandwidthController",
        "offset": 0,
        "slot": "154",
        "type": "t_contract(INormalResourceController)8503"
      },
      {
        "astId": 7256,
        "contract": "contracts/payment/DstChainPayment.sol:DstChainPayment",
        "label": "arStorageController",
        "offset": 0,
        "slot": "155",
        "type": "t_contract(INormalResourceController)8503"
      },
      {
        "astId": 7260,
        "contract": "contracts/payment/DstChainPayment.sol:DstChainPayment",
        "label": "ipfsStorageController",
        "offset": 0,
        "slot": "156",
        "type": "t_contract(IIPFSStorageController)8473"
      },
      {
        "astId": 235,
        "contract": "contracts/payment/DstChainPayment.sol:DstChainPayment",
        "label": "_paused",
        "offset": 20,
        "slot": "156",
        "type": "t_bool"
      },
      {
        "astId": 324,
        "contract": "contracts/payment/DstChainPayment.sol:DstChainPayment",
        "label": "__gap",
        "offset": 0,
        "slot": "157",
        "type": "t_array(t_uint256)49_storage"
      },
      {
        "astId": 3749,
        "contract": "contracts/payment/DstChainPayment.sol:DstChainPayment",
        "label": "pausers",
        "offset": 0,
        "slot": "206",
        "type": "t_mapping(t_address,t_bool)"
      },
      {
        "astId": 5657,
        "contract": "contracts/payment/DstChainPayment.sol:DstChainPayment",
        "label": "token",
        "offset": 0,
        "slot": "207",
        "type": "t_contract(IERC20Upgradeable)462"
      }
    ],
    "types": {
      "t_address": {
        "encoding": "inplace",
        "label": "address",
        "numberOfBytes": "20"
      },
      "t_array(t_uint256)49_storage": {
        "base": "t_uint256",
        "encoding": "inplace",
        "label": "uint256[49]",
        "numberOfBytes": "1568"
      },
      "t_array(t_uint256)50_storage": {
        "base": "t_uint256",
        "encoding": "inplace",
        "label": "uint256[50]",
        "numberOfBytes": "1600"
      },
      "t_bool": {
        "encoding": "inplace",
        "label": "bool",
        "numberOfBytes": "1"
      },
      "t_contract(IERC20Upgradeable)462": {
        "encoding": "inplace",
        "label": "contract IERC20Upgradeable",
        "numberOfBytes": "20"
      },
      "t_contract(IIPFSStorageController)8473": {
        "encoding": "inplace",
        "label": "contract IIPFSStorageController",
        "numberOfBytes": "20"
      },
      "t_contract(INormalResourceController)8503": {
        "encoding": "inplace",
        "label": "contract INormalResourceController",
        "numberOfBytes": "20"
      },
      "t_contract(IProviders)4319": {
        "encoding": "inplace",
        "label": "contract IProviders",
        "numberOfBytes": "20"
      },
      "t_mapping(t_address,t_bool)": {
        "encoding": "mapping",
        "key": "t_address",
        "label": "mapping(address => bool)",
        "numberOfBytes": "32",
        "value": "t_bool"
      },
      "t_uint256": {
        "encoding": "inplace",
        "label": "uint256",
        "numberOfBytes": "32"
      }
    }
  }
}