{
  "address": "0x2C293Df5f2cfc1dA7fD1eE56aBB9d412089320A3",
  "abi": [
    {
      "inputs": [],
      "stateMutability": "nonpayable",
      "type": "constructor"
    },
    {
      "anonymous": false,
      "inputs": [
        {
          "indexed": false,
          "internalType": "contract INormalResourceController",
          "name": "_arStorageController",
          "type": "address"
        }
      ],
      "name": "ARStorageControllerUpdated",
      "type": "event"
    },
    {
      "anonymous": false,
      "inputs": [
        {
          "indexed": false,
          "internalType": "contract INormalResourceController",
          "name": "_bandwidthController",
          "type": "address"
        }
      ],
      "name": "BandwidthControllerUpdated",
      "type": "event"
    },
    {
      "anonymous": false,
      "inputs": [
        {
          "indexed": false,
          "internalType": "contract INormalResourceController",
          "name": "_buildingTimeController",
          "type": "address"
        }
      ],
      "name": "BuildingTimeControllerUpdated",
      "type": "event"
    },
    {
      "anonymous": false,
      "inputs": [
        {
          "indexed": false,
          "internalType": "contract IIPFSStorageController",
          "name": "_ipfsStorageController",
          "type": "address"
        }
      ],
      "name": "IPFSStorageControllerUpdated",
      "type": "event"
    },
    {
      "anonymous": false,
      "inputs": [
        {
          "indexed": false,
          "internalType": "address",
          "name": "messageReceiver",
          "type": "address"
        }
      ],
      "name": "MessageReceiverUpdated",
      "type": "event"
    },
    {
      "anonymous": false,
      "inputs": [
        {
          "indexed": false,
          "internalType": "address",
          "name": "to",
          "type": "address"
        },
        {
          "indexed": false,
          "internalType": "uint256",
          "name": "value",
          "type": "uint256"
        }
      ],
      "name": "NativeWithdrawal",
      "type": "event"
    },
    {
      "anonymous": false,
      "inputs": [
        {
          "indexed": true,
          "internalType": "address",
          "name": "previousOwner",
          "type": "address"
        },
        {
          "indexed": true,
          "internalType": "address",
          "name": "newOwner",
          "type": "address"
        }
      ],
      "name": "OwnershipTransferred",
      "type": "event"
    },
    {
      "anonymous": false,
      "inputs": [
        {
          "indexed": false,
          "internalType": "address",
          "name": "payer",
          "type": "address"
        },
        {
          "indexed": false,
          "internalType": "contract IERC20Upgradeable",
          "name": "token",
          "type": "address"
        },
        {
          "components": [
            {
              "internalType": "address",
              "name": "provider",
              "type": "address"
            },
            {
              "internalType": "uint64",
              "name": "nonce",
              "type": "uint64"
            },
            {
              "internalType": "bytes32",
              "name": "account",
              "type": "bytes32"
            },
            {
              "components": [
                {
                  "internalType": "enum ResourceData.ResourceType",
                  "name": "resourceType",
                  "type": "uint8"
                },
                {
                  "internalType": "uint256[]",
                  "name": "values",
                  "type": "uint256[]"
                }
              ],
              "internalType": "struct ResourceData.Payload[]",
              "name": "payloads",
              "type": "tuple[]"
            }
          ],
          "indexed": false,
          "internalType": "struct IDstChainPayment.PaymentPayload",
          "name": "payload",
          "type": "tuple"
        }
      ],
      "name": "Paid",
      "type": "event"
    },
    {
      "anonymous": false,
      "inputs": [
        {
          "indexed": false,
          "internalType": "address",
          "name": "account",
          "type": "address"
        }
      ],
      "name": "Paused",
      "type": "event"
    },
    {
      "anonymous": false,
      "inputs": [
        {
          "indexed": false,
          "internalType": "address",
          "name": "account",
          "type": "address"
        }
      ],
      "name": "PauserAdded",
      "type": "event"
    },
    {
      "anonymous": false,
      "inputs": [
        {
          "indexed": false,
          "internalType": "address",
          "name": "account",
          "type": "address"
        }
      ],
      "name": "PauserRemoved",
      "type": "event"
    },
    {
      "anonymous": false,
      "inputs": [
        {
          "indexed": false,
          "internalType": "contract IProviders",
          "name": "providers",
          "type": "address"
        }
      ],
      "name": "ProvidersUpdated",
      "type": "event"
    },
    {
      "anonymous": false,
      "inputs": [
        {
          "indexed": false,
          "internalType": "contract IERC20Upgradeable",
          "name": "token",
          "type": "address"
        }
      ],
      "name": "TokenUpdated",
      "type": "event"
    },
    {
      "anonymous": false,
      "inputs": [
        {
          "indexed": false,
          "internalType": "address",
          "name": "account",
          "type": "address"
        }
      ],
      "name": "Unpaused",
      "type": "event"
    },
    {
      "anonymous": false,
      "inputs": [
        {
          "indexed": false,
          "internalType": "contract IERC20Upgradeable",
          "name": "token",
          "type": "address"
        },
        {
          "indexed": false,
          "internalType": "address",
          "name": "to",
          "type": "address"
        },
        {
          "indexed": false,
          "internalType": "uint256",
          "name": "value",
          "type": "uint256"
        }
      ],
      "name": "Withdrawal",
      "type": "event"
    },
    {
      "inputs": [
        {
          "internalType": "address",
          "name": "account",
          "type": "address"
        }
      ],
      "name": "addPauser",
      "outputs": [],
      "stateMutability": "nonpayable",
      "type": "function"
    },
    {
      "inputs": [],
      "name": "arStorageController",
      "outputs": [
        {
          "internalType": "contract INormalResourceController",
          "name": "",
          "type": "address"
        }
      ],
      "stateMutability": "view",
      "type": "function"
    },
    {
      "inputs": [],
      "name": "bandwidthController",
      "outputs": [
        {
          "internalType": "contract INormalResourceController",
          "name": "",
          "type": "address"
        }
      ],
      "stateMutability": "view",
      "type": "function"
    },
    {
      "inputs": [],
      "name": "buildingTimeController",
      "outputs": [
        {
          "internalType": "contract INormalResourceController",
          "name": "",
          "type": "address"
        }
      ],
      "stateMutability": "view",
      "type": "function"
    },
    {
      "inputs": [
        {
          "internalType": "uint256",
          "name": "amount",
          "type": "uint256"
        },
        {
          "components": [
            {
              "internalType": "enum ResourceData.ResourceType",
              "name": "resourceType",
              "type": "uint8"
            },
            {
              "internalType": "uint256[]",
              "name": "values",
              "type": "uint256[]"
            }
          ],
          "internalType": "struct ResourceData.Payload[]",
          "name": "payloads",
          "type": "tuple[]"
        }
      ],
      "name": "convertSourceChainPayloads",
      "outputs": [
        {
          "components": [
            {
              "internalType": "enum ResourceData.ResourceType",
              "name": "resourceType",
              "type": "uint8"
            },
            {
              "internalType": "uint256[]",
              "name": "values",
              "type": "uint256[]"
            }
          ],
          "internalType": "struct ResourceData.Payload[]",
          "name": "",
          "type": "tuple[]"
        }
      ],
      "stateMutability": "view",
      "type": "function"
    },
    {
      "inputs": [
        {
          "internalType": "bytes",
          "name": "message",
          "type": "bytes"
        }
      ],
      "name": "decodeSourceChainMessage",
      "outputs": [
        {
          "internalType": "address",
          "name": "provider",
          "type": "address"
        },
        {
          "internalType": "uint64",
          "name": "nonce",
          "type": "uint64"
        },
        {
          "internalType": "bytes32",
          "name": "account",
          "type": "bytes32"
        },
        {
          "components": [
            {
              "internalType": "enum ResourceData.ResourceType",
              "name": "resourceType",
              "type": "uint8"
            },
            {
              "internalType": "uint256[]",
              "name": "values",
              "type": "uint256[]"
            }
          ],
          "internalType": "struct ResourceData.Payload[]",
          "name": "payloads",
          "type": "tuple[]"
        }
      ],
      "stateMutability": "view",
      "type": "function"
    },
    {
      "inputs": [
        {
          "internalType": "address",
          "name": "owner",
          "type": "address"
        },
        {
          "internalType": "address",
          "name": "pauser",
          "type": "address"
        },
        {
          "internalType": "contract IProviders",
          "name": "providers",
          "type": "address"
        },
        {
          "internalType": "address",
          "name": "messageReceiver",
          "type": "address"
        },
        {
          "internalType": "contract IERC20Upgradeable",
          "name": "token",
          "type": "address"
        }
      ],
      "name": "initialize",
      "outputs": [],
      "stateMutability": "nonpayable",
      "type": "function"
    },
    {
      "inputs": [],
      "name": "ipfsStorageController",
      "outputs": [
        {
          "internalType": "contract IIPFSStorageController",
          "name": "",
          "type": "address"
        }
      ],
      "stateMutability": "view",
      "type": "function"
    },
    {
      "inputs": [
        {
          "internalType": "address",
          "name": "account",
          "type": "address"
        }
      ],
      "name": "isPauser",
      "outputs": [
        {
          "internalType": "bool",
          "name": "",
          "type": "bool"
        }
      ],
      "stateMutability": "view",
      "type": "function"
    },
    {
      "inputs": [
        {
          "internalType": "uint256",
          "name": "value",
          "type": "uint256"
        }
      ],
      "name": "matchResourceToToken",
      "outputs": [
        {
          "internalType": "uint256",
          "name": "",
          "type": "uint256"
        }
      ],
      "stateMutability": "view",
      "type": "function"
    },
    {
      "inputs": [
        {
          "internalType": "uint256",
          "name": "value",
          "type": "uint256"
        }
      ],
      "name": "matchTokenToResource",
      "outputs": [
        {
          "internalType": "uint256",
          "name": "",
          "type": "uint256"
        }
      ],
      "stateMutability": "view",
      "type": "function"
    },
    {
      "inputs": [],
      "name": "messageReceiver",
      "outputs": [
        {
          "internalType": "address",
          "name": "",
          "type": "address"
        }
      ],
      "stateMutability": "view",
      "type": "function"
    },
    {
      "inputs": [],
      "name": "owner",
      "outputs": [
        {
          "internalType": "address",
          "name": "",
          "type": "address"
        }
      ],
      "stateMutability": "view",
      "type": "function"
    },
    {
      "inputs": [
        {
          "internalType": "contract IERC20Upgradeable",
          "name": "token",
          "type": "address"
        },
        {
          "internalType": "address",
          "name": "to",
          "type": "address"
        },
        {
          "internalType": "uint256",
          "name": "value",
          "type": "uint256"
        }
      ],
      "name": "ownerWithdrawERC20",
      "outputs": [],
      "stateMutability": "nonpayable",
      "type": "function"
    },
    {
      "inputs": [
        {
          "internalType": "address payable",
          "name": "to",
          "type": "address"
        },
        {
          "internalType": "uint256",
          "name": "value",
          "type": "uint256"
        }
      ],
      "name": "ownerWithdrawNative",
      "outputs": [],
      "stateMutability": "nonpayable",
      "type": "function"
    },
    {
      "inputs": [],
      "name": "pause",
      "outputs": [],
      "stateMutability": "nonpayable",
      "type": "function"
    },
    {
      "inputs": [],
      "name": "paused",
      "outputs": [
        {
          "internalType": "bool",
          "name": "",
          "type": "bool"
        }
      ],
      "stateMutability": "view",
      "type": "function"
    },
    {
      "inputs": [
        {
          "internalType": "address",
          "name": "",
          "type": "address"
        }
      ],
      "name": "pausers",
      "outputs": [
        {
          "internalType": "bool",
          "name": "",
          "type": "bool"
        }
      ],
      "stateMutability": "view",
      "type": "function"
    },
    {
      "inputs": [
        {
          "components": [
            {
              "internalType": "address",
              "name": "provider",
              "type": "address"
            },
            {
              "internalType": "uint64",
              "name": "nonce",
              "type": "uint64"
            },
            {
              "internalType": "bytes32",
              "name": "account",
              "type": "bytes32"
            },
            {
              "components": [
                {
                  "internalType": "enum ResourceData.ResourceType",
                  "name": "resourceType",
                  "type": "uint8"
                },
                {
                  "internalType": "uint256[]",
                  "name": "values",
                  "type": "uint256[]"
                }
              ],
              "internalType": "struct ResourceData.Payload[]",
              "name": "payloads",
              "type": "tuple[]"
            }
          ],
          "internalType": "struct IDstChainPayment.PaymentPayload",
          "name": "payload",
          "type": "tuple"
        }
      ],
      "name": "pay",
      "outputs": [
        {
          "internalType": "uint256",
          "name": "value",
          "type": "uint256"
        }
      ],
      "stateMutability": "nonpayable",
      "type": "function"
    },
    {
      "inputs": [
        {
          "internalType": "contract IERC20Upgradeable",
          "name": "_token",
          "type": "address"
        },
        {
          "internalType": "uint256",
          "name": "dstAmount",
          "type": "uint256"
        },
        {
          "internalType": "bytes",
          "name": "message",
          "type": "bytes"
        }
      ],
      "name": "payFromSourceChain",
      "outputs": [
        {
          "internalType": "uint256",
          "name": "value",
          "type": "uint256"
        }
      ],
      "stateMutability": "nonpayable",
      "type": "function"
    },
    {
      "inputs": [],
      "name": "providers",
      "outputs": [
        {
          "internalType": "contract IProviders",
          "name": "",
          "type": "address"
        }
      ],
      "stateMutability": "view",
      "type": "function"
    },
    {
      "inputs": [
        {
          "internalType": "address",
          "name": "account",
          "type": "address"
        }
      ],
      "name": "removePauser",
      "outputs": [],
      "stateMutability": "nonpayable",
      "type": "function"
    },
    {
      "inputs": [],
      "name": "renounceOwnership",
      "outputs": [],
      "stateMutability": "nonpayable",
      "type": "function"
    },
    {
      "inputs": [],
      "name": "renouncePauser",
      "outputs": [],
      "stateMutability": "nonpayable",
      "type": "function"
    },
    {
      "inputs": [],
      "name": "resourceDecimals",
      "outputs": [
        {
          "internalType": "uint256",
          "name": "",
          "type": "uint256"
        }
      ],
      "stateMutability": "view",
      "type": "function"
    },
    {
      "inputs": [
        {
          "internalType": "contract INormalResourceController",
          "name": "_arStorageController",
          "type": "address"
        }
      ],
      "name": "setARStorageController",
      "outputs": [],
      "stateMutability": "nonpayable",
      "type": "function"
    },
    {
      "inputs": [
        {
          "internalType": "contract INormalResourceController",
          "name": "_bandwidthController",
          "type": "address"
        }
      ],
      "name": "setBandwidthController",
      "outputs": [],
      "stateMutability": "nonpayable",
      "type": "function"
    },
    {
      "inputs": [
        {
          "internalType": "contract INormalResourceController",
          "name": "_buildingTimeController",
          "type": "address"
        }
      ],
      "name": "setBuildingTimeController",
      "outputs": [],
      "stateMutability": "nonpayable",
      "type": "function"
    },
    {
      "inputs": [
        {
          "internalType": "contract IIPFSStorageController",
          "name": "_ipfsStorageController",
          "type": "address"
        }
      ],
      "name": "setIPFSStorageController",
      "outputs": [],
      "stateMutability": "nonpayable",
      "type": "function"
    },
    {
      "inputs": [
        {
          "internalType": "address",
          "name": "_messageReceiver",
          "type": "address"
        }
      ],
      "name": "setMessageReceiver",
      "outputs": [],
      "stateMutability": "nonpayable",
      "type": "function"
    },
    {
      "inputs": [
        {
          "internalType": "contract IERC20Upgradeable",
          "name": "_token",
          "type": "address"
        }
      ],
      "name": "setToken",
      "outputs": [],
      "stateMutability": "nonpayable",
      "type": "function"
    },
    {
      "inputs": [],
      "name": "token",
      "outputs": [
        {
          "internalType": "contract IERC20Upgradeable",
          "name": "",
          "type": "address"
        }
      ],
      "stateMutability": "view",
      "type": "function"
    },
    {
      "inputs": [],
      "name": "tokenDecimals",
      "outputs": [
        {
          "internalType": "uint256",
          "name": "",
          "type": "uint256"
        }
      ],
      "stateMutability": "view",
      "type": "function"
    },
    {
      "inputs": [
        {
          "components": [
            {
              "internalType": "enum ResourceData.ResourceType",
              "name": "resourceType",
              "type": "uint8"
            },
            {
              "internalType": "uint256[]",
              "name": "values",
              "type": "uint256[]"
            }
          ],
          "internalType": "struct ResourceData.Payload[]",
          "name": "payloads",
          "type": "tuple[]"
        }
      ],
      "name": "totalValue",
      "outputs": [
        {
          "internalType": "uint256",
          "name": "value",
          "type": "uint256"
        }
      ],
      "stateMutability": "pure",
      "type": "function"
    },
    {
      "inputs": [
        {
          "internalType": "address",
          "name": "newOwner",
          "type": "address"
        }
      ],
      "name": "transferOwnership",
      "outputs": [],
      "stateMutability": "nonpayable",
      "type": "function"
    },
    {
      "inputs": [],
      "name": "unpause",
      "outputs": [],
      "stateMutability": "nonpayable",
      "type": "function"
    }
  ],
  "transactionHash": "0x93070afe15247804c5e4fa1f473cdcebda91fd1c565d8c073680d1dd56fd10ed",
  "args": [],
  "solcInputHash": "296aea9e0038f34ed413e960cae8d323",
  "bytecode": "0x60806040523480156200001157600080fd5b50600054610100900460ff166200002f5760005460ff161562000039565b620000396200009e565b620000615760405162461bcd60e51b81526004016200005890620000cb565b60405180910390fd5b600054610100900460ff1615801562000084576000805461ffff19166101011790555b801562000097576000805461ff00191690555b5062000124565b6000620000b630620000bc60201b62000e5d1760201c565b15905090565b6001600160a01b03163b151590565b602080825281016200011e81602e81527f496e697469616c697a61626c653a20636f6e747261637420697320616c72656160208201526d191e481a5b9a5d1a585b1a5e995960921b604082015260600190565b92915050565b61333180620001346000396000f3fe608060405234801561001057600080fd5b506004361061021c5760003560e01c80637a7fa75311610125578063bd169975116100ad578063f2fde38b1161007c578063f2fde38b14610490578063f6745296146104a3578063f8401fe6146104b6578063f8f071fa146104c9578063fc0c546a146104dc57600080fd5b8063bd16997514610434578063e2cae9f514610457578063e84372491461046a578063f12973d31461047d57600080fd5b80638da5cb5b116100f45780638da5cb5b146103ce578063914fd2c3146103e857806393563a95146103fb578063b05f87a81461040e578063bb3711111461042157600080fd5b80637a7fa7531461037d57806380f51c121461039057806382dc1ec4146103b35780638456cb59146103c657600080fd5b8063490e4fa2116101a8578063699256f411610177578063699256f4146103345780636b2c0f55146103475780636ef8d66d1461035a578063715018a61461036257806377ef533c1461036a57600080fd5b8063490e4fa2146102e85780635618ce2d146102fb5780635c975abb1461031b57806368b869541461032d57600080fd5b80633b8ccfb1116101ef5780633b8ccfb1146102855780633b97e856146102985780633f4ba83a146102ad5780634540a85b146102b557806346fbf68e146102c857600080fd5b8063144fa6d7146102215780631459457a1461023657806315e077691461024957806329dbfc7514610272575b600080fd5b61023461022f366004611b5c565b6104f5565b005b610234610244366004611b91565b610534565b609b5461025c906001600160a01b031681565b6040516102699190611c23565b60405180910390f35b60995461025c906001600160a01b031681565b610234610293366004611c31565b6105d8565b6102a061060b565b6040516102699190611c58565b6102346106b7565b6102346102c3366004611b5c565b6106e6565b6102db6102d6366004611c31565b610719565b6040516102699190611c6e565b6102a06102f6366004611f45565b610737565b61030e610309366004611f7f565b610815565b604051610269919061211e565b609c54600160a01b900460ff166102db565b60126102a0565b61023461034236600461212f565b61082a565b610234610355366004611c31565b6108d8565b61023461090b565b610234610914565b6102a06103783660046121b3565b610948565b61023461038b366004611b5c565b610b17565b6102db61039e366004611c31565b60ce6020526000908152604090205460ff1681565b6102346103c1366004611c31565b610b4a565b610234610b7d565b6033546001600160a01b03165b6040516102699190612229565b6102346103f6366004611b5c565b610baa565b610234610409366004612237565b610bdd565b609c5461025c906001600160a01b031681565b6102a061042f366004612287565b610c4e565b61044761044236600461234f565b610d1b565b6040516102699493929190612398565b6065546103db906001600160a01b031681565b610234610478366004611b5c565b610d45565b6102a061048b3660046123dc565b610d78565b61023461049e366004611c31565b610dd4565b6102a06104b13660046123dc565b610e2d565b60985461025c906001600160a01b031681565b609a5461025c906001600160a01b031681565b60005461025c906201000090046001600160a01b031681565b6033546001600160a01b031633146105285760405162461bcd60e51b815260040161051f90612432565b60405180910390fd5b61053181610e6c565b50565b600054610100900460ff1661054f5760005460ff1615610553565b303b155b61056f5760405162461bcd60e51b815260040161051f90612490565b600054610100900460ff16158015610591576000805461ffff19166101011790555b61059a86610ed5565b6105a385610f27565b6105ac84610f4e565b6105b583610f7e565b6105be82610fa5565b80156105d0576000805461ff00191690555b505050505050565b6033546001600160a01b031633146106025760405162461bcd60e51b815260040161051f90612432565b61053181610fcc565b60008060008060029054906101000a90046001600160a01b03166001600160a01b031660405161063a906124a0565b600060405180830381855afa9150503d8060008114610675576040519150601f19603f3d011682016040523d82523d6000602084013e61067a565b606091505b50915091508161069c5760405162461bcd60e51b815260040161051f906124f8565b808060200190518101906106b09190612513565b9250505090565b6106c033610719565b6106dc5760405162461bcd60e51b815260040161051f90612566565b6106e4611017565b565b6033546001600160a01b031633146107105760405162461bcd60e51b815260040161051f90612432565b61053181611087565b6001600160a01b0316600090815260ce602052604090205460ff1690565b609c54600090600160a01b900460ff16156107645760405162461bcd60e51b815260040161051f9061259d565b600260665414156107875760405162461bcd60e51b815260040161051f906125e1565b6002606655604082015160608301516107a2919060016110d2565b90506107ad81610d78565b90506107bd826000015182611414565b506000546040517f699b2f7653a6bfb60eabd345a469cd1a72cf9733ed0179acb41b3d0b8d6b8583916108039133916201000090046001600160a01b031690869061269c565b60405180910390a16001606655919050565b606061082183836114cf565b90505b92915050565b6033546001600160a01b031633146108545760405162461bcd60e51b815260040161051f90612432565b6040516000906001600160a01b0384169083156108fc0290849084818181858888f1935050505090508061089a5760405162461bcd60e51b815260040161051f9061270b565b7f2c876ecb97b3c6854f2488d373403f903eacb800e51c159a5c0c7a9c857e482783836040516108cb92919061271b565b60405180910390a1505050565b6033546001600160a01b031633146109025760405162461bcd60e51b815260040161051f90612432565b6105318161164d565b6106e43361164d565b6033546001600160a01b0316331461093e5760405162461bcd60e51b815260040161051f90612432565b6106e46000610ed5565b6065546000906001600160a01b031633146109755760405162461bcd60e51b815260040161051f90612789565b609c54600160a01b900460ff161561099f5760405162461bcd60e51b815260040161051f9061259d565b600260665414156109c25760405162461bcd60e51b815260040161051f906125e1565b60026066556000546001600160a01b038681166201000090920416146109fa5760405162461bcd60e51b815260040161051f906127cd565b600080600080610a3f87878080601f016020809104026020016040519081016040528093929190818152602001838380828437600092019190915250610d1b92505050565b93509350935093506000610a5289610e2d565b905060006040518060800160405280876001600160a01b03168152602001866001600160401b03168152602001858152602001610a8f84866114cf565b8152509050610aa88160400151826060015160006110d2565b508051610ab5908b611414565b506000546040517f699b2f7653a6bfb60eabd345a469cd1a72cf9733ed0179acb41b3d0b8d6b858391610afb9133916201000090046001600160a01b031690859061269c565b60405180910390a1505060016066555092979650505050505050565b6033546001600160a01b03163314610b415760405162461bcd60e51b815260040161051f90612432565b610531816116c2565b6033546001600160a01b03163314610b745760405162461bcd60e51b815260040161051f90612432565b6105318161170d565b610b8633610719565b610ba25760405162461bcd60e51b815260040161051f90612566565b6106e4611786565b6033546001600160a01b03163314610bd45760405162461bcd60e51b815260040161051f90612432565b610531816117eb565b6033546001600160a01b03163314610c075760405162461bcd60e51b815260040161051f90612432565b610c1b6001600160a01b0384168383611836565b7f2717ead6b9200dd235aad468c9809ea400fe33ac69b5bfaa6d3e90fc922b63988383836040516108cb939291906127dd565b600080825111610c705760405162461bcd60e51b815260040161051f9061284c565b60005b8251811015610d155760005b838281518110610c9157610c9161285c565b60200260200101516020015151811015610d0257610cee848381518110610cba57610cba61285c565b6020026020010151602001518281518110610cd757610cd761285c565b60200260200101518461189190919063ffffffff16565b925080610cfa81612888565b915050610c7f565b5080610d0d81612888565b915050610c73565b50919050565b6000806000606084806020019051810190610d369190612a22565b92989197509550909350915050565b6033546001600160a01b03163314610d6f5760405162461bcd60e51b815260040161051f90612432565b6105318161189d565b600080610d8361060b565b90506012808211610db557610dad610d9b82846118e8565b610da690600a612bae565b85906118f4565b949350505050565b610dad610dc283836118e8565b610dcd90600a612bae565b8590611900565b6033546001600160a01b03163314610dfe5760405162461bcd60e51b815260040161051f90612432565b6001600160a01b038116610e245760405162461bcd60e51b815260040161051f90612c00565b61053181610ed5565b600080610e3861060b565b90506012808211610e5057610dad610dc282846118e8565b610dad610d9b83836118e8565b6001600160a01b03163b151590565b6000805462010000600160b01b031916620100006001600160a01b03848116820292909217928390556040517f5ba6b30cd4b2f9e9e67f4feb9b9df10d5da3b057598e6901b217b7d590345e3093610eca9392900490911690611c23565b60405180910390a150565b603380546001600160a01b038381166001600160a01b0319831681179093556040519116919082907f8be0079c531659141344cd1fd0a4f28419497f9722a3daafe3b4186f6b6457e090600090a35050565b600054610100900460ff16610b745760405162461bcd60e51b815260040161051f90612c58565b600054610100900460ff16610f755760405162461bcd60e51b815260040161051f90612c58565b6105318161190c565b600054610100900460ff166106025760405162461bcd60e51b815260040161051f90612c58565b600054610100900460ff166105285760405162461bcd60e51b815260040161051f90612c58565b606580546001600160a01b0319166001600160a01b0383161790556040517fafe9b28ca24a54df8c44769c685f7b92824aae021cdfcaa4719d493571a23c4c90610eca908390612229565b609c54600160a01b900460ff166110405760405162461bcd60e51b815260040161051f90612c93565b609c805460ff60a01b191690557f5db9ee0a495bf2e6ff9c91a7834c1ba4fdd244a5e8aa4e537bd38aeae4b073aa335b60405161107d9190612229565b60405180910390a1565b609c80546001600160a01b0319166001600160a01b0383161790556040517f7b091d9397a2f75213edeec1728b27a9d863f0f8aafb62fce0f1154f48f110f890610eca908390611c23565b6000808351116110f45760405162461bcd60e51b815260040161051f90612ce1565b60005b835181101561140c5760008482815181106111145761111461285c565b602002602001015190506001600481111561113157611131611fd6565b8151600481111561114457611144611fd6565b14156111f85780602001515160011461116f5760405162461bcd60e51b815260040161051f90612d32565b609954602082015180516001600160a01b039092169163467aa8de91899160009061119c5761119c61285c565b60200260200101516040518363ffffffff1660e01b81526004016111c1929190612d42565b600060405180830381600087803b1580156111db57600080fd5b505af11580156111ef573d6000803e3d6000fd5b5050505061139c565b60038151600481111561120d5761120d611fd6565b1415611265578060200151516001146112385760405162461bcd60e51b815260040161051f90612d8e565b609b54602082015180516001600160a01b039092169163467aa8de91899160009061119c5761119c61285c565b60028151600481111561127a5761127a611fd6565b14156112d2578060200151516001146112a55760405162461bcd60e51b815260040161051f90612ddc565b609a54602082015180516001600160a01b039092169163467aa8de91899160009061119c5761119c61285c565b6004815160048111156112e7576112e7611fd6565b1415611384578060200151516002146113125760405162461bcd60e51b815260040161051f90612e2c565b609c54602082015180516001600160a01b0390921691634235fec091899160009061133f5761133f61285c565b6020026020010151846020015160018151811061135e5761135e61285c565b60200260200101516040518463ffffffff1660e01b81526004016111c193929190612e3c565b60405162461bcd60e51b815260040161051f90612e9a565b83156113f95760005b8160200151518110156113f7576113e382602001516000815181106113cc576113cc61285c565b60200260200101518561189190919063ffffffff16565b9350806113ef81612888565b9150506113a5565b505b508061140481612888565b9150506110f7565b509392505050565b609854604051636b074a0760e01b81526000916001600160a01b031690636b074a0790611445908690600401612229565b60206040518083038186803b15801561145d57600080fd5b505afa158015611471573d6000803e3d6000fd5b505050506040513d601f19601f820116820180604052508101906114959190612ebd565b6114b15760405162461bcd60e51b815260040161051f90612f20565b600054610824906201000090046001600160a01b0316333085611957565b606060008251116114f25760405162461bcd60e51b815260040161051f90612f76565b60006114fd83610c4e565b90506000811161151f5760405162461bcd60e51b815260040161051f90612fc6565b60005b835181101561164457600084828151811061153f5761153f61285c565b60200260200101516020015151116115695760405162461bcd60e51b815260040161051f9061301a565b60005b84828151811061157e5761157e61285c565b60200260200101516020015151811015611631576115e5836115df888886815181106115ac576115ac61285c565b60200260200101516020015185815181106115c9576115c961285c565b602002602001015161190090919063ffffffff16565b906118f4565b8583815181106115f7576115f761285c565b60200260200101516020015182815181106116145761161461285c565b60209081029190910101528061162981612888565b91505061156c565b508061163c81612888565b915050611522565b50919392505050565b61165681610719565b6116725760405162461bcd60e51b815260040161051f9061305e565b6001600160a01b038116600090815260ce602052604090819020805460ff19169055517fcd265ebaf09df2871cc7bd4133404a235ba12eff2041bb89d9c714a2621c7c7e90610eca908390612229565b609a80546001600160a01b0319166001600160a01b0383161790556040517f100702071f8eb4f459f5f9dcf12bba9b3aeafa0eca6a018364f645558d792c3790610eca908390611c23565b61171681610719565b156117335760405162461bcd60e51b815260040161051f906130ac565b6001600160a01b038116600090815260ce602052604090819020805460ff19166001179055517f6719d08c1888103bea251a4ed56406bd0c3e69723c8a1686e017e7bbe159b6f890610eca908390612229565b609c54600160a01b900460ff16156117b05760405162461bcd60e51b815260040161051f9061259d565b609c805460ff60a01b1916600160a01b1790557f62e78cea01bee320cd4e420270b5ea74000d11b0c9f74754ebdbfc544b05a2586110703390565b609b80546001600160a01b0319166001600160a01b0383161790556040517f6a7e09ebc58179cd1c17c89209474e58d29e43b1bf78dd57f896e7be983220eb90610eca908390611c23565b61188c8363a9059cbb60e01b84846040516024016118559291906130bc565b60408051601f198184030181529190526020810180516001600160e01b03166001600160e01b03199093169290921790915261197e565b505050565b600061082182846130ca565b609980546001600160a01b0319166001600160a01b0383161790556040517feb1b948f6c63784a1d91e42dd967c49aae87b1db36d3107e9b913963ae7cd03990610eca908390611c23565b600061082182846130e2565b6000610821828461310f565b60006108218284613123565b609880546001600160a01b0319166001600160a01b0383161790556040517fe63288198842f0dacdcbdc3f22dcd4e473d1f3cee7e10603ae6ddc3e667c528490610eca908390611c23565b611978846323b872dd60e01b85858560405160240161185593929190613142565b50505050565b60006119d3826040518060400160405280602081526020017f5361666545524332303a206c6f772d6c6576656c2063616c6c206661696c6564815250856001600160a01b0316611a0d9092919063ffffffff16565b80519091501561188c57808060200190518101906119f19190612ebd565b61188c5760405162461bcd60e51b815260040161051f90613197565b6060611a1c8484600085611a26565b90505b9392505050565b606082471015611a485760405162461bcd60e51b815260040161051f906131ea565b6001600160a01b0385163b611a6f5760405162461bcd60e51b815260040161051f9061322e565b600080866001600160a01b03168587604051611a8b919061328c565b60006040518083038185875af1925050503d8060008114611ac8576040519150601f19603f3d011682016040523d82523d6000602084013e611acd565b606091505b5091509150611add828286611ae8565b979650505050505050565b60608315611af7575081611a1f565b825115611b075782518084602001fd5b8160405162461bcd60e51b815260040161051f91906132ca565b60006001600160a01b038216610824565b600061082482611b21565b611b4681611b32565b811461053157600080fd5b803561082481611b3d565b600060208284031215611b7157611b71600080fd5b6000610dad8484611b51565b611b4681611b21565b803561082481611b7d565b600080600080600060a08688031215611bac57611bac600080fd5b6000611bb88888611b86565b9550506020611bc988828901611b86565b9450506040611bda88828901611b51565b9350506060611beb88828901611b86565b9250506080611bfc88828901611b51565b9150509295509295909350565b600061082482611b32565b611c1d81611c09565b82525050565b602081016108248284611c14565b600060208284031215611c4657611c46600080fd5b6000610dad8484611b86565b80611c1d565b602081016108248284611c52565b801515611c1d565b602081016108248284611c66565b634e487b7160e01b600052604160045260246000fd5b601f19601f83011681018181106001600160401b0382111715611cb757611cb7611c7c565b6040525050565b6000611cc960405190565b9050611cd58282611c92565b919050565b6001600160401b038116611b46565b803561082481611cda565b80611b46565b803561082481611cf4565b60006001600160401b03821115611d1e57611d1e611c7c565b5060209081020190565b6005811061053157600080fd5b803561082481611d28565b6000611d53611d4e84611d05565b611cbe565b83815290506020808201908402830185811115611d7257611d72600080fd5b835b81811015611d965780611d878882611cfa565b84525060209283019201611d74565b5050509392505050565b600082601f830112611db457611db4600080fd5b8135610dad848260208601611d40565b600060408284031215611dd957611dd9600080fd5b611de36040611cbe565b90506000611df18484611d35565b82525060208201356001600160401b03811115611e1057611e10600080fd5b611e1c84828501611da0565b60208301525092915050565b6000611e36611d4e84611d05565b83815290506020808201908402830185811115611e5557611e55600080fd5b835b81811015611d965780356001600160401b03811115611e7857611e78600080fd5b808601611e858982611dc4565b8552505060209283019201611e57565b600082601f830112611ea957611ea9600080fd5b8135610dad848260208601611e28565b600060808284031215611ece57611ece600080fd5b611ed86080611cbe565b90506000611ee68484611b86565b8252506020611ef784848301611ce9565b6020830152506040611f0b84828501611cfa565b60408301525060608201356001600160401b03811115611f2d57611f2d600080fd5b611f3984828501611e95565b60608301525092915050565b600060208284031215611f5a57611f5a600080fd5b81356001600160401b03811115611f7357611f73600080fd5b610dad84828501611eb9565b60008060408385031215611f9557611f95600080fd5b6000611fa18585611cfa565b92505060208301356001600160401b03811115611fc057611fc0600080fd5b611fcc85828601611e95565b9150509250929050565b634e487b7160e01b600052602160045260246000fd5b6005811061053157610531611fd6565b80611cd581611fec565b600061082482611ffc565b611c1d81612006565b60006120268383611c52565b505060200190565b6000612038825190565b80845260209384019383018060005b8381101561206c57815161205b888261201a565b975060208301925050600101612047565b509495945050505050565b8051600090604084019061208b8582612011565b50602083015184820360208601526120a3828261202e565b95945050505050565b60006108218383612077565b60006120c2825190565b808452602084019350836020820285016120dc8560200190565b8060005b8581101561211157848403895281516120f985826120ac565b94506020830160209a909a01999250506001016120e0565b5091979650505050505050565b6020808252810161082181846120b8565b6000806040838503121561214557612145600080fd5b60006121518585611b86565b9250506020611fcc85828601611cfa565b60008083601f84011261217757612177600080fd5b5081356001600160401b0381111561219157612191600080fd5b6020830191508360018202830111156121ac576121ac600080fd5b9250929050565b600080600080606085870312156121cc576121cc600080fd5b60006121d88787611b51565b94505060206121e987828801611cfa565b93505060408501356001600160401b0381111561220857612208600080fd5b61221487828801612162565b95989497509550505050565b611c1d81611b21565b602081016108248284612220565b60008060006060848603121561224f5761224f600080fd5b600061225b8686611b51565b935050602061226c86828701611b86565b925050604061227d86828701611cfa565b9150509250925092565b60006020828403121561229c5761229c600080fd5b81356001600160401b038111156122b5576122b5600080fd5b610dad84828501611e95565b60006001600160401b038211156122da576122da611c7c565b601f19601f83011660200192915050565b82818337506000910152565b6000612305611d4e846122c1565b90508281526020810184848401111561232057612320600080fd5b61140c8482856122eb565b600082601f83011261233f5761233f600080fd5b8135610dad8482602086016122f7565b60006020828403121561236457612364600080fd5b81356001600160401b0381111561237d5761237d600080fd5b610dad8482850161232b565b6001600160401b038116611c1d565b608081016123a68287612220565b6123b36020830186612389565b6123c06040830185611c52565b81810360608301526123d281846120b8565b9695505050505050565b6000602082840312156123f1576123f1600080fd5b6000610dad8484611cfa565b60208082527f4f776e61626c653a2063616c6c6572206973206e6f7420746865206f776e6572910190815260005b5060200190565b60208082528101610824816123fd565b602e81526000602082017f496e697469616c697a61626c653a20636f6e747261637420697320616c72656181526d191e481a5b9a5d1a585b1a5e995960921b602082015291505b5060400190565b6020808252810161082481612442565b63313ce56760e01b8152600060048201610824565b602681526000602082017f5265736f75726365506179546f6b656e577261707065723a20696e76616c6964815265103a37b5b2b760d11b60208201529150612489565b60208082528101610824816124b5565b805161082481611cf4565b60006020828403121561252857612528600080fd5b6000610dad8484612508565b60208082527f5061757365723a2063616c6c6572206973206e6f7420746865207061757365729101908152600061242b565b6020808252810161082481612534565b601081526000602082016f14185d5cd8589b194e881c185d5cd95960821b8152915061242b565b6020808252810161082481612576565b601f81526000602082017f5265656e7472616e637947756172643a207265656e7472616e742063616c6c008152915061242b565b60208082528101610824816125ad565b60006125fb825190565b808452602084019350836020820285016126158560200190565b8060005b85811015612111578484038952815161263285826120ac565b94506020830160209a909a0199925050600101612619565b8051600090608084019061265e8582612220565b5060208301516126716020860182612389565b5060408301516126846040860182611c52565b50606083015184820360608601526120a382826125f1565b606081016126aa8286612220565b6126b76020830185611c14565b81810360408301526120a3818461264a565b602581526000602082017f5061796d656e743a207769746864726177206e617469766520746f6b656e2066815264185a5b195960da1b60208201529150612489565b60208082528101610824816126c9565b604081016127298285611c14565b611a1f6020830184611c52565b603681526000602082017f4d6573736167655265636569766572577261707065723a2063616c6c6572206981527539903737ba1036b2b9b9b0b3b2903932b1b2b4bb32b960511b60208201529150612489565b6020808252810161082481612736565b601e81526000602082017f447374436861696e5061796d656e743a20696e76616c696420746f6b656e00008152915061242b565b6020808252810161082481612799565b606081016127eb8286611c14565b6127f86020830185612220565b610dad6040830184611c52565b602a81526000602082017f5265736f75725061796c6f6164546f6f6c3a20696e76616c6964207061796c6f8152690c2c8e640d8cadccee8d60b31b60208201529150612489565b6020808252810161082481612805565b634e487b7160e01b600052603260045260246000fd5b634e487b7160e01b600052601160045260246000fd5b600060001982141561289c5761289c612872565b5060010190565b805161082481611b7d565b805161082481611cda565b805161082481611d28565b60006128d2611d4e84611d05565b838152905060208082019084028301858111156128f1576128f1600080fd5b835b81811015611d9657806129068882612508565b845250602092830192016128f3565b600082601f83011261292957612929600080fd5b8151610dad8482602086016128c4565b60006040828403121561294e5761294e600080fd5b6129586040611cbe565b9050600061296684846128b9565b82525060208201516001600160401b0381111561298557612985600080fd5b611e1c84828501612915565b600061299f611d4e84611d05565b838152905060208082019084028301858111156129be576129be600080fd5b835b81811015611d965780516001600160401b038111156129e1576129e1600080fd5b8086016129ee8982612939565b85525050602092830192016129c0565b600082601f830112612a1257612a12600080fd5b8151610dad848260208601612991565b60008060008060808587031215612a3b57612a3b600080fd5b6000612a4787876128a3565b9450506020612a58878288016128ae565b9350506040612a6987828801612508565b92505060608501516001600160401b03811115612a8857612a88600080fd5b612a94878288016129fe565b91505092959194509250565b80825b6001851115612adf57808604811115612abe57612abe612872565b6001851615612acc57908102905b8002612ad88560011c90565b9450612aa3565b94509492505050565b600082612af757506001611a1f565b81612b0457506000611a1f565b8160018114612b1a5760028114612b2457612b51565b6001915050611a1f565b60ff841115612b3557612b35612872565b8360020a915084821115612b4b57612b4b612872565b50611a1f565b5060208310610133831016604e8410600b8410161715612b84575081810a83811115612b7f57612b7f612872565b611a1f565b612b918484846001612aa0565b92509050818404811115612ba757612ba7612872565b0292915050565b60006108216000198484612ae8565b602681526000602082017f4f776e61626c653a206e6577206f776e657220697320746865207a65726f206181526564647265737360d01b60208201529150612489565b6020808252810161082481612bbd565b602b81526000602082017f496e697469616c697a61626c653a20636f6e7472616374206973206e6f74206981526a6e697469616c697a696e6760a81b60208201529150612489565b6020808252810161082481612c10565b601481526000602082017314185d5cd8589b194e881b9bdd081c185d5cd95960621b8152915061242b565b6020808252810161082481612c68565b602181526000602082017f447374436861696e5061796d656e743a20696e76616c6964207061796c6f61648152607360f81b60208201529150612489565b6020808252810161082481612ca3565b603681526000602082016000805160206132dc833981519152815275656e67746820666f72204275696c64696e6754696d6560501b60208201529150612489565b6020808252810161082481612cf1565b604081016127298285611c52565b603381526000602082016000805160206132dc833981519152815272656e67746820666f7220415253746f7261676560681b60208201529150612489565b6020808252810161082481612d50565b603381526000602082016000805160206132dc8339815191528152720cadccee8d040ccdee44084c2dcc8eed2c8e8d606b1b60208201529150612489565b6020808252810161082481612d9e565b603581526000602082016000805160206132dc833981519152815274656e67746820666f72204950465353746f7261676560581b60208201529150612489565b6020808252810161082481612dec565b60608101612e4a8286611c52565b6127f86020830185611c52565b602681526000602082017f447374436861696e5061796d656e743a20756e6b6e6f776e207265736f75726381526565207479706560d01b60208201529150612489565b6020808252810161082481612e57565b801515611b46565b805161082481612eaa565b600060208284031215612ed257612ed2600080fd5b6000610dad8484612eb2565b602581526000602082017f447374436861696e5061796d656e743a206e6f6e6578697374656e742070726f8152643b34b232b960d91b60208201529150612489565b6020808252810161082481612ede565b602981526000602082017f5265736f75725061796c6f6164546f6f6c3a20696e76616c6964207061796c6f8152680c2c840d8cadccee8d60bb1b60208201529150612489565b6020808252810161082481612f30565b602381526000602082017f5265736f75725061796c6f6164546f6f6c3a207a65726f20746f74616c2076618152626c756560e81b60208201529150612489565b6020808252810161082481612f86565b602781526000602082017f5265736f75725061796c6f6164546f6f6c3a20696e76616c69642076616c7565815266040d8cadccee8d60cb1b60208201529150612489565b6020808252810161082481612fd6565b601d81526000602082017f5061757365723a206163636f756e74206973206e6f74207061757365720000008152915061242b565b602080825281016108248161302a565b602181526000602082017f5061757365723a206163636f756e7420697320616c72656164792070617573658152603960f91b60208201529150612489565b602080825281016108248161306e565b604081016127298285612220565b600082198211156130dd576130dd612872565b500190565b6000828210156130f4576130f4612872565b500390565b634e487b7160e01b600052601260045260246000fd5b60008261311e5761311e6130f9565b500490565b600081600019048311821515161561313d5761313d612872565b500290565b606081016127eb8286612220565b602a81526000602082017f5361666545524332303a204552433230206f7065726174696f6e20646964206e8152691bdd081cdd58d8d9595960b21b60208201529150612489565b6020808252810161082481613150565b602681526000602082017f416464726573733a20696e73756666696369656e742062616c616e636520666f8152651c8818d85b1b60d21b60208201529150612489565b60208082528101610824816131a7565b601d81526000602082017f416464726573733a2063616c6c20746f206e6f6e2d636f6e74726163740000008152915061242b565b60208082528101610824816131fa565b60005b83811015613259578181015183820152602001613241565b838111156119785750506000910152565b6000613274825190565b61328281856020860161323e565b9290920192915050565b6000611a1f828461326a565b60006132a2825190565b8084526020840193506132b981856020860161323e565b601f01601f19169290920192915050565b60208082528101610821818461329856fe447374436861696e5061796d656e743a20696e76616c69642076616c7565206ca2646970667358221220a84020fc117d8f90689124f8b449c989a26bb1c27c4807523c0f8ad023cb167364736f6c63430008090033",
  "devdoc": {
    "author": "Alexandas",
    "details": "Celer SGN source chain sender contract",
    "kind": "dev",
    "methods": {
      "addPauser(address)": {
        "details": "add a pauser for the contract",
        "params": {
          "account": "address"
        }
      },
      "convertSourceChainPayloads(uint256,(uint8,uint256[])[])": {
        "details": "convert source chain payloads",
        "params": {
          "amount": "amount tokens",
          "payloads": "payment payloads"
        },
        "returns": {
          "_0": "converted payment payloads"
        }
      },
      "decodeSourceChainMessage(bytes)": {
        "details": "decode source chain message",
        "params": {
          "message": "message bytes"
        },
        "returns": {
          "account": "user account",
          "nonce": "nonce",
          "payloads": "payment payloads",
          "provider": "provider address"
        }
      },
      "initialize(address,address,address,address,address)": {
        "details": "proxy initialize function",
        "params": {
          "messageReceiver": "message receiver contract address",
          "owner": "contract owner",
          "pauser": "contract pauser",
          "providers": "providers contract",
          "token": "token address"
        }
      },
      "isPauser(address)": {
        "details": "whether the account is the contract pauser",
        "params": {
          "account": "address"
        },
        "returns": {
          "_0": "whether account is a pauser"
        }
      },
      "matchResourceToToken(uint256)": {
        "details": "match value to token decimals",
        "params": {
          "value": "resource value"
        },
        "returns": {
          "_0": "token value"
        }
      },
      "matchTokenToResource(uint256)": {
        "details": "match token amount to resource decimals",
        "params": {
          "value": "token amount with resource decimals"
        },
        "returns": {
          "_0": "resource value"
        }
      },
      "owner()": {
        "details": "Returns the address of the current owner."
      },
      "ownerWithdrawERC20(address,address,uint256)": {
        "details": "withdraw token ",
        "params": {
          "to": "receiver address",
          "token": "token address",
          "value": "token value"
        }
      },
      "ownerWithdrawNative(address,uint256)": {
        "details": "withdraw ETH ",
        "params": {
          "to": "receiver address",
          "value": "token value"
        }
      },
      "pause()": {
        "details": "pause the contract"
      },
      "paused()": {
        "details": "Returns true if the contract is paused, and false otherwise."
      },
      "pay((address,uint64,bytes32,(uint8,uint256[])[]))": {
        "details": "pay on dst chain",
        "params": {
          "payload": "payment payload"
        },
        "returns": {
          "value": "payment value"
        }
      },
      "payFromSourceChain(address,uint256,bytes)": {
        "details": "pay from source chain only called by message receiver",
        "params": {
          "_token": "token address",
          "dstAmount": "token amount",
          "message": "payment payload message bytes"
        },
        "returns": {
          "value": "payment value"
        }
      },
      "removePauser(address)": {
        "details": "remove a pauser for the contract",
        "params": {
          "account": "address"
        }
      },
      "renounceOwnership()": {
        "details": "Leaves the contract without owner. It will not be possible to call `onlyOwner` functions anymore. Can only be called by the current owner. NOTE: Renouncing ownership will leave the contract without an owner, thereby removing any functionality that is only available to the owner."
      },
      "renouncePauser()": {
        "details": "remove a pauser for the contract"
      },
      "resourceDecimals()": {
        "details": "return resource decimals",
        "returns": {
          "_0": "resource decimals"
        }
      },
      "setARStorageController(address)": {
        "details": "update AR storage controller contract",
        "params": {
          "_arStorageController": "AR storage controller contract"
        }
      },
      "setBandwidthController(address)": {
        "details": "update bandwidth controller contract",
        "params": {
          "_bandwidthController": "bandwidth controller contract"
        }
      },
      "setBuildingTimeController(address)": {
        "details": "update building time controller contract",
        "params": {
          "_buildingTimeController": "building time controller contract"
        }
      },
      "setIPFSStorageController(address)": {
        "details": "update ipfs storage controller contract",
        "params": {
          "_ipfsStorageController": "IPFS storage controller contract"
        }
      },
      "setMessageReceiver(address)": {
        "details": "set messageReceiver contract address",
        "params": {
          "_messageReceiver": "message receiver contract address"
        }
      },
      "setToken(address)": {
        "details": "set token address",
        "params": {
          "_token": "token address"
        }
      },
      "tokenDecimals()": {
        "details": "return token decimals",
        "returns": {
          "_0": "token decimals"
        }
      },
      "totalValue((uint8,uint256[])[])": {
        "details": "payment payload total value",
        "params": {
          "payloads": "payment payloads"
        },
        "returns": {
          "value": "total value"
        }
      },
      "transferOwnership(address)": {
        "details": "Transfers ownership of the contract to a new account (`newOwner`). Can only be called by the current owner."
      },
      "unpause()": {
        "details": "unpause the contract"
      }
    },
    "version": 1
  },
  "userdoc": {
    "kind": "user",
    "methods": {},
    "version": 1
  },
  "storageLayout": {
    "storage": [
      {
        "astId": 147,
        "contract": "contracts/payment/DstChainPayment.sol:DstChainPayment",
        "label": "_initialized",
        "offset": 0,
        "slot": "0",
        "type": "t_bool"
      },
      {
        "astId": 150,
        "contract": "contracts/payment/DstChainPayment.sol:DstChainPayment",
        "label": "_initializing",
        "offset": 1,
        "slot": "0",
        "type": "t_bool"
      },
      {
        "astId": 6361,
        "contract": "contracts/payment/DstChainPayment.sol:DstChainPayment",
        "label": "token",
        "offset": 2,
        "slot": "0",
        "type": "t_contract(IERC20Upgradeable)462"
      },
      {
        "astId": 970,
        "contract": "contracts/payment/DstChainPayment.sol:DstChainPayment",
        "label": "__gap",
        "offset": 0,
        "slot": "1",
        "type": "t_array(t_uint256)50_storage"
      },
      {
        "astId": 10,
        "contract": "contracts/payment/DstChainPayment.sol:DstChainPayment",
        "label": "_owner",
        "offset": 0,
        "slot": "51",
        "type": "t_address"
      },
      {
        "astId": 122,
        "contract": "contracts/payment/DstChainPayment.sol:DstChainPayment",
        "label": "__gap",
        "offset": 0,
        "slot": "52",
        "type": "t_array(t_uint256)49_storage"
      },
      {
        "astId": 5220,
        "contract": "contracts/payment/DstChainPayment.sol:DstChainPayment",
        "label": "messageReceiver",
        "offset": 0,
        "slot": "101",
        "type": "t_address"
      },
      {
        "astId": 339,
        "contract": "contracts/payment/DstChainPayment.sol:DstChainPayment",
        "label": "_status",
        "offset": 0,
        "slot": "102",
        "type": "t_uint256"
      },
      {
        "astId": 383,
        "contract": "contracts/payment/DstChainPayment.sol:DstChainPayment",
        "label": "__gap",
        "offset": 0,
        "slot": "103",
        "type": "t_array(t_uint256)49_storage"
      },
      {
        "astId": 7051,
        "contract": "contracts/payment/DstChainPayment.sol:DstChainPayment",
        "label": "providers",
        "offset": 0,
        "slot": "152",
        "type": "t_contract(IProviders)4313"
      },
      {
        "astId": 7316,
        "contract": "contracts/payment/DstChainPayment.sol:DstChainPayment",
        "label": "buildingTimeController",
        "offset": 0,
        "slot": "153",
        "type": "t_contract(INormalResourceController)8571"
      },
      {
        "astId": 7320,
        "contract": "contracts/payment/DstChainPayment.sol:DstChainPayment",
        "label": "bandwidthController",
        "offset": 0,
        "slot": "154",
        "type": "t_contract(INormalResourceController)8571"
      },
      {
        "astId": 7324,
        "contract": "contracts/payment/DstChainPayment.sol:DstChainPayment",
        "label": "arStorageController",
        "offset": 0,
        "slot": "155",
        "type": "t_contract(INormalResourceController)8571"
      },
      {
        "astId": 7328,
        "contract": "contracts/payment/DstChainPayment.sol:DstChainPayment",
        "label": "ipfsStorageController",
        "offset": 0,
        "slot": "156",
        "type": "t_contract(IIPFSStorageController)8541"
      },
      {
        "astId": 235,
        "contract": "contracts/payment/DstChainPayment.sol:DstChainPayment",
        "label": "_paused",
        "offset": 20,
        "slot": "156",
        "type": "t_bool"
      },
      {
        "astId": 324,
        "contract": "contracts/payment/DstChainPayment.sol:DstChainPayment",
        "label": "__gap",
        "offset": 0,
        "slot": "157",
        "type": "t_array(t_uint256)49_storage"
      },
      {
        "astId": 3749,
        "contract": "contracts/payment/DstChainPayment.sol:DstChainPayment",
        "label": "pausers",
        "offset": 0,
        "slot": "206",
        "type": "t_mapping(t_address,t_bool)"
      }
    ],
    "types": {
      "t_address": {
        "encoding": "inplace",
        "label": "address",
        "numberOfBytes": "20"
      },
      "t_array(t_uint256)49_storage": {
        "base": "t_uint256",
        "encoding": "inplace",
        "label": "uint256[49]",
        "numberOfBytes": "1568"
      },
      "t_array(t_uint256)50_storage": {
        "base": "t_uint256",
        "encoding": "inplace",
        "label": "uint256[50]",
        "numberOfBytes": "1600"
      },
      "t_bool": {
        "encoding": "inplace",
        "label": "bool",
        "numberOfBytes": "1"
      },
      "t_contract(IERC20Upgradeable)462": {
        "encoding": "inplace",
        "label": "contract IERC20Upgradeable",
        "numberOfBytes": "20"
      },
      "t_contract(IIPFSStorageController)8541": {
        "encoding": "inplace",
        "label": "contract IIPFSStorageController",
        "numberOfBytes": "20"
      },
      "t_contract(INormalResourceController)8571": {
        "encoding": "inplace",
        "label": "contract INormalResourceController",
        "numberOfBytes": "20"
      },
      "t_contract(IProviders)4313": {
        "encoding": "inplace",
        "label": "contract IProviders",
        "numberOfBytes": "20"
      },
      "t_mapping(t_address,t_bool)": {
        "encoding": "mapping",
        "key": "t_address",
        "label": "mapping(address => bool)",
        "numberOfBytes": "32",
        "value": "t_bool"
      },
      "t_uint256": {
        "encoding": "inplace",
        "label": "uint256",
        "numberOfBytes": "32"
      }
    }
  }
}