{
  "address": "0x17674BeDcc0EB2e71370D4DFD7B7d275b9A0E1f3",
  "abi": [
    {
      "inputs": [],
      "stateMutability": "nonpayable",
      "type": "constructor"
    },
    {
      "anonymous": false,
      "inputs": [
        {
          "indexed": false,
          "internalType": "contract INormalResourceController",
          "name": "_arStorageController",
          "type": "address"
        }
      ],
      "name": "ARStorageControllerUpdated",
      "type": "event"
    },
    {
      "anonymous": false,
      "inputs": [
        {
          "indexed": false,
          "internalType": "contract INormalResourceController",
          "name": "_bandwidthController",
          "type": "address"
        }
      ],
      "name": "BandwidthControllerUpdated",
      "type": "event"
    },
    {
      "anonymous": false,
      "inputs": [
        {
          "indexed": false,
          "internalType": "contract INormalResourceController",
          "name": "_buildingTimeController",
          "type": "address"
        }
      ],
      "name": "BuildingTimeControllerUpdated",
      "type": "event"
    },
    {
      "anonymous": false,
      "inputs": [
        {
          "indexed": false,
          "internalType": "contract IIPFSStorageController",
          "name": "_ipfsStorageController",
          "type": "address"
        }
      ],
      "name": "IPFSStorageControllerUpdated",
      "type": "event"
    },
    {
      "anonymous": false,
      "inputs": [
        {
          "indexed": false,
          "internalType": "address",
          "name": "messageReceiver",
          "type": "address"
        }
      ],
      "name": "MessageReceiverUpdated",
      "type": "event"
    },
    {
      "anonymous": false,
      "inputs": [
        {
          "indexed": false,
          "internalType": "address",
          "name": "to",
          "type": "address"
        },
        {
          "indexed": false,
          "internalType": "uint256",
          "name": "value",
          "type": "uint256"
        }
      ],
      "name": "NativeWithdrawal",
      "type": "event"
    },
    {
      "anonymous": false,
      "inputs": [
        {
          "indexed": true,
          "internalType": "address",
          "name": "previousOwner",
          "type": "address"
        },
        {
          "indexed": true,
          "internalType": "address",
          "name": "newOwner",
          "type": "address"
        }
      ],
      "name": "OwnershipTransferred",
      "type": "event"
    },
    {
      "anonymous": false,
      "inputs": [
        {
          "indexed": false,
          "internalType": "contract IERC20Upgradeable",
          "name": "token",
          "type": "address"
        },
        {
          "components": [
            {
              "internalType": "address",
              "name": "provider",
              "type": "address"
            },
            {
              "internalType": "uint64",
              "name": "nonce",
              "type": "uint64"
            },
            {
              "internalType": "bytes32",
              "name": "account",
              "type": "bytes32"
            },
            {
              "components": [
                {
                  "internalType": "enum ResourceData.ResourceType",
                  "name": "resourceType",
                  "type": "uint8"
                },
                {
                  "internalType": "uint256[]",
                  "name": "values",
                  "type": "uint256[]"
                }
              ],
              "internalType": "struct ResourceData.Payload[]",
              "name": "payloads",
              "type": "tuple[]"
            }
          ],
          "indexed": false,
          "internalType": "struct IDstChainPayment.PaymentPayload",
          "name": "payload",
          "type": "tuple"
        }
      ],
      "name": "Paid",
      "type": "event"
    },
    {
      "anonymous": false,
      "inputs": [
        {
          "indexed": false,
          "internalType": "address",
          "name": "account",
          "type": "address"
        }
      ],
      "name": "Paused",
      "type": "event"
    },
    {
      "anonymous": false,
      "inputs": [
        {
          "indexed": false,
          "internalType": "address",
          "name": "account",
          "type": "address"
        }
      ],
      "name": "PauserAdded",
      "type": "event"
    },
    {
      "anonymous": false,
      "inputs": [
        {
          "indexed": false,
          "internalType": "address",
          "name": "account",
          "type": "address"
        }
      ],
      "name": "PauserRemoved",
      "type": "event"
    },
    {
      "anonymous": false,
      "inputs": [
        {
          "indexed": false,
          "internalType": "contract IProviders",
          "name": "providers",
          "type": "address"
        }
      ],
      "name": "ProvidersUpdated",
      "type": "event"
    },
    {
      "anonymous": false,
      "inputs": [
        {
          "indexed": false,
          "internalType": "contract IERC20Upgradeable",
          "name": "token",
          "type": "address"
        }
      ],
      "name": "TokenUpdated",
      "type": "event"
    },
    {
      "anonymous": false,
      "inputs": [
        {
          "indexed": false,
          "internalType": "address",
          "name": "account",
          "type": "address"
        }
      ],
      "name": "Unpaused",
      "type": "event"
    },
    {
      "anonymous": false,
      "inputs": [
        {
          "indexed": false,
          "internalType": "contract IERC20Upgradeable",
          "name": "token",
          "type": "address"
        },
        {
          "indexed": false,
          "internalType": "address",
          "name": "to",
          "type": "address"
        },
        {
          "indexed": false,
          "internalType": "uint256",
          "name": "value",
          "type": "uint256"
        }
      ],
      "name": "Withdrawal",
      "type": "event"
    },
    {
      "inputs": [
        {
          "internalType": "address",
          "name": "account",
          "type": "address"
        }
      ],
      "name": "addPauser",
      "outputs": [],
      "stateMutability": "nonpayable",
      "type": "function"
    },
    {
      "inputs": [],
      "name": "arStorageController",
      "outputs": [
        {
          "internalType": "contract INormalResourceController",
          "name": "",
          "type": "address"
        }
      ],
      "stateMutability": "view",
      "type": "function"
    },
    {
      "inputs": [],
      "name": "bandwidthController",
      "outputs": [
        {
          "internalType": "contract INormalResourceController",
          "name": "",
          "type": "address"
        }
      ],
      "stateMutability": "view",
      "type": "function"
    },
    {
      "inputs": [],
      "name": "buildingTimeController",
      "outputs": [
        {
          "internalType": "contract INormalResourceController",
          "name": "",
          "type": "address"
        }
      ],
      "stateMutability": "view",
      "type": "function"
    },
    {
      "inputs": [
        {
          "internalType": "uint256",
          "name": "amount",
          "type": "uint256"
        },
        {
          "components": [
            {
              "internalType": "enum ResourceData.ResourceType",
              "name": "resourceType",
              "type": "uint8"
            },
            {
              "internalType": "uint256[]",
              "name": "values",
              "type": "uint256[]"
            }
          ],
          "internalType": "struct ResourceData.Payload[]",
          "name": "payloads",
          "type": "tuple[]"
        }
      ],
      "name": "convertSourceChainPayloads",
      "outputs": [
        {
          "components": [
            {
              "internalType": "enum ResourceData.ResourceType",
              "name": "resourceType",
              "type": "uint8"
            },
            {
              "internalType": "uint256[]",
              "name": "values",
              "type": "uint256[]"
            }
          ],
          "internalType": "struct ResourceData.Payload[]",
          "name": "",
          "type": "tuple[]"
        }
      ],
      "stateMutability": "view",
      "type": "function"
    },
    {
      "inputs": [
        {
          "internalType": "bytes",
          "name": "message",
          "type": "bytes"
        }
      ],
      "name": "decodeSourceChainMessage",
      "outputs": [
        {
          "internalType": "address",
          "name": "provider",
          "type": "address"
        },
        {
          "internalType": "uint64",
          "name": "nonce",
          "type": "uint64"
        },
        {
          "internalType": "bytes32",
          "name": "account",
          "type": "bytes32"
        },
        {
          "components": [
            {
              "internalType": "enum ResourceData.ResourceType",
              "name": "resourceType",
              "type": "uint8"
            },
            {
              "internalType": "uint256[]",
              "name": "values",
              "type": "uint256[]"
            }
          ],
          "internalType": "struct ResourceData.Payload[]",
          "name": "payloads",
          "type": "tuple[]"
        }
      ],
      "stateMutability": "view",
      "type": "function"
    },
    {
      "inputs": [
        {
          "internalType": "address",
          "name": "owner",
          "type": "address"
        },
        {
          "internalType": "address",
          "name": "pauser",
          "type": "address"
        },
        {
          "internalType": "contract IProviders",
          "name": "providers",
          "type": "address"
        },
        {
          "internalType": "address",
          "name": "messageReceiver",
          "type": "address"
        },
        {
          "internalType": "contract IERC20Upgradeable",
          "name": "token",
          "type": "address"
        }
      ],
      "name": "initialize",
      "outputs": [],
      "stateMutability": "nonpayable",
      "type": "function"
    },
    {
      "inputs": [],
      "name": "ipfsStorageController",
      "outputs": [
        {
          "internalType": "contract IIPFSStorageController",
          "name": "",
          "type": "address"
        }
      ],
      "stateMutability": "view",
      "type": "function"
    },
    {
      "inputs": [
        {
          "internalType": "address",
          "name": "account",
          "type": "address"
        }
      ],
      "name": "isPauser",
      "outputs": [
        {
          "internalType": "bool",
          "name": "",
          "type": "bool"
        }
      ],
      "stateMutability": "view",
      "type": "function"
    },
    {
      "inputs": [
        {
          "internalType": "uint256",
          "name": "value",
          "type": "uint256"
        }
      ],
      "name": "matchResourceToToken",
      "outputs": [
        {
          "internalType": "uint256",
          "name": "",
          "type": "uint256"
        }
      ],
      "stateMutability": "view",
      "type": "function"
    },
    {
      "inputs": [
        {
          "internalType": "uint256",
          "name": "value",
          "type": "uint256"
        }
      ],
      "name": "matchTokenToResource",
      "outputs": [
        {
          "internalType": "uint256",
          "name": "",
          "type": "uint256"
        }
      ],
      "stateMutability": "view",
      "type": "function"
    },
    {
      "inputs": [],
      "name": "messageReceiver",
      "outputs": [
        {
          "internalType": "address",
          "name": "",
          "type": "address"
        }
      ],
      "stateMutability": "view",
      "type": "function"
    },
    {
      "inputs": [],
      "name": "owner",
      "outputs": [
        {
          "internalType": "address",
          "name": "",
          "type": "address"
        }
      ],
      "stateMutability": "view",
      "type": "function"
    },
    {
      "inputs": [
        {
          "internalType": "contract IERC20Upgradeable",
          "name": "token",
          "type": "address"
        },
        {
          "internalType": "address",
          "name": "to",
          "type": "address"
        },
        {
          "internalType": "uint256",
          "name": "value",
          "type": "uint256"
        }
      ],
      "name": "ownerWithdrawERC20",
      "outputs": [],
      "stateMutability": "nonpayable",
      "type": "function"
    },
    {
      "inputs": [
        {
          "internalType": "address payable",
          "name": "to",
          "type": "address"
        },
        {
          "internalType": "uint256",
          "name": "value",
          "type": "uint256"
        }
      ],
      "name": "ownerWithdrawNative",
      "outputs": [],
      "stateMutability": "nonpayable",
      "type": "function"
    },
    {
      "inputs": [],
      "name": "pause",
      "outputs": [],
      "stateMutability": "nonpayable",
      "type": "function"
    },
    {
      "inputs": [],
      "name": "paused",
      "outputs": [
        {
          "internalType": "bool",
          "name": "",
          "type": "bool"
        }
      ],
      "stateMutability": "view",
      "type": "function"
    },
    {
      "inputs": [
        {
          "internalType": "address",
          "name": "",
          "type": "address"
        }
      ],
      "name": "pausers",
      "outputs": [
        {
          "internalType": "bool",
          "name": "",
          "type": "bool"
        }
      ],
      "stateMutability": "view",
      "type": "function"
    },
    {
      "inputs": [
        {
          "components": [
            {
              "internalType": "address",
              "name": "provider",
              "type": "address"
            },
            {
              "internalType": "uint64",
              "name": "nonce",
              "type": "uint64"
            },
            {
              "internalType": "bytes32",
              "name": "account",
              "type": "bytes32"
            },
            {
              "components": [
                {
                  "internalType": "enum ResourceData.ResourceType",
                  "name": "resourceType",
                  "type": "uint8"
                },
                {
                  "internalType": "uint256[]",
                  "name": "values",
                  "type": "uint256[]"
                }
              ],
              "internalType": "struct ResourceData.Payload[]",
              "name": "payloads",
              "type": "tuple[]"
            }
          ],
          "internalType": "struct IDstChainPayment.PaymentPayload",
          "name": "payload",
          "type": "tuple"
        }
      ],
      "name": "pay",
      "outputs": [
        {
          "internalType": "uint256",
          "name": "value",
          "type": "uint256"
        }
      ],
      "stateMutability": "nonpayable",
      "type": "function"
    },
    {
      "inputs": [
        {
          "internalType": "contract IERC20Upgradeable",
          "name": "_token",
          "type": "address"
        },
        {
          "internalType": "uint256",
          "name": "dstAmount",
          "type": "uint256"
        },
        {
          "internalType": "bytes",
          "name": "message",
          "type": "bytes"
        }
      ],
      "name": "payFromSourceChain",
      "outputs": [],
      "stateMutability": "nonpayable",
      "type": "function"
    },
    {
      "inputs": [],
      "name": "providers",
      "outputs": [
        {
          "internalType": "contract IProviders",
          "name": "",
          "type": "address"
        }
      ],
      "stateMutability": "view",
      "type": "function"
    },
    {
      "inputs": [
        {
          "internalType": "address",
          "name": "account",
          "type": "address"
        }
      ],
      "name": "removePauser",
      "outputs": [],
      "stateMutability": "nonpayable",
      "type": "function"
    },
    {
      "inputs": [],
      "name": "renounceOwnership",
      "outputs": [],
      "stateMutability": "nonpayable",
      "type": "function"
    },
    {
      "inputs": [],
      "name": "renouncePauser",
      "outputs": [],
      "stateMutability": "nonpayable",
      "type": "function"
    },
    {
      "inputs": [],
      "name": "resourceDecimals",
      "outputs": [
        {
          "internalType": "uint256",
          "name": "",
          "type": "uint256"
        }
      ],
      "stateMutability": "view",
      "type": "function"
    },
    {
      "inputs": [
        {
          "internalType": "contract INormalResourceController",
          "name": "_arStorageController",
          "type": "address"
        }
      ],
      "name": "setARStorageController",
      "outputs": [],
      "stateMutability": "nonpayable",
      "type": "function"
    },
    {
      "inputs": [
        {
          "internalType": "contract INormalResourceController",
          "name": "_bandwidthController",
          "type": "address"
        }
      ],
      "name": "setBandwidthController",
      "outputs": [],
      "stateMutability": "nonpayable",
      "type": "function"
    },
    {
      "inputs": [
        {
          "internalType": "contract INormalResourceController",
          "name": "_buildingTimeController",
          "type": "address"
        }
      ],
      "name": "setBuildingTimeController",
      "outputs": [],
      "stateMutability": "nonpayable",
      "type": "function"
    },
    {
      "inputs": [
        {
          "internalType": "contract IIPFSStorageController",
          "name": "_ipfsStorageController",
          "type": "address"
        }
      ],
      "name": "setIPFSStorageController",
      "outputs": [],
      "stateMutability": "nonpayable",
      "type": "function"
    },
    {
      "inputs": [
        {
          "internalType": "address",
          "name": "_messageReceiver",
          "type": "address"
        }
      ],
      "name": "setMessageReceiver",
      "outputs": [],
      "stateMutability": "nonpayable",
      "type": "function"
    },
    {
      "inputs": [
        {
          "internalType": "contract IERC20Upgradeable",
          "name": "_token",
          "type": "address"
        }
      ],
      "name": "setToken",
      "outputs": [],
      "stateMutability": "nonpayable",
      "type": "function"
    },
    {
      "inputs": [],
      "name": "token",
      "outputs": [
        {
          "internalType": "contract IERC20Upgradeable",
          "name": "",
          "type": "address"
        }
      ],
      "stateMutability": "view",
      "type": "function"
    },
    {
      "inputs": [],
      "name": "tokenDecimals",
      "outputs": [
        {
          "internalType": "uint256",
          "name": "",
          "type": "uint256"
        }
      ],
      "stateMutability": "view",
      "type": "function"
    },
    {
      "inputs": [
        {
          "components": [
            {
              "internalType": "enum ResourceData.ResourceType",
              "name": "resourceType",
              "type": "uint8"
            },
            {
              "internalType": "uint256[]",
              "name": "values",
              "type": "uint256[]"
            }
          ],
          "internalType": "struct ResourceData.Payload[]",
          "name": "payloads",
          "type": "tuple[]"
        }
      ],
      "name": "totalValue",
      "outputs": [
        {
          "internalType": "uint256",
          "name": "value",
          "type": "uint256"
        }
      ],
      "stateMutability": "pure",
      "type": "function"
    },
    {
      "inputs": [
        {
          "internalType": "address",
          "name": "newOwner",
          "type": "address"
        }
      ],
      "name": "transferOwnership",
      "outputs": [],
      "stateMutability": "nonpayable",
      "type": "function"
    },
    {
      "inputs": [],
      "name": "unpause",
      "outputs": [],
      "stateMutability": "nonpayable",
      "type": "function"
    }
  ],
  "transactionHash": "0x74fdfe196ac22ecd65bd7bedbf9bcbba40f919a6963463a0f52edc62b583446e",
  "args": [],
  "solcInputHash": "36a92e36f2101c4292e0f35264c7fe51",
  "bytecode": "0x60806040523480156200001157600080fd5b50600054610100900460ff166200002f5760005460ff161562000039565b620000396200009e565b620000615760405162461bcd60e51b81526004016200005890620000cb565b60405180910390fd5b600054610100900460ff1615801562000084576000805461ffff19166101011790555b801562000097576000805461ff00191690555b5062000124565b6000620000b630620000bc60201b62000e591760201c565b15905090565b6001600160a01b03163b151590565b602080825281016200011e81602e81527f496e697469616c697a61626c653a20636f6e747261637420697320616c72656160208201526d191e481a5b9a5d1a585b1a5e995960921b604082015260600190565b92915050565b61339780620001346000396000f3fe608060405234801561001057600080fd5b506004361061021c5760003560e01c80637a7fa75311610125578063bd169975116100ad578063f2fde38b1161007c578063f2fde38b14610490578063f6745296146104a3578063f8401fe6146104b6578063f8f071fa146104c9578063fc0c546a146104dc57600080fd5b8063bd16997514610434578063e2cae9f514610457578063e84372491461046a578063f12973d31461047d57600080fd5b80638da5cb5b116100f45780638da5cb5b146103ce578063914fd2c3146103e857806393563a95146103fb578063b05f87a81461040e578063bb3711111461042157600080fd5b80637a7fa7531461037d57806380f51c121461039057806382dc1ec4146103b35780638456cb59146103c657600080fd5b8063490e4fa2116101a8578063699256f411610177578063699256f4146103345780636b2c0f55146103475780636ef8d66d1461035a578063715018a61461036257806377ef533c1461036a57600080fd5b8063490e4fa2146102e85780635618ce2d146102fb5780635c975abb1461031b57806368b869541461032d57600080fd5b80633b8ccfb1116101ef5780633b8ccfb1146102855780633b97e856146102985780633f4ba83a146102ad5780634540a85b146102b557806346fbf68e146102c857600080fd5b8063144fa6d7146102215780631459457a1461023657806315e077691461024957806329dbfc7514610272575b600080fd5b61023461022f366004611b7d565b6104f5565b005b610234610244366004611bb2565b610534565b609b5461025c906001600160a01b031681565b6040516102699190611c44565b60405180910390f35b60995461025c906001600160a01b031681565b610234610293366004611c52565b6105d8565b6102a061060b565b6040516102699190611c79565b6102346106b7565b6102346102c3366004611b7d565b6106e6565b6102db6102d6366004611c52565b610719565b6040516102699190611c8f565b6102a06102f6366004611f66565b610737565b61030e610309366004611fa0565b610816565b604051610269919061213f565b609c54600160a01b900460ff166102db565b60126102a0565b610234610342366004612150565b61082b565b610234610355366004611c52565b6108d9565b61023461090c565b610234610915565b6102346103783660046121d4565b610949565b61023461038b366004611b7d565b610b13565b6102db61039e366004611c52565b60ce6020526000908152604090205460ff1681565b6102346103c1366004611c52565b610b46565b610234610b79565b6033546001600160a01b03165b604051610269919061224a565b6102346103f6366004611b7d565b610ba6565b610234610409366004612258565b610bd9565b609c5461025c906001600160a01b031681565b6102a061042f3660046122a8565b610c4a565b610447610442366004612370565b610d17565b60405161026994939291906123b9565b6065546103db906001600160a01b031681565b610234610478366004611b7d565b610d41565b6102a061048b3660046123fd565b610d74565b61023461049e366004611c52565b610dd0565b6102a06104b13660046123fd565b610e29565b60985461025c906001600160a01b031681565b609a5461025c906001600160a01b031681565b60005461025c906201000090046001600160a01b031681565b6033546001600160a01b031633146105285760405162461bcd60e51b815260040161051f90612453565b60405180910390fd5b61053181610e68565b50565b600054610100900460ff1661054f5760005460ff1615610553565b303b155b61056f5760405162461bcd60e51b815260040161051f906124b1565b600054610100900460ff16158015610591576000805461ffff19166101011790555b61059a86610ef7565b6105a385610f49565b6105ac84610f70565b6105b583610fa0565b6105be82610fc7565b80156105d0576000805461ff00191690555b505050505050565b6033546001600160a01b031633146106025760405162461bcd60e51b815260040161051f90612453565b61053181610fee565b60008060008060029054906101000a90046001600160a01b03166001600160a01b031660405161063a906124c1565b600060405180830381855afa9150503d8060008114610675576040519150601f19603f3d011682016040523d82523d6000602084013e61067a565b606091505b50915091508161069c5760405162461bcd60e51b815260040161051f90612519565b808060200190518101906106b09190612534565b9250505090565b6106c033610719565b6106dc5760405162461bcd60e51b815260040161051f90612587565b6106e4611039565b565b6033546001600160a01b031633146107105760405162461bcd60e51b815260040161051f90612453565b610531816110a9565b6001600160a01b0316600090815260ce602052604090205460ff1690565b609c54600090600160a01b900460ff16156107645760405162461bcd60e51b815260040161051f906125be565b600260665414156107875760405162461bcd60e51b815260040161051f90612602565b6002606655604082015160608301516107a2919060016110f4565b90506107ad81610d74565b90506107bd826000015182611435565b507fc5f1085d8db8470034ca0b57c2029a07440e82632d8b6d34119bcc93fed80648600060029054906101000a90046001600160a01b0316836040516108049291906126bd565b60405180910390a16001606655919050565b606061082283836114f0565b90505b92915050565b6033546001600160a01b031633146108555760405162461bcd60e51b815260040161051f90612453565b6040516000906001600160a01b0384169083156108fc0290849084818181858888f1935050505090508061089b5760405162461bcd60e51b815260040161051f9061271f565b7f2c876ecb97b3c6854f2488d373403f903eacb800e51c159a5c0c7a9c857e482783836040516108cc92919061272f565b60405180910390a1505050565b6033546001600160a01b031633146109035760405162461bcd60e51b815260040161051f90612453565b6105318161166e565b6106e43361166e565b6033546001600160a01b0316331461093f5760405162461bcd60e51b815260040161051f90612453565b6106e46000610ef7565b6065546001600160a01b031633146109735760405162461bcd60e51b815260040161051f9061279d565b609c54600160a01b900460ff161561099d5760405162461bcd60e51b815260040161051f906125be565b600260665414156109c05760405162461bcd60e51b815260040161051f90612602565b60026066556000546001600160a01b038581166201000090920416146109f85760405162461bcd60e51b815260040161051f906127e1565b600080600080610a3d86868080601f016020809104026020016040519081016040528093929190818152602001838380828437600092019190915250610d1792505050565b93509350935093506000610a5088610e29565b905060006040518060800160405280876001600160a01b03168152602001866001600160401b03168152602001858152602001610a8d84866114f0565b8152509050610aa68160400151826060015160006110f4565b508051610ab3908a611435565b507fc5f1085d8db8470034ca0b57c2029a07440e82632d8b6d34119bcc93fed80648600060029054906101000a90046001600160a01b031682604051610afa9291906126bd565b60405180910390a1505060016066555050505050505050565b6033546001600160a01b03163314610b3d5760405162461bcd60e51b815260040161051f90612453565b610531816116e3565b6033546001600160a01b03163314610b705760405162461bcd60e51b815260040161051f90612453565b6105318161172e565b610b8233610719565b610b9e5760405162461bcd60e51b815260040161051f90612587565b6106e46117a7565b6033546001600160a01b03163314610bd05760405162461bcd60e51b815260040161051f90612453565b6105318161180c565b6033546001600160a01b03163314610c035760405162461bcd60e51b815260040161051f90612453565b610c176001600160a01b0384168383611857565b7f2717ead6b9200dd235aad468c9809ea400fe33ac69b5bfaa6d3e90fc922b63988383836040516108cc939291906127f1565b600080825111610c6c5760405162461bcd60e51b815260040161051f90612860565b60005b8251811015610d115760005b838281518110610c8d57610c8d612870565b60200260200101516020015151811015610cfe57610cea848381518110610cb657610cb6612870565b6020026020010151602001518281518110610cd357610cd3612870565b6020026020010151846118b290919063ffffffff16565b925080610cf68161289c565b915050610c7b565b5080610d098161289c565b915050610c6f565b50919050565b6000806000606084806020019051810190610d329190612a36565b92989197509550909350915050565b6033546001600160a01b03163314610d6b5760405162461bcd60e51b815260040161051f90612453565b610531816118be565b600080610d7f61060b565b90506012808211610db157610da9610d978284611909565b610da290600a612bc2565b8590611915565b949350505050565b610da9610dbe8383611909565b610dc990600a612bc2565b8590611921565b6033546001600160a01b03163314610dfa5760405162461bcd60e51b815260040161051f90612453565b6001600160a01b038116610e205760405162461bcd60e51b815260040161051f90612c14565b61053181610ef7565b600080610e3461060b565b90506012808211610e4c57610da9610dbe8284611909565b610da9610d978383611909565b6001600160a01b03163b151590565b6001600160a01b038116610e8e5760405162461bcd60e51b815260040161051f90612c66565b6000805462010000600160b01b031916620100006001600160a01b03848116820292909217928390556040517f5ba6b30cd4b2f9e9e67f4feb9b9df10d5da3b057598e6901b217b7d590345e3093610eec9392900490911690611c44565b60405180910390a150565b603380546001600160a01b038381166001600160a01b0319831681179093556040519116919082907f8be0079c531659141344cd1fd0a4f28419497f9722a3daafe3b4186f6b6457e090600090a35050565b600054610100900460ff16610b705760405162461bcd60e51b815260040161051f90612cbe565b600054610100900460ff16610f975760405162461bcd60e51b815260040161051f90612cbe565b6105318161192d565b600054610100900460ff166106025760405162461bcd60e51b815260040161051f90612cbe565b600054610100900460ff166105285760405162461bcd60e51b815260040161051f90612cbe565b606580546001600160a01b0319166001600160a01b0383161790556040517fafe9b28ca24a54df8c44769c685f7b92824aae021cdfcaa4719d493571a23c4c90610eec90839061224a565b609c54600160a01b900460ff166110625760405162461bcd60e51b815260040161051f90612cf9565b609c805460ff60a01b191690557f5db9ee0a495bf2e6ff9c91a7834c1ba4fdd244a5e8aa4e537bd38aeae4b073aa335b60405161109f919061224a565b60405180910390a1565b609c80546001600160a01b0319166001600160a01b0383161790556040517f7b091d9397a2f75213edeec1728b27a9d863f0f8aafb62fce0f1154f48f110f890610eec908390611c44565b6000808351116111165760405162461bcd60e51b815260040161051f90612d47565b60005b835181101561142d57600084828151811061113657611136612870565b602002602001015190506001600481111561115357611153611ff7565b8151600481111561116657611166611ff7565b141561121a578060200151516001146111915760405162461bcd60e51b815260040161051f90612d98565b609954602082015180516001600160a01b039092169163467aa8de9189916000906111be576111be612870565b60200260200101516040518363ffffffff1660e01b81526004016111e3929190612da8565b600060405180830381600087803b1580156111fd57600080fd5b505af1158015611211573d6000803e3d6000fd5b505050506113be565b60038151600481111561122f5761122f611ff7565b14156112875780602001515160011461125a5760405162461bcd60e51b815260040161051f90612df4565b609b54602082015180516001600160a01b039092169163467aa8de9189916000906111be576111be612870565b60028151600481111561129c5761129c611ff7565b14156112f4578060200151516001146112c75760405162461bcd60e51b815260040161051f90612e42565b609a54602082015180516001600160a01b039092169163467aa8de9189916000906111be576111be612870565b60048151600481111561130957611309611ff7565b14156113a6578060200151516002146113345760405162461bcd60e51b815260040161051f90612e92565b609c54602082015180516001600160a01b0390921691634235fec091899160009061136157611361612870565b6020026020010151846020015160018151811061138057611380612870565b60200260200101516040518463ffffffff1660e01b81526004016111e393929190612ea2565b60405162461bcd60e51b815260040161051f90612f00565b831561141a5760005b81602001515181101561141857611404826020015182815181106113ed576113ed612870565b6020026020010151856118b290919063ffffffff16565b9350806114108161289c565b9150506113c7565b505b50806114258161289c565b915050611119565b509392505050565b609854604051636b074a0760e01b81526000916001600160a01b031690636b074a079061146690869060040161224a565b60206040518083038186803b15801561147e57600080fd5b505afa158015611492573d6000803e3d6000fd5b505050506040513d601f19601f820116820180604052508101906114b69190612f23565b6114d25760405162461bcd60e51b815260040161051f90612f86565b600054610825906201000090046001600160a01b0316333085611978565b606060008251116115135760405162461bcd60e51b815260040161051f90612fdc565b600061151e83610c4a565b9050600081116115405760405162461bcd60e51b815260040161051f9061302c565b60005b835181101561166557600084828151811061156057611560612870565b602002602001015160200151511161158a5760405162461bcd60e51b815260040161051f90613080565b60005b84828151811061159f5761159f612870565b602002602001015160200151518110156116525761160683611600888886815181106115cd576115cd612870565b60200260200101516020015185815181106115ea576115ea612870565b602002602001015161192190919063ffffffff16565b90611915565b85838151811061161857611618612870565b602002602001015160200151828151811061163557611635612870565b60209081029190910101528061164a8161289c565b91505061158d565b508061165d8161289c565b915050611543565b50919392505050565b61167781610719565b6116935760405162461bcd60e51b815260040161051f906130c4565b6001600160a01b038116600090815260ce602052604090819020805460ff19169055517fcd265ebaf09df2871cc7bd4133404a235ba12eff2041bb89d9c714a2621c7c7e90610eec90839061224a565b609a80546001600160a01b0319166001600160a01b0383161790556040517f100702071f8eb4f459f5f9dcf12bba9b3aeafa0eca6a018364f645558d792c3790610eec908390611c44565b61173781610719565b156117545760405162461bcd60e51b815260040161051f90613112565b6001600160a01b038116600090815260ce602052604090819020805460ff19166001179055517f6719d08c1888103bea251a4ed56406bd0c3e69723c8a1686e017e7bbe159b6f890610eec90839061224a565b609c54600160a01b900460ff16156117d15760405162461bcd60e51b815260040161051f906125be565b609c805460ff60a01b1916600160a01b1790557f62e78cea01bee320cd4e420270b5ea74000d11b0c9f74754ebdbfc544b05a2586110923390565b609b80546001600160a01b0319166001600160a01b0383161790556040517f6a7e09ebc58179cd1c17c89209474e58d29e43b1bf78dd57f896e7be983220eb90610eec908390611c44565b6118ad8363a9059cbb60e01b8484604051602401611876929190613122565b60408051601f198184030181529190526020810180516001600160e01b03166001600160e01b03199093169290921790915261199f565b505050565b60006108228284613130565b609980546001600160a01b0319166001600160a01b0383161790556040517feb1b948f6c63784a1d91e42dd967c49aae87b1db36d3107e9b913963ae7cd03990610eec908390611c44565b60006108228284613148565b60006108228284613175565b60006108228284613189565b609880546001600160a01b0319166001600160a01b0383161790556040517fe63288198842f0dacdcbdc3f22dcd4e473d1f3cee7e10603ae6ddc3e667c528490610eec908390611c44565b611999846323b872dd60e01b858585604051602401611876939291906131a8565b50505050565b60006119f4826040518060400160405280602081526020017f5361666545524332303a206c6f772d6c6576656c2063616c6c206661696c6564815250856001600160a01b0316611a2e9092919063ffffffff16565b8051909150156118ad5780806020019051810190611a129190612f23565b6118ad5760405162461bcd60e51b815260040161051f906131fd565b6060611a3d8484600085611a47565b90505b9392505050565b606082471015611a695760405162461bcd60e51b815260040161051f90613250565b6001600160a01b0385163b611a905760405162461bcd60e51b815260040161051f90613294565b600080866001600160a01b03168587604051611aac91906132f2565b60006040518083038185875af1925050503d8060008114611ae9576040519150601f19603f3d011682016040523d82523d6000602084013e611aee565b606091505b5091509150611afe828286611b09565b979650505050505050565b60608315611b18575081611a40565b825115611b285782518084602001fd5b8160405162461bcd60e51b815260040161051f9190613330565b60006001600160a01b038216610825565b600061082582611b42565b611b6781611b53565b811461053157600080fd5b803561082581611b5e565b600060208284031215611b9257611b92600080fd5b6000610da98484611b72565b611b6781611b42565b803561082581611b9e565b600080600080600060a08688031215611bcd57611bcd600080fd5b6000611bd98888611ba7565b9550506020611bea88828901611ba7565b9450506040611bfb88828901611b72565b9350506060611c0c88828901611ba7565b9250506080611c1d88828901611b72565b9150509295509295909350565b600061082582611b53565b611c3e81611c2a565b82525050565b602081016108258284611c35565b600060208284031215611c6757611c67600080fd5b6000610da98484611ba7565b80611c3e565b602081016108258284611c73565b801515611c3e565b602081016108258284611c87565b634e487b7160e01b600052604160045260246000fd5b601f19601f83011681018181106001600160401b0382111715611cd857611cd8611c9d565b6040525050565b6000611cea60405190565b9050611cf68282611cb3565b919050565b6001600160401b038116611b67565b803561082581611cfb565b80611b67565b803561082581611d15565b60006001600160401b03821115611d3f57611d3f611c9d565b5060209081020190565b6005811061053157600080fd5b803561082581611d49565b6000611d74611d6f84611d26565b611cdf565b83815290506020808201908402830185811115611d9357611d93600080fd5b835b81811015611db75780611da88882611d1b565b84525060209283019201611d95565b5050509392505050565b600082601f830112611dd557611dd5600080fd5b8135610da9848260208601611d61565b600060408284031215611dfa57611dfa600080fd5b611e046040611cdf565b90506000611e128484611d56565b82525060208201356001600160401b03811115611e3157611e31600080fd5b611e3d84828501611dc1565b60208301525092915050565b6000611e57611d6f84611d26565b83815290506020808201908402830185811115611e7657611e76600080fd5b835b81811015611db75780356001600160401b03811115611e9957611e99600080fd5b808601611ea68982611de5565b8552505060209283019201611e78565b600082601f830112611eca57611eca600080fd5b8135610da9848260208601611e49565b600060808284031215611eef57611eef600080fd5b611ef96080611cdf565b90506000611f078484611ba7565b8252506020611f1884848301611d0a565b6020830152506040611f2c84828501611d1b565b60408301525060608201356001600160401b03811115611f4e57611f4e600080fd5b611f5a84828501611eb6565b60608301525092915050565b600060208284031215611f7b57611f7b600080fd5b81356001600160401b03811115611f9457611f94600080fd5b610da984828501611eda565b60008060408385031215611fb657611fb6600080fd5b6000611fc28585611d1b565b92505060208301356001600160401b03811115611fe157611fe1600080fd5b611fed85828601611eb6565b9150509250929050565b634e487b7160e01b600052602160045260246000fd5b6005811061053157610531611ff7565b80611cf68161200d565b60006108258261201d565b611c3e81612027565b60006120478383611c73565b505060200190565b6000612059825190565b80845260209384019383018060005b8381101561208d57815161207c888261203b565b975060208301925050600101612068565b509495945050505050565b805160009060408401906120ac8582612032565b50602083015184820360208601526120c4828261204f565b95945050505050565b60006108228383612098565b60006120e3825190565b808452602084019350836020820285016120fd8560200190565b8060005b85811015612132578484038952815161211a85826120cd565b94506020830160209a909a0199925050600101612101565b5091979650505050505050565b6020808252810161082281846120d9565b6000806040838503121561216657612166600080fd5b60006121728585611ba7565b9250506020611fed85828601611d1b565b60008083601f84011261219857612198600080fd5b5081356001600160401b038111156121b2576121b2600080fd5b6020830191508360018202830111156121cd576121cd600080fd5b9250929050565b600080600080606085870312156121ed576121ed600080fd5b60006121f98787611b72565b945050602061220a87828801611d1b565b93505060408501356001600160401b0381111561222957612229600080fd5b61223587828801612183565b95989497509550505050565b611c3e81611b42565b602081016108258284612241565b60008060006060848603121561227057612270600080fd5b600061227c8686611b72565b935050602061228d86828701611ba7565b925050604061229e86828701611d1b565b9150509250925092565b6000602082840312156122bd576122bd600080fd5b81356001600160401b038111156122d6576122d6600080fd5b610da984828501611eb6565b60006001600160401b038211156122fb576122fb611c9d565b601f19601f83011660200192915050565b82818337506000910152565b6000612326611d6f846122e2565b90508281526020810184848401111561234157612341600080fd5b61142d84828561230c565b600082601f83011261236057612360600080fd5b8135610da9848260208601612318565b60006020828403121561238557612385600080fd5b81356001600160401b0381111561239e5761239e600080fd5b610da98482850161234c565b6001600160401b038116611c3e565b608081016123c78287612241565b6123d460208301866123aa565b6123e16040830185611c73565b81810360608301526123f381846120d9565b9695505050505050565b60006020828403121561241257612412600080fd5b6000610da98484611d1b565b60208082527f4f776e61626c653a2063616c6c6572206973206e6f7420746865206f776e6572910190815260005b5060200190565b602080825281016108258161241e565b602e81526000602082017f496e697469616c697a61626c653a20636f6e747261637420697320616c72656181526d191e481a5b9a5d1a585b1a5e995960921b602082015291505b5060400190565b6020808252810161082581612463565b63313ce56760e01b8152600060048201610825565b602681526000602082017f5265736f75726365506179546f6b656e577261707065723a20696e76616c6964815265103a37b5b2b760d11b602082015291506124aa565b60208082528101610825816124d6565b805161082581611d15565b60006020828403121561254957612549600080fd5b6000610da98484612529565b60208082527f5061757365723a2063616c6c6572206973206e6f7420746865207061757365729101908152600061244c565b6020808252810161082581612555565b601081526000602082016f14185d5cd8589b194e881c185d5cd95960821b8152915061244c565b6020808252810161082581612597565b601f81526000602082017f5265656e7472616e637947756172643a207265656e7472616e742063616c6c008152915061244c565b60208082528101610825816125ce565b600061261c825190565b808452602084019350836020820285016126368560200190565b8060005b85811015612132578484038952815161265385826120cd565b94506020830160209a909a019992505060010161263a565b8051600090608084019061267f8582612241565b50602083015161269260208601826123aa565b5060408301516126a56040860182611c73565b50606083015184820360608601526120c48282612612565b604081016126cb8285611c35565b8181036020830152611a3d818461266b565b602581526000602082017f5061796d656e743a207769746864726177206e617469766520746f6b656e2066815264185a5b195960da1b602082015291506124aa565b60208082528101610825816126dd565b6040810161273d8285611c35565b611a406020830184611c73565b603681526000602082017f4d6573736167655265636569766572577261707065723a2063616c6c6572206981527539903737ba1036b2b9b9b0b3b2903932b1b2b4bb32b960511b602082015291506124aa565b602080825281016108258161274a565b601e81526000602082017f447374436861696e5061796d656e743a20696e76616c696420746f6b656e00008152915061244c565b60208082528101610825816127ad565b606081016127ff8286611c35565b61280c6020830185612241565b610da96040830184611c73565b602a81526000602082017f5265736f75725061796c6f6164546f6f6c3a20696e76616c6964207061796c6f8152690c2c8e640d8cadccee8d60b31b602082015291506124aa565b6020808252810161082581612819565b634e487b7160e01b600052603260045260246000fd5b634e487b7160e01b600052601160045260246000fd5b60006000198214156128b0576128b0612886565b5060010190565b805161082581611b9e565b805161082581611cfb565b805161082581611d49565b60006128e6611d6f84611d26565b8381529050602080820190840283018581111561290557612905600080fd5b835b81811015611db7578061291a8882612529565b84525060209283019201612907565b600082601f83011261293d5761293d600080fd5b8151610da98482602086016128d8565b60006040828403121561296257612962600080fd5b61296c6040611cdf565b9050600061297a84846128cd565b82525060208201516001600160401b0381111561299957612999600080fd5b611e3d84828501612929565b60006129b3611d6f84611d26565b838152905060208082019084028301858111156129d2576129d2600080fd5b835b81811015611db75780516001600160401b038111156129f5576129f5600080fd5b808601612a02898261294d565b85525050602092830192016129d4565b600082601f830112612a2657612a26600080fd5b8151610da98482602086016129a5565b60008060008060808587031215612a4f57612a4f600080fd5b6000612a5b87876128b7565b9450506020612a6c878288016128c2565b9350506040612a7d87828801612529565b92505060608501516001600160401b03811115612a9c57612a9c600080fd5b612aa887828801612a12565b91505092959194509250565b80825b6001851115612af357808604811115612ad257612ad2612886565b6001851615612ae057908102905b8002612aec8560011c90565b9450612ab7565b94509492505050565b600082612b0b57506001611a40565b81612b1857506000611a40565b8160018114612b2e5760028114612b3857612b65565b6001915050611a40565b60ff841115612b4957612b49612886565b8360020a915084821115612b5f57612b5f612886565b50611a40565b5060208310610133831016604e8410600b8410161715612b98575081810a83811115612b9357612b93612886565b611a40565b612ba58484846001612ab4565b92509050818404811115612bbb57612bbb612886565b0292915050565b60006108226000198484612afc565b602681526000602082017f4f776e61626c653a206e6577206f776e657220697320746865207a65726f206181526564647265737360d01b602082015291506124aa565b6020808252810161082581612bd1565b602581526000602082017f5265736f75726365506179546f6b656e577261707065723a207a65726f206164815264647265737360d81b602082015291506124aa565b6020808252810161082581612c24565b602b81526000602082017f496e697469616c697a61626c653a20636f6e7472616374206973206e6f74206981526a6e697469616c697a696e6760a81b602082015291506124aa565b6020808252810161082581612c76565b601481526000602082017314185d5cd8589b194e881b9bdd081c185d5cd95960621b8152915061244c565b6020808252810161082581612cce565b602181526000602082017f447374436861696e5061796d656e743a20696e76616c6964207061796c6f61648152607360f81b602082015291506124aa565b6020808252810161082581612d09565b60368152600060208201600080516020613342833981519152815275656e67746820666f72204275696c64696e6754696d6560501b602082015291506124aa565b6020808252810161082581612d57565b6040810161273d8285611c73565b60338152600060208201600080516020613342833981519152815272656e67746820666f7220415253746f7261676560681b602082015291506124aa565b6020808252810161082581612db6565b603381526000602082016000805160206133428339815191528152720cadccee8d040ccdee44084c2dcc8eed2c8e8d606b1b602082015291506124aa565b6020808252810161082581612e04565b60358152600060208201600080516020613342833981519152815274656e67746820666f72204950465353746f7261676560581b602082015291506124aa565b6020808252810161082581612e52565b60608101612eb08286611c73565b61280c6020830185611c73565b602681526000602082017f447374436861696e5061796d656e743a20756e6b6e6f776e207265736f75726381526565207479706560d01b602082015291506124aa565b6020808252810161082581612ebd565b801515611b67565b805161082581612f10565b600060208284031215612f3857612f38600080fd5b6000610da98484612f18565b602581526000602082017f447374436861696e5061796d656e743a206e6f6e6578697374656e742070726f8152643b34b232b960d91b602082015291506124aa565b6020808252810161082581612f44565b602981526000602082017f5265736f75725061796c6f6164546f6f6c3a20696e76616c6964207061796c6f8152680c2c840d8cadccee8d60bb1b602082015291506124aa565b6020808252810161082581612f96565b602381526000602082017f5265736f75725061796c6f6164546f6f6c3a207a65726f20746f74616c2076618152626c756560e81b602082015291506124aa565b6020808252810161082581612fec565b602781526000602082017f5265736f75725061796c6f6164546f6f6c3a20696e76616c69642076616c7565815266040d8cadccee8d60cb1b602082015291506124aa565b602080825281016108258161303c565b601d81526000602082017f5061757365723a206163636f756e74206973206e6f74207061757365720000008152915061244c565b6020808252810161082581613090565b602181526000602082017f5061757365723a206163636f756e7420697320616c72656164792070617573658152603960f91b602082015291506124aa565b60208082528101610825816130d4565b6040810161273d8285612241565b6000821982111561314357613143612886565b500190565b60008282101561315a5761315a612886565b500390565b634e487b7160e01b600052601260045260246000fd5b6000826131845761318461315f565b500490565b60008160001904831182151516156131a3576131a3612886565b500290565b606081016127ff8286612241565b602a81526000602082017f5361666545524332303a204552433230206f7065726174696f6e20646964206e8152691bdd081cdd58d8d9595960b21b602082015291506124aa565b60208082528101610825816131b6565b602681526000602082017f416464726573733a20696e73756666696369656e742062616c616e636520666f8152651c8818d85b1b60d21b602082015291506124aa565b602080825281016108258161320d565b601d81526000602082017f416464726573733a2063616c6c20746f206e6f6e2d636f6e74726163740000008152915061244c565b6020808252810161082581613260565b60005b838110156132bf5781810151838201526020016132a7565b838111156119995750506000910152565b60006132da825190565b6132e88185602086016132a4565b9290920192915050565b6000611a4082846132d0565b6000613308825190565b80845260208401935061331f8185602086016132a4565b601f01601f19169290920192915050565b6020808252810161082281846132fe56fe447374436861696e5061796d656e743a20696e76616c69642076616c7565206ca2646970667358221220e3bd922bdfb6119f5b6467a425d465092c0d4a24f67dc0f8a1ae318a86a38c2964736f6c63430008090033",
  "devdoc": {
    "author": "Alexandas",
    "details": "Celer SGN source chain sender contract",
    "kind": "dev",
    "methods": {
      "addPauser(address)": {
        "details": "add a pauser for the contract",
        "params": {
          "account": "address"
        }
      },
      "convertSourceChainPayloads(uint256,(uint8,uint256[])[])": {
        "details": "convert source chain payloads",
        "params": {
          "amount": "amount tokens",
          "payloads": "payment payloads"
        },
        "returns": {
          "_0": "converted payment payloads"
        }
      },
      "decodeSourceChainMessage(bytes)": {
        "details": "decode source chain message",
        "params": {
          "message": "message bytes"
        },
        "returns": {
          "account": "user account",
          "nonce": "nonce",
          "payloads": "payment payloads",
          "provider": "provider address"
        }
      },
      "initialize(address,address,address,address,address)": {
        "details": "proxy initialize function",
        "params": {
          "messageReceiver": "message receiver contract address",
          "owner": "contract owner",
          "pauser": "contract pauser",
          "providers": "providers contract",
          "token": "token address"
        }
      },
      "isPauser(address)": {
        "details": "whether the account is the contract pauser",
        "params": {
          "account": "address"
        },
        "returns": {
          "_0": "whether account is a pauser"
        }
      },
      "matchResourceToToken(uint256)": {
        "details": "match value to token decimals",
        "params": {
          "value": "resource value"
        },
        "returns": {
          "_0": "token value"
        }
      },
      "matchTokenToResource(uint256)": {
        "details": "match token amount to resource decimals",
        "params": {
          "value": "token amount with resource decimals"
        },
        "returns": {
          "_0": "resource value"
        }
      },
      "owner()": {
        "details": "Returns the address of the current owner."
      },
      "ownerWithdrawERC20(address,address,uint256)": {
        "details": "withdraw token",
        "params": {
          "to": "receiver address",
          "token": "token address",
          "value": "token value"
        }
      },
      "ownerWithdrawNative(address,uint256)": {
        "details": "withdraw ETH",
        "params": {
          "to": "receiver address",
          "value": "token value"
        }
      },
      "pause()": {
        "details": "pause the contract"
      },
      "paused()": {
        "details": "Returns true if the contract is paused, and false otherwise."
      },
      "pay((address,uint64,bytes32,(uint8,uint256[])[]))": {
        "details": "pay on dst chain",
        "params": {
          "payload": "payment payload"
        },
        "returns": {
          "value": "payment value"
        }
      },
      "payFromSourceChain(address,uint256,bytes)": {
        "details": "pay from source chain only called by message receiver",
        "params": {
          "_token": "token address",
          "dstAmount": "token amount",
          "message": "payment payload message bytes"
        }
      },
      "removePauser(address)": {
        "details": "remove a pauser for the contract",
        "params": {
          "account": "address"
        }
      },
      "renounceOwnership()": {
        "details": "Leaves the contract without owner. It will not be possible to call `onlyOwner` functions anymore. Can only be called by the current owner. NOTE: Renouncing ownership will leave the contract without an owner, thereby removing any functionality that is only available to the owner."
      },
      "renouncePauser()": {
        "details": "remove a pauser for the contract"
      },
      "resourceDecimals()": {
        "details": "return resource decimals",
        "returns": {
          "_0": "resource decimals"
        }
      },
      "setARStorageController(address)": {
        "details": "update AR storage controller contract",
        "params": {
          "_arStorageController": "AR storage controller contract"
        }
      },
      "setBandwidthController(address)": {
        "details": "update bandwidth controller contract",
        "params": {
          "_bandwidthController": "bandwidth controller contract"
        }
      },
      "setBuildingTimeController(address)": {
        "details": "update building time controller contract",
        "params": {
          "_buildingTimeController": "building time controller contract"
        }
      },
      "setIPFSStorageController(address)": {
        "details": "update ipfs storage controller contract",
        "params": {
          "_ipfsStorageController": "IPFS storage controller contract"
        }
      },
      "setMessageReceiver(address)": {
        "details": "set messageReceiver contract address",
        "params": {
          "_messageReceiver": "message receiver contract address"
        }
      },
      "setToken(address)": {
        "details": "set token address",
        "params": {
          "_token": "token address"
        }
      },
      "tokenDecimals()": {
        "details": "return token decimals",
        "returns": {
          "_0": "token decimals"
        }
      },
      "totalValue((uint8,uint256[])[])": {
        "details": "payment payload total value",
        "params": {
          "payloads": "payment payloads"
        },
        "returns": {
          "value": "total value"
        }
      },
      "transferOwnership(address)": {
        "details": "Transfers ownership of the contract to a new account (`newOwner`). Can only be called by the current owner."
      },
      "unpause()": {
        "details": "unpause the contract"
      }
    },
    "version": 1
  },
  "userdoc": {
    "kind": "user",
    "methods": {},
    "version": 1
  },
  "storageLayout": {
    "storage": [
      {
        "astId": 147,
        "contract": "contracts/payment/DstChainPayment.sol:DstChainPayment",
        "label": "_initialized",
        "offset": 0,
        "slot": "0",
        "type": "t_bool"
      },
      {
        "astId": 150,
        "contract": "contracts/payment/DstChainPayment.sol:DstChainPayment",
        "label": "_initializing",
        "offset": 1,
        "slot": "0",
        "type": "t_bool"
      },
      {
        "astId": 6330,
        "contract": "contracts/payment/DstChainPayment.sol:DstChainPayment",
        "label": "token",
        "offset": 2,
        "slot": "0",
        "type": "t_contract(IERC20Upgradeable)462"
      },
      {
        "astId": 970,
        "contract": "contracts/payment/DstChainPayment.sol:DstChainPayment",
        "label": "__gap",
        "offset": 0,
        "slot": "1",
        "type": "t_array(t_uint256)50_storage"
      },
      {
        "astId": 10,
        "contract": "contracts/payment/DstChainPayment.sol:DstChainPayment",
        "label": "_owner",
        "offset": 0,
        "slot": "51",
        "type": "t_address"
      },
      {
        "astId": 122,
        "contract": "contracts/payment/DstChainPayment.sol:DstChainPayment",
        "label": "__gap",
        "offset": 0,
        "slot": "52",
        "type": "t_array(t_uint256)49_storage"
      },
      {
        "astId": 5195,
        "contract": "contracts/payment/DstChainPayment.sol:DstChainPayment",
        "label": "messageReceiver",
        "offset": 0,
        "slot": "101",
        "type": "t_address"
      },
      {
        "astId": 339,
        "contract": "contracts/payment/DstChainPayment.sol:DstChainPayment",
        "label": "_status",
        "offset": 0,
        "slot": "102",
        "type": "t_uint256"
      },
      {
        "astId": 383,
        "contract": "contracts/payment/DstChainPayment.sol:DstChainPayment",
        "label": "__gap",
        "offset": 0,
        "slot": "103",
        "type": "t_array(t_uint256)49_storage"
      },
      {
        "astId": 7033,
        "contract": "contracts/payment/DstChainPayment.sol:DstChainPayment",
        "label": "providers",
        "offset": 0,
        "slot": "152",
        "type": "t_contract(IProviders)4277"
      },
      {
        "astId": 7298,
        "contract": "contracts/payment/DstChainPayment.sol:DstChainPayment",
        "label": "buildingTimeController",
        "offset": 0,
        "slot": "153",
        "type": "t_contract(INormalResourceController)8548"
      },
      {
        "astId": 7302,
        "contract": "contracts/payment/DstChainPayment.sol:DstChainPayment",
        "label": "bandwidthController",
        "offset": 0,
        "slot": "154",
        "type": "t_contract(INormalResourceController)8548"
      },
      {
        "astId": 7306,
        "contract": "contracts/payment/DstChainPayment.sol:DstChainPayment",
        "label": "arStorageController",
        "offset": 0,
        "slot": "155",
        "type": "t_contract(INormalResourceController)8548"
      },
      {
        "astId": 7310,
        "contract": "contracts/payment/DstChainPayment.sol:DstChainPayment",
        "label": "ipfsStorageController",
        "offset": 0,
        "slot": "156",
        "type": "t_contract(IIPFSStorageController)8518"
      },
      {
        "astId": 235,
        "contract": "contracts/payment/DstChainPayment.sol:DstChainPayment",
        "label": "_paused",
        "offset": 20,
        "slot": "156",
        "type": "t_bool"
      },
      {
        "astId": 324,
        "contract": "contracts/payment/DstChainPayment.sol:DstChainPayment",
        "label": "__gap",
        "offset": 0,
        "slot": "157",
        "type": "t_array(t_uint256)49_storage"
      },
      {
        "astId": 3749,
        "contract": "contracts/payment/DstChainPayment.sol:DstChainPayment",
        "label": "pausers",
        "offset": 0,
        "slot": "206",
        "type": "t_mapping(t_address,t_bool)"
      }
    ],
    "types": {
      "t_address": {
        "encoding": "inplace",
        "label": "address",
        "numberOfBytes": "20"
      },
      "t_array(t_uint256)49_storage": {
        "base": "t_uint256",
        "encoding": "inplace",
        "label": "uint256[49]",
        "numberOfBytes": "1568"
      },
      "t_array(t_uint256)50_storage": {
        "base": "t_uint256",
        "encoding": "inplace",
        "label": "uint256[50]",
        "numberOfBytes": "1600"
      },
      "t_bool": {
        "encoding": "inplace",
        "label": "bool",
        "numberOfBytes": "1"
      },
      "t_contract(IERC20Upgradeable)462": {
        "encoding": "inplace",
        "label": "contract IERC20Upgradeable",
        "numberOfBytes": "20"
      },
      "t_contract(IIPFSStorageController)8518": {
        "encoding": "inplace",
        "label": "contract IIPFSStorageController",
        "numberOfBytes": "20"
      },
      "t_contract(INormalResourceController)8548": {
        "encoding": "inplace",
        "label": "contract INormalResourceController",
        "numberOfBytes": "20"
      },
      "t_contract(IProviders)4277": {
        "encoding": "inplace",
        "label": "contract IProviders",
        "numberOfBytes": "20"
      },
      "t_mapping(t_address,t_bool)": {
        "encoding": "mapping",
        "key": "t_address",
        "label": "mapping(address => bool)",
        "numberOfBytes": "32",
        "value": "t_bool"
      },
      "t_uint256": {
        "encoding": "inplace",
        "label": "uint256",
        "numberOfBytes": "32"
      }
    }
  }
}