{
  "address": "0x1D82B64417f2daeD3FA89d49f2D2Ee5e080177a1",
  "abi": [
    {
      "inputs": [
        {
          "internalType": "address",
          "name": "owner",
          "type": "address"
        },
        {
          "internalType": "address",
          "name": "pauser",
          "type": "address"
        },
        {
          "internalType": "contract IProviders",
          "name": "providers",
          "type": "address"
        },
        {
          "internalType": "address",
          "name": "messageReceiver",
          "type": "address"
        },
        {
          "internalType": "contract IERC20Upgradeable",
          "name": "token",
          "type": "address"
        }
      ],
      "stateMutability": "nonpayable",
      "type": "constructor"
    },
    {
      "anonymous": false,
      "inputs": [
        {
          "indexed": false,
          "internalType": "contract INormalResourceController",
          "name": "_arStorageController",
          "type": "address"
        }
      ],
      "name": "ARStorageControllerUpdated",
      "type": "event"
    },
    {
      "anonymous": false,
      "inputs": [
        {
          "indexed": false,
          "internalType": "contract INormalResourceController",
          "name": "_bandwidthController",
          "type": "address"
        }
      ],
      "name": "BandwidthControllerUpdated",
      "type": "event"
    },
    {
      "anonymous": false,
      "inputs": [
        {
          "indexed": false,
          "internalType": "contract INormalResourceController",
          "name": "_buildingTimeController",
          "type": "address"
        }
      ],
      "name": "BuildingTimeControllerUpdated",
      "type": "event"
    },
    {
      "anonymous": false,
      "inputs": [
        {
          "indexed": false,
          "internalType": "contract IIPFSStorageController",
          "name": "_ipfsStorageController",
          "type": "address"
        }
      ],
      "name": "IPFSStorageControllerUpdated",
      "type": "event"
    },
    {
      "anonymous": false,
      "inputs": [
        {
          "indexed": false,
          "internalType": "address",
          "name": "messageReceiver",
          "type": "address"
        }
      ],
      "name": "MessageReceiverUpdated",
      "type": "event"
    },
    {
      "anonymous": false,
      "inputs": [
        {
          "indexed": false,
          "internalType": "address",
          "name": "to",
          "type": "address"
        },
        {
          "indexed": false,
          "internalType": "uint256",
          "name": "value",
          "type": "uint256"
        }
      ],
      "name": "NativeWithdrawal",
      "type": "event"
    },
    {
      "anonymous": false,
      "inputs": [
        {
          "indexed": true,
          "internalType": "address",
          "name": "previousOwner",
          "type": "address"
        },
        {
          "indexed": true,
          "internalType": "address",
          "name": "newOwner",
          "type": "address"
        }
      ],
      "name": "OwnershipTransferred",
      "type": "event"
    },
    {
      "anonymous": false,
      "inputs": [
        {
          "indexed": false,
          "internalType": "address",
          "name": "payer",
          "type": "address"
        },
        {
          "indexed": false,
          "internalType": "contract IERC20Upgradeable",
          "name": "token",
          "type": "address"
        },
        {
          "components": [
            {
              "internalType": "address",
              "name": "provider",
              "type": "address"
            },
            {
              "internalType": "uint64",
              "name": "nonce",
              "type": "uint64"
            },
            {
              "internalType": "bytes32",
              "name": "account",
              "type": "bytes32"
            },
            {
              "components": [
                {
                  "internalType": "enum ResourceData.ResourceType",
                  "name": "resourceType",
                  "type": "uint8"
                },
                {
                  "internalType": "uint256[]",
                  "name": "values",
                  "type": "uint256[]"
                }
              ],
              "internalType": "struct ResourceData.Payload[]",
              "name": "payloads",
              "type": "tuple[]"
            }
          ],
          "indexed": false,
          "internalType": "struct IDstChainPayment.PaymentPayload",
          "name": "payload",
          "type": "tuple"
        }
      ],
      "name": "Paid",
      "type": "event"
    },
    {
      "anonymous": false,
      "inputs": [
        {
          "indexed": false,
          "internalType": "address",
          "name": "account",
          "type": "address"
        }
      ],
      "name": "Paused",
      "type": "event"
    },
    {
      "anonymous": false,
      "inputs": [
        {
          "indexed": false,
          "internalType": "address",
          "name": "account",
          "type": "address"
        }
      ],
      "name": "PauserAdded",
      "type": "event"
    },
    {
      "anonymous": false,
      "inputs": [
        {
          "indexed": false,
          "internalType": "address",
          "name": "account",
          "type": "address"
        }
      ],
      "name": "PauserRemoved",
      "type": "event"
    },
    {
      "anonymous": false,
      "inputs": [
        {
          "indexed": false,
          "internalType": "contract IProviders",
          "name": "providers",
          "type": "address"
        }
      ],
      "name": "ProvidersUpdated",
      "type": "event"
    },
    {
      "anonymous": false,
      "inputs": [
        {
          "indexed": false,
          "internalType": "address",
          "name": "provider",
          "type": "address"
        },
        {
          "indexed": false,
          "internalType": "contract IERC20Upgradeable",
          "name": "token",
          "type": "address"
        },
        {
          "indexed": false,
          "internalType": "address",
          "name": "to",
          "type": "address"
        },
        {
          "indexed": false,
          "internalType": "uint256",
          "name": "value",
          "type": "uint256"
        }
      ],
      "name": "ProvidetWithdraw",
      "type": "event"
    },
    {
      "anonymous": false,
      "inputs": [
        {
          "indexed": false,
          "internalType": "contract IERC20Upgradeable",
          "name": "token",
          "type": "address"
        }
      ],
      "name": "TokenUpdated",
      "type": "event"
    },
    {
      "anonymous": false,
      "inputs": [
        {
          "indexed": false,
          "internalType": "address",
          "name": "account",
          "type": "address"
        }
      ],
      "name": "Unpaused",
      "type": "event"
    },
    {
      "anonymous": false,
      "inputs": [
        {
          "indexed": false,
          "internalType": "contract IERC20Upgradeable",
          "name": "token",
          "type": "address"
        },
        {
          "indexed": false,
          "internalType": "address",
          "name": "to",
          "type": "address"
        },
        {
          "indexed": false,
          "internalType": "uint256",
          "name": "value",
          "type": "uint256"
        }
      ],
      "name": "Withdrawal",
      "type": "event"
    },
    {
      "inputs": [
        {
          "internalType": "address",
          "name": "owner",
          "type": "address"
        },
        {
          "internalType": "address",
          "name": "pauser",
          "type": "address"
        },
        {
          "internalType": "contract IProviders",
          "name": "providers",
          "type": "address"
        },
        {
          "internalType": "address",
          "name": "messageReceiver",
          "type": "address"
        },
        {
          "internalType": "contract IERC20Upgradeable",
          "name": "token",
          "type": "address"
        }
      ],
      "name": "Init_Payment",
      "outputs": [],
      "stateMutability": "nonpayable",
      "type": "function"
    },
    {
      "inputs": [
        {
          "internalType": "address",
          "name": "account",
          "type": "address"
        }
      ],
      "name": "addPauser",
      "outputs": [],
      "stateMutability": "nonpayable",
      "type": "function"
    },
    {
      "inputs": [],
      "name": "arStorageController",
      "outputs": [
        {
          "internalType": "contract INormalResourceController",
          "name": "",
          "type": "address"
        }
      ],
      "stateMutability": "view",
      "type": "function"
    },
    {
      "inputs": [],
      "name": "bandwidthController",
      "outputs": [
        {
          "internalType": "contract INormalResourceController",
          "name": "",
          "type": "address"
        }
      ],
      "stateMutability": "view",
      "type": "function"
    },
    {
      "inputs": [],
      "name": "buildingTimeController",
      "outputs": [
        {
          "internalType": "contract INormalResourceController",
          "name": "",
          "type": "address"
        }
      ],
      "stateMutability": "view",
      "type": "function"
    },
    {
      "inputs": [
        {
          "internalType": "uint256",
          "name": "amount",
          "type": "uint256"
        },
        {
          "components": [
            {
              "internalType": "enum ResourceData.ResourceType",
              "name": "resourceType",
              "type": "uint8"
            },
            {
              "internalType": "uint256[]",
              "name": "values",
              "type": "uint256[]"
            }
          ],
          "internalType": "struct ResourceData.Payload[]",
          "name": "payloads",
          "type": "tuple[]"
        }
      ],
      "name": "convertSourceChainPayloads",
      "outputs": [
        {
          "components": [
            {
              "internalType": "enum ResourceData.ResourceType",
              "name": "resourceType",
              "type": "uint8"
            },
            {
              "internalType": "uint256[]",
              "name": "values",
              "type": "uint256[]"
            }
          ],
          "internalType": "struct ResourceData.Payload[]",
          "name": "",
          "type": "tuple[]"
        }
      ],
      "stateMutability": "view",
      "type": "function"
    },
    {
      "inputs": [
        {
          "internalType": "bytes",
          "name": "message",
          "type": "bytes"
        }
      ],
      "name": "decodeSourceChainMessage",
      "outputs": [
        {
          "internalType": "address",
          "name": "provider",
          "type": "address"
        },
        {
          "internalType": "uint64",
          "name": "nonce",
          "type": "uint64"
        },
        {
          "internalType": "bytes32",
          "name": "account",
          "type": "bytes32"
        },
        {
          "components": [
            {
              "internalType": "enum ResourceData.ResourceType",
              "name": "resourceType",
              "type": "uint8"
            },
            {
              "internalType": "uint256[]",
              "name": "values",
              "type": "uint256[]"
            }
          ],
          "internalType": "struct ResourceData.Payload[]",
          "name": "payloads",
          "type": "tuple[]"
        }
      ],
      "stateMutability": "view",
      "type": "function"
    },
    {
      "inputs": [
        {
          "internalType": "address",
          "name": "owner",
          "type": "address"
        },
        {
          "internalType": "address",
          "name": "pauser",
          "type": "address"
        },
        {
          "internalType": "contract IProviders",
          "name": "providers",
          "type": "address"
        },
        {
          "internalType": "address",
          "name": "messageReceiver",
          "type": "address"
        },
        {
          "internalType": "contract IERC20Upgradeable",
          "name": "token",
          "type": "address"
        }
      ],
      "name": "initialize",
      "outputs": [],
      "stateMutability": "nonpayable",
      "type": "function"
    },
    {
      "inputs": [],
      "name": "ipfsStorageController",
      "outputs": [
        {
          "internalType": "contract IIPFSStorageController",
          "name": "",
          "type": "address"
        }
      ],
      "stateMutability": "view",
      "type": "function"
    },
    {
      "inputs": [
        {
          "internalType": "address",
          "name": "account",
          "type": "address"
        }
      ],
      "name": "isPauser",
      "outputs": [
        {
          "internalType": "bool",
          "name": "",
          "type": "bool"
        }
      ],
      "stateMutability": "view",
      "type": "function"
    },
    {
      "inputs": [],
      "name": "messageReceiver",
      "outputs": [
        {
          "internalType": "address",
          "name": "",
          "type": "address"
        }
      ],
      "stateMutability": "view",
      "type": "function"
    },
    {
      "inputs": [],
      "name": "owner",
      "outputs": [
        {
          "internalType": "address",
          "name": "",
          "type": "address"
        }
      ],
      "stateMutability": "view",
      "type": "function"
    },
    {
      "inputs": [],
      "name": "pause",
      "outputs": [],
      "stateMutability": "nonpayable",
      "type": "function"
    },
    {
      "inputs": [],
      "name": "paused",
      "outputs": [
        {
          "internalType": "bool",
          "name": "",
          "type": "bool"
        }
      ],
      "stateMutability": "view",
      "type": "function"
    },
    {
      "inputs": [
        {
          "internalType": "address",
          "name": "",
          "type": "address"
        }
      ],
      "name": "pausers",
      "outputs": [
        {
          "internalType": "bool",
          "name": "",
          "type": "bool"
        }
      ],
      "stateMutability": "view",
      "type": "function"
    },
    {
      "inputs": [
        {
          "components": [
            {
              "internalType": "address",
              "name": "provider",
              "type": "address"
            },
            {
              "internalType": "uint64",
              "name": "nonce",
              "type": "uint64"
            },
            {
              "internalType": "bytes32",
              "name": "account",
              "type": "bytes32"
            },
            {
              "components": [
                {
                  "internalType": "enum ResourceData.ResourceType",
                  "name": "resourceType",
                  "type": "uint8"
                },
                {
                  "internalType": "uint256[]",
                  "name": "values",
                  "type": "uint256[]"
                }
              ],
              "internalType": "struct ResourceData.Payload[]",
              "name": "payloads",
              "type": "tuple[]"
            }
          ],
          "internalType": "struct IDstChainPayment.PaymentPayload",
          "name": "payload",
          "type": "tuple"
        }
      ],
      "name": "pay",
      "outputs": [
        {
          "internalType": "uint256",
          "name": "value",
          "type": "uint256"
        }
      ],
      "stateMutability": "nonpayable",
      "type": "function"
    },
    {
      "inputs": [
        {
          "internalType": "contract IERC20Upgradeable",
          "name": "_token",
          "type": "address"
        },
        {
          "internalType": "uint256",
          "name": "dstAmount",
          "type": "uint256"
        },
        {
          "internalType": "bytes",
          "name": "message",
          "type": "bytes"
        }
      ],
      "name": "payFromSourceChain",
      "outputs": [
        {
          "internalType": "uint256",
          "name": "value",
          "type": "uint256"
        }
      ],
      "stateMutability": "nonpayable",
      "type": "function"
    },
    {
      "inputs": [
        {
          "internalType": "address",
          "name": "",
          "type": "address"
        }
      ],
      "name": "providerBalances",
      "outputs": [
        {
          "internalType": "uint256",
          "name": "",
          "type": "uint256"
        }
      ],
      "stateMutability": "view",
      "type": "function"
    },
    {
      "inputs": [
        {
          "internalType": "contract IERC20Upgradeable",
          "name": "token",
          "type": "address"
        },
        {
          "internalType": "address",
          "name": "to",
          "type": "address"
        },
        {
          "internalType": "uint256",
          "name": "value",
          "type": "uint256"
        }
      ],
      "name": "providerWithdraw",
      "outputs": [],
      "stateMutability": "nonpayable",
      "type": "function"
    },
    {
      "inputs": [],
      "name": "providers",
      "outputs": [
        {
          "internalType": "contract IProviders",
          "name": "",
          "type": "address"
        }
      ],
      "stateMutability": "view",
      "type": "function"
    },
    {
      "inputs": [
        {
          "internalType": "address",
          "name": "account",
          "type": "address"
        }
      ],
      "name": "removePauser",
      "outputs": [],
      "stateMutability": "nonpayable",
      "type": "function"
    },
    {
      "inputs": [],
      "name": "renounceOwnership",
      "outputs": [],
      "stateMutability": "nonpayable",
      "type": "function"
    },
    {
      "inputs": [],
      "name": "renouncePauser",
      "outputs": [],
      "stateMutability": "nonpayable",
      "type": "function"
    },
    {
      "inputs": [
        {
          "internalType": "contract INormalResourceController",
          "name": "_arStorageController",
          "type": "address"
        }
      ],
      "name": "setARStorageController",
      "outputs": [],
      "stateMutability": "nonpayable",
      "type": "function"
    },
    {
      "inputs": [
        {
          "internalType": "contract INormalResourceController",
          "name": "_bandwidthController",
          "type": "address"
        }
      ],
      "name": "setBandwidthController",
      "outputs": [],
      "stateMutability": "nonpayable",
      "type": "function"
    },
    {
      "inputs": [
        {
          "internalType": "contract INormalResourceController",
          "name": "_buildingTimeController",
          "type": "address"
        }
      ],
      "name": "setBuildingTimeController",
      "outputs": [],
      "stateMutability": "nonpayable",
      "type": "function"
    },
    {
      "inputs": [
        {
          "internalType": "contract IIPFSStorageController",
          "name": "_ipfsStorageController",
          "type": "address"
        }
      ],
      "name": "setIPFSStorageController",
      "outputs": [],
      "stateMutability": "nonpayable",
      "type": "function"
    },
    {
      "inputs": [
        {
          "internalType": "address",
          "name": "_messageReceiver",
          "type": "address"
        }
      ],
      "name": "setMessageReceiver",
      "outputs": [],
      "stateMutability": "nonpayable",
      "type": "function"
    },
    {
      "inputs": [
        {
          "internalType": "contract IERC20Upgradeable",
          "name": "_token",
          "type": "address"
        }
      ],
      "name": "setToken",
      "outputs": [],
      "stateMutability": "nonpayable",
      "type": "function"
    },
    {
      "inputs": [],
      "name": "token",
      "outputs": [
        {
          "internalType": "contract IERC20Upgradeable",
          "name": "",
          "type": "address"
        }
      ],
      "stateMutability": "view",
      "type": "function"
    },
    {
      "inputs": [
        {
          "components": [
            {
              "internalType": "enum ResourceData.ResourceType",
              "name": "resourceType",
              "type": "uint8"
            },
            {
              "internalType": "uint256[]",
              "name": "values",
              "type": "uint256[]"
            }
          ],
          "internalType": "struct ResourceData.Payload[]",
          "name": "payloads",
          "type": "tuple[]"
        }
      ],
      "name": "totalValue",
      "outputs": [
        {
          "internalType": "uint256",
          "name": "value",
          "type": "uint256"
        }
      ],
      "stateMutability": "pure",
      "type": "function"
    },
    {
      "inputs": [
        {
          "internalType": "address",
          "name": "newOwner",
          "type": "address"
        }
      ],
      "name": "transferOwnership",
      "outputs": [],
      "stateMutability": "nonpayable",
      "type": "function"
    },
    {
      "inputs": [],
      "name": "unpause",
      "outputs": [],
      "stateMutability": "nonpayable",
      "type": "function"
    },
    {
      "inputs": [
        {
          "internalType": "contract IERC20Upgradeable",
          "name": "token",
          "type": "address"
        },
        {
          "internalType": "address",
          "name": "to",
          "type": "address"
        },
        {
          "internalType": "uint256",
          "name": "value",
          "type": "uint256"
        }
      ],
      "name": "withdraw",
      "outputs": [],
      "stateMutability": "nonpayable",
      "type": "function"
    },
    {
      "inputs": [
        {
          "internalType": "address payable",
          "name": "to",
          "type": "address"
        },
        {
          "internalType": "uint256",
          "name": "value",
          "type": "uint256"
        }
      ],
      "name": "withdrawNative",
      "outputs": [],
      "stateMutability": "nonpayable",
      "type": "function"
    }
  ],
  "transactionHash": "0x40e01cb49352e4ddbbae9591e994a43d0b9f93c284c623b1293445486808abd4",
  "args": [
    "0xF1658C608708172655A8e70a1624c29F956Ee63D",
    "0xF1658C608708172655A8e70a1624c29F956Ee63D",
    "0x5c99b3274681fB525B1D659259925da77905D325",
    "0xf9c0BDE02641e9c426DdACF9a2a0cD609cf842ad",
    "0x6De33698e9e9b787e09d3Bd7771ef63557E148bb"
  ],
  "solcInputHash": "76856d832f7c0a5840b571b5f73676e5",
  "bytecode": "0x60806040523480156200001157600080fd5b50604051620036ab380380620036ab833981016040819052620000349162000431565b600054610100900460ff16620000515760005460ff16156200005b565b6200005b620000fc565b620000835760405162461bcd60e51b81526004016200007a9062000503565b60405180910390fd5b600054610100900460ff16158015620000a6576000805461ffff19166101011790555b620000b1866200011a565b620000bc856200016c565b620000c784620001a4565b620000d283620001d9565b620000dd826200020e565b8015620000f0576000805461ff00191690555b50505050505062000629565b600062000114306200024360201b62000db51760201c565b15905090565b603380546001600160a01b038381166001600160a01b0319831681179093556040519116919082907f8be0079c531659141344cd1fd0a4f28419497f9722a3daafe3b4186f6b6457e090600090a35050565b600054610100900460ff16620001965760405162461bcd60e51b81526004016200007a906200055e565b620001a18162000252565b50565b600054610100900460ff16620001ce5760405162461bcd60e51b81526004016200007a906200055e565b620001a181620002ee565b600054610100900460ff16620002035760405162461bcd60e51b81526004016200007a906200055e565b620001a1816200033b565b600054610100900460ff16620002385760405162461bcd60e51b81526004016200007a906200055e565b620001a18162000388565b6001600160a01b03163b151590565b6001600160a01b038116600090815260ca602052604090205460ff16156200028e5760405162461bcd60e51b81526004016200007a90620005af565b6001600160a01b038116600090815260ca602052604090819020805460ff19166001179055517f6719d08c1888103bea251a4ed56406bd0c3e69723c8a1686e017e7bbe159b6f890620002e3908390620005d2565b60405180910390a150565b60cb80546001600160a01b0319166001600160a01b0383161790556040517fe63288198842f0dacdcbdc3f22dcd4e473d1f3cee7e10603ae6ddc3e667c528490620002e390839062000619565b606580546001600160a01b0319166001600160a01b0383161790556040517fafe9b28ca24a54df8c44769c685f7b92824aae021cdfcaa4719d493571a23c4c90620002e3908390620005d2565b60d080546001600160a01b0319166001600160a01b0383161790556040517f5ba6b30cd4b2f9e9e67f4feb9b9df10d5da3b057598e6901b217b7d590345e3090620002e390839062000619565b60006001600160a01b0382165b92915050565b620003f381620003d5565b8114620001a157600080fd5b8051620003e281620003e8565b6000620003e282620003d5565b620003f3816200040c565b8051620003e28162000419565b600080600080600060a086880312156200044e576200044e600080fd5b60006200045c8888620003ff565b95505060206200046f88828901620003ff565b9450506040620004828882890162000424565b93505060606200049588828901620003ff565b9250506080620004a88882890162000424565b9150509295509295909350565b602e81526000602082017f496e697469616c697a61626c653a20636f6e747261637420697320616c72656181526d191e481a5b9a5d1a585b1a5e995960921b602082015291505b5060400190565b60208082528101620003e281620004b5565b602b81526000602082017f496e697469616c697a61626c653a20636f6e7472616374206973206e6f74206981526a6e697469616c697a696e6760a81b60208201529150620004fc565b60208082528101620003e28162000515565b602181526000602082017f5061757365723a204163636f756e7420697320616c72656164792070617573658152603960f91b60208201529150620004fc565b60208082528101620003e28162000570565b620005cc81620003d5565b82525050565b60208101620003e28284620005c1565b60006001600160a01b038216620003e2565b6000620003e282620005e2565b6000620003e282620005f4565b620005cc8162000601565b60208101620003e282846200060e565b61307280620006396000396000f3fe608060405234801561001057600080fd5b50600436106102115760003560e01c8063715018a611610125578063bb371111116100ad578063e84372491161007c578063e84372491461047c578063f2fde38b1461048f578063f8401fe6146104a2578063f8f071fa146104b5578063fc0c546a146104c857600080fd5b8063bb37111114610420578063bd16997514610433578063d9caed1214610456578063e2cae9f51461046957600080fd5b806382dc1ec4116100f457806382dc1ec4146103c55780638456cb59146103d85780638da5cb5b146103e0578063914fd2c3146103fa578063b05f87a81461040d57600080fd5b8063715018a61461037457806377ef533c1461037c5780637a7fa7531461038f57806380f51c12146103a257600080fd5b80633f4ba83a116101a857806349ea49e01161017757806349ea49e01461031b5780635618ce2d1461032e5780635c975abb1461034e5780636b2c0f55146103595780636ef8d66d1461036c57600080fd5b80633f4ba83a146102cd5780634540a85b146102d557806346fbf68e146102e8578063490e4fa21461030857600080fd5b80632413c127116101e45780632413c1271461023e57806328ac7f2c1461027a57806329dbfc75146102a75780633b8ccfb1146102ba57600080fd5b806307b18bde14610216578063144fa6d71461022b5780631459457a1461023e57806315e0776914610251575b600080fd5b610229610224366004611abd565b6104db565b005b610229610239366004611b19565b610592565b61022961024c366004611b3a565b6105c8565b60ce54610264906001600160a01b031681565b6040516102719190611bcc565b60405180910390f35b61029a610288366004611bda565b60d16020526000908152604090205481565b6040516102719190611c01565b60cc54610264906001600160a01b031681565b6102296102c8366004611bda565b61066c565b61022961069f565b6102296102e3366004611b19565b6106ce565b6102fb6102f6366004611bda565b610701565b6040516102719190611c17565b61029a610316366004611edd565b61071f565b610229610329366004611f17565b610786565b61034161033c366004611f67565b610921565b60405161027191906120fc565b60985460ff166102fb565b610229610367366004611bda565b610936565b610229610969565b610229610972565b61029a61038a36600461215e565b6109a6565b61022961039d366004611b19565b610afb565b6102fb6103b0366004611bda565b60ca6020526000908152604090205460ff1681565b6102296103d3366004611bda565b610b2e565b610229610b61565b6033546001600160a01b03165b60405161027191906121d4565b610229610408366004611b19565b610b8e565b60cf54610264906001600160a01b031681565b61029a61042e3660046121e2565b610bc1565b6104466104413660046122b2565b610c8e565b60405161027194939291906122fb565b610229610464366004611f17565b610cb8565b6065546103ed906001600160a01b031681565b61022961048a366004611b19565b610d29565b61022961049d366004611bda565b610d5c565b60cb54610264906001600160a01b031681565b60cd54610264906001600160a01b031681565b60d054610264906001600160a01b031681565b6033546001600160a01b0316331461050e5760405162461bcd60e51b815260040161050590612374565b60405180910390fd5b6040516000906001600160a01b0384169083156108fc0290849084818181858888f193505050509050806105545760405162461bcd60e51b8152600401610505906123c9565b7f2c876ecb97b3c6854f2488d373403f903eacb800e51c159a5c0c7a9c857e482783836040516105859291906123d9565b60405180910390a1505050565b6033546001600160a01b031633146105bc5760405162461bcd60e51b815260040161050590612374565b6105c581610dc4565b50565b600054610100900460ff166105e35760005460ff16156105e7565b303b155b6106035760405162461bcd60e51b81526004016105059061243f565b600054610100900460ff16158015610625576000805461ffff19166101011790555b61062e86610e1a565b61063785610e6c565b61064084610e93565b61064983610ec3565b61065282610eea565b8015610664576000805461ff00191690555b505050505050565b6033546001600160a01b031633146106965760405162461bcd60e51b815260040161050590612374565b6105c581610f11565b6106a833610701565b6106c45760405162461bcd60e51b815260040161050590612483565b6106cc610f5c565b565b6033546001600160a01b031633146106f85760405162461bcd60e51b815260040161050590612374565b6105c581610fc2565b6001600160a01b0316600090815260ca602052604090205460ff1690565b600061072d60985460ff1690565b1561074a5760405162461bcd60e51b8152600401610505906124ba565b6002606654141561076d5760405162461bcd60e51b8152600401610505906124fe565b600260665561077b8261100d565b600160665592915050565b60985460ff16156107a95760405162461bcd60e51b8152600401610505906124ba565b600260665414156107cc5760405162461bcd60e51b8152600401610505906124fe565b600260665560cb54604051636b074a0760e01b81526001600160a01b0390911690636b074a07906108019033906004016121d4565b60206040518083038186803b15801561081957600080fd5b505afa15801561082d573d6000803e3d6000fd5b505050506040513d601f19601f820116820180604052508101906108519190612521565b61086d5760405162461bcd60e51b815260040161050590612588565b33600090815260d1602052604090205481111561089c5760405162461bcd60e51b8152600401610505906125e3565b33600090815260d160205260409020546108b6908261116c565b33600090815260d160205260409020556108da6001600160a01b0384168383611178565b7f6a5b5b630c1c43e83d8863b2f40228b9238480ce8c629132ea0862c7ce6c1b233384848460405161090f94939291906125f3565b60405180910390a15050600160665550565b606061092d83836111d3565b90505b92915050565b6033546001600160a01b031633146109605760405162461bcd60e51b815260040161050590612374565b6105c581611351565b6106cc33611351565b6033546001600160a01b0316331461099c5760405162461bcd60e51b815260040161050590612374565b6106cc6000610e1a565b6065546000906001600160a01b031633146109d35760405162461bcd60e51b81526004016105059061267b565b60985460ff16156109f65760405162461bcd60e51b8152600401610505906124ba565b60026066541415610a195760405162461bcd60e51b8152600401610505906124fe565b600260665560d0546001600160a01b03868116911614610a4b5760405162461bcd60e51b8152600401610505906126bf565b600080600080610a9087878080601f016020809104026020016040519081016040528093929190818152602001838380828437600092019190915250610c8e92505050565b935093509350935060006040518060800160405280866001600160a01b03168152602001856001600160401b03168152602001848152602001610adb610ad58c6113c6565b856111d3565b90529050610ae88161100d565b60016066559a9950505050505050505050565b6033546001600160a01b03163314610b255760405162461bcd60e51b815260040161050590612374565b6105c5816113d7565b6033546001600160a01b03163314610b585760405162461bcd60e51b815260040161050590612374565b6105c581611422565b610b6a33610701565b610b865760405162461bcd60e51b815260040161050590612483565b6106cc61149b565b6033546001600160a01b03163314610bb85760405162461bcd60e51b815260040161050590612374565b6105c5816114f3565b600080825111610be35760405162461bcd60e51b815260040161050590612716565b60005b8251811015610c885760005b838281518110610c0457610c04612726565b60200260200101516020015151811015610c7557610c61848381518110610c2d57610c2d612726565b6020026020010151602001518281518110610c4a57610c4a612726565b60200260200101518461153e90919063ffffffff16565b925080610c6d81612752565b915050610bf2565b5080610c8081612752565b915050610be6565b50919050565b6000806000606084806020019051810190610ca991906128f7565b92989197509550909350915050565b6033546001600160a01b03163314610ce25760405162461bcd60e51b815260040161050590612374565b610cf66001600160a01b0384168383611178565b7f2717ead6b9200dd235aad468c9809ea400fe33ac69b5bfaa6d3e90fc922b639883838360405161058593929190612975565b6033546001600160a01b03163314610d535760405162461bcd60e51b815260040161050590612374565b6105c58161154a565b6033546001600160a01b03163314610d865760405162461bcd60e51b815260040161050590612374565b6001600160a01b038116610dac5760405162461bcd60e51b8152600401610505906129e0565b6105c581610e1a565b6001600160a01b03163b151590565b60d080546001600160a01b0319166001600160a01b0383161790556040517f5ba6b30cd4b2f9e9e67f4feb9b9df10d5da3b057598e6901b217b7d590345e3090610e0f908390611bcc565b60405180910390a150565b603380546001600160a01b038381166001600160a01b0319831681179093556040519116919082907f8be0079c531659141344cd1fd0a4f28419497f9722a3daafe3b4186f6b6457e090600090a35050565b600054610100900460ff16610b585760405162461bcd60e51b815260040161050590612a38565b600054610100900460ff16610eba5760405162461bcd60e51b815260040161050590612a38565b6105c581611595565b600054610100900460ff166106965760405162461bcd60e51b815260040161050590612a38565b600054610100900460ff166105bc5760405162461bcd60e51b815260040161050590612a38565b606580546001600160a01b0319166001600160a01b0383161790556040517fafe9b28ca24a54df8c44769c685f7b92824aae021cdfcaa4719d493571a23c4c90610e0f9083906121d4565b60985460ff16610f7e5760405162461bcd60e51b815260040161050590612a73565b6098805460ff191690557f5db9ee0a495bf2e6ff9c91a7834c1ba4fdd244a5e8aa4e537bd38aeae4b073aa335b604051610fb891906121d4565b60405180910390a1565b60cf80546001600160a01b0319166001600160a01b0383161790556040517f7b091d9397a2f75213edeec1728b27a9d863f0f8aafb62fce0f1154f48f110f890610e0f908390611bcc565b60cb548151604051636b074a0760e01b81526000926001600160a01b031691636b074a079161103f91906004016121d4565b60206040518083038186803b15801561105757600080fd5b505afa15801561106b573d6000803e3d6000fd5b505050506040513d601f19601f8201168201806040525081019061108f9190612521565b6110ab5760405162461bcd60e51b815260040161050590612ac5565b6110bd826040015183606001516115e0565b90506110c881611755565b60d0549091506110e3906001600160a01b0316333084611766565b81516001600160a01b0316600090815260d16020526040902054611107908261153e565b82516001600160a01b03908116600090815260d16020526040908190209290925560d05491517f699b2f7653a6bfb60eabd345a469cd1a72cf9733ed0179acb41b3d0b8d6b85839261115f9233929116908690612b80565b60405180910390a1919050565b600061092d8284612bad565b6111ce8363a9059cbb60e01b8484604051602401611197929190612bc4565b60408051601f198184030181529190526020810180516001600160e01b03166001600160e01b03199093169290921790915261178d565b505050565b606060008251116111f65760405162461bcd60e51b815260040161050590612c18565b600061120183610bc1565b9050600081116112235760405162461bcd60e51b815260040161050590612c5c565b60005b835181101561134857600084828151811061124357611243612726565b602002602001015160200151511161126d5760405162461bcd60e51b815260040161050590612cb0565b60005b84828151811061128257611282612726565b60200260200101516020015151811015611335576112e9836112e3888886815181106112b0576112b0612726565b60200260200101516020015185815181106112cd576112cd612726565b602002602001015161181c90919063ffffffff16565b90611828565b8583815181106112fb576112fb612726565b602002602001015160200151828151811061131857611318612726565b60209081029190910101528061132d81612752565b915050611270565b508061134081612752565b915050611226565b50919392505050565b61135a81610701565b6113765760405162461bcd60e51b815260040161050590612cf4565b6001600160a01b038116600090815260ca602052604090819020805460ff19169055517fcd265ebaf09df2871cc7bd4133404a235ba12eff2041bb89d9c714a2621c7c7e90610e0f9083906121d4565b60006109308264e8d4a5100061181c565b60cd80546001600160a01b0319166001600160a01b0383161790556040517f100702071f8eb4f459f5f9dcf12bba9b3aeafa0eca6a018364f645558d792c3790610e0f908390611bcc565b61142b81610701565b156114485760405162461bcd60e51b815260040161050590612d42565b6001600160a01b038116600090815260ca602052604090819020805460ff19166001179055517f6719d08c1888103bea251a4ed56406bd0c3e69723c8a1686e017e7bbe159b6f890610e0f9083906121d4565b60985460ff16156114be5760405162461bcd60e51b8152600401610505906124ba565b6098805460ff191660011790557f62e78cea01bee320cd4e420270b5ea74000d11b0c9f74754ebdbfc544b05a258610fab3390565b60ce80546001600160a01b0319166001600160a01b0383161790556040517f6a7e09ebc58179cd1c17c89209474e58d29e43b1bf78dd57f896e7be983220eb90610e0f908390611bcc565b600061092d8284612d52565b60cc80546001600160a01b0319166001600160a01b0383161790556040517feb1b948f6c63784a1d91e42dd967c49aae87b1db36d3107e9b913963ae7cd03990610e0f908390611bcc565b60cb80546001600160a01b0319166001600160a01b0383161790556040517fe63288198842f0dacdcbdc3f22dcd4e473d1f3cee7e10603ae6ddc3e667c528490610e0f908390611bcc565b6000808251116116025760405162461bcd60e51b815260040161050590612da8565b60005b825181101561174e57600083828151811061162257611622612726565b602002602001015190506001600481111561163f5761163f611fb4565b8151600481111561165257611652611fb4565b14156116815760cc5461167a90611673906001600160a01b03168784611834565b849061153e565b925061173b565b60038151600481111561169657611696611fb4565b14156116b75760ce5461167a90611673906001600160a01b03168784611834565b6002815160048111156116cc576116cc611fb4565b14156116ed5760cd5461167a90611673906001600160a01b03168784611834565b60048151600481111561170257611702611fb4565b14156117235760cf5461167a90611673906001600160a01b03168784611903565b60405162461bcd60e51b815260040161050590612dfb565b508061174681612752565b915050611605565b5092915050565b60006109308264e8d4a51000611828565b611787846323b872dd60e01b85858560405160240161119793929190612e0b565b50505050565b60006117e2826040518060400160405280602081526020017f5361666545524332303a206c6f772d6c6576656c2063616c6c206661696c6564815250856001600160a01b03166119969092919063ffffffff16565b8051909150156111ce57808060200190518101906118009190612521565b6111ce5760405162461bcd60e51b815260040161050590612e60565b600061092d8284612e70565b600061092d8284612ea5565b600081602001515160011461185b5760405162461bcd60e51b815260040161050590612f01565b836001600160a01b031663467aa8de84846020015160008151811061188257611882612726565b60200260200101516040518363ffffffff1660e01b81526004016118a7929190612f11565b602060405180830381600087803b1580156118c157600080fd5b505af11580156118d5573d6000803e3d6000fd5b505050506040513d601f19601f820116820180604052508101906118f99190612f1f565b90505b9392505050565b600081602001515160021461192a5760405162461bcd60e51b815260040161050590612f01565b836001600160a01b0316634235fec084846020015160008151811061195157611951612726565b6020026020010151856020015160018151811061197057611970612726565b60200260200101516040518463ffffffff1660e01b81526004016118a793929190612f40565b60606118f98484600085856001600160a01b0385163b6119c85760405162461bcd60e51b815260040161050590612f8f565b600080866001600160a01b031685876040516119e49190612fed565b60006040518083038185875af1925050503d8060008114611a21576040519150601f19603f3d011682016040523d82523d6000602084013e611a26565b606091505b5091509150611a36828286611a43565b925050505b949350505050565b60608315611a525750816118fc565b825115611a625782518084602001fd5b8160405162461bcd60e51b8152600401610505919061302b565b60006001600160a01b038216610930565b611a9681611a7c565b81146105c557600080fd5b803561093081611a8d565b80611a96565b803561093081611aac565b60008060408385031215611ad357611ad3600080fd5b6000611adf8585611aa1565b9250506020611af085828601611ab2565b9150509250929050565b600061093082611a7c565b611a9681611afa565b803561093081611b05565b600060208284031215611b2e57611b2e600080fd5b6000611a3b8484611b0e565b600080600080600060a08688031215611b5557611b55600080fd5b6000611b618888611aa1565b9550506020611b7288828901611aa1565b9450506040611b8388828901611b0e565b9350506060611b9488828901611aa1565b9250506080611ba588828901611b0e565b9150509295509295909350565b600061093082611afa565b611bc681611bb2565b82525050565b602081016109308284611bbd565b600060208284031215611bef57611bef600080fd5b6000611a3b8484611aa1565b80611bc6565b602081016109308284611bfb565b801515611bc6565b602081016109308284611c0f565b634e487b7160e01b600052604160045260246000fd5b601f19601f83011681018181106001600160401b0382111715611c6057611c60611c25565b6040525050565b6000611c7260405190565b9050611c7e8282611c3b565b919050565b6001600160401b038116611a96565b803561093081611c83565b60006001600160401b03821115611cb657611cb6611c25565b5060209081020190565b600581106105c557600080fd5b803561093081611cc0565b6000611ceb611ce684611c9d565b611c67565b83815290506020808201908402830185811115611d0a57611d0a600080fd5b835b81811015611d2e5780611d1f8882611ab2565b84525060209283019201611d0c565b5050509392505050565b600082601f830112611d4c57611d4c600080fd5b8135611a3b848260208601611cd8565b600060408284031215611d7157611d71600080fd5b611d7b6040611c67565b90506000611d898484611ccd565b82525060208201356001600160401b03811115611da857611da8600080fd5b611db484828501611d38565b60208301525092915050565b6000611dce611ce684611c9d565b83815290506020808201908402830185811115611ded57611ded600080fd5b835b81811015611d2e5780356001600160401b03811115611e1057611e10600080fd5b808601611e1d8982611d5c565b8552505060209283019201611def565b600082601f830112611e4157611e41600080fd5b8135611a3b848260208601611dc0565b600060808284031215611e6657611e66600080fd5b611e706080611c67565b90506000611e7e8484611aa1565b8252506020611e8f84848301611c92565b6020830152506040611ea384828501611ab2565b60408301525060608201356001600160401b03811115611ec557611ec5600080fd5b611ed184828501611e2d565b60608301525092915050565b600060208284031215611ef257611ef2600080fd5b81356001600160401b03811115611f0b57611f0b600080fd5b611a3b84828501611e51565b600080600060608486031215611f2f57611f2f600080fd5b6000611f3b8686611b0e565b9350506020611f4c86828701611aa1565b9250506040611f5d86828701611ab2565b9150509250925092565b60008060408385031215611f7d57611f7d600080fd5b6000611f898585611ab2565b92505060208301356001600160401b03811115611fa857611fa8600080fd5b611af085828601611e2d565b634e487b7160e01b600052602160045260246000fd5b600581106105c5576105c5611fb4565b80611c7e81611fca565b600061093082611fda565b611bc681611fe4565b60006120048383611bfb565b505060200190565b6000612016825190565b80845260209384019383018060005b8381101561204a5781516120398882611ff8565b975060208301925050600101612025565b509495945050505050565b805160009060408401906120698582611fef565b5060208301518482036020860152612081828261200c565b95945050505050565b600061092d8383612055565b60006120a0825190565b808452602084019350836020820285016120ba8560200190565b8060005b858110156120ef57848403895281516120d7858261208a565b94506020830160209a909a01999250506001016120be565b5091979650505050505050565b6020808252810161092d8184612096565b60008083601f84011261212257612122600080fd5b5081356001600160401b0381111561213c5761213c600080fd5b60208301915083600182028301111561215757612157600080fd5b9250929050565b6000806000806060858703121561217757612177600080fd5b60006121838787611b0e565b945050602061219487828801611ab2565b93505060408501356001600160401b038111156121b3576121b3600080fd5b6121bf8782880161210d565b95989497509550505050565b611bc681611a7c565b6020810161093082846121cb565b6000602082840312156121f7576121f7600080fd5b81356001600160401b0381111561221057612210600080fd5b611a3b84828501611e2d565b60006001600160401b0382111561223557612235611c25565b601f19601f83011660200192915050565b82818337506000910152565b6000612260611ce68461221c565b90508281526020810184848401111561227b5761227b600080fd5b612286848285612246565b509392505050565b600082601f8301126122a2576122a2600080fd5b8135611a3b848260208601612252565b6000602082840312156122c7576122c7600080fd5b81356001600160401b038111156122e0576122e0600080fd5b611a3b8482850161228e565b6001600160401b038116611bc6565b6080810161230982876121cb565b61231660208301866122ec565b6123236040830185611bfb565b81810360608301526123358184612096565b9695505050505050565b60208082527f4f776e61626c653a2063616c6c6572206973206e6f7420746865206f776e6572910190815260005b5060200190565b602080825281016109308161233f565b602581526000602082017f5061796d656e743a207769746864726177206e617469766520746f6b656e2066815264185a5b195960da1b602082015291505b5060400190565b6020808252810161093081612384565b604081016123e78285611bbd565b6118fc6020830184611bfb565b602e81526000602082017f496e697469616c697a61626c653a20636f6e747261637420697320616c72656181526d191e481a5b9a5d1a585b1a5e995960921b602082015291506123c2565b60208082528101610930816123f4565b601c81526000602082017f5061757365723a2043616c6c6572206973206e6f7420706175736572000000008152915061236d565b602080825281016109308161244f565b601081526000602082016f14185d5cd8589b194e881c185d5cd95960821b8152915061236d565b6020808252810161093081612493565b601f81526000602082017f5265656e7472616e637947756172643a207265656e7472616e742063616c6c008152915061236d565b60208082528101610930816124ca565b801515611a96565b80516109308161250e565b60006020828403121561253657612536600080fd5b6000611a3b8484612516565b602981526000602082017f447374436861696e5061796d656e743a2063616c6c6572206973206e6f74206181526810383937bb34b232b960b91b602082015291506123c2565b6020808252810161093081612542565b602e81526000602082017f447374436861696e5061796d656e743a20696e73756666696369656e7420707281526d6f76696465722062616c616e636560901b602082015291506123c2565b6020808252810161093081612598565b6080810161260182876121cb565b61260e6020830186611bbd565b61261b60408301856121cb565b6120816060830184611bfb565b603681526000602082017f4d6573736167655265636569766572577261707065723a2063616c6c6572206981527539903737ba1036b2b9b9b0b3b2903932b1b2b4bb32b960511b602082015291506123c2565b6020808252810161093081612628565b601e81526000602082017f447374436861696e5061796d656e743a20696e76616c696420746f6b656e00008152915061236d565b602080825281016109308161268b565b602a81526000602082017f5265736f75725061796c6f6164546f6f6c3a20696e76616c6964207061796c6f8152690c2c8e640d8cadccee8d60b31b602082015291506123c2565b60208082528101610930816126cf565b634e487b7160e01b600052603260045260246000fd5b634e487b7160e01b600052601160045260246000fd5b60006000198214156127665761276661273c565b5060010190565b805161093081611a8d565b805161093081611c83565b805161093081611aac565b805161093081611cc0565b60006127a7611ce684611c9d565b838152905060208082019084028301858111156127c6576127c6600080fd5b835b81811015611d2e57806127db8882612783565b845250602092830192016127c8565b600082601f8301126127fe576127fe600080fd5b8151611a3b848260208601612799565b60006040828403121561282357612823600080fd5b61282d6040611c67565b9050600061283b848461278e565b82525060208201516001600160401b0381111561285a5761285a600080fd5b611db4848285016127ea565b6000612874611ce684611c9d565b8381529050602080820190840283018581111561289357612893600080fd5b835b81811015611d2e5780516001600160401b038111156128b6576128b6600080fd5b8086016128c3898261280e565b8552505060209283019201612895565b600082601f8301126128e7576128e7600080fd5b8151611a3b848260208601612866565b6000806000806080858703121561291057612910600080fd5b600061291c878761276d565b945050602061292d87828801612778565b935050604061293e87828801612783565b92505060608501516001600160401b0381111561295d5761295d600080fd5b612969878288016128d3565b91505092959194509250565b606081016129838286611bbd565b61299060208301856121cb565b611a3b6040830184611bfb565b602681526000602082017f4f776e61626c653a206e6577206f776e657220697320746865207a65726f206181526564647265737360d01b602082015291506123c2565b602080825281016109308161299d565b602b81526000602082017f496e697469616c697a61626c653a20636f6e7472616374206973206e6f74206981526a6e697469616c697a696e6760a81b602082015291506123c2565b60208082528101610930816129f0565b601481526000602082017314185d5cd8589b194e881b9bdd081c185d5cd95960621b8152915061236d565b6020808252810161093081612a48565b602581526000602082017f447374436861696e5061796d656e743a206e6f6e6578697374656e742070726f8152643b34b232b960d91b602082015291506123c2565b6020808252810161093081612a83565b6000612adf825190565b80845260208401935083602082028501612af98560200190565b8060005b858110156120ef5784840389528151612b16858261208a565b94506020830160209a909a0199925050600101612afd565b80516000906080840190612b4285826121cb565b506020830151612b5560208601826122ec565b506040830151612b686040860182611bfb565b50606083015184820360608601526120818282612ad5565b60608101612b8e82866121cb565b612b9b6020830185611bbd565b81810360408301526120818184612b2e565b600082821015612bbf57612bbf61273c565b500390565b604081016123e782856121cb565b602981526000602082017f5265736f75725061796c6f6164546f6f6c3a20696e76616c6964207061796c6f8152680c2c840d8cadccee8d60bb1b602082015291506123c2565b6020808252810161093081612bd2565b601e81526000602082017f5265736f75725061796c6f6164546f6f6c3a207a65726f2076616c75657300008152915061236d565b6020808252810161093081612c28565b602781526000602082017f5265736f75725061796c6f6164546f6f6c3a20696e76616c69642076616c7565815266040d8cadccee8d60cb1b602082015291506123c2565b6020808252810161093081612c6c565b601d81526000602082017f5061757365723a204163636f756e74206973206e6f74207061757365720000008152915061236d565b6020808252810161093081612cc0565b602181526000602082017f5061757365723a204163636f756e7420697320616c72656164792070617573658152603960f91b602082015291506123c2565b6020808252810161093081612d04565b60008219821115612d6557612d6561273c565b500190565b602181526000602082017f447374436861696e5061796d656e743a20696e76616c6964207061796c6f61648152607360f81b602082015291506123c2565b6020808252810161093081612d6a565b602681526000602082017f447374436861696e5061796d656e743a20756e6b6e6f776e207265736f75726381526565207479706560d01b602082015291506123c2565b6020808252810161093081612db8565b6060810161298382866121cb565b602a81526000602082017f5361666545524332303a204552433230206f7065726174696f6e20646964206e8152691bdd081cdd58d8d9595960b21b602082015291506123c2565b6020808252810161093081612e19565b6000816000190483118215151615612e8a57612e8a61273c565b500290565b634e487b7160e01b600052601260045260246000fd5b600082612eb457612eb4612e8f565b500490565b602b81526000602082017f447374436861696e5061796d656e743a20696e76616c696420746f6b656e207681526a0c2d8eaca40d8cadccee8d60ab1b602082015291506123c2565b6020808252810161093081612eb9565b604081016123e78285611bfb565b600060208284031215612f3457612f34600080fd5b6000611a3b8484612783565b60608101612f4e8286611bfb565b6129906020830185611bfb565b601d81526000602082017f416464726573733a2063616c6c20746f206e6f6e2d636f6e74726163740000008152915061236d565b6020808252810161093081612f5b565b60005b83811015612fba578181015183820152602001612fa2565b838111156117875750506000910152565b6000612fd5825190565b612fe3818560208601612f9f565b9290920192915050565b60006118fc8284612fcb565b6000613003825190565b80845260208401935061301a818560208601612f9f565b601f01601f19169290920192915050565b6020808252810161092d8184612ff956fea2646970667358221220e6b32fa904925e8dc15771329fccf7757c88ec6b4dcf815111c086f6b74fa66f64736f6c63430008090033",
  "devdoc": {
    "kind": "dev",
    "methods": {
      "owner()": {
        "details": "Returns the address of the current owner."
      },
      "paused()": {
        "details": "Returns true if the contract is paused, and false otherwise."
      },
      "renounceOwnership()": {
        "details": "Leaves the contract without owner. It will not be possible to call `onlyOwner` functions anymore. Can only be called by the current owner. NOTE: Renouncing ownership will leave the contract without an owner, thereby removing any functionality that is only available to the owner."
      },
      "transferOwnership(address)": {
        "details": "Transfers ownership of the contract to a new account (`newOwner`). Can only be called by the current owner."
      }
    },
    "version": 1
  },
  "userdoc": {
    "kind": "user",
    "methods": {},
    "version": 1
  },
  "storageLayout": {
    "storage": [
      {
        "astId": 147,
        "contract": "contracts/payment/DstChainPayment.sol:DstChainPayment",
        "label": "_initialized",
        "offset": 0,
        "slot": "0",
        "type": "t_bool"
      },
      {
        "astId": 150,
        "contract": "contracts/payment/DstChainPayment.sol:DstChainPayment",
        "label": "_initializing",
        "offset": 1,
        "slot": "0",
        "type": "t_bool"
      },
      {
        "astId": 1608,
        "contract": "contracts/payment/DstChainPayment.sol:DstChainPayment",
        "label": "__gap",
        "offset": 0,
        "slot": "1",
        "type": "t_array(t_uint256)50_storage"
      },
      {
        "astId": 10,
        "contract": "contracts/payment/DstChainPayment.sol:DstChainPayment",
        "label": "_owner",
        "offset": 0,
        "slot": "51",
        "type": "t_address"
      },
      {
        "astId": 122,
        "contract": "contracts/payment/DstChainPayment.sol:DstChainPayment",
        "label": "__gap",
        "offset": 0,
        "slot": "52",
        "type": "t_array(t_uint256)49_storage"
      },
      {
        "astId": 5151,
        "contract": "contracts/payment/DstChainPayment.sol:DstChainPayment",
        "label": "messageReceiver",
        "offset": 0,
        "slot": "101",
        "type": "t_address"
      },
      {
        "astId": 339,
        "contract": "contracts/payment/DstChainPayment.sol:DstChainPayment",
        "label": "_status",
        "offset": 0,
        "slot": "102",
        "type": "t_uint256"
      },
      {
        "astId": 383,
        "contract": "contracts/payment/DstChainPayment.sol:DstChainPayment",
        "label": "__gap",
        "offset": 0,
        "slot": "103",
        "type": "t_array(t_uint256)49_storage"
      },
      {
        "astId": 235,
        "contract": "contracts/payment/DstChainPayment.sol:DstChainPayment",
        "label": "_paused",
        "offset": 0,
        "slot": "152",
        "type": "t_bool"
      },
      {
        "astId": 324,
        "contract": "contracts/payment/DstChainPayment.sol:DstChainPayment",
        "label": "__gap",
        "offset": 0,
        "slot": "153",
        "type": "t_array(t_uint256)49_storage"
      },
      {
        "astId": 4249,
        "contract": "contracts/payment/DstChainPayment.sol:DstChainPayment",
        "label": "pausers",
        "offset": 0,
        "slot": "202",
        "type": "t_mapping(t_address,t_bool)"
      },
      {
        "astId": 7387,
        "contract": "contracts/payment/DstChainPayment.sol:DstChainPayment",
        "label": "providers",
        "offset": 0,
        "slot": "203",
        "type": "t_contract(IProviders)4728"
      },
      {
        "astId": 7602,
        "contract": "contracts/payment/DstChainPayment.sol:DstChainPayment",
        "label": "buildingTimeController",
        "offset": 0,
        "slot": "204",
        "type": "t_contract(INormalResourceController)8914"
      },
      {
        "astId": 7605,
        "contract": "contracts/payment/DstChainPayment.sol:DstChainPayment",
        "label": "bandwidthController",
        "offset": 0,
        "slot": "205",
        "type": "t_contract(INormalResourceController)8914"
      },
      {
        "astId": 7608,
        "contract": "contracts/payment/DstChainPayment.sol:DstChainPayment",
        "label": "arStorageController",
        "offset": 0,
        "slot": "206",
        "type": "t_contract(INormalResourceController)8914"
      },
      {
        "astId": 7611,
        "contract": "contracts/payment/DstChainPayment.sol:DstChainPayment",
        "label": "ipfsStorageController",
        "offset": 0,
        "slot": "207",
        "type": "t_contract(IIPFSStorageController)8886"
      },
      {
        "astId": 5867,
        "contract": "contracts/payment/DstChainPayment.sol:DstChainPayment",
        "label": "token",
        "offset": 0,
        "slot": "208",
        "type": "t_contract(IERC20Upgradeable)1075"
      },
      {
        "astId": 5871,
        "contract": "contracts/payment/DstChainPayment.sol:DstChainPayment",
        "label": "providerBalances",
        "offset": 0,
        "slot": "209",
        "type": "t_mapping(t_address,t_uint256)"
      }
    ],
    "types": {
      "t_address": {
        "encoding": "inplace",
        "label": "address",
        "numberOfBytes": "20"
      },
      "t_array(t_uint256)49_storage": {
        "base": "t_uint256",
        "encoding": "inplace",
        "label": "uint256[49]",
        "numberOfBytes": "1568"
      },
      "t_array(t_uint256)50_storage": {
        "base": "t_uint256",
        "encoding": "inplace",
        "label": "uint256[50]",
        "numberOfBytes": "1600"
      },
      "t_bool": {
        "encoding": "inplace",
        "label": "bool",
        "numberOfBytes": "1"
      },
      "t_contract(IERC20Upgradeable)1075": {
        "encoding": "inplace",
        "label": "contract IERC20Upgradeable",
        "numberOfBytes": "20"
      },
      "t_contract(IIPFSStorageController)8886": {
        "encoding": "inplace",
        "label": "contract IIPFSStorageController",
        "numberOfBytes": "20"
      },
      "t_contract(INormalResourceController)8914": {
        "encoding": "inplace",
        "label": "contract INormalResourceController",
        "numberOfBytes": "20"
      },
      "t_contract(IProviders)4728": {
        "encoding": "inplace",
        "label": "contract IProviders",
        "numberOfBytes": "20"
      },
      "t_mapping(t_address,t_bool)": {
        "encoding": "mapping",
        "key": "t_address",
        "label": "mapping(address => bool)",
        "numberOfBytes": "32",
        "value": "t_bool"
      },
      "t_mapping(t_address,t_uint256)": {
        "encoding": "mapping",
        "key": "t_address",
        "label": "mapping(address => uint256)",
        "numberOfBytes": "32",
        "value": "t_uint256"
      },
      "t_uint256": {
        "encoding": "inplace",
        "label": "uint256",
        "numberOfBytes": "32"
      }
    }
  }
}