{
  "address": "0x060Cc13209fE89eC104D71e5a24ccD3b179Af33e",
  "abi": [
    {
      "inputs": [],
      "stateMutability": "nonpayable",
      "type": "constructor"
    },
    {
      "anonymous": false,
      "inputs": [
        {
          "indexed": false,
          "internalType": "contract INormalResourceController",
          "name": "_arStorageController",
          "type": "address"
        }
      ],
      "name": "ARStorageControllerUpdated",
      "type": "event"
    },
    {
      "anonymous": false,
      "inputs": [
        {
          "indexed": false,
          "internalType": "contract INormalResourceController",
          "name": "_bandwidthController",
          "type": "address"
        }
      ],
      "name": "BandwidthControllerUpdated",
      "type": "event"
    },
    {
      "anonymous": false,
      "inputs": [
        {
          "indexed": false,
          "internalType": "contract INormalResourceController",
          "name": "_buildingTimeController",
          "type": "address"
        }
      ],
      "name": "BuildingTimeControllerUpdated",
      "type": "event"
    },
    {
      "anonymous": false,
      "inputs": [
        {
          "indexed": false,
          "internalType": "contract IIPFSStorageController",
          "name": "_ipfsStorageController",
          "type": "address"
        }
      ],
      "name": "IPFSStorageControllerUpdated",
      "type": "event"
    },
    {
      "anonymous": false,
      "inputs": [
        {
          "indexed": false,
          "internalType": "address",
          "name": "messageReceiver",
          "type": "address"
        }
      ],
      "name": "MessageReceiverUpdated",
      "type": "event"
    },
    {
      "anonymous": false,
      "inputs": [
        {
          "indexed": false,
          "internalType": "address",
          "name": "to",
          "type": "address"
        },
        {
          "indexed": false,
          "internalType": "uint256",
          "name": "value",
          "type": "uint256"
        }
      ],
      "name": "NativeWithdrawal",
      "type": "event"
    },
    {
      "anonymous": false,
      "inputs": [
        {
          "indexed": true,
          "internalType": "address",
          "name": "previousOwner",
          "type": "address"
        },
        {
          "indexed": true,
          "internalType": "address",
          "name": "newOwner",
          "type": "address"
        }
      ],
      "name": "OwnershipTransferred",
      "type": "event"
    },
    {
      "anonymous": false,
      "inputs": [
        {
          "indexed": false,
          "internalType": "address",
          "name": "payer",
          "type": "address"
        },
        {
          "indexed": false,
          "internalType": "contract IERC20Upgradeable",
          "name": "token",
          "type": "address"
        },
        {
          "components": [
            {
              "internalType": "address",
              "name": "provider",
              "type": "address"
            },
            {
              "internalType": "uint64",
              "name": "nonce",
              "type": "uint64"
            },
            {
              "internalType": "bytes32",
              "name": "account",
              "type": "bytes32"
            },
            {
              "components": [
                {
                  "internalType": "enum ResourceData.ResourceType",
                  "name": "resourceType",
                  "type": "uint8"
                },
                {
                  "internalType": "uint256[]",
                  "name": "values",
                  "type": "uint256[]"
                }
              ],
              "internalType": "struct ResourceData.Payload[]",
              "name": "payloads",
              "type": "tuple[]"
            }
          ],
          "indexed": false,
          "internalType": "struct IDstChainPayment.PaymentPayload",
          "name": "payload",
          "type": "tuple"
        }
      ],
      "name": "Paid",
      "type": "event"
    },
    {
      "anonymous": false,
      "inputs": [
        {
          "indexed": false,
          "internalType": "address",
          "name": "account",
          "type": "address"
        }
      ],
      "name": "Paused",
      "type": "event"
    },
    {
      "anonymous": false,
      "inputs": [
        {
          "indexed": false,
          "internalType": "address",
          "name": "account",
          "type": "address"
        }
      ],
      "name": "PauserAdded",
      "type": "event"
    },
    {
      "anonymous": false,
      "inputs": [
        {
          "indexed": false,
          "internalType": "address",
          "name": "account",
          "type": "address"
        }
      ],
      "name": "PauserRemoved",
      "type": "event"
    },
    {
      "anonymous": false,
      "inputs": [
        {
          "indexed": false,
          "internalType": "contract IProviders",
          "name": "providers",
          "type": "address"
        }
      ],
      "name": "ProvidersUpdated",
      "type": "event"
    },
    {
      "anonymous": false,
      "inputs": [
        {
          "indexed": false,
          "internalType": "contract IERC20Upgradeable",
          "name": "token",
          "type": "address"
        }
      ],
      "name": "TokenUpdated",
      "type": "event"
    },
    {
      "anonymous": false,
      "inputs": [
        {
          "indexed": false,
          "internalType": "address",
          "name": "account",
          "type": "address"
        }
      ],
      "name": "Unpaused",
      "type": "event"
    },
    {
      "anonymous": false,
      "inputs": [
        {
          "indexed": false,
          "internalType": "contract IERC20Upgradeable",
          "name": "token",
          "type": "address"
        },
        {
          "indexed": false,
          "internalType": "address",
          "name": "to",
          "type": "address"
        },
        {
          "indexed": false,
          "internalType": "uint256",
          "name": "value",
          "type": "uint256"
        }
      ],
      "name": "Withdrawal",
      "type": "event"
    },
    {
      "inputs": [
        {
          "internalType": "address",
          "name": "account",
          "type": "address"
        }
      ],
      "name": "addPauser",
      "outputs": [],
      "stateMutability": "nonpayable",
      "type": "function"
    },
    {
      "inputs": [],
      "name": "arStorageController",
      "outputs": [
        {
          "internalType": "contract INormalResourceController",
          "name": "",
          "type": "address"
        }
      ],
      "stateMutability": "view",
      "type": "function"
    },
    {
      "inputs": [],
      "name": "bandwidthController",
      "outputs": [
        {
          "internalType": "contract INormalResourceController",
          "name": "",
          "type": "address"
        }
      ],
      "stateMutability": "view",
      "type": "function"
    },
    {
      "inputs": [],
      "name": "buildingTimeController",
      "outputs": [
        {
          "internalType": "contract INormalResourceController",
          "name": "",
          "type": "address"
        }
      ],
      "stateMutability": "view",
      "type": "function"
    },
    {
      "inputs": [
        {
          "internalType": "uint256",
          "name": "amount",
          "type": "uint256"
        },
        {
          "components": [
            {
              "internalType": "enum ResourceData.ResourceType",
              "name": "resourceType",
              "type": "uint8"
            },
            {
              "internalType": "uint256[]",
              "name": "values",
              "type": "uint256[]"
            }
          ],
          "internalType": "struct ResourceData.Payload[]",
          "name": "payloads",
          "type": "tuple[]"
        }
      ],
      "name": "convertSourceChainPayloads",
      "outputs": [
        {
          "components": [
            {
              "internalType": "enum ResourceData.ResourceType",
              "name": "resourceType",
              "type": "uint8"
            },
            {
              "internalType": "uint256[]",
              "name": "values",
              "type": "uint256[]"
            }
          ],
          "internalType": "struct ResourceData.Payload[]",
          "name": "",
          "type": "tuple[]"
        }
      ],
      "stateMutability": "view",
      "type": "function"
    },
    {
      "inputs": [
        {
          "internalType": "bytes",
          "name": "message",
          "type": "bytes"
        }
      ],
      "name": "decodeSourceChainMessage",
      "outputs": [
        {
          "internalType": "address",
          "name": "provider",
          "type": "address"
        },
        {
          "internalType": "uint64",
          "name": "nonce",
          "type": "uint64"
        },
        {
          "internalType": "bytes32",
          "name": "account",
          "type": "bytes32"
        },
        {
          "components": [
            {
              "internalType": "enum ResourceData.ResourceType",
              "name": "resourceType",
              "type": "uint8"
            },
            {
              "internalType": "uint256[]",
              "name": "values",
              "type": "uint256[]"
            }
          ],
          "internalType": "struct ResourceData.Payload[]",
          "name": "payloads",
          "type": "tuple[]"
        }
      ],
      "stateMutability": "view",
      "type": "function"
    },
    {
      "inputs": [
        {
          "internalType": "address",
          "name": "owner",
          "type": "address"
        },
        {
          "internalType": "address",
          "name": "pauser",
          "type": "address"
        },
        {
          "internalType": "contract IProviders",
          "name": "providers",
          "type": "address"
        },
        {
          "internalType": "address",
          "name": "messageReceiver",
          "type": "address"
        },
        {
          "internalType": "contract IERC20Upgradeable",
          "name": "token",
          "type": "address"
        }
      ],
      "name": "initialize",
      "outputs": [],
      "stateMutability": "nonpayable",
      "type": "function"
    },
    {
      "inputs": [],
      "name": "ipfsStorageController",
      "outputs": [
        {
          "internalType": "contract IIPFSStorageController",
          "name": "",
          "type": "address"
        }
      ],
      "stateMutability": "view",
      "type": "function"
    },
    {
      "inputs": [
        {
          "internalType": "address",
          "name": "account",
          "type": "address"
        }
      ],
      "name": "isPauser",
      "outputs": [
        {
          "internalType": "bool",
          "name": "",
          "type": "bool"
        }
      ],
      "stateMutability": "view",
      "type": "function"
    },
    {
      "inputs": [],
      "name": "messageReceiver",
      "outputs": [
        {
          "internalType": "address",
          "name": "",
          "type": "address"
        }
      ],
      "stateMutability": "view",
      "type": "function"
    },
    {
      "inputs": [],
      "name": "owner",
      "outputs": [
        {
          "internalType": "address",
          "name": "",
          "type": "address"
        }
      ],
      "stateMutability": "view",
      "type": "function"
    },
    {
      "inputs": [
        {
          "internalType": "contract IERC20Upgradeable",
          "name": "token",
          "type": "address"
        },
        {
          "internalType": "address",
          "name": "to",
          "type": "address"
        },
        {
          "internalType": "uint256",
          "name": "value",
          "type": "uint256"
        }
      ],
      "name": "ownerWithdrawERC20",
      "outputs": [],
      "stateMutability": "nonpayable",
      "type": "function"
    },
    {
      "inputs": [
        {
          "internalType": "address payable",
          "name": "to",
          "type": "address"
        },
        {
          "internalType": "uint256",
          "name": "value",
          "type": "uint256"
        }
      ],
      "name": "ownerWithdrawNative",
      "outputs": [],
      "stateMutability": "nonpayable",
      "type": "function"
    },
    {
      "inputs": [],
      "name": "pause",
      "outputs": [],
      "stateMutability": "nonpayable",
      "type": "function"
    },
    {
      "inputs": [],
      "name": "paused",
      "outputs": [
        {
          "internalType": "bool",
          "name": "",
          "type": "bool"
        }
      ],
      "stateMutability": "view",
      "type": "function"
    },
    {
      "inputs": [
        {
          "internalType": "address",
          "name": "",
          "type": "address"
        }
      ],
      "name": "pausers",
      "outputs": [
        {
          "internalType": "bool",
          "name": "",
          "type": "bool"
        }
      ],
      "stateMutability": "view",
      "type": "function"
    },
    {
      "inputs": [
        {
          "components": [
            {
              "internalType": "address",
              "name": "provider",
              "type": "address"
            },
            {
              "internalType": "uint64",
              "name": "nonce",
              "type": "uint64"
            },
            {
              "internalType": "bytes32",
              "name": "account",
              "type": "bytes32"
            },
            {
              "components": [
                {
                  "internalType": "enum ResourceData.ResourceType",
                  "name": "resourceType",
                  "type": "uint8"
                },
                {
                  "internalType": "uint256[]",
                  "name": "values",
                  "type": "uint256[]"
                }
              ],
              "internalType": "struct ResourceData.Payload[]",
              "name": "payloads",
              "type": "tuple[]"
            }
          ],
          "internalType": "struct IDstChainPayment.PaymentPayload",
          "name": "payload",
          "type": "tuple"
        }
      ],
      "name": "pay",
      "outputs": [
        {
          "internalType": "uint256",
          "name": "value",
          "type": "uint256"
        }
      ],
      "stateMutability": "nonpayable",
      "type": "function"
    },
    {
      "inputs": [
        {
          "internalType": "contract IERC20Upgradeable",
          "name": "_token",
          "type": "address"
        },
        {
          "internalType": "uint256",
          "name": "dstAmount",
          "type": "uint256"
        },
        {
          "internalType": "bytes",
          "name": "message",
          "type": "bytes"
        }
      ],
      "name": "payFromSourceChain",
      "outputs": [
        {
          "internalType": "uint256",
          "name": "value",
          "type": "uint256"
        }
      ],
      "stateMutability": "nonpayable",
      "type": "function"
    },
    {
      "inputs": [
        {
          "internalType": "address",
          "name": "",
          "type": "address"
        }
      ],
      "name": "providerBalances",
      "outputs": [
        {
          "internalType": "uint256",
          "name": "",
          "type": "uint256"
        }
      ],
      "stateMutability": "view",
      "type": "function"
    },
    {
      "inputs": [],
      "name": "providers",
      "outputs": [
        {
          "internalType": "contract IProviders",
          "name": "",
          "type": "address"
        }
      ],
      "stateMutability": "view",
      "type": "function"
    },
    {
      "inputs": [
        {
          "internalType": "address",
          "name": "account",
          "type": "address"
        }
      ],
      "name": "removePauser",
      "outputs": [],
      "stateMutability": "nonpayable",
      "type": "function"
    },
    {
      "inputs": [],
      "name": "renounceOwnership",
      "outputs": [],
      "stateMutability": "nonpayable",
      "type": "function"
    },
    {
      "inputs": [],
      "name": "renouncePauser",
      "outputs": [],
      "stateMutability": "nonpayable",
      "type": "function"
    },
    {
      "inputs": [
        {
          "internalType": "contract INormalResourceController",
          "name": "_arStorageController",
          "type": "address"
        }
      ],
      "name": "setARStorageController",
      "outputs": [],
      "stateMutability": "nonpayable",
      "type": "function"
    },
    {
      "inputs": [
        {
          "internalType": "contract INormalResourceController",
          "name": "_bandwidthController",
          "type": "address"
        }
      ],
      "name": "setBandwidthController",
      "outputs": [],
      "stateMutability": "nonpayable",
      "type": "function"
    },
    {
      "inputs": [
        {
          "internalType": "contract INormalResourceController",
          "name": "_buildingTimeController",
          "type": "address"
        }
      ],
      "name": "setBuildingTimeController",
      "outputs": [],
      "stateMutability": "nonpayable",
      "type": "function"
    },
    {
      "inputs": [
        {
          "internalType": "contract IIPFSStorageController",
          "name": "_ipfsStorageController",
          "type": "address"
        }
      ],
      "name": "setIPFSStorageController",
      "outputs": [],
      "stateMutability": "nonpayable",
      "type": "function"
    },
    {
      "inputs": [
        {
          "internalType": "address",
          "name": "_messageReceiver",
          "type": "address"
        }
      ],
      "name": "setMessageReceiver",
      "outputs": [],
      "stateMutability": "nonpayable",
      "type": "function"
    },
    {
      "inputs": [
        {
          "internalType": "contract IERC20Upgradeable",
          "name": "_token",
          "type": "address"
        }
      ],
      "name": "setToken",
      "outputs": [],
      "stateMutability": "nonpayable",
      "type": "function"
    },
    {
      "inputs": [],
      "name": "token",
      "outputs": [
        {
          "internalType": "contract IERC20Upgradeable",
          "name": "",
          "type": "address"
        }
      ],
      "stateMutability": "view",
      "type": "function"
    },
    {
      "inputs": [
        {
          "components": [
            {
              "internalType": "enum ResourceData.ResourceType",
              "name": "resourceType",
              "type": "uint8"
            },
            {
              "internalType": "uint256[]",
              "name": "values",
              "type": "uint256[]"
            }
          ],
          "internalType": "struct ResourceData.Payload[]",
          "name": "payloads",
          "type": "tuple[]"
        }
      ],
      "name": "totalValue",
      "outputs": [
        {
          "internalType": "uint256",
          "name": "value",
          "type": "uint256"
        }
      ],
      "stateMutability": "pure",
      "type": "function"
    },
    {
      "inputs": [
        {
          "internalType": "address",
          "name": "newOwner",
          "type": "address"
        }
      ],
      "name": "transferOwnership",
      "outputs": [],
      "stateMutability": "nonpayable",
      "type": "function"
    },
    {
      "inputs": [],
      "name": "unpause",
      "outputs": [],
      "stateMutability": "nonpayable",
      "type": "function"
    }
  ],
  "transactionHash": "0x939031bc894887c4293f95246ca898e3afe39f8f96cdc85ebc6b6695640b46a5",
  "args": [],
  "solcInputHash": "254a47a637b69356b9c4b7a0a33b543a",
  "bytecode": "0x60806040523480156200001157600080fd5b50600054610100900460ff166200002f5760005460ff161562000039565b620000396200009e565b620000615760405162461bcd60e51b81526004016200005890620000cb565b60405180910390fd5b600054610100900460ff1615801562000084576000805461ffff19166101011790555b801562000097576000805461ff00191690555b5062000124565b6000620000b630620000bc60201b62000cc11760201c565b15905090565b6001600160a01b03163b151590565b602080825281016200011e81602e81527f496e697469616c697a61626c653a20636f6e747261637420697320616c72656160208201526d191e481a5b9a5d1a585b1a5e995960921b604082015260600190565b92915050565b612fe580620001346000396000f3fe608060405234801561001057600080fd5b50600436106101fb5760003560e01c806377ef533c1161011a578063b05f87a8116100ad578063e84372491161007c578063e843724914610453578063f2fde38b14610466578063f8401fe614610479578063f8f071fa1461048c578063fc0c546a1461049f57600080fd5b8063b05f87a8146103f7578063bb3711111461040a578063bd1699751461041d578063e2cae9f51461044057600080fd5b80638456cb59116100e95780638456cb59146103af5780638da5cb5b146103b7578063914fd2c3146103d157806393563a95146103e457600080fd5b806377ef533c146103535780637a7fa7531461036657806380f51c121461037957806382dc1ec41461039c57600080fd5b806346fbf68e11610192578063699256f411610161578063699256f41461031d5780636b2c0f55146103305780636ef8d66d14610343578063715018a61461034b57600080fd5b806346fbf68e146102bf578063490e4fa2146102df5780635618ce2d146102f25780635c975abb1461031257600080fd5b806329dbfc75116101ce57806329dbfc751461027e5780633b8ccfb1146102915780633f4ba83a146102a45780634540a85b146102ac57600080fd5b8063144fa6d7146102005780631459457a1461021557806315e077691461022857806328ac7f2c14610251575b600080fd5b61021361020e3660046119ec565b6104b2565b005b610213610223366004611a21565b6104f1565b60ce5461023b906001600160a01b031681565b6040516102489190611ab3565b60405180910390f35b61027161025f366004611ac1565b60d16020526000908152604090205481565b6040516102489190611ae8565b60cc5461023b906001600160a01b031681565b61021361029f366004611ac1565b610595565b6102136105c8565b6102136102ba3660046119ec565b6105f7565b6102d26102cd366004611ac1565b61062a565b6040516102489190611afe565b6102716102ed366004611dd5565b610648565b610305610300366004611e0f565b61071e565b6040516102489190611fae565b60985460ff166102d2565b61021361032b366004611fbf565b610733565b61021361033e366004611ac1565b6107e1565b610213610814565b61021361081d565b610271610361366004612043565b610851565b6102136103743660046119ec565b610a07565b6102d2610387366004611ac1565b60ca6020526000908152604090205460ff1681565b6102136103aa366004611ac1565b610a3a565b610213610a6d565b6033546001600160a01b03165b60405161024891906120b9565b6102136103df3660046119ec565b610a9a565b6102136103f23660046120c7565b610acd565b60cf5461023b906001600160a01b031681565b610271610418366004612117565b610b3e565b61043061042b3660046121df565b610c0b565b6040516102489493929190612228565b6065546103c4906001600160a01b031681565b6102136104613660046119ec565b610c35565b610213610474366004611ac1565b610c68565b60cb5461023b906001600160a01b031681565b60cd5461023b906001600160a01b031681565b60d05461023b906001600160a01b031681565b6033546001600160a01b031633146104e55760405162461bcd60e51b81526004016104dc906122a1565b60405180910390fd5b6104ee81610cd0565b50565b600054610100900460ff1661050c5760005460ff1615610510565b303b155b61052c5760405162461bcd60e51b81526004016104dc906122ff565b600054610100900460ff1615801561054e576000805461ffff19166101011790555b61055786610d26565b61056085610d78565b61056984610d9f565b61057283610dcf565b61057b82610df6565b801561058d576000805461ff00191690555b505050505050565b6033546001600160a01b031633146105bf5760405162461bcd60e51b81526004016104dc906122a1565b6104ee81610e1d565b6105d13361062a565b6105ed5760405162461bcd60e51b81526004016104dc90612343565b6105f5610e68565b565b6033546001600160a01b031633146106215760405162461bcd60e51b81526004016104dc906122a1565b6104ee81610ece565b6001600160a01b0316600090815260ca602052604090205460ff1690565b600061065660985460ff1690565b156106735760405162461bcd60e51b81526004016104dc9061237a565b600260665414156106965760405162461bcd60e51b81526004016104dc906123be565b6002606655604082015160608301516106b191906001610f19565b90506106bc8161125b565b90506106cc82600001518261126c565b5060d0546040517f699b2f7653a6bfb60eabd345a469cd1a72cf9733ed0179acb41b3d0b8d6b85839161070c9133916001600160a01b0316908690612479565b60405180910390a16001606655919050565b606061072a8383611365565b90505b92915050565b6033546001600160a01b0316331461075d5760405162461bcd60e51b81526004016104dc906122a1565b6040516000906001600160a01b0384169083156108fc0290849084818181858888f193505050509050806107a35760405162461bcd60e51b81526004016104dc906124e8565b7f2c876ecb97b3c6854f2488d373403f903eacb800e51c159a5c0c7a9c857e482783836040516107d49291906124f8565b60405180910390a1505050565b6033546001600160a01b0316331461080b5760405162461bcd60e51b81526004016104dc906122a1565b6104ee816114e3565b6105f5336114e3565b6033546001600160a01b031633146108475760405162461bcd60e51b81526004016104dc906122a1565b6105f56000610d26565b6065546000906001600160a01b0316331461087e5760405162461bcd60e51b81526004016104dc90612566565b60985460ff16156108a15760405162461bcd60e51b81526004016104dc9061237a565b600260665414156108c45760405162461bcd60e51b81526004016104dc906123be565b600260665560d0546001600160a01b038681169116146108f65760405162461bcd60e51b81526004016104dc906125aa565b60008060008061093b87878080601f016020809104026020016040519081016040528093929190818152602001838380828437600092019190915250610c0b92505050565b935093509350935060006040518060800160405280866001600160a01b03168152602001856001600160401b031681526020018481526020016109866109808c611558565b85611365565b815250905061099f816040015182606001516000610f19565b5080516109ac908a61126c565b5060d0546040517f699b2f7653a6bfb60eabd345a469cd1a72cf9733ed0179acb41b3d0b8d6b8583916109ec9133916001600160a01b0316908590612479565b60405180910390a15050600160665550919695505050505050565b6033546001600160a01b03163314610a315760405162461bcd60e51b81526004016104dc906122a1565b6104ee81611569565b6033546001600160a01b03163314610a645760405162461bcd60e51b81526004016104dc906122a1565b6104ee816115b4565b610a763361062a565b610a925760405162461bcd60e51b81526004016104dc90612343565b6105f561162d565b6033546001600160a01b03163314610ac45760405162461bcd60e51b81526004016104dc906122a1565b6104ee81611685565b6033546001600160a01b03163314610af75760405162461bcd60e51b81526004016104dc906122a1565b610b0b6001600160a01b03841683836116d0565b7f2717ead6b9200dd235aad468c9809ea400fe33ac69b5bfaa6d3e90fc922b63988383836040516107d4939291906125ba565b600080825111610b605760405162461bcd60e51b81526004016104dc90612629565b60005b8251811015610c055760005b838281518110610b8157610b81612639565b60200260200101516020015151811015610bf257610bde848381518110610baa57610baa612639565b6020026020010151602001518281518110610bc757610bc7612639565b60200260200101518461172b90919063ffffffff16565b925080610bea81612665565b915050610b6f565b5080610bfd81612665565b915050610b63565b50919050565b6000806000606084806020019051810190610c26919061280a565b92989197509550909350915050565b6033546001600160a01b03163314610c5f5760405162461bcd60e51b81526004016104dc906122a1565b6104ee81611737565b6033546001600160a01b03163314610c925760405162461bcd60e51b81526004016104dc906122a1565b6001600160a01b038116610cb85760405162461bcd60e51b81526004016104dc906128cb565b6104ee81610d26565b6001600160a01b03163b151590565b60d080546001600160a01b0319166001600160a01b0383161790556040517f5ba6b30cd4b2f9e9e67f4feb9b9df10d5da3b057598e6901b217b7d590345e3090610d1b908390611ab3565b60405180910390a150565b603380546001600160a01b038381166001600160a01b0319831681179093556040519116919082907f8be0079c531659141344cd1fd0a4f28419497f9722a3daafe3b4186f6b6457e090600090a35050565b600054610100900460ff16610a645760405162461bcd60e51b81526004016104dc90612923565b600054610100900460ff16610dc65760405162461bcd60e51b81526004016104dc90612923565b6104ee81611782565b600054610100900460ff166105bf5760405162461bcd60e51b81526004016104dc90612923565b600054610100900460ff166104e55760405162461bcd60e51b81526004016104dc90612923565b606580546001600160a01b0319166001600160a01b0383161790556040517fafe9b28ca24a54df8c44769c685f7b92824aae021cdfcaa4719d493571a23c4c90610d1b9083906120b9565b60985460ff16610e8a5760405162461bcd60e51b81526004016104dc9061295e565b6098805460ff191690557f5db9ee0a495bf2e6ff9c91a7834c1ba4fdd244a5e8aa4e537bd38aeae4b073aa335b604051610ec491906120b9565b60405180910390a1565b60cf80546001600160a01b0319166001600160a01b0383161790556040517f7b091d9397a2f75213edeec1728b27a9d863f0f8aafb62fce0f1154f48f110f890610d1b908390611ab3565b600080835111610f3b5760405162461bcd60e51b81526004016104dc906129ac565b60005b8351811015611253576000848281518110610f5b57610f5b612639565b6020026020010151905060016004811115610f7857610f78611e66565b81516004811115610f8b57610f8b611e66565b141561103f57806020015151600114610fb65760405162461bcd60e51b81526004016104dc906129fd565b60cc54602082015180516001600160a01b039092169163467aa8de918991600090610fe357610fe3612639565b60200260200101516040518363ffffffff1660e01b8152600401611008929190612a0d565b600060405180830381600087803b15801561102257600080fd5b505af1158015611036573d6000803e3d6000fd5b505050506111e3565b60038151600481111561105457611054611e66565b14156110ac5780602001515160011461107f5760405162461bcd60e51b81526004016104dc90612a59565b60ce54602082015180516001600160a01b039092169163467aa8de918991600090610fe357610fe3612639565b6002815160048111156110c1576110c1611e66565b1415611119578060200151516001146110ec5760405162461bcd60e51b81526004016104dc90612aa7565b60cd54602082015180516001600160a01b039092169163467aa8de918991600090610fe357610fe3612639565b60048151600481111561112e5761112e611e66565b14156111cb578060200151516002146111595760405162461bcd60e51b81526004016104dc90612af7565b60cf54602082015180516001600160a01b0390921691634235fec091899160009061118657611186612639565b602002602001015184602001516001815181106111a5576111a5612639565b60200260200101516040518463ffffffff1660e01b815260040161100893929190612b07565b60405162461bcd60e51b81526004016104dc90612b65565b83156112405760005b81602001515181101561123e5761122a826020015160008151811061121357611213612639565b60200260200101518561172b90919063ffffffff16565b93508061123681612665565b9150506111ec565b505b508061124b81612665565b915050610f3e565b509392505050565b600061072d8264e8d4a510006117cd565b60cb54604051636b074a0760e01b81526000916001600160a01b031690636b074a079061129d9086906004016120b9565b60206040518083038186803b1580156112b557600080fd5b505afa1580156112c9573d6000803e3d6000fd5b505050506040513d601f19601f820116820180604052508101906112ed9190612b88565b6113095760405162461bcd60e51b81526004016104dc90612beb565b60d054611321906001600160a01b03163330856117d9565b6001600160a01b038316600090815260d16020526040902054611344908361172b565b6001600160a01b03909316600090815260d160205260409020929092555090565b606060008251116113885760405162461bcd60e51b81526004016104dc90612c41565b600061139383610b3e565b9050600081116113b55760405162461bcd60e51b81526004016104dc90612c91565b60005b83518110156114da5760008482815181106113d5576113d5612639565b60200260200101516020015151116113ff5760405162461bcd60e51b81526004016104dc90612ce5565b60005b84828151811061141457611414612639565b602002602001015160200151518110156114c75761147b836114758888868151811061144257611442612639565b602002602001015160200151858151811061145f5761145f612639565b602002602001015161180090919063ffffffff16565b906117cd565b85838151811061148d5761148d612639565b60200260200101516020015182815181106114aa576114aa612639565b6020908102919091010152806114bf81612665565b915050611402565b50806114d281612665565b9150506113b8565b50919392505050565b6114ec8161062a565b6115085760405162461bcd60e51b81526004016104dc90612d29565b6001600160a01b038116600090815260ca602052604090819020805460ff19169055517fcd265ebaf09df2871cc7bd4133404a235ba12eff2041bb89d9c714a2621c7c7e90610d1b9083906120b9565b600061072d8264e8d4a51000611800565b60cd80546001600160a01b0319166001600160a01b0383161790556040517f100702071f8eb4f459f5f9dcf12bba9b3aeafa0eca6a018364f645558d792c3790610d1b908390611ab3565b6115bd8161062a565b156115da5760405162461bcd60e51b81526004016104dc90612d77565b6001600160a01b038116600090815260ca602052604090819020805460ff19166001179055517f6719d08c1888103bea251a4ed56406bd0c3e69723c8a1686e017e7bbe159b6f890610d1b9083906120b9565b60985460ff16156116505760405162461bcd60e51b81526004016104dc9061237a565b6098805460ff191660011790557f62e78cea01bee320cd4e420270b5ea74000d11b0c9f74754ebdbfc544b05a258610eb73390565b60ce80546001600160a01b0319166001600160a01b0383161790556040517f6a7e09ebc58179cd1c17c89209474e58d29e43b1bf78dd57f896e7be983220eb90610d1b908390611ab3565b6117268363a9059cbb60e01b84846040516024016116ef929190612d87565b60408051601f198184030181529190526020810180516001600160e01b03166001600160e01b03199093169290921790915261180c565b505050565b600061072a8284612d95565b60cc80546001600160a01b0319166001600160a01b0383161790556040517feb1b948f6c63784a1d91e42dd967c49aae87b1db36d3107e9b913963ae7cd03990610d1b908390611ab3565b60cb80546001600160a01b0319166001600160a01b0383161790556040517fe63288198842f0dacdcbdc3f22dcd4e473d1f3cee7e10603ae6ddc3e667c528490610d1b908390611ab3565b600061072a8284612dc3565b6117fa846323b872dd60e01b8585856040516024016116ef93929190612dd7565b50505050565b600061072a8284612de5565b6000611861826040518060400160405280602081526020017f5361666545524332303a206c6f772d6c6576656c2063616c6c206661696c6564815250856001600160a01b031661189b9092919063ffffffff16565b805190915015611726578080602001905181019061187f9190612b88565b6117265760405162461bcd60e51b81526004016104dc90612e4b565b60606118aa84846000856118b4565b90505b9392505050565b6060824710156118d65760405162461bcd60e51b81526004016104dc90612e9e565b6001600160a01b0385163b6118fd5760405162461bcd60e51b81526004016104dc90612ee2565b600080866001600160a01b031685876040516119199190612f40565b60006040518083038185875af1925050503d8060008114611956576040519150601f19603f3d011682016040523d82523d6000602084013e61195b565b606091505b509150915061196b828286611978565b925050505b949350505050565b606083156119875750816118ad565b8251156119975782518084602001fd5b8160405162461bcd60e51b81526004016104dc9190612f7e565b60006001600160a01b03821661072d565b600061072d826119b1565b6119d6816119c2565b81146104ee57600080fd5b803561072d816119cd565b600060208284031215611a0157611a01600080fd5b600061197084846119e1565b6119d6816119b1565b803561072d81611a0d565b600080600080600060a08688031215611a3c57611a3c600080fd5b6000611a488888611a16565b9550506020611a5988828901611a16565b9450506040611a6a888289016119e1565b9350506060611a7b88828901611a16565b9250506080611a8c888289016119e1565b9150509295509295909350565b600061072d826119c2565b611aad81611a99565b82525050565b6020810161072d8284611aa4565b600060208284031215611ad657611ad6600080fd5b60006119708484611a16565b80611aad565b6020810161072d8284611ae2565b801515611aad565b6020810161072d8284611af6565b634e487b7160e01b600052604160045260246000fd5b601f19601f83011681018181106001600160401b0382111715611b4757611b47611b0c565b6040525050565b6000611b5960405190565b9050611b658282611b22565b919050565b6001600160401b0381166119d6565b803561072d81611b6a565b806119d6565b803561072d81611b84565b60006001600160401b03821115611bae57611bae611b0c565b5060209081020190565b600581106104ee57600080fd5b803561072d81611bb8565b6000611be3611bde84611b95565b611b4e565b83815290506020808201908402830185811115611c0257611c02600080fd5b835b81811015611c265780611c178882611b8a565b84525060209283019201611c04565b5050509392505050565b600082601f830112611c4457611c44600080fd5b8135611970848260208601611bd0565b600060408284031215611c6957611c69600080fd5b611c736040611b4e565b90506000611c818484611bc5565b82525060208201356001600160401b03811115611ca057611ca0600080fd5b611cac84828501611c30565b60208301525092915050565b6000611cc6611bde84611b95565b83815290506020808201908402830185811115611ce557611ce5600080fd5b835b81811015611c265780356001600160401b03811115611d0857611d08600080fd5b808601611d158982611c54565b8552505060209283019201611ce7565b600082601f830112611d3957611d39600080fd5b8135611970848260208601611cb8565b600060808284031215611d5e57611d5e600080fd5b611d686080611b4e565b90506000611d768484611a16565b8252506020611d8784848301611b79565b6020830152506040611d9b84828501611b8a565b60408301525060608201356001600160401b03811115611dbd57611dbd600080fd5b611dc984828501611d25565b60608301525092915050565b600060208284031215611dea57611dea600080fd5b81356001600160401b03811115611e0357611e03600080fd5b61197084828501611d49565b60008060408385031215611e2557611e25600080fd5b6000611e318585611b8a565b92505060208301356001600160401b03811115611e5057611e50600080fd5b611e5c85828601611d25565b9150509250929050565b634e487b7160e01b600052602160045260246000fd5b600581106104ee576104ee611e66565b80611b6581611e7c565b600061072d82611e8c565b611aad81611e96565b6000611eb68383611ae2565b505060200190565b6000611ec8825190565b80845260209384019383018060005b83811015611efc578151611eeb8882611eaa565b975060208301925050600101611ed7565b509495945050505050565b80516000906040840190611f1b8582611ea1565b5060208301518482036020860152611f338282611ebe565b95945050505050565b600061072a8383611f07565b6000611f52825190565b80845260208401935083602082028501611f6c8560200190565b8060005b85811015611fa15784840389528151611f898582611f3c565b94506020830160209a909a0199925050600101611f70565b5091979650505050505050565b6020808252810161072a8184611f48565b60008060408385031215611fd557611fd5600080fd5b6000611fe18585611a16565b9250506020611e5c85828601611b8a565b60008083601f84011261200757612007600080fd5b5081356001600160401b0381111561202157612021600080fd5b60208301915083600182028301111561203c5761203c600080fd5b9250929050565b6000806000806060858703121561205c5761205c600080fd5b600061206887876119e1565b945050602061207987828801611b8a565b93505060408501356001600160401b0381111561209857612098600080fd5b6120a487828801611ff2565b95989497509550505050565b611aad816119b1565b6020810161072d82846120b0565b6000806000606084860312156120df576120df600080fd5b60006120eb86866119e1565b93505060206120fc86828701611a16565b925050604061210d86828701611b8a565b9150509250925092565b60006020828403121561212c5761212c600080fd5b81356001600160401b0381111561214557612145600080fd5b61197084828501611d25565b60006001600160401b0382111561216a5761216a611b0c565b601f19601f83011660200192915050565b82818337506000910152565b6000612195611bde84612151565b9050828152602081018484840111156121b0576121b0600080fd5b61125384828561217b565b600082601f8301126121cf576121cf600080fd5b8135611970848260208601612187565b6000602082840312156121f4576121f4600080fd5b81356001600160401b0381111561220d5761220d600080fd5b611970848285016121bb565b6001600160401b038116611aad565b6080810161223682876120b0565b6122436020830186612219565b6122506040830185611ae2565b81810360608301526122628184611f48565b9695505050505050565b60208082527f4f776e61626c653a2063616c6c6572206973206e6f7420746865206f776e6572910190815260005b5060200190565b6020808252810161072d8161226c565b602e81526000602082017f496e697469616c697a61626c653a20636f6e747261637420697320616c72656181526d191e481a5b9a5d1a585b1a5e995960921b602082015291505b5060400190565b6020808252810161072d816122b1565b601c81526000602082017f5061757365723a2043616c6c6572206973206e6f7420706175736572000000008152915061229a565b6020808252810161072d8161230f565b601081526000602082016f14185d5cd8589b194e881c185d5cd95960821b8152915061229a565b6020808252810161072d81612353565b601f81526000602082017f5265656e7472616e637947756172643a207265656e7472616e742063616c6c008152915061229a565b6020808252810161072d8161238a565b60006123d8825190565b808452602084019350836020820285016123f28560200190565b8060005b85811015611fa1578484038952815161240f8582611f3c565b94506020830160209a909a01999250506001016123f6565b8051600090608084019061243b85826120b0565b50602083015161244e6020860182612219565b5060408301516124616040860182611ae2565b5060608301518482036060860152611f3382826123ce565b6060810161248782866120b0565b6124946020830185611aa4565b8181036040830152611f338184612427565b602581526000602082017f5061796d656e743a207769746864726177206e617469766520746f6b656e2066815264185a5b195960da1b602082015291506122f8565b6020808252810161072d816124a6565b604081016125068285611aa4565b6118ad6020830184611ae2565b603681526000602082017f4d6573736167655265636569766572577261707065723a2063616c6c6572206981527539903737ba1036b2b9b9b0b3b2903932b1b2b4bb32b960511b602082015291506122f8565b6020808252810161072d81612513565b601e81526000602082017f447374436861696e5061796d656e743a20696e76616c696420746f6b656e00008152915061229a565b6020808252810161072d81612576565b606081016125c88286611aa4565b6125d560208301856120b0565b6119706040830184611ae2565b602a81526000602082017f5265736f75725061796c6f6164546f6f6c3a20696e76616c6964207061796c6f8152690c2c8e640d8cadccee8d60b31b602082015291506122f8565b6020808252810161072d816125e2565b634e487b7160e01b600052603260045260246000fd5b634e487b7160e01b600052601160045260246000fd5b60006000198214156126795761267961264f565b5060010190565b805161072d81611a0d565b805161072d81611b6a565b805161072d81611b84565b805161072d81611bb8565b60006126ba611bde84611b95565b838152905060208082019084028301858111156126d9576126d9600080fd5b835b81811015611c2657806126ee8882612696565b845250602092830192016126db565b600082601f83011261271157612711600080fd5b81516119708482602086016126ac565b60006040828403121561273657612736600080fd5b6127406040611b4e565b9050600061274e84846126a1565b82525060208201516001600160401b0381111561276d5761276d600080fd5b611cac848285016126fd565b6000612787611bde84611b95565b838152905060208082019084028301858111156127a6576127a6600080fd5b835b81811015611c265780516001600160401b038111156127c9576127c9600080fd5b8086016127d68982612721565b85525050602092830192016127a8565b600082601f8301126127fa576127fa600080fd5b8151611970848260208601612779565b6000806000806080858703121561282357612823600080fd5b600061282f8787612680565b94505060206128408782880161268b565b935050604061285187828801612696565b92505060608501516001600160401b0381111561287057612870600080fd5b61287c878288016127e6565b91505092959194509250565b602681526000602082017f4f776e61626c653a206e6577206f776e657220697320746865207a65726f206181526564647265737360d01b602082015291506122f8565b6020808252810161072d81612888565b602b81526000602082017f496e697469616c697a61626c653a20636f6e7472616374206973206e6f74206981526a6e697469616c697a696e6760a81b602082015291506122f8565b6020808252810161072d816128db565b601481526000602082017314185d5cd8589b194e881b9bdd081c185d5cd95960621b8152915061229a565b6020808252810161072d81612933565b602181526000602082017f447374436861696e5061796d656e743a20696e76616c6964207061796c6f61648152607360f81b602082015291506122f8565b6020808252810161072d8161296e565b60368152600060208201600080516020612f90833981519152815275656e67746820666f72204275696c64696e6754696d6560501b602082015291506122f8565b6020808252810161072d816129bc565b604081016125068285611ae2565b60338152600060208201600080516020612f90833981519152815272656e67746820666f7220415253746f7261676560681b602082015291506122f8565b6020808252810161072d81612a1b565b60338152600060208201600080516020612f908339815191528152720cadccee8d040ccdee44084c2dcc8eed2c8e8d606b1b602082015291506122f8565b6020808252810161072d81612a69565b60358152600060208201600080516020612f90833981519152815274656e67746820666f72204950465353746f7261676560581b602082015291506122f8565b6020808252810161072d81612ab7565b60608101612b158286611ae2565b6125d56020830185611ae2565b602681526000602082017f447374436861696e5061796d656e743a20756e6b6e6f776e207265736f75726381526565207479706560d01b602082015291506122f8565b6020808252810161072d81612b22565b8015156119d6565b805161072d81612b75565b600060208284031215612b9d57612b9d600080fd5b60006119708484612b7d565b602581526000602082017f447374436861696e5061796d656e743a206e6f6e6578697374656e742070726f8152643b34b232b960d91b602082015291506122f8565b6020808252810161072d81612ba9565b602981526000602082017f5265736f75725061796c6f6164546f6f6c3a20696e76616c6964207061796c6f8152680c2c840d8cadccee8d60bb1b602082015291506122f8565b6020808252810161072d81612bfb565b602381526000602082017f5265736f75725061796c6f6164546f6f6c3a207a65726f20746f74616c2076618152626c756560e81b602082015291506122f8565b6020808252810161072d81612c51565b602781526000602082017f5265736f75725061796c6f6164546f6f6c3a20696e76616c69642076616c7565815266040d8cadccee8d60cb1b602082015291506122f8565b6020808252810161072d81612ca1565b601d81526000602082017f5061757365723a204163636f756e74206973206e6f74207061757365720000008152915061229a565b6020808252810161072d81612cf5565b602181526000602082017f5061757365723a204163636f756e7420697320616c72656164792070617573658152603960f91b602082015291506122f8565b6020808252810161072d81612d39565b6040810161250682856120b0565b60008219821115612da857612da861264f565b500190565b634e487b7160e01b600052601260045260246000fd5b600082612dd257612dd2612dad565b500490565b606081016125c882866120b0565b6000816000190483118215151615612dff57612dff61264f565b500290565b602a81526000602082017f5361666545524332303a204552433230206f7065726174696f6e20646964206e8152691bdd081cdd58d8d9595960b21b602082015291506122f8565b6020808252810161072d81612e04565b602681526000602082017f416464726573733a20696e73756666696369656e742062616c616e636520666f8152651c8818d85b1b60d21b602082015291506122f8565b6020808252810161072d81612e5b565b601d81526000602082017f416464726573733a2063616c6c20746f206e6f6e2d636f6e74726163740000008152915061229a565b6020808252810161072d81612eae565b60005b83811015612f0d578181015183820152602001612ef5565b838111156117fa5750506000910152565b6000612f28825190565b612f36818560208601612ef2565b9290920192915050565b60006118ad8284612f1e565b6000612f56825190565b808452602084019350612f6d818560208601612ef2565b601f01601f19169290920192915050565b6020808252810161072a8184612f4c56fe447374436861696e5061796d656e743a20696e76616c69642076616c7565206ca26469706673582212205224ee090b8e0ccbf727533d383d857be2f3b3976b752e1e1e3eb8a7764f981364736f6c63430008090033",
  "devdoc": {
    "kind": "dev",
    "methods": {
      "owner()": {
        "details": "Returns the address of the current owner."
      },
      "paused()": {
        "details": "Returns true if the contract is paused, and false otherwise."
      },
      "renounceOwnership()": {
        "details": "Leaves the contract without owner. It will not be possible to call `onlyOwner` functions anymore. Can only be called by the current owner. NOTE: Renouncing ownership will leave the contract without an owner, thereby removing any functionality that is only available to the owner."
      },
      "transferOwnership(address)": {
        "details": "Transfers ownership of the contract to a new account (`newOwner`). Can only be called by the current owner."
      }
    },
    "version": 1
  },
  "userdoc": {
    "kind": "user",
    "methods": {},
    "version": 1
  },
  "storageLayout": {
    "storage": [
      {
        "astId": 147,
        "contract": "contracts/payment/DstChainPayment.sol:DstChainPayment",
        "label": "_initialized",
        "offset": 0,
        "slot": "0",
        "type": "t_bool"
      },
      {
        "astId": 150,
        "contract": "contracts/payment/DstChainPayment.sol:DstChainPayment",
        "label": "_initializing",
        "offset": 1,
        "slot": "0",
        "type": "t_bool"
      },
      {
        "astId": 970,
        "contract": "contracts/payment/DstChainPayment.sol:DstChainPayment",
        "label": "__gap",
        "offset": 0,
        "slot": "1",
        "type": "t_array(t_uint256)50_storage"
      },
      {
        "astId": 10,
        "contract": "contracts/payment/DstChainPayment.sol:DstChainPayment",
        "label": "_owner",
        "offset": 0,
        "slot": "51",
        "type": "t_address"
      },
      {
        "astId": 122,
        "contract": "contracts/payment/DstChainPayment.sol:DstChainPayment",
        "label": "__gap",
        "offset": 0,
        "slot": "52",
        "type": "t_array(t_uint256)49_storage"
      },
      {
        "astId": 4637,
        "contract": "contracts/payment/DstChainPayment.sol:DstChainPayment",
        "label": "messageReceiver",
        "offset": 0,
        "slot": "101",
        "type": "t_address"
      },
      {
        "astId": 339,
        "contract": "contracts/payment/DstChainPayment.sol:DstChainPayment",
        "label": "_status",
        "offset": 0,
        "slot": "102",
        "type": "t_uint256"
      },
      {
        "astId": 383,
        "contract": "contracts/payment/DstChainPayment.sol:DstChainPayment",
        "label": "__gap",
        "offset": 0,
        "slot": "103",
        "type": "t_array(t_uint256)49_storage"
      },
      {
        "astId": 235,
        "contract": "contracts/payment/DstChainPayment.sol:DstChainPayment",
        "label": "_paused",
        "offset": 0,
        "slot": "152",
        "type": "t_bool"
      },
      {
        "astId": 324,
        "contract": "contracts/payment/DstChainPayment.sol:DstChainPayment",
        "label": "__gap",
        "offset": 0,
        "slot": "153",
        "type": "t_array(t_uint256)49_storage"
      },
      {
        "astId": 3742,
        "contract": "contracts/payment/DstChainPayment.sol:DstChainPayment",
        "label": "pausers",
        "offset": 0,
        "slot": "202",
        "type": "t_mapping(t_address,t_bool)"
      },
      {
        "astId": 6464,
        "contract": "contracts/payment/DstChainPayment.sol:DstChainPayment",
        "label": "providers",
        "offset": 0,
        "slot": "203",
        "type": "t_contract(IProviders)4232"
      },
      {
        "astId": 6712,
        "contract": "contracts/payment/DstChainPayment.sol:DstChainPayment",
        "label": "buildingTimeController",
        "offset": 0,
        "slot": "204",
        "type": "t_contract(INormalResourceController)7910"
      },
      {
        "astId": 6715,
        "contract": "contracts/payment/DstChainPayment.sol:DstChainPayment",
        "label": "bandwidthController",
        "offset": 0,
        "slot": "205",
        "type": "t_contract(INormalResourceController)7910"
      },
      {
        "astId": 6718,
        "contract": "contracts/payment/DstChainPayment.sol:DstChainPayment",
        "label": "arStorageController",
        "offset": 0,
        "slot": "206",
        "type": "t_contract(INormalResourceController)7910"
      },
      {
        "astId": 6721,
        "contract": "contracts/payment/DstChainPayment.sol:DstChainPayment",
        "label": "ipfsStorageController",
        "offset": 0,
        "slot": "207",
        "type": "t_contract(IIPFSStorageController)7884"
      },
      {
        "astId": 5072,
        "contract": "contracts/payment/DstChainPayment.sol:DstChainPayment",
        "label": "token",
        "offset": 0,
        "slot": "208",
        "type": "t_contract(IERC20Upgradeable)462"
      },
      {
        "astId": 5076,
        "contract": "contracts/payment/DstChainPayment.sol:DstChainPayment",
        "label": "providerBalances",
        "offset": 0,
        "slot": "209",
        "type": "t_mapping(t_address,t_uint256)"
      }
    ],
    "types": {
      "t_address": {
        "encoding": "inplace",
        "label": "address",
        "numberOfBytes": "20"
      },
      "t_array(t_uint256)49_storage": {
        "base": "t_uint256",
        "encoding": "inplace",
        "label": "uint256[49]",
        "numberOfBytes": "1568"
      },
      "t_array(t_uint256)50_storage": {
        "base": "t_uint256",
        "encoding": "inplace",
        "label": "uint256[50]",
        "numberOfBytes": "1600"
      },
      "t_bool": {
        "encoding": "inplace",
        "label": "bool",
        "numberOfBytes": "1"
      },
      "t_contract(IERC20Upgradeable)462": {
        "encoding": "inplace",
        "label": "contract IERC20Upgradeable",
        "numberOfBytes": "20"
      },
      "t_contract(IIPFSStorageController)7884": {
        "encoding": "inplace",
        "label": "contract IIPFSStorageController",
        "numberOfBytes": "20"
      },
      "t_contract(INormalResourceController)7910": {
        "encoding": "inplace",
        "label": "contract INormalResourceController",
        "numberOfBytes": "20"
      },
      "t_contract(IProviders)4232": {
        "encoding": "inplace",
        "label": "contract IProviders",
        "numberOfBytes": "20"
      },
      "t_mapping(t_address,t_bool)": {
        "encoding": "mapping",
        "key": "t_address",
        "label": "mapping(address => bool)",
        "numberOfBytes": "32",
        "value": "t_bool"
      },
      "t_mapping(t_address,t_uint256)": {
        "encoding": "mapping",
        "key": "t_address",
        "label": "mapping(address => uint256)",
        "numberOfBytes": "32",
        "value": "t_uint256"
      },
      "t_uint256": {
        "encoding": "inplace",
        "label": "uint256",
        "numberOfBytes": "32"
      }
    }
  }
}