{
  "address": "0xfd451cfEe5D2734a392080796787500dE43e88e0",
  "abi": [
    {
      "inputs": [],
      "stateMutability": "nonpayable",
      "type": "constructor"
    },
    {
      "anonymous": false,
      "inputs": [
        {
          "indexed": false,
          "internalType": "bytes32",
          "name": "hash",
          "type": "bytes32"
        }
      ],
      "name": "BillTypedHashUpdated",
      "type": "event"
    },
    {
      "anonymous": false,
      "inputs": [
        {
          "indexed": false,
          "internalType": "address",
          "name": "provider",
          "type": "address"
        },
        {
          "indexed": false,
          "internalType": "uint64",
          "name": "nonce",
          "type": "uint64"
        },
        {
          "indexed": false,
          "internalType": "bytes32",
          "name": "account",
          "type": "bytes32"
        },
        {
          "indexed": false,
          "internalType": "bytes",
          "name": "bill",
          "type": "bytes"
        },
        {
          "indexed": false,
          "internalType": "uint256",
          "name": "amount",
          "type": "uint256"
        }
      ],
      "name": "Billing",
      "type": "event"
    },
    {
      "anonymous": false,
      "inputs": [
        {
          "indexed": false,
          "internalType": "address",
          "name": "to",
          "type": "address"
        },
        {
          "indexed": false,
          "internalType": "uint256",
          "name": "value",
          "type": "uint256"
        }
      ],
      "name": "NativeWithdrawal",
      "type": "event"
    },
    {
      "anonymous": false,
      "inputs": [
        {
          "indexed": false,
          "internalType": "address",
          "name": "provider",
          "type": "address"
        },
        {
          "indexed": false,
          "internalType": "bytes32",
          "name": "account",
          "type": "bytes32"
        },
        {
          "indexed": false,
          "internalType": "uint64",
          "name": "nonce",
          "type": "uint64"
        },
        {
          "indexed": false,
          "internalType": "enum IFundWallet.Purpose",
          "name": "purpose",
          "type": "uint8"
        }
      ],
      "name": "NonceUpdated",
      "type": "event"
    },
    {
      "anonymous": false,
      "inputs": [
        {
          "indexed": true,
          "internalType": "address",
          "name": "previousOwner",
          "type": "address"
        },
        {
          "indexed": true,
          "internalType": "address",
          "name": "newOwner",
          "type": "address"
        }
      ],
      "name": "OwnershipTransferred",
      "type": "event"
    },
    {
      "anonymous": false,
      "inputs": [
        {
          "indexed": false,
          "internalType": "address",
          "name": "account",
          "type": "address"
        }
      ],
      "name": "Paused",
      "type": "event"
    },
    {
      "anonymous": false,
      "inputs": [
        {
          "indexed": false,
          "internalType": "address",
          "name": "account",
          "type": "address"
        }
      ],
      "name": "PauserAdded",
      "type": "event"
    },
    {
      "anonymous": false,
      "inputs": [
        {
          "indexed": false,
          "internalType": "address",
          "name": "account",
          "type": "address"
        }
      ],
      "name": "PauserRemoved",
      "type": "event"
    },
    {
      "anonymous": false,
      "inputs": [
        {
          "indexed": false,
          "internalType": "contract IProviders",
          "name": "providers",
          "type": "address"
        }
      ],
      "name": "ProvidersUpdated",
      "type": "event"
    },
    {
      "anonymous": false,
      "inputs": [
        {
          "indexed": false,
          "internalType": "bytes32",
          "name": "hash",
          "type": "bytes32"
        }
      ],
      "name": "RechargeTypedHashUpdated",
      "type": "event"
    },
    {
      "anonymous": false,
      "inputs": [
        {
          "indexed": false,
          "internalType": "address",
          "name": "provider",
          "type": "address"
        },
        {
          "indexed": false,
          "internalType": "uint64",
          "name": "nonce",
          "type": "uint64"
        },
        {
          "indexed": false,
          "internalType": "bytes32",
          "name": "account",
          "type": "bytes32"
        },
        {
          "indexed": false,
          "internalType": "uint256",
          "name": "amount",
          "type": "uint256"
        }
      ],
      "name": "Recharged",
      "type": "event"
    },
    {
      "anonymous": false,
      "inputs": [
        {
          "indexed": false,
          "internalType": "contract IResourceAdaptor",
          "name": "adaptor",
          "type": "address"
        }
      ],
      "name": "ResourceAdaptorUpdated",
      "type": "event"
    },
    {
      "anonymous": false,
      "inputs": [
        {
          "indexed": false,
          "internalType": "address",
          "name": "provider",
          "type": "address"
        },
        {
          "indexed": false,
          "internalType": "uint64",
          "name": "nonce",
          "type": "uint64"
        },
        {
          "indexed": false,
          "internalType": "bytes32",
          "name": "account",
          "type": "bytes32"
        },
        {
          "indexed": false,
          "internalType": "uint256",
          "name": "fee",
          "type": "uint256"
        }
      ],
      "name": "Spent",
      "type": "event"
    },
    {
      "anonymous": false,
      "inputs": [
        {
          "indexed": false,
          "internalType": "contract IERC20Upgradeable",
          "name": "token",
          "type": "address"
        }
      ],
      "name": "TokenUpdated",
      "type": "event"
    },
    {
      "anonymous": false,
      "inputs": [
        {
          "indexed": false,
          "internalType": "address",
          "name": "account",
          "type": "address"
        }
      ],
      "name": "Unpaused",
      "type": "event"
    },
    {
      "anonymous": false,
      "inputs": [
        {
          "indexed": false,
          "internalType": "address",
          "name": "provider",
          "type": "address"
        },
        {
          "indexed": false,
          "internalType": "bytes32",
          "name": "account",
          "type": "bytes32"
        },
        {
          "indexed": false,
          "internalType": "address",
          "name": "newOwner",
          "type": "address"
        }
      ],
      "name": "WalletOwnerTransferred",
      "type": "event"
    },
    {
      "anonymous": false,
      "inputs": [
        {
          "indexed": false,
          "internalType": "bytes32",
          "name": "hash",
          "type": "bytes32"
        }
      ],
      "name": "WalletOwnerTypedHashUpdated",
      "type": "event"
    },
    {
      "anonymous": false,
      "inputs": [
        {
          "indexed": false,
          "internalType": "contract IERC20Upgradeable",
          "name": "token",
          "type": "address"
        },
        {
          "indexed": false,
          "internalType": "address",
          "name": "to",
          "type": "address"
        },
        {
          "indexed": false,
          "internalType": "uint256",
          "name": "value",
          "type": "uint256"
        }
      ],
      "name": "Withdrawal",
      "type": "event"
    },
    {
      "anonymous": false,
      "inputs": [
        {
          "indexed": false,
          "internalType": "address",
          "name": "provider",
          "type": "address"
        },
        {
          "indexed": false,
          "internalType": "uint64",
          "name": "nonce",
          "type": "uint64"
        },
        {
          "indexed": false,
          "internalType": "bytes32",
          "name": "account",
          "type": "bytes32"
        },
        {
          "indexed": false,
          "internalType": "address",
          "name": "to",
          "type": "address"
        },
        {
          "indexed": false,
          "internalType": "uint256",
          "name": "amount",
          "type": "uint256"
        }
      ],
      "name": "Withdrawn",
      "type": "event"
    },
    {
      "inputs": [],
      "name": "adaptor",
      "outputs": [
        {
          "internalType": "contract IResourceAdaptor",
          "name": "",
          "type": "address"
        }
      ],
      "stateMutability": "view",
      "type": "function"
    },
    {
      "inputs": [
        {
          "internalType": "address",
          "name": "account",
          "type": "address"
        }
      ],
      "name": "addPauser",
      "outputs": [],
      "stateMutability": "nonpayable",
      "type": "function"
    },
    {
      "inputs": [
        {
          "internalType": "address",
          "name": "provider",
          "type": "address"
        },
        {
          "internalType": "bytes32",
          "name": "account",
          "type": "bytes32"
        }
      ],
      "name": "balanceOf",
      "outputs": [
        {
          "internalType": "uint256",
          "name": "",
          "type": "uint256"
        }
      ],
      "stateMutability": "view",
      "type": "function"
    },
    {
      "inputs": [
        {
          "internalType": "address",
          "name": "provider",
          "type": "address"
        },
        {
          "internalType": "uint64",
          "name": "nonce",
          "type": "uint64"
        },
        {
          "internalType": "bytes32",
          "name": "account",
          "type": "bytes32"
        },
        {
          "internalType": "bytes",
          "name": "bill",
          "type": "bytes"
        }
      ],
      "name": "billHash",
      "outputs": [
        {
          "internalType": "bytes32",
          "name": "",
          "type": "bytes32"
        }
      ],
      "stateMutability": "view",
      "type": "function"
    },
    {
      "inputs": [],
      "name": "billTypedHash",
      "outputs": [
        {
          "internalType": "bytes32",
          "name": "",
          "type": "bytes32"
        }
      ],
      "stateMutability": "view",
      "type": "function"
    },
    {
      "inputs": [
        {
          "internalType": "bytes",
          "name": "data",
          "type": "bytes"
        }
      ],
      "name": "decodeBill",
      "outputs": [
        {
          "components": [
            {
              "internalType": "uint256",
              "name": "totalValue",
              "type": "uint256"
            },
            {
              "components": [
                {
                  "internalType": "uint256",
                  "name": "indexBlock",
                  "type": "uint256"
                },
                {
                  "components": [
                    {
                      "internalType": "enum ResourceData.ResourceType",
                      "name": "resourceType",
                      "type": "uint8"
                    },
                    {
                      "internalType": "uint256",
                      "name": "amount",
                      "type": "uint256"
                    }
                  ],
                  "internalType": "struct IBilling.BillEntry[]",
                  "name": "entries",
                  "type": "tuple[]"
                }
              ],
              "internalType": "struct IBilling.BillPayload[]",
              "name": "payloads",
              "type": "tuple[]"
            }
          ],
          "internalType": "struct IBilling.Bill",
          "name": "",
          "type": "tuple"
        }
      ],
      "stateMutability": "pure",
      "type": "function"
    },
    {
      "inputs": [
        {
          "components": [
            {
              "internalType": "uint256",
              "name": "totalValue",
              "type": "uint256"
            },
            {
              "components": [
                {
                  "internalType": "uint256",
                  "name": "indexBlock",
                  "type": "uint256"
                },
                {
                  "components": [
                    {
                      "internalType": "enum ResourceData.ResourceType",
                      "name": "resourceType",
                      "type": "uint8"
                    },
                    {
                      "internalType": "uint256",
                      "name": "amount",
                      "type": "uint256"
                    }
                  ],
                  "internalType": "struct IBilling.BillEntry[]",
                  "name": "entries",
                  "type": "tuple[]"
                }
              ],
              "internalType": "struct IBilling.BillPayload[]",
              "name": "payloads",
              "type": "tuple[]"
            }
          ],
          "internalType": "struct IBilling.Bill",
          "name": "bill",
          "type": "tuple"
        }
      ],
      "name": "encodeBill",
      "outputs": [
        {
          "internalType": "bytes",
          "name": "",
          "type": "bytes"
        }
      ],
      "stateMutability": "pure",
      "type": "function"
    },
    {
      "inputs": [
        {
          "internalType": "address",
          "name": "provider",
          "type": "address"
        },
        {
          "internalType": "uint64",
          "name": "nonce",
          "type": "uint64"
        },
        {
          "internalType": "bytes32",
          "name": "account",
          "type": "bytes32"
        },
        {
          "internalType": "bytes",
          "name": "bill",
          "type": "bytes"
        }
      ],
      "name": "hashTypedDataV4ForBill",
      "outputs": [
        {
          "internalType": "bytes32",
          "name": "",
          "type": "bytes32"
        }
      ],
      "stateMutability": "view",
      "type": "function"
    },
    {
      "inputs": [
        {
          "internalType": "address",
          "name": "provider",
          "type": "address"
        },
        {
          "internalType": "uint64",
          "name": "nonce",
          "type": "uint64"
        },
        {
          "internalType": "bytes32",
          "name": "account",
          "type": "bytes32"
        },
        {
          "internalType": "uint256",
          "name": "amount",
          "type": "uint256"
        }
      ],
      "name": "hashTypedDataV4ForRecharge",
      "outputs": [
        {
          "internalType": "bytes32",
          "name": "",
          "type": "bytes32"
        }
      ],
      "stateMutability": "view",
      "type": "function"
    },
    {
      "inputs": [
        {
          "internalType": "address",
          "name": "provider",
          "type": "address"
        },
        {
          "internalType": "bytes32",
          "name": "account",
          "type": "bytes32"
        },
        {
          "internalType": "address",
          "name": "owner",
          "type": "address"
        }
      ],
      "name": "hashTypedDataV4ForWalletOwnerHash",
      "outputs": [
        {
          "internalType": "bytes32",
          "name": "",
          "type": "bytes32"
        }
      ],
      "stateMutability": "view",
      "type": "function"
    },
    {
      "inputs": [
        {
          "internalType": "address",
          "name": "owner",
          "type": "address"
        },
        {
          "internalType": "address",
          "name": "pauser",
          "type": "address"
        },
        {
          "internalType": "contract IResourceAdaptor",
          "name": "adaptor",
          "type": "address"
        },
        {
          "internalType": "contract IProviders",
          "name": "_providers",
          "type": "address"
        },
        {
          "internalType": "contract IERC20Upgradeable",
          "name": "_token",
          "type": "address"
        },
        {
          "internalType": "string",
          "name": "name",
          "type": "string"
        },
        {
          "internalType": "string",
          "name": "version",
          "type": "string"
        },
        {
          "internalType": "string",
          "name": "walletOwnerTypes",
          "type": "string"
        },
        {
          "internalType": "string",
          "name": "rechargeTypes",
          "type": "string"
        },
        {
          "internalType": "string",
          "name": "billTypes",
          "type": "string"
        }
      ],
      "name": "initialize",
      "outputs": [],
      "stateMutability": "nonpayable",
      "type": "function"
    },
    {
      "inputs": [
        {
          "internalType": "address",
          "name": "account",
          "type": "address"
        }
      ],
      "name": "isPauser",
      "outputs": [
        {
          "internalType": "bool",
          "name": "",
          "type": "bool"
        }
      ],
      "stateMutability": "view",
      "type": "function"
    },
    {
      "inputs": [
        {
          "internalType": "address",
          "name": "",
          "type": "address"
        },
        {
          "internalType": "bytes32",
          "name": "",
          "type": "bytes32"
        },
        {
          "internalType": "uint64",
          "name": "",
          "type": "uint64"
        }
      ],
      "name": "nonces",
      "outputs": [
        {
          "internalType": "enum IFundWallet.Purpose",
          "name": "",
          "type": "uint8"
        }
      ],
      "stateMutability": "view",
      "type": "function"
    },
    {
      "inputs": [],
      "name": "owner",
      "outputs": [
        {
          "internalType": "address",
          "name": "",
          "type": "address"
        }
      ],
      "stateMutability": "view",
      "type": "function"
    },
    {
      "inputs": [
        {
          "internalType": "address",
          "name": "provider",
          "type": "address"
        },
        {
          "internalType": "bytes32",
          "name": "account",
          "type": "bytes32"
        }
      ],
      "name": "ownerOf",
      "outputs": [
        {
          "internalType": "address",
          "name": "",
          "type": "address"
        }
      ],
      "stateMutability": "view",
      "type": "function"
    },
    {
      "inputs": [
        {
          "internalType": "contract IERC20Upgradeable",
          "name": "token",
          "type": "address"
        },
        {
          "internalType": "address",
          "name": "to",
          "type": "address"
        },
        {
          "internalType": "uint256",
          "name": "value",
          "type": "uint256"
        }
      ],
      "name": "ownerWithdrawERC20",
      "outputs": [],
      "stateMutability": "nonpayable",
      "type": "function"
    },
    {
      "inputs": [
        {
          "internalType": "address payable",
          "name": "to",
          "type": "address"
        },
        {
          "internalType": "uint256",
          "name": "value",
          "type": "uint256"
        }
      ],
      "name": "ownerWithdrawNative",
      "outputs": [],
      "stateMutability": "nonpayable",
      "type": "function"
    },
    {
      "inputs": [],
      "name": "pause",
      "outputs": [],
      "stateMutability": "nonpayable",
      "type": "function"
    },
    {
      "inputs": [],
      "name": "paused",
      "outputs": [
        {
          "internalType": "bool",
          "name": "",
          "type": "bool"
        }
      ],
      "stateMutability": "view",
      "type": "function"
    },
    {
      "inputs": [
        {
          "internalType": "address",
          "name": "",
          "type": "address"
        }
      ],
      "name": "pausers",
      "outputs": [
        {
          "internalType": "bool",
          "name": "",
          "type": "bool"
        }
      ],
      "stateMutability": "view",
      "type": "function"
    },
    {
      "inputs": [],
      "name": "providers",
      "outputs": [
        {
          "internalType": "contract IProviders",
          "name": "",
          "type": "address"
        }
      ],
      "stateMutability": "view",
      "type": "function"
    },
    {
      "inputs": [
        {
          "internalType": "address",
          "name": "provider",
          "type": "address"
        },
        {
          "internalType": "uint64",
          "name": "nonce",
          "type": "uint64"
        },
        {
          "internalType": "bytes32",
          "name": "account",
          "type": "bytes32"
        },
        {
          "internalType": "uint256",
          "name": "amount",
          "type": "uint256"
        },
        {
          "internalType": "bytes",
          "name": "signature",
          "type": "bytes"
        }
      ],
      "name": "recharge",
      "outputs": [],
      "stateMutability": "nonpayable",
      "type": "function"
    },
    {
      "inputs": [
        {
          "internalType": "address",
          "name": "provider",
          "type": "address"
        },
        {
          "internalType": "uint64",
          "name": "nonce",
          "type": "uint64"
        },
        {
          "internalType": "bytes32",
          "name": "account",
          "type": "bytes32"
        },
        {
          "internalType": "uint256",
          "name": "amount",
          "type": "uint256"
        }
      ],
      "name": "rechargeHash",
      "outputs": [
        {
          "internalType": "bytes32",
          "name": "",
          "type": "bytes32"
        }
      ],
      "stateMutability": "view",
      "type": "function"
    },
    {
      "inputs": [],
      "name": "rechargeTypedHash",
      "outputs": [
        {
          "internalType": "bytes32",
          "name": "",
          "type": "bytes32"
        }
      ],
      "stateMutability": "view",
      "type": "function"
    },
    {
      "inputs": [
        {
          "internalType": "address",
          "name": "account",
          "type": "address"
        }
      ],
      "name": "removePauser",
      "outputs": [],
      "stateMutability": "nonpayable",
      "type": "function"
    },
    {
      "inputs": [],
      "name": "renounceOwnership",
      "outputs": [],
      "stateMutability": "nonpayable",
      "type": "function"
    },
    {
      "inputs": [],
      "name": "renouncePauser",
      "outputs": [],
      "stateMutability": "nonpayable",
      "type": "function"
    },
    {
      "inputs": [
        {
          "internalType": "string",
          "name": "types",
          "type": "string"
        }
      ],
      "name": "setBillTypedHash",
      "outputs": [],
      "stateMutability": "nonpayable",
      "type": "function"
    },
    {
      "inputs": [
        {
          "internalType": "string",
          "name": "types",
          "type": "string"
        }
      ],
      "name": "setRechargeTypedHash",
      "outputs": [],
      "stateMutability": "nonpayable",
      "type": "function"
    },
    {
      "inputs": [
        {
          "internalType": "contract IERC20Upgradeable",
          "name": "_token",
          "type": "address"
        }
      ],
      "name": "setToken",
      "outputs": [],
      "stateMutability": "nonpayable",
      "type": "function"
    },
    {
      "inputs": [
        {
          "internalType": "address",
          "name": "provider",
          "type": "address"
        },
        {
          "internalType": "bytes32",
          "name": "account",
          "type": "bytes32"
        },
        {
          "internalType": "address",
          "name": "owner",
          "type": "address"
        },
        {
          "internalType": "bytes",
          "name": "signature",
          "type": "bytes"
        }
      ],
      "name": "setWalletOwner",
      "outputs": [],
      "stateMutability": "nonpayable",
      "type": "function"
    },
    {
      "inputs": [
        {
          "internalType": "string",
          "name": "types",
          "type": "string"
        }
      ],
      "name": "setWalletOwnerTypedHash",
      "outputs": [],
      "stateMutability": "nonpayable",
      "type": "function"
    },
    {
      "inputs": [
        {
          "internalType": "address",
          "name": "provider",
          "type": "address"
        },
        {
          "internalType": "uint64",
          "name": "nonce",
          "type": "uint64"
        },
        {
          "internalType": "bytes32",
          "name": "account",
          "type": "bytes32"
        },
        {
          "internalType": "bytes",
          "name": "bill",
          "type": "bytes"
        },
        {
          "internalType": "bytes",
          "name": "signature",
          "type": "bytes"
        }
      ],
      "name": "spend",
      "outputs": [
        {
          "internalType": "uint256",
          "name": "fee",
          "type": "uint256"
        }
      ],
      "stateMutability": "nonpayable",
      "type": "function"
    },
    {
      "inputs": [],
      "name": "token",
      "outputs": [
        {
          "internalType": "contract IERC20Upgradeable",
          "name": "",
          "type": "address"
        }
      ],
      "stateMutability": "view",
      "type": "function"
    },
    {
      "inputs": [
        {
          "internalType": "address",
          "name": "newOwner",
          "type": "address"
        }
      ],
      "name": "transferOwnership",
      "outputs": [],
      "stateMutability": "nonpayable",
      "type": "function"
    },
    {
      "inputs": [
        {
          "internalType": "address",
          "name": "provider",
          "type": "address"
        },
        {
          "internalType": "bytes32",
          "name": "account",
          "type": "bytes32"
        },
        {
          "internalType": "address",
          "name": "newOwner",
          "type": "address"
        }
      ],
      "name": "transferWalletOwner",
      "outputs": [],
      "stateMutability": "nonpayable",
      "type": "function"
    },
    {
      "inputs": [],
      "name": "unpause",
      "outputs": [],
      "stateMutability": "nonpayable",
      "type": "function"
    },
    {
      "inputs": [
        {
          "internalType": "address",
          "name": "provider",
          "type": "address"
        },
        {
          "internalType": "bytes32",
          "name": "account",
          "type": "bytes32"
        },
        {
          "internalType": "address",
          "name": "owner",
          "type": "address"
        }
      ],
      "name": "walletOwnerHash",
      "outputs": [
        {
          "internalType": "bytes32",
          "name": "",
          "type": "bytes32"
        }
      ],
      "stateMutability": "view",
      "type": "function"
    },
    {
      "inputs": [],
      "name": "walletOwnerTypedHash",
      "outputs": [
        {
          "internalType": "bytes32",
          "name": "",
          "type": "bytes32"
        }
      ],
      "stateMutability": "view",
      "type": "function"
    },
    {
      "inputs": [
        {
          "internalType": "address",
          "name": "provider",
          "type": "address"
        },
        {
          "internalType": "uint64",
          "name": "nonce",
          "type": "uint64"
        },
        {
          "internalType": "bytes32",
          "name": "account",
          "type": "bytes32"
        },
        {
          "internalType": "address",
          "name": "to",
          "type": "address"
        },
        {
          "internalType": "bytes",
          "name": "bill",
          "type": "bytes"
        },
        {
          "internalType": "bytes",
          "name": "signature",
          "type": "bytes"
        }
      ],
      "name": "withdraw",
      "outputs": [
        {
          "internalType": "uint256",
          "name": "amount",
          "type": "uint256"
        }
      ],
      "stateMutability": "nonpayable",
      "type": "function"
    }
  ],
  "transactionHash": "0x47067a689798e7f703c8515200bb0bf5a8d8c329ff76dbb9073c3ee562307e4c",
  "args": [],
  "solcInputHash": "88eca8bd2bb266fd5f17054d27f458fd",
  "bytecode": "0x60806040523480156200001157600080fd5b50600054610100900460ff166200002f5760005460ff161562000039565b620000396200009e565b620000615760405162461bcd60e51b81526004016200005890620000cb565b60405180910390fd5b600054610100900460ff1615801562000084576000805461ffff19166101011790555b801562000097576000805461ff00191690555b5062000124565b6000620000b630620000bc60201b620013db1760201c565b15905090565b6001600160a01b03163b151590565b602080825281016200011e81602e81527f496e697469616c697a61626c653a20636f6e747261637420697320616c72656160208201526d191e481a5b9a5d1a585b1a5e995960921b604082015260600190565b92915050565b613b3c80620001346000396000f3fe608060405234801561001057600080fd5b50600436106102485760003560e01c806382dc1ec41161013b578063c47ca603116100b8578063e7356a071161007c578063e7356a071461057c578063f2fde38b14610586578063f687423a14610599578063f8401fe6146105ac578063fc0c546a146105c557600080fd5b8063c47ca603146104ff578063d29ed85e1461051f578063d5ed04b614610528578063d662a5221461053b578063da66bd671461054557600080fd5b806393563a95116100ff57806393563a9514610493578063a50d817d146104a6578063be620193146104b9578063becd611f146104cc578063c2cd9b2b146104df57600080fd5b806382dc1ec4146104385780638456cb591461044b5780638da5cb5b146104535780638f1a14381461046d578063924bf9a71461048057600080fd5b80635ab9d73b116101c95780636d9d0ae11161018d5780636d9d0ae1146103df5780636ef8d66d146103f2578063715018a6146103fa5780637acc238b1461040257806380f51c121461041557600080fd5b80635ab9d73b146103885780635c975abb1461039b578063677706c4146103a6578063699256f4146103b95780636b2c0f55146103cc57600080fd5b8063453866001161021057806345386600146102b957806346fbf68e146102d9578063474902a2146102f95780634bf1fcda1461030c5780634d30b6be1461034e57600080fd5b80630bfb6bd91461024d578063144fa6d71461026257806324496dbb146102755780633f4ba83a146102885780633fe1d58114610290575b600080fd5b61026061025b366004612217565b6105d8565b005b610260610270366004612375565b6106af565b6102606102833660046123a7565b6106e5565b610260610838565b6102a361029e366004612411565b610867565b6040516102b0919061247d565b60405180910390f35b6102cc6102c736600461248b565b610888565b6040516102b0919061265d565b6102ec6102e736600461266e565b6108b7565b6040516102b09190612697565b6102a36103073660046126a5565b6108d5565b61034161031a366004612763565b61010360209081526000938452604080852082529284528284209052825290205460ff1681565b6040516102b091906127d7565b6102a361035c3660046127e5565b6001600160a01b0391909116600090815261010460209081526040808320938352929052206001015490565b610260610396366004612822565b610b0d565b609c5460ff166102ec565b6102a36103b43660046123a7565b610d60565b6102606103c73660046127e5565b610d9c565b6102606103da36600461266e565b610e4a565b6102606103ed36600461248b565b610e7d565b610260610eb7565b610260610ec0565b61026061041036600461248b565b610ef4565b6102ec61042336600461266e565b60ce6020526000908152604090205460ff1681565b61026061044636600461266e565b610f2e565b610260610f61565b606a546001600160a01b03165b6040516102b091906128bd565b6102a361047b366004612411565b610f8e565b6102a361048e3660046128cb565b610fcc565b6102606104a136600461293d565b610fdd565b6102a36104b4366004612983565b61104e565b6102a36104c73660046123a7565b6111cb565b6102606104da36600461248b565b6111db565b6037546104f2906001600160a01b031681565b6040516102b09190612a0b565b61051261050d366004612c60565b611215565b6040516102b09190612cf8565b6102a360355481565b6102a36105363660046128cb565b61123e565b6102a36101015481565b6104606105533660046127e5565b6001600160a01b0391821660009081526101046020908152604080832093835292905220541690565b6102a36101025481565b61026061059436600461266e565b611262565b6102606105a7366004612d09565b6112bb565b6000546104f2906201000090046001600160a01b031681565b6036546104f2906001600160a01b031681565b600054610100900460ff166105f35760005460ff16156105f7565b303b155b61061c5760405162461bcd60e51b815260040161061390612d9e565b60405180910390fd5b600054610100900460ff1615801561063e576000805461ffff19166101011790555b6106478b6113ea565b6106508a61143c565b61065988611463565b61066289611493565b61066b876114c3565b61067586866114ea565b61067e8461151f565b61068783611546565b6106908261156d565b80156106a2576000805461ff00191690555b5050505050505050505050565b606a546001600160a01b031633146106d95760405162461bcd60e51b815260040161061390612de3565b6106e281611594565b50565b609c5460ff16156107085760405162461bcd60e51b815260040161061390612e1a565b6001600160a01b03808416600090815261010460209081526040808320868452909152902054849184911633146107515760405162461bcd60e51b815260040161061390612e6d565b6001600160a01b03858116600090815261010460209081526040808320888452909152902054166107945760405162461bcd60e51b815260040161061390612ebe565b6001600160a01b0383166107ba5760405162461bcd60e51b815260040161061390612f02565b6001600160a01b038581166000908152610104602090815260408083208884529091529081902080546001600160a01b03191692861692909217909155517f4ddee4675a37f5c882a56b9be609ea55023c460cafb24ab74c1cb024abc84b3b9061082990879087908790612f12565b60405180910390a15050505050565b610841336108b7565b61085d5760405162461bcd60e51b815260040161061390612f6c565b6108656115ea565b565b600061087d61087886868686610f8e565b611650565b90505b949350505050565b604080518082019091526000815260606020820152818060200190518101906108b19190613188565b92915050565b6001600160a01b0316600090815260ce602052604090205460ff1690565b6000868587836001600160a01b03841660009081526101036020908152604080832086845282528083206001600160401b038616845290915290205460ff166003811115610925576109256124c5565b146109425760405162461bcd60e51b8152600401610613906131f6565b6001600160a01b03808b166000908152610104602090815260408083208c84529091529020548b918a9116331461098b5760405162461bcd60e51b815260040161061390612e6d565b609c5460ff16156109ae5760405162461bcd60e51b815260040161061390612e1a565b600260cf5414156109d15760405162461bcd60e51b81526004016106139061323a565b600260cf558b60006109e6828e8e8d8d611663565b9050610a35816101046000856001600160a01b03166001600160a01b0316815260200190815260200160002060008f81526020019081526020016000206001015461190490919063ffffffff16565b975060006101046000846001600160a01b03166001600160a01b0316815260200190815260200160002060008e815260200190815260200160002060010181905550610aaa8b89603660009054906101000a90046001600160a01b03166001600160a01b03166119109092919063ffffffff16565b610ab7828d8f600361196b565b7f26b8aa9e5d4f71b867c84264e57eab543daba6bf03a6ac7c3be51697b5132f70828e8e8e8c604051610aee959493929190613259565b60405180910390a15050600160cf5550939a9950505050505050505050565b84838560006001600160a01b03841660009081526101036020908152604080832086845282528083206001600160401b038616845290915290205460ff166003811115610b5c57610b5c6124c5565b14610b795760405162461bcd60e51b8152600401610613906131f6565b609c5460ff1615610b9c5760405162461bcd60e51b815260040161061390612e1a565b600260cf541415610bbf5760405162461bcd60e51b81526004016106139061323a565b600260cf5584610be15760405162461bcd60e51b8152600401610613906132d9565b6000610bef89898989610867565b6000546040516311c5268f60e11b81529192506201000090046001600160a01b03169063238a4d1e90610c2a908c9085908a906004016132e9565b602060405180830381600087803b158015610c4457600080fd5b505af1158015610c58573d6000803e3d6000fd5b505050506040513d601f19601f82011682018060405250810190610c7c9190613329565b610c985760405162461bcd60e51b81526004016106139061337e565b6001600160a01b0389166000908152610104602090815260408083208a8452909152902060010154610cca9087611a05565b6001600160a01b03808b166000908152610104602090815260408083208c8452909152902060010191909155603654610d069116333089611a11565b610d1389888a600161196b565b7f20615f51b8701e825dbc8fd5f5e6909964726a9082f971d65f494860fd3ae39689898989604051610d48949392919061338e565b60405180910390a15050600160cf5550505050505050565b600061010154848484604051602001610d7c94939291906133c3565b6040516020818303038152906040528051906020012090505b9392505050565b606a546001600160a01b03163314610dc65760405162461bcd60e51b815260040161061390612de3565b6040516000906001600160a01b0384169083156108fc0290849084818181858888f19350505050905080610e0c5760405162461bcd60e51b81526004016106139061343a565b7f2c876ecb97b3c6854f2488d373403f903eacb800e51c159a5c0c7a9c857e48278383604051610e3d92919061344a565b60405180910390a1505050565b606a546001600160a01b03163314610e745760405162461bcd60e51b815260040161061390612de3565b6106e281611a38565b606a546001600160a01b03163314610ea75760405162461bcd60e51b815260040161061390612de3565b6106e28180519060200120611aad565b61086533611a38565b606a546001600160a01b03163314610eea5760405162461bcd60e51b815260040161061390612de3565b61086560006113ea565b606a546001600160a01b03163314610f1e5760405162461bcd60e51b815260040161061390612de3565b6106e28180519060200120611ae2565b606a546001600160a01b03163314610f585760405162461bcd60e51b815260040161061390612de3565b6106e281611b18565b610f6a336108b7565b610f865760405162461bcd60e51b815260040161061390612f6c565b610865611b91565b60006101025485858585604051602001610fac959493929190613465565b604051602081830303815290604052805190602001209050949350505050565b600061087d6108788686868661123e565b606a546001600160a01b031633146110075760405162461bcd60e51b815260040161061390612de3565b61101b6001600160a01b0384168383611910565b7f2717ead6b9200dd235aad468c9809ea400fe33ac69b5bfaa6d3e90fc922b6398838383604051610e3d9392919061349a565b6000858486836001600160a01b03841660009081526101036020908152604080832086845282528083206001600160401b038616845290915290205460ff16600381111561109e5761109e6124c5565b146110bb5760405162461bcd60e51b8152600401610613906131f6565b609c5460ff16156110de5760405162461bcd60e51b815260040161061390612e1a565b600260cf5414156111015760405162461bcd60e51b81526004016106139061323a565b600260cf556111138989898989611663565b6001600160a01b038a166000908152610104602090815260408083208b84529091529020600101549094506111489085611904565b6001600160a01b038a166000908152610104602090815260408083208b845290915290206001015561117d89888a600261196b565b7fc4a9f6eaf73a138a29597f8fb9a703d716bfb70ed6d23bb9c0f40971e9801eca898989876040516111b2949392919061338e565b60405180910390a15050600160cf555095945050505050565b6000610880610878858585610d60565b606a546001600160a01b031633146112055760405162461bcd60e51b815260040161061390612de3565b6106e28180519060200120611be9565b606081604051602001611228919061265d565b6040516020818303038152906040529050919050565b60006035548585858580519060200120604051602001610fac959493929190613465565b606a546001600160a01b0316331461128c5760405162461bcd60e51b815260040161061390612de3565b6001600160a01b0381166112b25760405162461bcd60e51b815260040161061390613505565b6106e2816113ea565b6001600160a01b0382166112e15760405162461bcd60e51b815260040161061390612f02565b60006112ee8585856111cb565b6000546040516311c5268f60e11b81529192506201000090046001600160a01b03169063238a4d1e90611329908890859087906004016132e9565b602060405180830381600087803b15801561134357600080fd5b505af1158015611357573d6000803e3d6000fd5b505050506040513d601f19601f8201168201806040525081019061137b9190613329565b6113975760405162461bcd60e51b81526004016106139061337e565b6001600160a01b0385811660009081526101046020908152604080832088845290915290205416156107ba5760405162461bcd60e51b815260040161061390613549565b6001600160a01b03163b151590565b606a80546001600160a01b038381166001600160a01b0319831681179093556040519116919082907f8be0079c531659141344cd1fd0a4f28419497f9722a3daafe3b4186f6b6457e090600090a35050565b600054610100900460ff16610f585760405162461bcd60e51b8152600401610613906135a1565b600054610100900460ff1661148a5760405162461bcd60e51b8152600401610613906135a1565b6106e281611c1f565b600054610100900460ff166114ba5760405162461bcd60e51b8152600401610613906135a1565b6106e281611c71565b600054610100900460ff166106d95760405162461bcd60e51b8152600401610613906135a1565b600054610100900460ff166115115760405162461bcd60e51b8152600401610613906135a1565b61151b8282611cbc565b5050565b600054610100900460ff166112055760405162461bcd60e51b8152600401610613906135a1565b600054610100900460ff16610f1e5760405162461bcd60e51b8152600401610613906135a1565b600054610100900460ff16610ea75760405162461bcd60e51b8152600401610613906135a1565b603680546001600160a01b0319166001600160a01b0383161790556040517f5ba6b30cd4b2f9e9e67f4feb9b9df10d5da3b057598e6901b217b7d590345e30906115df908390612a0b565b60405180910390a150565b609c5460ff1661160c5760405162461bcd60e51b8152600401610613906135dc565b609c805460ff191690557f5db9ee0a495bf2e6ff9c91a7834c1ba4fdd244a5e8aa4e537bd38aeae4b073aa335b60405161164691906128bd565b60405180910390a1565b60006108b161165d611cfd565b83611d39565b60008054604051636b074a0760e01b8152620100009091046001600160a01b031690636b074a07906116999033906004016128bd565b60206040518083038186803b1580156116b157600080fd5b505afa1580156116c5573d6000803e3d6000fd5b505050506040513d601f19601f820116820180604052508101906116e99190613329565b6117055760405162461bcd60e51b81526004016106139061362a565b600061171387878787610fcc565b6000546040516311c5268f60e11b81529192506201000090046001600160a01b03169063238a4d1e9061174e908a90859088906004016132e9565b602060405180830381600087803b15801561176857600080fd5b505af115801561177c573d6000803e3d6000fd5b505050506040513d601f19601f820116820180604052508101906117a09190613329565b6117bc5760405162461bcd60e51b81526004016106139061366e565b8351156118bb576001600160a01b0387166000908152610104602090815260408083208884529091529020600101546117fc6117f786611d6c565b611f24565b92508281101561181e5760405162461bcd60e51b8152600401610613906136b2565b6000546040516389b08f1160e01b81526118b9916201000090046001600160a01b0316906389b08f1190611856908c906004016128bd565b60206040518083038186803b15801561186e57600080fd5b505afa158015611882573d6000803e3d6000fd5b505050506040513d601f19601f820116820180604052508101906118a691906136cd565b6036546001600160a01b03169085611910565b505b7f086575d4de5bb5f0addd08773b7097a00aaa37120293013f54da4433812adfa787878787866040516118f29594939291906136ee565b60405180910390a15095945050505050565b6000610d95828461374d565b6119668363a9059cbb60e01b848460405160240161192f929190613764565b60408051601f198184030181529190526020810180516001600160e01b03166001600160e01b031990931692909217909152611f35565b505050565b6001600160a01b03841660009081526101036020908152604080832086845282528083206001600160401b03861684529091529020805482919060ff191660018360038111156119bd576119bd6124c5565b02179055507fc4f15e84da288f27234e3626e64c8035b984fd65cee49fcd86b4910de1d13e7c848484846040516119f79493929190613772565b60405180910390a150505050565b6000610d9582846137a7565b611a32846323b872dd60e01b85858560405160240161192f939291906137bf565b50505050565b611a41816108b7565b611a5d5760405162461bcd60e51b815260040161061390613801565b6001600160a01b038116600090815260ce602052604090819020805460ff19169055517fcd265ebaf09df2871cc7bd4133404a235ba12eff2041bb89d9c714a2621c7c7e906115df9083906128bd565b60358190556040517f44e8ce8f81d5513d3e950d9a75224f8ff590d2687c88df09ffc509671aa670a1906115df90839061247d565b6101028190556040517f921d5c4a3c33eaff9e0f2fee28d7dd04f45183c3070cc30adfd5d90be5154699906115df90839061247d565b611b21816108b7565b15611b3e5760405162461bcd60e51b81526004016106139061384f565b6001600160a01b038116600090815260ce602052604090819020805460ff19166001179055517f6719d08c1888103bea251a4ed56406bd0c3e69723c8a1686e017e7bbe159b6f8906115df9083906128bd565b609c5460ff1615611bb45760405162461bcd60e51b815260040161061390612e1a565b609c805460ff191660011790557f62e78cea01bee320cd4e420270b5ea74000d11b0c9f74754ebdbfc544b05a2586116393390565b6101018190556040517f3954b0fe7da572ea8330d129c97ee260b7c60de8715d90007cb3d598abbb4885906115df90839061247d565b6000805462010000600160b01b031916620100006001600160a01b038416021790556040517fe63288198842f0dacdcbdc3f22dcd4e473d1f3cee7e10603ae6ddc3e667c5284906115df908390612a0b565b603780546001600160a01b0319166001600160a01b0383161790556040517fcb398744d70dd9f7eb9e1e65c9c74f4d3276143240e25316135eb6585db6c1c1906115df908390612a0b565b600054610100900460ff16611ce35760405162461bcd60e51b8152600401610613906135a1565b815160209283012081519190920120600191909155600255565b6000611d347f8b73c3c69bb8fe3d512ecc4cf759cc79239f7b179b0ffacaa9a75d522b39400f611d2c60015490565b600254611fc4565b905090565b60008282604051602001611d4e929190613865565b60405160208183030381529060405280519060200120905092915050565b60008082806020019051810190611d839190613188565b9050600081602001515111611daa5760405162461bcd60e51b8152600401610613906138ca565b60005b816020015151811015611efd57600082602001518281518110611dd257611dd26138da565b60200260200101519050600081602001515111611e015760405162461bcd60e51b81526004016106139061392e565b60005b816020015151811015611ee857600082602001518481518110611e2957611e296138da565b60209081029190910181015160375481519282015186516040516354bf93b960e11b81529395506000946001600160a01b039093169363a97f277293611e75939092909160040161393e565b60206040518083038186803b158015611e8d57600080fd5b505afa158015611ea1573d6000803e3d6000fd5b505050506040513d601f19601f82011682018060405250810190611ec59190613959565b9050611ed18782611a05565b965050508080611ee09061397a565b915050611e04565b50508080611ef59061397a565b915050611dad565b5080518214611f1e5760405162461bcd60e51b8152600401610613906139c1565b50919050565b60006108b18264e8d4a51000611fdf565b6000611f8a826040518060400160405280602081526020017f5361666545524332303a206c6f772d6c6576656c2063616c6c206661696c6564815250856001600160a01b0316611feb9092919063ffffffff16565b8051909150156119665780806020019051810190611fa89190613329565b6119665760405162461bcd60e51b815260040161061390613a18565b60008383834630604051602001610d7c959493929190613a28565b6000610d958284613a80565b60606108808484600085856001600160a01b0385163b61201d5760405162461bcd60e51b815260040161061390613ac8565b600080866001600160a01b031685876040516120399190613afa565b60006040518083038185875af1925050503d8060008114612076576040519150601f19603f3d011682016040523d82523d6000602084013e61207b565b606091505b509150915061208b828286612096565b979650505050505050565b606083156120a5575081610d95565b8251156120b55782518084602001fd5b8160405162461bcd60e51b81526004016106139190612cf8565b60006001600160a01b0382166108b1565b6120e9816120cf565b81146106e257600080fd5b80356108b1816120e0565b60006108b1826120cf565b6120e9816120ff565b80356108b18161210a565b634e487b7160e01b600052604160045260246000fd5b601f19601f83011681018181106001600160401b03821117156121595761215961211e565b6040525050565b600061216b60405190565b90506121778282612134565b919050565b60006001600160401b038211156121955761219561211e565b601f19601f83011660200192915050565b82818337506000910152565b60006121c56121c08461217c565b612160565b9050828152602081018484840111156121e0576121e0600080fd5b6121eb8482856121a6565b509392505050565b600082601f83011261220757612207600080fd5b81356108808482602086016121b2565b6000806000806000806000806000806101408b8d03121561223a5761223a600080fd5b60006122468d8d6120f4565b9a505060206122578d828e016120f4565b99505060406122688d828e01612113565b98505060606122798d828e01612113565b975050608061228a8d828e01612113565b96505060a08b01356001600160401b038111156122a9576122a9600080fd5b6122b58d828e016121f3565b95505060c08b01356001600160401b038111156122d4576122d4600080fd5b6122e08d828e016121f3565b94505060e08b01356001600160401b038111156122ff576122ff600080fd5b61230b8d828e016121f3565b9350506101008b01356001600160401b0381111561232b5761232b600080fd5b6123378d828e016121f3565b9250506101208b01356001600160401b0381111561235757612357600080fd5b6123638d828e016121f3565b9150509295989b9194979a5092959850565b60006020828403121561238a5761238a600080fd5b60006108808484612113565b806120e9565b80356108b181612396565b6000806000606084860312156123bf576123bf600080fd5b60006123cb86866120f4565b93505060206123dc8682870161239c565b92505060406123ed868287016120f4565b9150509250925092565b6001600160401b0381166120e9565b80356108b1816123f7565b6000806000806080858703121561242a5761242a600080fd5b600061243687876120f4565b945050602061244787828801612406565b93505060406124588782880161239c565b92505060606124698782880161239c565b91505092959194509250565b805b82525050565b602081016108b18284612475565b6000602082840312156124a0576124a0600080fd5b81356001600160401b038111156124b9576124b9600080fd5b610880848285016121f3565b634e487b7160e01b600052602160045260246000fd5b600581106106e2576106e26124c5565b80612177816124db565b60006108b1826124eb565b612477816124f5565b8051604083019061251a8482612500565b506020820151611a326020850182612475565b60006125398383612509565b505060400190565b600061254b825190565b80845260209384019383018060005b8381101561257f57815161256e888261252d565b97506020830192505060010161255a565b509495945050505050565b8051600090604084019061259e8582612475565b50602083015184820360208601526125b68282612541565b95945050505050565b6000610d95838361258a565b60006125d5825190565b808452602084019350836020820285016125ef8560200190565b8060005b85811015612624578484038952815161260c85826125bf565b94506020830160209a909a01999250506001016125f3565b5091979650505050505050565b805160009060408401906126458582612475565b50602083015184820360208601526125b682826125cb565b60208082528101610d958184612631565b60006020828403121561268357612683600080fd5b600061088084846120f4565b801515612477565b602081016108b1828461268f565b60008060008060008060c087890312156126c1576126c1600080fd5b60006126cd89896120f4565b96505060206126de89828a01612406565b95505060406126ef89828a0161239c565b945050606061270089828a016120f4565b93505060808701356001600160401b0381111561271f5761271f600080fd5b61272b89828a016121f3565b92505060a08701356001600160401b0381111561274a5761274a600080fd5b61275689828a016121f3565b9150509295509295509295565b60008060006060848603121561277b5761277b600080fd5b600061278786866120f4565b93505060206127988682870161239c565b92505060406123ed86828701612406565b600481106106e2576106e26124c5565b80612177816127a9565b60006108b1826127b9565b612477816127c3565b602081016108b182846127ce565b600080604083850312156127fb576127fb600080fd5b600061280785856120f4565b92505060206128188582860161239c565b9150509250929050565b600080600080600060a0868803121561283d5761283d600080fd5b600061284988886120f4565b955050602061285a88828901612406565b945050604061286b8882890161239c565b935050606061287c8882890161239c565b92505060808601356001600160401b0381111561289b5761289b600080fd5b6128a7888289016121f3565b9150509295509295909350565b612477816120cf565b602081016108b182846128b4565b600080600080608085870312156128e4576128e4600080fd5b60006128f087876120f4565b945050602061290187828801612406565b93505060406129128782880161239c565b92505060608501356001600160401b0381111561293157612931600080fd5b612469878288016121f3565b60008060006060848603121561295557612955600080fd5b60006129618686612113565b9350506020612972868287016120f4565b92505060406123ed8682870161239c565b600080600080600060a0868803121561299e5761299e600080fd5b60006129aa88886120f4565b95505060206129bb88828901612406565b94505060406129cc8882890161239c565b93505060608601356001600160401b038111156129eb576129eb600080fd5b61287c888289016121f3565b60006108b1826120ff565b612477816129f7565b602081016108b18284612a02565b60006001600160401b03821115612a3257612a3261211e565b5060209081020190565b600581106106e257600080fd5b80356108b181612a3c565b600060408284031215612a6957612a69600080fd5b612a736040612160565b90506000612a818484612a49565b8252506020612a928484830161239c565b60208301525092915050565b6000612aac6121c084612a19565b83815290506020810160408402830185811115612acb57612acb600080fd5b835b81811015612af15780612ae08882612a54565b845250602090920191604001612acd565b5050509392505050565b600082601f830112612b0f57612b0f600080fd5b8135610880848260208601612a9e565b600060408284031215612b3457612b34600080fd5b612b3e6040612160565b90506000612b4c848461239c565b82525060208201356001600160401b03811115612b6b57612b6b600080fd5b612a9284828501612afb565b6000612b856121c084612a19565b83815290506020808201908402830185811115612ba457612ba4600080fd5b835b81811015612af15780356001600160401b03811115612bc757612bc7600080fd5b808601612bd48982612b1f565b8552505060209283019201612ba6565b600082601f830112612bf857612bf8600080fd5b8135610880848260208601612b77565b600060408284031215612c1d57612c1d600080fd5b612c276040612160565b90506000612c35848461239c565b82525060208201356001600160401b03811115612c5457612c54600080fd5b612a9284828501612be4565b600060208284031215612c7557612c75600080fd5b81356001600160401b03811115612c8e57612c8e600080fd5b61088084828501612c08565b60005b83811015612cb5578181015183820152602001612c9d565b83811115611a325750506000910152565b6000612cd0825190565b808452602084019350612ce7818560208601612c9a565b601f01601f19169290920192915050565b60208082528101610d958184612cc6565b60008060008060808587031215612d2257612d22600080fd5b6000612d2e87876120f4565b9450506020612d3f8782880161239c565b9350506040612912878288016120f4565b602e81526000602082017f496e697469616c697a61626c653a20636f6e747261637420697320616c72656181526d191e481a5b9a5d1a585b1a5e995960921b602082015291505b5060400190565b602080825281016108b181612d50565b60208082527f4f776e61626c653a2063616c6c6572206973206e6f7420746865206f776e6572910190815260005b5060200190565b602080825281016108b181612dae565b601081526000602082016f14185d5cd8589b194e881c185d5cd95960821b81529150612ddc565b602080825281016108b181612df3565b602681526000602082017f46756e6457616c6c65743a2063616c6c6572206973206e6f742077616c6c65748152651037bbb732b960d11b60208201529150612d97565b602080825281016108b181612e2a565b602481526000602082017f46756e6457616c6c65743a206e6f6e6578697374656e742077616c6c6574206f8152633bb732b960e11b60208201529150612d97565b602080825281016108b181612e7d565b601881526000602082017f46756e6457616c6c65743a207a65726f2061646472657373000000000000000081529150612ddc565b602080825281016108b181612ece565b60608101612f2082866128b4565b612f2d6020830185612475565b61088060408301846128b4565b60208082527f5061757365723a2063616c6c6572206973206e6f74207468652070617573657291019081526000612ddc565b602080825281016108b181612f3a565b80516108b181612396565b80516108b181612a3c565b600060408284031215612fa757612fa7600080fd5b612fb16040612160565b90506000612fbf8484612f87565b8252506020612a9284848301612f7c565b6000612fde6121c084612a19565b83815290506020810160408402830185811115612ffd57612ffd600080fd5b835b81811015612af157806130128882612f92565b845250602090920191604001612fff565b600082601f83011261303757613037600080fd5b8151610880848260208601612fd0565b60006040828403121561305c5761305c600080fd5b6130666040612160565b905060006130748484612f7c565b82525060208201516001600160401b0381111561309357613093600080fd5b612a9284828501613023565b60006130ad6121c084612a19565b838152905060208082019084028301858111156130cc576130cc600080fd5b835b81811015612af15780516001600160401b038111156130ef576130ef600080fd5b8086016130fc8982613047565b85525050602092830192016130ce565b600082601f83011261312057613120600080fd5b815161088084826020860161309f565b60006040828403121561314557613145600080fd5b61314f6040612160565b9050600061315d8484612f7c565b82525060208201516001600160401b0381111561317c5761317c600080fd5b612a928482850161310c565b60006020828403121561319d5761319d600080fd5b81516001600160401b038111156131b6576131b6600080fd5b61088084828501613130565b601981526000602082017f46756e6457616c6c65743a20696e76616c6964206e6f6e63650000000000000081529150612ddc565b602080825281016108b1816131c2565b601f81526000602082017f5265656e7472616e637947756172643a207265656e7472616e742063616c6c0081529150612ddc565b602080825281016108b181613206565b6001600160401b038116612477565b60a0810161326782886128b4565b613274602083018761324a565b6132816040830186612475565b61328e60608301856128b4565b61329b6080830184612475565b9695505050505050565b601781526000602082017f46756e6457616c6c65743a207a65726f20616d6f756e7400000000000000000081529150612ddc565b602080825281016108b1816132a5565b606081016132f782866128b4565b6133046020830185612475565b818103604083015261087d8184612cc6565b8015156120e9565b80516108b181613316565b60006020828403121561333e5761333e600080fd5b6000610880848461331e565b601d81526000602082017f46756e6457616c6c65743a20696e76616c6964207369676e617475726500000081529150612ddc565b602080825281016108b18161334a565b6080810161339c82876128b4565b6133a9602083018661324a565b6133b66040830185612475565b6125b66060830184612475565b608081016133d18287612475565b6133de60208301866128b4565b6133eb6040830185612475565b6125b660608301846128b4565b602581526000602082017f5061796d656e743a207769746864726177206e617469766520746f6b656e2066815264185a5b195960da1b60208201529150612d97565b602080825281016108b1816133f8565b604081016134588285612a02565b610d956020830184612475565b60a081016134738288612475565b61348060208301876128b4565b61348d604083018661324a565b61328e6060830185612475565b606081016134a88286612a02565b6134b560208301856128b4565b6108806040830184612475565b602681526000602082017f4f776e61626c653a206e6577206f776e657220697320746865207a65726f206181526564647265737360d01b60208201529150612d97565b602080825281016108b1816134c2565b601f81526000602082017f46756e6457616c6c65743a2077616c6c6574206f776e6572206578697374730081529150612ddc565b602080825281016108b181613515565b602b81526000602082017f496e697469616c697a61626c653a20636f6e7472616374206973206e6f74206981526a6e697469616c697a696e6760a81b60208201529150612d97565b602080825281016108b181613559565b601481526000602082017314185d5cd8589b194e881b9bdd081c185d5cd95960621b81529150612ddc565b602080825281016108b1816135b1565b602181526000602082017f42696c6c696e673a2063616c6c6572206973206e6f7420612070726f766964658152603960f91b60208201529150612d97565b602080825281016108b1816135ec565b601a81526000602082017f42696c6c696e673a20696e76616c6964207369676e617475726500000000000081529150612ddc565b602080825281016108b18161363a565b601d81526000602082017f42696c6c696e673a20696e73756666696369656e742062616c616e636500000081529150612ddc565b602080825281016108b18161367e565b80516108b1816120e0565b6000602082840312156136e2576136e2600080fd5b600061088084846136c2565b60a081016136fc82886128b4565b613709602083018761324a565b6137166040830186612475565b81810360608301526137288185612cc6565b905061329b6080830184612475565b634e487b7160e01b600052601160045260246000fd5b60008282101561375f5761375f613737565b500390565b6040810161345882856128b4565b6080810161378082876128b4565b61378d6020830186612475565b61379a604083018561324a565b6125b660608301846127ce565b600082198211156137ba576137ba613737565b500190565b606081016134a882866128b4565b601d81526000602082017f5061757365723a206163636f756e74206973206e6f742070617573657200000081529150612ddc565b602080825281016108b1816137cd565b602181526000602082017f5061757365723a206163636f756e7420697320616c72656164792070617573658152603960f91b60208201529150612d97565b602080825281016108b181613811565b80612477565b61190160f01b8152600201600061387c828561385f565b60208201915061388c828461385f565b5060200192915050565b601c81526000602082017f42696c6c696e673a20656d7074792062696c6c207061796c6f6164730000000081529150612ddc565b602080825281016108b181613896565b634e487b7160e01b600052603260045260246000fd5b602181526000602082017f42696c6c696e673a20656d7074792062696c6c207061796c6f616420656e74728152607960f81b60208201529150612d97565b602080825281016108b1816138f0565b6060810161394c8286612500565b6134b56020830185612475565b60006020828403121561396e5761396e600080fd5b60006108808484612f7c565b600060001982141561398e5761398e613737565b5060010190565b6015815260006020820174109a5b1b1a5b99ce881a5b9d985b1a5908189a5b1b605a1b81529150612ddc565b602080825281016108b181613995565b602a81526000602082017f5361666545524332303a204552433230206f7065726174696f6e20646964206e8152691bdd081cdd58d8d9595960b21b60208201529150612d97565b602080825281016108b1816139d1565b60a08101613a368288612475565b613a436020830187612475565b613a506040830186612475565b613a5d6060830185612475565b61329b60808301846128b4565b634e487b7160e01b600052601260045260246000fd5b600082613a8f57613a8f613a6a565b500490565b601d81526000602082017f416464726573733a2063616c6c20746f206e6f6e2d636f6e747261637400000081529150612ddc565b602080825281016108b181613a94565b6000613ae2825190565b613af0818560208601612c9a565b9290920192915050565b6000610d958284613ad856fea2646970667358221220caba177cbbf32c479e9a7dd9621b2c512c3f0f42f0eac83e5c838c14ea8f3d0d64736f6c63430008090033",
  "devdoc": {
    "author": "Alexandas",
    "details": "FundWallet contract",
    "kind": "dev",
    "methods": {
      "addPauser(address)": {
        "details": "add a pauser for the contract",
        "params": {
          "account": "address"
        }
      },
      "balanceOf(address,bytes32)": {
        "details": "return balance of account",
        "params": {
          "account": "user account",
          "provider": "provider address"
        },
        "returns": {
          "_0": "balance of account account"
        }
      },
      "billHash(address,uint64,bytes32,bytes)": {
        "details": "return hash for bill",
        "params": {
          "account": "user account",
          "bill": "user bill",
          "nonce": "nonce",
          "provider": "provider address"
        },
        "returns": {
          "_0": "bill hash"
        }
      },
      "decodeBill(bytes)": {
        "details": "decode bill bytes to user bill",
        "params": {
          "data": "bill bytes"
        },
        "returns": {
          "_0": "user bill"
        }
      },
      "encodeBill((uint256,(uint256,(uint8,uint256)[])[]))": {
        "details": "encode bill to bytes",
        "params": {
          "bill": "user bill"
        },
        "returns": {
          "_0": "bill bytes"
        }
      },
      "hashTypedDataV4ForBill(address,uint64,bytes32,bytes)": {
        "details": "return hash typed v4 for sign",
        "params": {
          "account": "user account",
          "bill": "user bill",
          "nonce": "nonce",
          "provider": "provider address"
        },
        "returns": {
          "_0": "bill hash typed v4"
        }
      },
      "hashTypedDataV4ForRecharge(address,uint64,bytes32,uint256)": {
        "details": "return recharge hash typed v4",
        "params": {
          "account": "user account",
          "amount": "token amount",
          "nonce": "nonce",
          "provider": "provider address"
        },
        "returns": {
          "_0": "recharge hash typed v4"
        }
      },
      "hashTypedDataV4ForWalletOwnerHash(address,bytes32,address)": {
        "details": "return set wallet owner hash typed data v4",
        "params": {
          "account": "user account",
          "owner": "wallet owner",
          "provider": "provider address"
        },
        "returns": {
          "_0": "wallet owner hash typed data v4"
        }
      },
      "initialize(address,address,address,address,address,string,string,string,string,string)": {
        "details": "proxy initialize function",
        "params": {
          "_providers": "providers contract address",
          "_token": "token address",
          "adaptor": "resource adaptor contract address",
          "billTypes": "bill types",
          "name": "EIP712 domain name",
          "owner": "contract owner",
          "pauser": "contract pauser",
          "rechargeTypes": "recharge types",
          "version": "EIP712 domain version"
        }
      },
      "isPauser(address)": {
        "details": "whether the account is the contract pauser",
        "params": {
          "account": "address"
        },
        "returns": {
          "_0": "whether account is a pauser"
        }
      },
      "owner()": {
        "details": "Returns the address of the current owner."
      },
      "ownerOf(address,bytes32)": {
        "details": "return owner of account",
        "params": {
          "account": "user account",
          "provider": "provider address"
        },
        "returns": {
          "_0": "owner wallet owner for account"
        }
      },
      "ownerWithdrawERC20(address,address,uint256)": {
        "details": "withdraw token ",
        "params": {
          "to": "receiver address",
          "token": "token address",
          "value": "token value"
        }
      },
      "ownerWithdrawNative(address,uint256)": {
        "details": "withdraw ETH ",
        "params": {
          "to": "receiver address",
          "value": "token value"
        }
      },
      "pause()": {
        "details": "pause the contract"
      },
      "paused()": {
        "details": "Returns true if the contract is paused, and false otherwise."
      },
      "recharge(address,uint64,bytes32,uint256,bytes)": {
        "details": "recharge for account",
        "params": {
          "account": "user account",
          "amount": "token amount",
          "nonce": "nonce",
          "provider": "provider address",
          "signature": "provider signature"
        }
      },
      "rechargeHash(address,uint64,bytes32,uint256)": {
        "details": "return recharge typed hash",
        "params": {
          "account": "user account",
          "amount": "token amount",
          "nonce": "nonce",
          "provider": "provider address"
        },
        "returns": {
          "_0": "recharge typed hash"
        }
      },
      "removePauser(address)": {
        "details": "remove a pauser for the contract",
        "params": {
          "account": "address"
        }
      },
      "renounceOwnership()": {
        "details": "Leaves the contract without owner. It will not be possible to call `onlyOwner` functions anymore. Can only be called by the current owner. NOTE: Renouncing ownership will leave the contract without an owner, thereby removing any functionality that is only available to the owner."
      },
      "renouncePauser()": {
        "details": "remove a pauser for the contract"
      },
      "setBillTypedHash(string)": {
        "details": "update bill typed hash",
        "params": {
          "types": "bill types"
        }
      },
      "setRechargeTypedHash(string)": {
        "details": "update recharge typed hash",
        "params": {
          "types": "recharge types"
        }
      },
      "setToken(address)": {
        "details": "update token",
        "params": {
          "_token": "token address"
        }
      },
      "setWalletOwner(address,bytes32,address,bytes)": {
        "details": "set wallet owner for account",
        "params": {
          "account": "user account",
          "owner": "wallet owner",
          "provider": "provider address",
          "signature": "provider signature"
        }
      },
      "setWalletOwnerTypedHash(string)": {
        "details": "update recharge typed hash",
        "params": {
          "types": "recharge types"
        }
      },
      "spend(address,uint64,bytes32,bytes,bytes)": {
        "details": "spend bill for account",
        "params": {
          "account": "user account",
          "bill": "bill bytes",
          "fee": "bill fee",
          "nonce": "nonce",
          "provider": "provider address",
          "signature": "provider signature"
        }
      },
      "transferOwnership(address)": {
        "details": "Transfers ownership of the contract to a new account (`newOwner`). Can only be called by the current owner."
      },
      "transferWalletOwner(address,bytes32,address)": {
        "details": "transfer wallet owner for account",
        "params": {
          "account": "user account",
          "newOwner": "new wallet owner for account",
          "provider": "provider address"
        }
      },
      "unpause()": {
        "details": "unpause the contract"
      },
      "walletOwnerHash(address,bytes32,address)": {
        "details": "return set wallet owner typed hash",
        "params": {
          "account": "user account",
          "owner": "wallet owner",
          "provider": "provider address"
        },
        "returns": {
          "_0": "wallet owner typed hash"
        }
      },
      "withdraw(address,uint64,bytes32,address,bytes,bytes)": {
        "details": "withdraw token for account",
        "params": {
          "account": "user account",
          "bill": "bill bytes",
          "nonce": "nonce",
          "provider": "provider address",
          "signature": "provider signature",
          "to": "token receiver"
        },
        "returns": {
          "amount": "token amount"
        }
      }
    },
    "stateVariables": {
      "nonces": {
        "details": "provider nonces for account"
      },
      "rechargeTypedHash": {
        "details": "keccak256(\"Recharge(address provider,uint64 nonce,bytes32 account,uint256 amount)\")"
      },
      "walletOwnerTypedHash": {
        "details": "keccak256(\"WalletOwner(address provider,bytes32 account,address owner)\")"
      },
      "wallets": {
        "details": "account wallet"
      }
    },
    "version": 1
  },
  "userdoc": {
    "kind": "user",
    "methods": {},
    "version": 1
  },
  "storageLayout": {
    "storage": [
      {
        "astId": 147,
        "contract": "contracts/wallets/FundWallet.sol:FundWallet",
        "label": "_initialized",
        "offset": 0,
        "slot": "0",
        "type": "t_bool"
      },
      {
        "astId": 150,
        "contract": "contracts/wallets/FundWallet.sol:FundWallet",
        "label": "_initializing",
        "offset": 1,
        "slot": "0",
        "type": "t_bool"
      },
      {
        "astId": 7072,
        "contract": "contracts/wallets/FundWallet.sol:FundWallet",
        "label": "providers",
        "offset": 2,
        "slot": "0",
        "type": "t_contract(IProviders)4329"
      },
      {
        "astId": 1670,
        "contract": "contracts/wallets/FundWallet.sol:FundWallet",
        "label": "_HASHED_NAME",
        "offset": 0,
        "slot": "1",
        "type": "t_bytes32"
      },
      {
        "astId": 1672,
        "contract": "contracts/wallets/FundWallet.sol:FundWallet",
        "label": "_HASHED_VERSION",
        "offset": 0,
        "slot": "2",
        "type": "t_bytes32"
      },
      {
        "astId": 1810,
        "contract": "contracts/wallets/FundWallet.sol:FundWallet",
        "label": "__gap",
        "offset": 0,
        "slot": "3",
        "type": "t_array(t_uint256)50_storage"
      },
      {
        "astId": 8715,
        "contract": "contracts/wallets/FundWallet.sol:FundWallet",
        "label": "billTypedHash",
        "offset": 0,
        "slot": "53",
        "type": "t_bytes32"
      },
      {
        "astId": 8720,
        "contract": "contracts/wallets/FundWallet.sol:FundWallet",
        "label": "token",
        "offset": 0,
        "slot": "54",
        "type": "t_contract(IERC20Upgradeable)462"
      },
      {
        "astId": 8725,
        "contract": "contracts/wallets/FundWallet.sol:FundWallet",
        "label": "adaptor",
        "offset": 0,
        "slot": "55",
        "type": "t_contract(IResourceAdaptor)8678"
      },
      {
        "astId": 970,
        "contract": "contracts/wallets/FundWallet.sol:FundWallet",
        "label": "__gap",
        "offset": 0,
        "slot": "56",
        "type": "t_array(t_uint256)50_storage"
      },
      {
        "astId": 10,
        "contract": "contracts/wallets/FundWallet.sol:FundWallet",
        "label": "_owner",
        "offset": 0,
        "slot": "106",
        "type": "t_address"
      },
      {
        "astId": 122,
        "contract": "contracts/wallets/FundWallet.sol:FundWallet",
        "label": "__gap",
        "offset": 0,
        "slot": "107",
        "type": "t_array(t_uint256)49_storage"
      },
      {
        "astId": 235,
        "contract": "contracts/wallets/FundWallet.sol:FundWallet",
        "label": "_paused",
        "offset": 0,
        "slot": "156",
        "type": "t_bool"
      },
      {
        "astId": 324,
        "contract": "contracts/wallets/FundWallet.sol:FundWallet",
        "label": "__gap",
        "offset": 0,
        "slot": "157",
        "type": "t_array(t_uint256)49_storage"
      },
      {
        "astId": 3749,
        "contract": "contracts/wallets/FundWallet.sol:FundWallet",
        "label": "pausers",
        "offset": 0,
        "slot": "206",
        "type": "t_mapping(t_address,t_bool)"
      },
      {
        "astId": 339,
        "contract": "contracts/wallets/FundWallet.sol:FundWallet",
        "label": "_status",
        "offset": 0,
        "slot": "207",
        "type": "t_uint256"
      },
      {
        "astId": 383,
        "contract": "contracts/wallets/FundWallet.sol:FundWallet",
        "label": "__gap",
        "offset": 0,
        "slot": "208",
        "type": "t_array(t_uint256)49_storage"
      },
      {
        "astId": 9139,
        "contract": "contracts/wallets/FundWallet.sol:FundWallet",
        "label": "walletOwnerTypedHash",
        "offset": 0,
        "slot": "257",
        "type": "t_bytes32"
      },
      {
        "astId": 9143,
        "contract": "contracts/wallets/FundWallet.sol:FundWallet",
        "label": "rechargeTypedHash",
        "offset": 0,
        "slot": "258",
        "type": "t_bytes32"
      },
      {
        "astId": 9153,
        "contract": "contracts/wallets/FundWallet.sol:FundWallet",
        "label": "nonces",
        "offset": 0,
        "slot": "259",
        "type": "t_mapping(t_address,t_mapping(t_bytes32,t_mapping(t_uint64,t_enum(Purpose)4046)))"
      },
      {
        "astId": 9161,
        "contract": "contracts/wallets/FundWallet.sol:FundWallet",
        "label": "wallets",
        "offset": 0,
        "slot": "260",
        "type": "t_mapping(t_address,t_mapping(t_bytes32,t_struct(Wallet)4051_storage))"
      }
    ],
    "types": {
      "t_address": {
        "encoding": "inplace",
        "label": "address",
        "numberOfBytes": "20"
      },
      "t_array(t_uint256)49_storage": {
        "base": "t_uint256",
        "encoding": "inplace",
        "label": "uint256[49]",
        "numberOfBytes": "1568"
      },
      "t_array(t_uint256)50_storage": {
        "base": "t_uint256",
        "encoding": "inplace",
        "label": "uint256[50]",
        "numberOfBytes": "1600"
      },
      "t_bool": {
        "encoding": "inplace",
        "label": "bool",
        "numberOfBytes": "1"
      },
      "t_bytes32": {
        "encoding": "inplace",
        "label": "bytes32",
        "numberOfBytes": "32"
      },
      "t_contract(IERC20Upgradeable)462": {
        "encoding": "inplace",
        "label": "contract IERC20Upgradeable",
        "numberOfBytes": "20"
      },
      "t_contract(IProviders)4329": {
        "encoding": "inplace",
        "label": "contract IProviders",
        "numberOfBytes": "20"
      },
      "t_contract(IResourceAdaptor)8678": {
        "encoding": "inplace",
        "label": "contract IResourceAdaptor",
        "numberOfBytes": "20"
      },
      "t_enum(Purpose)4046": {
        "encoding": "inplace",
        "label": "enum IFundWallet.Purpose",
        "numberOfBytes": "1"
      },
      "t_mapping(t_address,t_bool)": {
        "encoding": "mapping",
        "key": "t_address",
        "label": "mapping(address => bool)",
        "numberOfBytes": "32",
        "value": "t_bool"
      },
      "t_mapping(t_address,t_mapping(t_bytes32,t_mapping(t_uint64,t_enum(Purpose)4046)))": {
        "encoding": "mapping",
        "key": "t_address",
        "label": "mapping(address => mapping(bytes32 => mapping(uint64 => enum IFundWallet.Purpose)))",
        "numberOfBytes": "32",
        "value": "t_mapping(t_bytes32,t_mapping(t_uint64,t_enum(Purpose)4046))"
      },
      "t_mapping(t_address,t_mapping(t_bytes32,t_struct(Wallet)4051_storage))": {
        "encoding": "mapping",
        "key": "t_address",
        "label": "mapping(address => mapping(bytes32 => struct IFundWallet.Wallet))",
        "numberOfBytes": "32",
        "value": "t_mapping(t_bytes32,t_struct(Wallet)4051_storage)"
      },
      "t_mapping(t_bytes32,t_mapping(t_uint64,t_enum(Purpose)4046))": {
        "encoding": "mapping",
        "key": "t_bytes32",
        "label": "mapping(bytes32 => mapping(uint64 => enum IFundWallet.Purpose))",
        "numberOfBytes": "32",
        "value": "t_mapping(t_uint64,t_enum(Purpose)4046)"
      },
      "t_mapping(t_bytes32,t_struct(Wallet)4051_storage)": {
        "encoding": "mapping",
        "key": "t_bytes32",
        "label": "mapping(bytes32 => struct IFundWallet.Wallet)",
        "numberOfBytes": "32",
        "value": "t_struct(Wallet)4051_storage"
      },
      "t_mapping(t_uint64,t_enum(Purpose)4046)": {
        "encoding": "mapping",
        "key": "t_uint64",
        "label": "mapping(uint64 => enum IFundWallet.Purpose)",
        "numberOfBytes": "32",
        "value": "t_enum(Purpose)4046"
      },
      "t_struct(Wallet)4051_storage": {
        "encoding": "inplace",
        "label": "struct IFundWallet.Wallet",
        "members": [
          {
            "astId": 4048,
            "contract": "contracts/wallets/FundWallet.sol:FundWallet",
            "label": "owner",
            "offset": 0,
            "slot": "0",
            "type": "t_address"
          },
          {
            "astId": 4050,
            "contract": "contracts/wallets/FundWallet.sol:FundWallet",
            "label": "amount",
            "offset": 0,
            "slot": "1",
            "type": "t_uint256"
          }
        ],
        "numberOfBytes": "64"
      },
      "t_uint256": {
        "encoding": "inplace",
        "label": "uint256",
        "numberOfBytes": "32"
      },
      "t_uint64": {
        "encoding": "inplace",
        "label": "uint64",
        "numberOfBytes": "8"
      }
    }
  }
}