{
  "address": "0xDC2d8c176b30aD10e86dDE1BB04194502e2A5214",
  "abi": [
    {
      "inputs": [],
      "stateMutability": "nonpayable",
      "type": "constructor"
    },
    {
      "anonymous": false,
      "inputs": [
        {
          "indexed": false,
          "internalType": "uint8",
          "name": "version",
          "type": "uint8"
        }
      ],
      "name": "Initialized",
      "type": "event"
    },
    {
      "anonymous": false,
      "inputs": [
        {
          "indexed": false,
          "internalType": "address",
          "name": "to",
          "type": "address"
        },
        {
          "indexed": false,
          "internalType": "uint256",
          "name": "value",
          "type": "uint256"
        }
      ],
      "name": "NativeWithdrawal",
      "type": "event"
    },
    {
      "anonymous": false,
      "inputs": [
        {
          "indexed": true,
          "internalType": "address",
          "name": "previousOwner",
          "type": "address"
        },
        {
          "indexed": true,
          "internalType": "address",
          "name": "newOwner",
          "type": "address"
        }
      ],
      "name": "OwnershipTransferred",
      "type": "event"
    },
    {
      "anonymous": false,
      "inputs": [
        {
          "indexed": false,
          "internalType": "address",
          "name": "account",
          "type": "address"
        }
      ],
      "name": "Paused",
      "type": "event"
    },
    {
      "anonymous": false,
      "inputs": [
        {
          "indexed": false,
          "internalType": "address",
          "name": "account",
          "type": "address"
        }
      ],
      "name": "PauserAdded",
      "type": "event"
    },
    {
      "anonymous": false,
      "inputs": [
        {
          "indexed": false,
          "internalType": "address",
          "name": "account",
          "type": "address"
        }
      ],
      "name": "PauserRemoved",
      "type": "event"
    },
    {
      "anonymous": false,
      "inputs": [
        {
          "indexed": false,
          "internalType": "bytes32",
          "name": "hash",
          "type": "bytes32"
        }
      ],
      "name": "RechargeTypesHashUpdated",
      "type": "event"
    },
    {
      "anonymous": false,
      "inputs": [
        {
          "indexed": false,
          "internalType": "address",
          "name": "provider",
          "type": "address"
        },
        {
          "indexed": false,
          "internalType": "bytes32",
          "name": "account",
          "type": "bytes32"
        },
        {
          "indexed": false,
          "internalType": "uint256",
          "name": "amount",
          "type": "uint256"
        }
      ],
      "name": "Recharged",
      "type": "event"
    },
    {
      "anonymous": false,
      "inputs": [
        {
          "indexed": false,
          "internalType": "contract IRouter",
          "name": "router",
          "type": "address"
        }
      ],
      "name": "RouterUpdated",
      "type": "event"
    },
    {
      "anonymous": false,
      "inputs": [
        {
          "indexed": false,
          "internalType": "address",
          "name": "provider",
          "type": "address"
        },
        {
          "indexed": false,
          "internalType": "bytes32",
          "name": "account",
          "type": "bytes32"
        },
        {
          "indexed": false,
          "internalType": "uint256",
          "name": "amount",
          "type": "uint256"
        }
      ],
      "name": "Spent",
      "type": "event"
    },
    {
      "anonymous": false,
      "inputs": [
        {
          "indexed": false,
          "internalType": "address",
          "name": "account",
          "type": "address"
        }
      ],
      "name": "Unpaused",
      "type": "event"
    },
    {
      "anonymous": false,
      "inputs": [
        {
          "indexed": false,
          "internalType": "address",
          "name": "provider",
          "type": "address"
        },
        {
          "indexed": false,
          "internalType": "bytes32",
          "name": "account",
          "type": "bytes32"
        },
        {
          "indexed": false,
          "internalType": "address",
          "name": "newOwner",
          "type": "address"
        }
      ],
      "name": "WalletOwnerTransferred",
      "type": "event"
    },
    {
      "anonymous": false,
      "inputs": [
        {
          "indexed": false,
          "internalType": "contract IERC20Upgradeable",
          "name": "token",
          "type": "address"
        },
        {
          "indexed": false,
          "internalType": "address",
          "name": "to",
          "type": "address"
        },
        {
          "indexed": false,
          "internalType": "uint256",
          "name": "value",
          "type": "uint256"
        }
      ],
      "name": "Withdrawal",
      "type": "event"
    },
    {
      "anonymous": false,
      "inputs": [
        {
          "indexed": false,
          "internalType": "address",
          "name": "provider",
          "type": "address"
        },
        {
          "indexed": false,
          "internalType": "bytes32",
          "name": "account",
          "type": "bytes32"
        },
        {
          "indexed": false,
          "internalType": "address",
          "name": "to",
          "type": "address"
        },
        {
          "indexed": false,
          "internalType": "uint256",
          "name": "amount",
          "type": "uint256"
        }
      ],
      "name": "Withdrawn",
      "type": "event"
    },
    {
      "inputs": [
        {
          "internalType": "address",
          "name": "account",
          "type": "address"
        }
      ],
      "name": "addPauser",
      "outputs": [],
      "stateMutability": "nonpayable",
      "type": "function"
    },
    {
      "inputs": [
        {
          "internalType": "address",
          "name": "provider",
          "type": "address"
        },
        {
          "internalType": "bytes32",
          "name": "account",
          "type": "bytes32"
        }
      ],
      "name": "balanceOf",
      "outputs": [
        {
          "internalType": "uint256",
          "name": "",
          "type": "uint256"
        }
      ],
      "stateMutability": "view",
      "type": "function"
    },
    {
      "inputs": [
        {
          "internalType": "address",
          "name": "provider",
          "type": "address"
        },
        {
          "internalType": "bytes32",
          "name": "account",
          "type": "bytes32"
        },
        {
          "internalType": "uint256",
          "name": "amount",
          "type": "uint256"
        }
      ],
      "name": "hashRechargeTypes",
      "outputs": [
        {
          "internalType": "bytes32",
          "name": "",
          "type": "bytes32"
        }
      ],
      "stateMutability": "view",
      "type": "function"
    },
    {
      "inputs": [
        {
          "internalType": "address",
          "name": "provider",
          "type": "address"
        },
        {
          "internalType": "bytes32",
          "name": "account",
          "type": "bytes32"
        },
        {
          "internalType": "uint256",
          "name": "amount",
          "type": "uint256"
        }
      ],
      "name": "hashTypedDataV4ForRecharge",
      "outputs": [
        {
          "internalType": "bytes32",
          "name": "",
          "type": "bytes32"
        }
      ],
      "stateMutability": "view",
      "type": "function"
    },
    {
      "inputs": [
        {
          "internalType": "address",
          "name": "owner",
          "type": "address"
        },
        {
          "internalType": "address",
          "name": "pauser",
          "type": "address"
        },
        {
          "internalType": "string",
          "name": "name",
          "type": "string"
        },
        {
          "internalType": "string",
          "name": "version",
          "type": "string"
        },
        {
          "internalType": "string",
          "name": "rechargeTypes",
          "type": "string"
        },
        {
          "internalType": "contract IRouter",
          "name": "router",
          "type": "address"
        }
      ],
      "name": "initialize",
      "outputs": [],
      "stateMutability": "nonpayable",
      "type": "function"
    },
    {
      "inputs": [
        {
          "internalType": "address",
          "name": "account",
          "type": "address"
        }
      ],
      "name": "isPauser",
      "outputs": [
        {
          "internalType": "bool",
          "name": "",
          "type": "bool"
        }
      ],
      "stateMutability": "view",
      "type": "function"
    },
    {
      "inputs": [],
      "name": "owner",
      "outputs": [
        {
          "internalType": "address",
          "name": "",
          "type": "address"
        }
      ],
      "stateMutability": "view",
      "type": "function"
    },
    {
      "inputs": [
        {
          "internalType": "contract IERC20Upgradeable",
          "name": "token",
          "type": "address"
        },
        {
          "internalType": "address",
          "name": "to",
          "type": "address"
        },
        {
          "internalType": "uint256",
          "name": "value",
          "type": "uint256"
        }
      ],
      "name": "ownerWithdrawERC20",
      "outputs": [],
      "stateMutability": "nonpayable",
      "type": "function"
    },
    {
      "inputs": [
        {
          "internalType": "address payable",
          "name": "to",
          "type": "address"
        },
        {
          "internalType": "uint256",
          "name": "value",
          "type": "uint256"
        }
      ],
      "name": "ownerWithdrawNative",
      "outputs": [],
      "stateMutability": "nonpayable",
      "type": "function"
    },
    {
      "inputs": [],
      "name": "pause",
      "outputs": [],
      "stateMutability": "nonpayable",
      "type": "function"
    },
    {
      "inputs": [],
      "name": "paused",
      "outputs": [
        {
          "internalType": "bool",
          "name": "",
          "type": "bool"
        }
      ],
      "stateMutability": "view",
      "type": "function"
    },
    {
      "inputs": [
        {
          "internalType": "address",
          "name": "",
          "type": "address"
        }
      ],
      "name": "pausers",
      "outputs": [
        {
          "internalType": "bool",
          "name": "",
          "type": "bool"
        }
      ],
      "stateMutability": "view",
      "type": "function"
    },
    {
      "inputs": [
        {
          "internalType": "address",
          "name": "provider",
          "type": "address"
        },
        {
          "internalType": "bytes32",
          "name": "account",
          "type": "bytes32"
        },
        {
          "internalType": "uint256",
          "name": "amount",
          "type": "uint256"
        },
        {
          "internalType": "bytes",
          "name": "signature",
          "type": "bytes"
        }
      ],
      "name": "recharge",
      "outputs": [],
      "stateMutability": "nonpayable",
      "type": "function"
    },
    {
      "inputs": [],
      "name": "rechargeTypesHash",
      "outputs": [
        {
          "internalType": "bytes32",
          "name": "",
          "type": "bytes32"
        }
      ],
      "stateMutability": "view",
      "type": "function"
    },
    {
      "inputs": [
        {
          "internalType": "address",
          "name": "account",
          "type": "address"
        }
      ],
      "name": "removePauser",
      "outputs": [],
      "stateMutability": "nonpayable",
      "type": "function"
    },
    {
      "inputs": [],
      "name": "renounceOwnership",
      "outputs": [],
      "stateMutability": "nonpayable",
      "type": "function"
    },
    {
      "inputs": [],
      "name": "renouncePauser",
      "outputs": [],
      "stateMutability": "nonpayable",
      "type": "function"
    },
    {
      "inputs": [],
      "name": "router",
      "outputs": [
        {
          "internalType": "contract IRouter",
          "name": "",
          "type": "address"
        }
      ],
      "stateMutability": "view",
      "type": "function"
    },
    {
      "inputs": [
        {
          "internalType": "address",
          "name": "provider",
          "type": "address"
        },
        {
          "internalType": "bytes32",
          "name": "account",
          "type": "bytes32"
        },
        {
          "internalType": "bytes",
          "name": "bills",
          "type": "bytes"
        },
        {
          "internalType": "uint256",
          "name": "timeout",
          "type": "uint256"
        },
        {
          "internalType": "uint64",
          "name": "nonce",
          "type": "uint64"
        },
        {
          "internalType": "bytes",
          "name": "signature",
          "type": "bytes"
        }
      ],
      "name": "spend",
      "outputs": [
        {
          "internalType": "uint256",
          "name": "fee",
          "type": "uint256"
        }
      ],
      "stateMutability": "nonpayable",
      "type": "function"
    },
    {
      "inputs": [
        {
          "internalType": "address",
          "name": "newOwner",
          "type": "address"
        }
      ],
      "name": "transferOwnership",
      "outputs": [],
      "stateMutability": "nonpayable",
      "type": "function"
    },
    {
      "inputs": [],
      "name": "unpause",
      "outputs": [],
      "stateMutability": "nonpayable",
      "type": "function"
    },
    {
      "inputs": [
        {
          "internalType": "address",
          "name": "provider",
          "type": "address"
        },
        {
          "internalType": "bytes32",
          "name": "account",
          "type": "bytes32"
        }
      ],
      "name": "walletOf",
      "outputs": [
        {
          "internalType": "address",
          "name": "",
          "type": "address"
        }
      ],
      "stateMutability": "view",
      "type": "function"
    },
    {
      "inputs": [
        {
          "internalType": "address",
          "name": "provider",
          "type": "address"
        },
        {
          "internalType": "bytes32",
          "name": "account",
          "type": "bytes32"
        },
        {
          "internalType": "bytes",
          "name": "bills",
          "type": "bytes"
        },
        {
          "internalType": "uint256",
          "name": "timeout",
          "type": "uint256"
        },
        {
          "internalType": "uint64",
          "name": "nonce",
          "type": "uint64"
        },
        {
          "internalType": "bytes",
          "name": "signature",
          "type": "bytes"
        },
        {
          "internalType": "address",
          "name": "to",
          "type": "address"
        },
        {
          "internalType": "uint256",
          "name": "amount",
          "type": "uint256"
        }
      ],
      "name": "withdraw",
      "outputs": [
        {
          "internalType": "uint256",
          "name": "fee",
          "type": "uint256"
        }
      ],
      "stateMutability": "nonpayable",
      "type": "function"
    }
  ],
  "transactionHash": "0xae6559faddf90066f67b5ac2d31408069e55377bde9e8480bc8d885ea1383e8f",
  "args": [],
  "solcInputHash": "9926f102d15b3215d792aa5bdfb62703",
  "bytecode": "0x60806040523480156200001157600080fd5b5060006200002060016200008e565b9050801562000039576000805461ff0019166101001790555b801562000087576000805461ff00191690556040517f7f26b83ff96e1f2b6a682f133852f6798a09c465da95921460cefb3847402498906200007e9060019062000168565b60405180910390a15b50620001cb565b60008054610100900460ff1615620000f7578160ff166001148015620000c75750620000c5306200013b60201b620010eb1760201c565b155b620000ef5760405162461bcd60e51b8152600401620000e69062000178565b60405180910390fd5b506000919050565b60005460ff808416911610620001215760405162461bcd60e51b8152600401620000e69062000178565b506000805460ff191660ff92909216919091179055600190565b6001600160a01b03163b151590565b600060ff82165b92915050565b62000162816200014a565b82525050565b6020810162000151828462000157565b602080825281016200015181602e81527f496e697469616c697a61626c653a20636f6e747261637420697320616c72656160208201526d191e481a5b9a5d1a585b1a5e995960921b604082015260600190565b612bf380620001db6000396000f3fe608060405234801561001057600080fd5b506004361061014d5760003560e01c80636ef8d66d116100c35780638da5cb5b1161007c5780638da5cb5b1461029957806393563a95146102aa578063cf5f1d0e146102bd578063d0a8ee94146102d0578063f2fde38b146102e3578063f887ea40146102f657600080fd5b80636ef8d66d1461022b578063715018a61461023357806372d9e80e1461023b57806380f51c121461025b57806382dc1ec41461027e5780638456cb591461029157600080fd5b8063467974cb11610115578063467974cb146101b457806346fbf68e146101c75780634d30b6be146101e75780635c975abb146101fa578063699256f4146102055780636b2c0f551461021857600080fd5b806317a6020b146101525780632e28a0431461017b5780633ddb5d6d146101845780633f4ba83a1461019957806345237f1c146101a1575b600080fd5b610165610160366004611c93565b610316565b6040516101729190611d5b565b60405180910390f35b61016560ff5481565b610197610192366004611d69565b6104cd565b005b61019761079f565b6101976101af366004611e07565b6107ce565b6101656101c2366004611ed5565b610874565b6101da6101d5366004611f25565b6108af565b6040516101729190611f4e565b6101656101f5366004611f5c565b6108cd565b60655460ff166101da565b610197610213366004611f5c565b610a10565b610197610226366004611f25565b610abe565b610197610af4565b610197610afd565b61024e610249366004611f5c565b610b31565b6040516101729190611fa2565b6101da610269366004611f25565b60976020526000908152604090205460ff1681565b61019761028c366004611f25565b610c2b565b610197610c5e565b6033546001600160a01b031661024e565b6101976102b8366004611fb0565b610c8b565b6101656102cb366004611fe5565b610cfc565b6101656102de366004611ed5565b611075565b6101976102f1366004611f25565b611092565b60fe54610309906001600160a01b031681565b60405161017291906120e2565b600061032460655460ff1690565b1561034a5760405162461bcd60e51b81526004016103419061211a565b60405180910390fd5b6002609854141561036d5760405162461bcd60e51b81526004016103419061215e565b600260985584516103905760405162461bcd60e51b8152600401610341906121a2565b60fe60009054906101000a90046001600160a01b03166001600160a01b031663a1c841ca6040518163ffffffff1660e01b815260040160206040518083038186803b1580156103de57600080fd5b505afa1580156103f2573d6000803e3d6000fd5b505050506040513d601f19601f8201168201806040525081019061041691906121bd565b6001600160a01b0316632d52976488886040518363ffffffff1660e01b81526004016104439291906121de565b60206040518083038186803b15801561045b57600080fd5b505afa15801561046f573d6000803e3d6000fd5b505050506040513d601f19601f82011682018060405250810190610493919061220c565b6104af5760405162461bcd60e51b815260040161034190612261565b6104bd8787878787876110fa565b6001609855979650505050505050565b60655460ff16156104f05760405162461bcd60e51b81526004016103419061211a565b600260985414156105135760405162461bcd60e51b81526004016103419061215e565b6002609855816105355760405162461bcd60e51b81526004016103419061229d565b60fe54604080516350e420e560e11b815290516000926001600160a01b03169163a1c841ca916004808301926020929190829003018186803b15801561057a57600080fd5b505afa15801561058e573d6000803e3d6000fd5b505050506040513d601f19601f820116820180604052508101906105b291906121bd565b6001600160a01b03166372d9e80e86866040518363ffffffff1660e01b81526004016105df9291906121de565b60206040518083038186803b1580156105f757600080fd5b505afa15801561060b573d6000803e3d6000fd5b505050506040513d601f19601f8201168201806040525081019061062f91906122b8565b6001600160a01b031614156106565760405162461bcd60e51b81526004016103419061230d565b6000610663858585611075565b905060fe60009054906101000a90046001600160a01b03166001600160a01b031663a5a3f6c86040518163ffffffff1660e01b815260040160206040518083038186803b1580156106b357600080fd5b505afa1580156106c7573d6000803e3d6000fd5b505050506040513d601f19601f820116820180604052508101906106eb91906121bd565b6001600160a01b031663238a4d1e8683856040518463ffffffff1660e01b815260040161071a9392919061237b565b602060405180830381600087803b15801561073457600080fd5b505af1158015610748573d6000803e3d6000fd5b505050506040513d601f19601f8201168201806040525081019061076c919061220c565b6107885760405162461bcd60e51b8152600401610341906123e5565b61079385858561131a565b50506001609855505050565b6107a8336108af565b6107c45760405162461bcd60e51b815260040161034190612427565b6107cc611431565b565b60006107da6001611497565b905080156107f2576000805461ff0019166101001790555b6107fb87611524565b61080486611576565b61080e858561159d565b610817836115d2565b61082082611609565b801561086b576000805461ff00191690556040517f7f26b83ff96e1f2b6a682f133852f6798a09c465da95921460cefb3847402498906108629060019061244b565b60405180910390a15b50505050505050565b600060ff5484848460405160200161088f9493929190612459565b6040516020818303038152906040528051906020012090505b9392505050565b6001600160a01b031660009081526097602052604090205460ff1690565b60fe54604080516350e420e560e11b815290516000926001600160a01b03169163a1c841ca916004808301926020929190829003018186803b15801561091257600080fd5b505afa158015610926573d6000803e3d6000fd5b505050506040513d601f19601f8201168201806040525081019061094a91906121bd565b6001600160a01b0316632d52976484846040518363ffffffff1660e01b81526004016109779291906121de565b60206040518083038186803b15801561098f57600080fd5b505afa1580156109a3573d6000803e3d6000fd5b505050506040513d601f19601f820116820180604052508101906109c7919061220c565b6109e35760405162461bcd60e51b8152600401610341906124c2565b506001600160a01b0382166000908152610100602090815260408083208484529091529020545b92915050565b6033546001600160a01b03163314610a3a5760405162461bcd60e51b815260040161034190612504565b6040516000906001600160a01b0384169083156108fc0290849084818181858888f19350505050905080610a805760405162461bcd60e51b815260040161034190612563565b7f2c876ecb97b3c6854f2488d373403f903eacb800e51c159a5c0c7a9c857e48278383604051610ab1929190612573565b60405180910390a1505050565b6033546001600160a01b03163314610ae85760405162461bcd60e51b815260040161034190612504565b610af181611639565b50565b6107cc33611639565b6033546001600160a01b03163314610b275760405162461bcd60e51b815260040161034190612504565b6107cc6000611524565b60fe54604080516350e420e560e11b815290516000926001600160a01b03169163a1c841ca916004808301926020929190829003018186803b158015610b7657600080fd5b505afa158015610b8a573d6000803e3d6000fd5b505050506040513d601f19601f82011682018060405250810190610bae91906121bd565b6001600160a01b03166372d9e80e84846040518363ffffffff1660e01b8152600401610bdb9291906121de565b60206040518083038186803b158015610bf357600080fd5b505afa158015610c07573d6000803e3d6000fd5b505050506040513d601f19601f820116820180604052508101906108a891906122b8565b6033546001600160a01b03163314610c555760405162461bcd60e51b815260040161034190612504565b610af1816116b9565b610c67336108af565b610c835760405162461bcd60e51b815260040161034190612427565b6107cc611732565b6033546001600160a01b03163314610cb55760405162461bcd60e51b815260040161034190612504565b610cc96001600160a01b038416838361178a565b7f2717ead6b9200dd235aad468c9809ea400fe33ac69b5bfaa6d3e90fc922b6398838383604051610ab193929190612581565b6000610d0a60655460ff1690565b15610d275760405162461bcd60e51b81526004016103419061211a565b60026098541415610d4a5760405162461bcd60e51b81526004016103419061215e565b600260985560fe54604080516350e420e560e11b815290516000926001600160a01b03169163a1c841ca916004808301926020929190829003018186803b158015610d9457600080fd5b505afa158015610da8573d6000803e3d6000fd5b505050506040513d601f19601f82011682018060405250810190610dcc91906121bd565b60405163396cf40760e11b815290915033906001600160a01b038316906372d9e80e90610dff908e908e906004016121de565b60206040518083038186803b158015610e1757600080fd5b505afa158015610e2b573d6000803e3d6000fd5b505050506040513d601f19601f82011682018060405250810190610e4f91906122b8565b6001600160a01b031614610e755760405162461bcd60e51b8152600401610341906125f8565b604051630b54a5d960e21b81526001600160a01b03821690632d52976490610ea3908d908d906004016121de565b60206040518083038186803b158015610ebb57600080fd5b505afa158015610ecf573d6000803e3d6000fd5b505050506040513d601f19601f82011682018060405250810190610ef3919061220c565b610f0f5760405162461bcd60e51b815260040161034190612261565b610f1d8a8a8a8a8a8a6110fa565b915082610f2a8b8b6108cd565b1015610f485760405162461bcd60e51b815260040161034190612652565b6001600160a01b038a166000908152610100602090815260408083208c8452909152902054610f7790846117e5565b6001600160a01b03808c166000908152610100602090815260408083208e84528252918290209390935560fe548151636120933b60e11b81529151611026948994899493169263c24126769260048083019392829003018186803b158015610fde57600080fd5b505afa158015610ff2573d6000803e3d6000fd5b505050506040513d601f19601f8201168201806040525081019061101691906121bd565b6001600160a01b0316919061178a565b7f1b0a089ddd8413135f08a33d7e2918568fc526e7725ad4d10b1f0e38e202e43f8a8a868660405161105b9493929190612662565b60405180910390a150600160985598975050505050505050565b600061108a611085858585610874565b6117f1565b949350505050565b6033546001600160a01b031633146110bc5760405162461bcd60e51b815260040161034190612504565b6001600160a01b0381166110e25760405162461bcd60e51b8152600401610341906126cd565b610af181611524565b6001600160a01b03163b151590565b8351600090156112d55760fe546040805163e20ce6eb60e01b815290516000926001600160a01b03169163e20ce6eb916004808301926020929190829003018186803b15801561114957600080fd5b505afa15801561115d573d6000803e3d6000fd5b505050506040513d601f19601f8201168201806040525081019061118191906121bd565b6040516317a6020b60e01b81529091506001600160a01b038216906317a6020b906111ba908b908b908b908b908b908b906004016126ed565b602060405180830381600087803b1580156111d457600080fd5b505af11580156111e8573d6000803e3d6000fd5b505050506040513d601f19601f8201168201806040525081019061120c919061275f565b9150600061121a89896108cd565b90508281101561123c5760405162461bcd60e51b8152600401610341906127cb565b6001600160a01b0389166000908152610100602090815260408083208b845290915290205461126b90846117e5565b6001600160a01b03808b166000908152610100602090815260408083208d84528252918290209390935560fe548151636120933b60e11b815291516112d2948794899493169263c24126769260048083019392829003018186803b158015610fde57600080fd5b50505b7fde367c913aaac6425f1138a69a4532650f465e49bda8eb976383904cb3d413e0878783604051611308939291906127db565b60405180910390a19695505050505050565b6001600160a01b0383166000908152610100602090815260408083208584529091529020546113499082611804565b6001600160a01b038085166000908152610100602090815260408083208784528252918290209390935560fe548151636120933b60e11b815291516113fe943394309488949091169263c241267692600480840193919291829003018186803b1580156113b557600080fd5b505afa1580156113c9573d6000803e3d6000fd5b505050506040513d601f19601f820116820180604052508101906113ed91906121bd565b6001600160a01b0316929190611810565b7fbb749947730256b87847d720594722a899da4c323db1ce06aa30fb53cf56edf6838383604051610ab1939291906127db565b60655460ff166114535760405162461bcd60e51b815260040161034190612821565b6065805460ff191690557f5db9ee0a495bf2e6ff9c91a7834c1ba4fdd244a5e8aa4e537bd38aeae4b073aa335b60405161148d9190611fa2565b60405180910390a1565b60008054610100900460ff16156114de578160ff1660011480156114ba5750303b155b6114d65760405162461bcd60e51b81526004016103419061287c565b506000919050565b60005460ff8084169116106115055760405162461bcd60e51b81526004016103419061287c565b506000805460ff191660ff92909216919091179055600190565b919050565b603380546001600160a01b038381166001600160a01b0319831681179093556040519116919082907f8be0079c531659141344cd1fd0a4f28419497f9722a3daafe3b4186f6b6457e090600090a35050565b600054610100900460ff16610c555760405162461bcd60e51b8152600401610341906128d4565b600054610100900460ff166115c45760405162461bcd60e51b8152600401610341906128d4565b6115ce8282611837565b5050565b600054610100900460ff166115f95760405162461bcd60e51b8152600401610341906128d4565b610af18180519060200120611878565b600054610100900460ff166116305760405162461bcd60e51b8152600401610341906128d4565b610af1816118ad565b611642816108af565b61165e5760405162461bcd60e51b815260040161034190612918565b6001600160a01b03811660009081526097602052604090819020805460ff19169055517fcd265ebaf09df2871cc7bd4133404a235ba12eff2041bb89d9c714a2621c7c7e906116ae908390611fa2565b60405180910390a150565b6116c2816108af565b156116df5760405162461bcd60e51b815260040161034190612966565b6001600160a01b03811660009081526097602052604090819020805460ff19166001179055517f6719d08c1888103bea251a4ed56406bd0c3e69723c8a1686e017e7bbe159b6f8906116ae908390611fa2565b60655460ff16156117555760405162461bcd60e51b81526004016103419061211a565b6065805460ff191660011790557f62e78cea01bee320cd4e420270b5ea74000d11b0c9f74754ebdbfc544b05a2586114803390565b6117e08363a9059cbb60e01b84846040516024016117a99291906121de565b60408051601f198184030181529190526020810180516001600160e01b03166001600160e01b03199093169290921790915261191e565b505050565b60006108a8828461298c565b6000610a0a6117fe6119ad565b836119e9565b60006108a882846129a3565b611831846323b872dd60e01b8585856040516024016117a9939291906129bb565b50505050565b600054610100900460ff1661185e5760405162461bcd60e51b8152600401610341906128d4565b81516020928301208151919092012060ca9190915560cb55565b60ff8190556040517ff4d9351b3d6fd518e57c84560488655acc103f43a6a9a6ef43852a8378f04153906116ae908390611d5b565b6001600160a01b0381166118d35760405162461bcd60e51b8152600401610341906129fd565b60fe80546001600160a01b0319166001600160a01b0383161790556040517f7aed1d3e8155a07ccf395e44ea3109a0e2d6c9b29bbbe9f142d9790596f4dc80906116ae9083906120e2565b6000611973826040518060400160405280602081526020017f5361666545524332303a206c6f772d6c6576656c2063616c6c206661696c6564815250856001600160a01b0316611a1c9092919063ffffffff16565b8051909150156117e05780806020019051810190611991919061220c565b6117e05760405162461bcd60e51b815260040161034190612a54565b60006119e47f8b73c3c69bb8fe3d512ecc4cf759cc79239f7b179b0ffacaa9a75d522b39400f6119dc60ca5490565b60cb54611a2b565b905090565b600082826040516020016119fe929190612a6a565b60405160208183030381529060405280519060200120905092915050565b606061108a8484600085611a46565b6000838383463060405160200161088f959493929190612a9b565b606082471015611a685760405162461bcd60e51b815260040161034190612b2a565b6001600160a01b0385163b611a8f5760405162461bcd60e51b815260040161034190612b6e565b600080866001600160a01b03168587604051611aab9190612ba0565b60006040518083038185875af1925050503d8060008114611ae8576040519150601f19603f3d011682016040523d82523d6000602084013e611aed565b606091505b5091509150611afd828286611b08565b979650505050505050565b60608315611b175750816108a8565b825115611b275782518084602001fd5b8160405162461bcd60e51b81526004016103419190612bac565b60006001600160a01b038216610a0a565b611b5b81611b41565b8114610af157600080fd5b8035610a0a81611b52565b80611b5b565b8035610a0a81611b71565b634e487b7160e01b600052604160045260246000fd5b601f19601f830116810181811067ffffffffffffffff82111715611bbe57611bbe611b82565b6040525050565b6000611bd060405190565b905061151f8282611b98565b600067ffffffffffffffff821115611bf657611bf6611b82565b601f19601f83011660200192915050565b82818337506000910152565b6000611c26611c2184611bdc565b611bc5565b905082815260208101848484011115611c4157611c41600080fd5b611c4c848285611c07565b509392505050565b600082601f830112611c6857611c68600080fd5b813561108a848260208601611c13565b67ffffffffffffffff8116611b5b565b8035610a0a81611c78565b60008060008060008060c08789031215611caf57611caf600080fd5b6000611cbb8989611b66565b9650506020611ccc89828a01611b77565b955050604087013567ffffffffffffffff811115611cec57611cec600080fd5b611cf889828a01611c54565b9450506060611d0989828a01611b77565b9350506080611d1a89828a01611c88565b92505060a087013567ffffffffffffffff811115611d3a57611d3a600080fd5b611d4689828a01611c54565b9150509295509295509295565b805b82525050565b60208101610a0a8284611d53565b60008060008060808587031215611d8257611d82600080fd5b6000611d8e8787611b66565b9450506020611d9f87828801611b77565b9350506040611db087828801611b77565b925050606085013567ffffffffffffffff811115611dd057611dd0600080fd5b611ddc87828801611c54565b91505092959194509250565b6000610a0a82611b41565b611b5b81611de8565b8035610a0a81611df3565b60008060008060008060c08789031215611e2357611e23600080fd5b6000611e2f8989611b66565b9650506020611e4089828a01611b66565b955050604087013567ffffffffffffffff811115611e6057611e60600080fd5b611e6c89828a01611c54565b945050606087013567ffffffffffffffff811115611e8c57611e8c600080fd5b611e9889828a01611c54565b935050608087013567ffffffffffffffff811115611eb857611eb8600080fd5b611ec489828a01611c54565b92505060a0611d4689828a01611dfc565b600080600060608486031215611eed57611eed600080fd5b6000611ef98686611b66565b9350506020611f0a86828701611b77565b9250506040611f1b86828701611b77565b9150509250925092565b600060208284031215611f3a57611f3a600080fd5b600061108a8484611b66565b801515611d55565b60208101610a0a8284611f46565b60008060408385031215611f7257611f72600080fd5b6000611f7e8585611b66565b9250506020611f8f85828601611b77565b9150509250929050565b611d5581611b41565b60208101610a0a8284611f99565b600080600060608486031215611fc857611fc8600080fd5b6000611fd48686611dfc565b9350506020611f0a86828701611b66565b600080600080600080600080610100898b03121561200557612005600080fd5b60006120118b8b611b66565b98505060206120228b828c01611b77565b975050604089013567ffffffffffffffff81111561204257612042600080fd5b61204e8b828c01611c54565b965050606061205f8b828c01611b77565b95505060806120708b828c01611c88565b94505060a089013567ffffffffffffffff81111561209057612090600080fd5b61209c8b828c01611c54565b93505060c06120ad8b828c01611b66565b92505060e06120be8b828c01611b77565b9150509295985092959890939650565b6000610a0a82611de8565b611d55816120ce565b60208101610a0a82846120d9565b601081526000602082016f14185d5cd8589b194e881c185d5cd95960821b815291505b5060200190565b60208082528101610a0a816120f0565b601f81526000602082017f5265656e7472616e637947756172643a207265656e7472616e742063616c6c0081529150612113565b60208082528101610a0a8161212a565b601781526000602082017f46756e64506f6f6c3a20696e76616c69642062696c6c7300000000000000000081529150612113565b60208082528101610a0a8161216e565b8051610a0a81611df3565b6000602082840312156121d2576121d2600080fd5b600061108a84846121b2565b604081016121ec8285611f99565b6108a86020830184611d53565b801515611b5b565b8051610a0a816121f9565b60006020828403121561222157612221600080fd5b600061108a8484612201565b601d81526000602082017f46756e64506f6f6c3a206e6f6e6578697374656e74206163636f756e7400000081529150612113565b60208082528101610a0a8161222d565b6015815260006020820174119d5b99141bdbdb0e881e995c9bc8185b5bdd5b9d605a1b81529150612113565b60208082528101610a0a81612271565b8051610a0a81611b52565b6000602082840312156122cd576122cd600080fd5b600061108a84846122ad565b601c81526000602082017f46756e64506f6f6c3a206e6f6e6578697374656e742077616c6c65740000000081529150612113565b60208082528101610a0a816122d9565b60005b83811015612338578181015183820152602001612320565b838111156118315750506000910152565b6000612353825190565b80845260208401935061236a81856020860161231d565b601f01601f19169290920192915050565b606081016123898286611f99565b6123966020830185611d53565b81810360408301526123a88184612349565b95945050505050565b601b81526000602082017f46756e64506f6f6c3a20696e76616c6964207369676e6174757265000000000081529150612113565b60208082528101610a0a816123b1565b60208082527f5061757365723a2063616c6c6572206973206e6f74207468652070617573657291019081526000612113565b60208082528101610a0a816123f5565b600060ff8216610a0a565b611d5581612437565b60208101610a0a8284612442565b608081016124678287611d53565b6124746020830186611f99565b6124816040830185611d53565b6123a86060830184611d53565b601e81526000602082017f46756e64506f6f6c3a206e6f6e6578697374656e742070726f7669646572000081529150612113565b60208082528101610a0a8161248e565b60208082527f4f776e61626c653a2063616c6c6572206973206e6f7420746865206f776e657291019081526000612113565b60208082528101610a0a816124d2565b602f81526000602082017f4f776e6572576974686472617761626c653a207769746864726177206e61746981526e1d99481d1bdad95b8819985a5b1959608a1b602082015291505b5060400190565b60208082528101610a0a81612514565b604081016121ec82856120d9565b6060810161258f82866120d9565b61259c6020830185611f99565b61108a6040830184611d53565b603281526000602082017f46756e64506f6f6c3a2063616c6c6572206973206e6f74207468652077616c6c815271195d08199bdc881d1a19481858d8dbdd5b9d60721b6020820152915061255c565b60208082528101610a0a816125a9565b602d81526000602082017f46756e64506f6f6c3a20696e73756666696369656e742062616c616e6365206681526c1bdc881dda5d1a191c985dd85b609a1b6020820152915061255c565b60208082528101610a0a81612608565b608081016126708287611f99565b61267d6020830186611d53565b6124816040830185611f99565b602681526000602082017f4f776e61626c653a206e6577206f776e657220697320746865207a65726f206181526564647265737360d01b6020820152915061255c565b60208082528101610a0a8161268a565b67ffffffffffffffff8116611d55565b60c081016126fb8289611f99565b6127086020830188611d53565b818103604083015261271a8187612349565b90506127296060830186611d53565b61273660808301856126dd565b81810360a08301526127488184612349565b98975050505050505050565b8051610a0a81611b71565b60006020828403121561277457612774600080fd5b600061108a8484612754565b602e81526000602082017f46756e64506f6f6c3a20696e73756666696369656e742062616c616e6365206681526d6f722062696c6c696e672066656560901b6020820152915061255c565b60208082528101610a0a81612780565b606081016127e98286611f99565b61259c6020830185611d53565b601481526000602082017314185d5cd8589b194e881b9bdd081c185d5cd95960621b81529150612113565b60208082528101610a0a816127f6565b602e81526000602082017f496e697469616c697a61626c653a20636f6e747261637420697320616c72656181526d191e481a5b9a5d1a585b1a5e995960921b6020820152915061255c565b60208082528101610a0a81612831565b602b81526000602082017f496e697469616c697a61626c653a20636f6e7472616374206973206e6f74206981526a6e697469616c697a696e6760a81b6020820152915061255c565b60208082528101610a0a8161288c565b601d81526000602082017f5061757365723a206163636f756e74206973206e6f742070617573657200000081529150612113565b60208082528101610a0a816128e4565b602181526000602082017f5061757365723a206163636f756e7420697320616c72656164792070617573658152603960f91b6020820152915061255c565b60208082528101610a0a81612928565b634e487b7160e01b600052601160045260246000fd5b60008282101561299e5761299e612976565b500390565b600082198211156129b6576129b6612976565b500190565b6060810161258f8286611f99565b601b81526000602082017f526f75746572577261707065723a207a65726f2061646472657373000000000081529150612113565b60208082528101610a0a816129c9565b602a81526000602082017f5361666545524332303a204552433230206f7065726174696f6e20646964206e8152691bdd081cdd58d8d9595960b21b6020820152915061255c565b60208082528101610a0a81612a0d565b80611d55565b61190160f01b81526002016000612a818285612a64565b602082019150612a918284612a64565b5060200192915050565b60a08101612aa98288611d53565b612ab66020830187611d53565b612ac36040830186611d53565b612ad06060830185611d53565b612add6080830184611f99565b9695505050505050565b602681526000602082017f416464726573733a20696e73756666696369656e742062616c616e636520666f8152651c8818d85b1b60d21b6020820152915061255c565b60208082528101610a0a81612ae7565b601d81526000602082017f416464726573733a2063616c6c20746f206e6f6e2d636f6e747261637400000081529150612113565b60208082528101610a0a81612b3a565b6000612b88825190565b612b9681856020860161231d565b9290920192915050565b60006108a88284612b7e565b602080825281016108a8818461234956fea2646970667358221220e808bcc98ba95035a875d4775c2250000a883aca75ab09ac364a2d4e91bae50064736f6c63430008090033",
  "devdoc": {
    "author": "Alexandas",
    "details": "FundPool contract",
    "kind": "dev",
    "methods": {
      "addPauser(address)": {
        "details": "add a pauser for the contract",
        "params": {
          "account": "address"
        }
      },
      "balanceOf(address,bytes32)": {
        "details": "return balance of account",
        "params": {
          "account": "user account",
          "provider": "provider address"
        },
        "returns": {
          "_0": "balance of account account"
        }
      },
      "hashRechargeTypes(address,bytes32,uint256)": {
        "details": "return recharge types hash",
        "params": {
          "account": "user account",
          "amount": "token amount",
          "provider": "provider address"
        },
        "returns": {
          "_0": "recharge types hash"
        }
      },
      "hashTypedDataV4ForRecharge(address,bytes32,uint256)": {
        "details": "return hash typed data v4 for recharge",
        "params": {
          "account": "user account",
          "amount": "token amount",
          "provider": "provider address"
        },
        "returns": {
          "_0": "recharge hash typed data v4 for recharge"
        }
      },
      "initialize(address,address,string,string,string,address)": {
        "details": "proxy initialize function",
        "params": {
          "name": "EIP712 domain name",
          "owner": "contract owner",
          "pauser": "contract pauser",
          "rechargeTypes": "recharge types",
          "router": "router contract address",
          "version": "EIP712 domain version"
        }
      },
      "isPauser(address)": {
        "details": "whether the account is the contract pauser",
        "params": {
          "account": "address"
        },
        "returns": {
          "_0": "whether account is a pauser"
        }
      },
      "owner()": {
        "details": "Returns the address of the current owner."
      },
      "ownerWithdrawERC20(address,address,uint256)": {
        "details": "withdraw token",
        "params": {
          "to": "receiver address",
          "token": "token address",
          "value": "token value"
        }
      },
      "ownerWithdrawNative(address,uint256)": {
        "details": "withdraw ETH",
        "params": {
          "to": "receiver address",
          "value": "token value"
        }
      },
      "pause()": {
        "details": "pause the contract"
      },
      "paused()": {
        "details": "Returns true if the contract is paused, and false otherwise."
      },
      "recharge(address,bytes32,uint256,bytes)": {
        "details": "recharge for account",
        "params": {
          "account": "user account",
          "amount": "token amount",
          "provider": "provider address",
          "signature": "provider signature"
        }
      },
      "removePauser(address)": {
        "details": "remove a pauser for the contract",
        "params": {
          "account": "address"
        }
      },
      "renounceOwnership()": {
        "details": "Leaves the contract without owner. It will not be possible to call `onlyOwner` functions anymore. Can only be called by the current owner. NOTE: Renouncing ownership will leave the contract without an owner, thereby removing any functionality that is only available to the owner."
      },
      "renouncePauser()": {
        "details": "remove a pauser for the contract"
      },
      "spend(address,bytes32,bytes,uint256,uint64,bytes)": {
        "details": "spend bills for account",
        "params": {
          "account": "user account",
          "bills": "billing data",
          "nonce": "billing nonce",
          "provider": "provider address",
          "signature": "provider signature",
          "timeout": "tx timeout"
        },
        "returns": {
          "fee": "bills fee"
        }
      },
      "transferOwnership(address)": {
        "details": "Transfers ownership of the contract to a new account (`newOwner`). Can only be called by the current owner."
      },
      "unpause()": {
        "details": "unpause the contract"
      },
      "walletOf(address,bytes32)": {
        "details": "return wallet of the account",
        "params": {
          "account": "user account",
          "provider": "provider address"
        },
        "returns": {
          "_0": "wallet of the account"
        }
      },
      "withdraw(address,bytes32,bytes,uint256,uint64,bytes,address,uint256)": {
        "details": "withdraw token for account",
        "params": {
          "account": "user account",
          "amount": "token amount",
          "bills": "billing data",
          "nonce": "billing nonce",
          "provider": "provider address",
          "signature": "provider signature",
          "timeout": "tx timeout",
          "to": "token receiver"
        },
        "returns": {
          "fee": "bill fee"
        }
      }
    },
    "stateVariables": {
      "balances": {
        "details": "account balances"
      },
      "rechargeTypesHash": {
        "details": "keccak256(\"Recharge(address provider,bytes32 account,uint256 amount)\")"
      }
    },
    "version": 1
  },
  "userdoc": {
    "kind": "user",
    "methods": {},
    "version": 1
  },
  "storageLayout": {
    "storage": [
      {
        "astId": 147,
        "contract": "contracts/wallets/FundPool.sol:FundPool",
        "label": "_initialized",
        "offset": 0,
        "slot": "0",
        "type": "t_uint8"
      },
      {
        "astId": 150,
        "contract": "contracts/wallets/FundPool.sol:FundPool",
        "label": "_initializing",
        "offset": 1,
        "slot": "0",
        "type": "t_bool"
      },
      {
        "astId": 1038,
        "contract": "contracts/wallets/FundPool.sol:FundPool",
        "label": "__gap",
        "offset": 0,
        "slot": "1",
        "type": "t_array(t_uint256)50_storage"
      },
      {
        "astId": 10,
        "contract": "contracts/wallets/FundPool.sol:FundPool",
        "label": "_owner",
        "offset": 0,
        "slot": "51",
        "type": "t_address"
      },
      {
        "astId": 122,
        "contract": "contracts/wallets/FundPool.sol:FundPool",
        "label": "__gap",
        "offset": 0,
        "slot": "52",
        "type": "t_array(t_uint256)49_storage"
      },
      {
        "astId": 303,
        "contract": "contracts/wallets/FundPool.sol:FundPool",
        "label": "_paused",
        "offset": 0,
        "slot": "101",
        "type": "t_bool"
      },
      {
        "astId": 392,
        "contract": "contracts/wallets/FundPool.sol:FundPool",
        "label": "__gap",
        "offset": 0,
        "slot": "102",
        "type": "t_array(t_uint256)49_storage"
      },
      {
        "astId": 3817,
        "contract": "contracts/wallets/FundPool.sol:FundPool",
        "label": "pausers",
        "offset": 0,
        "slot": "151",
        "type": "t_mapping(t_address,t_bool)"
      },
      {
        "astId": 407,
        "contract": "contracts/wallets/FundPool.sol:FundPool",
        "label": "_status",
        "offset": 0,
        "slot": "152",
        "type": "t_uint256"
      },
      {
        "astId": 451,
        "contract": "contracts/wallets/FundPool.sol:FundPool",
        "label": "__gap",
        "offset": 0,
        "slot": "153",
        "type": "t_array(t_uint256)49_storage"
      },
      {
        "astId": 1738,
        "contract": "contracts/wallets/FundPool.sol:FundPool",
        "label": "_HASHED_NAME",
        "offset": 0,
        "slot": "202",
        "type": "t_bytes32"
      },
      {
        "astId": 1740,
        "contract": "contracts/wallets/FundPool.sol:FundPool",
        "label": "_HASHED_VERSION",
        "offset": 0,
        "slot": "203",
        "type": "t_bytes32"
      },
      {
        "astId": 1878,
        "contract": "contracts/wallets/FundPool.sol:FundPool",
        "label": "__gap",
        "offset": 0,
        "slot": "204",
        "type": "t_array(t_uint256)50_storage"
      },
      {
        "astId": 5848,
        "contract": "contracts/wallets/FundPool.sol:FundPool",
        "label": "router",
        "offset": 0,
        "slot": "254",
        "type": "t_contract(IRouter)6899"
      },
      {
        "astId": 11814,
        "contract": "contracts/wallets/FundPool.sol:FundPool",
        "label": "rechargeTypesHash",
        "offset": 0,
        "slot": "255",
        "type": "t_bytes32"
      },
      {
        "astId": 11821,
        "contract": "contracts/wallets/FundPool.sol:FundPool",
        "label": "balances",
        "offset": 0,
        "slot": "256",
        "type": "t_mapping(t_address,t_mapping(t_bytes32,t_uint256))"
      }
    ],
    "types": {
      "t_address": {
        "encoding": "inplace",
        "label": "address",
        "numberOfBytes": "20"
      },
      "t_array(t_uint256)49_storage": {
        "base": "t_uint256",
        "encoding": "inplace",
        "label": "uint256[49]",
        "numberOfBytes": "1568"
      },
      "t_array(t_uint256)50_storage": {
        "base": "t_uint256",
        "encoding": "inplace",
        "label": "uint256[50]",
        "numberOfBytes": "1600"
      },
      "t_bool": {
        "encoding": "inplace",
        "label": "bool",
        "numberOfBytes": "1"
      },
      "t_bytes32": {
        "encoding": "inplace",
        "label": "bytes32",
        "numberOfBytes": "32"
      },
      "t_contract(IRouter)6899": {
        "encoding": "inplace",
        "label": "contract IRouter",
        "numberOfBytes": "20"
      },
      "t_mapping(t_address,t_bool)": {
        "encoding": "mapping",
        "key": "t_address",
        "label": "mapping(address => bool)",
        "numberOfBytes": "32",
        "value": "t_bool"
      },
      "t_mapping(t_address,t_mapping(t_bytes32,t_uint256))": {
        "encoding": "mapping",
        "key": "t_address",
        "label": "mapping(address => mapping(bytes32 => uint256))",
        "numberOfBytes": "32",
        "value": "t_mapping(t_bytes32,t_uint256)"
      },
      "t_mapping(t_bytes32,t_uint256)": {
        "encoding": "mapping",
        "key": "t_bytes32",
        "label": "mapping(bytes32 => uint256)",
        "numberOfBytes": "32",
        "value": "t_uint256"
      },
      "t_uint256": {
        "encoding": "inplace",
        "label": "uint256",
        "numberOfBytes": "32"
      },
      "t_uint8": {
        "encoding": "inplace",
        "label": "uint8",
        "numberOfBytes": "1"
      }
    }
  }
}