{
  "address": "0x31b1E81CBeFd7E5aA3abf7F461aAB4AdE54E1560",
  "abi": [
    {
      "inputs": [],
      "stateMutability": "nonpayable",
      "type": "constructor"
    },
    {
      "anonymous": false,
      "inputs": [
        {
          "indexed": false,
          "internalType": "bytes32",
          "name": "hash",
          "type": "bytes32"
        }
      ],
      "name": "BillTypedHashUpdated",
      "type": "event"
    },
    {
      "anonymous": false,
      "inputs": [
        {
          "indexed": false,
          "internalType": "address",
          "name": "provider",
          "type": "address"
        },
        {
          "indexed": false,
          "internalType": "uint64",
          "name": "nonce",
          "type": "uint64"
        },
        {
          "indexed": false,
          "internalType": "bytes32",
          "name": "account",
          "type": "bytes32"
        },
        {
          "indexed": false,
          "internalType": "bytes",
          "name": "bill",
          "type": "bytes"
        },
        {
          "indexed": false,
          "internalType": "uint256",
          "name": "amount",
          "type": "uint256"
        }
      ],
      "name": "Billing",
      "type": "event"
    },
    {
      "anonymous": false,
      "inputs": [
        {
          "indexed": false,
          "internalType": "address",
          "name": "provider",
          "type": "address"
        },
        {
          "indexed": false,
          "internalType": "uint64",
          "name": "nonce",
          "type": "uint64"
        },
        {
          "indexed": false,
          "internalType": "address",
          "name": "owner",
          "type": "address"
        },
        {
          "indexed": false,
          "internalType": "bytes32",
          "name": "account",
          "type": "bytes32"
        },
        {
          "indexed": false,
          "internalType": "uint256",
          "name": "amount",
          "type": "uint256"
        }
      ],
      "name": "Charge",
      "type": "event"
    },
    {
      "anonymous": false,
      "inputs": [
        {
          "indexed": false,
          "internalType": "address",
          "name": "to",
          "type": "address"
        },
        {
          "indexed": false,
          "internalType": "uint256",
          "name": "value",
          "type": "uint256"
        }
      ],
      "name": "NativeWithdrawal",
      "type": "event"
    },
    {
      "anonymous": false,
      "inputs": [
        {
          "indexed": false,
          "internalType": "address",
          "name": "provider",
          "type": "address"
        },
        {
          "indexed": false,
          "internalType": "bytes32",
          "name": "account",
          "type": "bytes32"
        },
        {
          "indexed": false,
          "internalType": "uint64",
          "name": "nonce",
          "type": "uint64"
        },
        {
          "indexed": false,
          "internalType": "enum IFundWallet.Purpose",
          "name": "purpose",
          "type": "uint8"
        }
      ],
      "name": "NonceUpdated",
      "type": "event"
    },
    {
      "anonymous": false,
      "inputs": [
        {
          "indexed": true,
          "internalType": "address",
          "name": "previousOwner",
          "type": "address"
        },
        {
          "indexed": true,
          "internalType": "address",
          "name": "newOwner",
          "type": "address"
        }
      ],
      "name": "OwnershipTransferred",
      "type": "event"
    },
    {
      "anonymous": false,
      "inputs": [
        {
          "indexed": false,
          "internalType": "address",
          "name": "account",
          "type": "address"
        }
      ],
      "name": "Paused",
      "type": "event"
    },
    {
      "anonymous": false,
      "inputs": [
        {
          "indexed": false,
          "internalType": "address",
          "name": "account",
          "type": "address"
        }
      ],
      "name": "PauserAdded",
      "type": "event"
    },
    {
      "anonymous": false,
      "inputs": [
        {
          "indexed": false,
          "internalType": "address",
          "name": "account",
          "type": "address"
        }
      ],
      "name": "PauserRemoved",
      "type": "event"
    },
    {
      "anonymous": false,
      "inputs": [
        {
          "indexed": false,
          "internalType": "contract IProviders",
          "name": "providers",
          "type": "address"
        }
      ],
      "name": "ProvidersUpdated",
      "type": "event"
    },
    {
      "anonymous": false,
      "inputs": [
        {
          "indexed": false,
          "internalType": "bytes32",
          "name": "hash",
          "type": "bytes32"
        }
      ],
      "name": "RechargeTypedHashUpdated",
      "type": "event"
    },
    {
      "anonymous": false,
      "inputs": [
        {
          "indexed": false,
          "internalType": "contract IResourceAdaptor",
          "name": "adaptor",
          "type": "address"
        }
      ],
      "name": "ResourceAdaptorUpdated",
      "type": "event"
    },
    {
      "anonymous": false,
      "inputs": [
        {
          "indexed": false,
          "internalType": "address",
          "name": "provider",
          "type": "address"
        },
        {
          "indexed": false,
          "internalType": "uint64",
          "name": "nonce",
          "type": "uint64"
        },
        {
          "indexed": false,
          "internalType": "bytes32",
          "name": "account",
          "type": "bytes32"
        },
        {
          "indexed": false,
          "internalType": "uint256",
          "name": "fee",
          "type": "uint256"
        }
      ],
      "name": "Spend",
      "type": "event"
    },
    {
      "anonymous": false,
      "inputs": [
        {
          "indexed": false,
          "internalType": "contract IERC20Upgradeable",
          "name": "token",
          "type": "address"
        }
      ],
      "name": "TokenUpdated",
      "type": "event"
    },
    {
      "anonymous": false,
      "inputs": [
        {
          "indexed": false,
          "internalType": "address",
          "name": "account",
          "type": "address"
        }
      ],
      "name": "Unpaused",
      "type": "event"
    },
    {
      "anonymous": false,
      "inputs": [
        {
          "indexed": false,
          "internalType": "address",
          "name": "provider",
          "type": "address"
        },
        {
          "indexed": false,
          "internalType": "bytes32",
          "name": "account",
          "type": "bytes32"
        },
        {
          "indexed": false,
          "internalType": "address",
          "name": "newOwner",
          "type": "address"
        }
      ],
      "name": "WalletOwnerTransferred",
      "type": "event"
    },
    {
      "anonymous": false,
      "inputs": [
        {
          "indexed": false,
          "internalType": "contract IERC20Upgradeable",
          "name": "token",
          "type": "address"
        },
        {
          "indexed": false,
          "internalType": "address",
          "name": "to",
          "type": "address"
        },
        {
          "indexed": false,
          "internalType": "uint256",
          "name": "value",
          "type": "uint256"
        }
      ],
      "name": "Withdrawal",
      "type": "event"
    },
    {
      "anonymous": false,
      "inputs": [
        {
          "indexed": false,
          "internalType": "address",
          "name": "provider",
          "type": "address"
        },
        {
          "indexed": false,
          "internalType": "uint64",
          "name": "nonce",
          "type": "uint64"
        },
        {
          "indexed": false,
          "internalType": "bytes32",
          "name": "account",
          "type": "bytes32"
        },
        {
          "indexed": false,
          "internalType": "address",
          "name": "to",
          "type": "address"
        },
        {
          "indexed": false,
          "internalType": "uint256",
          "name": "amount",
          "type": "uint256"
        }
      ],
      "name": "Withdrawn",
      "type": "event"
    },
    {
      "inputs": [],
      "name": "adaptor",
      "outputs": [
        {
          "internalType": "contract IResourceAdaptor",
          "name": "",
          "type": "address"
        }
      ],
      "stateMutability": "view",
      "type": "function"
    },
    {
      "inputs": [
        {
          "internalType": "address",
          "name": "account",
          "type": "address"
        }
      ],
      "name": "addPauser",
      "outputs": [],
      "stateMutability": "nonpayable",
      "type": "function"
    },
    {
      "inputs": [
        {
          "internalType": "address",
          "name": "provider",
          "type": "address"
        },
        {
          "internalType": "bytes32",
          "name": "account",
          "type": "bytes32"
        }
      ],
      "name": "balanceOf",
      "outputs": [
        {
          "internalType": "uint256",
          "name": "",
          "type": "uint256"
        }
      ],
      "stateMutability": "view",
      "type": "function"
    },
    {
      "inputs": [
        {
          "internalType": "address",
          "name": "provider",
          "type": "address"
        },
        {
          "internalType": "uint64",
          "name": "nonce",
          "type": "uint64"
        },
        {
          "internalType": "bytes32",
          "name": "account",
          "type": "bytes32"
        },
        {
          "internalType": "bytes",
          "name": "bill",
          "type": "bytes"
        }
      ],
      "name": "billHash",
      "outputs": [
        {
          "internalType": "bytes32",
          "name": "",
          "type": "bytes32"
        }
      ],
      "stateMutability": "view",
      "type": "function"
    },
    {
      "inputs": [],
      "name": "billTypedHash",
      "outputs": [
        {
          "internalType": "bytes32",
          "name": "",
          "type": "bytes32"
        }
      ],
      "stateMutability": "view",
      "type": "function"
    },
    {
      "inputs": [
        {
          "internalType": "bytes",
          "name": "message",
          "type": "bytes"
        }
      ],
      "name": "decodeBill",
      "outputs": [
        {
          "components": [
            {
              "internalType": "uint256",
              "name": "totalValue",
              "type": "uint256"
            },
            {
              "components": [
                {
                  "internalType": "uint256",
                  "name": "indexBlock",
                  "type": "uint256"
                },
                {
                  "components": [
                    {
                      "internalType": "enum ResourceData.ResourceType",
                      "name": "resourceType",
                      "type": "uint8"
                    },
                    {
                      "internalType": "uint256",
                      "name": "amount",
                      "type": "uint256"
                    }
                  ],
                  "internalType": "struct IBilling.BillEntry[]",
                  "name": "entries",
                  "type": "tuple[]"
                }
              ],
              "internalType": "struct IBilling.BillPayload[]",
              "name": "payloads",
              "type": "tuple[]"
            }
          ],
          "internalType": "struct IBilling.Bill",
          "name": "",
          "type": "tuple"
        }
      ],
      "stateMutability": "pure",
      "type": "function"
    },
    {
      "inputs": [
        {
          "components": [
            {
              "internalType": "uint256",
              "name": "totalValue",
              "type": "uint256"
            },
            {
              "components": [
                {
                  "internalType": "uint256",
                  "name": "indexBlock",
                  "type": "uint256"
                },
                {
                  "components": [
                    {
                      "internalType": "enum ResourceData.ResourceType",
                      "name": "resourceType",
                      "type": "uint8"
                    },
                    {
                      "internalType": "uint256",
                      "name": "amount",
                      "type": "uint256"
                    }
                  ],
                  "internalType": "struct IBilling.BillEntry[]",
                  "name": "entries",
                  "type": "tuple[]"
                }
              ],
              "internalType": "struct IBilling.BillPayload[]",
              "name": "payloads",
              "type": "tuple[]"
            }
          ],
          "internalType": "struct IBilling.Bill",
          "name": "bills",
          "type": "tuple"
        }
      ],
      "name": "encodeBill",
      "outputs": [
        {
          "internalType": "bytes",
          "name": "",
          "type": "bytes"
        }
      ],
      "stateMutability": "pure",
      "type": "function"
    },
    {
      "inputs": [
        {
          "internalType": "address",
          "name": "provider",
          "type": "address"
        },
        {
          "internalType": "uint64",
          "name": "nonce",
          "type": "uint64"
        },
        {
          "internalType": "bytes32",
          "name": "account",
          "type": "bytes32"
        },
        {
          "internalType": "bytes",
          "name": "bill",
          "type": "bytes"
        }
      ],
      "name": "hashTypedDataV4ForBill",
      "outputs": [
        {
          "internalType": "bytes32",
          "name": "",
          "type": "bytes32"
        }
      ],
      "stateMutability": "view",
      "type": "function"
    },
    {
      "inputs": [
        {
          "internalType": "address",
          "name": "provider",
          "type": "address"
        },
        {
          "internalType": "uint64",
          "name": "nonce",
          "type": "uint64"
        },
        {
          "internalType": "address",
          "name": "owner",
          "type": "address"
        },
        {
          "internalType": "bytes32",
          "name": "account",
          "type": "bytes32"
        },
        {
          "internalType": "uint256",
          "name": "amount",
          "type": "uint256"
        }
      ],
      "name": "hashTypedDataV4ForRecharge",
      "outputs": [
        {
          "internalType": "bytes32",
          "name": "",
          "type": "bytes32"
        }
      ],
      "stateMutability": "view",
      "type": "function"
    },
    {
      "inputs": [
        {
          "internalType": "address",
          "name": "owner",
          "type": "address"
        },
        {
          "internalType": "address",
          "name": "pauser",
          "type": "address"
        },
        {
          "internalType": "contract IResourceAdaptor",
          "name": "adaptor",
          "type": "address"
        },
        {
          "internalType": "contract IProviders",
          "name": "_providers",
          "type": "address"
        },
        {
          "internalType": "contract IERC20Upgradeable",
          "name": "_token",
          "type": "address"
        },
        {
          "internalType": "string",
          "name": "name",
          "type": "string"
        },
        {
          "internalType": "string",
          "name": "version",
          "type": "string"
        },
        {
          "internalType": "string",
          "name": "rechargeTypes",
          "type": "string"
        },
        {
          "internalType": "string",
          "name": "billTypes",
          "type": "string"
        }
      ],
      "name": "initialize",
      "outputs": [],
      "stateMutability": "nonpayable",
      "type": "function"
    },
    {
      "inputs": [
        {
          "internalType": "address",
          "name": "account",
          "type": "address"
        }
      ],
      "name": "isPauser",
      "outputs": [
        {
          "internalType": "bool",
          "name": "",
          "type": "bool"
        }
      ],
      "stateMutability": "view",
      "type": "function"
    },
    {
      "inputs": [
        {
          "internalType": "address",
          "name": "",
          "type": "address"
        },
        {
          "internalType": "bytes32",
          "name": "",
          "type": "bytes32"
        },
        {
          "internalType": "uint64",
          "name": "",
          "type": "uint64"
        }
      ],
      "name": "nonces",
      "outputs": [
        {
          "internalType": "enum IFundWallet.Purpose",
          "name": "",
          "type": "uint8"
        }
      ],
      "stateMutability": "view",
      "type": "function"
    },
    {
      "inputs": [],
      "name": "owner",
      "outputs": [
        {
          "internalType": "address",
          "name": "",
          "type": "address"
        }
      ],
      "stateMutability": "view",
      "type": "function"
    },
    {
      "inputs": [
        {
          "internalType": "address",
          "name": "provider",
          "type": "address"
        },
        {
          "internalType": "bytes32",
          "name": "account",
          "type": "bytes32"
        }
      ],
      "name": "ownerOf",
      "outputs": [
        {
          "internalType": "address",
          "name": "",
          "type": "address"
        }
      ],
      "stateMutability": "view",
      "type": "function"
    },
    {
      "inputs": [
        {
          "internalType": "contract IERC20Upgradeable",
          "name": "token",
          "type": "address"
        },
        {
          "internalType": "address",
          "name": "to",
          "type": "address"
        },
        {
          "internalType": "uint256",
          "name": "value",
          "type": "uint256"
        }
      ],
      "name": "ownerWithdrawERC20",
      "outputs": [],
      "stateMutability": "nonpayable",
      "type": "function"
    },
    {
      "inputs": [
        {
          "internalType": "address payable",
          "name": "to",
          "type": "address"
        },
        {
          "internalType": "uint256",
          "name": "value",
          "type": "uint256"
        }
      ],
      "name": "ownerWithdrawNative",
      "outputs": [],
      "stateMutability": "nonpayable",
      "type": "function"
    },
    {
      "inputs": [],
      "name": "pause",
      "outputs": [],
      "stateMutability": "nonpayable",
      "type": "function"
    },
    {
      "inputs": [],
      "name": "paused",
      "outputs": [
        {
          "internalType": "bool",
          "name": "",
          "type": "bool"
        }
      ],
      "stateMutability": "view",
      "type": "function"
    },
    {
      "inputs": [
        {
          "internalType": "address",
          "name": "",
          "type": "address"
        }
      ],
      "name": "pausers",
      "outputs": [
        {
          "internalType": "bool",
          "name": "",
          "type": "bool"
        }
      ],
      "stateMutability": "view",
      "type": "function"
    },
    {
      "inputs": [],
      "name": "providers",
      "outputs": [
        {
          "internalType": "contract IProviders",
          "name": "",
          "type": "address"
        }
      ],
      "stateMutability": "view",
      "type": "function"
    },
    {
      "inputs": [
        {
          "internalType": "address",
          "name": "provider",
          "type": "address"
        },
        {
          "internalType": "uint64",
          "name": "nonce",
          "type": "uint64"
        },
        {
          "internalType": "address",
          "name": "owner",
          "type": "address"
        },
        {
          "internalType": "bytes32",
          "name": "account",
          "type": "bytes32"
        },
        {
          "internalType": "uint256",
          "name": "amount",
          "type": "uint256"
        },
        {
          "internalType": "bytes",
          "name": "signature",
          "type": "bytes"
        }
      ],
      "name": "recharge",
      "outputs": [],
      "stateMutability": "nonpayable",
      "type": "function"
    },
    {
      "inputs": [
        {
          "internalType": "address",
          "name": "provider",
          "type": "address"
        },
        {
          "internalType": "uint64",
          "name": "nonce",
          "type": "uint64"
        },
        {
          "internalType": "address",
          "name": "owner",
          "type": "address"
        },
        {
          "internalType": "bytes32",
          "name": "account",
          "type": "bytes32"
        },
        {
          "internalType": "uint256",
          "name": "amount",
          "type": "uint256"
        }
      ],
      "name": "rechargeHash",
      "outputs": [
        {
          "internalType": "bytes32",
          "name": "",
          "type": "bytes32"
        }
      ],
      "stateMutability": "view",
      "type": "function"
    },
    {
      "inputs": [],
      "name": "rechargeTypedHash",
      "outputs": [
        {
          "internalType": "bytes32",
          "name": "",
          "type": "bytes32"
        }
      ],
      "stateMutability": "view",
      "type": "function"
    },
    {
      "inputs": [
        {
          "internalType": "address",
          "name": "account",
          "type": "address"
        }
      ],
      "name": "removePauser",
      "outputs": [],
      "stateMutability": "nonpayable",
      "type": "function"
    },
    {
      "inputs": [],
      "name": "renounceOwnership",
      "outputs": [],
      "stateMutability": "nonpayable",
      "type": "function"
    },
    {
      "inputs": [],
      "name": "renouncePauser",
      "outputs": [],
      "stateMutability": "nonpayable",
      "type": "function"
    },
    {
      "inputs": [
        {
          "internalType": "string",
          "name": "types",
          "type": "string"
        }
      ],
      "name": "setBillTypedHash",
      "outputs": [],
      "stateMutability": "nonpayable",
      "type": "function"
    },
    {
      "inputs": [
        {
          "internalType": "string",
          "name": "types",
          "type": "string"
        }
      ],
      "name": "setRechargeTypedHash",
      "outputs": [],
      "stateMutability": "nonpayable",
      "type": "function"
    },
    {
      "inputs": [
        {
          "internalType": "contract IERC20Upgradeable",
          "name": "_token",
          "type": "address"
        }
      ],
      "name": "setToken",
      "outputs": [],
      "stateMutability": "nonpayable",
      "type": "function"
    },
    {
      "inputs": [
        {
          "internalType": "address",
          "name": "provider",
          "type": "address"
        },
        {
          "internalType": "uint64",
          "name": "nonce",
          "type": "uint64"
        },
        {
          "internalType": "bytes32",
          "name": "account",
          "type": "bytes32"
        },
        {
          "internalType": "bytes",
          "name": "bill",
          "type": "bytes"
        },
        {
          "internalType": "bytes",
          "name": "signature",
          "type": "bytes"
        }
      ],
      "name": "spend",
      "outputs": [
        {
          "internalType": "uint256",
          "name": "fee",
          "type": "uint256"
        }
      ],
      "stateMutability": "nonpayable",
      "type": "function"
    },
    {
      "inputs": [],
      "name": "token",
      "outputs": [
        {
          "internalType": "contract IERC20Upgradeable",
          "name": "",
          "type": "address"
        }
      ],
      "stateMutability": "view",
      "type": "function"
    },
    {
      "inputs": [
        {
          "internalType": "address",
          "name": "newOwner",
          "type": "address"
        }
      ],
      "name": "transferOwnership",
      "outputs": [],
      "stateMutability": "nonpayable",
      "type": "function"
    },
    {
      "inputs": [
        {
          "internalType": "address",
          "name": "provider",
          "type": "address"
        },
        {
          "internalType": "bytes32",
          "name": "account",
          "type": "bytes32"
        },
        {
          "internalType": "address",
          "name": "newOwner",
          "type": "address"
        },
        {
          "internalType": "bytes",
          "name": "signature",
          "type": "bytes"
        }
      ],
      "name": "transferWalletOwner",
      "outputs": [],
      "stateMutability": "nonpayable",
      "type": "function"
    },
    {
      "inputs": [],
      "name": "unpause",
      "outputs": [],
      "stateMutability": "nonpayable",
      "type": "function"
    },
    {
      "inputs": [
        {
          "internalType": "address",
          "name": "provider",
          "type": "address"
        },
        {
          "internalType": "uint64",
          "name": "nonce",
          "type": "uint64"
        },
        {
          "internalType": "bytes32",
          "name": "account",
          "type": "bytes32"
        },
        {
          "internalType": "address",
          "name": "to",
          "type": "address"
        },
        {
          "internalType": "bytes",
          "name": "bill",
          "type": "bytes"
        },
        {
          "internalType": "bytes",
          "name": "signature",
          "type": "bytes"
        }
      ],
      "name": "withdraw",
      "outputs": [
        {
          "internalType": "uint256",
          "name": "amount",
          "type": "uint256"
        }
      ],
      "stateMutability": "nonpayable",
      "type": "function"
    }
  ],
  "transactionHash": "0x4bc73b3f0d627d5e904da17d6d96ce28889a54435d9022b52de3b378b8c692c0",
  "args": [],
  "solcInputHash": "254a47a637b69356b9c4b7a0a33b543a",
  "bytecode": "0x60806040523480156200001157600080fd5b50600054610100900460ff166200002f5760005460ff161562000039565b620000396200009e565b620000615760405162461bcd60e51b81526004016200005890620000cb565b60405180910390fd5b600054610100900460ff1615801562000084576000805461ffff19166101011790555b801562000097576000805461ff00191690555b5062000124565b6000620000b630620000bc60201b620012951760201c565b15905090565b6001600160a01b03163b151590565b602080825281016200011e81602e81527f496e697469616c697a61626c653a20636f6e747261637420697320616c72656160208201526d191e481a5b9a5d1a585b1a5e995960921b604082015260600190565b92915050565b61399180620001346000396000f3fe608060405234801561001057600080fd5b50600436106102115760003560e01c806382dc1ec411610125578063d5ed04b6116100ad578063f2fde38b1161007c578063f2fde38b146104e6578063f8401fe6146104f9578063f960ff0b1461050c578063fc0c546a1461051f578063fc173ad21461053257600080fd5b8063d5ed04b61461047f578063da66bd6714610492578063ddc5517e146104c9578063e7356a07146104dc57600080fd5b806393563a95116100f457806393563a9514610410578063a50d817d14610423578063c2cd9b2b14610436578063c47ca60314610456578063d29ed85e1461047657600080fd5b806382dc1ec4146103c85780638456cb59146103db5780638da5cb5b146103e3578063924bf9a7146103fd57600080fd5b80635c975abb116101a85780636ef8d66d116101775780636ef8d66d1461036f578063715018a6146103775780637acc238b1461037f5780637dc186cd1461039257806380f51c12146103a557600080fd5b80635c975abb1461032b578063699256f4146103365780636b2c0f55146103495780636d9d0ae11461035c57600080fd5b8063474902a2116101e4578063474902a21461027c5780634bf1fcda1461029c5780634d30b6be146102de5780635a4c1a201461031857600080fd5b8063144fa6d7146102165780633f4ba83a1461022b578063453866001461023357806346fbf68e1461025c575b600080fd5b610229610224366004611f9b565b610545565b005b610229610584565b6102466102413660046120b5565b6105b3565b6040516102539190612286565b60405180910390f35b61026f61026a3660046122ab565b6105e2565b60405161025391906122d4565b61028f61028a36600461230d565b610600565b60405161025391906123cb565b6102d16102aa3660046123d9565b61010360209081526000938452604080852082529284528284209052825290205460ff1681565b6040516102539190612457565b61028f6102ec366004612465565b6001600160a01b0391909116600090815261010460209081526040808320938352929052206001015490565b6102296103263660046124a2565b610838565b60655460ff1661026f565b610229610344366004612465565b610aef565b6102296103573660046122ab565b610b9d565b61022961036a3660046120b5565b610bd0565b610229610c0a565b610229610c13565b61022961038d3660046120b5565b610c47565b6102296103a036600461250e565b610c81565b61026f6103b33660046122ab565b60976020526000908152604090205460ff1681565b6102296103d63660046122ab565b610e3d565b610229610e70565b6033546001600160a01b03165b6040516102539190612595565b61028f61040b3660046125a3565b610e9d565b61022961041e3660046125ea565b610ebe565b61028f610431366004612630565b610f2f565b60cf54610449906001600160a01b031681565b60405161025391906126f0565b610469610464366004612945565b6110ac565b60405161025391906129dd565b61028f60cd5481565b61028f61048d3660046125a3565b6110d5565b6103f06104a0366004612465565b6001600160a01b0391821660009081526101046020908152604080832093835292905220541690565b6102296104d73660046129ee565b611119565b61028f6101025481565b6102296104f43660046122ab565b6111dd565b609854610449906001600160a01b031681565b61028f61051a366004612b1d565b611236565b60ce54610449906001600160a01b031681565b61028f610540366004612b1d565b611254565b6033546001600160a01b031633146105785760405162461bcd60e51b815260040161056f90612bbd565b60405180910390fd5b610581816112a4565b50565b61058d336105e2565b6105a95760405162461bcd60e51b815260040161056f90612c01565b6105b16112fa565b565b604080518082019091526000815260606020820152818060200190518101906105dc9190612e1d565b92915050565b6001600160a01b031660009081526097602052604090205460ff1690565b6000868587836001600160a01b03841660009081526101036020908152604080832086845282528083206001600160401b038616845290915290205460ff166003811115610650576106506120f7565b1461066d5760405162461bcd60e51b815260040161056f90612e8b565b6001600160a01b03808b166000908152610104602090815260408083208c84529091529020548b918a911633146106b65760405162461bcd60e51b815260040161056f90612ee1565b60655460ff16156106d95760405162461bcd60e51b815260040161056f90612f18565b600260d05414156106fc5760405162461bcd60e51b815260040161056f90612f5c565b600260d0558b6000610711828e8e8d8d611360565b9050610760816101046000856001600160a01b03166001600160a01b0316815260200190815260200160002060008f8152602001908152602001600020600101546115f090919063ffffffff16565b975060006101046000846001600160a01b03166001600160a01b0316815260200190815260200160002060008e8152602001908152602001600020600101819055506107d58b8960ce60009054906101000a90046001600160a01b03166001600160a01b03166116039092919063ffffffff16565b6107e2828d8f600361165e565b7f26b8aa9e5d4f71b867c84264e57eab543daba6bf03a6ac7c3be51697b5132f70828e8e8e8c604051610819959493929190612f7b565b60405180910390a15050600160d05550939a9950505050505050505050565b85838660006001600160a01b03841660009081526101036020908152604080832086845282528083206001600160401b038616845290915290205460ff166003811115610887576108876120f7565b146108a45760405162461bcd60e51b815260040161056f90612e8b565b60655460ff16156108c75760405162461bcd60e51b815260040161056f90612f18565b600260d05414156108ea5760405162461bcd60e51b815260040161056f90612f5c565b600260d0558461090c5760405162461bcd60e51b815260040161056f90612ffb565b600061091b8a8a8a8a8a611236565b6098546040516311c5268f60e11b81529192506001600160a01b03169063238a4d1e90610950908d9085908a9060040161300b565b602060405180830381600087803b15801561096a57600080fd5b505af115801561097e573d6000803e3d6000fd5b505050506040513d601f19601f820116820180604052508101906109a2919061304b565b6109be5760405162461bcd60e51b815260040161056f906130a0565b6001600160a01b038a81166000908152610104602090815260408083208b845290915290205416610a24576001600160a01b038a81166000908152610104602090815260408083208b8452909152902080546001600160a01b031916918a169190911790555b6001600160a01b038a166000908152610104602090815260408083208a8452909152902060010154610a5690876116f8565b6001600160a01b03808c166000908152610104602090815260408083208c845290915290206001019190915560ce54610a929116333089611704565b610a9f8a888b600161165e565b7f21fb7d7ead2d8cc1ee15ffa7f67fd957c51ab1c3576a96207d3d2784b6dbe0328a8a8a8a8a604051610ad69594939291906130b0565b60405180910390a15050600160d0555050505050505050565b6033546001600160a01b03163314610b195760405162461bcd60e51b815260040161056f90612bbd565b6040516000906001600160a01b0384169083156108fc0290849084818181858888f19350505050905080610b5f5760405162461bcd60e51b815260040161056f90613127565b7f2c876ecb97b3c6854f2488d373403f903eacb800e51c159a5c0c7a9c857e48278383604051610b90929190613137565b60405180910390a1505050565b6033546001600160a01b03163314610bc75760405162461bcd60e51b815260040161056f90612bbd565b6105818161172b565b6033546001600160a01b03163314610bfa5760405162461bcd60e51b815260040161056f90612bbd565b61058181805190602001206117a0565b6105b13361172b565b6033546001600160a01b03163314610c3d5760405162461bcd60e51b815260040161056f90612bbd565b6105b160006117d5565b6033546001600160a01b03163314610c715760405162461bcd60e51b815260040161056f90612bbd565b6105818180519060200120611827565b60655460ff1615610ca45760405162461bcd60e51b815260040161056f90612f18565b6001600160a01b0380851660009081526101046020908152604080832087845290915290205485918591163314610ced5760405162461bcd60e51b815260040161056f90612ee1565b6000868587604051602001610d0493929190613180565b60408051601f198184030181529082905280516020909101206098546311c5268f60e11b83529092506001600160a01b03169063238a4d1e90610d4f908a908590899060040161300b565b602060405180830381600087803b158015610d6957600080fd5b505af1158015610d7d573d6000803e3d6000fd5b505050506040513d601f19601f82011682018060405250810190610da1919061304b565b610dbd5760405162461bcd60e51b815260040161056f906130a0565b6001600160a01b038781166000908152610104602090815260408083208a84529091529081902080546001600160a01b03191692881692909217909155517f4ddee4675a37f5c882a56b9be609ea55023c460cafb24ab74c1cb024abc84b3b90610e2c908990899089906131b7565b60405180910390a150505050505050565b6033546001600160a01b03163314610e675760405162461bcd60e51b815260040161056f90612bbd565b6105818161185d565b610e79336105e2565b610e955760405162461bcd60e51b815260040161056f90612c01565b6105b16118d6565b6000610eb3610eae868686866110d5565b61192e565b90505b949350505050565b6033546001600160a01b03163314610ee85760405162461bcd60e51b815260040161056f90612bbd565b610efc6001600160a01b0384168383611603565b7f2717ead6b9200dd235aad468c9809ea400fe33ac69b5bfaa6d3e90fc922b6398838383604051610b90939291906131df565b6000858486836001600160a01b03841660009081526101036020908152604080832086845282528083206001600160401b038616845290915290205460ff166003811115610f7f57610f7f6120f7565b14610f9c5760405162461bcd60e51b815260040161056f90612e8b565b60655460ff1615610fbf5760405162461bcd60e51b815260040161056f90612f18565b600260d0541415610fe25760405162461bcd60e51b815260040161056f90612f5c565b600260d055610ff48989898989611360565b6001600160a01b038a166000908152610104602090815260408083208b845290915290206001015490945061102990856115f0565b6001600160a01b038a166000908152610104602090815260408083208b845290915290206001015561105e89888a600261165e565b7ff87a79acd45d3f401d9b7ff78e67a64bbe1d2cfa30bb106f0eba621b4f28053f898989876040516110939493929190613207565b60405180910390a15050600160d0555095945050505050565b6060816040516020016110bf9190612286565b6040516020818303038152906040529050919050565b600060cd5485858585805190602001206040516020016110f995949392919061323c565b604051602081830303815290604052805190602001209050949350505050565b600054610100900460ff166111345760005460ff1615611138565b303b155b6111545760405162461bcd60e51b815260040161056f906132af565b600054610100900460ff16158015611176576000805461ffff19166101011790555b61117f8a6117d5565b61118889611941565b61119187611968565b61119a88611998565b6111a3866119c8565b6111ad85856119ef565b6111b683611a24565b6111bf82611a4b565b80156111d1576000805461ff00191690555b50505050505050505050565b6033546001600160a01b031633146112075760405162461bcd60e51b815260040161056f90612bbd565b6001600160a01b03811661122d5760405162461bcd60e51b815260040161056f90613302565b610581816117d5565b6000611248610eae8787878787611254565b90505b95945050505050565b600061010254868686868660405160200161127496959493929190613312565b60405160208183030381529060405280519060200120905095945050505050565b6001600160a01b03163b151590565b60ce80546001600160a01b0319166001600160a01b0383161790556040517f5ba6b30cd4b2f9e9e67f4feb9b9df10d5da3b057598e6901b217b7d590345e30906112ef9083906126f0565b60405180910390a150565b60655460ff1661131c5760405162461bcd60e51b815260040161056f9061338c565b6065805460ff191690557f5db9ee0a495bf2e6ff9c91a7834c1ba4fdd244a5e8aa4e537bd38aeae4b073aa335b6040516113569190612595565b60405180910390a1565b609854604051636b074a0760e01b81526000916001600160a01b031690636b074a0790611391903390600401612595565b60206040518083038186803b1580156113a957600080fd5b505afa1580156113bd573d6000803e3d6000fd5b505050506040513d601f19601f820116820180604052508101906113e1919061304b565b6113fd5760405162461bcd60e51b815260040161056f906133da565b600061140b87878787610e9d565b6098546040516311c5268f60e11b81529192506001600160a01b03169063238a4d1e90611440908a908590889060040161300b565b602060405180830381600087803b15801561145a57600080fd5b505af115801561146e573d6000803e3d6000fd5b505050506040513d601f19601f82011682018060405250810190611492919061304b565b6114ae5760405162461bcd60e51b815260040161056f9061341e565b8351156115a7576001600160a01b0387166000908152610104602090815260408083208884529091529020600101546114ee6114e986611a72565b611c2a565b9250828110156115105760405162461bcd60e51b815260040161056f90613462565b6098546040516389b08f1160e01b81526115a5916001600160a01b0316906389b08f1190611542908c90600401612595565b60206040518083038186803b15801561155a57600080fd5b505afa15801561156e573d6000803e3d6000fd5b505050506040513d601f19601f82011682018060405250810190611592919061347d565b60ce546001600160a01b03169085611603565b505b7f086575d4de5bb5f0addd08773b7097a00aaa37120293013f54da4433812adfa787878787866040516115de95949392919061349e565b60405180910390a15095945050505050565b60006115fc82846134fd565b9392505050565b6116598363a9059cbb60e01b8484604051602401611622929190613514565b60408051601f198184030181529190526020810180516001600160e01b03166001600160e01b031990931692909217909152611c3b565b505050565b6001600160a01b03841660009081526101036020908152604080832086845282528083206001600160401b03861684529091529020805482919060ff191660018360038111156116b0576116b06120f7565b02179055507fc4f15e84da288f27234e3626e64c8035b984fd65cee49fcd86b4910de1d13e7c848484846040516116ea9493929190613522565b60405180910390a150505050565b60006115fc8284613557565b611725846323b872dd60e01b8585856040516024016116229392919061356f565b50505050565b611734816105e2565b6117505760405162461bcd60e51b815260040161056f906135b1565b6001600160a01b03811660009081526097602052604090819020805460ff19169055517fcd265ebaf09df2871cc7bd4133404a235ba12eff2041bb89d9c714a2621c7c7e906112ef908390612595565b60cd8190556040517f44e8ce8f81d5513d3e950d9a75224f8ff590d2687c88df09ffc509671aa670a1906112ef9083906123cb565b603380546001600160a01b038381166001600160a01b0319831681179093556040519116919082907f8be0079c531659141344cd1fd0a4f28419497f9722a3daafe3b4186f6b6457e090600090a35050565b6101028190556040517f921d5c4a3c33eaff9e0f2fee28d7dd04f45183c3070cc30adfd5d90be5154699906112ef9083906123cb565b611866816105e2565b156118835760405162461bcd60e51b815260040161056f906135ff565b6001600160a01b03811660009081526097602052604090819020805460ff19166001179055517f6719d08c1888103bea251a4ed56406bd0c3e69723c8a1686e017e7bbe159b6f8906112ef908390612595565b60655460ff16156118f95760405162461bcd60e51b815260040161056f90612f18565b6065805460ff191660011790557f62e78cea01bee320cd4e420270b5ea74000d11b0c9f74754ebdbfc544b05a2586113493390565b60006105dc61193b611cca565b83611d06565b600054610100900460ff16610e675760405162461bcd60e51b815260040161056f90613657565b600054610100900460ff1661198f5760405162461bcd60e51b815260040161056f90613657565b61058181611d39565b600054610100900460ff166119bf5760405162461bcd60e51b815260040161056f90613657565b61058181611d84565b600054610100900460ff166105785760405162461bcd60e51b815260040161056f90613657565b600054610100900460ff16611a165760405162461bcd60e51b815260040161056f90613657565b611a208282611dcf565b5050565b600054610100900460ff16610c715760405162461bcd60e51b815260040161056f90613657565b600054610100900460ff16610bfa5760405162461bcd60e51b815260040161056f90613657565b60008082806020019051810190611a899190612e1d565b9050600081602001515111611ab05760405162461bcd60e51b815260040161056f9061369b565b60005b816020015151811015611c0357600082602001518281518110611ad857611ad86136ab565b60200260200101519050600081602001515111611b075760405162461bcd60e51b815260040161056f906136ff565b60005b816020015151811015611bee57600082602001518481518110611b2f57611b2f6136ab565b60209081029190910181015160cf5481519282015186516040516354bf93b960e11b81529395506000946001600160a01b039093169363a97f277293611b7b939092909160040161370f565b60206040518083038186803b158015611b9357600080fd5b505afa158015611ba7573d6000803e3d6000fd5b505050506040513d601f19601f82011682018060405250810190611bcb919061372a565b9050611bd787826116f8565b965050508080611be69061374b565b915050611b0a565b50508080611bfb9061374b565b915050611ab3565b5080518214611c245760405162461bcd60e51b815260040161056f90613792565b50919050565b60006105dc8264e8d4a51000611e10565b6000611c90826040518060400160405280602081526020017f5361666545524332303a206c6f772d6c6576656c2063616c6c206661696c6564815250856001600160a01b0316611e1c9092919063ffffffff16565b8051909150156116595780806020019051810190611cae919061304b565b6116595760405162461bcd60e51b815260040161056f906137e9565b6000611d017f8b73c3c69bb8fe3d512ecc4cf759cc79239f7b179b0ffacaa9a75d522b39400f611cf960995490565b609a54611e2b565b905090565b60008282604051602001611d1b9291906137f9565b60405160208183030381529060405280519060200120905092915050565b609880546001600160a01b0319166001600160a01b0383161790556040517fe63288198842f0dacdcbdc3f22dcd4e473d1f3cee7e10603ae6ddc3e667c5284906112ef9083906126f0565b60cf80546001600160a01b0319166001600160a01b0383161790556040517fcb398744d70dd9f7eb9e1e65c9c74f4d3276143240e25316135eb6585db6c1c1906112ef9083906126f0565b600054610100900460ff16611df65760405162461bcd60e51b815260040161056f90613657565b815160209283012081519190920120609991909155609a55565b60006115fc8284613840565b6060610eb68484600085611e65565b60008383834630604051602001611e46959493929190613854565b6040516020818303038152906040528051906020012090509392505050565b606082471015611e875760405162461bcd60e51b815260040161056f906138d9565b6001600160a01b0385163b611eae5760405162461bcd60e51b815260040161056f9061391d565b600080866001600160a01b03168587604051611eca919061394f565b60006040518083038185875af1925050503d8060008114611f07576040519150601f19603f3d011682016040523d82523d6000602084013e611f0c565b606091505b5091509150611f1c828286611f27565b979650505050505050565b60608315611f365750816115fc565b825115611f465782518084602001fd5b8160405162461bcd60e51b815260040161056f91906129dd565b60006001600160a01b0382166105dc565b60006105dc82611f60565b611f8581611f71565b811461058157600080fd5b80356105dc81611f7c565b600060208284031215611fb057611fb0600080fd5b6000610eb68484611f90565b634e487b7160e01b600052604160045260246000fd5b601f19601f83011681018181106001600160401b0382111715611ff757611ff7611fbc565b6040525050565b600061200960405190565b90506120158282611fd2565b919050565b60006001600160401b0382111561203357612033611fbc565b601f19601f83011660200192915050565b82818337506000910152565b600061206361205e8461201a565b611ffe565b90508281526020810184848401111561207e5761207e600080fd5b612089848285612044565b509392505050565b600082601f8301126120a5576120a5600080fd5b8135610eb6848260208601612050565b6000602082840312156120ca576120ca600080fd5b81356001600160401b038111156120e3576120e3600080fd5b610eb684828501612091565b805b82525050565b634e487b7160e01b600052602160045260246000fd5b60058110610581576105816120f7565b806120158161210d565b60006105dc8261211d565b6120f181612127565b8051604083019061214c8482612132565b50602082015161172560208501826120ef565b600061216b838361213b565b505060400190565b600061217d825190565b80845260209384019383018060005b838110156121b15781516121a0888261215f565b97506020830192505060010161218c565b509495945050505050565b805160009060408401906121d085826120ef565b506020830151848203602086015261124b8282612173565b60006115fc83836121bc565b60006121fe825190565b808452602084019350836020820285016122188560200190565b8060005b8581101561224d578484038952815161223585826121e8565b94506020830160209a909a019992505060010161221c565b5091979650505050505050565b8051600090604084019061226e85826120ef565b506020830151848203602086015261124b82826121f4565b602080825281016115fc818461225a565b611f8581611f60565b80356105dc81612297565b6000602082840312156122c0576122c0600080fd5b6000610eb684846122a0565b8015156120f1565b602081016105dc82846122cc565b6001600160401b038116611f85565b80356105dc816122e2565b80611f85565b80356105dc816122fc565b60008060008060008060c0878903121561232957612329600080fd5b600061233589896122a0565b965050602061234689828a016122f1565b955050604061235789828a01612302565b945050606061236889828a016122a0565b93505060808701356001600160401b0381111561238757612387600080fd5b61239389828a01612091565b92505060a08701356001600160401b038111156123b2576123b2600080fd5b6123be89828a01612091565b9150509295509295509295565b602081016105dc82846120ef565b6000806000606084860312156123f1576123f1600080fd5b60006123fd86866122a0565b935050602061240e86828701612302565b925050604061241f868287016122f1565b9150509250925092565b60048110610581576105816120f7565b8061201581612429565b60006105dc82612439565b6120f181612443565b602081016105dc828461244e565b6000806040838503121561247b5761247b600080fd5b600061248785856122a0565b925050602061249885828601612302565b9150509250929050565b60008060008060008060c087890312156124be576124be600080fd5b60006124ca89896122a0565b96505060206124db89828a016122f1565b95505060406124ec89828a016122a0565b94505060606124fd89828a01612302565b935050608061239389828a01612302565b6000806000806080858703121561252757612527600080fd5b600061253387876122a0565b945050602061254487828801612302565b9350506040612555878288016122a0565b92505060608501356001600160401b0381111561257457612574600080fd5b61258087828801612091565b91505092959194509250565b6120f181611f60565b602081016105dc828461258c565b600080600080608085870312156125bc576125bc600080fd5b60006125c887876122a0565b94505060206125d9878288016122f1565b935050604061255587828801612302565b60008060006060848603121561260257612602600080fd5b600061260e8686611f90565b935050602061261f868287016122a0565b925050604061241f86828701612302565b600080600080600060a0868803121561264b5761264b600080fd5b600061265788886122a0565b9550506020612668888289016122f1565b945050604061267988828901612302565b93505060608601356001600160401b0381111561269857612698600080fd5b6126a488828901612091565b92505060808601356001600160401b038111156126c3576126c3600080fd5b6126cf88828901612091565b9150509295509295909350565b60006105dc82611f71565b6120f1816126dc565b602081016105dc82846126e7565b60006001600160401b0382111561271757612717611fbc565b5060209081020190565b6005811061058157600080fd5b80356105dc81612721565b60006040828403121561274e5761274e600080fd5b6127586040611ffe565b90506000612766848461272e565b825250602061277784848301612302565b60208301525092915050565b600061279161205e846126fe565b838152905060208101604084028301858111156127b0576127b0600080fd5b835b818110156127d657806127c58882612739565b8452506020909201916040016127b2565b5050509392505050565b600082601f8301126127f4576127f4600080fd5b8135610eb6848260208601612783565b60006040828403121561281957612819600080fd5b6128236040611ffe565b905060006128318484612302565b82525060208201356001600160401b0381111561285057612850600080fd5b612777848285016127e0565b600061286a61205e846126fe565b8381529050602080820190840283018581111561288957612889600080fd5b835b818110156127d65780356001600160401b038111156128ac576128ac600080fd5b8086016128b98982612804565b855250506020928301920161288b565b600082601f8301126128dd576128dd600080fd5b8135610eb684826020860161285c565b60006040828403121561290257612902600080fd5b61290c6040611ffe565b9050600061291a8484612302565b82525060208201356001600160401b0381111561293957612939600080fd5b612777848285016128c9565b60006020828403121561295a5761295a600080fd5b81356001600160401b0381111561297357612973600080fd5b610eb6848285016128ed565b60005b8381101561299a578181015183820152602001612982565b838111156117255750506000910152565b60006129b5825190565b8084526020840193506129cc81856020860161297f565b601f01601f19169290920192915050565b602080825281016115fc81846129ab565b60008060008060008060008060006101208a8c031215612a1057612a10600080fd5b6000612a1c8c8c6122a0565b9950506020612a2d8c828d016122a0565b9850506040612a3e8c828d01611f90565b9750506060612a4f8c828d01611f90565b9650506080612a608c828d01611f90565b95505060a08a01356001600160401b03811115612a7f57612a7f600080fd5b612a8b8c828d01612091565b94505060c08a01356001600160401b03811115612aaa57612aaa600080fd5b612ab68c828d01612091565b93505060e08a01356001600160401b03811115612ad557612ad5600080fd5b612ae18c828d01612091565b9250506101008a01356001600160401b03811115612b0157612b01600080fd5b612b0d8c828d01612091565b9150509295985092959850929598565b600080600080600060a08688031215612b3857612b38600080fd5b6000612b4488886122a0565b9550506020612b55888289016122f1565b9450506040612b66888289016122a0565b9350506060612b7788828901612302565b92505060806126cf88828901612302565b60208082527f4f776e61626c653a2063616c6c6572206973206e6f7420746865206f776e6572910190815260005b5060200190565b602080825281016105dc81612b88565b601c81526000602082017f5061757365723a2043616c6c6572206973206e6f74207061757365720000000081529150612bb6565b602080825281016105dc81612bcd565b80516105dc816122fc565b80516105dc81612721565b600060408284031215612c3c57612c3c600080fd5b612c466040611ffe565b90506000612c548484612c1c565b825250602061277784848301612c11565b6000612c7361205e846126fe565b83815290506020810160408402830185811115612c9257612c92600080fd5b835b818110156127d65780612ca78882612c27565b845250602090920191604001612c94565b600082601f830112612ccc57612ccc600080fd5b8151610eb6848260208601612c65565b600060408284031215612cf157612cf1600080fd5b612cfb6040611ffe565b90506000612d098484612c11565b82525060208201516001600160401b03811115612d2857612d28600080fd5b61277784828501612cb8565b6000612d4261205e846126fe565b83815290506020808201908402830185811115612d6157612d61600080fd5b835b818110156127d65780516001600160401b03811115612d8457612d84600080fd5b808601612d918982612cdc565b8552505060209283019201612d63565b600082601f830112612db557612db5600080fd5b8151610eb6848260208601612d34565b600060408284031215612dda57612dda600080fd5b612de46040611ffe565b90506000612df28484612c11565b82525060208201516001600160401b03811115612e1157612e11600080fd5b61277784828501612da1565b600060208284031215612e3257612e32600080fd5b81516001600160401b03811115612e4b57612e4b600080fd5b610eb684828501612dc5565b601981526000602082017f46756e6457616c6c65743a20696e76616c6964206e6f6e63650000000000000081529150612bb6565b602080825281016105dc81612e57565b602681526000602082017f46756e6457616c6c65743a2063616c6c6572206973206e6f742077616c6c65748152651037bbb732b960d11b602082015291505b5060400190565b602080825281016105dc81612e9b565b601081526000602082016f14185d5cd8589b194e881c185d5cd95960821b81529150612bb6565b602080825281016105dc81612ef1565b601f81526000602082017f5265656e7472616e637947756172643a207265656e7472616e742063616c6c0081529150612bb6565b602080825281016105dc81612f28565b6001600160401b0381166120f1565b60a08101612f89828861258c565b612f966020830187612f6c565b612fa360408301866120ef565b612fb0606083018561258c565b612fbd60808301846120ef565b9695505050505050565b601781526000602082017f46756e6457616c6c65743a207a65726f20616d6f756e7400000000000000000081529150612bb6565b602080825281016105dc81612fc7565b60608101613019828661258c565b61302660208301856120ef565b8181036040830152610eb381846129ab565b801515611f85565b80516105dc81613038565b60006020828403121561306057613060600080fd5b6000610eb68484613040565b601d81526000602082017f46756e6457616c6c65743a20696e76616c6964207369676e617475726500000081529150612bb6565b602080825281016105dc8161306c565b60a081016130be828861258c565b6130cb6020830187612f6c565b6130d8604083018661258c565b612fb060608301856120ef565b602581526000602082017f5061796d656e743a207769746864726177206e617469766520746f6b656e2066815264185a5b195960da1b60208201529150612eda565b602080825281016105dc816130e5565b6040810161314582856126e7565b6115fc60208301846120ef565b60006105dc8260601b90565b60006105dc82613152565b6120f161317582611f60565b61315e565b806120f1565b600061318c8286613169565b60148201915061319c8285613169565b6014820191506131ac828461317a565b506020019392505050565b606081016131c5828661258c565b6131d260208301856120ef565b610eb6604083018461258c565b606081016131ed82866126e7565b6131fa602083018561258c565b610eb660408301846120ef565b60808101613215828761258c565b6132226020830186612f6c565b61322f60408301856120ef565b61124b60608301846120ef565b60a0810161324a82886120ef565b613257602083018761258c565b6130d86040830186612f6c565b602e81526000602082017f496e697469616c697a61626c653a20636f6e747261637420697320616c72656181526d191e481a5b9a5d1a585b1a5e995960921b60208201529150612eda565b602080825281016105dc81613264565b602681526000602082017f4f776e61626c653a206e6577206f776e657220697320746865207a65726f206181526564647265737360d01b60208201529150612eda565b602080825281016105dc816132bf565b60c0810161332082896120ef565b61332d602083018861258c565b61333a6040830187612f6c565b613347606083018661258c565b61335460808301856120ef565b611f1c60a08301846120ef565b601481526000602082017314185d5cd8589b194e881b9bdd081c185d5cd95960621b81529150612bb6565b602080825281016105dc81613361565b602181526000602082017f42696c6c696e673a2063616c6c6572206973206e6f7420612070726f766964658152603960f91b60208201529150612eda565b602080825281016105dc8161339c565b601a81526000602082017f42696c6c696e673a20696e76616c6964207369676e617475726500000000000081529150612bb6565b602080825281016105dc816133ea565b601d81526000602082017f42696c6c696e673a20696e73756666696369656e742062616c616e636500000081529150612bb6565b602080825281016105dc8161342e565b80516105dc81612297565b60006020828403121561349257613492600080fd5b6000610eb68484613472565b60a081016134ac828861258c565b6134b96020830187612f6c565b6134c660408301866120ef565b81810360608301526134d881856129ab565b9050612fbd60808301846120ef565b634e487b7160e01b600052601160045260246000fd5b60008282101561350f5761350f6134e7565b500390565b60408101613145828561258c565b60808101613530828761258c565b61353d60208301866120ef565b61354a6040830185612f6c565b61124b606083018461244e565b6000821982111561356a5761356a6134e7565b500190565b606081016131ed828661258c565b601d81526000602082017f5061757365723a204163636f756e74206973206e6f742070617573657200000081529150612bb6565b602080825281016105dc8161357d565b602181526000602082017f5061757365723a204163636f756e7420697320616c72656164792070617573658152603960f91b60208201529150612eda565b602080825281016105dc816135c1565b602b81526000602082017f496e697469616c697a61626c653a20636f6e7472616374206973206e6f74206981526a6e697469616c697a696e6760a81b60208201529150612eda565b602080825281016105dc8161360f565b601c81526000602082017f42696c6c696e673a20656d7074792062696c6c207061796c6f6164730000000081529150612bb6565b602080825281016105dc81613667565b634e487b7160e01b600052603260045260246000fd5b602181526000602082017f42696c6c696e673a20656d7074792062696c6c207061796c6f616420656e74728152607960f81b60208201529150612eda565b602080825281016105dc816136c1565b6060810161371d8286612132565b6131fa60208301856120ef565b60006020828403121561373f5761373f600080fd5b6000610eb68484612c11565b600060001982141561375f5761375f6134e7565b5060010190565b6015815260006020820174109a5b1b1a5b99ce881a5b9d985b1a5908189a5b1b605a1b81529150612bb6565b602080825281016105dc81613766565b602a81526000602082017f5361666545524332303a204552433230206f7065726174696f6e20646964206e8152691bdd081cdd58d8d9595960b21b60208201529150612eda565b602080825281016105dc816137a2565b61190160f01b81526002016000613810828561317a565b602082019150613820828461317a565b5060200192915050565b634e487b7160e01b600052601260045260246000fd5b60008261384f5761384f61382a565b500490565b60a0810161386282886120ef565b61386f60208301876120ef565b61387c60408301866120ef565b61388960608301856120ef565b612fbd608083018461258c565b602681526000602082017f416464726573733a20696e73756666696369656e742062616c616e636520666f8152651c8818d85b1b60d21b60208201529150612eda565b602080825281016105dc81613896565b601d81526000602082017f416464726573733a2063616c6c20746f206e6f6e2d636f6e747261637400000081529150612bb6565b602080825281016105dc816138e9565b6000613937825190565b61394581856020860161297f565b9290920192915050565b60006115fc828461392d56fea2646970667358221220a53cf519b9ec67ca23b0e4e248f9395f9a4e4971a376aae8d4a0bd4de904a8c564736f6c63430008090033",
  "devdoc": {
    "kind": "dev",
    "methods": {
      "owner()": {
        "details": "Returns the address of the current owner."
      },
      "paused()": {
        "details": "Returns true if the contract is paused, and false otherwise."
      },
      "renounceOwnership()": {
        "details": "Leaves the contract without owner. It will not be possible to call `onlyOwner` functions anymore. Can only be called by the current owner. NOTE: Renouncing ownership will leave the contract without an owner, thereby removing any functionality that is only available to the owner."
      },
      "transferOwnership(address)": {
        "details": "Transfers ownership of the contract to a new account (`newOwner`). Can only be called by the current owner."
      }
    },
    "version": 1
  },
  "userdoc": {
    "kind": "user",
    "methods": {},
    "version": 1
  },
  "storageLayout": {
    "storage": [
      {
        "astId": 147,
        "contract": "contracts/wallets/FundWallet.sol:FundWallet",
        "label": "_initialized",
        "offset": 0,
        "slot": "0",
        "type": "t_bool"
      },
      {
        "astId": 150,
        "contract": "contracts/wallets/FundWallet.sol:FundWallet",
        "label": "_initializing",
        "offset": 1,
        "slot": "0",
        "type": "t_bool"
      },
      {
        "astId": 970,
        "contract": "contracts/wallets/FundWallet.sol:FundWallet",
        "label": "__gap",
        "offset": 0,
        "slot": "1",
        "type": "t_array(t_uint256)50_storage"
      },
      {
        "astId": 10,
        "contract": "contracts/wallets/FundWallet.sol:FundWallet",
        "label": "_owner",
        "offset": 0,
        "slot": "51",
        "type": "t_address"
      },
      {
        "astId": 122,
        "contract": "contracts/wallets/FundWallet.sol:FundWallet",
        "label": "__gap",
        "offset": 0,
        "slot": "52",
        "type": "t_array(t_uint256)49_storage"
      },
      {
        "astId": 235,
        "contract": "contracts/wallets/FundWallet.sol:FundWallet",
        "label": "_paused",
        "offset": 0,
        "slot": "101",
        "type": "t_bool"
      },
      {
        "astId": 324,
        "contract": "contracts/wallets/FundWallet.sol:FundWallet",
        "label": "__gap",
        "offset": 0,
        "slot": "102",
        "type": "t_array(t_uint256)49_storage"
      },
      {
        "astId": 3742,
        "contract": "contracts/wallets/FundWallet.sol:FundWallet",
        "label": "pausers",
        "offset": 0,
        "slot": "151",
        "type": "t_mapping(t_address,t_bool)"
      },
      {
        "astId": 6464,
        "contract": "contracts/wallets/FundWallet.sol:FundWallet",
        "label": "providers",
        "offset": 0,
        "slot": "152",
        "type": "t_contract(IProviders)4232"
      },
      {
        "astId": 1670,
        "contract": "contracts/wallets/FundWallet.sol:FundWallet",
        "label": "_HASHED_NAME",
        "offset": 0,
        "slot": "153",
        "type": "t_bytes32"
      },
      {
        "astId": 1672,
        "contract": "contracts/wallets/FundWallet.sol:FundWallet",
        "label": "_HASHED_VERSION",
        "offset": 0,
        "slot": "154",
        "type": "t_bytes32"
      },
      {
        "astId": 1810,
        "contract": "contracts/wallets/FundWallet.sol:FundWallet",
        "label": "__gap",
        "offset": 0,
        "slot": "155",
        "type": "t_array(t_uint256)50_storage"
      },
      {
        "astId": 8010,
        "contract": "contracts/wallets/FundWallet.sol:FundWallet",
        "label": "billTypedHash",
        "offset": 0,
        "slot": "205",
        "type": "t_bytes32"
      },
      {
        "astId": 8014,
        "contract": "contracts/wallets/FundWallet.sol:FundWallet",
        "label": "token",
        "offset": 0,
        "slot": "206",
        "type": "t_contract(IERC20Upgradeable)462"
      },
      {
        "astId": 8018,
        "contract": "contracts/wallets/FundWallet.sol:FundWallet",
        "label": "adaptor",
        "offset": 0,
        "slot": "207",
        "type": "t_contract(IResourceAdaptor)7976"
      },
      {
        "astId": 339,
        "contract": "contracts/wallets/FundWallet.sol:FundWallet",
        "label": "_status",
        "offset": 0,
        "slot": "208",
        "type": "t_uint256"
      },
      {
        "astId": 383,
        "contract": "contracts/wallets/FundWallet.sol:FundWallet",
        "label": "__gap",
        "offset": 0,
        "slot": "209",
        "type": "t_array(t_uint256)49_storage"
      },
      {
        "astId": 8419,
        "contract": "contracts/wallets/FundWallet.sol:FundWallet",
        "label": "rechargeTypedHash",
        "offset": 0,
        "slot": "258",
        "type": "t_bytes32"
      },
      {
        "astId": 8428,
        "contract": "contracts/wallets/FundWallet.sol:FundWallet",
        "label": "nonces",
        "offset": 0,
        "slot": "259",
        "type": "t_mapping(t_address,t_mapping(t_bytes32,t_mapping(t_uint64,t_enum(Purpose)4013)))"
      },
      {
        "astId": 8435,
        "contract": "contracts/wallets/FundWallet.sol:FundWallet",
        "label": "wallets",
        "offset": 0,
        "slot": "260",
        "type": "t_mapping(t_address,t_mapping(t_bytes32,t_struct(Wallet)4018_storage))"
      }
    ],
    "types": {
      "t_address": {
        "encoding": "inplace",
        "label": "address",
        "numberOfBytes": "20"
      },
      "t_array(t_uint256)49_storage": {
        "base": "t_uint256",
        "encoding": "inplace",
        "label": "uint256[49]",
        "numberOfBytes": "1568"
      },
      "t_array(t_uint256)50_storage": {
        "base": "t_uint256",
        "encoding": "inplace",
        "label": "uint256[50]",
        "numberOfBytes": "1600"
      },
      "t_bool": {
        "encoding": "inplace",
        "label": "bool",
        "numberOfBytes": "1"
      },
      "t_bytes32": {
        "encoding": "inplace",
        "label": "bytes32",
        "numberOfBytes": "32"
      },
      "t_contract(IERC20Upgradeable)462": {
        "encoding": "inplace",
        "label": "contract IERC20Upgradeable",
        "numberOfBytes": "20"
      },
      "t_contract(IProviders)4232": {
        "encoding": "inplace",
        "label": "contract IProviders",
        "numberOfBytes": "20"
      },
      "t_contract(IResourceAdaptor)7976": {
        "encoding": "inplace",
        "label": "contract IResourceAdaptor",
        "numberOfBytes": "20"
      },
      "t_enum(Purpose)4013": {
        "encoding": "inplace",
        "label": "enum IFundWallet.Purpose",
        "numberOfBytes": "1"
      },
      "t_mapping(t_address,t_bool)": {
        "encoding": "mapping",
        "key": "t_address",
        "label": "mapping(address => bool)",
        "numberOfBytes": "32",
        "value": "t_bool"
      },
      "t_mapping(t_address,t_mapping(t_bytes32,t_mapping(t_uint64,t_enum(Purpose)4013)))": {
        "encoding": "mapping",
        "key": "t_address",
        "label": "mapping(address => mapping(bytes32 => mapping(uint64 => enum IFundWallet.Purpose)))",
        "numberOfBytes": "32",
        "value": "t_mapping(t_bytes32,t_mapping(t_uint64,t_enum(Purpose)4013))"
      },
      "t_mapping(t_address,t_mapping(t_bytes32,t_struct(Wallet)4018_storage))": {
        "encoding": "mapping",
        "key": "t_address",
        "label": "mapping(address => mapping(bytes32 => struct IFundWallet.Wallet))",
        "numberOfBytes": "32",
        "value": "t_mapping(t_bytes32,t_struct(Wallet)4018_storage)"
      },
      "t_mapping(t_bytes32,t_mapping(t_uint64,t_enum(Purpose)4013))": {
        "encoding": "mapping",
        "key": "t_bytes32",
        "label": "mapping(bytes32 => mapping(uint64 => enum IFundWallet.Purpose))",
        "numberOfBytes": "32",
        "value": "t_mapping(t_uint64,t_enum(Purpose)4013)"
      },
      "t_mapping(t_bytes32,t_struct(Wallet)4018_storage)": {
        "encoding": "mapping",
        "key": "t_bytes32",
        "label": "mapping(bytes32 => struct IFundWallet.Wallet)",
        "numberOfBytes": "32",
        "value": "t_struct(Wallet)4018_storage"
      },
      "t_mapping(t_uint64,t_enum(Purpose)4013)": {
        "encoding": "mapping",
        "key": "t_uint64",
        "label": "mapping(uint64 => enum IFundWallet.Purpose)",
        "numberOfBytes": "32",
        "value": "t_enum(Purpose)4013"
      },
      "t_struct(Wallet)4018_storage": {
        "encoding": "inplace",
        "label": "struct IFundWallet.Wallet",
        "members": [
          {
            "astId": 4015,
            "contract": "contracts/wallets/FundWallet.sol:FundWallet",
            "label": "owner",
            "offset": 0,
            "slot": "0",
            "type": "t_address"
          },
          {
            "astId": 4017,
            "contract": "contracts/wallets/FundWallet.sol:FundWallet",
            "label": "amount",
            "offset": 0,
            "slot": "1",
            "type": "t_uint256"
          }
        ],
        "numberOfBytes": "64"
      },
      "t_uint256": {
        "encoding": "inplace",
        "label": "uint256",
        "numberOfBytes": "32"
      },
      "t_uint64": {
        "encoding": "inplace",
        "label": "uint64",
        "numberOfBytes": "8"
      }
    }
  }
}