{
  "address": "0xcc2262223617A634bcc3Fc746d3f5d3e55d323B0",
  "abi": [
    {
      "inputs": [],
      "stateMutability": "nonpayable",
      "type": "constructor"
    },
    {
      "anonymous": false,
      "inputs": [
        {
          "indexed": false,
          "internalType": "bytes32",
          "name": "hash",
          "type": "bytes32"
        }
      ],
      "name": "BillTypedHashUpdated",
      "type": "event"
    },
    {
      "anonymous": false,
      "inputs": [
        {
          "indexed": false,
          "internalType": "address",
          "name": "provider",
          "type": "address"
        },
        {
          "indexed": false,
          "internalType": "uint64",
          "name": "nonce",
          "type": "uint64"
        },
        {
          "indexed": false,
          "internalType": "bytes32",
          "name": "account",
          "type": "bytes32"
        },
        {
          "indexed": false,
          "internalType": "bytes",
          "name": "bill",
          "type": "bytes"
        },
        {
          "indexed": false,
          "internalType": "uint256",
          "name": "amount",
          "type": "uint256"
        }
      ],
      "name": "Billing",
      "type": "event"
    },
    {
      "anonymous": false,
      "inputs": [
        {
          "indexed": false,
          "internalType": "address",
          "name": "to",
          "type": "address"
        },
        {
          "indexed": false,
          "internalType": "uint256",
          "name": "value",
          "type": "uint256"
        }
      ],
      "name": "NativeWithdrawal",
      "type": "event"
    },
    {
      "anonymous": false,
      "inputs": [
        {
          "indexed": false,
          "internalType": "address",
          "name": "provider",
          "type": "address"
        },
        {
          "indexed": false,
          "internalType": "bytes32",
          "name": "account",
          "type": "bytes32"
        },
        {
          "indexed": false,
          "internalType": "uint64",
          "name": "nonce",
          "type": "uint64"
        },
        {
          "indexed": false,
          "internalType": "enum IFundWallet.Purpose",
          "name": "purpose",
          "type": "uint8"
        }
      ],
      "name": "NonceUpdated",
      "type": "event"
    },
    {
      "anonymous": false,
      "inputs": [
        {
          "indexed": true,
          "internalType": "address",
          "name": "previousOwner",
          "type": "address"
        },
        {
          "indexed": true,
          "internalType": "address",
          "name": "newOwner",
          "type": "address"
        }
      ],
      "name": "OwnershipTransferred",
      "type": "event"
    },
    {
      "anonymous": false,
      "inputs": [
        {
          "indexed": false,
          "internalType": "address",
          "name": "account",
          "type": "address"
        }
      ],
      "name": "Paused",
      "type": "event"
    },
    {
      "anonymous": false,
      "inputs": [
        {
          "indexed": false,
          "internalType": "address",
          "name": "account",
          "type": "address"
        }
      ],
      "name": "PauserAdded",
      "type": "event"
    },
    {
      "anonymous": false,
      "inputs": [
        {
          "indexed": false,
          "internalType": "address",
          "name": "account",
          "type": "address"
        }
      ],
      "name": "PauserRemoved",
      "type": "event"
    },
    {
      "anonymous": false,
      "inputs": [
        {
          "indexed": false,
          "internalType": "contract IProviders",
          "name": "providers",
          "type": "address"
        }
      ],
      "name": "ProvidersUpdated",
      "type": "event"
    },
    {
      "anonymous": false,
      "inputs": [
        {
          "indexed": false,
          "internalType": "bytes32",
          "name": "hash",
          "type": "bytes32"
        }
      ],
      "name": "RechargeTypedHashUpdated",
      "type": "event"
    },
    {
      "anonymous": false,
      "inputs": [
        {
          "indexed": false,
          "internalType": "address",
          "name": "provider",
          "type": "address"
        },
        {
          "indexed": false,
          "internalType": "uint64",
          "name": "nonce",
          "type": "uint64"
        },
        {
          "indexed": false,
          "internalType": "bytes32",
          "name": "account",
          "type": "bytes32"
        },
        {
          "indexed": false,
          "internalType": "uint256",
          "name": "amount",
          "type": "uint256"
        }
      ],
      "name": "Recharged",
      "type": "event"
    },
    {
      "anonymous": false,
      "inputs": [
        {
          "indexed": false,
          "internalType": "contract IResourceAdaptor",
          "name": "adaptor",
          "type": "address"
        }
      ],
      "name": "ResourceAdaptorUpdated",
      "type": "event"
    },
    {
      "anonymous": false,
      "inputs": [
        {
          "indexed": false,
          "internalType": "address",
          "name": "provider",
          "type": "address"
        },
        {
          "indexed": false,
          "internalType": "uint64",
          "name": "nonce",
          "type": "uint64"
        },
        {
          "indexed": false,
          "internalType": "bytes32",
          "name": "account",
          "type": "bytes32"
        },
        {
          "indexed": false,
          "internalType": "uint256",
          "name": "fee",
          "type": "uint256"
        }
      ],
      "name": "Spent",
      "type": "event"
    },
    {
      "anonymous": false,
      "inputs": [
        {
          "indexed": false,
          "internalType": "contract IERC20Upgradeable",
          "name": "token",
          "type": "address"
        }
      ],
      "name": "TokenUpdated",
      "type": "event"
    },
    {
      "anonymous": false,
      "inputs": [
        {
          "indexed": false,
          "internalType": "address",
          "name": "account",
          "type": "address"
        }
      ],
      "name": "Unpaused",
      "type": "event"
    },
    {
      "anonymous": false,
      "inputs": [
        {
          "indexed": false,
          "internalType": "address",
          "name": "provider",
          "type": "address"
        },
        {
          "indexed": false,
          "internalType": "bytes32",
          "name": "account",
          "type": "bytes32"
        },
        {
          "indexed": false,
          "internalType": "address",
          "name": "newOwner",
          "type": "address"
        }
      ],
      "name": "WalletOwnerTransferred",
      "type": "event"
    },
    {
      "anonymous": false,
      "inputs": [
        {
          "indexed": false,
          "internalType": "contract IERC20Upgradeable",
          "name": "token",
          "type": "address"
        },
        {
          "indexed": false,
          "internalType": "address",
          "name": "to",
          "type": "address"
        },
        {
          "indexed": false,
          "internalType": "uint256",
          "name": "value",
          "type": "uint256"
        }
      ],
      "name": "Withdrawal",
      "type": "event"
    },
    {
      "anonymous": false,
      "inputs": [
        {
          "indexed": false,
          "internalType": "address",
          "name": "provider",
          "type": "address"
        },
        {
          "indexed": false,
          "internalType": "uint64",
          "name": "nonce",
          "type": "uint64"
        },
        {
          "indexed": false,
          "internalType": "bytes32",
          "name": "account",
          "type": "bytes32"
        },
        {
          "indexed": false,
          "internalType": "address",
          "name": "to",
          "type": "address"
        },
        {
          "indexed": false,
          "internalType": "uint256",
          "name": "amount",
          "type": "uint256"
        }
      ],
      "name": "Withdrawn",
      "type": "event"
    },
    {
      "inputs": [],
      "name": "adaptor",
      "outputs": [
        {
          "internalType": "contract IResourceAdaptor",
          "name": "",
          "type": "address"
        }
      ],
      "stateMutability": "view",
      "type": "function"
    },
    {
      "inputs": [
        {
          "internalType": "address",
          "name": "account",
          "type": "address"
        }
      ],
      "name": "addPauser",
      "outputs": [],
      "stateMutability": "nonpayable",
      "type": "function"
    },
    {
      "inputs": [
        {
          "internalType": "address",
          "name": "provider",
          "type": "address"
        },
        {
          "internalType": "bytes32",
          "name": "account",
          "type": "bytes32"
        }
      ],
      "name": "balanceOf",
      "outputs": [
        {
          "internalType": "uint256",
          "name": "",
          "type": "uint256"
        }
      ],
      "stateMutability": "view",
      "type": "function"
    },
    {
      "inputs": [
        {
          "internalType": "address",
          "name": "provider",
          "type": "address"
        },
        {
          "internalType": "uint64",
          "name": "nonce",
          "type": "uint64"
        },
        {
          "internalType": "bytes32",
          "name": "account",
          "type": "bytes32"
        },
        {
          "internalType": "bytes",
          "name": "bill",
          "type": "bytes"
        }
      ],
      "name": "billHash",
      "outputs": [
        {
          "internalType": "bytes32",
          "name": "",
          "type": "bytes32"
        }
      ],
      "stateMutability": "view",
      "type": "function"
    },
    {
      "inputs": [],
      "name": "billTypedHash",
      "outputs": [
        {
          "internalType": "bytes32",
          "name": "",
          "type": "bytes32"
        }
      ],
      "stateMutability": "view",
      "type": "function"
    },
    {
      "inputs": [
        {
          "internalType": "bytes",
          "name": "data",
          "type": "bytes"
        }
      ],
      "name": "decodeBill",
      "outputs": [
        {
          "components": [
            {
              "internalType": "uint256",
              "name": "expiration",
              "type": "uint256"
            },
            {
              "internalType": "uint256",
              "name": "totalValue",
              "type": "uint256"
            },
            {
              "components": [
                {
                  "internalType": "uint256",
                  "name": "indexBlock",
                  "type": "uint256"
                },
                {
                  "components": [
                    {
                      "internalType": "enum ResourceData.ResourceType",
                      "name": "resourceType",
                      "type": "uint8"
                    },
                    {
                      "internalType": "uint256",
                      "name": "amount",
                      "type": "uint256"
                    }
                  ],
                  "internalType": "struct IBilling.BillEntry[]",
                  "name": "entries",
                  "type": "tuple[]"
                }
              ],
              "internalType": "struct IBilling.BillPayload[]",
              "name": "payloads",
              "type": "tuple[]"
            }
          ],
          "internalType": "struct IBilling.Bill",
          "name": "",
          "type": "tuple"
        }
      ],
      "stateMutability": "pure",
      "type": "function"
    },
    {
      "inputs": [
        {
          "components": [
            {
              "internalType": "uint256",
              "name": "expiration",
              "type": "uint256"
            },
            {
              "internalType": "uint256",
              "name": "totalValue",
              "type": "uint256"
            },
            {
              "components": [
                {
                  "internalType": "uint256",
                  "name": "indexBlock",
                  "type": "uint256"
                },
                {
                  "components": [
                    {
                      "internalType": "enum ResourceData.ResourceType",
                      "name": "resourceType",
                      "type": "uint8"
                    },
                    {
                      "internalType": "uint256",
                      "name": "amount",
                      "type": "uint256"
                    }
                  ],
                  "internalType": "struct IBilling.BillEntry[]",
                  "name": "entries",
                  "type": "tuple[]"
                }
              ],
              "internalType": "struct IBilling.BillPayload[]",
              "name": "payloads",
              "type": "tuple[]"
            }
          ],
          "internalType": "struct IBilling.Bill",
          "name": "bill",
          "type": "tuple"
        }
      ],
      "name": "encodeBill",
      "outputs": [
        {
          "internalType": "bytes",
          "name": "",
          "type": "bytes"
        }
      ],
      "stateMutability": "pure",
      "type": "function"
    },
    {
      "inputs": [
        {
          "internalType": "address",
          "name": "provider",
          "type": "address"
        },
        {
          "internalType": "uint64",
          "name": "nonce",
          "type": "uint64"
        },
        {
          "internalType": "bytes32",
          "name": "account",
          "type": "bytes32"
        },
        {
          "internalType": "bytes",
          "name": "bill",
          "type": "bytes"
        }
      ],
      "name": "hashTypedDataV4ForBill",
      "outputs": [
        {
          "internalType": "bytes32",
          "name": "",
          "type": "bytes32"
        }
      ],
      "stateMutability": "view",
      "type": "function"
    },
    {
      "inputs": [
        {
          "internalType": "address",
          "name": "provider",
          "type": "address"
        },
        {
          "internalType": "uint64",
          "name": "nonce",
          "type": "uint64"
        },
        {
          "internalType": "bytes32",
          "name": "account",
          "type": "bytes32"
        },
        {
          "internalType": "uint256",
          "name": "amount",
          "type": "uint256"
        }
      ],
      "name": "hashTypedDataV4ForRecharge",
      "outputs": [
        {
          "internalType": "bytes32",
          "name": "",
          "type": "bytes32"
        }
      ],
      "stateMutability": "view",
      "type": "function"
    },
    {
      "inputs": [
        {
          "internalType": "address",
          "name": "owner",
          "type": "address"
        },
        {
          "internalType": "address",
          "name": "pauser",
          "type": "address"
        },
        {
          "internalType": "contract IResourceAdaptor",
          "name": "adaptor",
          "type": "address"
        },
        {
          "internalType": "contract IProviders",
          "name": "_providers",
          "type": "address"
        },
        {
          "internalType": "contract IERC20Upgradeable",
          "name": "_token",
          "type": "address"
        },
        {
          "internalType": "string",
          "name": "name",
          "type": "string"
        },
        {
          "internalType": "string",
          "name": "version",
          "type": "string"
        },
        {
          "internalType": "string",
          "name": "rechargeTypes",
          "type": "string"
        },
        {
          "internalType": "string",
          "name": "billTypes",
          "type": "string"
        }
      ],
      "name": "initialize",
      "outputs": [],
      "stateMutability": "nonpayable",
      "type": "function"
    },
    {
      "inputs": [
        {
          "internalType": "address",
          "name": "account",
          "type": "address"
        }
      ],
      "name": "isPauser",
      "outputs": [
        {
          "internalType": "bool",
          "name": "",
          "type": "bool"
        }
      ],
      "stateMutability": "view",
      "type": "function"
    },
    {
      "inputs": [
        {
          "internalType": "uint256",
          "name": "value",
          "type": "uint256"
        }
      ],
      "name": "matchResourceToToken",
      "outputs": [
        {
          "internalType": "uint256",
          "name": "",
          "type": "uint256"
        }
      ],
      "stateMutability": "view",
      "type": "function"
    },
    {
      "inputs": [
        {
          "internalType": "uint256",
          "name": "value",
          "type": "uint256"
        }
      ],
      "name": "matchTokenToResource",
      "outputs": [
        {
          "internalType": "uint256",
          "name": "",
          "type": "uint256"
        }
      ],
      "stateMutability": "view",
      "type": "function"
    },
    {
      "inputs": [
        {
          "internalType": "address",
          "name": "",
          "type": "address"
        },
        {
          "internalType": "bytes32",
          "name": "",
          "type": "bytes32"
        },
        {
          "internalType": "uint64",
          "name": "",
          "type": "uint64"
        }
      ],
      "name": "nonces",
      "outputs": [
        {
          "internalType": "enum IFundWallet.Purpose",
          "name": "",
          "type": "uint8"
        }
      ],
      "stateMutability": "view",
      "type": "function"
    },
    {
      "inputs": [],
      "name": "owner",
      "outputs": [
        {
          "internalType": "address",
          "name": "",
          "type": "address"
        }
      ],
      "stateMutability": "view",
      "type": "function"
    },
    {
      "inputs": [
        {
          "internalType": "address",
          "name": "provider",
          "type": "address"
        },
        {
          "internalType": "bytes32",
          "name": "account",
          "type": "bytes32"
        }
      ],
      "name": "ownerOf",
      "outputs": [
        {
          "internalType": "address",
          "name": "",
          "type": "address"
        }
      ],
      "stateMutability": "view",
      "type": "function"
    },
    {
      "inputs": [
        {
          "internalType": "contract IERC20Upgradeable",
          "name": "token",
          "type": "address"
        },
        {
          "internalType": "address",
          "name": "to",
          "type": "address"
        },
        {
          "internalType": "uint256",
          "name": "value",
          "type": "uint256"
        }
      ],
      "name": "ownerWithdrawERC20",
      "outputs": [],
      "stateMutability": "nonpayable",
      "type": "function"
    },
    {
      "inputs": [
        {
          "internalType": "address payable",
          "name": "to",
          "type": "address"
        },
        {
          "internalType": "uint256",
          "name": "value",
          "type": "uint256"
        }
      ],
      "name": "ownerWithdrawNative",
      "outputs": [],
      "stateMutability": "nonpayable",
      "type": "function"
    },
    {
      "inputs": [],
      "name": "pause",
      "outputs": [],
      "stateMutability": "nonpayable",
      "type": "function"
    },
    {
      "inputs": [],
      "name": "paused",
      "outputs": [
        {
          "internalType": "bool",
          "name": "",
          "type": "bool"
        }
      ],
      "stateMutability": "view",
      "type": "function"
    },
    {
      "inputs": [
        {
          "internalType": "address",
          "name": "",
          "type": "address"
        }
      ],
      "name": "pausers",
      "outputs": [
        {
          "internalType": "bool",
          "name": "",
          "type": "bool"
        }
      ],
      "stateMutability": "view",
      "type": "function"
    },
    {
      "inputs": [],
      "name": "providers",
      "outputs": [
        {
          "internalType": "contract IProviders",
          "name": "",
          "type": "address"
        }
      ],
      "stateMutability": "view",
      "type": "function"
    },
    {
      "inputs": [
        {
          "internalType": "address",
          "name": "provider",
          "type": "address"
        },
        {
          "internalType": "uint64",
          "name": "nonce",
          "type": "uint64"
        },
        {
          "internalType": "bytes32",
          "name": "account",
          "type": "bytes32"
        },
        {
          "internalType": "uint256",
          "name": "amount",
          "type": "uint256"
        },
        {
          "internalType": "bytes",
          "name": "signature",
          "type": "bytes"
        }
      ],
      "name": "recharge",
      "outputs": [],
      "stateMutability": "nonpayable",
      "type": "function"
    },
    {
      "inputs": [
        {
          "internalType": "address",
          "name": "provider",
          "type": "address"
        },
        {
          "internalType": "uint64",
          "name": "nonce",
          "type": "uint64"
        },
        {
          "internalType": "bytes32",
          "name": "account",
          "type": "bytes32"
        },
        {
          "internalType": "uint256",
          "name": "amount",
          "type": "uint256"
        }
      ],
      "name": "rechargeHash",
      "outputs": [
        {
          "internalType": "bytes32",
          "name": "",
          "type": "bytes32"
        }
      ],
      "stateMutability": "view",
      "type": "function"
    },
    {
      "inputs": [],
      "name": "rechargeTypedHash",
      "outputs": [
        {
          "internalType": "bytes32",
          "name": "",
          "type": "bytes32"
        }
      ],
      "stateMutability": "view",
      "type": "function"
    },
    {
      "inputs": [
        {
          "internalType": "address",
          "name": "account",
          "type": "address"
        }
      ],
      "name": "removePauser",
      "outputs": [],
      "stateMutability": "nonpayable",
      "type": "function"
    },
    {
      "inputs": [],
      "name": "renounceOwnership",
      "outputs": [],
      "stateMutability": "nonpayable",
      "type": "function"
    },
    {
      "inputs": [],
      "name": "renouncePauser",
      "outputs": [],
      "stateMutability": "nonpayable",
      "type": "function"
    },
    {
      "inputs": [],
      "name": "resourceDecimals",
      "outputs": [
        {
          "internalType": "uint256",
          "name": "",
          "type": "uint256"
        }
      ],
      "stateMutability": "view",
      "type": "function"
    },
    {
      "inputs": [
        {
          "internalType": "string",
          "name": "types",
          "type": "string"
        }
      ],
      "name": "setBillTypedHash",
      "outputs": [],
      "stateMutability": "nonpayable",
      "type": "function"
    },
    {
      "inputs": [
        {
          "internalType": "string",
          "name": "types",
          "type": "string"
        }
      ],
      "name": "setRechargeTypedHash",
      "outputs": [],
      "stateMutability": "nonpayable",
      "type": "function"
    },
    {
      "inputs": [
        {
          "internalType": "contract IERC20Upgradeable",
          "name": "_token",
          "type": "address"
        }
      ],
      "name": "setToken",
      "outputs": [],
      "stateMutability": "nonpayable",
      "type": "function"
    },
    {
      "inputs": [
        {
          "internalType": "address",
          "name": "provider",
          "type": "address"
        },
        {
          "internalType": "uint64",
          "name": "nonce",
          "type": "uint64"
        },
        {
          "internalType": "bytes32",
          "name": "account",
          "type": "bytes32"
        },
        {
          "internalType": "bytes",
          "name": "bill",
          "type": "bytes"
        },
        {
          "internalType": "bytes",
          "name": "signature",
          "type": "bytes"
        }
      ],
      "name": "spend",
      "outputs": [
        {
          "internalType": "uint256",
          "name": "fee",
          "type": "uint256"
        }
      ],
      "stateMutability": "nonpayable",
      "type": "function"
    },
    {
      "inputs": [],
      "name": "token",
      "outputs": [
        {
          "internalType": "contract IERC20Upgradeable",
          "name": "",
          "type": "address"
        }
      ],
      "stateMutability": "view",
      "type": "function"
    },
    {
      "inputs": [],
      "name": "tokenDecimals",
      "outputs": [
        {
          "internalType": "uint256",
          "name": "",
          "type": "uint256"
        }
      ],
      "stateMutability": "view",
      "type": "function"
    },
    {
      "inputs": [
        {
          "internalType": "address",
          "name": "newOwner",
          "type": "address"
        }
      ],
      "name": "transferOwnership",
      "outputs": [],
      "stateMutability": "nonpayable",
      "type": "function"
    },
    {
      "inputs": [
        {
          "internalType": "address",
          "name": "provider",
          "type": "address"
        },
        {
          "internalType": "bytes32",
          "name": "account",
          "type": "bytes32"
        },
        {
          "internalType": "address",
          "name": "newOwner",
          "type": "address"
        }
      ],
      "name": "transferWalletOwner",
      "outputs": [],
      "stateMutability": "nonpayable",
      "type": "function"
    },
    {
      "inputs": [],
      "name": "unpause",
      "outputs": [],
      "stateMutability": "nonpayable",
      "type": "function"
    },
    {
      "inputs": [
        {
          "internalType": "address",
          "name": "provider",
          "type": "address"
        },
        {
          "internalType": "uint64",
          "name": "nonce",
          "type": "uint64"
        },
        {
          "internalType": "bytes32",
          "name": "account",
          "type": "bytes32"
        },
        {
          "internalType": "address",
          "name": "to",
          "type": "address"
        },
        {
          "internalType": "uint256",
          "name": "amount",
          "type": "uint256"
        },
        {
          "internalType": "bytes",
          "name": "bill",
          "type": "bytes"
        },
        {
          "internalType": "bytes",
          "name": "signature",
          "type": "bytes"
        }
      ],
      "name": "withdraw",
      "outputs": [
        {
          "internalType": "uint256",
          "name": "fee",
          "type": "uint256"
        }
      ],
      "stateMutability": "nonpayable",
      "type": "function"
    }
  ],
  "transactionHash": "0xc5007638fbfe10a7be3d670b6f6095a0d06ff1381d7d36cf9bc2520f5ebb4164",
  "args": [],
  "solcInputHash": "4f81d9fc22cd86d4453804f33931cd41",
  "bytecode": "0x60806040523480156200001157600080fd5b50600054610100900460ff166200002f5760005460ff161562000039565b620000396200009e565b620000615760405162461bcd60e51b81526004016200005890620000cb565b60405180910390fd5b600054610100900460ff1615801562000084576000805461ffff19166101011790555b801562000097576000805461ff00191690555b5062000124565b6000620000b630620000bc60201b6200118e1760201c565b15905090565b6001600160a01b03163b151590565b602080825281016200011e81602e81527f496e697469616c697a61626c653a20636f6e747261637420697320616c72656160208201526d191e481a5b9a5d1a585b1a5e995960921b604082015260600190565b92915050565b613d6e80620001346000396000f3fe608060405234801561001057600080fd5b506004361061023d5760003560e01c80637acc238b1161013b578063d29ed85e116100b8578063f12973d31161007c578063f12973d314610523578063f2fde38b14610536578063f674529614610549578063f8401fe61461055c578063fc0c546a1461056f57600080fd5b8063d29ed85e146104d7578063d5ed04b6146104e0578063da66bd67146104f3578063ddc5517e14610506578063e7356a071461051957600080fd5b80638f1a1438116100ff5780638f1a14381461046b578063924bf9a71461047e57806393563a9514610491578063a50d817d146104a4578063c2cd9b2b146104b757600080fd5b80637acc238b1461040057806380f51c121461041357806382dc1ec4146104365780638456cb59146104495780638da5cb5b1461045157600080fd5b80634bf1fcda116101c9578063699256f41161018d578063699256f4146103b75780636b2c0f55146103ca5780636d9d0ae1146103dd5780636ef8d66d146103f0578063715018a6146103f857600080fd5b80634bf1fcda146103165780634d30b6be146103585780635ab9d73b146103925780635c975abb146103a557806368b86954146103b057600080fd5b80633b97e856116102105780633b97e856146102b35780633f4ba83a146102bb5780633fe1d581146102c357806345386600146102d657806346fbf68e146102f657600080fd5b8063144fa6d7146102425780631f6975ec1461025757806324496dbb146102805780632d9a4f4914610293575b600080fd5b610255610250366004612080565b610588565b005b61026a6102653660046121d9565b6105c7565b60405161027791906122b4565b60405180910390f35b61025561028e3660046122c2565b6107eb565b6102a66102a1366004612579565b6108c2565b6040516102779190612611565b61026a6108eb565b610255610997565b61026a6102d1366004612622565b6109c6565b6102e96102e4366004612686565b6109e7565b604051610277919061286b565b61030961030436600461287c565b610a25565b60405161027791906128a5565b61034b6103243660046128b3565b61010260209081526000938452604080852082529284528284209052825290205460ff1681565b6040516102779190612927565b61026a610366366004612935565b6001600160a01b0391909116600090815261010360209081526040808320938352929052206001015490565b6102556103a0366004612972565b610a43565b609c5460ff16610309565b601261026a565b6102556103c5366004612935565b610b71565b6102556103d836600461287c565b610c1f565b6102556103eb366004612686565b610c52565b610255610c8c565b610255610c95565b61025561040e366004612686565b610cc9565b61030961042136600461287c565b60ce6020526000908152604090205460ff1681565b61025561044436600461287c565b610d03565b610255610d36565b606a546001600160a01b03165b6040516102779190612a0d565b61026a610479366004612622565b610d63565b61026a61048c366004612a1b565b610da1565b61025561049f366004612a8d565b610db2565b61026a6104b2366004612ad3565b610e23565b6037546104ca906001600160a01b031681565b6040516102779190612b5b565b61026a60365481565b61026a6104ee366004612a1b565b610fa0565b61045e610501366004612935565b610fc4565b610255610514366004612b69565b610fed565b61026a6101015481565b61026a610531366004612c98565b6110b1565b61025561054436600461287c565b611105565b61026a610557366004612c98565b61115e565b6001546104ca906001600160a01b031681565b6000546104ca906201000090046001600160a01b031681565b606a546001600160a01b031633146105bb5760405162461bcd60e51b81526004016105b290612cee565b60405180910390fd5b6105c48161119d565b50565b6000878688836001600160a01b03841660009081526101026020908152604080832086845282528083206001600160401b038616845290915290205460ff166003811115610617576106176126c0565b146106345760405162461bcd60e51b81526004016105b290612d32565b6001600160a01b03808c166000908152610103602090815260408083208d84529091529020548c918b9116331461067d5760405162461bcd60e51b81526004016105b290612d88565b609c5460ff16156106a05760405162461bcd60e51b81526004016105b290612dbf565b600260cf5414156106c35760405162461bcd60e51b81526004016105b290612e03565b600260cf558c8b8d8c8c8c8c6106dc878688858561122c565b6001600160a01b0388166000908152610103602090815260408083208a8452909152812060010154919e5090610712908f611422565b9050838110156107345760405162461bcd60e51b81526004016105b290612e45565b61073e8185611422565b6001600160a01b03808a166000908152610103602090815260408083208c8452909152812060010192909255905461077f9162010000909104168686611435565b61078c8888886003611490565b7f26b8aa9e5d4f71b867c84264e57eab543daba6bf03a6ac7c3be51697b5132f7088878988886040516107c3959493929190612e64565b60405180910390a15050505050505050600160cf819055505050505050979650505050505050565b609c5460ff161561080e5760405162461bcd60e51b81526004016105b290612dbf565b6001600160a01b03808416600090815261010360209081526040808320868452909152902054849184911633146108575760405162461bcd60e51b81526004016105b290612d88565b60006108638686610fc4565b6001600160a01b0316141561088a5760405162461bcd60e51b81526004016105b290612ef1565b6001600160a01b0383166108b05760405162461bcd60e51b81526004016105b290612f35565b6108bb85858561152a565b5050505050565b6060816040516020016108d5919061286b565b6040516020818303038152906040529050919050565b60008060008060029054906101000a90046001600160a01b03166001600160a01b031660405161091a90612f45565b600060405180830381855afa9150503d8060008114610955576040519150601f19603f3d011682016040523d82523d6000602084013e61095a565b606091505b50915091508161097c5760405162461bcd60e51b81526004016105b290612f9d565b808060200190518101906109909190612fb8565b9250505090565b6109a033610a25565b6109bc5760405162461bcd60e51b81526004016105b29061300b565b6109c4611599565b565b60006109dc6109d786868686610d63565b6115ff565b90505b949350505050565b610a0b60405180606001604052806000815260200160008152602001606081525090565b81806020019051810190610a1f9190613230565b92915050565b6001600160a01b0316600090815260ce602052604090205460ff1690565b84838560006001600160a01b03841660009081526101026020908152604080832086845282528083206001600160401b038616845290915290205460ff166003811115610a9257610a926126c0565b14610aaf5760405162461bcd60e51b81526004016105b290612d32565b609c5460ff1615610ad25760405162461bcd60e51b81526004016105b290612dbf565b600260cf541415610af55760405162461bcd60e51b81526004016105b290612e03565b600260cf556000610b068988610fc4565b6001600160a01b031614610b4a5733610b1f8988610fc4565b6001600160a01b031614610b455760405162461bcd60e51b81526004016105b2906132b1565b610b55565b610b5588873361152a565b610b628888888888611612565b5050600160cf55505050505050565b606a546001600160a01b03163314610b9b5760405162461bcd60e51b81526004016105b290612cee565b6040516000906001600160a01b0384169083156108fc0290849084818181858888f19350505050905080610be15760405162461bcd60e51b81526004016105b290613303565b7f2c876ecb97b3c6854f2488d373403f903eacb800e51c159a5c0c7a9c857e48278383604051610c12929190613313565b60405180910390a1505050565b606a546001600160a01b03163314610c495760405162461bcd60e51b81526004016105b290612cee565b6105c4816117a9565b606a546001600160a01b03163314610c7c5760405162461bcd60e51b81526004016105b290612cee565b6105c4818051906020012061181e565b6109c4336117a9565b606a546001600160a01b03163314610cbf5760405162461bcd60e51b81526004016105b290612cee565b6109c46000611853565b606a546001600160a01b03163314610cf35760405162461bcd60e51b81526004016105b290612cee565b6105c481805190602001206118a5565b606a546001600160a01b03163314610d2d5760405162461bcd60e51b81526004016105b290612cee565b6105c4816118db565b610d3f33610a25565b610d5b5760405162461bcd60e51b81526004016105b29061300b565b6109c4611954565b60006101015485858585604051602001610d8195949392919061332e565b604051602081830303815290604052805190602001209050949350505050565b60006109dc6109d786868686610fa0565b606a546001600160a01b03163314610ddc5760405162461bcd60e51b81526004016105b290612cee565b610df06001600160a01b0384168383611435565b7f2717ead6b9200dd235aad468c9809ea400fe33ac69b5bfaa6d3e90fc922b6398838383604051610c1293929190613363565b6000858486836001600160a01b03841660009081526101026020908152604080832086845282528083206001600160401b038616845290915290205460ff166003811115610e7357610e736126c0565b14610e905760405162461bcd60e51b81526004016105b290612d32565b609c5460ff1615610eb35760405162461bcd60e51b81526004016105b290612dbf565b600260cf541415610ed65760405162461bcd60e51b81526004016105b290612e03565b600260cf55610ee8898989898961122c565b6001600160a01b038a166000908152610103602090815260408083208b8452909152902060010154909450610f1d9085611422565b6001600160a01b038a166000908152610103602090815260408083208b8452909152902060010155610f5289888a6002611490565b7fc4a9f6eaf73a138a29597f8fb9a703d716bfb70ed6d23bb9c0f40971e9801eca89898987604051610f87949392919061338b565b60405180910390a15050600160cf555095945050505050565b60006036548585858580519060200120604051602001610d8195949392919061332e565b6001600160a01b0391821660009081526101036020908152604080832093835292905220541690565b600054610100900460ff166110085760005460ff161561100c565b303b155b6110285760405162461bcd60e51b81526004016105b29061340b565b600054610100900460ff1615801561104a576000805461ffff19166101011790555b6110538a611853565b61105c896119ac565b611065876119d3565b61106e88611a03565b61107786611a33565b6110818585611a5a565b61108a83611a8f565b61109382611ab6565b80156110a5576000805461ff00191690555b50505050505050505050565b6000806110bc6108eb565b905060128082116110e6576109df6110d48284611422565b6110df90600a61353f565b8590611add565b6109df6110f38383611422565b6110fe90600a61353f565b8590611ae9565b606a546001600160a01b0316331461112f5760405162461bcd60e51b81526004016105b290612cee565b6001600160a01b0381166111555760405162461bcd60e51b81526004016105b290613591565b6105c481611853565b6000806111696108eb565b90506012808211611181576109df6110f38284611422565b6109df6110d48383611422565b6001600160a01b03163b151590565b6001600160a01b0381166111c35760405162461bcd60e51b81526004016105b2906135e3565b6000805462010000600160b01b031916620100006001600160a01b03848116820292909217928390556040517f5ba6b30cd4b2f9e9e67f4feb9b9df10d5da3b057598e6901b217b7d590345e30936112219392900490911690612b5b565b60405180910390a150565b600154604051636b074a0760e01b81526000916001600160a01b031690636b074a079061125d903390600401612a0d565b60206040518083038186803b15801561127557600080fd5b505afa158015611289573d6000803e3d6000fd5b505050506040513d601f19601f820116820180604052508101906112ad9190613606565b6112c95760405162461bcd60e51b81526004016105b290613665565b60006112d787878787610da1565b6001546040516311c5268f60e11b81529192506001600160a01b03169063238a4d1e9061130c908a9085908890600401613675565b602060405180830381600087803b15801561132657600080fd5b505af115801561133a573d6000803e3d6000fd5b505050506040513d601f19601f8201168201806040525081019061135e9190613606565b61137a5760405162461bcd60e51b81526004016105b2906136d6565b8351156113d9576001600160a01b0387166000908152610103602090815260408083208884529091529020600101546113b561053186611af5565b9250828110156113d75760405162461bcd60e51b81526004016105b29061371a565b505b7f086575d4de5bb5f0addd08773b7097a00aaa37120293013f54da4433812adfa7878787878660405161141095949392919061372a565b60405180910390a15095945050505050565b600061142e8284613773565b9392505050565b61148b8363a9059cbb60e01b848460405160240161145492919061378a565b60408051601f198184030181529190526020810180516001600160e01b03166001600160e01b031990931692909217909152611cd3565b505050565b6001600160a01b03841660009081526101026020908152604080832086845282528083206001600160401b03861684529091529020805482919060ff191660018360038111156114e2576114e26126c0565b02179055507fc4f15e84da288f27234e3626e64c8035b984fd65cee49fcd86b4910de1d13e7c8484848460405161151c9493929190613798565b60405180910390a150505050565b6001600160a01b038381166000908152610103602090815260408083208684529091529081902080546001600160a01b03191692841692909217909155517f4ddee4675a37f5c882a56b9be609ea55023c460cafb24ab74c1cb024abc84b3b90610c12908590859085906137cd565b609c5460ff166115bb5760405162461bcd60e51b81526004016105b290613820565b609c805460ff191690557f5db9ee0a495bf2e6ff9c91a7834c1ba4fdd244a5e8aa4e537bd38aeae4b073aa335b6040516115f59190612a0d565b60405180910390a1565b6000610a1f61160c611d62565b83611d9e565b600082116116325760405162461bcd60e51b81526004016105b290613864565b6000611640868686866109c6565b6001546040516311c5268f60e11b81529192506001600160a01b03169063238a4d1e9061167590899085908790600401613675565b602060405180830381600087803b15801561168f57600080fd5b505af11580156116a3573d6000803e3d6000fd5b505050506040513d601f19601f820116820180604052508101906116c79190613606565b6116e35760405162461bcd60e51b81526004016105b2906138a8565b6001600160a01b0386166000908152610103602090815260408083208784529091529020600101546117159084611dd1565b6001600160a01b038088166000908152610103602090815260408083208984529091528120600101929092559054611757916201000090910416333086611ddd565b6117648685876001611490565b7f20615f51b8701e825dbc8fd5f5e6909964726a9082f971d65f494860fd3ae39686868686604051611799949392919061338b565b60405180910390a1505050505050565b6117b281610a25565b6117ce5760405162461bcd60e51b81526004016105b2906138ec565b6001600160a01b038116600090815260ce602052604090819020805460ff19169055517fcd265ebaf09df2871cc7bd4133404a235ba12eff2041bb89d9c714a2621c7c7e90611221908390612a0d565b60368190556040517f44e8ce8f81d5513d3e950d9a75224f8ff590d2687c88df09ffc509671aa670a1906112219083906122b4565b606a80546001600160a01b038381166001600160a01b0319831681179093556040519116919082907f8be0079c531659141344cd1fd0a4f28419497f9722a3daafe3b4186f6b6457e090600090a35050565b6101018190556040517f921d5c4a3c33eaff9e0f2fee28d7dd04f45183c3070cc30adfd5d90be5154699906112219083906122b4565b6118e481610a25565b156119015760405162461bcd60e51b81526004016105b29061393a565b6001600160a01b038116600090815260ce602052604090819020805460ff19166001179055517f6719d08c1888103bea251a4ed56406bd0c3e69723c8a1686e017e7bbe159b6f890611221908390612a0d565b609c5460ff16156119775760405162461bcd60e51b81526004016105b290612dbf565b609c805460ff191660011790557f62e78cea01bee320cd4e420270b5ea74000d11b0c9f74754ebdbfc544b05a2586115e83390565b600054610100900460ff16610d2d5760405162461bcd60e51b81526004016105b290613992565b600054610100900460ff166119fa5760405162461bcd60e51b81526004016105b290613992565b6105c481611e04565b600054610100900460ff16611a2a5760405162461bcd60e51b81526004016105b290613992565b6105c481611e4f565b600054610100900460ff166105bb5760405162461bcd60e51b81526004016105b290613992565b600054610100900460ff16611a815760405162461bcd60e51b81526004016105b290613992565b611a8b8282611ec0565b5050565b600054610100900460ff16610cf35760405162461bcd60e51b81526004016105b290613992565b600054610100900460ff16610c7c5760405162461bcd60e51b81526004016105b290613992565b600061142e82846139b8565b600061142e82846139cc565b60008082806020019051810190611b0c9190613230565b905042816000015110611b315760405162461bcd60e51b81526004016105b290613a17565b600081604001515111611b565760405162461bcd60e51b81526004016105b290613a5b565b60005b816040015151811015611ca957600082604001518281518110611b7e57611b7e613a6b565b60200260200101519050600081602001515111611bad5760405162461bcd60e51b81526004016105b290613abf565b60005b816020015151811015611c9457600082602001518481518110611bd557611bd5613a6b565b60209081029190910181015160375481519282015186516040516354bf93b960e11b81529395506000946001600160a01b039093169363a97f277293611c219390929091600401613acf565b60206040518083038186803b158015611c3957600080fd5b505afa158015611c4d573d6000803e3d6000fd5b505050506040513d601f19601f82011682018060405250810190611c719190612fb8565b9050611c7d8782611dd1565b965050508080611c8c90613aea565b915050611bb0565b50508080611ca190613aea565b915050611b59565b5080602001518214611ccd5760405162461bcd60e51b81526004016105b290613b31565b50919050565b6000611d28826040518060400160405280602081526020017f5361666545524332303a206c6f772d6c6576656c2063616c6c206661696c6564815250856001600160a01b0316611f019092919063ffffffff16565b80519091501561148b5780806020019051810190611d469190613606565b61148b5760405162461bcd60e51b81526004016105b290613b88565b6000611d997f8b73c3c69bb8fe3d512ecc4cf759cc79239f7b179b0ffacaa9a75d522b39400f611d9160025490565b600354611f10565b905090565b60008282604051602001611db3929190613b9e565b60405160208183030381529060405280519060200120905092915050565b600061142e8284613bcf565b611dfe846323b872dd60e01b85858560405160240161145493929190613be7565b50505050565b600180546001600160a01b0319166001600160a01b0383161790556040517fe63288198842f0dacdcbdc3f22dcd4e473d1f3cee7e10603ae6ddc3e667c528490611221908390612b5b565b6001600160a01b038116611e755760405162461bcd60e51b81526004016105b290613c21565b603780546001600160a01b0319166001600160a01b0383161790556040517fcb398744d70dd9f7eb9e1e65c9c74f4d3276143240e25316135eb6585db6c1c190611221908390612b5b565b600054610100900460ff16611ee75760405162461bcd60e51b81526004016105b290613992565b815160209283012081519190920120600291909155600355565b60606109df8484600085611f4a565b60008383834630604051602001611f2b959493929190613c31565b6040516020818303038152906040528051906020012090509392505050565b606082471015611f6c5760405162461bcd60e51b81526004016105b290613cb6565b6001600160a01b0385163b611f935760405162461bcd60e51b81526004016105b290613cfa565b600080866001600160a01b03168587604051611faf9190613d2c565b60006040518083038185875af1925050503d8060008114611fec576040519150601f19603f3d011682016040523d82523d6000602084013e611ff1565b606091505b509150915061200182828661200c565b979650505050505050565b6060831561201b57508161142e565b82511561202b5782518084602001fd5b8160405162461bcd60e51b81526004016105b29190612611565b60006001600160a01b038216610a1f565b6000610a1f82612045565b61206a81612056565b81146105c457600080fd5b8035610a1f81612061565b60006020828403121561209557612095600080fd5b60006109df8484612075565b61206a81612045565b8035610a1f816120a1565b6001600160401b03811661206a565b8035610a1f816120b5565b8061206a565b8035610a1f816120cf565b634e487b7160e01b600052604160045260246000fd5b601f19601f83011681018181106001600160401b038211171561211b5761211b6120e0565b6040525050565b600061212d60405190565b905061213982826120f6565b919050565b60006001600160401b03821115612157576121576120e0565b601f19601f83011660200192915050565b82818337506000910152565b60006121876121828461213e565b612122565b9050828152602081018484840111156121a2576121a2600080fd5b6121ad848285612168565b509392505050565b600082601f8301126121c9576121c9600080fd5b81356109df848260208601612174565b600080600080600080600060e0888a0312156121f7576121f7600080fd5b60006122038a8a6120aa565b97505060206122148a828b016120c4565b96505060406122258a828b016120d5565b95505060606122368a828b016120aa565b94505060806122478a828b016120d5565b93505060a08801356001600160401b0381111561226657612266600080fd5b6122728a828b016121b5565b92505060c08801356001600160401b0381111561229157612291600080fd5b61229d8a828b016121b5565b91505092959891949750929550565b805b82525050565b60208101610a1f82846122ac565b6000806000606084860312156122da576122da600080fd5b60006122e686866120aa565b93505060206122f7868287016120d5565b9250506040612308868287016120aa565b9150509250925092565b60006001600160401b0382111561232b5761232b6120e0565b5060209081020190565b600581106105c457600080fd5b8035610a1f81612335565b60006040828403121561236257612362600080fd5b61236c6040612122565b9050600061237a8484612342565b825250602061238b848483016120d5565b60208301525092915050565b60006123a561218284612312565b838152905060208101604084028301858111156123c4576123c4600080fd5b835b818110156123ea57806123d9888261234d565b8452506020909201916040016123c6565b5050509392505050565b600082601f83011261240857612408600080fd5b81356109df848260208601612397565b60006040828403121561242d5761242d600080fd5b6124376040612122565b9050600061244584846120d5565b82525060208201356001600160401b0381111561246457612464600080fd5b61238b848285016123f4565b600061247e61218284612312565b8381529050602080820190840283018581111561249d5761249d600080fd5b835b818110156123ea5780356001600160401b038111156124c0576124c0600080fd5b8086016124cd8982612418565b855250506020928301920161249f565b600082601f8301126124f1576124f1600080fd5b81356109df848260208601612470565b60006060828403121561251657612516600080fd5b6125206060612122565b9050600061252e84846120d5565b825250602061253f848483016120d5565b60208301525060408201356001600160401b0381111561256157612561600080fd5b61256d848285016124dd565b60408301525092915050565b60006020828403121561258e5761258e600080fd5b81356001600160401b038111156125a7576125a7600080fd5b6109df84828501612501565b60005b838110156125ce5781810151838201526020016125b6565b83811115611dfe5750506000910152565b60006125e9825190565b8084526020840193506126008185602086016125b3565b601f01601f19169290920192915050565b6020808252810161142e81846125df565b6000806000806080858703121561263b5761263b600080fd5b600061264787876120aa565b9450506020612658878288016120c4565b9350506040612669878288016120d5565b925050606061267a878288016120d5565b91505092959194509250565b60006020828403121561269b5761269b600080fd5b81356001600160401b038111156126b4576126b4600080fd5b6109df848285016121b5565b634e487b7160e01b600052602160045260246000fd5b600581106105c4576105c46126c0565b80612139816126d6565b6000610a1f826126e6565b6122ae816126f0565b8051604083019061271584826126fb565b506020820151611dfe60208501826122ac565b60006127348383612704565b505060400190565b6000612746825190565b80845260209384019383018060005b8381101561277a5781516127698882612728565b975060208301925050600101612755565b509495945050505050565b8051600090604084019061279985826122ac565b50602083015184820360208601526127b1828261273c565b95945050505050565b600061142e8383612785565b60006127d0825190565b808452602084019350836020820285016127ea8560200190565b8060005b8581101561281f578484038952815161280785826127ba565b94506020830160209a909a01999250506001016127ee565b5091979650505050505050565b8051600090606084019061284085826122ac565b50602083015161285360208601826122ac565b50604083015184820360408601526127b182826127c6565b6020808252810161142e818461282c565b60006020828403121561289157612891600080fd5b60006109df84846120aa565b8015156122ae565b60208101610a1f828461289d565b6000806000606084860312156128cb576128cb600080fd5b60006128d786866120aa565b93505060206128e8868287016120d5565b9250506040612308868287016120c4565b600481106105c4576105c46126c0565b80612139816128f9565b6000610a1f82612909565b6122ae81612913565b60208101610a1f828461291e565b6000806040838503121561294b5761294b600080fd5b600061295785856120aa565b9250506020612968858286016120d5565b9150509250929050565b600080600080600060a0868803121561298d5761298d600080fd5b600061299988886120aa565b95505060206129aa888289016120c4565b94505060406129bb888289016120d5565b93505060606129cc888289016120d5565b92505060808601356001600160401b038111156129eb576129eb600080fd5b6129f7888289016121b5565b9150509295509295909350565b6122ae81612045565b60208101610a1f8284612a04565b60008060008060808587031215612a3457612a34600080fd5b6000612a4087876120aa565b9450506020612a51878288016120c4565b9350506040612a62878288016120d5565b92505060608501356001600160401b03811115612a8157612a81600080fd5b61267a878288016121b5565b600080600060608486031215612aa557612aa5600080fd5b6000612ab18686612075565b9350506020612ac2868287016120aa565b9250506040612308868287016120d5565b600080600080600060a08688031215612aee57612aee600080fd5b6000612afa88886120aa565b9550506020612b0b888289016120c4565b9450506040612b1c888289016120d5565b93505060608601356001600160401b03811115612b3b57612b3b600080fd5b6129cc888289016121b5565b6000610a1f82612056565b6122ae81612b47565b60208101610a1f8284612b52565b60008060008060008060008060006101208a8c031215612b8b57612b8b600080fd5b6000612b978c8c6120aa565b9950506020612ba88c828d016120aa565b9850506040612bb98c828d01612075565b9750506060612bca8c828d01612075565b9650506080612bdb8c828d01612075565b95505060a08a01356001600160401b03811115612bfa57612bfa600080fd5b612c068c828d016121b5565b94505060c08a01356001600160401b03811115612c2557612c25600080fd5b612c318c828d016121b5565b93505060e08a01356001600160401b03811115612c5057612c50600080fd5b612c5c8c828d016121b5565b9250506101008a01356001600160401b03811115612c7c57612c7c600080fd5b612c888c828d016121b5565b9150509295985092959850929598565b600060208284031215612cad57612cad600080fd5b60006109df84846120d5565b60208082527f4f776e61626c653a2063616c6c6572206973206e6f7420746865206f776e6572910190815260005b5060200190565b60208082528101610a1f81612cb9565b601981526000602082017f46756e6457616c6c65743a20696e76616c6964206e6f6e63650000000000000081529150612ce7565b60208082528101610a1f81612cfe565b602681526000602082017f46756e6457616c6c65743a2063616c6c6572206973206e6f742077616c6c65748152651037bbb732b960d11b602082015291505b5060400190565b60208082528101610a1f81612d42565b601081526000602082016f14185d5cd8589b194e881c185d5cd95960821b81529150612ce7565b60208082528101610a1f81612d98565b601f81526000602082017f5265656e7472616e637947756172643a207265656e7472616e742063616c6c0081529150612ce7565b60208082528101610a1f81612dcf565b60208082527f46756e6457616c6c65743a20696e73756666696369656e742062616c616e636591019081526000612ce7565b60208082528101610a1f81612e13565b6001600160401b0381166122ae565b60a08101612e728288612a04565b612e7f6020830187612e55565b612e8c60408301866122ac565b612e996060830185612a04565b612ea660808301846122ac565b9695505050505050565b602481526000602082017f46756e6457616c6c65743a206e6f6e6578697374656e742077616c6c6574206f8152633bb732b960e11b60208201529150612d81565b60208082528101610a1f81612eb0565b601881526000602082017f46756e6457616c6c65743a207a65726f2061646472657373000000000000000081529150612ce7565b60208082528101610a1f81612f01565b63313ce56760e01b8152600060048201610a1f565b602681526000602082017f5265736f75726365506179546f6b656e577261707065723a20696e76616c6964815265103a37b5b2b760d11b60208201529150612d81565b60208082528101610a1f81612f5a565b8051610a1f816120cf565b600060208284031215612fcd57612fcd600080fd5b60006109df8484612fad565b60208082527f5061757365723a2063616c6c6572206973206e6f74207468652070617573657291019081526000612ce7565b60208082528101610a1f81612fd9565b8051610a1f81612335565b60006040828403121561303b5761303b600080fd5b6130456040612122565b90506000613053848461301b565b825250602061238b84848301612fad565b600061307261218284612312565b8381529050602081016040840283018581111561309157613091600080fd5b835b818110156123ea57806130a68882613026565b845250602090920191604001613093565b600082601f8301126130cb576130cb600080fd5b81516109df848260208601613064565b6000604082840312156130f0576130f0600080fd5b6130fa6040612122565b905060006131088484612fad565b82525060208201516001600160401b0381111561312757613127600080fd5b61238b848285016130b7565b600061314161218284612312565b8381529050602080820190840283018581111561316057613160600080fd5b835b818110156123ea5780516001600160401b0381111561318357613183600080fd5b80860161319089826130db565b8552505060209283019201613162565b600082601f8301126131b4576131b4600080fd5b81516109df848260208601613133565b6000606082840312156131d9576131d9600080fd5b6131e36060612122565b905060006131f18484612fad565b825250602061320284848301612fad565b60208301525060408201516001600160401b0381111561322457613224600080fd5b61256d848285016131a0565b60006020828403121561324557613245600080fd5b81516001600160401b0381111561325e5761325e600080fd5b6109df848285016131c4565b602a81526000602082017f46756e6457616c6c65743a2063616c6c6572206973206e6f7420746865207761815269363632ba1037bbb732b960b11b60208201529150612d81565b60208082528101610a1f8161326a565b602581526000602082017f5061796d656e743a207769746864726177206e617469766520746f6b656e2066815264185a5b195960da1b60208201529150612d81565b60208082528101610a1f816132c1565b604081016133218285612b52565b61142e60208301846122ac565b60a0810161333c82886122ac565b6133496020830187612a04565b6133566040830186612e55565b612e9960608301856122ac565b606081016133718286612b52565b61337e6020830185612a04565b6109df60408301846122ac565b608081016133998287612a04565b6133a66020830186612e55565b6133b360408301856122ac565b6127b160608301846122ac565b602e81526000602082017f496e697469616c697a61626c653a20636f6e747261637420697320616c72656181526d191e481a5b9a5d1a585b1a5e995960921b60208201529150612d81565b60208082528101610a1f816133c0565b634e487b7160e01b600052601160045260246000fd5b80825b60018511156134705780860481111561344f5761344f61341b565b600185161561345d57908102905b80026134698560011c90565b9450613434565b94509492505050565b6000826134885750600161142e565b816134955750600061142e565b81600181146134ab57600281146134b5576134e2565b600191505061142e565b60ff8411156134c6576134c661341b565b8360020a9150848211156134dc576134dc61341b565b5061142e565b5060208310610133831016604e8410600b8410161715613515575081810a838111156135105761351061341b565b61142e565b6135228484846001613431565b925090508184048111156135385761353861341b565b0292915050565b600061142e6000198484613479565b602681526000602082017f4f776e61626c653a206e6577206f776e657220697320746865207a65726f206181526564647265737360d01b60208201529150612d81565b60208082528101610a1f8161354e565b602581526000602082017f5265736f75726365506179546f6b656e577261707065723a207a65726f206164815264647265737360d81b60208201529150612d81565b60208082528101610a1f816135a1565b80151561206a565b8051610a1f816135f3565b60006020828403121561361b5761361b600080fd5b60006109df84846135fb565b602181526000602082017f42696c6c696e673a2063616c6c6572206973206e6f7420612070726f766964658152603960f91b60208201529150612d81565b60208082528101610a1f81613627565b606081016136838286612a04565b61369060208301856122ac565b81810360408301526109dc81846125df565b601a81526000602082017f42696c6c696e673a20696e76616c6964207369676e617475726500000000000081529150612ce7565b60208082528101610a1f816136a2565b601d81526000602082017f42696c6c696e673a20696e73756666696369656e742062616c616e636500000081529150612ce7565b60208082528101610a1f816136e6565b60a081016137388288612a04565b6137456020830187612e55565b61375260408301866122ac565b818103606083015261376481856125df565b9050612ea660808301846122ac565b6000828210156137855761378561341b565b500390565b604081016133218285612a04565b608081016137a68287612a04565b6137b360208301866122ac565b6137c06040830185612e55565b6127b1606083018461291e565b606081016137db8286612a04565b6137e860208301856122ac565b6109df6040830184612a04565b601481526000602082017314185d5cd8589b194e881b9bdd081c185d5cd95960621b81529150612ce7565b60208082528101610a1f816137f5565b601781526000602082017f46756e6457616c6c65743a207a65726f20616d6f756e7400000000000000000081529150612ce7565b60208082528101610a1f81613830565b601d81526000602082017f46756e6457616c6c65743a20696e76616c6964207369676e617475726500000081529150612ce7565b60208082528101610a1f81613874565b601d81526000602082017f5061757365723a206163636f756e74206973206e6f742070617573657200000081529150612ce7565b60208082528101610a1f816138b8565b602181526000602082017f5061757365723a206163636f756e7420697320616c72656164792070617573658152603960f91b60208201529150612d81565b60208082528101610a1f816138fc565b602b81526000602082017f496e697469616c697a61626c653a20636f6e7472616374206973206e6f74206981526a6e697469616c697a696e6760a81b60208201529150612d81565b60208082528101610a1f8161394a565b634e487b7160e01b600052601260045260246000fd5b6000826139c7576139c76139a2565b500490565b60008160001904831182151516156139e6576139e661341b565b500290565b6015815260006020820174109a5b1b1a5b99ce88189a5b1b08195e1c1a5c9959605a1b81529150612ce7565b60208082528101610a1f816139eb565b601c81526000602082017f42696c6c696e673a20656d7074792062696c6c207061796c6f6164730000000081529150612ce7565b60208082528101610a1f81613a27565b634e487b7160e01b600052603260045260246000fd5b602181526000602082017f42696c6c696e673a20656d7074792062696c6c207061796c6f616420656e74728152607960f81b60208201529150612d81565b60208082528101610a1f81613a81565b60608101613add82866126fb565b61337e60208301856122ac565b6000600019821415613afe57613afe61341b565b5060010190565b6015815260006020820174109a5b1b1a5b99ce881a5b9d985b1a5908189a5b1b605a1b81529150612ce7565b60208082528101610a1f81613b05565b602a81526000602082017f5361666545524332303a204552433230206f7065726174696f6e20646964206e8152691bdd081cdd58d8d9595960b21b60208201529150612d81565b60208082528101610a1f81613b41565b806122ae565b61190160f01b81526002016000613bb58285613b98565b602082019150613bc58284613b98565b5060200192915050565b60008219821115613be257613be261341b565b500190565b606081016133718286612a04565b601581526000602082017442696c6c696e673a207a65726f206164647265737360581b81529150612ce7565b60208082528101610a1f81613bf5565b60a08101613c3f82886122ac565b613c4c60208301876122ac565b613c5960408301866122ac565b613c6660608301856122ac565b612ea66080830184612a04565b602681526000602082017f416464726573733a20696e73756666696369656e742062616c616e636520666f8152651c8818d85b1b60d21b60208201529150612d81565b60208082528101610a1f81613c73565b601d81526000602082017f416464726573733a2063616c6c20746f206e6f6e2d636f6e747261637400000081529150612ce7565b60208082528101610a1f81613cc6565b6000613d14825190565b613d228185602086016125b3565b9290920192915050565b600061142e8284613d0a56fea2646970667358221220745675a5283c3faca29962136cbdb32f6f1b13471546917a956714113eceacbf64736f6c63430008090033",
  "devdoc": {
    "author": "Alexandas",
    "details": "FundWallet contract",
    "kind": "dev",
    "methods": {
      "addPauser(address)": {
        "details": "add a pauser for the contract",
        "params": {
          "account": "address"
        }
      },
      "balanceOf(address,bytes32)": {
        "details": "return balance of account",
        "params": {
          "account": "user account",
          "provider": "provider address"
        },
        "returns": {
          "_0": "balance of account account"
        }
      },
      "billHash(address,uint64,bytes32,bytes)": {
        "details": "return hash for bill",
        "params": {
          "account": "user account",
          "bill": "user bill",
          "nonce": "nonce",
          "provider": "provider address"
        },
        "returns": {
          "_0": "bill hash"
        }
      },
      "decodeBill(bytes)": {
        "details": "decode bill bytes to user bill",
        "params": {
          "data": "bill bytes"
        },
        "returns": {
          "_0": "user bill"
        }
      },
      "encodeBill((uint256,uint256,(uint256,(uint8,uint256)[])[]))": {
        "details": "encode bill to bytes",
        "params": {
          "bill": "user bill"
        },
        "returns": {
          "_0": "bill bytes"
        }
      },
      "hashTypedDataV4ForBill(address,uint64,bytes32,bytes)": {
        "details": "return hash typed v4 for sign",
        "params": {
          "account": "user account",
          "bill": "user bill",
          "nonce": "nonce",
          "provider": "provider address"
        },
        "returns": {
          "_0": "bill hash typed v4"
        }
      },
      "hashTypedDataV4ForRecharge(address,uint64,bytes32,uint256)": {
        "details": "return recharge hash typed v4",
        "params": {
          "account": "user account",
          "amount": "token amount",
          "nonce": "nonce",
          "provider": "provider address"
        },
        "returns": {
          "_0": "recharge hash typed v4"
        }
      },
      "initialize(address,address,address,address,address,string,string,string,string)": {
        "details": "proxy initialize function",
        "params": {
          "_providers": "providers contract address",
          "_token": "token address",
          "adaptor": "resource adaptor contract address",
          "billTypes": "bill types",
          "name": "EIP712 domain name",
          "owner": "contract owner",
          "pauser": "contract pauser",
          "rechargeTypes": "recharge types",
          "version": "EIP712 domain version"
        }
      },
      "isPauser(address)": {
        "details": "whether the account is the contract pauser",
        "params": {
          "account": "address"
        },
        "returns": {
          "_0": "whether account is a pauser"
        }
      },
      "matchResourceToToken(uint256)": {
        "details": "match value to token decimals",
        "params": {
          "value": "resource value"
        },
        "returns": {
          "_0": "token value"
        }
      },
      "matchTokenToResource(uint256)": {
        "details": "match token amount to resource decimals",
        "params": {
          "value": "token amount with resource decimals"
        },
        "returns": {
          "_0": "resource value"
        }
      },
      "owner()": {
        "details": "Returns the address of the current owner."
      },
      "ownerOf(address,bytes32)": {
        "details": "return owner of account",
        "params": {
          "account": "user account",
          "provider": "provider address"
        },
        "returns": {
          "_0": "owner wallet owner for account"
        }
      },
      "ownerWithdrawERC20(address,address,uint256)": {
        "details": "withdraw token",
        "params": {
          "to": "receiver address",
          "token": "token address",
          "value": "token value"
        }
      },
      "ownerWithdrawNative(address,uint256)": {
        "details": "withdraw ETH",
        "params": {
          "to": "receiver address",
          "value": "token value"
        }
      },
      "pause()": {
        "details": "pause the contract"
      },
      "paused()": {
        "details": "Returns true if the contract is paused, and false otherwise."
      },
      "recharge(address,uint64,bytes32,uint256,bytes)": {
        "details": "recharge for account",
        "params": {
          "account": "user account",
          "amount": "token amount",
          "nonce": "nonce",
          "provider": "provider address",
          "signature": "provider signature"
        }
      },
      "rechargeHash(address,uint64,bytes32,uint256)": {
        "details": "return recharge typed hash",
        "params": {
          "account": "user account",
          "amount": "token amount",
          "nonce": "nonce",
          "provider": "provider address"
        },
        "returns": {
          "_0": "recharge typed hash"
        }
      },
      "removePauser(address)": {
        "details": "remove a pauser for the contract",
        "params": {
          "account": "address"
        }
      },
      "renounceOwnership()": {
        "details": "Leaves the contract without owner. It will not be possible to call `onlyOwner` functions anymore. Can only be called by the current owner. NOTE: Renouncing ownership will leave the contract without an owner, thereby removing any functionality that is only available to the owner."
      },
      "renouncePauser()": {
        "details": "remove a pauser for the contract"
      },
      "resourceDecimals()": {
        "details": "return resource decimals",
        "returns": {
          "_0": "resource decimals"
        }
      },
      "setBillTypedHash(string)": {
        "details": "update bill typed hash",
        "params": {
          "types": "bill types"
        }
      },
      "setRechargeTypedHash(string)": {
        "details": "update recharge typed hash",
        "params": {
          "types": "recharge types"
        }
      },
      "setToken(address)": {
        "details": "update token",
        "params": {
          "_token": "token address"
        }
      },
      "spend(address,uint64,bytes32,bytes,bytes)": {
        "details": "spend bill for account",
        "params": {
          "account": "user account",
          "bill": "bill bytes",
          "fee": "bill fee",
          "nonce": "nonce",
          "provider": "provider address",
          "signature": "provider signature"
        }
      },
      "tokenDecimals()": {
        "details": "return token decimals",
        "returns": {
          "_0": "token decimals"
        }
      },
      "transferOwnership(address)": {
        "details": "Transfers ownership of the contract to a new account (`newOwner`). Can only be called by the current owner."
      },
      "transferWalletOwner(address,bytes32,address)": {
        "details": "transfer wallet owner for account",
        "params": {
          "account": "user account",
          "newOwner": "new wallet owner for account",
          "provider": "provider address"
        }
      },
      "unpause()": {
        "details": "unpause the contract"
      },
      "withdraw(address,uint64,bytes32,address,uint256,bytes,bytes)": {
        "details": "withdraw token for account",
        "params": {
          "account": "user account",
          "amount": "token amount",
          "bill": "bill bytes",
          "nonce": "nonce",
          "provider": "provider address",
          "signature": "provider signature",
          "to": "token receiver"
        },
        "returns": {
          "fee": "bill fee"
        }
      }
    },
    "stateVariables": {
      "nonces": {
        "details": "provider nonces for account"
      },
      "rechargeTypedHash": {
        "details": "keccak256(\"Recharge(address provider,uint64 nonce,bytes32 account,uint256 amount)\")"
      },
      "wallets": {
        "details": "account wallet"
      }
    },
    "version": 1
  },
  "userdoc": {
    "kind": "user",
    "methods": {},
    "version": 1
  },
  "storageLayout": {
    "storage": [
      {
        "astId": 147,
        "contract": "contracts/wallets/FundWallet.sol:FundWallet",
        "label": "_initialized",
        "offset": 0,
        "slot": "0",
        "type": "t_bool"
      },
      {
        "astId": 150,
        "contract": "contracts/wallets/FundWallet.sol:FundWallet",
        "label": "_initializing",
        "offset": 1,
        "slot": "0",
        "type": "t_bool"
      },
      {
        "astId": 6341,
        "contract": "contracts/wallets/FundWallet.sol:FundWallet",
        "label": "token",
        "offset": 2,
        "slot": "0",
        "type": "t_contract(IERC20Upgradeable)462"
      },
      {
        "astId": 7044,
        "contract": "contracts/wallets/FundWallet.sol:FundWallet",
        "label": "providers",
        "offset": 0,
        "slot": "1",
        "type": "t_contract(IProviders)4293"
      },
      {
        "astId": 1670,
        "contract": "contracts/wallets/FundWallet.sol:FundWallet",
        "label": "_HASHED_NAME",
        "offset": 0,
        "slot": "2",
        "type": "t_bytes32"
      },
      {
        "astId": 1672,
        "contract": "contracts/wallets/FundWallet.sol:FundWallet",
        "label": "_HASHED_VERSION",
        "offset": 0,
        "slot": "3",
        "type": "t_bytes32"
      },
      {
        "astId": 1810,
        "contract": "contracts/wallets/FundWallet.sol:FundWallet",
        "label": "__gap",
        "offset": 0,
        "slot": "4",
        "type": "t_array(t_uint256)50_storage"
      },
      {
        "astId": 8690,
        "contract": "contracts/wallets/FundWallet.sol:FundWallet",
        "label": "billTypedHash",
        "offset": 0,
        "slot": "54",
        "type": "t_bytes32"
      },
      {
        "astId": 8695,
        "contract": "contracts/wallets/FundWallet.sol:FundWallet",
        "label": "adaptor",
        "offset": 0,
        "slot": "55",
        "type": "t_contract(IResourceAdaptor)8650"
      },
      {
        "astId": 970,
        "contract": "contracts/wallets/FundWallet.sol:FundWallet",
        "label": "__gap",
        "offset": 0,
        "slot": "56",
        "type": "t_array(t_uint256)50_storage"
      },
      {
        "astId": 10,
        "contract": "contracts/wallets/FundWallet.sol:FundWallet",
        "label": "_owner",
        "offset": 0,
        "slot": "106",
        "type": "t_address"
      },
      {
        "astId": 122,
        "contract": "contracts/wallets/FundWallet.sol:FundWallet",
        "label": "__gap",
        "offset": 0,
        "slot": "107",
        "type": "t_array(t_uint256)49_storage"
      },
      {
        "astId": 235,
        "contract": "contracts/wallets/FundWallet.sol:FundWallet",
        "label": "_paused",
        "offset": 0,
        "slot": "156",
        "type": "t_bool"
      },
      {
        "astId": 324,
        "contract": "contracts/wallets/FundWallet.sol:FundWallet",
        "label": "__gap",
        "offset": 0,
        "slot": "157",
        "type": "t_array(t_uint256)49_storage"
      },
      {
        "astId": 3749,
        "contract": "contracts/wallets/FundWallet.sol:FundWallet",
        "label": "pausers",
        "offset": 0,
        "slot": "206",
        "type": "t_mapping(t_address,t_bool)"
      },
      {
        "astId": 339,
        "contract": "contracts/wallets/FundWallet.sol:FundWallet",
        "label": "_status",
        "offset": 0,
        "slot": "207",
        "type": "t_uint256"
      },
      {
        "astId": 383,
        "contract": "contracts/wallets/FundWallet.sol:FundWallet",
        "label": "__gap",
        "offset": 0,
        "slot": "208",
        "type": "t_array(t_uint256)49_storage"
      },
      {
        "astId": 9090,
        "contract": "contracts/wallets/FundWallet.sol:FundWallet",
        "label": "rechargeTypedHash",
        "offset": 0,
        "slot": "257",
        "type": "t_bytes32"
      },
      {
        "astId": 9100,
        "contract": "contracts/wallets/FundWallet.sol:FundWallet",
        "label": "nonces",
        "offset": 0,
        "slot": "258",
        "type": "t_mapping(t_address,t_mapping(t_bytes32,t_mapping(t_uint64,t_enum(Purpose)4029)))"
      },
      {
        "astId": 9108,
        "contract": "contracts/wallets/FundWallet.sol:FundWallet",
        "label": "wallets",
        "offset": 0,
        "slot": "259",
        "type": "t_mapping(t_address,t_mapping(t_bytes32,t_struct(Wallet)4034_storage))"
      }
    ],
    "types": {
      "t_address": {
        "encoding": "inplace",
        "label": "address",
        "numberOfBytes": "20"
      },
      "t_array(t_uint256)49_storage": {
        "base": "t_uint256",
        "encoding": "inplace",
        "label": "uint256[49]",
        "numberOfBytes": "1568"
      },
      "t_array(t_uint256)50_storage": {
        "base": "t_uint256",
        "encoding": "inplace",
        "label": "uint256[50]",
        "numberOfBytes": "1600"
      },
      "t_bool": {
        "encoding": "inplace",
        "label": "bool",
        "numberOfBytes": "1"
      },
      "t_bytes32": {
        "encoding": "inplace",
        "label": "bytes32",
        "numberOfBytes": "32"
      },
      "t_contract(IERC20Upgradeable)462": {
        "encoding": "inplace",
        "label": "contract IERC20Upgradeable",
        "numberOfBytes": "20"
      },
      "t_contract(IProviders)4293": {
        "encoding": "inplace",
        "label": "contract IProviders",
        "numberOfBytes": "20"
      },
      "t_contract(IResourceAdaptor)8650": {
        "encoding": "inplace",
        "label": "contract IResourceAdaptor",
        "numberOfBytes": "20"
      },
      "t_enum(Purpose)4029": {
        "encoding": "inplace",
        "label": "enum IFundWallet.Purpose",
        "numberOfBytes": "1"
      },
      "t_mapping(t_address,t_bool)": {
        "encoding": "mapping",
        "key": "t_address",
        "label": "mapping(address => bool)",
        "numberOfBytes": "32",
        "value": "t_bool"
      },
      "t_mapping(t_address,t_mapping(t_bytes32,t_mapping(t_uint64,t_enum(Purpose)4029)))": {
        "encoding": "mapping",
        "key": "t_address",
        "label": "mapping(address => mapping(bytes32 => mapping(uint64 => enum IFundWallet.Purpose)))",
        "numberOfBytes": "32",
        "value": "t_mapping(t_bytes32,t_mapping(t_uint64,t_enum(Purpose)4029))"
      },
      "t_mapping(t_address,t_mapping(t_bytes32,t_struct(Wallet)4034_storage))": {
        "encoding": "mapping",
        "key": "t_address",
        "label": "mapping(address => mapping(bytes32 => struct IFundWallet.Wallet))",
        "numberOfBytes": "32",
        "value": "t_mapping(t_bytes32,t_struct(Wallet)4034_storage)"
      },
      "t_mapping(t_bytes32,t_mapping(t_uint64,t_enum(Purpose)4029))": {
        "encoding": "mapping",
        "key": "t_bytes32",
        "label": "mapping(bytes32 => mapping(uint64 => enum IFundWallet.Purpose))",
        "numberOfBytes": "32",
        "value": "t_mapping(t_uint64,t_enum(Purpose)4029)"
      },
      "t_mapping(t_bytes32,t_struct(Wallet)4034_storage)": {
        "encoding": "mapping",
        "key": "t_bytes32",
        "label": "mapping(bytes32 => struct IFundWallet.Wallet)",
        "numberOfBytes": "32",
        "value": "t_struct(Wallet)4034_storage"
      },
      "t_mapping(t_uint64,t_enum(Purpose)4029)": {
        "encoding": "mapping",
        "key": "t_uint64",
        "label": "mapping(uint64 => enum IFundWallet.Purpose)",
        "numberOfBytes": "32",
        "value": "t_enum(Purpose)4029"
      },
      "t_struct(Wallet)4034_storage": {
        "encoding": "inplace",
        "label": "struct IFundWallet.Wallet",
        "members": [
          {
            "astId": 4031,
            "contract": "contracts/wallets/FundWallet.sol:FundWallet",
            "label": "owner",
            "offset": 0,
            "slot": "0",
            "type": "t_address"
          },
          {
            "astId": 4033,
            "contract": "contracts/wallets/FundWallet.sol:FundWallet",
            "label": "amount",
            "offset": 0,
            "slot": "1",
            "type": "t_uint256"
          }
        ],
        "numberOfBytes": "64"
      },
      "t_uint256": {
        "encoding": "inplace",
        "label": "uint256",
        "numberOfBytes": "32"
      },
      "t_uint64": {
        "encoding": "inplace",
        "label": "uint64",
        "numberOfBytes": "8"
      }
    }
  }
}