{
  "address": "0x661739950da390Fb4D82BC406CeD2586d45188bd",
  "abi": [
    {
      "inputs": [],
      "stateMutability": "nonpayable",
      "type": "constructor"
    },
    {
      "anonymous": false,
      "inputs": [
        {
          "indexed": false,
          "internalType": "address",
          "name": "provider",
          "type": "address"
        },
        {
          "indexed": false,
          "internalType": "uint64",
          "name": "nonce",
          "type": "uint64"
        },
        {
          "indexed": false,
          "internalType": "bytes32",
          "name": "account",
          "type": "bytes32"
        },
        {
          "indexed": false,
          "internalType": "bytes",
          "name": "bills",
          "type": "bytes"
        },
        {
          "indexed": false,
          "internalType": "uint256",
          "name": "amount",
          "type": "uint256"
        }
      ],
      "name": "Billing",
      "type": "event"
    },
    {
      "anonymous": false,
      "inputs": [
        {
          "indexed": false,
          "internalType": "bytes32",
          "name": "hash",
          "type": "bytes32"
        }
      ],
      "name": "BillsTypedHashUpdated",
      "type": "event"
    },
    {
      "anonymous": false,
      "inputs": [
        {
          "indexed": false,
          "internalType": "address",
          "name": "to",
          "type": "address"
        },
        {
          "indexed": false,
          "internalType": "uint256",
          "name": "value",
          "type": "uint256"
        }
      ],
      "name": "NativeWithdrawal",
      "type": "event"
    },
    {
      "anonymous": false,
      "inputs": [
        {
          "indexed": false,
          "internalType": "address",
          "name": "provider",
          "type": "address"
        },
        {
          "indexed": false,
          "internalType": "bytes32",
          "name": "account",
          "type": "bytes32"
        },
        {
          "indexed": false,
          "internalType": "uint64",
          "name": "nonce",
          "type": "uint64"
        },
        {
          "indexed": false,
          "internalType": "enum IFundWallet.Purpose",
          "name": "purpose",
          "type": "uint8"
        }
      ],
      "name": "NonceUpdated",
      "type": "event"
    },
    {
      "anonymous": false,
      "inputs": [
        {
          "indexed": true,
          "internalType": "address",
          "name": "previousOwner",
          "type": "address"
        },
        {
          "indexed": true,
          "internalType": "address",
          "name": "newOwner",
          "type": "address"
        }
      ],
      "name": "OwnershipTransferred",
      "type": "event"
    },
    {
      "anonymous": false,
      "inputs": [
        {
          "indexed": false,
          "internalType": "address",
          "name": "account",
          "type": "address"
        }
      ],
      "name": "Paused",
      "type": "event"
    },
    {
      "anonymous": false,
      "inputs": [
        {
          "indexed": false,
          "internalType": "address",
          "name": "account",
          "type": "address"
        }
      ],
      "name": "PauserAdded",
      "type": "event"
    },
    {
      "anonymous": false,
      "inputs": [
        {
          "indexed": false,
          "internalType": "address",
          "name": "account",
          "type": "address"
        }
      ],
      "name": "PauserRemoved",
      "type": "event"
    },
    {
      "anonymous": false,
      "inputs": [
        {
          "indexed": false,
          "internalType": "contract IProviders",
          "name": "providers",
          "type": "address"
        }
      ],
      "name": "ProvidersUpdated",
      "type": "event"
    },
    {
      "anonymous": false,
      "inputs": [
        {
          "indexed": false,
          "internalType": "bytes32",
          "name": "hash",
          "type": "bytes32"
        }
      ],
      "name": "RechargeTypedHashUpdated",
      "type": "event"
    },
    {
      "anonymous": false,
      "inputs": [
        {
          "indexed": false,
          "internalType": "address",
          "name": "provider",
          "type": "address"
        },
        {
          "indexed": false,
          "internalType": "uint64",
          "name": "nonce",
          "type": "uint64"
        },
        {
          "indexed": false,
          "internalType": "bytes32",
          "name": "account",
          "type": "bytes32"
        },
        {
          "indexed": false,
          "internalType": "uint256",
          "name": "amount",
          "type": "uint256"
        }
      ],
      "name": "Recharged",
      "type": "event"
    },
    {
      "anonymous": false,
      "inputs": [
        {
          "indexed": false,
          "internalType": "contract IResourceAdaptor",
          "name": "adaptor",
          "type": "address"
        }
      ],
      "name": "ResourceAdaptorUpdated",
      "type": "event"
    },
    {
      "anonymous": false,
      "inputs": [
        {
          "indexed": false,
          "internalType": "contract IERC20Upgradeable",
          "name": "token",
          "type": "address"
        }
      ],
      "name": "TokenUpdated",
      "type": "event"
    },
    {
      "anonymous": false,
      "inputs": [
        {
          "indexed": false,
          "internalType": "address",
          "name": "account",
          "type": "address"
        }
      ],
      "name": "Unpaused",
      "type": "event"
    },
    {
      "anonymous": false,
      "inputs": [
        {
          "indexed": false,
          "internalType": "address",
          "name": "provider",
          "type": "address"
        },
        {
          "indexed": false,
          "internalType": "bytes32",
          "name": "account",
          "type": "bytes32"
        },
        {
          "indexed": false,
          "internalType": "address",
          "name": "newOwner",
          "type": "address"
        }
      ],
      "name": "WalletOwnerTransferred",
      "type": "event"
    },
    {
      "anonymous": false,
      "inputs": [
        {
          "indexed": false,
          "internalType": "contract IERC20Upgradeable",
          "name": "token",
          "type": "address"
        },
        {
          "indexed": false,
          "internalType": "address",
          "name": "to",
          "type": "address"
        },
        {
          "indexed": false,
          "internalType": "uint256",
          "name": "value",
          "type": "uint256"
        }
      ],
      "name": "Withdrawal",
      "type": "event"
    },
    {
      "anonymous": false,
      "inputs": [
        {
          "indexed": false,
          "internalType": "address",
          "name": "provider",
          "type": "address"
        },
        {
          "indexed": false,
          "internalType": "uint64",
          "name": "nonce",
          "type": "uint64"
        },
        {
          "indexed": false,
          "internalType": "bytes32",
          "name": "account",
          "type": "bytes32"
        },
        {
          "indexed": false,
          "internalType": "address",
          "name": "to",
          "type": "address"
        },
        {
          "indexed": false,
          "internalType": "uint256",
          "name": "amount",
          "type": "uint256"
        }
      ],
      "name": "Withdrawn",
      "type": "event"
    },
    {
      "inputs": [],
      "name": "adaptor",
      "outputs": [
        {
          "internalType": "contract IResourceAdaptor",
          "name": "",
          "type": "address"
        }
      ],
      "stateMutability": "view",
      "type": "function"
    },
    {
      "inputs": [
        {
          "internalType": "address",
          "name": "account",
          "type": "address"
        }
      ],
      "name": "addPauser",
      "outputs": [],
      "stateMutability": "nonpayable",
      "type": "function"
    },
    {
      "inputs": [
        {
          "internalType": "address",
          "name": "provider",
          "type": "address"
        },
        {
          "internalType": "bytes32",
          "name": "account",
          "type": "bytes32"
        }
      ],
      "name": "balanceOf",
      "outputs": [
        {
          "internalType": "uint256",
          "name": "",
          "type": "uint256"
        }
      ],
      "stateMutability": "view",
      "type": "function"
    },
    {
      "inputs": [
        {
          "internalType": "address",
          "name": "provider",
          "type": "address"
        },
        {
          "internalType": "uint64",
          "name": "nonce",
          "type": "uint64"
        },
        {
          "internalType": "bytes32",
          "name": "account",
          "type": "bytes32"
        },
        {
          "internalType": "bytes",
          "name": "bills",
          "type": "bytes"
        },
        {
          "internalType": "uint256",
          "name": "expiration",
          "type": "uint256"
        }
      ],
      "name": "billsHash",
      "outputs": [
        {
          "internalType": "bytes32",
          "name": "",
          "type": "bytes32"
        }
      ],
      "stateMutability": "view",
      "type": "function"
    },
    {
      "inputs": [],
      "name": "billsTypedHash",
      "outputs": [
        {
          "internalType": "bytes32",
          "name": "",
          "type": "bytes32"
        }
      ],
      "stateMutability": "view",
      "type": "function"
    },
    {
      "inputs": [
        {
          "internalType": "bytes",
          "name": "data",
          "type": "bytes"
        }
      ],
      "name": "decodeBills",
      "outputs": [
        {
          "components": [
            {
              "internalType": "uint256",
              "name": "indexBlock",
              "type": "uint256"
            },
            {
              "components": [
                {
                  "internalType": "enum ResourceData.ResourceType",
                  "name": "resourceType",
                  "type": "uint8"
                },
                {
                  "internalType": "uint256",
                  "name": "amount",
                  "type": "uint256"
                }
              ],
              "internalType": "struct IBilling.BillEntry[]",
              "name": "entries",
              "type": "tuple[]"
            }
          ],
          "internalType": "struct IBilling.Bill[]",
          "name": "",
          "type": "tuple[]"
        }
      ],
      "stateMutability": "pure",
      "type": "function"
    },
    {
      "inputs": [
        {
          "components": [
            {
              "internalType": "uint256",
              "name": "indexBlock",
              "type": "uint256"
            },
            {
              "components": [
                {
                  "internalType": "enum ResourceData.ResourceType",
                  "name": "resourceType",
                  "type": "uint8"
                },
                {
                  "internalType": "uint256",
                  "name": "amount",
                  "type": "uint256"
                }
              ],
              "internalType": "struct IBilling.BillEntry[]",
              "name": "entries",
              "type": "tuple[]"
            }
          ],
          "internalType": "struct IBilling.Bill[]",
          "name": "bills",
          "type": "tuple[]"
        }
      ],
      "name": "encodeBills",
      "outputs": [
        {
          "internalType": "bytes",
          "name": "",
          "type": "bytes"
        }
      ],
      "stateMutability": "pure",
      "type": "function"
    },
    {
      "inputs": [
        {
          "internalType": "address",
          "name": "provider",
          "type": "address"
        },
        {
          "internalType": "uint64",
          "name": "nonce",
          "type": "uint64"
        },
        {
          "internalType": "bytes32",
          "name": "account",
          "type": "bytes32"
        },
        {
          "internalType": "bytes",
          "name": "bills",
          "type": "bytes"
        },
        {
          "internalType": "uint256",
          "name": "expiration",
          "type": "uint256"
        }
      ],
      "name": "hashTypedDataV4ForBills",
      "outputs": [
        {
          "internalType": "bytes32",
          "name": "",
          "type": "bytes32"
        }
      ],
      "stateMutability": "view",
      "type": "function"
    },
    {
      "inputs": [
        {
          "internalType": "address",
          "name": "provider",
          "type": "address"
        },
        {
          "internalType": "uint64",
          "name": "nonce",
          "type": "uint64"
        },
        {
          "internalType": "bytes32",
          "name": "account",
          "type": "bytes32"
        },
        {
          "internalType": "uint256",
          "name": "amount",
          "type": "uint256"
        }
      ],
      "name": "hashTypedDataV4ForRecharge",
      "outputs": [
        {
          "internalType": "bytes32",
          "name": "",
          "type": "bytes32"
        }
      ],
      "stateMutability": "view",
      "type": "function"
    },
    {
      "inputs": [
        {
          "internalType": "address",
          "name": "owner",
          "type": "address"
        },
        {
          "internalType": "address",
          "name": "pauser",
          "type": "address"
        },
        {
          "internalType": "contract IResourceAdaptor",
          "name": "adaptor",
          "type": "address"
        },
        {
          "internalType": "contract IProviders",
          "name": "_providers",
          "type": "address"
        },
        {
          "internalType": "contract IERC20Upgradeable",
          "name": "_token",
          "type": "address"
        },
        {
          "internalType": "string",
          "name": "name",
          "type": "string"
        },
        {
          "internalType": "string",
          "name": "version",
          "type": "string"
        },
        {
          "internalType": "string",
          "name": "rechargeTypes",
          "type": "string"
        },
        {
          "internalType": "string",
          "name": "billsTypes",
          "type": "string"
        }
      ],
      "name": "initialize",
      "outputs": [],
      "stateMutability": "nonpayable",
      "type": "function"
    },
    {
      "inputs": [
        {
          "internalType": "address",
          "name": "account",
          "type": "address"
        }
      ],
      "name": "isPauser",
      "outputs": [
        {
          "internalType": "bool",
          "name": "",
          "type": "bool"
        }
      ],
      "stateMutability": "view",
      "type": "function"
    },
    {
      "inputs": [
        {
          "internalType": "uint256",
          "name": "value",
          "type": "uint256"
        }
      ],
      "name": "matchResourceToToken",
      "outputs": [
        {
          "internalType": "uint256",
          "name": "",
          "type": "uint256"
        }
      ],
      "stateMutability": "view",
      "type": "function"
    },
    {
      "inputs": [
        {
          "internalType": "uint256",
          "name": "value",
          "type": "uint256"
        }
      ],
      "name": "matchTokenToResource",
      "outputs": [
        {
          "internalType": "uint256",
          "name": "",
          "type": "uint256"
        }
      ],
      "stateMutability": "view",
      "type": "function"
    },
    {
      "inputs": [
        {
          "internalType": "address",
          "name": "",
          "type": "address"
        },
        {
          "internalType": "bytes32",
          "name": "",
          "type": "bytes32"
        },
        {
          "internalType": "uint64",
          "name": "",
          "type": "uint64"
        }
      ],
      "name": "nonces",
      "outputs": [
        {
          "internalType": "enum IFundWallet.Purpose",
          "name": "",
          "type": "uint8"
        }
      ],
      "stateMutability": "view",
      "type": "function"
    },
    {
      "inputs": [],
      "name": "owner",
      "outputs": [
        {
          "internalType": "address",
          "name": "",
          "type": "address"
        }
      ],
      "stateMutability": "view",
      "type": "function"
    },
    {
      "inputs": [
        {
          "internalType": "address",
          "name": "provider",
          "type": "address"
        },
        {
          "internalType": "bytes32",
          "name": "account",
          "type": "bytes32"
        }
      ],
      "name": "ownerOf",
      "outputs": [
        {
          "internalType": "address",
          "name": "",
          "type": "address"
        }
      ],
      "stateMutability": "view",
      "type": "function"
    },
    {
      "inputs": [
        {
          "internalType": "contract IERC20Upgradeable",
          "name": "token",
          "type": "address"
        },
        {
          "internalType": "address",
          "name": "to",
          "type": "address"
        },
        {
          "internalType": "uint256",
          "name": "value",
          "type": "uint256"
        }
      ],
      "name": "ownerWithdrawERC20",
      "outputs": [],
      "stateMutability": "nonpayable",
      "type": "function"
    },
    {
      "inputs": [
        {
          "internalType": "address payable",
          "name": "to",
          "type": "address"
        },
        {
          "internalType": "uint256",
          "name": "value",
          "type": "uint256"
        }
      ],
      "name": "ownerWithdrawNative",
      "outputs": [],
      "stateMutability": "nonpayable",
      "type": "function"
    },
    {
      "inputs": [],
      "name": "pause",
      "outputs": [],
      "stateMutability": "nonpayable",
      "type": "function"
    },
    {
      "inputs": [],
      "name": "paused",
      "outputs": [
        {
          "internalType": "bool",
          "name": "",
          "type": "bool"
        }
      ],
      "stateMutability": "view",
      "type": "function"
    },
    {
      "inputs": [
        {
          "internalType": "address",
          "name": "",
          "type": "address"
        }
      ],
      "name": "pausers",
      "outputs": [
        {
          "internalType": "bool",
          "name": "",
          "type": "bool"
        }
      ],
      "stateMutability": "view",
      "type": "function"
    },
    {
      "inputs": [],
      "name": "providers",
      "outputs": [
        {
          "internalType": "contract IProviders",
          "name": "",
          "type": "address"
        }
      ],
      "stateMutability": "view",
      "type": "function"
    },
    {
      "inputs": [
        {
          "internalType": "address",
          "name": "provider",
          "type": "address"
        },
        {
          "internalType": "uint64",
          "name": "nonce",
          "type": "uint64"
        },
        {
          "internalType": "bytes32",
          "name": "account",
          "type": "bytes32"
        },
        {
          "internalType": "uint256",
          "name": "amount",
          "type": "uint256"
        },
        {
          "internalType": "bytes",
          "name": "signature",
          "type": "bytes"
        }
      ],
      "name": "recharge",
      "outputs": [],
      "stateMutability": "nonpayable",
      "type": "function"
    },
    {
      "inputs": [
        {
          "internalType": "address",
          "name": "provider",
          "type": "address"
        },
        {
          "internalType": "uint64",
          "name": "nonce",
          "type": "uint64"
        },
        {
          "internalType": "bytes32",
          "name": "account",
          "type": "bytes32"
        },
        {
          "internalType": "uint256",
          "name": "amount",
          "type": "uint256"
        }
      ],
      "name": "rechargeHash",
      "outputs": [
        {
          "internalType": "bytes32",
          "name": "",
          "type": "bytes32"
        }
      ],
      "stateMutability": "view",
      "type": "function"
    },
    {
      "inputs": [],
      "name": "rechargeTypedHash",
      "outputs": [
        {
          "internalType": "bytes32",
          "name": "",
          "type": "bytes32"
        }
      ],
      "stateMutability": "view",
      "type": "function"
    },
    {
      "inputs": [
        {
          "internalType": "address",
          "name": "account",
          "type": "address"
        }
      ],
      "name": "removePauser",
      "outputs": [],
      "stateMutability": "nonpayable",
      "type": "function"
    },
    {
      "inputs": [],
      "name": "renounceOwnership",
      "outputs": [],
      "stateMutability": "nonpayable",
      "type": "function"
    },
    {
      "inputs": [],
      "name": "renouncePauser",
      "outputs": [],
      "stateMutability": "nonpayable",
      "type": "function"
    },
    {
      "inputs": [],
      "name": "resourceDecimals",
      "outputs": [
        {
          "internalType": "uint256",
          "name": "",
          "type": "uint256"
        }
      ],
      "stateMutability": "view",
      "type": "function"
    },
    {
      "inputs": [
        {
          "internalType": "string",
          "name": "types",
          "type": "string"
        }
      ],
      "name": "setBillsTypedHash",
      "outputs": [],
      "stateMutability": "nonpayable",
      "type": "function"
    },
    {
      "inputs": [
        {
          "internalType": "string",
          "name": "types",
          "type": "string"
        }
      ],
      "name": "setRechargeTypedHash",
      "outputs": [],
      "stateMutability": "nonpayable",
      "type": "function"
    },
    {
      "inputs": [
        {
          "internalType": "contract IERC20Upgradeable",
          "name": "_token",
          "type": "address"
        }
      ],
      "name": "setToken",
      "outputs": [],
      "stateMutability": "nonpayable",
      "type": "function"
    },
    {
      "inputs": [
        {
          "internalType": "address",
          "name": "provider",
          "type": "address"
        },
        {
          "internalType": "uint64",
          "name": "nonce",
          "type": "uint64"
        },
        {
          "internalType": "bytes32",
          "name": "account",
          "type": "bytes32"
        },
        {
          "internalType": "bytes",
          "name": "bills",
          "type": "bytes"
        },
        {
          "internalType": "uint256",
          "name": "expiration",
          "type": "uint256"
        },
        {
          "internalType": "bytes",
          "name": "signature",
          "type": "bytes"
        }
      ],
      "name": "spend",
      "outputs": [
        {
          "internalType": "uint256",
          "name": "fee",
          "type": "uint256"
        }
      ],
      "stateMutability": "nonpayable",
      "type": "function"
    },
    {
      "inputs": [],
      "name": "token",
      "outputs": [
        {
          "internalType": "contract IERC20Upgradeable",
          "name": "",
          "type": "address"
        }
      ],
      "stateMutability": "view",
      "type": "function"
    },
    {
      "inputs": [],
      "name": "tokenDecimals",
      "outputs": [
        {
          "internalType": "uint256",
          "name": "",
          "type": "uint256"
        }
      ],
      "stateMutability": "view",
      "type": "function"
    },
    {
      "inputs": [
        {
          "internalType": "address",
          "name": "newOwner",
          "type": "address"
        }
      ],
      "name": "transferOwnership",
      "outputs": [],
      "stateMutability": "nonpayable",
      "type": "function"
    },
    {
      "inputs": [
        {
          "internalType": "address",
          "name": "provider",
          "type": "address"
        },
        {
          "internalType": "bytes32",
          "name": "account",
          "type": "bytes32"
        },
        {
          "internalType": "address",
          "name": "newOwner",
          "type": "address"
        }
      ],
      "name": "transferWalletOwner",
      "outputs": [],
      "stateMutability": "nonpayable",
      "type": "function"
    },
    {
      "inputs": [],
      "name": "unpause",
      "outputs": [],
      "stateMutability": "nonpayable",
      "type": "function"
    },
    {
      "inputs": [
        {
          "components": [
            {
              "internalType": "address",
              "name": "provider",
              "type": "address"
            },
            {
              "internalType": "uint64",
              "name": "nonce",
              "type": "uint64"
            },
            {
              "internalType": "bytes32",
              "name": "account",
              "type": "bytes32"
            },
            {
              "internalType": "bytes",
              "name": "bills",
              "type": "bytes"
            },
            {
              "internalType": "uint256",
              "name": "expiration",
              "type": "uint256"
            }
          ],
          "internalType": "struct IBilling.Payload",
          "name": "payload",
          "type": "tuple"
        },
        {
          "internalType": "address",
          "name": "to",
          "type": "address"
        },
        {
          "internalType": "uint256",
          "name": "amount",
          "type": "uint256"
        },
        {
          "internalType": "bytes",
          "name": "signature",
          "type": "bytes"
        }
      ],
      "name": "withdraw",
      "outputs": [
        {
          "internalType": "uint256",
          "name": "fee",
          "type": "uint256"
        }
      ],
      "stateMutability": "nonpayable",
      "type": "function"
    }
  ],
  "transactionHash": "0x5190205d77e4c262b29a0907965b5f660a95360f32868299285dd2627a9cfc71",
  "args": [],
  "solcInputHash": "c6c0c8a8d7c7c073cf1bd53c2ef166bd",
  "bytecode": "0x60806040523480156200001157600080fd5b50600054610100900460ff166200002f5760005460ff161562000039565b620000396200009e565b620000615760405162461bcd60e51b81526004016200005890620000cb565b60405180910390fd5b600054610100900460ff1615801562000084576000805461ffff19166101011790555b801562000097576000805461ff00191690555b5062000124565b6000620000b630620000bc60201b620011a71760201c565b15905090565b6001600160a01b03163b151590565b602080825281016200011e81602e81527f496e697469616c697a61626c653a20636f6e747261637420697320616c72656160208201526d191e481a5b9a5d1a585b1a5e995960921b604082015260600190565b92915050565b613c9c80620001346000396000f3fe608060405234801561001057600080fd5b506004361061023d5760003560e01c8063715018a61161013b57806393563a95116100b8578063f12973d31161007c578063f12973d314610523578063f2fde38b14610536578063f674529614610549578063f8401fe61461055c578063fc0c546a1461056f57600080fd5b806393563a95146104c0578063c2cd9b2b146104d3578063da66bd67146104f3578063ddc5517e14610506578063e7356a071461051957600080fd5b8063822a3f74116100ff578063822a3f741461046557806382dc1ec4146104785780638456cb591461048b5780638da5cb5b146104935780638f1a1438146104ad57600080fd5b8063715018a6146103f4578063746cb256146103fc5780637acc238b1461040f57806380124a431461042257806380f51c121461044257600080fd5b80634bf1fcda116101c95780635fce61d51161018d5780635fce61d5146103b657806368b86954146103bf578063699256f4146103c65780636b2c0f55146103d95780636ef8d66d146103ec57600080fd5b80634bf1fcda146103095780634d30b6be1461034b5780635ab9d73b146103855780635c975abb146103985780635e81e331146103a357600080fd5b80633b97e856116102105780633b97e856146102b35780633f4ba83a146102bb5780633fe1d581146102c357806346e9398b146102d657806346fbf68e146102e957600080fd5b8063144fa6d71461024257806324496dbb146102575780632c7959241461026a57806335a609bc14610293575b600080fd5b61025561025036600461207b565b610588565b005b6102556102653660046120c1565b6105c7565b61027d610278366004612224565b61069e565b60405161028a91906122ea565b60405180910390f35b6102a66102a13660046122f8565b610817565b60405161028a9190612495565b61027d610833565b6102556108df565b61027d6102d13660046124a6565b61090e565b61027d6102e436600461250a565b61092f565b6102fc6102f736600461259c565b610977565b60405161028a91906125c5565b61033e6103173660046125d3565b61010260209081526000938452604080852082529284528284209052825290205460ff1681565b60405161028a9190612647565b61027d610359366004612655565b6001600160a01b0391909116600090815261010360209081526040808320938352929052206001015490565b610255610393366004612692565b610995565b609c5460ff166102fc565b61027d6103b13660046127b7565b610ac3565b61027d60365481565b601261027d565b6102556103d4366004612655565b610cf7565b6102556103e736600461259c565b610da5565b610255610dd8565b610255610de1565b61027d61040a36600461250a565b610e15565b61025561041d3660046122f8565b610e31565b610435610430366004612a31565b610e6b565b60405161028a9190612ac9565b6102fc61045036600461259c565b60ce6020526000908152604090205460ff1681565b6102556104733660046122f8565b610e94565b61025561048636600461259c565b610ece565b610255610f01565b606a546001600160a01b03165b60405161028a9190612ae3565b61027d6104bb3660046124a6565b610f2e565b6102556104ce366004612af1565b610f6c565b6037546104e6906001600160a01b031681565b60405161028a9190612b4b565b6104a0610501366004612655565b610fdd565b610255610514366004612b59565b611006565b61027d6101015481565b61027d610531366004612c88565b6110ca565b61025561054436600461259c565b61111e565b61027d610557366004612c88565b611177565b6001546104e6906001600160a01b031681565b6000546104e6906201000090046001600160a01b031681565b606a546001600160a01b031633146105bb5760405162461bcd60e51b81526004016105b290612cde565b60405180910390fd5b6105c4816111b6565b50565b609c5460ff16156105ea5760405162461bcd60e51b81526004016105b290612d15565b6001600160a01b03808416600090815261010360209081526040808320868452909152902054849184911633146106335760405162461bcd60e51b81526004016105b290612d6b565b600061063f8686610fdd565b6001600160a01b031614156106665760405162461bcd60e51b81526004016105b290612dbc565b6001600160a01b03831661068c5760405162461bcd60e51b81526004016105b290612e00565b610697858585611245565b5050505050565b6000868587836001600160a01b03841660009081526101026020908152604080832086845282528083206001600160401b038616845290915290205460ff1660038111156106ee576106ee612332565b1461070b5760405162461bcd60e51b81526004016105b290612e44565b609c5460ff161561072e5760405162461bcd60e51b81526004016105b290612d15565b600260cf5414156107515760405162461bcd60e51b81526004016105b290612e88565b600260cf8190555061079b6040518060a001604052808c6001600160a01b031681526020018b6001600160401b031681526020018a815260200189815260200188815250866112b4565b6001600160a01b038b166000908152610103602090815260408083208c84529091529020600101549094506107d09085611504565b6001600160a01b038b166000908152610103602090815260408083208c84529091529020600101556108058a898b6002611517565b5050600160cf55509695505050505050565b60608180602001905181019061082d919061304c565b92915050565b60008060008060029054906101000a90046001600160a01b03166001600160a01b031660405161086290613086565b600060405180830381855afa9150503d806000811461089d576040519150601f19603f3d011682016040523d82523d6000602084013e6108a2565b606091505b5091509150816108c45760405162461bcd60e51b81526004016105b2906130de565b808060200190518101906108d891906130ee565b9250505090565b6108e833610977565b6109045760405162461bcd60e51b81526004016105b290613141565b61090c6115b1565b565b600061092461091f86868686610f2e565b611617565b90505b949350505050565b600060365486868686805190602001208660405160200161095596959493929190613160565b6040516020818303038152906040528051906020012090505b95945050505050565b6001600160a01b0316600090815260ce602052604090205460ff1690565b84838560006001600160a01b03841660009081526101026020908152604080832086845282528083206001600160401b038616845290915290205460ff1660038111156109e4576109e4612332565b14610a015760405162461bcd60e51b81526004016105b290612e44565b609c5460ff1615610a245760405162461bcd60e51b81526004016105b290612d15565b600260cf541415610a475760405162461bcd60e51b81526004016105b290612e88565b600260cf556000610a588988610fdd565b6001600160a01b031614610a9c5733610a718988610fdd565b6001600160a01b031614610a975760405162461bcd60e51b81526004016105b2906131f6565b610aa7565b610aa7888733611245565b610ab4888888888861162a565b5050600160cf55505050505050565b8351604085015160208601516000929190836001600160a01b03841660009081526101026020908152604080832086845282528083206001600160401b038616845290915290205460ff166003811115610b1f57610b1f612332565b14610b3c5760405162461bcd60e51b81526004016105b290612e44565b87516040808a01516001600160a01b0380841660009081526101036020908152848220848352905292909220549091163314610b8a5760405162461bcd60e51b81526004016105b290612d6b565b609c5460ff1615610bad5760405162461bcd60e51b81526004016105b290612d15565b600260cf541415610bd05760405162461bcd60e51b81526004016105b290612e88565b600260cf55610bdf8a886112b4565b8a516040808d01516020808f01516001600160a01b0385166000908152610103835284812084825290925292812060010154949a509293909290610c23908b611504565b90508c8c80831015610c475760405162461bcd60e51b81526004016105b290613238565b610c518382611504565b6001600160a01b038088166000908152610103602090815260408083208a84529091528120600101929092559054610c9291620100009091041683836117c1565b610c9f8686866003611517565b7f26b8aa9e5d4f71b867c84264e57eab543daba6bf03a6ac7c3be51697b5132f708685878585604051610cd6959493929190613248565b60405180910390a15050600160cf5550979c9b505050505050505050505050565b606a546001600160a01b03163314610d215760405162461bcd60e51b81526004016105b290612cde565b6040516000906001600160a01b0384169083156108fc0290849084818181858888f19350505050905080610d675760405162461bcd60e51b81526004016105b2906132cc565b7f2c876ecb97b3c6854f2488d373403f903eacb800e51c159a5c0c7a9c857e48278383604051610d989291906132dc565b60405180910390a1505050565b606a546001600160a01b03163314610dcf5760405162461bcd60e51b81526004016105b290612cde565b6105c48161181c565b61090c3361181c565b606a546001600160a01b03163314610e0b5760405162461bcd60e51b81526004016105b290612cde565b61090c6000611891565b6000610e2761091f878787878761092f565b9695505050505050565b606a546001600160a01b03163314610e5b5760405162461bcd60e51b81526004016105b290612cde565b6105c481805190602001206118e3565b606081604051602001610e7e9190612495565b6040516020818303038152906040529050919050565b606a546001600160a01b03163314610ebe5760405162461bcd60e51b81526004016105b290612cde565b6105c48180519060200120611919565b606a546001600160a01b03163314610ef85760405162461bcd60e51b81526004016105b290612cde565b6105c48161194e565b610f0a33610977565b610f265760405162461bcd60e51b81526004016105b290613141565b61090c6119c7565b60006101015485858585604051602001610f4c9594939291906132f7565b604051602081830303815290604052805190602001209050949350505050565b606a546001600160a01b03163314610f965760405162461bcd60e51b81526004016105b290612cde565b610faa6001600160a01b03841683836117c1565b7f2717ead6b9200dd235aad468c9809ea400fe33ac69b5bfaa6d3e90fc922b6398838383604051610d989392919061332c565b6001600160a01b0391821660009081526101036020908152604080832093835292905220541690565b600054610100900460ff166110215760005460ff1615611025565b303b155b6110415760405162461bcd60e51b81526004016105b29061339f565b600054610100900460ff16158015611063576000805461ffff19166101011790555b61106c8a611891565b61107589611a1f565b61107e87611a46565b61108788611a76565b61109086611aa6565b61109a8585611acd565b6110a383611b02565b6110ac82611b29565b80156110be576000805461ff00191690555b50505050505050505050565b6000806110d5610833565b905060128082116110ff576109276110ed8284611504565b6110f890600a6134d3565b8590611b50565b61092761110c8383611504565b61111790600a6134d3565b8590611b5c565b606a546001600160a01b031633146111485760405162461bcd60e51b81526004016105b290612cde565b6001600160a01b03811661116e5760405162461bcd60e51b81526004016105b290613525565b6105c481611891565b600080611182610833565b9050601280821161119a5761092761110c8284611504565b6109276110ed8383611504565b6001600160a01b03163b151590565b6001600160a01b0381166111dc5760405162461bcd60e51b81526004016105b290613577565b6000805462010000600160b01b031916620100006001600160a01b03848116820292909217928390556040517f5ba6b30cd4b2f9e9e67f4feb9b9df10d5da3b057598e6901b217b7d590345e309361123a9392900490911690612b4b565b60405180910390a150565b6001600160a01b038381166000908152610103602090815260408083208684529091529081902080546001600160a01b03191692841692909217909155517f4ddee4675a37f5c882a56b9be609ea55023c460cafb24ab74c1cb024abc84b3b90610d9890859085908590613587565b6000428360800151116112d95760405162461bcd60e51b81526004016105b2906135d9565b600154604051636b074a0760e01b81526001600160a01b0390911690636b074a0790611309903390600401612ae3565b60206040518083038186803b15801561132157600080fd5b505afa158015611335573d6000803e3d6000fd5b505050506040513d601f19601f8201168201806040525081019061135991906135fc565b6113755760405162461bcd60e51b81526004016105b29061365b565b600061139884600001518560200151866040015187606001518860800151610e15565b60015485516040516311c5268f60e11b81529293506001600160a01b039091169163238a4d1e916113cf918590889060040161366b565b602060405180830381600087803b1580156113e957600080fd5b505af11580156113fd573d6000803e3d6000fd5b505050506040513d601f19601f8201168201806040525081019061142191906135fc565b61143d5760405162461bcd60e51b81526004016105b2906136cc565b606084015151156114ae5783516040808601516001600160a01b039092166000908152610103602090815282822093825292909252812060010154905061148a6105318660600151611b68565b9250828110156114ac5760405162461bcd60e51b81526004016105b290613710565b505b7f086575d4de5bb5f0addd08773b7097a00aaa37120293013f54da4433812adfa78460000151856020015186604001518760600151866040516114f5959493929190613720565b60405180910390a15092915050565b60006115108284613769565b9392505050565b6001600160a01b03841660009081526101026020908152604080832086845282528083206001600160401b03861684529091529020805482919060ff1916600183600381111561156957611569612332565b02179055507fc4f15e84da288f27234e3626e64c8035b984fd65cee49fcd86b4910de1d13e7c848484846040516115a39493929190613780565b60405180910390a150505050565b609c5460ff166115d35760405162461bcd60e51b81526004016105b2906137e0565b609c805460ff191690557f5db9ee0a495bf2e6ff9c91a7834c1ba4fdd244a5e8aa4e537bd38aeae4b073aa335b60405161160d9190612ae3565b60405180910390a1565b600061082d611624611cf4565b83611d30565b6000821161164a5760405162461bcd60e51b81526004016105b290613824565b60006116588686868661090e565b6001546040516311c5268f60e11b81529192506001600160a01b03169063238a4d1e9061168d9089908590879060040161366b565b602060405180830381600087803b1580156116a757600080fd5b505af11580156116bb573d6000803e3d6000fd5b505050506040513d601f19601f820116820180604052508101906116df91906135fc565b6116fb5760405162461bcd60e51b81526004016105b290613868565b6001600160a01b03861660009081526101036020908152604080832087845290915290206001015461172d9084611d63565b6001600160a01b03808816600090815261010360209081526040808320898452909152812060010192909255905461176f916201000090910416333086611d6f565b61177c8685876001611517565b7f20615f51b8701e825dbc8fd5f5e6909964726a9082f971d65f494860fd3ae396868686866040516117b19493929190613878565b60405180910390a1505050505050565b6118178363a9059cbb60e01b84846040516024016117e09291906138ad565b60408051601f198184030181529190526020810180516001600160e01b03166001600160e01b031990931692909217909152611d96565b505050565b61182581610977565b6118415760405162461bcd60e51b81526004016105b2906138ef565b6001600160a01b038116600090815260ce602052604090819020805460ff19169055517fcd265ebaf09df2871cc7bd4133404a235ba12eff2041bb89d9c714a2621c7c7e9061123a908390612ae3565b606a80546001600160a01b038381166001600160a01b0319831681179093556040519116919082907f8be0079c531659141344cd1fd0a4f28419497f9722a3daafe3b4186f6b6457e090600090a35050565b6101018190556040517f921d5c4a3c33eaff9e0f2fee28d7dd04f45183c3070cc30adfd5d90be51546999061123a9083906122ea565b60368190556040517fff0ac6417b45aca293f36f486c055ff8f1a6df297264ffe0a52b04395ad5f31c9061123a9083906122ea565b61195781610977565b156119745760405162461bcd60e51b81526004016105b29061393d565b6001600160a01b038116600090815260ce602052604090819020805460ff19166001179055517f6719d08c1888103bea251a4ed56406bd0c3e69723c8a1686e017e7bbe159b6f89061123a908390612ae3565b609c5460ff16156119ea5760405162461bcd60e51b81526004016105b290612d15565b609c805460ff191660011790557f62e78cea01bee320cd4e420270b5ea74000d11b0c9f74754ebdbfc544b05a2586116003390565b600054610100900460ff16610ef85760405162461bcd60e51b81526004016105b290613995565b600054610100900460ff16611a6d5760405162461bcd60e51b81526004016105b290613995565b6105c481611e25565b600054610100900460ff16611a9d5760405162461bcd60e51b81526004016105b290613995565b6105c481611e70565b600054610100900460ff166105bb5760405162461bcd60e51b81526004016105b290613995565b600054610100900460ff16611af45760405162461bcd60e51b81526004016105b290613995565b611afe8282611ee1565b5050565b600054610100900460ff16610e5b5760405162461bcd60e51b81526004016105b290613995565b600054610100900460ff16610ebe5760405162461bcd60e51b81526004016105b290613995565b600061151082846139bb565b600061151082846139cf565b60008082806020019051810190611b7f919061304c565b90506000815111611ba25760405162461bcd60e51b81526004016105b290613a22565b60005b8151811015611ced576000828281518110611bc257611bc2613a32565b60200260200101519050600081602001515111611bf15760405162461bcd60e51b81526004016105b290613a7c565b60005b816020015151811015611cd857600082602001518481518110611c1957611c19613a32565b60209081029190910181015160375481519282015186516040516354bf93b960e11b81529395506000946001600160a01b039093169363a97f277293611c659390929091600401613a8c565b60206040518083038186803b158015611c7d57600080fd5b505afa158015611c91573d6000803e3d6000fd5b505050506040513d601f19601f82011682018060405250810190611cb591906130ee565b9050611cc18782611d63565b965050508080611cd090613aa7565b915050611bf4565b50508080611ce590613aa7565b915050611ba5565b5050919050565b6000611d2b7f8b73c3c69bb8fe3d512ecc4cf759cc79239f7b179b0ffacaa9a75d522b39400f611d2360025490565b600354611f22565b905090565b60008282604051602001611d45929190613ac8565b60405160208183030381529060405280519060200120905092915050565b60006115108284613af9565b611d90846323b872dd60e01b8585856040516024016117e093929190613b11565b50505050565b6000611deb826040518060400160405280602081526020017f5361666545524332303a206c6f772d6c6576656c2063616c6c206661696c6564815250856001600160a01b0316611f5c9092919063ffffffff16565b8051909150156118175780806020019051810190611e0991906135fc565b6118175760405162461bcd60e51b81526004016105b290613b66565b600180546001600160a01b0319166001600160a01b0383161790556040517fe63288198842f0dacdcbdc3f22dcd4e473d1f3cee7e10603ae6ddc3e667c52849061123a908390612b4b565b6001600160a01b038116611e965760405162461bcd60e51b81526004016105b290613ba2565b603780546001600160a01b0319166001600160a01b0383161790556040517fcb398744d70dd9f7eb9e1e65c9c74f4d3276143240e25316135eb6585db6c1c19061123a908390612b4b565b600054610100900460ff16611f085760405162461bcd60e51b81526004016105b290613995565b815160209283012081519190920120600291909155600355565b60008383834630604051602001611f3d959493929190613bb2565b6040516020818303038152906040528051906020012090509392505050565b60606109278484600085856001600160a01b0385163b611f8e5760405162461bcd60e51b81526004016105b290613c28565b600080866001600160a01b03168587604051611faa9190613c5a565b60006040518083038185875af1925050503d8060008114611fe7576040519150601f19603f3d011682016040523d82523d6000602084013e611fec565b606091505b5091509150611ffc828286612007565b979650505050505050565b60608315612016575081611510565b8251156120265782518084602001fd5b8160405162461bcd60e51b81526004016105b29190612ac9565b60006001600160a01b03821661082d565b600061082d82612040565b61206581612051565b81146105c457600080fd5b803561082d8161205c565b60006020828403121561209057612090600080fd5b60006109278484612070565b61206581612040565b803561082d8161209c565b80612065565b803561082d816120b0565b6000806000606084860312156120d9576120d9600080fd5b60006120e586866120a5565b93505060206120f6868287016120b6565b9250506040612107868287016120a5565b9150509250925092565b6001600160401b038116612065565b803561082d81612111565b634e487b7160e01b600052604160045260246000fd5b601f19601f83011681018181106001600160401b03821117156121665761216661212b565b6040525050565b600061217860405190565b90506121848282612141565b919050565b60006001600160401b038211156121a2576121a261212b565b601f19601f83011660200192915050565b82818337506000910152565b60006121d26121cd84612189565b61216d565b9050828152602081018484840111156121ed576121ed600080fd5b6121f88482856121b3565b509392505050565b600082601f83011261221457612214600080fd5b81356109278482602086016121bf565b60008060008060008060c0878903121561224057612240600080fd5b600061224c89896120a5565b965050602061225d89828a01612120565b955050604061226e89828a016120b6565b94505060608701356001600160401b0381111561228d5761228d600080fd5b61229989828a01612200565b93505060806122aa89828a016120b6565b92505060a08701356001600160401b038111156122c9576122c9600080fd5b6122d589828a01612200565b9150509295509295509295565b805b82525050565b6020810161082d82846122e2565b60006020828403121561230d5761230d600080fd5b81356001600160401b0381111561232657612326600080fd5b61092784828501612200565b634e487b7160e01b600052602160045260246000fd5b600581106105c4576105c4612332565b8061218481612348565b600061082d82612358565b6122e481612362565b80516040830190612387848261236d565b506020820151611d9060208501826122e2565b60006123a68383612376565b505060400190565b60006123b8825190565b80845260209384019383018060005b838110156123ec5781516123db888261239a565b9750602083019250506001016123c7565b509495945050505050565b8051600090604084019061240b85826122e2565b506020830151848203602086015261096e82826123ae565b600061151083836123f7565b6000612439825190565b808452602084019350836020820285016124538560200190565b8060005b8581101561248857848403895281516124708582612423565b94506020830160209a909a0199925050600101612457565b5091979650505050505050565b60208082528101611510818461242f565b600080600080608085870312156124bf576124bf600080fd5b60006124cb87876120a5565b94505060206124dc87828801612120565b93505060406124ed878288016120b6565b92505060606124fe878288016120b6565b91505092959194509250565b600080600080600060a0868803121561252557612525600080fd5b600061253188886120a5565b955050602061254288828901612120565b9450506040612553888289016120b6565b93505060608601356001600160401b0381111561257257612572600080fd5b61257e88828901612200565b925050608061258f888289016120b6565b9150509295509295909350565b6000602082840312156125b1576125b1600080fd5b600061092784846120a5565b8015156122e4565b6020810161082d82846125bd565b6000806000606084860312156125eb576125eb600080fd5b60006125f786866120a5565b9350506020612608868287016120b6565b925050604061210786828701612120565b600481106105c4576105c4612332565b8061218481612619565b600061082d82612629565b6122e481612633565b6020810161082d828461263e565b6000806040838503121561266b5761266b600080fd5b600061267785856120a5565b9250506020612688858286016120b6565b9150509250929050565b600080600080600060a086880312156126ad576126ad600080fd5b60006126b988886120a5565b95505060206126ca88828901612120565b94505060406126db888289016120b6565b93505060606126ec888289016120b6565b92505060808601356001600160401b0381111561270b5761270b600080fd5b61258f88828901612200565b600060a0828403121561272c5761272c600080fd5b61273660a061216d565b9050600061274484846120a5565b825250602061275584848301612120565b6020830152506040612769848285016120b6565b60408301525060608201356001600160401b0381111561278b5761278b600080fd5b61279784828501612200565b60608301525060806127ab848285016120b6565b60808301525092915050565b600080600080608085870312156127d0576127d0600080fd5b84356001600160401b038111156127e9576127e9600080fd5b6127f587828801612717565b9450506020612806878288016120a5565b9350506040612817878288016120b6565b92505060608501356001600160401b0381111561283657612836600080fd5b6124fe87828801612200565b60006001600160401b0382111561285b5761285b61212b565b5060209081020190565b600581106105c457600080fd5b803561082d81612865565b60006040828403121561289257612892600080fd5b61289c604061216d565b905060006128aa8484612872565b82525060206128bb848483016120b6565b60208301525092915050565b60006128d56121cd84612842565b838152905060208101604084028301858111156128f4576128f4600080fd5b835b8181101561291a5780612909888261287d565b8452506020909201916040016128f6565b5050509392505050565b600082601f83011261293857612938600080fd5b81356109278482602086016128c7565b60006040828403121561295d5761295d600080fd5b612967604061216d565b9050600061297584846120b6565b82525060208201356001600160401b0381111561299457612994600080fd5b6128bb84828501612924565b60006129ae6121cd84612842565b838152905060208082019084028301858111156129cd576129cd600080fd5b835b8181101561291a5780356001600160401b038111156129f0576129f0600080fd5b8086016129fd8982612948565b85525050602092830192016129cf565b600082601f830112612a2157612a21600080fd5b81356109278482602086016129a0565b600060208284031215612a4657612a46600080fd5b81356001600160401b03811115612a5f57612a5f600080fd5b61092784828501612a0d565b60005b83811015612a86578181015183820152602001612a6e565b83811115611d905750506000910152565b6000612aa1825190565b808452602084019350612ab8818560208601612a6b565b601f01601f19169290920192915050565b602080825281016115108184612a97565b6122e481612040565b6020810161082d8284612ada565b600080600060608486031215612b0957612b09600080fd5b6000612b158686612070565b9350506020612b26868287016120a5565b9250506040612107868287016120b6565b600061082d82612051565b6122e481612b37565b6020810161082d8284612b42565b60008060008060008060008060006101208a8c031215612b7b57612b7b600080fd5b6000612b878c8c6120a5565b9950506020612b988c828d016120a5565b9850506040612ba98c828d01612070565b9750506060612bba8c828d01612070565b9650506080612bcb8c828d01612070565b95505060a08a01356001600160401b03811115612bea57612bea600080fd5b612bf68c828d01612200565b94505060c08a01356001600160401b03811115612c1557612c15600080fd5b612c218c828d01612200565b93505060e08a01356001600160401b03811115612c4057612c40600080fd5b612c4c8c828d01612200565b9250506101008a01356001600160401b03811115612c6c57612c6c600080fd5b612c788c828d01612200565b9150509295985092959850929598565b600060208284031215612c9d57612c9d600080fd5b600061092784846120b6565b60208082527f4f776e61626c653a2063616c6c6572206973206e6f7420746865206f776e6572910190815260005b5060200190565b6020808252810161082d81612ca9565b601081526000602082016f14185d5cd8589b194e881c185d5cd95960821b81529150612cd7565b6020808252810161082d81612cee565b602681526000602082017f46756e6457616c6c65743a2063616c6c6572206973206e6f742077616c6c65748152651037bbb732b960d11b602082015291505b5060400190565b6020808252810161082d81612d25565b602481526000602082017f46756e6457616c6c65743a206e6f6e6578697374656e742077616c6c6574206f8152633bb732b960e11b60208201529150612d64565b6020808252810161082d81612d7b565b601881526000602082017f46756e6457616c6c65743a207a65726f2061646472657373000000000000000081529150612cd7565b6020808252810161082d81612dcc565b601981526000602082017f46756e6457616c6c65743a20696e76616c6964206e6f6e63650000000000000081529150612cd7565b6020808252810161082d81612e10565b601f81526000602082017f5265656e7472616e637947756172643a207265656e7472616e742063616c6c0081529150612cd7565b6020808252810161082d81612e54565b805161082d816120b0565b805161082d81612865565b600060408284031215612ec357612ec3600080fd5b612ecd604061216d565b90506000612edb8484612ea3565b82525060206128bb84848301612e98565b6000612efa6121cd84612842565b83815290506020810160408402830185811115612f1957612f19600080fd5b835b8181101561291a5780612f2e8882612eae565b845250602090920191604001612f1b565b600082601f830112612f5357612f53600080fd5b8151610927848260208601612eec565b600060408284031215612f7857612f78600080fd5b612f82604061216d565b90506000612f908484612e98565b82525060208201516001600160401b03811115612faf57612faf600080fd5b6128bb84828501612f3f565b6000612fc96121cd84612842565b83815290506020808201908402830185811115612fe857612fe8600080fd5b835b8181101561291a5780516001600160401b0381111561300b5761300b600080fd5b8086016130188982612f63565b8552505060209283019201612fea565b600082601f83011261303c5761303c600080fd5b8151610927848260208601612fbb565b60006020828403121561306157613061600080fd5b81516001600160401b0381111561307a5761307a600080fd5b61092784828501613028565b63313ce56760e01b815260006004820161082d565b602681526000602082017f5265736f75726365506179546f6b656e577261707065723a20696e76616c6964815265103a37b5b2b760d11b60208201529150612d64565b6020808252810161082d8161309b565b60006020828403121561310357613103600080fd5b60006109278484612e98565b60208082527f5061757365723a2063616c6c6572206973206e6f74207468652070617573657291019081526000612cd7565b6020808252810161082d8161310f565b6001600160401b0381166122e4565b60c0810161316e82896122e2565b61317b6020830188612ada565b6131886040830187613151565b61319560608301866122e2565b6131a260808301856122e2565b611ffc60a08301846122e2565b602a81526000602082017f46756e6457616c6c65743a2063616c6c6572206973206e6f7420746865207761815269363632ba1037bbb732b960b11b60208201529150612d64565b6020808252810161082d816131af565b60208082527f46756e6457616c6c65743a20696e73756666696369656e742062616c616e636591019081526000612cd7565b6020808252810161082d81613206565b60a081016132568288612ada565b6132636020830187613151565b61327060408301866122e2565b61327d6060830185612ada565b610e2760808301846122e2565b602581526000602082017f5061796d656e743a207769746864726177206e617469766520746f6b656e2066815264185a5b195960da1b60208201529150612d64565b6020808252810161082d8161328a565b604081016132ea8285612b42565b61151060208301846122e2565b60a0810161330582886122e2565b6133126020830187612ada565b61331f6040830186613151565b61327d60608301856122e2565b6060810161333a8286612b42565b6133476020830185612ada565b61092760408301846122e2565b602e81526000602082017f496e697469616c697a61626c653a20636f6e747261637420697320616c72656181526d191e481a5b9a5d1a585b1a5e995960921b60208201529150612d64565b6020808252810161082d81613354565b634e487b7160e01b600052601160045260246000fd5b80825b6001851115613404578086048111156133e3576133e36133af565b60018516156133f157908102905b80026133fd8560011c90565b94506133c8565b94509492505050565b60008261341c57506001611510565b8161342957506000611510565b816001811461343f576002811461344957613476565b6001915050611510565b60ff84111561345a5761345a6133af565b8360020a915084821115613470576134706133af565b50611510565b5060208310610133831016604e8410600b84101617156134a9575081810a838111156134a4576134a46133af565b611510565b6134b684848460016133c5565b925090508184048111156134cc576134cc6133af565b0292915050565b6000611510600019848461340d565b602681526000602082017f4f776e61626c653a206e6577206f776e657220697320746865207a65726f206181526564647265737360d01b60208201529150612d64565b6020808252810161082d816134e2565b602581526000602082017f5265736f75726365506179546f6b656e577261707065723a207a65726f206164815264647265737360d81b60208201529150612d64565b6020808252810161082d81613535565b606081016135958286612ada565b6135a260208301856122e2565b6109276040830184612ada565b6013815260006020820172109a5b1b1a5b99ce881d1e08195e1c1a5c9959606a1b81529150612cd7565b6020808252810161082d816135af565b801515612065565b805161082d816135e9565b60006020828403121561361157613611600080fd5b600061092784846135f1565b602181526000602082017f42696c6c696e673a2063616c6c6572206973206e6f7420612070726f766964658152603960f91b60208201529150612d64565b6020808252810161082d8161361d565b606081016136798286612ada565b61368660208301856122e2565b81810360408301526109248184612a97565b601a81526000602082017f42696c6c696e673a20696e76616c6964207369676e617475726500000000000081529150612cd7565b6020808252810161082d81613698565b601d81526000602082017f42696c6c696e673a20696e73756666696369656e742062616c616e636500000081529150612cd7565b6020808252810161082d816136dc565b60a0810161372e8288612ada565b61373b6020830187613151565b61374860408301866122e2565b818103606083015261375a8185612a97565b9050610e2760808301846122e2565b60008282101561377b5761377b6133af565b500390565b6080810161378e8287612ada565b61379b60208301866122e2565b6137a86040830185613151565b61096e606083018461263e565b601481526000602082017314185d5cd8589b194e881b9bdd081c185d5cd95960621b81529150612cd7565b6020808252810161082d816137b5565b601781526000602082017f46756e6457616c6c65743a207a65726f20616d6f756e7400000000000000000081529150612cd7565b6020808252810161082d816137f0565b601d81526000602082017f46756e6457616c6c65743a20696e76616c6964207369676e617475726500000081529150612cd7565b6020808252810161082d81613834565b608081016138868287612ada565b6138936020830186613151565b6138a060408301856122e2565b61096e60608301846122e2565b604081016132ea8285612ada565b601d81526000602082017f5061757365723a206163636f756e74206973206e6f742070617573657200000081529150612cd7565b6020808252810161082d816138bb565b602181526000602082017f5061757365723a206163636f756e7420697320616c72656164792070617573658152603960f91b60208201529150612d64565b6020808252810161082d816138ff565b602b81526000602082017f496e697469616c697a61626c653a20636f6e7472616374206973206e6f74206981526a6e697469616c697a696e6760a81b60208201529150612d64565b6020808252810161082d8161394d565b634e487b7160e01b600052601260045260246000fd5b6000826139ca576139ca6139a5565b500490565b60008160001904831182151516156139e9576139e96133af565b500290565b601c81526000602082017f42696c6c696e673a20656d7074792062696c6c207061796c6f6164730000000081529150612cd7565b6020808252810161082d816139ee565b634e487b7160e01b600052603260045260246000fd5b601981526000602082017f42696c6c696e673a20656d7074792062696c6c20656e7472790000000000000081529150612cd7565b6020808252810161082d81613a48565b60608101613a9a828661236d565b61334760208301856122e2565b6000600019821415613abb57613abb6133af565b5060010190565b806122e4565b61190160f01b81526002016000613adf8285613ac2565b602082019150613aef8284613ac2565b5060200192915050565b60008219821115613b0c57613b0c6133af565b500190565b6060810161333a8286612ada565b602a81526000602082017f5361666545524332303a204552433230206f7065726174696f6e20646964206e8152691bdd081cdd58d8d9595960b21b60208201529150612d64565b6020808252810161082d81613b1f565b601581526000602082017442696c6c696e673a207a65726f206164647265737360581b81529150612cd7565b6020808252810161082d81613b76565b60a08101613bc082886122e2565b613bcd60208301876122e2565b613bda60408301866122e2565b613be760608301856122e2565b610e276080830184612ada565b601d81526000602082017f416464726573733a2063616c6c20746f206e6f6e2d636f6e747261637400000081529150612cd7565b6020808252810161082d81613bf4565b6000613c42825190565b613c50818560208601612a6b565b9290920192915050565b60006115108284613c3856fea26469706673582212209041ea12748a40c653cb2655d463df18faa159d535b6fc35e5f88e354f8443de64736f6c63430008090033",
  "devdoc": {
    "author": "Alexandas",
    "details": "FundWallet contract",
    "kind": "dev",
    "methods": {
      "addPauser(address)": {
        "details": "add a pauser for the contract",
        "params": {
          "account": "address"
        }
      },
      "balanceOf(address,bytes32)": {
        "details": "return balance of account",
        "params": {
          "account": "user account",
          "provider": "provider address"
        },
        "returns": {
          "_0": "balance of account account"
        }
      },
      "billsHash(address,uint64,bytes32,bytes,uint256)": {
        "details": "return hash for bills",
        "params": {
          "account": "user account",
          "bills": "user bills",
          "expiration": "bills expiration",
          "nonce": "nonce",
          "provider": "provider address"
        },
        "returns": {
          "_0": "bills hash"
        }
      },
      "decodeBills(bytes)": {
        "details": "decode bill bytes to user bill",
        "params": {
          "data": "bill bytes"
        },
        "returns": {
          "_0": "user bills"
        }
      },
      "encodeBills((uint256,(uint8,uint256)[])[])": {
        "details": "encode bill to bytes",
        "params": {
          "bills": "user bills"
        },
        "returns": {
          "_0": "bills bytes"
        }
      },
      "hashTypedDataV4ForBills(address,uint64,bytes32,bytes,uint256)": {
        "details": "return hash typed v4 for sign",
        "params": {
          "account": "user account",
          "bills": "user bills",
          "nonce": "nonce",
          "provider": "provider address"
        },
        "returns": {
          "_0": "bills hash typed v4"
        }
      },
      "hashTypedDataV4ForRecharge(address,uint64,bytes32,uint256)": {
        "details": "return recharge hash typed v4",
        "params": {
          "account": "user account",
          "amount": "token amount",
          "nonce": "nonce",
          "provider": "provider address"
        },
        "returns": {
          "_0": "recharge hash typed v4"
        }
      },
      "initialize(address,address,address,address,address,string,string,string,string)": {
        "details": "proxy initialize function",
        "params": {
          "_providers": "providers contract address",
          "_token": "token address",
          "adaptor": "resource adaptor contract address",
          "billsTypes": "bills types",
          "name": "EIP712 domain name",
          "owner": "contract owner",
          "pauser": "contract pauser",
          "rechargeTypes": "recharge types",
          "version": "EIP712 domain version"
        }
      },
      "isPauser(address)": {
        "details": "whether the account is the contract pauser",
        "params": {
          "account": "address"
        },
        "returns": {
          "_0": "whether account is a pauser"
        }
      },
      "matchResourceToToken(uint256)": {
        "details": "match value to token decimals",
        "params": {
          "value": "resource value"
        },
        "returns": {
          "_0": "token value"
        }
      },
      "matchTokenToResource(uint256)": {
        "details": "match token amount to resource decimals",
        "params": {
          "value": "token amount with resource decimals"
        },
        "returns": {
          "_0": "resource value"
        }
      },
      "owner()": {
        "details": "Returns the address of the current owner."
      },
      "ownerOf(address,bytes32)": {
        "details": "return owner of account",
        "params": {
          "account": "user account",
          "provider": "provider address"
        },
        "returns": {
          "_0": "owner wallet owner for account"
        }
      },
      "ownerWithdrawERC20(address,address,uint256)": {
        "details": "withdraw token",
        "params": {
          "to": "receiver address",
          "token": "token address",
          "value": "token value"
        }
      },
      "ownerWithdrawNative(address,uint256)": {
        "details": "withdraw ETH",
        "params": {
          "to": "receiver address",
          "value": "token value"
        }
      },
      "pause()": {
        "details": "pause the contract"
      },
      "paused()": {
        "details": "Returns true if the contract is paused, and false otherwise."
      },
      "recharge(address,uint64,bytes32,uint256,bytes)": {
        "details": "recharge for account",
        "params": {
          "account": "user account",
          "amount": "token amount",
          "nonce": "nonce",
          "provider": "provider address",
          "signature": "provider signature"
        }
      },
      "rechargeHash(address,uint64,bytes32,uint256)": {
        "details": "return recharge typed hash",
        "params": {
          "account": "user account",
          "amount": "token amount",
          "nonce": "nonce",
          "provider": "provider address"
        },
        "returns": {
          "_0": "recharge typed hash"
        }
      },
      "removePauser(address)": {
        "details": "remove a pauser for the contract",
        "params": {
          "account": "address"
        }
      },
      "renounceOwnership()": {
        "details": "Leaves the contract without owner. It will not be possible to call `onlyOwner` functions anymore. Can only be called by the current owner. NOTE: Renouncing ownership will leave the contract without an owner, thereby removing any functionality that is only available to the owner."
      },
      "renouncePauser()": {
        "details": "remove a pauser for the contract"
      },
      "resourceDecimals()": {
        "details": "return resource decimals",
        "returns": {
          "_0": "resource decimals"
        }
      },
      "setBillsTypedHash(string)": {
        "details": "update bills typed hash",
        "params": {
          "types": "bills types"
        }
      },
      "setRechargeTypedHash(string)": {
        "details": "update recharge typed hash",
        "params": {
          "types": "recharge types"
        }
      },
      "setToken(address)": {
        "details": "update token",
        "params": {
          "_token": "token address"
        }
      },
      "spend(address,uint64,bytes32,bytes,uint256,bytes)": {
        "details": "spend bills for account",
        "params": {
          "account": "user account",
          "bills": "bills bytes",
          "expiration": "tx expiration",
          "fee": "bills fee",
          "nonce": "nonce",
          "provider": "provider address",
          "signature": "provider signature"
        }
      },
      "tokenDecimals()": {
        "details": "return token decimals",
        "returns": {
          "_0": "token decimals"
        }
      },
      "transferOwnership(address)": {
        "details": "Transfers ownership of the contract to a new account (`newOwner`). Can only be called by the current owner."
      },
      "transferWalletOwner(address,bytes32,address)": {
        "details": "transfer wallet owner for account",
        "params": {
          "account": "user account",
          "newOwner": "new wallet owner for account",
          "provider": "provider address"
        }
      },
      "unpause()": {
        "details": "unpause the contract"
      },
      "withdraw((address,uint64,bytes32,bytes,uint256),address,uint256,bytes)": {
        "details": "withdraw token for account",
        "params": {
          "amount": "token amount",
          "payload": "bill payload",
          "signature": "provider signature",
          "to": "token receiver"
        },
        "returns": {
          "fee": "bill fee"
        }
      }
    },
    "stateVariables": {
      "nonces": {
        "details": "provider nonces for account"
      },
      "rechargeTypedHash": {
        "details": "keccak256(\"Recharge(address provider,uint64 nonce,bytes32 account,uint256 amount)\")"
      },
      "wallets": {
        "details": "account wallet"
      }
    },
    "version": 1
  },
  "userdoc": {
    "kind": "user",
    "methods": {},
    "version": 1
  },
  "storageLayout": {
    "storage": [
      {
        "astId": 147,
        "contract": "contracts/wallets/FundWallet.sol:FundWallet",
        "label": "_initialized",
        "offset": 0,
        "slot": "0",
        "type": "t_bool"
      },
      {
        "astId": 150,
        "contract": "contracts/wallets/FundWallet.sol:FundWallet",
        "label": "_initializing",
        "offset": 1,
        "slot": "0",
        "type": "t_bool"
      },
      {
        "astId": 6287,
        "contract": "contracts/wallets/FundWallet.sol:FundWallet",
        "label": "token",
        "offset": 2,
        "slot": "0",
        "type": "t_contract(IERC20Upgradeable)462"
      },
      {
        "astId": 6990,
        "contract": "contracts/wallets/FundWallet.sol:FundWallet",
        "label": "providers",
        "offset": 0,
        "slot": "1",
        "type": "t_contract(IProviders)4281"
      },
      {
        "astId": 1670,
        "contract": "contracts/wallets/FundWallet.sol:FundWallet",
        "label": "_HASHED_NAME",
        "offset": 0,
        "slot": "2",
        "type": "t_bytes32"
      },
      {
        "astId": 1672,
        "contract": "contracts/wallets/FundWallet.sol:FundWallet",
        "label": "_HASHED_VERSION",
        "offset": 0,
        "slot": "3",
        "type": "t_bytes32"
      },
      {
        "astId": 1810,
        "contract": "contracts/wallets/FundWallet.sol:FundWallet",
        "label": "__gap",
        "offset": 0,
        "slot": "4",
        "type": "t_array(t_uint256)50_storage"
      },
      {
        "astId": 8636,
        "contract": "contracts/wallets/FundWallet.sol:FundWallet",
        "label": "billsTypedHash",
        "offset": 0,
        "slot": "54",
        "type": "t_bytes32"
      },
      {
        "astId": 8641,
        "contract": "contracts/wallets/FundWallet.sol:FundWallet",
        "label": "adaptor",
        "offset": 0,
        "slot": "55",
        "type": "t_contract(IResourceAdaptor)8596"
      },
      {
        "astId": 970,
        "contract": "contracts/wallets/FundWallet.sol:FundWallet",
        "label": "__gap",
        "offset": 0,
        "slot": "56",
        "type": "t_array(t_uint256)50_storage"
      },
      {
        "astId": 10,
        "contract": "contracts/wallets/FundWallet.sol:FundWallet",
        "label": "_owner",
        "offset": 0,
        "slot": "106",
        "type": "t_address"
      },
      {
        "astId": 122,
        "contract": "contracts/wallets/FundWallet.sol:FundWallet",
        "label": "__gap",
        "offset": 0,
        "slot": "107",
        "type": "t_array(t_uint256)49_storage"
      },
      {
        "astId": 235,
        "contract": "contracts/wallets/FundWallet.sol:FundWallet",
        "label": "_paused",
        "offset": 0,
        "slot": "156",
        "type": "t_bool"
      },
      {
        "astId": 324,
        "contract": "contracts/wallets/FundWallet.sol:FundWallet",
        "label": "__gap",
        "offset": 0,
        "slot": "157",
        "type": "t_array(t_uint256)49_storage"
      },
      {
        "astId": 3749,
        "contract": "contracts/wallets/FundWallet.sol:FundWallet",
        "label": "pausers",
        "offset": 0,
        "slot": "206",
        "type": "t_mapping(t_address,t_bool)"
      },
      {
        "astId": 339,
        "contract": "contracts/wallets/FundWallet.sol:FundWallet",
        "label": "_status",
        "offset": 0,
        "slot": "207",
        "type": "t_uint256"
      },
      {
        "astId": 383,
        "contract": "contracts/wallets/FundWallet.sol:FundWallet",
        "label": "__gap",
        "offset": 0,
        "slot": "208",
        "type": "t_array(t_uint256)49_storage"
      },
      {
        "astId": 9047,
        "contract": "contracts/wallets/FundWallet.sol:FundWallet",
        "label": "rechargeTypedHash",
        "offset": 0,
        "slot": "257",
        "type": "t_bytes32"
      },
      {
        "astId": 9057,
        "contract": "contracts/wallets/FundWallet.sol:FundWallet",
        "label": "nonces",
        "offset": 0,
        "slot": "258",
        "type": "t_mapping(t_address,t_mapping(t_bytes32,t_mapping(t_uint64,t_enum(Purpose)4031)))"
      },
      {
        "astId": 9065,
        "contract": "contracts/wallets/FundWallet.sol:FundWallet",
        "label": "wallets",
        "offset": 0,
        "slot": "259",
        "type": "t_mapping(t_address,t_mapping(t_bytes32,t_struct(Wallet)4036_storage))"
      }
    ],
    "types": {
      "t_address": {
        "encoding": "inplace",
        "label": "address",
        "numberOfBytes": "20"
      },
      "t_array(t_uint256)49_storage": {
        "base": "t_uint256",
        "encoding": "inplace",
        "label": "uint256[49]",
        "numberOfBytes": "1568"
      },
      "t_array(t_uint256)50_storage": {
        "base": "t_uint256",
        "encoding": "inplace",
        "label": "uint256[50]",
        "numberOfBytes": "1600"
      },
      "t_bool": {
        "encoding": "inplace",
        "label": "bool",
        "numberOfBytes": "1"
      },
      "t_bytes32": {
        "encoding": "inplace",
        "label": "bytes32",
        "numberOfBytes": "32"
      },
      "t_contract(IERC20Upgradeable)462": {
        "encoding": "inplace",
        "label": "contract IERC20Upgradeable",
        "numberOfBytes": "20"
      },
      "t_contract(IProviders)4281": {
        "encoding": "inplace",
        "label": "contract IProviders",
        "numberOfBytes": "20"
      },
      "t_contract(IResourceAdaptor)8596": {
        "encoding": "inplace",
        "label": "contract IResourceAdaptor",
        "numberOfBytes": "20"
      },
      "t_enum(Purpose)4031": {
        "encoding": "inplace",
        "label": "enum IFundWallet.Purpose",
        "numberOfBytes": "1"
      },
      "t_mapping(t_address,t_bool)": {
        "encoding": "mapping",
        "key": "t_address",
        "label": "mapping(address => bool)",
        "numberOfBytes": "32",
        "value": "t_bool"
      },
      "t_mapping(t_address,t_mapping(t_bytes32,t_mapping(t_uint64,t_enum(Purpose)4031)))": {
        "encoding": "mapping",
        "key": "t_address",
        "label": "mapping(address => mapping(bytes32 => mapping(uint64 => enum IFundWallet.Purpose)))",
        "numberOfBytes": "32",
        "value": "t_mapping(t_bytes32,t_mapping(t_uint64,t_enum(Purpose)4031))"
      },
      "t_mapping(t_address,t_mapping(t_bytes32,t_struct(Wallet)4036_storage))": {
        "encoding": "mapping",
        "key": "t_address",
        "label": "mapping(address => mapping(bytes32 => struct IFundWallet.Wallet))",
        "numberOfBytes": "32",
        "value": "t_mapping(t_bytes32,t_struct(Wallet)4036_storage)"
      },
      "t_mapping(t_bytes32,t_mapping(t_uint64,t_enum(Purpose)4031))": {
        "encoding": "mapping",
        "key": "t_bytes32",
        "label": "mapping(bytes32 => mapping(uint64 => enum IFundWallet.Purpose))",
        "numberOfBytes": "32",
        "value": "t_mapping(t_uint64,t_enum(Purpose)4031)"
      },
      "t_mapping(t_bytes32,t_struct(Wallet)4036_storage)": {
        "encoding": "mapping",
        "key": "t_bytes32",
        "label": "mapping(bytes32 => struct IFundWallet.Wallet)",
        "numberOfBytes": "32",
        "value": "t_struct(Wallet)4036_storage"
      },
      "t_mapping(t_uint64,t_enum(Purpose)4031)": {
        "encoding": "mapping",
        "key": "t_uint64",
        "label": "mapping(uint64 => enum IFundWallet.Purpose)",
        "numberOfBytes": "32",
        "value": "t_enum(Purpose)4031"
      },
      "t_struct(Wallet)4036_storage": {
        "encoding": "inplace",
        "label": "struct IFundWallet.Wallet",
        "members": [
          {
            "astId": 4033,
            "contract": "contracts/wallets/FundWallet.sol:FundWallet",
            "label": "owner",
            "offset": 0,
            "slot": "0",
            "type": "t_address"
          },
          {
            "astId": 4035,
            "contract": "contracts/wallets/FundWallet.sol:FundWallet",
            "label": "amount",
            "offset": 0,
            "slot": "1",
            "type": "t_uint256"
          }
        ],
        "numberOfBytes": "64"
      },
      "t_uint256": {
        "encoding": "inplace",
        "label": "uint256",
        "numberOfBytes": "32"
      },
      "t_uint64": {
        "encoding": "inplace",
        "label": "uint64",
        "numberOfBytes": "8"
      }
    }
  }
}