{
  "address": "0x3520261f80ad8cCdD17a1312490f663200D29CFE",
  "abi": [
    {
      "inputs": [],
      "stateMutability": "nonpayable",
      "type": "constructor"
    },
    {
      "anonymous": false,
      "inputs": [
        {
          "indexed": false,
          "internalType": "address",
          "name": "dstChainPayment",
          "type": "address"
        }
      ],
      "name": "DstChainPaymentUpdated",
      "type": "event"
    },
    {
      "anonymous": false,
      "inputs": [
        {
          "indexed": false,
          "internalType": "bytes32",
          "name": "account",
          "type": "bytes32"
        },
        {
          "indexed": false,
          "internalType": "uint256",
          "name": "expandedStorageFee",
          "type": "uint256"
        },
        {
          "indexed": false,
          "internalType": "uint256",
          "name": "expandedExpirationFee",
          "type": "uint256"
        }
      ],
      "name": "Expanded",
      "type": "event"
    },
    {
      "anonymous": false,
      "inputs": [
        {
          "indexed": true,
          "internalType": "address",
          "name": "previousOwner",
          "type": "address"
        },
        {
          "indexed": true,
          "internalType": "address",
          "name": "newOwner",
          "type": "address"
        }
      ],
      "name": "OwnershipTransferred",
      "type": "event"
    },
    {
      "anonymous": false,
      "inputs": [
        {
          "indexed": false,
          "internalType": "contract IResourceAdaptor",
          "name": "adaptor",
          "type": "address"
        }
      ],
      "name": "ResourceAdaptorUpdated",
      "type": "event"
    },
    {
      "anonymous": false,
      "inputs": [
        {
          "indexed": false,
          "internalType": "enum ResourceData.ResourceType",
          "name": "resourceType",
          "type": "uint8"
        }
      ],
      "name": "ResourceTypeUpdated",
      "type": "event"
    },
    {
      "inputs": [],
      "name": "adaptor",
      "outputs": [
        {
          "internalType": "contract IResourceAdaptor",
          "name": "",
          "type": "address"
        }
      ],
      "stateMutability": "view",
      "type": "function"
    },
    {
      "inputs": [
        {
          "internalType": "bytes32",
          "name": "account",
          "type": "bytes32"
        }
      ],
      "name": "availableExpiration",
      "outputs": [
        {
          "internalType": "uint256",
          "name": "",
          "type": "uint256"
        }
      ],
      "stateMutability": "view",
      "type": "function"
    },
    {
      "inputs": [
        {
          "internalType": "bytes32",
          "name": "account",
          "type": "bytes32"
        }
      ],
      "name": "balanceOf",
      "outputs": [
        {
          "internalType": "uint256",
          "name": "",
          "type": "uint256"
        }
      ],
      "stateMutability": "view",
      "type": "function"
    },
    {
      "inputs": [],
      "name": "dstChainPayment",
      "outputs": [
        {
          "internalType": "address",
          "name": "",
          "type": "address"
        }
      ],
      "stateMutability": "view",
      "type": "function"
    },
    {
      "inputs": [
        {
          "internalType": "bytes32",
          "name": "account",
          "type": "bytes32"
        },
        {
          "internalType": "uint256",
          "name": "expandedStorageFee",
          "type": "uint256"
        },
        {
          "internalType": "uint256",
          "name": "expandedExpirationFee",
          "type": "uint256"
        }
      ],
      "name": "expand",
      "outputs": [],
      "stateMutability": "nonpayable",
      "type": "function"
    },
    {
      "inputs": [
        {
          "internalType": "bytes32",
          "name": "account",
          "type": "bytes32"
        },
        {
          "internalType": "uint256",
          "name": "expandedStorage",
          "type": "uint256"
        },
        {
          "internalType": "uint256",
          "name": "expandedExpiration",
          "type": "uint256"
        }
      ],
      "name": "expandedFee",
      "outputs": [
        {
          "internalType": "uint256",
          "name": "expandedStorageFee",
          "type": "uint256"
        },
        {
          "internalType": "uint256",
          "name": "expandedExpirationFee",
          "type": "uint256"
        }
      ],
      "stateMutability": "view",
      "type": "function"
    },
    {
      "inputs": [
        {
          "internalType": "bytes32",
          "name": "account",
          "type": "bytes32"
        },
        {
          "internalType": "uint256",
          "name": "expandedStorageFee",
          "type": "uint256"
        },
        {
          "internalType": "uint256",
          "name": "expandedExpirationFee",
          "type": "uint256"
        }
      ],
      "name": "expansions",
      "outputs": [
        {
          "internalType": "uint256",
          "name": "expandedStorage",
          "type": "uint256"
        },
        {
          "internalType": "uint256",
          "name": "expandedExpiration",
          "type": "uint256"
        }
      ],
      "stateMutability": "view",
      "type": "function"
    },
    {
      "inputs": [
        {
          "internalType": "bytes32",
          "name": "account",
          "type": "bytes32"
        }
      ],
      "name": "expiration",
      "outputs": [
        {
          "internalType": "uint256",
          "name": "",
          "type": "uint256"
        }
      ],
      "stateMutability": "view",
      "type": "function"
    },
    {
      "inputs": [
        {
          "internalType": "bytes32",
          "name": "account",
          "type": "bytes32"
        }
      ],
      "name": "expiredAt",
      "outputs": [
        {
          "internalType": "uint256",
          "name": "",
          "type": "uint256"
        }
      ],
      "stateMutability": "view",
      "type": "function"
    },
    {
      "inputs": [
        {
          "internalType": "uint256",
          "name": "value",
          "type": "uint256"
        }
      ],
      "name": "getAmountOf",
      "outputs": [
        {
          "internalType": "uint256",
          "name": "",
          "type": "uint256"
        }
      ],
      "stateMutability": "view",
      "type": "function"
    },
    {
      "inputs": [
        {
          "internalType": "uint256",
          "name": "amount",
          "type": "uint256"
        }
      ],
      "name": "getValueOf",
      "outputs": [
        {
          "internalType": "uint256",
          "name": "",
          "type": "uint256"
        }
      ],
      "stateMutability": "view",
      "type": "function"
    },
    {
      "inputs": [
        {
          "internalType": "address",
          "name": "owner",
          "type": "address"
        },
        {
          "internalType": "address",
          "name": "dstChainPayment",
          "type": "address"
        },
        {
          "internalType": "contract IResourceAdaptor",
          "name": "adaptor",
          "type": "address"
        }
      ],
      "name": "initialize",
      "outputs": [],
      "stateMutability": "nonpayable",
      "type": "function"
    },
    {
      "inputs": [
        {
          "internalType": "bytes32",
          "name": "account",
          "type": "bytes32"
        }
      ],
      "name": "isExpired",
      "outputs": [
        {
          "internalType": "bool",
          "name": "",
          "type": "bool"
        }
      ],
      "stateMutability": "view",
      "type": "function"
    },
    {
      "inputs": [],
      "name": "owner",
      "outputs": [
        {
          "internalType": "address",
          "name": "",
          "type": "address"
        }
      ],
      "stateMutability": "view",
      "type": "function"
    },
    {
      "inputs": [],
      "name": "price",
      "outputs": [
        {
          "internalType": "uint256",
          "name": "",
          "type": "uint256"
        }
      ],
      "stateMutability": "view",
      "type": "function"
    },
    {
      "inputs": [],
      "name": "renounceOwnership",
      "outputs": [],
      "stateMutability": "nonpayable",
      "type": "function"
    },
    {
      "inputs": [],
      "name": "resourceType",
      "outputs": [
        {
          "internalType": "enum ResourceData.ResourceType",
          "name": "",
          "type": "uint8"
        }
      ],
      "stateMutability": "view",
      "type": "function"
    },
    {
      "inputs": [
        {
          "internalType": "address",
          "name": "_dstChainPayment",
          "type": "address"
        }
      ],
      "name": "setDstChainPayment",
      "outputs": [],
      "stateMutability": "nonpayable",
      "type": "function"
    },
    {
      "inputs": [
        {
          "internalType": "contract IResourceAdaptor",
          "name": "_adaptor",
          "type": "address"
        }
      ],
      "name": "setResourceAdaptor",
      "outputs": [],
      "stateMutability": "nonpayable",
      "type": "function"
    },
    {
      "inputs": [
        {
          "internalType": "enum ResourceData.ResourceType",
          "name": "_resourceType",
          "type": "uint8"
        }
      ],
      "name": "setResourceType",
      "outputs": [],
      "stateMutability": "nonpayable",
      "type": "function"
    },
    {
      "inputs": [
        {
          "internalType": "bytes32",
          "name": "account",
          "type": "bytes32"
        }
      ],
      "name": "startTime",
      "outputs": [
        {
          "internalType": "uint256",
          "name": "",
          "type": "uint256"
        }
      ],
      "stateMutability": "view",
      "type": "function"
    },
    {
      "inputs": [
        {
          "internalType": "address",
          "name": "newOwner",
          "type": "address"
        }
      ],
      "name": "transferOwnership",
      "outputs": [],
      "stateMutability": "nonpayable",
      "type": "function"
    }
  ],
  "transactionHash": "0x89f2b7acf863ea7dd99578350b8fb13b8aeba25aeb3bdf5ce3375ce239537e8c",
  "args": [],
  "solcInputHash": "ec72d91282387ee141c9901f905a1de5",
  "bytecode": "0x60806040523480156200001157600080fd5b50600054610100900460ff166200002f5760005460ff161562000039565b620000396200009e565b620000615760405162461bcd60e51b81526004016200005890620000cb565b60405180910390fd5b600054610100900460ff1615801562000084576000805461ffff19166101011790555b801562000097576000805461ff00191690555b5062000124565b6000620000b630620000bc60201b6200099b1760201c565b15905090565b6001600160a01b03163b151590565b602080825281016200011e81602e81527f496e697469616c697a61626c653a20636f6e747261637420697320616c72656160208201526d191e481a5b9a5d1a585b1a5e995960921b604082015260600190565b92915050565b6111f580620001346000396000f3fe608060405234801561001057600080fd5b50600436106101425760003560e01c8063715018a6116100b8578063dc28b0f31161007c578063dc28b0f3146102c5578063f2fde38b146102d8578063f4daa3be146102eb578063f60cfa59146102fe578063f74d561f14610311578063f7d221901461032457600080fd5b8063715018a6146102685780638da5cb5b14610270578063a035b1fe1461028a578063c0c53b8b14610292578063c2cd9b2b146102a557600080fd5b80634513f23d1161010a5780634513f23d146101cb5780634e7c0d9a146101de57806356406fa5146101ff578063691b2a6d146102225780636c7f1542146102355780636db2feb21461024857600080fd5b806306570749146101475780630ab2b6b9146101705780633b148f59146101835780634235fec0146101a3578063429aafd9146101b8575b600080fd5b61015a610155366004610bba565b610345565b6040516101679190610beb565b60405180910390f35b61015a61017e366004610bba565b6103d9565b61015a610191366004610bba565b60009081526067602052604090205490565b6101b66101b1366004610bf9565b610417565b005b6101b66101c6366004610c6e565b610522565b6101b66101d9366004610cae565b610558565b6101f16101ec366004610bf9565b61058b565b604051610167929190610ccf565b61015a61020d366004610bba565b60009081526067602052604090206001015490565b6101b6610230366004610d02565b610654565b61015a610243366004610bba565b610687565b61025b610256366004610bba565b6106c5565b6040516101679190610d2b565b6101b66106d8565b6033546001600160a01b03165b6040516101679190610d42565b61015a61070e565b6101b66102a0366004610d50565b61079f565b6066546102b8906001600160a01b031681565b6040516101679190610daa565b6101f16102d3366004610bf9565b610839565b6101b66102e6366004610c6e565b6108e8565b61015a6102f9366004610bba565b610941565b60655461027d906001600160a01b031681565b61015a61031f366004610bba565b61097c565b60665461033890600160a01b900460ff1681565b6040516101679190610e01565b60665460405163a6170b5160e01b81526000916001600160a01b0381169163a6170b519161038391600160a01b90910460ff16908690600401610e0f565b60206040518083038186803b15801561039b57600080fd5b505afa1580156103af573d6000803e3d6000fd5b505050506040513d601f19601f820116820180604052508101906103d39190610e28565b92915050565b606654604051630d1f7d6360e31b81526000916001600160a01b038116916368fbeb189161038391600160a01b90910460ff16908690600401610e0f565b6065546001600160a01b0316331461044a5760405162461bcd60e51b815260040161044190610ea6565b60405180910390fd5b60008061045885858561058b565b91509150610465856106c5565b1561048d576000858152606760205260409020428155600281018390556001018190556104e0565b6000858152606760205260409020600201546104a990836109aa565b60008681526067602052604090206002810191909155600101546104cd90826109aa565b6000868152606760205260409020600101555b7f5395fb578323cdb0b69f604c363dd84cab44b6f6e054c61d61c8a7ddf6e6998c85858560405161051393929190610eb6565b60405180910390a15050505050565b6033546001600160a01b0316331461054c5760405162461bcd60e51b815260040161044190610ede565b610555816109bd565b50565b6033546001600160a01b031633146105825760405162461bcd60e51b815260040161044190610ede565b61055581610a13565b600080610597856106c5565b156105ed576000841180156105ac5750600083115b6105c85760405162461bcd60e51b815260040161044190610f72565b6105da6105d361070e565b8590610a5e565b91506105e68385610a5e565b905061064c565b60008411806105fc5750600083115b6106185760405162461bcd60e51b815260040161044190610fc4565b6106276105d361017e87610941565b915061064961064261017e8461063c89610687565b906109aa565b8490610a5e565b90505b935093915050565b6033546001600160a01b0316331461067e5760405162461bcd60e51b815260040161044190610ede565b61055581610a6a565b6000610692826106c5565b156106af5760405162461bcd60e51b81526004016104419061101b565b5060009081526067602052604090206002015490565b60006106d08261097c565b421192915050565b6033546001600160a01b031633146107025760405162461bcd60e51b815260040161044190610ede565b61070c6000610ac3565b565b60665460405163912397c360e01b81526000916001600160a01b0381169163912397c39161074a91600160a01b90910460ff1690600401610e01565b60206040518083038186803b15801561076257600080fd5b505afa158015610776573d6000803e3d6000fd5b505050506040513d601f19601f8201168201806040525081019061079a9190610e28565b905090565b600054610100900460ff166107ba5760005460ff16156107be565b303b155b6107da5760405162461bcd60e51b815260040161044190611076565b600054610100900460ff161580156107fc576000805461ffff19166101011790555b61080584610ac3565b61080e83610b15565b61081782610b3c565b6108216004610b63565b8015610833576000805461ff00191690555b50505050565b600080610845856106c5565b1561088b5760008411801561085a5750600083115b6108765760405162461bcd60e51b815260040161044190610f72565b61087f846103d9565b91506105e68484610b8a565b600084118061089a5750600083115b6108b65760405162461bcd60e51b815260040161044190610fc4565b6108cc6108c561017e87610941565b8590610b8a565b91506106496108e161017e8661063c89610687565b8490610b8a565b6033546001600160a01b031633146109125760405162461bcd60e51b815260040161044190610ede565b6001600160a01b0381166109385760405162461bcd60e51b8152600401610441906110c9565b61055581610ac3565b600061094c826106c5565b156109695760405162461bcd60e51b81526004016104419061101b565b6103d3426109768461097c565b90610b96565b6000818152606760205260408120600181015490546103d3919061063c565b6001600160a01b03163b151590565b60006109b682846110ef565b9392505050565b606580546001600160a01b0319166001600160a01b0383161790556040517ff2071e1b38ab3c561fb5d090a912ad00d911946da5f417b4eac46024a2f6ed6090610a08908390610d42565b60405180910390a150565b606680546001600160a01b0319166001600160a01b0383161790556040517fcb398744d70dd9f7eb9e1e65c9c74f4d3276143240e25316135eb6585db6c1c190610a08908390610daa565b60006109b6828461111d565b6066805482919060ff60a01b1916600160a01b836004811115610a8f57610a8f610db8565b02179055507ffd8efb560fb934faf6ee365a559c93f9a480bad1f14c5041d2cb8468296f87f081604051610a089190610e01565b603380546001600160a01b038381166001600160a01b0319831681179093556040519116919082907f8be0079c531659141344cd1fd0a4f28419497f9722a3daafe3b4186f6b6457e090600090a35050565b600054610100900460ff1661054c5760405162461bcd60e51b815260040161044190611179565b600054610100900460ff166105825760405162461bcd60e51b815260040161044190611179565b600054610100900460ff1661067e5760405162461bcd60e51b815260040161044190611179565b60006109b68284611189565b60006109b682846111a8565b805b811461055557600080fd5b80356103d381610ba2565b600060208284031215610bcf57610bcf600080fd5b6000610bdb8484610baf565b949350505050565b805b82525050565b602081016103d38284610be3565b600080600060608486031215610c1157610c11600080fd5b6000610c1d8686610baf565b9350506020610c2e86828701610baf565b9250506040610c3f86828701610baf565b9150509250925092565b60006001600160a01b0382166103d3565b610ba481610c49565b80356103d381610c5a565b600060208284031215610c8357610c83600080fd5b6000610bdb8484610c63565b60006103d382610c49565b610ba481610c8f565b80356103d381610c9a565b600060208284031215610cc357610cc3600080fd5b6000610bdb8484610ca3565b60408101610cdd8285610be3565b6109b66020830184610be3565b6005811061055557600080fd5b80356103d381610cea565b600060208284031215610d1757610d17600080fd5b6000610bdb8484610cf7565b801515610be5565b602081016103d38284610d23565b610be581610c49565b602081016103d38284610d39565b600080600060608486031215610d6857610d68600080fd5b6000610d748686610c63565b9350506020610d8586828701610c63565b9250506040610c3f86828701610ca3565b60006103d382610c8f565b610be581610d96565b602081016103d38284610da1565b634e487b7160e01b600052602160045260246000fd5b6005811061055557610555610db8565b80610de881610dce565b919050565b60006103d382610dde565b610be581610ded565b602081016103d38284610df8565b60408101610cdd8285610df8565b80516103d381610ba2565b600060208284031215610e3d57610e3d600080fd5b6000610bdb8484610e1d565b603781526000602082017f447374436861696e5061796d656e74577261707065723a2063616c6c6572206981527f73206e6f742064737420636861696e207061796d656e74000000000000000000602082015291505b5060400190565b602080825281016103d381610e49565b60608101610ec48286610be3565b610ed16020830185610be3565b610bdb6040830184610be3565b60208082528181019081527f4f776e61626c653a2063616c6c6572206973206e6f7420746865206f776e65726040830152606082016103d3565b603a81526000602082017f4950465353746f72616765436f6e74726f6c6c65723a20696e76616c6964207081527f6172616d7320776974682065787069726564206163636f756e7400000000000060208201529150610e9f565b602080825281016103d381610f18565b602581526000602082017f4950465353746f72616765436f6e74726f6c6c65723a20696e76616c696420708152646172616d7360d81b60208201529150610e9f565b602080825281016103d381610f82565b602a81526000602082017f4950465353746f72616765436f6e74726f6c6c65723a206163636f756e742069815269399032bc3834b932b21760b11b60208201529150610e9f565b602080825281016103d381610fd4565b602e81526000602082017f496e697469616c697a61626c653a20636f6e747261637420697320616c72656181526d191e481a5b9a5d1a585b1a5e995960921b60208201529150610e9f565b602080825281016103d38161102b565b602681526000602082017f4f776e61626c653a206e6577206f776e657220697320746865207a65726f206181526564647265737360d01b60208201529150610e9f565b602080825281016103d381611086565b634e487b7160e01b600052601160045260246000fd5b60008219821115611102576111026110d9565b500190565b634e487b7160e01b600052601260045260246000fd5b60008261112c5761112c611107565b500490565b602b81526000602082017f496e697469616c697a61626c653a20636f6e7472616374206973206e6f74206981526a6e697469616c697a696e6760a81b60208201529150610e9f565b602080825281016103d381611131565b60008160001904831182151516156111a3576111a36110d9565b500290565b6000828210156111ba576111ba6110d9565b50039056fea26469706673582212203281ef945162d9ab24b17b195869325593668592dbd617dd9bb7fb1da750e4db64736f6c63430008090033",
  "devdoc": {
    "author": "Alexandas",
    "details": "IPFS storage controller",
    "kind": "dev",
    "methods": {
      "availableExpiration(bytes32)": {
        "details": "return available expiration time for the account",
        "params": {
          "account": "user account"
        },
        "returns": {
          "_0": "available expiration time for the account"
        }
      },
      "balanceOf(bytes32)": {
        "details": "return ipfs storage amount for the account",
        "params": {
          "account": "user account"
        },
        "returns": {
          "_0": "ipfs storage amount for the account"
        }
      },
      "expand(bytes32,uint256,uint256)": {
        "details": "expand storage and expiration",
        "params": {
          "account": "user account",
          "expandedExpirationFee": "expiration fee",
          "expandedStorageFee": "storage fee"
        }
      },
      "expandedFee(bytes32,uint256,uint256)": {
        "details": "calculate fee for storage and expiration",
        "params": {
          "account": "user account",
          "expandedExpiration": "expiration(in seconds)",
          "expandedStorage": "storage amount"
        },
        "returns": {
          "expandedExpirationFee": "expiration fee",
          "expandedStorageFee": "storage fee"
        }
      },
      "expansions(bytes32,uint256,uint256)": {
        "details": "calculate fee for storage and expiration",
        "params": {
          "account": "user account",
          "expandedExpirationFee": "expiration fee",
          "expandedStorageFee": "storage fee"
        },
        "returns": {
          "expandedExpiration": "expiration(in seconds)",
          "expandedStorage": "storage amount"
        }
      },
      "expiration(bytes32)": {
        "details": "return total expiration time for the account",
        "params": {
          "account": "user account"
        },
        "returns": {
          "_0": "total expiration time for the account"
        }
      },
      "expiredAt(bytes32)": {
        "details": "return when the account will expire",
        "params": {
          "account": "user account"
        },
        "returns": {
          "_0": "when the account will expire"
        }
      },
      "getAmountOf(uint256)": {
        "details": "calculate resource amount for value"
      },
      "getValueOf(uint256)": {
        "details": "calculate resource value for amount"
      },
      "initialize(address,address,address)": {
        "details": "proxy initialize function",
        "params": {
          "adaptor": "resource adaptor contract address",
          "dstChainPayment": "dst chain payment contract address",
          "owner": "contract owner"
        }
      },
      "isExpired(bytes32)": {
        "details": "return whether ipfs storage is expired for the account",
        "params": {
          "account": "user account"
        },
        "returns": {
          "_0": "whether ipfs storage is expired for the account"
        }
      },
      "owner()": {
        "details": "Returns the address of the current owner."
      },
      "price()": {
        "details": "return resource price"
      },
      "renounceOwnership()": {
        "details": "Leaves the contract without owner. It will not be possible to call `onlyOwner` functions anymore. Can only be called by the current owner. NOTE: Renouncing ownership will leave the contract without an owner, thereby removing any functionality that is only available to the owner."
      },
      "setDstChainPayment(address)": {
        "details": "update dst chain payment contract address",
        "params": {
          "_dstChainPayment": "dst chain payment contract address"
        }
      },
      "setResourceAdaptor(address)": {
        "details": "update resource adaptor contract",
        "params": {
          "_adaptor": "resource adaptor contract"
        }
      },
      "setResourceType(uint8)": {
        "details": "update resource type",
        "params": {
          "_resourceType": "resource type"
        }
      },
      "startTime(bytes32)": {
        "details": "return ipfs storage start time for the account",
        "params": {
          "account": "user account"
        },
        "returns": {
          "_0": "start time for the account"
        }
      },
      "transferOwnership(address)": {
        "details": "Transfers ownership of the contract to a new account (`newOwner`). Can only be called by the current owner."
      }
    },
    "stateVariables": {
      "ipfsStorage": {
        "details": "ipfs storage for account"
      }
    },
    "version": 1
  },
  "userdoc": {
    "kind": "user",
    "methods": {},
    "version": 1
  },
  "storageLayout": {
    "storage": [
      {
        "astId": 147,
        "contract": "contracts/resources/controllers/IPFSStorageController.sol:IPFSStorageController",
        "label": "_initialized",
        "offset": 0,
        "slot": "0",
        "type": "t_bool"
      },
      {
        "astId": 150,
        "contract": "contracts/resources/controllers/IPFSStorageController.sol:IPFSStorageController",
        "label": "_initializing",
        "offset": 1,
        "slot": "0",
        "type": "t_bool"
      },
      {
        "astId": 970,
        "contract": "contracts/resources/controllers/IPFSStorageController.sol:IPFSStorageController",
        "label": "__gap",
        "offset": 0,
        "slot": "1",
        "type": "t_array(t_uint256)50_storage"
      },
      {
        "astId": 10,
        "contract": "contracts/resources/controllers/IPFSStorageController.sol:IPFSStorageController",
        "label": "_owner",
        "offset": 0,
        "slot": "51",
        "type": "t_address"
      },
      {
        "astId": 122,
        "contract": "contracts/resources/controllers/IPFSStorageController.sol:IPFSStorageController",
        "label": "__gap",
        "offset": 0,
        "slot": "52",
        "type": "t_array(t_uint256)49_storage"
      },
      {
        "astId": 6094,
        "contract": "contracts/resources/controllers/IPFSStorageController.sol:IPFSStorageController",
        "label": "dstChainPayment",
        "offset": 0,
        "slot": "101",
        "type": "t_address"
      },
      {
        "astId": 7156,
        "contract": "contracts/resources/controllers/IPFSStorageController.sol:IPFSStorageController",
        "label": "adaptor",
        "offset": 0,
        "slot": "102",
        "type": "t_contract(IResourceAdaptor)8638"
      },
      {
        "astId": 7161,
        "contract": "contracts/resources/controllers/IPFSStorageController.sol:IPFSStorageController",
        "label": "resourceType",
        "offset": 20,
        "slot": "102",
        "type": "t_enum(ResourceType)4796"
      },
      {
        "astId": 7755,
        "contract": "contracts/resources/controllers/IPFSStorageController.sol:IPFSStorageController",
        "label": "ipfsStorage",
        "offset": 0,
        "slot": "103",
        "type": "t_mapping(t_bytes32,t_struct(IPFSStorage)8426_storage)"
      }
    ],
    "types": {
      "t_address": {
        "encoding": "inplace",
        "label": "address",
        "numberOfBytes": "20"
      },
      "t_array(t_uint256)49_storage": {
        "base": "t_uint256",
        "encoding": "inplace",
        "label": "uint256[49]",
        "numberOfBytes": "1568"
      },
      "t_array(t_uint256)50_storage": {
        "base": "t_uint256",
        "encoding": "inplace",
        "label": "uint256[50]",
        "numberOfBytes": "1600"
      },
      "t_bool": {
        "encoding": "inplace",
        "label": "bool",
        "numberOfBytes": "1"
      },
      "t_bytes32": {
        "encoding": "inplace",
        "label": "bytes32",
        "numberOfBytes": "32"
      },
      "t_contract(IResourceAdaptor)8638": {
        "encoding": "inplace",
        "label": "contract IResourceAdaptor",
        "numberOfBytes": "20"
      },
      "t_enum(ResourceType)4796": {
        "encoding": "inplace",
        "label": "enum ResourceData.ResourceType",
        "numberOfBytes": "1"
      },
      "t_mapping(t_bytes32,t_struct(IPFSStorage)8426_storage)": {
        "encoding": "mapping",
        "key": "t_bytes32",
        "label": "mapping(bytes32 => struct IIPFSStorageController.IPFSStorage)",
        "numberOfBytes": "32",
        "value": "t_struct(IPFSStorage)8426_storage"
      },
      "t_struct(IPFSStorage)8426_storage": {
        "encoding": "inplace",
        "label": "struct IIPFSStorageController.IPFSStorage",
        "members": [
          {
            "astId": 8421,
            "contract": "contracts/resources/controllers/IPFSStorageController.sol:IPFSStorageController",
            "label": "startTime",
            "offset": 0,
            "slot": "0",
            "type": "t_uint256"
          },
          {
            "astId": 8423,
            "contract": "contracts/resources/controllers/IPFSStorageController.sol:IPFSStorageController",
            "label": "expiration",
            "offset": 0,
            "slot": "1",
            "type": "t_uint256"
          },
          {
            "astId": 8425,
            "contract": "contracts/resources/controllers/IPFSStorageController.sol:IPFSStorageController",
            "label": "amount",
            "offset": 0,
            "slot": "2",
            "type": "t_uint256"
          }
        ],
        "numberOfBytes": "96"
      },
      "t_uint256": {
        "encoding": "inplace",
        "label": "uint256",
        "numberOfBytes": "32"
      }
    }
  }
}