{
  "address": "0x9779278212d2CC146aDAD619Afa9c8FF2054D690",
  "abi": [
    {
      "inputs": [],
      "stateMutability": "nonpayable",
      "type": "constructor"
    },
    {
      "anonymous": false,
      "inputs": [
        {
          "indexed": false,
          "internalType": "address",
          "name": "provider",
          "type": "address"
        }
      ],
      "name": "AddProvider",
      "type": "event"
    },
    {
      "anonymous": false,
      "inputs": [
        {
          "indexed": true,
          "internalType": "address",
          "name": "previousOwner",
          "type": "address"
        },
        {
          "indexed": true,
          "internalType": "address",
          "name": "newOwner",
          "type": "address"
        }
      ],
      "name": "OwnershipTransferred",
      "type": "event"
    },
    {
      "anonymous": false,
      "inputs": [
        {
          "indexed": false,
          "internalType": "address",
          "name": "provider",
          "type": "address"
        }
      ],
      "name": "RemoveProvider",
      "type": "event"
    },
    {
      "inputs": [
        {
          "internalType": "address",
          "name": "provider",
          "type": "address"
        }
      ],
      "name": "addProvider",
      "outputs": [],
      "stateMutability": "nonpayable",
      "type": "function"
    },
    {
      "inputs": [
        {
          "internalType": "address",
          "name": "owner",
          "type": "address"
        },
        {
          "internalType": "address[]",
          "name": "_providers",
          "type": "address[]"
        }
      ],
      "name": "initialize",
      "outputs": [],
      "stateMutability": "nonpayable",
      "type": "function"
    },
    {
      "inputs": [
        {
          "internalType": "address",
          "name": "provider",
          "type": "address"
        }
      ],
      "name": "isProvider",
      "outputs": [
        {
          "internalType": "bool",
          "name": "",
          "type": "bool"
        }
      ],
      "stateMutability": "view",
      "type": "function"
    },
    {
      "inputs": [
        {
          "internalType": "address",
          "name": "provider",
          "type": "address"
        },
        {
          "internalType": "bytes32",
          "name": "hash",
          "type": "bytes32"
        },
        {
          "internalType": "bytes",
          "name": "signature",
          "type": "bytes"
        }
      ],
      "name": "isValidSignature",
      "outputs": [
        {
          "internalType": "bool",
          "name": "",
          "type": "bool"
        }
      ],
      "stateMutability": "view",
      "type": "function"
    },
    {
      "inputs": [],
      "name": "owner",
      "outputs": [
        {
          "internalType": "address",
          "name": "",
          "type": "address"
        }
      ],
      "stateMutability": "view",
      "type": "function"
    },
    {
      "inputs": [
        {
          "internalType": "address",
          "name": "provider",
          "type": "address"
        }
      ],
      "name": "removeProvider",
      "outputs": [],
      "stateMutability": "nonpayable",
      "type": "function"
    },
    {
      "inputs": [],
      "name": "renounceOwnership",
      "outputs": [],
      "stateMutability": "nonpayable",
      "type": "function"
    },
    {
      "inputs": [
        {
          "internalType": "address",
          "name": "newOwner",
          "type": "address"
        }
      ],
      "name": "transferOwnership",
      "outputs": [],
      "stateMutability": "nonpayable",
      "type": "function"
    }
  ],
  "transactionHash": "0x159ded9f390f60f7c6d5d1c8af9dd80a90c236901d060101853fe87f4bac29af",
  "args": [],
  "solcInputHash": "da9c392996f5bb5463935f1dd409f50d",
  "bytecode": "0x608060405234801561001057600080fd5b50600054610100900460ff1661002c5760005460ff1615610034565b610034610093565b6100595760405162461bcd60e51b8152600401610050906100bd565b60405180910390fd5b600054610100900460ff1615801561007b576000805461ffff19166101011790555b801561008d576000805461ff00191690555b50610115565b60006100a8306100ae60201b6103251760201c565b15905090565b6001600160a01b03163b151590565b6020808252810161010f81602e81527f496e697469616c697a61626c653a20636f6e747261637420697320616c72656160208201526d191e481a5b9a5d1a585b1a5e995960921b604082015260600190565b92915050565b610f0f806101246000396000f3fe608060405234801561001057600080fd5b50600436106100885760003560e01c80638a355a571161005b5780638a355a57146100ff5780638da5cb5b14610112578063946d92041461012b578063f2fde38b1461013e57600080fd5b8063238a4d1e1461008d57806346e2577a146100b65780636b074a07146100cb578063715018a6146100f7575b600080fd5b6100a061009b36600461094c565b610151565b6040516100ad91906109c1565b60405180910390f35b6100c96100c43660046109cf565b6101a7565b005b6100a06100d93660046109cf565b6001600160a01b031660009081526065602052604090205460ff1690565b6100c96101dd565b6100c961010d3660046109cf565b610213565b6033546001600160a01b03166040516100ad91906109f9565b6100c9610139366004610aaa565b610246565b6100c961014c3660046109cf565b6102cc565b6001600160a01b03831660009081526065602052604081205460ff166101925760405162461bcd60e51b815260040161018990610b39565b60405180910390fd5b61019d848484610334565b90505b9392505050565b6033546001600160a01b031633146101d15760405162461bcd60e51b815260040161018990610b7b565b6101da81610480565b50565b6033546001600160a01b031633146102075760405162461bcd60e51b815260040161018990610b7b565b6102116000610517565b565b6033546001600160a01b0316331461023d5760405162461bcd60e51b815260040161018990610b7b565b6101da81610569565b600054610100900460ff166102615760005460ff1615610265565b303b155b6102815760405162461bcd60e51b815260040161018990610bd9565b600054610100900460ff161580156102a3576000805461ffff19166101011790555b6102ac83610517565b6102b5826105f1565b80156102c7576000805461ff00191690555b505050565b6033546001600160a01b031633146102f65760405162461bcd60e51b815260040161018990610b7b565b6001600160a01b03811661031c5760405162461bcd60e51b815260040161018990610c2c565b6101da81610517565b6001600160a01b03163b151590565b6000806000610343858561067d565b9092509050600081600481111561035c5761035c610c3c565b14801561037a5750856001600160a01b0316826001600160a01b0316145b1561038a576001925050506101a0565b600080876001600160a01b0316631626ba7e60e01b88886040516024016103b2929190610cba565b60408051601f198184030181529181526020820180516001600160e01b03166001600160e01b03199094169390931790925290516103f09190610cfc565b600060405180830381855afa9150503d806000811461042b576040519150601f19603f3d011682016040523d82523d6000602084013e610430565b606091505b5091509150818015610443575080516020145b801561047457508051630b135d3f60e11b906104689083016020908101908401610d23565b6001600160e01b031916145b98975050505050505050565b6001600160a01b03811660009081526065602052604090205460ff16156104b95760405162461bcd60e51b815260040161018990610d78565b6001600160a01b03811660009081526065602052604090819020805460ff19166001179055517f635a554d7028e977037c71e4fefb0d02f19e160c13f01f813a18d362b4605c6d9061050c9083906109f9565b60405180910390a150565b603380546001600160a01b038381166001600160a01b0319831681179093556040519116919082907f8be0079c531659141344cd1fd0a4f28419497f9722a3daafe3b4186f6b6457e090600090a35050565b6001600160a01b03811660009081526065602052604090205460ff166105a15760405162461bcd60e51b815260040161018990610b39565b6001600160a01b03811660009081526065602052604090819020805460ff19169055517f8ab468b9f8f57e82f33d9a1742c03768ff84410a4911e8647bfa6418268769049061050c9083906109f9565b600054610100900460ff166106185760405162461bcd60e51b815260040161018990610dd0565b60008151116106395760405162461bcd60e51b815260040161018990610e23565b60005b81518110156106795761066782828151811061065a5761065a610e33565b6020026020010151610480565b8061067181610e5f565b91505061063c565b5050565b6000808251604114156106b45760208301516040840151606085015160001a6106a8878285856106ed565b945094505050506106e6565b8251604014156106de57602083015160408401516106d38683836107cd565b9350935050506106e6565b506000905060025b9250929050565b6000807f7fffffffffffffffffffffffffffffff5d576e7357a4501ddfe92f46681b20a083111561072457506000905060036107c4565b8460ff16601b1415801561073c57508460ff16601c14155b1561074d57506000905060046107c4565b6000600187878787604051600081526020016040526040516107729493929190610e83565b6020604051602081039080840390855afa158015610794573d6000803e3d6000fd5b5050604051601f1901519150506001600160a01b0381166107bd576000600192509250506107c4565b9150600090505b94509492505050565b6000806001600160ff1b038316816107ea60ff86901c601b610ec1565b90506107f8878288856106ed565b935093505050935093915050565b60006001600160a01b0382165b92915050565b61082281610806565b81146101da57600080fd5b803561081381610819565b80610822565b803561081381610838565b634e487b7160e01b600052604160045260246000fd5b601f19601f830116810181811067ffffffffffffffff8211171561088557610885610849565b6040525050565b600061089760405190565b90506108a3828261085f565b919050565b600067ffffffffffffffff8211156108c2576108c2610849565b601f19601f83011660200192915050565b82818337506000910152565b60006108f26108ed846108a8565b61088c565b90508281526020810184848401111561090d5761090d600080fd5b6109188482856108d3565b509392505050565b600082601f83011261093457610934600080fd5b81356109448482602086016108df565b949350505050565b60008060006060848603121561096457610964600080fd5b6000610970868661082d565b93505060206109818682870161083e565b925050604084013567ffffffffffffffff8111156109a1576109a1600080fd5b6109ad86828701610920565b9150509250925092565b8015155b82525050565b6020810161081382846109b7565b6000602082840312156109e4576109e4600080fd5b6000610944848461082d565b6109bb81610806565b6020810161081382846109f0565b600067ffffffffffffffff821115610a2157610a21610849565b5060209081020190565b6000610a396108ed84610a07565b83815290506020808201908402830185811115610a5857610a58600080fd5b835b81811015610a7c5780610a6d888261082d565b84525060209283019201610a5a565b5050509392505050565b600082601f830112610a9a57610a9a600080fd5b8135610944848260208601610a2b565b60008060408385031215610ac057610ac0600080fd5b6000610acc858561082d565b925050602083013567ffffffffffffffff811115610aec57610aec600080fd5b610af885828601610a86565b9150509250929050565b601f81526000602082017f50726f7669646572733a206e6f6e6578697374656e742070726f766964657200815291505b5060200190565b6020808252810161081381610b02565b60208082527f4f776e61626c653a2063616c6c6572206973206e6f7420746865206f776e657291019081526000610b32565b6020808252810161081381610b49565b602e81526000602082017f496e697469616c697a61626c653a20636f6e747261637420697320616c72656181526d191e481a5b9a5d1a585b1a5e995960921b602082015291505b5060400190565b6020808252810161081381610b8b565b602681526000602082017f4f776e61626c653a206e6577206f776e657220697320746865207a65726f206181526564647265737360d01b60208201529150610bd2565b6020808252810161081381610be9565b634e487b7160e01b600052602160045260246000fd5b806109bb565b60005b83811015610c73578181015183820152602001610c5b565b83811115610c82576000848401525b50505050565b6000610c92825190565b808452602084019350610ca9818560208601610c58565b601f01601f19169290920192915050565b60408101610cc88285610c52565b818103602083015261019d8184610c88565b6000610ce4825190565b610cf2818560208601610c58565b9290920192915050565b60006101a08284610cda565b6001600160e01b03198116610822565b805161081381610d08565b600060208284031215610d3857610d38600080fd5b60006109448484610d18565b601b81526000602082017f50726f7669646572733a2070726f76696465722065786973746564000000000081529150610b32565b6020808252810161081381610d44565b602b81526000602082017f496e697469616c697a61626c653a20636f6e7472616374206973206e6f74206981526a6e697469616c697a696e6760a81b60208201529150610bd2565b6020808252810161081381610d88565b602681526000602082017f50726f7669646572733a20696e76616c6964206c656e677468206f662070726f81526576696465727360d01b60208201529150610bd2565b6020808252810161081381610de0565b634e487b7160e01b600052603260045260246000fd5b634e487b7160e01b600052601160045260246000fd5b6000600019821415610e7357610e73610e49565b5060010190565b60ff81166109bb565b60808101610e918287610c52565b610e9e6020830186610e7a565b610eab6040830185610c52565b610eb86060830184610c52565b95945050505050565b60008219821115610ed457610ed4610e49565b50019056fea2646970667358221220dbb8fed1a6f423cb2eabfac97b6ce2577a2d4191b6412aab15aedfc988c49a8c64736f6c63430008090033",
  "devdoc": {
    "author": "Alexandas",
    "details": "providers contract",
    "kind": "dev",
    "methods": {
      "addProvider(address)": {
        "details": "add a provider with wallet",
        "params": {
          "provider": "address"
        }
      },
      "initialize(address,address[])": {
        "details": "proxy initialize function",
        "params": {
          "_providers": "providers",
          "owner": "contract owner"
        }
      },
      "isProvider(address)": {
        "details": "return whether address is a provider",
        "params": {
          "provider": "address"
        },
        "returns": {
          "_0": "whether address is a provider"
        }
      },
      "isValidSignature(address,bytes32,bytes)": {
        "details": "return whether a valid signature",
        "params": {
          "hash": "message hash",
          "provider": "address",
          "signature": "provider signature for message hash"
        },
        "returns": {
          "_0": "whether signature is valid"
        }
      },
      "owner()": {
        "details": "Returns the address of the current owner."
      },
      "removeProvider(address)": {
        "details": "remove a provider",
        "params": {
          "provider": "address"
        }
      },
      "renounceOwnership()": {
        "details": "Leaves the contract without owner. It will not be possible to call `onlyOwner` functions anymore. Can only be called by the current owner. NOTE: Renouncing ownership will leave the contract without an owner, thereby removing any functionality that is only available to the owner."
      },
      "transferOwnership(address)": {
        "details": "Transfers ownership of the contract to a new account (`newOwner`). Can only be called by the current owner."
      }
    },
    "stateVariables": {
      "providers": {
        "details": "all providers"
      }
    },
    "version": 1
  },
  "userdoc": {
    "kind": "user",
    "methods": {},
    "version": 1
  },
  "storageLayout": {
    "storage": [
      {
        "astId": 147,
        "contract": "contracts/providers/Providers.sol:Providers",
        "label": "_initialized",
        "offset": 0,
        "slot": "0",
        "type": "t_bool"
      },
      {
        "astId": 150,
        "contract": "contracts/providers/Providers.sol:Providers",
        "label": "_initializing",
        "offset": 1,
        "slot": "0",
        "type": "t_bool"
      },
      {
        "astId": 970,
        "contract": "contracts/providers/Providers.sol:Providers",
        "label": "__gap",
        "offset": 0,
        "slot": "1",
        "type": "t_array(t_uint256)50_storage"
      },
      {
        "astId": 10,
        "contract": "contracts/providers/Providers.sol:Providers",
        "label": "_owner",
        "offset": 0,
        "slot": "51",
        "type": "t_address"
      },
      {
        "astId": 122,
        "contract": "contracts/providers/Providers.sol:Providers",
        "label": "__gap",
        "offset": 0,
        "slot": "52",
        "type": "t_array(t_uint256)49_storage"
      },
      {
        "astId": 6780,
        "contract": "contracts/providers/Providers.sol:Providers",
        "label": "providers",
        "offset": 0,
        "slot": "101",
        "type": "t_mapping(t_address,t_bool)"
      }
    ],
    "types": {
      "t_address": {
        "encoding": "inplace",
        "label": "address",
        "numberOfBytes": "20"
      },
      "t_array(t_uint256)49_storage": {
        "base": "t_uint256",
        "encoding": "inplace",
        "label": "uint256[49]",
        "numberOfBytes": "1568"
      },
      "t_array(t_uint256)50_storage": {
        "base": "t_uint256",
        "encoding": "inplace",
        "label": "uint256[50]",
        "numberOfBytes": "1600"
      },
      "t_bool": {
        "encoding": "inplace",
        "label": "bool",
        "numberOfBytes": "1"
      },
      "t_mapping(t_address,t_bool)": {
        "encoding": "mapping",
        "key": "t_address",
        "label": "mapping(address => bool)",
        "numberOfBytes": "32",
        "value": "t_bool"
      },
      "t_uint256": {
        "encoding": "inplace",
        "label": "uint256",
        "numberOfBytes": "32"
      }
    }
  }
}