{
  "address": "0x869754Bd297DAD16D10Ab685C1dEe3fC9B893213",
  "abi": [
    {
      "inputs": [],
      "stateMutability": "nonpayable",
      "type": "constructor"
    },
    {
      "anonymous": false,
      "inputs": [
        {
          "indexed": false,
          "internalType": "address",
          "name": "billing",
          "type": "address"
        }
      ],
      "name": "BillingUpdated",
      "type": "event"
    },
    {
      "anonymous": false,
      "inputs": [
        {
          "indexed": false,
          "internalType": "contract IProviders",
          "name": "provider",
          "type": "address"
        },
        {
          "indexed": false,
          "internalType": "uint256",
          "name": "nonce",
          "type": "uint256"
        },
        {
          "indexed": false,
          "internalType": "address",
          "name": "owner",
          "type": "address"
        },
        {
          "indexed": false,
          "internalType": "bytes32",
          "name": "account",
          "type": "bytes32"
        },
        {
          "indexed": false,
          "internalType": "uint256",
          "name": "amount",
          "type": "uint256"
        }
      ],
      "name": "Charge",
      "type": "event"
    },
    {
      "anonymous": false,
      "inputs": [
        {
          "indexed": true,
          "internalType": "address",
          "name": "previousOwner",
          "type": "address"
        },
        {
          "indexed": true,
          "internalType": "address",
          "name": "newOwner",
          "type": "address"
        }
      ],
      "name": "OwnershipTransferred",
      "type": "event"
    },
    {
      "anonymous": false,
      "inputs": [
        {
          "indexed": false,
          "internalType": "address",
          "name": "account",
          "type": "address"
        }
      ],
      "name": "Paused",
      "type": "event"
    },
    {
      "anonymous": false,
      "inputs": [
        {
          "indexed": false,
          "internalType": "address",
          "name": "account",
          "type": "address"
        }
      ],
      "name": "PauserAdded",
      "type": "event"
    },
    {
      "anonymous": false,
      "inputs": [
        {
          "indexed": false,
          "internalType": "address",
          "name": "account",
          "type": "address"
        }
      ],
      "name": "PauserRemoved",
      "type": "event"
    },
    {
      "anonymous": false,
      "inputs": [
        {
          "indexed": false,
          "internalType": "contract IProviders",
          "name": "providers",
          "type": "address"
        }
      ],
      "name": "ProvidesUpdated",
      "type": "event"
    },
    {
      "anonymous": false,
      "inputs": [
        {
          "indexed": false,
          "internalType": "contract IProviders",
          "name": "provider",
          "type": "address"
        },
        {
          "indexed": false,
          "internalType": "uint256",
          "name": "nonce",
          "type": "uint256"
        },
        {
          "indexed": false,
          "internalType": "bytes32",
          "name": "account",
          "type": "bytes32"
        },
        {
          "indexed": false,
          "internalType": "uint256",
          "name": "fee",
          "type": "uint256"
        }
      ],
      "name": "Spend",
      "type": "event"
    },
    {
      "anonymous": false,
      "inputs": [
        {
          "indexed": false,
          "internalType": "contract IERC20Upgradeable",
          "name": "token",
          "type": "address"
        }
      ],
      "name": "TokenUpdated",
      "type": "event"
    },
    {
      "anonymous": false,
      "inputs": [
        {
          "indexed": false,
          "internalType": "address",
          "name": "account",
          "type": "address"
        }
      ],
      "name": "Unpaused",
      "type": "event"
    },
    {
      "anonymous": false,
      "inputs": [
        {
          "indexed": false,
          "internalType": "bytes32",
          "name": "account",
          "type": "bytes32"
        },
        {
          "indexed": false,
          "internalType": "address",
          "name": "newOwner",
          "type": "address"
        }
      ],
      "name": "WalletOwnerTransferred",
      "type": "event"
    },
    {
      "anonymous": false,
      "inputs": [
        {
          "indexed": false,
          "internalType": "contract IProviders",
          "name": "provider",
          "type": "address"
        },
        {
          "indexed": false,
          "internalType": "uint256",
          "name": "nonce",
          "type": "uint256"
        },
        {
          "indexed": false,
          "internalType": "bytes32",
          "name": "account",
          "type": "bytes32"
        },
        {
          "indexed": false,
          "internalType": "address",
          "name": "to",
          "type": "address"
        },
        {
          "indexed": false,
          "internalType": "uint256",
          "name": "amount",
          "type": "uint256"
        }
      ],
      "name": "Withdrawn",
      "type": "event"
    },
    {
      "inputs": [
        {
          "internalType": "address",
          "name": "account",
          "type": "address"
        }
      ],
      "name": "addPauser",
      "outputs": [],
      "stateMutability": "nonpayable",
      "type": "function"
    },
    {
      "inputs": [
        {
          "internalType": "bytes32",
          "name": "account",
          "type": "bytes32"
        }
      ],
      "name": "balanceOf",
      "outputs": [
        {
          "internalType": "uint256",
          "name": "",
          "type": "uint256"
        }
      ],
      "stateMutability": "view",
      "type": "function"
    },
    {
      "inputs": [],
      "name": "billing",
      "outputs": [
        {
          "internalType": "address",
          "name": "",
          "type": "address"
        }
      ],
      "stateMutability": "view",
      "type": "function"
    },
    {
      "inputs": [
        {
          "internalType": "contract IProviders",
          "name": "provider",
          "type": "address"
        },
        {
          "internalType": "uint256",
          "name": "nonce",
          "type": "uint256"
        },
        {
          "internalType": "address",
          "name": "owner",
          "type": "address"
        },
        {
          "internalType": "bytes32",
          "name": "account",
          "type": "bytes32"
        },
        {
          "internalType": "uint256",
          "name": "amount",
          "type": "uint256"
        },
        {
          "internalType": "bytes",
          "name": "signature",
          "type": "bytes"
        }
      ],
      "name": "charge",
      "outputs": [],
      "stateMutability": "nonpayable",
      "type": "function"
    },
    {
      "inputs": [
        {
          "internalType": "bytes",
          "name": "message",
          "type": "bytes"
        }
      ],
      "name": "decodeBill",
      "outputs": [
        {
          "components": [
            {
              "internalType": "uint256",
              "name": "indexBlock",
              "type": "uint256"
            },
            {
              "components": [
                {
                  "internalType": "enum ResourceData.ResourceType",
                  "name": "resourceType",
                  "type": "uint8"
                },
                {
                  "internalType": "uint256",
                  "name": "amount",
                  "type": "uint256"
                }
              ],
              "internalType": "struct IFundWallet.BillPayload[]",
              "name": "payloads",
              "type": "tuple[]"
            }
          ],
          "internalType": "struct IFundWallet.Bill[]",
          "name": "",
          "type": "tuple[]"
        }
      ],
      "stateMutability": "view",
      "type": "function"
    },
    {
      "inputs": [
        {
          "components": [
            {
              "internalType": "uint256",
              "name": "indexBlock",
              "type": "uint256"
            },
            {
              "components": [
                {
                  "internalType": "enum ResourceData.ResourceType",
                  "name": "resourceType",
                  "type": "uint8"
                },
                {
                  "internalType": "uint256",
                  "name": "amount",
                  "type": "uint256"
                }
              ],
              "internalType": "struct IFundWallet.BillPayload[]",
              "name": "payloads",
              "type": "tuple[]"
            }
          ],
          "internalType": "struct IFundWallet.Bill[]",
          "name": "bills",
          "type": "tuple[]"
        }
      ],
      "name": "encodeBill",
      "outputs": [
        {
          "internalType": "bytes",
          "name": "",
          "type": "bytes"
        }
      ],
      "stateMutability": "view",
      "type": "function"
    },
    {
      "inputs": [
        {
          "internalType": "address",
          "name": "owner",
          "type": "address"
        },
        {
          "internalType": "contract IERC20Upgradeable",
          "name": "_token",
          "type": "address"
        },
        {
          "internalType": "contract IProviders",
          "name": "_providers",
          "type": "address"
        },
        {
          "internalType": "address",
          "name": "_billing",
          "type": "address"
        }
      ],
      "name": "initialize",
      "outputs": [],
      "stateMutability": "nonpayable",
      "type": "function"
    },
    {
      "inputs": [
        {
          "internalType": "address",
          "name": "account",
          "type": "address"
        }
      ],
      "name": "isPauser",
      "outputs": [
        {
          "internalType": "bool",
          "name": "",
          "type": "bool"
        }
      ],
      "stateMutability": "view",
      "type": "function"
    },
    {
      "inputs": [
        {
          "internalType": "uint256",
          "name": "",
          "type": "uint256"
        }
      ],
      "name": "nonces",
      "outputs": [
        {
          "internalType": "bool",
          "name": "",
          "type": "bool"
        }
      ],
      "stateMutability": "view",
      "type": "function"
    },
    {
      "inputs": [],
      "name": "owner",
      "outputs": [
        {
          "internalType": "address",
          "name": "",
          "type": "address"
        }
      ],
      "stateMutability": "view",
      "type": "function"
    },
    {
      "inputs": [
        {
          "internalType": "bytes32",
          "name": "account",
          "type": "bytes32"
        }
      ],
      "name": "ownerOf",
      "outputs": [
        {
          "internalType": "address",
          "name": "",
          "type": "address"
        }
      ],
      "stateMutability": "view",
      "type": "function"
    },
    {
      "inputs": [],
      "name": "pause",
      "outputs": [],
      "stateMutability": "nonpayable",
      "type": "function"
    },
    {
      "inputs": [],
      "name": "paused",
      "outputs": [
        {
          "internalType": "bool",
          "name": "",
          "type": "bool"
        }
      ],
      "stateMutability": "view",
      "type": "function"
    },
    {
      "inputs": [
        {
          "internalType": "address",
          "name": "",
          "type": "address"
        }
      ],
      "name": "pausers",
      "outputs": [
        {
          "internalType": "bool",
          "name": "",
          "type": "bool"
        }
      ],
      "stateMutability": "view",
      "type": "function"
    },
    {
      "inputs": [],
      "name": "providers",
      "outputs": [
        {
          "internalType": "contract IProviders",
          "name": "",
          "type": "address"
        }
      ],
      "stateMutability": "view",
      "type": "function"
    },
    {
      "inputs": [
        {
          "internalType": "address",
          "name": "account",
          "type": "address"
        }
      ],
      "name": "removePauser",
      "outputs": [],
      "stateMutability": "nonpayable",
      "type": "function"
    },
    {
      "inputs": [],
      "name": "renounceOwnership",
      "outputs": [],
      "stateMutability": "nonpayable",
      "type": "function"
    },
    {
      "inputs": [],
      "name": "renouncePauser",
      "outputs": [],
      "stateMutability": "nonpayable",
      "type": "function"
    },
    {
      "inputs": [],
      "name": "token",
      "outputs": [
        {
          "internalType": "contract IERC20Upgradeable",
          "name": "",
          "type": "address"
        }
      ],
      "stateMutability": "view",
      "type": "function"
    },
    {
      "inputs": [
        {
          "internalType": "address",
          "name": "newOwner",
          "type": "address"
        }
      ],
      "name": "transferOwnership",
      "outputs": [],
      "stateMutability": "nonpayable",
      "type": "function"
    },
    {
      "inputs": [
        {
          "internalType": "bytes32",
          "name": "account",
          "type": "bytes32"
        },
        {
          "internalType": "address",
          "name": "newOwner",
          "type": "address"
        }
      ],
      "name": "transferWalletOwner",
      "outputs": [],
      "stateMutability": "nonpayable",
      "type": "function"
    },
    {
      "inputs": [],
      "name": "unpause",
      "outputs": [],
      "stateMutability": "nonpayable",
      "type": "function"
    },
    {
      "inputs": [
        {
          "internalType": "contract IProviders",
          "name": "provider",
          "type": "address"
        },
        {
          "internalType": "uint256",
          "name": "nonce",
          "type": "uint256"
        },
        {
          "internalType": "bytes32",
          "name": "account",
          "type": "bytes32"
        },
        {
          "internalType": "address",
          "name": "to",
          "type": "address"
        },
        {
          "internalType": "bytes",
          "name": "billMessage",
          "type": "bytes"
        },
        {
          "internalType": "bytes",
          "name": "signature",
          "type": "bytes"
        }
      ],
      "name": "withdraw",
      "outputs": [
        {
          "internalType": "uint256",
          "name": "",
          "type": "uint256"
        }
      ],
      "stateMutability": "nonpayable",
      "type": "function"
    }
  ],
  "transactionHash": "0x29c54e2f82b2b12bb8ee599efecd5a614be67dc65386768cb953cdfae72718db",
  "args": [],
  "bytecode": "0x60806040523480156200001157600080fd5b50600054610100900460ff166200002f5760005460ff161562000039565b62000039620000de565b620000a15760405162461bcd60e51b815260206004820152602e60248201527f496e697469616c697a61626c653a20636f6e747261637420697320616c72656160448201526d191e481a5b9a5d1a585b1a5e995960921b606482015260840160405180910390fd5b600054610100900460ff16158015620000c4576000805461ffff19166101011790555b8015620000d7576000805461ff00191690555b506200010b565b6000620000f630620000fc60201b62000b501760201c565b15905090565b6001600160a01b03163b151590565b611b8d806200011b6000396000f3fe608060405234801561001057600080fd5b506004361061014d5760003560e01c806377e527a8116100c35780638f792d521161007c5780638f792d52146102ef578063d91f923a1461030f578063f2fde38b14610322578063f8401fe614610335578063f8c8765e14610348578063fc0c546a1461035b57600080fd5b806377e527a8146102645780637dd564111461027757806380f51c12146102a057806382dc1ec4146102c35780638456cb59146102d65780638da5cb5b146102de57600080fd5b80635c975abb116101155780635c975abb146101f25780636b2c0f55146101fd5780636c7f1542146102105780636d58c92e146102415780636ef8d66d14610254578063715018a61461025c57600080fd5b8063141a468c14610152578063294a70e41461018a5780633f4ba83a146101b557806345386600146101bf57806346fbf68e146101df575b600080fd5b610175610160366004611269565b60cd6020526000908152604090205460ff1681565b60405190151581526020015b60405180910390f35b60cc5461019d906001600160a01b031681565b6040516001600160a01b039091168152602001610181565b6101bd61036e565b005b6101d26101cd366004611362565b6103d2565b6040516101819190611397565b6101756101ed366004611471565b6103ee565b60655460ff16610175565b6101bd61020b366004611471565b61040c565b61023361021e366004611269565b600090815260ce602052604090206001015490565b604051908152602001610181565b6101bd61024f36600461148e565b610442565b6101bd6106d7565b6101bd6106e0565b61023361027236600461150c565b610714565b61019d610285366004611269565b600090815260ce60205260409020546001600160a01b031690565b6101756102ae366004611471565b60976020526000908152604090205460ff1681565b6101bd6102d1366004611471565b610853565b6101bd610886565b6033546001600160a01b031661019d565b6103026102fd3660046115cb565b6108e3565b60405161018191906117ad565b6101bd61031d3660046117c0565b61090c565b6101bd610330366004611471565b6109ce565b60cb5461019d906001600160a01b031681565b6101bd6103563660046117f0565b610a66565b60ca5461019d906001600160a01b031681565b610377336103ee565b6103c85760405162461bcd60e51b815260206004820152601c60248201527f5061757365723a2043616c6c6572206973206e6f74207061757365720000000060448201526064015b60405180910390fd5b6103d0610b5f565b565b6060818060200190518101906103e8919061184c565b92915050565b6001600160a01b031660009081526097602052604090205460ff1690565b6033546001600160a01b031633146104365760405162461bcd60e51b81526004016103bf906119d0565b61043f81610bf2565b50565b60655460ff16156104655760405162461bcd60e51b81526004016103bf90611a05565b600260985414156104b85760405162461bcd60e51b815260206004820152601f60248201527f5265656e7472616e637947756172643a207265656e7472616e742063616c6c0060448201526064016103bf565b60026098556040516bffffffffffffffffffffffff19606088811b821660208401526034830188905286901b166054820152606881018490526088810183905260009060a80160408051601f1981840301815290829052805160209091012060cb546311c5268f60e11b83529092506001600160a01b03169063238a4d1e90610549908a9085908790600401611a2f565b602060405180830381600087803b15801561056357600080fd5b505af1158015610577573d6000803e3d6000fd5b505050506040513d601f19601f8201168201806040525081019061059b9190611a5f565b6105e75760405162461bcd60e51b815260206004820152601f60248201527f43686172676557616c6c65743a20696e76616c6964207369676e61747572650060448201526064016103bf565b600084815260ce60205260409020546001600160a01b031661062b57600084815260ce6020526040902080546001600160a01b0319166001600160a01b0387161790555b600084815260ce60205260409020600101546106479084610c9f565b600085815260ce602052604090206001015560ca54610671906001600160a01b0316333086610cb2565b604080516001600160a01b03898116825260208201899052871681830152606081018690526080810185905290517fe49db5172bc78f056fefc6f01934ed27721466184993ad2169e7c7828602f6419181900360a00190a1505060016098555050505050565b6103d033610bf2565b6033546001600160a01b0316331461070a5760405162461bcd60e51b81526004016103bf906119d0565b6103d06000610d12565b600085815260cd6020526040812054869060ff166107745760405162461bcd60e51b815260206004820152601960248201527f46756e6457616c6c65743a206e6f6e636520746f6f206c6f770000000000000060448201526064016103bf565b60655460ff16156107975760405162461bcd60e51b81526004016103bf90611a05565b600260985414156107ea5760405162461bcd60e51b815260206004820152601f60248201527f5265656e7472616e637947756172643a207265656e7472616e742063616c6c0060448201526064016103bf565b6002609855600086815260ce602052604090205486906001600160a01b031633146108275760405162461bcd60e51b81526004016103bf90611a81565b60008580602001905181019061083d919061184c565b5050600160985550600098975050505050505050565b6033546001600160a01b0316331461087d5760405162461bcd60e51b81526004016103bf906119d0565b61043f81610d64565b61088f336103ee565b6108db5760405162461bcd60e51b815260206004820152601c60248201527f5061757365723a2043616c6c6572206973206e6f74207061757365720000000060448201526064016103bf565b6103d0610e18565b6060816040516020016108f69190611397565b6040516020818303038152906040529050919050565b60655460ff161561092f5760405162461bcd60e51b81526004016103bf90611a05565b600082815260ce602052604090205482906001600160a01b031633146109675760405162461bcd60e51b81526004016103bf90611a81565b600083815260ce602090815260409182902080546001600160a01b0319166001600160a01b0386169081179091558251868152918201527f1ad1a476df20fea983220914b82388a8831699b61e2a786512fbda428ed5b6c1910160405180910390a1505050565b6033546001600160a01b031633146109f85760405162461bcd60e51b81526004016103bf906119d0565b6001600160a01b038116610a5d5760405162461bcd60e51b815260206004820152602660248201527f4f776e61626c653a206e6577206f776e657220697320746865207a65726f206160448201526564647265737360d01b60648201526084016103bf565b61043f81610d12565b600054610100900460ff16610a815760005460ff1615610a85565b303b155b610ae85760405162461bcd60e51b815260206004820152602e60248201527f496e697469616c697a61626c653a20636f6e747261637420697320616c72656160448201526d191e481a5b9a5d1a585b1a5e995960921b60648201526084016103bf565b600054610100900460ff16158015610b0a576000805461ffff19166101011790555b610b1385610d12565b610b1c85610e70565b610b2584610e97565b610b2e83610ec7565b610b3782610ef7565b8015610b49576000805461ff00191690555b5050505050565b6001600160a01b03163b151590565b60655460ff16610ba85760405162461bcd60e51b815260206004820152601460248201527314185d5cd8589b194e881b9bdd081c185d5cd95960621b60448201526064016103bf565b6065805460ff191690557f5db9ee0a495bf2e6ff9c91a7834c1ba4fdd244a5e8aa4e537bd38aeae4b073aa335b6040516001600160a01b03909116815260200160405180910390a1565b610bfb816103ee565b610c475760405162461bcd60e51b815260206004820152601d60248201527f5061757365723a204163636f756e74206973206e6f742070617573657200000060448201526064016103bf565b6001600160a01b038116600081815260976020908152604091829020805460ff1916905590519182527fcd265ebaf09df2871cc7bd4133404a235ba12eff2041bb89d9c714a2621c7c7e91015b60405180910390a150565b6000610cab8284611aca565b9392505050565b604080516001600160a01b0385811660248301528416604482015260648082018490528251808303909101815260849091019091526020810180516001600160e01b03166323b872dd60e01b179052610d0c908590610f27565b50505050565b603380546001600160a01b038381166001600160a01b0319831681179093556040519116919082907f8be0079c531659141344cd1fd0a4f28419497f9722a3daafe3b4186f6b6457e090600090a35050565b610d6d816103ee565b15610dc45760405162461bcd60e51b815260206004820152602160248201527f5061757365723a204163636f756e7420697320616c72656164792070617573656044820152603960f91b60648201526084016103bf565b6001600160a01b038116600081815260976020908152604091829020805460ff1916600117905590519182527f6719d08c1888103bea251a4ed56406bd0c3e69723c8a1686e017e7bbe159b6f89101610c94565b60655460ff1615610e3b5760405162461bcd60e51b81526004016103bf90611a05565b6065805460ff191660011790557f62e78cea01bee320cd4e420270b5ea74000d11b0c9f74754ebdbfc544b05a258610bd53390565b600054610100900460ff1661087d5760405162461bcd60e51b81526004016103bf90611af0565b600054610100900460ff16610ebe5760405162461bcd60e51b81526004016103bf90611af0565b61043f81610ffe565b600054610100900460ff16610eee5760405162461bcd60e51b81526004016103bf90611af0565b61043f8161104c565b600054610100900460ff16610f1e5760405162461bcd60e51b81526004016103bf90611af0565b61043f8161109a565b6000610f7c826040518060400160405280602081526020017f5361666545524332303a206c6f772d6c6576656c2063616c6c206661696c6564815250856001600160a01b03166110e89092919063ffffffff16565b805190915015610ff95780806020019051810190610f9a9190611a5f565b610ff95760405162461bcd60e51b815260206004820152602a60248201527f5361666545524332303a204552433230206f7065726174696f6e20646964206e6044820152691bdd081cdd58d8d9595960b21b60648201526084016103bf565b505050565b60ca80546001600160a01b0319166001600160a01b0383169081179091556040519081527f5ba6b30cd4b2f9e9e67f4feb9b9df10d5da3b057598e6901b217b7d590345e3090602001610c94565b60cb80546001600160a01b0319166001600160a01b0383169081179091556040519081527f4ff85cf7dc60c1563c6dd986198d1e484c1eb2b462d3d585802a8ac93e87334e90602001610c94565b60cc80546001600160a01b0319166001600160a01b0383169081179091556040519081527fc5d588a42a81fee76e7e80a4ef88ac097d4b28eecfd9ac79629ae06eb3eae4b890602001610c94565b60606110f784846000856110ff565b949350505050565b6060824710156111605760405162461bcd60e51b815260206004820152602660248201527f416464726573733a20696e73756666696369656e742062616c616e636520666f6044820152651c8818d85b1b60d21b60648201526084016103bf565b6001600160a01b0385163b6111b75760405162461bcd60e51b815260206004820152601d60248201527f416464726573733a2063616c6c20746f206e6f6e2d636f6e747261637400000060448201526064016103bf565b600080866001600160a01b031685876040516111d39190611b3b565b60006040518083038185875af1925050503d8060008114611210576040519150601f19603f3d011682016040523d82523d6000602084013e611215565b606091505b5091509150611225828286611230565b979650505050505050565b6060831561123f575081610cab565b82511561124f5782518084602001fd5b8160405162461bcd60e51b81526004016103bf91906117ad565b60006020828403121561127b57600080fd5b5035919050565b634e487b7160e01b600052604160045260246000fd5b6040805190810167ffffffffffffffff811182821017156112bb576112bb611282565b60405290565b604051601f8201601f1916810167ffffffffffffffff811182821017156112ea576112ea611282565b604052919050565b600082601f83011261130357600080fd5b813567ffffffffffffffff81111561131d5761131d611282565b611330601f8201601f19166020016112c1565b81815284602083860101111561134557600080fd5b816020850160208301376000918101602001919091529392505050565b60006020828403121561137457600080fd5b813567ffffffffffffffff81111561138b57600080fd5b6110f7848285016112f2565b602080825282518282018190526000919060409081850190600581811b87018401888601875b8481101561144d57898303603f1901865281518051845288015188840188905280518885018190529089019060009060608601905b80831015611438578351805189811061141b57634e487b7160e01b600052602160045260246000fd5b83528c01518c830152928b019260019290920191908a01906113f2565b50978a019794505050908701906001016113bd565b50909998505050505050505050565b6001600160a01b038116811461043f57600080fd5b60006020828403121561148357600080fd5b8135610cab8161145c565b60008060008060008060c087890312156114a757600080fd5b86356114b28161145c565b95506020870135945060408701356114c98161145c565b9350606087013592506080870135915060a087013567ffffffffffffffff8111156114f357600080fd5b6114ff89828a016112f2565b9150509295509295509295565b60008060008060008060c0878903121561152557600080fd5b86356115308161145c565b95506020870135945060408701359350606087013561154e8161145c565b9250608087013567ffffffffffffffff8082111561156b57600080fd5b6115778a838b016112f2565b935060a089013591508082111561158d57600080fd5b506114ff89828a016112f2565b600067ffffffffffffffff8211156115b4576115b4611282565b5060051b60200190565b6005811061043f57600080fd5b6000602082840312156115dd57600080fd5b67ffffffffffffffff80833511156115f457600080fd5b8235830184601f82011261160757600080fd5b611619611614823561159a565b6112c1565b81358082526020808301929160051b8401018781111561163857600080fd5b602084015b8181101561174857858135111561165357600080fd5b803585016040818b03601f1901121561166b57600080fd5b611673611298565b60208201358152876040830135111561168b57600080fd5b6040820135820191508a603f8301126116a357600080fd5b60208201356116b46116148261159a565b81815260069190911b83016040019060208101908d8311156116d557600080fd5b6040850194505b82851015611729576040858f0312156116f457600080fd5b6116fc611298565b61170686356115be565b8535815260208601356020820152808352506020820191506040850194506116dc565b806020850152505050808652505060208401935060208101905061163d565b5090979650505050505050565b60005b83811015611770578181015183820152602001611758565b83811115610d0c5750506000910152565b60008151808452611799816020860160208601611755565b601f01601f19169290920160200192915050565b602081526000610cab6020830184611781565b600080604083850312156117d357600080fd5b8235915060208301356117e58161145c565b809150509250929050565b6000806000806080858703121561180657600080fd5b84356118118161145c565b935060208501356118218161145c565b925060408501356118318161145c565b915060608501356118418161145c565b939692955090935050565b60006020828403121561185e57600080fd5b815167ffffffffffffffff8082111561187657600080fd5b818401915084601f83011261188a57600080fd5b81516118986116148261159a565b8082825260208201915060208360051b8601019250878311156118ba57600080fd5b602085015b838110156119c4578051858111156118d657600080fd5b86016040818b03601f190112156118ec57600080fd5b6118f4611298565b6020820151815260408201518781111561190d57600080fd5b8083019250508a603f83011261192257600080fd5b60208201516119336116148261159a565b81815260069190911b83016040019060208101908d83111561195457600080fd5b6040850194505b828510156119a5576040858f03121561197357600080fd5b61197b611298565b8551611986816115be565b815260208681015181830152908352604090950194919091019061195b565b80602085015250505080855250506020830192506020810190506118bf565b50979650505050505050565b6020808252818101527f4f776e61626c653a2063616c6c6572206973206e6f7420746865206f776e6572604082015260600190565b60208082526010908201526f14185d5cd8589b194e881c185d5cd95960821b604082015260600190565b60018060a01b0384168152826020820152606060408201526000611a566060830184611781565b95945050505050565b600060208284031215611a7157600080fd5b81518015158114610cab57600080fd5b60208082526029908201527f46756e6457616c6c65743a2063616c6c6572206973206e6f742062696e64696e60408201526819c81858d8dbdd5b9d60ba1b606082015260800190565b60008219821115611aeb57634e487b7160e01b600052601160045260246000fd5b500190565b6020808252602b908201527f496e697469616c697a61626c653a20636f6e7472616374206973206e6f74206960408201526a6e697469616c697a696e6760a81b606082015260800190565b60008251611b4d818460208701611755565b919091019291505056fea2646970667358221220772bc4b92702c375dbb2dd753ef5e0c0094dac5a439f04133e1ea4d5bf23d31864736f6c63430008090033"
}