{
  "address": "0x6314cf1b400fB2EB7004379298Ea880CD719d2CB",
  "abi": [
    {
      "inputs": [],
      "stateMutability": "nonpayable",
      "type": "constructor"
    },
    {
      "anonymous": false,
      "inputs": [
        {
          "indexed": false,
          "internalType": "uint64",
          "name": "dstChainId",
          "type": "uint64"
        }
      ],
      "name": "DstChainIdUpdated",
      "type": "event"
    },
    {
      "anonymous": false,
      "inputs": [
        {
          "indexed": false,
          "internalType": "address",
          "name": "messageBus",
          "type": "address"
        }
      ],
      "name": "MessageBusUpdated",
      "type": "event"
    },
    {
      "anonymous": false,
      "inputs": [
        {
          "indexed": false,
          "internalType": "address",
          "name": "token",
          "type": "address"
        },
        {
          "indexed": false,
          "internalType": "uint256",
          "name": "amount",
          "type": "uint256"
        },
        {
          "indexed": false,
          "internalType": "bytes",
          "name": "message",
          "type": "bytes"
        },
        {
          "indexed": false,
          "internalType": "address",
          "name": "executor",
          "type": "address"
        }
      ],
      "name": "MessageWithTransferRefund",
      "type": "event"
    },
    {
      "anonymous": false,
      "inputs": [
        {
          "indexed": false,
          "internalType": "address",
          "name": "to",
          "type": "address"
        },
        {
          "indexed": false,
          "internalType": "uint256",
          "name": "value",
          "type": "uint256"
        }
      ],
      "name": "NativeWithdrawal",
      "type": "event"
    },
    {
      "anonymous": false,
      "inputs": [
        {
          "indexed": true,
          "internalType": "address",
          "name": "previousOwner",
          "type": "address"
        },
        {
          "indexed": true,
          "internalType": "address",
          "name": "newOwner",
          "type": "address"
        }
      ],
      "name": "OwnershipTransferred",
      "type": "event"
    },
    {
      "anonymous": false,
      "inputs": [
        {
          "indexed": false,
          "internalType": "address",
          "name": "receiver",
          "type": "address"
        }
      ],
      "name": "ReceiverUpdated",
      "type": "event"
    },
    {
      "anonymous": false,
      "inputs": [
        {
          "indexed": false,
          "internalType": "address",
          "name": "payment",
          "type": "address"
        }
      ],
      "name": "SrcChainPaymentUpdated",
      "type": "event"
    },
    {
      "anonymous": false,
      "inputs": [
        {
          "indexed": false,
          "internalType": "contract IERC20Upgradeable",
          "name": "token",
          "type": "address"
        },
        {
          "indexed": false,
          "internalType": "address",
          "name": "to",
          "type": "address"
        },
        {
          "indexed": false,
          "internalType": "uint256",
          "name": "value",
          "type": "uint256"
        }
      ],
      "name": "Withdrawal",
      "type": "event"
    },
    {
      "inputs": [
        {
          "internalType": "bytes",
          "name": "message",
          "type": "bytes"
        }
      ],
      "name": "calcFee",
      "outputs": [
        {
          "internalType": "uint256",
          "name": "",
          "type": "uint256"
        }
      ],
      "stateMutability": "view",
      "type": "function"
    },
    {
      "inputs": [],
      "name": "dstChainId",
      "outputs": [
        {
          "internalType": "uint64",
          "name": "",
          "type": "uint64"
        }
      ],
      "stateMutability": "view",
      "type": "function"
    },
    {
      "inputs": [
        {
          "internalType": "address",
          "name": "_token",
          "type": "address"
        },
        {
          "internalType": "uint256",
          "name": "_amount",
          "type": "uint256"
        },
        {
          "internalType": "bytes",
          "name": "_message",
          "type": "bytes"
        },
        {
          "internalType": "address",
          "name": "executor",
          "type": "address"
        }
      ],
      "name": "executeMessageWithTransferRefund",
      "outputs": [
        {
          "internalType": "enum MessageSender.ExecutionStatus",
          "name": "",
          "type": "uint8"
        }
      ],
      "stateMutability": "payable",
      "type": "function"
    },
    {
      "inputs": [
        {
          "internalType": "address",
          "name": "owner",
          "type": "address"
        },
        {
          "internalType": "address",
          "name": "_messageBus",
          "type": "address"
        },
        {
          "internalType": "address",
          "name": "_receiver",
          "type": "address"
        },
        {
          "internalType": "uint64",
          "name": "_dstChainId",
          "type": "uint64"
        }
      ],
      "name": "initialize",
      "outputs": [],
      "stateMutability": "nonpayable",
      "type": "function"
    },
    {
      "inputs": [],
      "name": "messageBus",
      "outputs": [
        {
          "internalType": "address",
          "name": "",
          "type": "address"
        }
      ],
      "stateMutability": "view",
      "type": "function"
    },
    {
      "inputs": [
        {
          "components": [
            {
              "internalType": "address",
              "name": "sender",
              "type": "address"
            },
            {
              "internalType": "address",
              "name": "receiver",
              "type": "address"
            },
            {
              "internalType": "uint64",
              "name": "srcChainId",
              "type": "uint64"
            },
            {
              "internalType": "bytes32",
              "name": "srcTxHash",
              "type": "bytes32"
            }
          ],
          "internalType": "struct MsgDataTypes.RouteInfo",
          "name": "route",
          "type": "tuple"
        },
        {
          "internalType": "uint64",
          "name": "dstChainId",
          "type": "uint64"
        },
        {
          "internalType": "bytes",
          "name": "message",
          "type": "bytes"
        }
      ],
      "name": "messageId",
      "outputs": [
        {
          "internalType": "bytes32",
          "name": "",
          "type": "bytes32"
        }
      ],
      "stateMutability": "view",
      "type": "function"
    },
    {
      "inputs": [],
      "name": "owner",
      "outputs": [
        {
          "internalType": "address",
          "name": "",
          "type": "address"
        }
      ],
      "stateMutability": "view",
      "type": "function"
    },
    {
      "inputs": [
        {
          "internalType": "contract IERC20Upgradeable",
          "name": "token",
          "type": "address"
        },
        {
          "internalType": "address",
          "name": "to",
          "type": "address"
        },
        {
          "internalType": "uint256",
          "name": "value",
          "type": "uint256"
        }
      ],
      "name": "ownerWithdrawERC20",
      "outputs": [],
      "stateMutability": "nonpayable",
      "type": "function"
    },
    {
      "inputs": [
        {
          "internalType": "address payable",
          "name": "to",
          "type": "address"
        },
        {
          "internalType": "uint256",
          "name": "value",
          "type": "uint256"
        }
      ],
      "name": "ownerWithdrawNative",
      "outputs": [],
      "stateMutability": "nonpayable",
      "type": "function"
    },
    {
      "inputs": [],
      "name": "receiver",
      "outputs": [
        {
          "internalType": "address",
          "name": "",
          "type": "address"
        }
      ],
      "stateMutability": "view",
      "type": "function"
    },
    {
      "inputs": [],
      "name": "renounceOwnership",
      "outputs": [],
      "stateMutability": "nonpayable",
      "type": "function"
    },
    {
      "inputs": [
        {
          "internalType": "address",
          "name": "token",
          "type": "address"
        },
        {
          "internalType": "uint256",
          "name": "amount",
          "type": "uint256"
        },
        {
          "internalType": "uint64",
          "name": "nonce",
          "type": "uint64"
        },
        {
          "internalType": "uint32",
          "name": "maxSlippage",
          "type": "uint32"
        },
        {
          "internalType": "bytes",
          "name": "message",
          "type": "bytes"
        },
        {
          "internalType": "enum MsgDataTypes.BridgeSendType",
          "name": "bridgeSendType",
          "type": "uint8"
        }
      ],
      "name": "sendMessageWithTransfer",
      "outputs": [
        {
          "internalType": "bytes32",
          "name": "",
          "type": "bytes32"
        }
      ],
      "stateMutability": "payable",
      "type": "function"
    },
    {
      "inputs": [
        {
          "internalType": "uint64",
          "name": "dstChainId",
          "type": "uint64"
        }
      ],
      "name": "setDstChainId",
      "outputs": [],
      "stateMutability": "nonpayable",
      "type": "function"
    },
    {
      "inputs": [
        {
          "internalType": "address",
          "name": "messageBus",
          "type": "address"
        }
      ],
      "name": "setMessageBus",
      "outputs": [],
      "stateMutability": "nonpayable",
      "type": "function"
    },
    {
      "inputs": [
        {
          "internalType": "address",
          "name": "_receiver",
          "type": "address"
        }
      ],
      "name": "setReceiver",
      "outputs": [],
      "stateMutability": "nonpayable",
      "type": "function"
    },
    {
      "inputs": [
        {
          "internalType": "address",
          "name": "_payment",
          "type": "address"
        }
      ],
      "name": "setSrcChainPayment",
      "outputs": [],
      "stateMutability": "nonpayable",
      "type": "function"
    },
    {
      "inputs": [],
      "name": "srcChainPayment",
      "outputs": [
        {
          "internalType": "address",
          "name": "",
          "type": "address"
        }
      ],
      "stateMutability": "view",
      "type": "function"
    },
    {
      "inputs": [
        {
          "internalType": "address",
          "name": "newOwner",
          "type": "address"
        }
      ],
      "name": "transferOwnership",
      "outputs": [],
      "stateMutability": "nonpayable",
      "type": "function"
    }
  ],
  "transactionHash": "0xdc620f0721d72d5291a48f86868d1b56ae76159e44458e4337624437ef626915",
  "args": [],
  "solcInputHash": "da9c392996f5bb5463935f1dd409f50d",
  "bytecode": "0x60806040523480156200001157600080fd5b50600054610100900460ff166200002f5760005460ff161562000039565b620000396200009e565b620000615760405162461bcd60e51b81526004016200005890620000cb565b60405180910390fd5b600054610100900460ff1615801562000084576000805461ffff19166101011790555b801562000097576000805461ff00191690555b5062000124565b6000620000b630620000bc60201b620008f01760201c565b15905090565b6001600160a01b03163b151590565b602080825281016200011e81602e81527f496e697469616c697a61626c653a20636f6e747261637420697320616c72656160208201526d191e481a5b9a5d1a585b1a5e995960921b604082015260600190565b92915050565b61250b80620001346000396000f3fe6080604052600436106101095760003560e01c806393563a9511610095578063d204d9a811610064578063d204d9a8146102d6578063d7c8cb24146102f6578063f2fde38b14610316578063f718845314610336578063f7260d3e1461034957600080fd5b806393563a9514610256578063a1a227fa14610276578063bb0248aa14610296578063bbd53ea7146102b657600080fd5b8063547cad12116100dc578063547cad12146101ba578063699256f4146101da578063715018a6146101fa578063718da7ee1461020f5780638da5cb5b1461022f57600080fd5b80630bcb49821461010e57806330c593f7146101375780633fe3f1cf1461016b5780635335dca21461018d575b600080fd5b61012161011c36600461162b565b610369565b60405161012e91906116fd565b60405180910390f35b34801561014357600080fd5b5060675461015e90600160a01b90046001600160401b031681565b60405161012e919061171a565b34801561017757600080fd5b5061018b610186366004611742565b6103eb565b005b34801561019957600080fd5b506101ad6101a836600461189a565b610485565b60405161012e91906118da565b3480156101c657600080fd5b5061018b6101d53660046118e8565b61050c565b3480156101e657600080fd5b5061018b6101f5366004611909565b610542565b34801561020657600080fd5b5061018b6105f0565b34801561021b57600080fd5b5061018b61022a3660046118e8565b610626565b34801561023b57600080fd5b506033546001600160a01b03165b60405161012e919061194f565b34801561026257600080fd5b5061018b61027136600461197c565b610659565b34801561028257600080fd5b50606654610249906001600160a01b031681565b3480156102a257600080fd5b506101ad6102b13660046119e7565b6106ca565b3480156102c257600080fd5b5061018b6102d13660046118e8565b61073b565b3480156102e257600080fd5b50606554610249906001600160a01b031681565b34801561030257600080fd5b5061018b610311366004611a54565b61076e565b34801561032257600080fd5b5061018b6103313660046118e8565b6107a1565b6101ad610344366004611aa4565b6107fa565b34801561035557600080fd5b50606754610249906001600160a01b031681565b6066546000906001600160a01b0316331461039f5760405162461bcd60e51b815260040161039690611b92565b60405180910390fd5b7f9afeef02b2dc7c87e4d0fe67945dedf1c4ee5bcf5cdf26f94fb1837859816f3386868686866040516103d6959493929190611bcb565b60405180910390a15060015b95945050505050565b600054610100900460ff166104065760005460ff161561040a565b303b155b6104265760405162461bcd60e51b815260040161039690611c5d565b600054610100900460ff16158015610448576000805461ffff19166101011790555b610451856108ff565b61045a84610951565b610463836109a8565b61046c826109f3565b801561047e576000805461ff00191690555b5050505050565b60665460405163299aee5160e11b81526000916001600160a01b031690635335dca2906104b6908590600401611cc7565b60206040518083038186803b1580156104ce57600080fd5b505afa1580156104e2573d6000803e3d6000fd5b505050506040513d601f19601f820116820180604052508101906105069190611ce3565b92915050565b6033546001600160a01b031633146105365760405162461bcd60e51b815260040161039690611d39565b61053f81610951565b50565b6033546001600160a01b0316331461056c5760405162461bcd60e51b815260040161039690611d39565b6040516000906001600160a01b0384169083156108fc0290849084818181858888f193505050509050806105b25760405162461bcd60e51b815260040161039690611d8b565b7f2c876ecb97b3c6854f2488d373403f903eacb800e51c159a5c0c7a9c857e482783836040516105e3929190611ddd565b60405180910390a1505050565b6033546001600160a01b0316331461061a5760405162461bcd60e51b815260040161039690611d39565b61062460006108ff565b565b6033546001600160a01b031633146106505760405162461bcd60e51b815260040161039690611d39565b61053f816109a8565b6033546001600160a01b031633146106835760405162461bcd60e51b815260040161039690611d39565b6106976001600160a01b0384168383610a48565b7f2717ead6b9200dd235aad468c9809ea400fe33ac69b5bfaa6d3e90fc922b63988383836040516105e393929190611df8565b600060016106db60208701876118e8565b6106eb60408801602089016118e8565b6106fb6060890160408a01611a54565b886060013588888860405160200161071a989796959493929190611ebb565b6040516020818303038152906040528051906020012090505b949350505050565b6033546001600160a01b031633146107655760405162461bcd60e51b815260040161039690611d39565b61053f81610aa3565b6033546001600160a01b031633146107985760405162461bcd60e51b815260040161039690611d39565b61053f816109f3565b6033546001600160a01b031633146107cb5760405162461bcd60e51b815260040161039690611d39565b6001600160a01b0381166107f15760405162461bcd60e51b815260040161039690611f6b565b61053f816108ff565b6065546000906001600160a01b031633146108275760405162461bcd60e51b815260040161039690611fc5565b6040516323b872dd60e01b81526001600160a01b038816906323b872dd9061085790339030908b90600401611fd5565b602060405180830381600087803b15801561087157600080fd5b505af1158015610885573d6000803e3d6000fd5b505050506040513d601f19601f820116820180604052508101906108a99190611ff6565b506067546066546108e5916001600160a01b03808216928b928b92600160a01b9091046001600160401b0316918b918b918b918b911634610aee565b509695505050505050565b6001600160a01b03163b151590565b603380546001600160a01b038381166001600160a01b0319831681179093556040519116919082907f8be0079c531659141344cd1fd0a4f28419497f9722a3daafe3b4186f6b6457e090600090a35050565b606680546001600160a01b0319166001600160a01b0383169081179091556040517f3f8223bcd8b3b875473e9f9e14e1ad075451a2b5ffd31591655da9a01516bf5e9161099d9161194f565b60405180910390a150565b606780546001600160a01b0319166001600160a01b0383161790556040517f75fd3aa5d9b6e2a8a9d8894008c9263200713f4b1fa9113665e09ceac00277469061099d90839061194f565b6067805467ffffffffffffffff60a01b1916600160a01b6001600160401b038416021790556040517fb21f4918f3e7b110065f3bf18a09b38074a4553144258ccfc30b57a76211e9299061099d90839061171a565b610a9e8363a9059cbb60e01b8484604051602401610a67929190612017565b60408051601f198184030181529190526020810180516001600160e01b03166001600160e01b031990931692909217909152610bd6565b505050565b606580546001600160a01b0319166001600160a01b0383161790556040517faf4cc7de2dd4900af1750e9a7af95c24ca2096d76903102700c90a6abaa819a29061099d90839061194f565b60006001846006811115610b0457610b046116ae565b1415610b2257610b1b8b8b8b8b8b8b8b8a8a610c65565b9050610bc8565b6002846006811115610b3657610b366116ae565b1480610b5357506004846006811115610b5157610b516116ae565b145b15610b6957610b1b848c8c8c8c8c8b8a8a610e05565b6003846006811115610b7d57610b7d6116ae565b1480610b9a57506005846006811115610b9857610b986116ae565b145b15610bb057610b1b848c8c8c8c8c8b8a8a61109d565b60405162461bcd60e51b815260040161039690612059565b9a9950505050505050505050565b6000610c2b826040518060400160405280602081526020017f5361666545524332303a206c6f772d6c6576656c2063616c6c206661696c6564815250856001600160a01b03166113109092919063ffffffff16565b805190915015610a9e5780806020019051810190610c499190611ff6565b610a9e5760405162461bcd60e51b8152600401610396906120b0565b600080836001600160a01b03166382980dc46040518163ffffffff1660e01b815260040160206040518083038186803b158015610ca157600080fd5b505afa158015610cb5573d6000803e3d6000fd5b505050506040513d601f19601f82011682018060405250810190610cd991906120cb565b9050610cef6001600160a01b038b16828b611329565b60405163a5977fbb60e01b81526001600160a01b0382169063a5977fbb90610d25908e908e908e908e908e908e906004016120f8565b600060405180830381600087803b158015610d3f57600080fd5b505af1158015610d53573d6000803e3d6000fd5b505050506000308c8c8c8c8c46604051602001610d769796959493929190612147565b604051602081830303815290604052805190602001209050846001600160a01b0316634289fbb3858e8c86868c6040518763ffffffff1660e01b8152600401610dc39594939291906121e0565b6000604051808303818588803b158015610ddc57600080fd5b505af1158015610df0573d6000803e3d6000fd5b50939f9e505050505050505050505050505050565b60008060028b6006811115610e1c57610e1c6116ae565b1415610e9a57836001600160a01b031663d8257d176040518163ffffffff1660e01b815260040160206040518083038186803b158015610e5b57600080fd5b505afa158015610e6f573d6000803e3d6000fd5b505050506040513d601f19601f82011682018060405250810190610e9391906120cb565b9050610f0e565b836001600160a01b031663c66a9c5a6040518163ffffffff1660e01b815260040160206040518083038186803b158015610ed357600080fd5b505afa158015610ee7573d6000803e3d6000fd5b505050506040513d601f19601f82011682018060405250810190610f0b91906120cb565b90505b610f226001600160a01b038a16828a611329565b600060028c6006811115610f3857610f386116ae565b1415610fde57816001600160a01b031663234636248b8b8b8f8c6040518663ffffffff1660e01b8152600401610f72959493929190612227565b600060405180830381600087803b158015610f8c57600080fd5b505af1158015610fa0573d6000803e3d6000fd5b50505050308a8a8a8e8b46604051602001610fc19796959493929190612269565b604051602081830303815290604052805190602001209050611067565b816001600160a01b031663234636248b8b8b8f8c6040518663ffffffff1660e01b8152600401611012959493929190612227565b602060405180830381600087803b15801561102c57600080fd5b505af1158015611040573d6000803e3d6000fd5b505050506040513d601f19601f820116820180604052508101906110649190611ce3565b90505b604051634289fbb360e01b81526001600160a01b03861690634289fbb3908690610dc3908f908d90889088908e906004016121e0565b60008060038b60068111156110b4576110b46116ae565b141561113257836001600160a01b031663dfa2dbaf6040518163ffffffff1660e01b815260040160206040518083038186803b1580156110f357600080fd5b505afa158015611107573d6000803e3d6000fd5b505050506040513d601f19601f8201168201806040525081019061112b91906120cb565b90506111a6565b836001600160a01b03166395b12c276040518163ffffffff1660e01b815260040160206040518083038186803b15801561116b57600080fd5b505afa15801561117f573d6000803e3d6000fd5b505050506040513d601f19601f820116820180604052508101906111a391906120cb565b90505b6111ba6001600160a01b038a16828a611329565b600060038c60068111156111d0576111d06116ae565b141561127257816001600160a01b031663de790c7e8b8b8e8b6040518563ffffffff1660e01b815260040161120894939291906122c5565b600060405180830381600087803b15801561122257600080fd5b505af1158015611236573d6000803e3d6000fd5b50505050308a8a8d8a46604051602001611255969594939291906122fa565b6040516020818303038152906040528051906020012090506112fb565b816001600160a01b031663a00293018b8b8b8f8c6040518663ffffffff1660e01b81526004016112a6959493929190612227565b602060405180830381600087803b1580156112c057600080fd5b505af11580156112d4573d6000803e3d6000fd5b505050506040513d601f19601f820116820180604052508101906112f89190611ce3565b90505b6110676001600160a01b038b168360006113db565b606061131f848460008561149e565b90505b9392505050565b600081846001600160a01b031663dd62ed3e30866040518363ffffffff1660e01b815260040161135a929190612364565b60206040518083038186803b15801561137257600080fd5b505afa158015611386573d6000803e3d6000fd5b505050506040513d601f19601f820116820180604052508101906113aa9190611ce3565b6113b49190612395565b90506113d58463095ea7b360e01b8584604051602401610a67929190612017565b50505050565b8015806114635750604051636eb1769f60e11b81526001600160a01b0384169063dd62ed3e906114119030908690600401612364565b60206040518083038186803b15801561142957600080fd5b505afa15801561143d573d6000803e3d6000fd5b505050506040513d601f19601f820116820180604052508101906114619190611ce3565b155b61147f5760405162461bcd60e51b815260040161039690612400565b610a9e8363095ea7b360e01b8484604051602401610a67929190612017565b6060824710156114c05760405162461bcd60e51b815260040161039690612453565b6001600160a01b0385163b6114e75760405162461bcd60e51b815260040161039690612497565b600080866001600160a01b0316858760405161150391906124c9565b60006040518083038185875af1925050503d8060008114611540576040519150601f19603f3d011682016040523d82523d6000602084013e611545565b606091505b5091509150611555828286611560565b979650505050505050565b6060831561156f575081611322565b82511561157f5782518084602001fd5b8160405162461bcd60e51b81526004016103969190611cc7565b60006001600160a01b038216610506565b6115b381611599565b811461053f57600080fd5b8035610506816115aa565b806115b3565b8035610506816115c9565b60008083601f8401126115ef576115ef600080fd5b5081356001600160401b0381111561160957611609600080fd5b60208301915083600182028301111561162457611624600080fd5b9250929050565b60008060008060006080868803121561164657611646600080fd5b600061165288886115be565b9550506020611663888289016115cf565b94505060408601356001600160401b0381111561168257611682600080fd5b61168e888289016115da565b935093505060606116a1888289016115be565b9150509295509295909350565b634e487b7160e01b600052602160045260246000fd5b6003811061053f5761053f6116ae565b806116de816116c4565b919050565b6000610506826116d4565b6116f7816116e3565b82525050565b6020810161050682846116ee565b6001600160401b0381166116f7565b60208101610506828461170b565b6001600160401b0381166115b3565b803561050681611728565b6000806000806080858703121561175b5761175b600080fd5b600061176787876115be565b9450506020611778878288016115be565b9350506040611789878288016115be565b925050606061179a87828801611737565b91505092959194509250565b634e487b7160e01b600052604160045260246000fd5b601f19601f83011681018181106001600160401b03821117156117e1576117e16117a6565b6040525050565b60006117f360405190565b90506116de82826117bc565b60006001600160401b03821115611818576118186117a6565b601f19601f83011660200192915050565b82818337506000910152565b6000611848611843846117ff565b6117e8565b90508281526020810184848401111561186357611863600080fd5b61186e848285611829565b509392505050565b600082601f83011261188a5761188a600080fd5b8135610733848260208601611835565b6000602082840312156118af576118af600080fd5b81356001600160401b038111156118c8576118c8600080fd5b61073384828501611876565b806116f7565b6020810161050682846118d4565b6000602082840312156118fd576118fd600080fd5b600061073384846115be565b6000806040838503121561191f5761191f600080fd5b600061192b85856115be565b925050602061193c858286016115cf565b9150509250929050565b6116f781611599565b602081016105068284611946565b600061050682611599565b6115b38161195d565b803561050681611968565b60008060006060848603121561199457611994600080fd5b60006119a08686611971565b93505060206119b1868287016115be565b92505060406119c2868287016115cf565b9150509250925092565b6000608082840312156119e1576119e1600080fd5b50919050565b60008060008060c08587031215611a0057611a00600080fd5b6000611a0c87876119cc565b9450506080611a1d87828801611737565b93505060a08501356001600160401b03811115611a3c57611a3c600080fd5b611a48878288016115da565b95989497509550505050565b600060208284031215611a6957611a69600080fd5b60006107338484611737565b63ffffffff81166115b3565b803561050681611a75565b6007811061053f57600080fd5b803561050681611a8c565b60008060008060008060c08789031215611ac057611ac0600080fd5b6000611acc89896115be565b9650506020611add89828a016115cf565b9550506040611aee89828a01611737565b9450506060611aff89828a01611a81565b93505060808701356001600160401b03811115611b1e57611b1e600080fd5b611b2a89828a01611876565b92505060a0611b3b89828a01611a99565b9150509295509295509295565b602a81526000602082017f4d65737361676552656365697665723a2063616c6c6572206973206e6f74206d8152696573736167652062757360b01b602082015291505b5060400190565b6020808252810161050681611b48565b8183526000602084019350611bb8838584611829565b601f19601f8401165b9093019392505050565b60808101611bd98288611946565b611be660208301876118d4565b8181036040830152611bf9818587611ba2565b9050611c086060830184611946565b9695505050505050565b602e81526000602082017f496e697469616c697a61626c653a20636f6e747261637420697320616c72656181526d191e481a5b9a5d1a585b1a5e995960921b60208201529150611b8b565b6020808252810161050681611c12565b60005b83811015611c88578181015183820152602001611c70565b838111156113d55750506000910152565b6000611ca3825190565b808452602084019350611cba818560208601611c6d565b601f19601f820116611bc1565b602080825281016113228184611c99565b8051610506816115c9565b600060208284031215611cf857611cf8600080fd5b60006107338484611cd8565b60208082527f4f776e61626c653a2063616c6c6572206973206e6f7420746865206f776e6572910190815260005b5060200190565b6020808252810161050681611d04565b602581526000602082017f5061796d656e743a207769746864726177206e617469766520746f6b656e2066815264185a5b195960da1b60208201529150611b8b565b6020808252810161050681611d49565b60006105066001600160a01b038316611db2565b90565b6001600160a01b031690565b600061050682611d9b565b600061050682611dbe565b6116f781611dc9565b60408101611deb8285611dd4565b61132260208301846118d4565b60608101611e068286611dd4565b611e136020830185611946565b61073360408301846118d4565b6002811061053f5761053f6116ae565b806116de81611e20565b600061050682611e30565b60006105068260f81b90565b6116f7611e5d82611e3a565b611e45565b60006105068260601b90565b600061050682611e62565b6116f7611e8582611599565b611e6e565b60006105068260c01b90565b6116f76001600160401b038216611e8a565b6000611eb5838584611829565b50500190565b6000611ec7828b611e51565b600182019150611ed7828a611e79565b601482019150611ee78289611e79565b601482019150611ef78288611e96565b600882019150611f0782876118d4565b602082019150611f178286611e96565b600882019150610bc8828486611ea8565b602681526000602082017f4f776e61626c653a206e6577206f776e657220697320746865207a65726f206181526564647265737360d01b60208201529150611b8b565b6020808252810161050681611f28565b602d81526000602082017f4d65737361676553656e6465723a2063616c6c6572206973206e6f742070617981526c1b595b9d0818dbdb9d1c9858dd609a1b60208201529150611b8b565b6020808252810161050681611f7b565b60608101611e068286611946565b8015156115b3565b805161050681611fe3565b60006020828403121561200b5761200b600080fd5b60006107338484611feb565b60408101611deb8285611946565b601981526000602082017f6272696467652074797065206e6f7420737570706f727465640000000000000081529150611d32565b6020808252810161050681612025565b602a81526000602082017f5361666545524332303a204552433230206f7065726174696f6e20646964206e8152691bdd081cdd58d8d9595960b21b60208201529150611b8b565b6020808252810161050681612069565b8051610506816115aa565b6000602082840312156120e0576120e0600080fd5b600061073384846120c0565b63ffffffff81166116f7565b60c081016121068289611946565b6121136020830188611946565b61212060408301876118d4565b61212d606083018661170b565b61213a608083018561170b565b61155560a08301846120ec565b6000612153828a611e79565b6014820191506121638289611e79565b6014820191506121738288611e79565b60148201915061218382876118d4565b6020820191506121938286611e96565b6008820191506121a38285611e96565b6008820191506121b38284611e96565b50600801979650505050505050565b6000610506611daf6001600160401b03841681565b6116f7816121c2565b60a081016121ee8288611946565b6121fb60208301876121d7565b6122086040830186611946565b61221560608301856118d4565b81810360808301526115558184611c99565b60a081016122358288611946565b61224260208301876118d4565b61224f604083018661170b565b61225c6060830185611946565b611c08608083018461170b565b6000612275828a611e79565b6014820191506122858289611e79565b60148201915061229582886118d4565b6020820191506122a58287611e96565b6008820191506122b58286611e79565b6014820191506121a38285611e96565b608081016122d38287611946565b6122e060208301866118d4565b6122ed6040830185611946565b6103e2606083018461170b565b60006123068289611e79565b6014820191506123168288611e79565b60148201915061232682876118d4565b6020820191506123368286611e79565b6014820191506123468285611e96565b6008820191506123568284611e96565b506008019695505050505050565b604081016123728285611946565b6113226020830184611946565b634e487b7160e01b600052601160045260246000fd5b600082198211156123a8576123a861237f565b500190565b603681526000602082017f5361666545524332303a20617070726f76652066726f6d206e6f6e2d7a65726f81527520746f206e6f6e2d7a65726f20616c6c6f77616e636560501b60208201529150611b8b565b60208082528101610506816123ad565b602681526000602082017f416464726573733a20696e73756666696369656e742062616c616e636520666f8152651c8818d85b1b60d21b60208201529150611b8b565b6020808252810161050681612410565b601d81526000602082017f416464726573733a2063616c6c20746f206e6f6e2d636f6e747261637400000081529150611d32565b6020808252810161050681612463565b60006124b1825190565b6124bf818560208601611c6d565b9290920192915050565b600061132282846124a756fea2646970667358221220987b5620aa42c9c863d853a2ecf70b6cc3058b174e91190157b71004b3cc15a264736f6c63430008090033",
  "devdoc": {
    "author": "Alexandas",
    "details": "Celer SGN source chain sender contract",
    "kind": "dev",
    "methods": {
      "calcFee(bytes)": {
        "details": "calculate message fee",
        "params": {
          "message": "message bytes"
        },
        "returns": {
          "_0": "fee"
        }
      },
      "executeMessageWithTransferRefund(address,uint256,bytes,address)": {
        "details": "call when cBridge transfer failed",
        "params": {
          "_amount": "token amount",
          "_message": "message",
          "_token": "token address",
          "executor": "exector address"
        }
      },
      "initialize(address,address,address,uint64)": {
        "details": "proxy initialize function",
        "params": {
          "_dstChainId": "dst chain chainId",
          "_messageBus": "src chain messageBus",
          "_receiver": "dst chain receiver",
          "owner": "contract owner"
        }
      },
      "messageId((address,address,uint64,bytes32),uint64,bytes)": {
        "details": "messageId for message bus",
        "params": {
          "dstChainId": "message route info",
          "message": "message bytes",
          "route": "message route info"
        }
      },
      "owner()": {
        "details": "Returns the address of the current owner."
      },
      "ownerWithdrawERC20(address,address,uint256)": {
        "details": "withdraw token ",
        "params": {
          "to": "receiver address",
          "token": "token address",
          "value": "token value"
        }
      },
      "ownerWithdrawNative(address,uint256)": {
        "details": "withdraw ETH ",
        "params": {
          "to": "receiver address",
          "value": "token value"
        }
      },
      "renounceOwnership()": {
        "details": "Leaves the contract without owner. It will not be possible to call `onlyOwner` functions anymore. Can only be called by the current owner. NOTE: Renouncing ownership will leave the contract without an owner, thereby removing any functionality that is only available to the owner."
      },
      "sendMessageWithTransfer(address,uint256,uint64,uint32,bytes,uint8)": {
        "details": "sendMessageWithTransfer to dst chain",
        "params": {
          "amount": "token amount",
          "bridgeSendType": "bridge send type for sgn cBridge",
          "maxSlippage": "maxSlippage for sgn cBridge",
          "message": "message to dst chain",
          "nonce": "nonce",
          "token": "src payment token address"
        }
      },
      "setDstChainId(uint64)": {
        "details": "set dst chain chainId",
        "params": {
          "dstChainId": "dst chainId"
        }
      },
      "setMessageBus(address)": {
        "details": "update message bus",
        "params": {
          "messageBus": "message bus address"
        }
      },
      "setReceiver(address)": {
        "details": "set dst chain receiver",
        "params": {
          "_receiver": "dst chain receiver"
        }
      },
      "setSrcChainPayment(address)": {
        "details": "set src chain payment",
        "params": {
          "_payment": "src chain payment address"
        }
      },
      "transferOwnership(address)": {
        "details": "Transfers ownership of the contract to a new account (`newOwner`). Can only be called by the current owner."
      }
    },
    "stateVariables": {
      "dstChainId": {
        "details": "dst chainId"
      },
      "messageBus": {
        "details": "src chain messageBus address"
      },
      "receiver": {
        "details": "dst chain receiver address"
      },
      "srcChainPayment": {
        "details": "src chain payment address"
      }
    },
    "version": 1
  },
  "userdoc": {
    "kind": "user",
    "methods": {},
    "version": 1
  },
  "storageLayout": {
    "storage": [
      {
        "astId": 147,
        "contract": "contracts/messages/MessageSender.sol:MessageSender",
        "label": "_initialized",
        "offset": 0,
        "slot": "0",
        "type": "t_bool"
      },
      {
        "astId": 150,
        "contract": "contracts/messages/MessageSender.sol:MessageSender",
        "label": "_initializing",
        "offset": 1,
        "slot": "0",
        "type": "t_bool"
      },
      {
        "astId": 970,
        "contract": "contracts/messages/MessageSender.sol:MessageSender",
        "label": "__gap",
        "offset": 0,
        "slot": "1",
        "type": "t_array(t_uint256)50_storage"
      },
      {
        "astId": 10,
        "contract": "contracts/messages/MessageSender.sol:MessageSender",
        "label": "_owner",
        "offset": 0,
        "slot": "51",
        "type": "t_address"
      },
      {
        "astId": 122,
        "contract": "contracts/messages/MessageSender.sol:MessageSender",
        "label": "__gap",
        "offset": 0,
        "slot": "52",
        "type": "t_array(t_uint256)49_storage"
      },
      {
        "astId": 5308,
        "contract": "contracts/messages/MessageSender.sol:MessageSender",
        "label": "srcChainPayment",
        "offset": 0,
        "slot": "101",
        "type": "t_address"
      },
      {
        "astId": 5311,
        "contract": "contracts/messages/MessageSender.sol:MessageSender",
        "label": "messageBus",
        "offset": 0,
        "slot": "102",
        "type": "t_address"
      },
      {
        "astId": 5315,
        "contract": "contracts/messages/MessageSender.sol:MessageSender",
        "label": "receiver",
        "offset": 0,
        "slot": "103",
        "type": "t_address"
      },
      {
        "astId": 5319,
        "contract": "contracts/messages/MessageSender.sol:MessageSender",
        "label": "dstChainId",
        "offset": 20,
        "slot": "103",
        "type": "t_uint64"
      }
    ],
    "types": {
      "t_address": {
        "encoding": "inplace",
        "label": "address",
        "numberOfBytes": "20"
      },
      "t_array(t_uint256)49_storage": {
        "base": "t_uint256",
        "encoding": "inplace",
        "label": "uint256[49]",
        "numberOfBytes": "1568"
      },
      "t_array(t_uint256)50_storage": {
        "base": "t_uint256",
        "encoding": "inplace",
        "label": "uint256[50]",
        "numberOfBytes": "1600"
      },
      "t_bool": {
        "encoding": "inplace",
        "label": "bool",
        "numberOfBytes": "1"
      },
      "t_uint256": {
        "encoding": "inplace",
        "label": "uint256",
        "numberOfBytes": "32"
      },
      "t_uint64": {
        "encoding": "inplace",
        "label": "uint64",
        "numberOfBytes": "8"
      }
    }
  }
}