{
  "address": "0x16DfE6e693BbC0958761C235a284b02030FDDF89",
  "abi": [
    {
      "inputs": [
        {
          "internalType": "address",
          "name": "owner",
          "type": "address"
        },
        {
          "internalType": "address",
          "name": "_messageBus",
          "type": "address"
        },
        {
          "internalType": "address",
          "name": "_receiver",
          "type": "address"
        },
        {
          "internalType": "uint64",
          "name": "_dstChainId",
          "type": "uint64"
        }
      ],
      "stateMutability": "nonpayable",
      "type": "constructor"
    },
    {
      "anonymous": false,
      "inputs": [
        {
          "indexed": false,
          "internalType": "uint64",
          "name": "dstChainId",
          "type": "uint64"
        }
      ],
      "name": "DstChainIdUpdated",
      "type": "event"
    },
    {
      "anonymous": false,
      "inputs": [
        {
          "indexed": false,
          "internalType": "address",
          "name": "messageBus",
          "type": "address"
        }
      ],
      "name": "MessageBusUpdated",
      "type": "event"
    },
    {
      "anonymous": false,
      "inputs": [
        {
          "indexed": false,
          "internalType": "address",
          "name": "token",
          "type": "address"
        },
        {
          "indexed": false,
          "internalType": "uint256",
          "name": "amount",
          "type": "uint256"
        },
        {
          "indexed": false,
          "internalType": "bytes",
          "name": "message",
          "type": "bytes"
        },
        {
          "indexed": false,
          "internalType": "address",
          "name": "executor",
          "type": "address"
        }
      ],
      "name": "MessageWithTransferRefund",
      "type": "event"
    },
    {
      "anonymous": false,
      "inputs": [
        {
          "indexed": true,
          "internalType": "address",
          "name": "previousOwner",
          "type": "address"
        },
        {
          "indexed": true,
          "internalType": "address",
          "name": "newOwner",
          "type": "address"
        }
      ],
      "name": "OwnershipTransferred",
      "type": "event"
    },
    {
      "anonymous": false,
      "inputs": [
        {
          "indexed": false,
          "internalType": "address",
          "name": "receiver",
          "type": "address"
        }
      ],
      "name": "ReceiverUpdated",
      "type": "event"
    },
    {
      "anonymous": false,
      "inputs": [
        {
          "indexed": false,
          "internalType": "address",
          "name": "payment",
          "type": "address"
        }
      ],
      "name": "SrcChainPaymentUpdated",
      "type": "event"
    },
    {
      "inputs": [
        {
          "internalType": "bytes",
          "name": "message",
          "type": "bytes"
        }
      ],
      "name": "calcFee",
      "outputs": [
        {
          "internalType": "uint256",
          "name": "",
          "type": "uint256"
        }
      ],
      "stateMutability": "view",
      "type": "function"
    },
    {
      "inputs": [],
      "name": "dstChainId",
      "outputs": [
        {
          "internalType": "uint64",
          "name": "",
          "type": "uint64"
        }
      ],
      "stateMutability": "view",
      "type": "function"
    },
    {
      "inputs": [
        {
          "internalType": "address",
          "name": "_token",
          "type": "address"
        },
        {
          "internalType": "uint256",
          "name": "_amount",
          "type": "uint256"
        },
        {
          "internalType": "bytes",
          "name": "_message",
          "type": "bytes"
        },
        {
          "internalType": "address",
          "name": "executor",
          "type": "address"
        }
      ],
      "name": "executeMessageWithTransferRefund",
      "outputs": [
        {
          "internalType": "enum MessageSender.ExecutionStatus",
          "name": "",
          "type": "uint8"
        }
      ],
      "stateMutability": "payable",
      "type": "function"
    },
    {
      "inputs": [
        {
          "internalType": "address",
          "name": "owner",
          "type": "address"
        },
        {
          "internalType": "address",
          "name": "_messageBus",
          "type": "address"
        },
        {
          "internalType": "address",
          "name": "_receiver",
          "type": "address"
        },
        {
          "internalType": "uint64",
          "name": "_dstChainId",
          "type": "uint64"
        }
      ],
      "name": "initialize",
      "outputs": [],
      "stateMutability": "nonpayable",
      "type": "function"
    },
    {
      "inputs": [],
      "name": "messageBus",
      "outputs": [
        {
          "internalType": "address",
          "name": "",
          "type": "address"
        }
      ],
      "stateMutability": "view",
      "type": "function"
    },
    {
      "inputs": [
        {
          "components": [
            {
              "internalType": "address",
              "name": "sender",
              "type": "address"
            },
            {
              "internalType": "address",
              "name": "receiver",
              "type": "address"
            },
            {
              "internalType": "uint64",
              "name": "srcChainId",
              "type": "uint64"
            },
            {
              "internalType": "bytes32",
              "name": "srcTxHash",
              "type": "bytes32"
            }
          ],
          "internalType": "struct MsgDataTypes.RouteInfo",
          "name": "route",
          "type": "tuple"
        },
        {
          "internalType": "uint64",
          "name": "dstChainId",
          "type": "uint64"
        },
        {
          "internalType": "bytes",
          "name": "message",
          "type": "bytes"
        }
      ],
      "name": "messageId",
      "outputs": [
        {
          "internalType": "bytes32",
          "name": "",
          "type": "bytes32"
        }
      ],
      "stateMutability": "view",
      "type": "function"
    },
    {
      "inputs": [],
      "name": "owner",
      "outputs": [
        {
          "internalType": "address",
          "name": "",
          "type": "address"
        }
      ],
      "stateMutability": "view",
      "type": "function"
    },
    {
      "inputs": [],
      "name": "receiver",
      "outputs": [
        {
          "internalType": "address",
          "name": "",
          "type": "address"
        }
      ],
      "stateMutability": "view",
      "type": "function"
    },
    {
      "inputs": [],
      "name": "renounceOwnership",
      "outputs": [],
      "stateMutability": "nonpayable",
      "type": "function"
    },
    {
      "inputs": [
        {
          "internalType": "address",
          "name": "token",
          "type": "address"
        },
        {
          "internalType": "uint256",
          "name": "amount",
          "type": "uint256"
        },
        {
          "internalType": "uint64",
          "name": "nonce",
          "type": "uint64"
        },
        {
          "internalType": "uint32",
          "name": "maxSlippage",
          "type": "uint32"
        },
        {
          "internalType": "bytes",
          "name": "message",
          "type": "bytes"
        },
        {
          "internalType": "enum MsgDataTypes.BridgeSendType",
          "name": "bridgeSendType",
          "type": "uint8"
        }
      ],
      "name": "sendMessageWithTransfer",
      "outputs": [
        {
          "internalType": "bytes32",
          "name": "",
          "type": "bytes32"
        }
      ],
      "stateMutability": "payable",
      "type": "function"
    },
    {
      "inputs": [
        {
          "internalType": "uint64",
          "name": "dstChainId",
          "type": "uint64"
        }
      ],
      "name": "setDstChainId",
      "outputs": [],
      "stateMutability": "nonpayable",
      "type": "function"
    },
    {
      "inputs": [
        {
          "internalType": "address",
          "name": "messageBus",
          "type": "address"
        }
      ],
      "name": "setMessageBus",
      "outputs": [],
      "stateMutability": "nonpayable",
      "type": "function"
    },
    {
      "inputs": [
        {
          "internalType": "address",
          "name": "_receiver",
          "type": "address"
        }
      ],
      "name": "setReceiver",
      "outputs": [],
      "stateMutability": "nonpayable",
      "type": "function"
    },
    {
      "inputs": [
        {
          "internalType": "address",
          "name": "_payment",
          "type": "address"
        }
      ],
      "name": "setSrcChainPayment",
      "outputs": [],
      "stateMutability": "nonpayable",
      "type": "function"
    },
    {
      "inputs": [],
      "name": "srcChainPayment",
      "outputs": [
        {
          "internalType": "address",
          "name": "",
          "type": "address"
        }
      ],
      "stateMutability": "view",
      "type": "function"
    },
    {
      "inputs": [
        {
          "internalType": "address",
          "name": "newOwner",
          "type": "address"
        }
      ],
      "name": "transferOwnership",
      "outputs": [],
      "stateMutability": "nonpayable",
      "type": "function"
    }
  ],
  "transactionHash": "0x5032fad319010d0688d8a2c0cb3543d3f4c9c510c8e2147432a313ab9daa0986",
  "args": [
    "0xF1658C608708172655A8e70a1624c29F956Ee63D",
    "0xF25170F86E4291a99a9A560032Fe9948b8BcFBB2",
    "0x45dcD6db359B99dA8B38D6B172bCaCFe4182c495",
    97
  ],
  "solcInputHash": "55cb943cd24eeac199a015c55188fb4b",
  "bytecode": "0x60806040523480156200001157600080fd5b50604051620025f2380380620025f28339810160408190526200003491620002c2565b600054610100900460ff16620000515760005460ff16156200005b565b6200005b620000f0565b620000835760405162461bcd60e51b81526004016200007a9062000330565b60405180910390fd5b600054610100900460ff16158015620000a6576000805461ffff19166101011790555b620000b1856200010e565b620000bc8462000160565b620000c783620001b9565b620000d28262000206565b8015620000e5576000805461ff00191690555b5050505050620003c4565b600062000108306200025c60201b6200077b1760201c565b15905090565b603380546001600160a01b038381166001600160a01b0319831681179093556040519116919082907f8be0079c531659141344cd1fd0a4f28419497f9722a3daafe3b4186f6b6457e090600090a35050565b606680546001600160a01b0319166001600160a01b0383169081179091556040517f3f8223bcd8b3b875473e9f9e14e1ad075451a2b5ffd31591655da9a01516bf5e91620001ae9162000394565b60405180910390a150565b606780546001600160a01b0319166001600160a01b0383161790556040517f75fd3aa5d9b6e2a8a9d8894008c9263200713f4b1fa9113665e09ceac002774690620001ae90839062000394565b60678054600160a01b600160e01b031916600160a01b6001600160401b038416021790556040517fb21f4918f3e7b110065f3bf18a09b38074a4553144258ccfc30b57a76211e92990620001ae908390620003b4565b6001600160a01b03163b151590565b60006001600160a01b0382165b92915050565b62000289816200026b565b81146200029557600080fd5b50565b805162000278816200027e565b6001600160401b03811662000289565b80516200027881620002a5565b60008060008060808587031215620002dd57620002dd600080fd5b6000620002eb878762000298565b9450506020620002fe8782880162000298565b9350506040620003118782880162000298565b92505060606200032487828801620002b5565b91505092959194509250565b602080825281016200027881602e81527f496e697469616c697a61626c653a20636f6e747261637420697320616c72656160208201526d191e481a5b9a5d1a585b1a5e995960921b604082015260600190565b6200038e816200026b565b82525050565b6020810162000278828462000383565b6001600160401b0381166200038e565b60208101620002788284620003a4565b61221e80620003d46000396000f3fe6080604052600436106100f35760003560e01c8063a1a227fa1161008a578063d7c8cb2411610059578063d7c8cb24146102a0578063f2fde38b146102c0578063f7188453146102e0578063f7260d3e146102f357600080fd5b8063a1a227fa14610220578063bb0248aa14610240578063bbd53ea714610260578063d204d9a81461028057600080fd5b8063547cad12116100c6578063547cad12146101a4578063715018a6146101c4578063718da7ee146101d95780638da5cb5b146101f957600080fd5b80630bcb4982146100f857806330c593f7146101215780633fe3f1cf146101555780635335dca214610177575b600080fd5b61010b610106366004611497565b610313565b6040516101189190611569565b60405180910390f35b34801561012d57600080fd5b5060675461014890600160a01b90046001600160401b031681565b6040516101189190611586565b34801561016157600080fd5b506101756101703660046115ae565b610395565b005b34801561018357600080fd5b50610197610192366004611706565b61042f565b6040516101189190611746565b3480156101b057600080fd5b506101756101bf366004611754565b6104b6565b3480156101d057600080fd5b506101756104ec565b3480156101e557600080fd5b506101756101f4366004611754565b610522565b34801561020557600080fd5b506033546001600160a01b03165b604051610118919061177e565b34801561022c57600080fd5b50606654610213906001600160a01b031681565b34801561024c57600080fd5b5061019761025b3660046117a7565b610555565b34801561026c57600080fd5b5061017561027b366004611754565b6105c6565b34801561028c57600080fd5b50606554610213906001600160a01b031681565b3480156102ac57600080fd5b506101756102bb366004611814565b6105f9565b3480156102cc57600080fd5b506101756102db366004611754565b61062c565b6101976102ee366004611864565b610685565b3480156102ff57600080fd5b50606754610213906001600160a01b031681565b6066546000906001600160a01b031633146103495760405162461bcd60e51b815260040161034090611952565b60405180910390fd5b7f9afeef02b2dc7c87e4d0fe67945dedf1c4ee5bcf5cdf26f94fb1837859816f33868686868660405161038095949392919061198b565b60405180910390a15060015b95945050505050565b600054610100900460ff166103b05760005460ff16156103b4565b303b155b6103d05760405162461bcd60e51b815260040161034090611a1d565b600054610100900460ff161580156103f2576000805461ffff19166101011790555b6103fb8561078a565b610404846107dc565b61040d83610833565b6104168261087e565b8015610428576000805461ff00191690555b5050505050565b60665460405163299aee5160e11b81526000916001600160a01b031690635335dca290610460908590600401611a87565b60206040518083038186803b15801561047857600080fd5b505afa15801561048c573d6000803e3d6000fd5b505050506040513d601f19601f820116820180604052508101906104b09190611aa3565b92915050565b6033546001600160a01b031633146104e05760405162461bcd60e51b815260040161034090611af9565b6104e9816107dc565b50565b6033546001600160a01b031633146105165760405162461bcd60e51b815260040161034090611af9565b610520600061078a565b565b6033546001600160a01b0316331461054c5760405162461bcd60e51b815260040161034090611af9565b6104e981610833565b600060016105666020870187611754565b6105766040880160208901611754565b6105866060890160408a01611814565b88606001358888886040516020016105a5989796959493929190611ba7565b6040516020818303038152906040528051906020012090505b949350505050565b6033546001600160a01b031633146105f05760405162461bcd60e51b815260040161034090611af9565b6104e9816108d3565b6033546001600160a01b031633146106235760405162461bcd60e51b815260040161034090611af9565b6104e98161087e565b6033546001600160a01b031633146106565760405162461bcd60e51b815260040161034090611af9565b6001600160a01b03811661067c5760405162461bcd60e51b815260040161034090611c57565b6104e98161078a565b6065546000906001600160a01b031633146106b25760405162461bcd60e51b815260040161034090611cb1565b6040516323b872dd60e01b81526001600160a01b038816906323b872dd906106e290339030908b90600401611cc1565b602060405180830381600087803b1580156106fc57600080fd5b505af1158015610710573d6000803e3d6000fd5b505050506040513d601f19601f820116820180604052508101906107349190611cfc565b50606754606654610770916001600160a01b03808216928b928b92600160a01b9091046001600160401b0316918b918b918b918b91163461091e565b509695505050505050565b6001600160a01b03163b151590565b603380546001600160a01b038381166001600160a01b0319831681179093556040519116919082907f8be0079c531659141344cd1fd0a4f28419497f9722a3daafe3b4186f6b6457e090600090a35050565b606680546001600160a01b0319166001600160a01b0383169081179091556040517f3f8223bcd8b3b875473e9f9e14e1ad075451a2b5ffd31591655da9a01516bf5e916108289161177e565b60405180910390a150565b606780546001600160a01b0319166001600160a01b0383161790556040517f75fd3aa5d9b6e2a8a9d8894008c9263200713f4b1fa9113665e09ceac00277469061082890839061177e565b6067805467ffffffffffffffff60a01b1916600160a01b6001600160401b038416021790556040517fb21f4918f3e7b110065f3bf18a09b38074a4553144258ccfc30b57a76211e92990610828908390611586565b606580546001600160a01b0319166001600160a01b0383161790556040517faf4cc7de2dd4900af1750e9a7af95c24ca2096d76903102700c90a6abaa819a29061082890839061177e565b600060018460068111156109345761093461151a565b14156109525761094b8b8b8b8b8b8b8b8a8a610a06565b90506109f8565b60028460068111156109665761096661151a565b1480610983575060048460068111156109815761098161151a565b145b156109995761094b848c8c8c8c8c8b8a8a610ba6565b60038460068111156109ad576109ad61151a565b14806109ca575060058460068111156109c8576109c861151a565b145b156109e05761094b848c8c8c8c8c8b8a8a610e3e565b60405162461bcd60e51b815260040161034090611d51565b9a9950505050505050505050565b600080836001600160a01b03166382980dc46040518163ffffffff1660e01b815260040160206040518083038186803b158015610a4257600080fd5b505afa158015610a56573d6000803e3d6000fd5b505050506040513d601f19601f82011682018060405250810190610a7a9190611d6c565b9050610a906001600160a01b038b16828b6110b1565b60405163a5977fbb60e01b81526001600160a01b0382169063a5977fbb90610ac6908e908e908e908e908e908e90600401611d99565b600060405180830381600087803b158015610ae057600080fd5b505af1158015610af4573d6000803e3d6000fd5b505050506000308c8c8c8c8c46604051602001610b179796959493929190611de8565b604051602081830303815290604052805190602001209050846001600160a01b0316634289fbb3858e8c86868c6040518763ffffffff1660e01b8152600401610b64959493929190611e81565b6000604051808303818588803b158015610b7d57600080fd5b505af1158015610b91573d6000803e3d6000fd5b50939f9e505050505050505050505050505050565b60008060028b6006811115610bbd57610bbd61151a565b1415610c3b57836001600160a01b031663d8257d176040518163ffffffff1660e01b815260040160206040518083038186803b158015610bfc57600080fd5b505afa158015610c10573d6000803e3d6000fd5b505050506040513d601f19601f82011682018060405250810190610c349190611d6c565b9050610caf565b836001600160a01b031663c66a9c5a6040518163ffffffff1660e01b815260040160206040518083038186803b158015610c7457600080fd5b505afa158015610c88573d6000803e3d6000fd5b505050506040513d601f19601f82011682018060405250810190610cac9190611d6c565b90505b610cc36001600160a01b038a16828a6110b1565b600060028c6006811115610cd957610cd961151a565b1415610d7f57816001600160a01b031663234636248b8b8b8f8c6040518663ffffffff1660e01b8152600401610d13959493929190611ec8565b600060405180830381600087803b158015610d2d57600080fd5b505af1158015610d41573d6000803e3d6000fd5b50505050308a8a8a8e8b46604051602001610d629796959493929190611f0a565b604051602081830303815290604052805190602001209050610e08565b816001600160a01b031663234636248b8b8b8f8c6040518663ffffffff1660e01b8152600401610db3959493929190611ec8565b602060405180830381600087803b158015610dcd57600080fd5b505af1158015610de1573d6000803e3d6000fd5b505050506040513d601f19601f82011682018060405250810190610e059190611aa3565b90505b604051634289fbb360e01b81526001600160a01b03861690634289fbb3908690610b64908f908d90889088908e90600401611e81565b60008060038b6006811115610e5557610e5561151a565b1415610ed357836001600160a01b031663dfa2dbaf6040518163ffffffff1660e01b815260040160206040518083038186803b158015610e9457600080fd5b505afa158015610ea8573d6000803e3d6000fd5b505050506040513d601f19601f82011682018060405250810190610ecc9190611d6c565b9050610f47565b836001600160a01b03166395b12c276040518163ffffffff1660e01b815260040160206040518083038186803b158015610f0c57600080fd5b505afa158015610f20573d6000803e3d6000fd5b505050506040513d601f19601f82011682018060405250810190610f449190611d6c565b90505b610f5b6001600160a01b038a16828a6110b1565b600060038c6006811115610f7157610f7161151a565b141561101357816001600160a01b031663de790c7e8b8b8e8b6040518563ffffffff1660e01b8152600401610fa99493929190611f66565b600060405180830381600087803b158015610fc357600080fd5b505af1158015610fd7573d6000803e3d6000fd5b50505050308a8a8d8a46604051602001610ff696959493929190611f9b565b60405160208183030381529060405280519060200120905061109c565b816001600160a01b031663a00293018b8b8b8f8c6040518663ffffffff1660e01b8152600401611047959493929190611ec8565b602060405180830381600087803b15801561106157600080fd5b505af1158015611075573d6000803e3d6000fd5b505050506040513d601f19601f820116820180604052508101906110999190611aa3565b90505b610e086001600160a01b038b1683600061119a565b600081846001600160a01b031663dd62ed3e30866040518363ffffffff1660e01b81526004016110e2929190612005565b60206040518083038186803b1580156110fa57600080fd5b505afa15801561110e573d6000803e3d6000fd5b505050506040513d601f19601f820116820180604052508101906111329190611aa3565b61113c9190612036565b90506111948463095ea7b360e01b858460405160240161115d92919061204e565b60408051601f198184030181529190526020810180516001600160e01b03166001600160e01b031990931692909217909152611262565b50505050565b8015806112225750604051636eb1769f60e11b81526001600160a01b0384169063dd62ed3e906111d09030908690600401612005565b60206040518083038186803b1580156111e857600080fd5b505afa1580156111fc573d6000803e3d6000fd5b505050506040513d601f19601f820116820180604052508101906112209190611aa3565b155b61123e5760405162461bcd60e51b8152600401610340906120bc565b61125d8363095ea7b360e01b848460405160240161115d92919061204e565b505050565b60006112b7826040518060400160405280602081526020017f5361666545524332303a206c6f772d6c6576656c2063616c6c206661696c6564815250856001600160a01b03166112f19092919063ffffffff16565b80519091501561125d57808060200190518101906112d59190611cfc565b61125d5760405162461bcd60e51b815260040161034090612113565b6060611300848460008561130a565b90505b9392505050565b60608247101561132c5760405162461bcd60e51b815260040161034090612166565b6001600160a01b0385163b6113535760405162461bcd60e51b8152600401610340906121aa565b600080866001600160a01b0316858760405161136f91906121dc565b60006040518083038185875af1925050503d80600081146113ac576040519150601f19603f3d011682016040523d82523d6000602084013e6113b1565b606091505b50915091506113c18282866113cc565b979650505050505050565b606083156113db575081611303565b8251156113eb5782518084602001fd5b8160405162461bcd60e51b81526004016103409190611a87565b60006001600160a01b0382166104b0565b61141f81611405565b81146104e957600080fd5b80356104b081611416565b8061141f565b80356104b081611435565b60008083601f84011261145b5761145b600080fd5b5081356001600160401b0381111561147557611475600080fd5b60208301915083600182028301111561149057611490600080fd5b9250929050565b6000806000806000608086880312156114b2576114b2600080fd5b60006114be888861142a565b95505060206114cf8882890161143b565b94505060408601356001600160401b038111156114ee576114ee600080fd5b6114fa88828901611446565b9350935050606061150d8882890161142a565b9150509295509295909350565b634e487b7160e01b600052602160045260246000fd5b600381106104e9576104e961151a565b8061154a81611530565b919050565b60006104b082611540565b6115638161154f565b82525050565b602081016104b0828461155a565b6001600160401b038116611563565b602081016104b08284611577565b6001600160401b03811661141f565b80356104b081611594565b600080600080608085870312156115c7576115c7600080fd5b60006115d3878761142a565b94505060206115e48782880161142a565b93505060406115f58782880161142a565b9250506060611606878288016115a3565b91505092959194509250565b634e487b7160e01b600052604160045260246000fd5b601f19601f83011681018181106001600160401b038211171561164d5761164d611612565b6040525050565b600061165f60405190565b905061154a8282611628565b60006001600160401b0382111561168457611684611612565b601f19601f83011660200192915050565b82818337506000910152565b60006116b46116af8461166b565b611654565b9050828152602081018484840111156116cf576116cf600080fd5b6116da848285611695565b509392505050565b600082601f8301126116f6576116f6600080fd5b81356105be8482602086016116a1565b60006020828403121561171b5761171b600080fd5b81356001600160401b0381111561173457611734600080fd5b6105be848285016116e2565b80611563565b602081016104b08284611740565b60006020828403121561176957611769600080fd5b60006105be848461142a565b61156381611405565b602081016104b08284611775565b6000608082840312156117a1576117a1600080fd5b50919050565b60008060008060c085870312156117c0576117c0600080fd5b60006117cc878761178c565b94505060806117dd878288016115a3565b93505060a08501356001600160401b038111156117fc576117fc600080fd5b61180887828801611446565b95989497509550505050565b60006020828403121561182957611829600080fd5b60006105be84846115a3565b63ffffffff811661141f565b80356104b081611835565b600781106104e957600080fd5b80356104b08161184c565b60008060008060008060c0878903121561188057611880600080fd5b600061188c898961142a565b965050602061189d89828a0161143b565b95505060406118ae89828a016115a3565b94505060606118bf89828a01611841565b93505060808701356001600160401b038111156118de576118de600080fd5b6118ea89828a016116e2565b92505060a06118fb89828a01611859565b9150509295509295509295565b602a81526000602082017f4d65737361676552656365697665723a2063616c6c6572206973206e6f74206d8152696573736167652062757360b01b602082015291505b5060400190565b602080825281016104b081611908565b8183526000602084019350611978838584611695565b601f19601f8401165b9093019392505050565b608081016119998288611775565b6119a66020830187611740565b81810360408301526119b9818587611962565b90506119c86060830184611775565b9695505050505050565b602e81526000602082017f496e697469616c697a61626c653a20636f6e747261637420697320616c72656181526d191e481a5b9a5d1a585b1a5e995960921b6020820152915061194b565b602080825281016104b0816119d2565b60005b83811015611a48578181015183820152602001611a30565b838111156111945750506000910152565b6000611a63825190565b808452602084019350611a7a818560208601611a2d565b601f19601f820116611981565b602080825281016113038184611a59565b80516104b081611435565b600060208284031215611ab857611ab8600080fd5b60006105be8484611a98565b60208082527f4f776e61626c653a2063616c6c6572206973206e6f7420746865206f776e6572910190815260005b5060200190565b602080825281016104b081611ac4565b600281106104e9576104e961151a565b8061154a81611b09565b60006104b082611b19565b60006104b08260f81b90565b611563611b4682611b23565b611b2e565b60006104b08260601b90565b60006104b082611b4b565b611563611b6e82611405565b611b57565b60006104b08260c01b90565b6115636001600160401b038216611b73565b90565b6000611ba1838584611695565b50500190565b6000611bb3828b611b3a565b600182019150611bc3828a611b62565b601482019150611bd38289611b62565b601482019150611be38288611b7f565b600882019150611bf38287611740565b602082019150611c038286611b7f565b6008820191506109f8828486611b94565b602681526000602082017f4f776e61626c653a206e6577206f776e657220697320746865207a65726f206181526564647265737360d01b6020820152915061194b565b602080825281016104b081611c14565b602d81526000602082017f4d65737361676553656e6465723a2063616c6c6572206973206e6f742070617981526c1b595b9d0818dbdb9d1c9858dd609a1b6020820152915061194b565b602080825281016104b081611c67565b60608101611ccf8286611775565b611cdc6020830185611775565b6105be6040830184611740565b80151561141f565b80516104b081611ce9565b600060208284031215611d1157611d11600080fd5b60006105be8484611cf1565b601981526000602082017f6272696467652074797065206e6f7420737570706f727465640000000000000081529150611af2565b602080825281016104b081611d1d565b80516104b081611416565b600060208284031215611d8157611d81600080fd5b60006105be8484611d61565b63ffffffff8116611563565b60c08101611da78289611775565b611db46020830188611775565b611dc16040830187611740565b611dce6060830186611577565b611ddb6080830185611577565b6113c160a0830184611d8d565b6000611df4828a611b62565b601482019150611e048289611b62565b601482019150611e148288611b62565b601482019150611e248287611740565b602082019150611e348286611b7f565b600882019150611e448285611b7f565b600882019150611e548284611b7f565b50600801979650505050505050565b60006104b0611b916001600160401b03841681565b61156381611e63565b60a08101611e8f8288611775565b611e9c6020830187611e78565b611ea96040830186611775565b611eb66060830185611740565b81810360808301526113c18184611a59565b60a08101611ed68288611775565b611ee36020830187611740565b611ef06040830186611577565b611efd6060830185611775565b6119c86080830184611577565b6000611f16828a611b62565b601482019150611f268289611b62565b601482019150611f368288611740565b602082019150611f468287611b7f565b600882019150611f568286611b62565b601482019150611e448285611b7f565b60808101611f748287611775565b611f816020830186611740565b611f8e6040830185611775565b61038c6060830184611577565b6000611fa78289611b62565b601482019150611fb78288611b62565b601482019150611fc78287611740565b602082019150611fd78286611b62565b601482019150611fe78285611b7f565b600882019150611ff78284611b7f565b506008019695505050505050565b604081016120138285611775565b6113036020830184611775565b634e487b7160e01b600052601160045260246000fd5b6000821982111561204957612049612020565b500190565b6040810161205c8285611775565b6113036020830184611740565b603681526000602082017f5361666545524332303a20617070726f76652066726f6d206e6f6e2d7a65726f81527520746f206e6f6e2d7a65726f20616c6c6f77616e636560501b6020820152915061194b565b602080825281016104b081612069565b602a81526000602082017f5361666545524332303a204552433230206f7065726174696f6e20646964206e8152691bdd081cdd58d8d9595960b21b6020820152915061194b565b602080825281016104b0816120cc565b602681526000602082017f416464726573733a20696e73756666696369656e742062616c616e636520666f8152651c8818d85b1b60d21b6020820152915061194b565b602080825281016104b081612123565b601d81526000602082017f416464726573733a2063616c6c20746f206e6f6e2d636f6e747261637400000081529150611af2565b602080825281016104b081612176565b60006121c4825190565b6121d2818560208601611a2d565b9290920192915050565b600061130382846121ba56fea26469706673582212209ef15e9f8e77465d36e950fa28726330cf5b35fb73b13b1626f28e6e1571dd2764736f6c63430008090033",
  "devdoc": {
    "kind": "dev",
    "methods": {
      "owner()": {
        "details": "Returns the address of the current owner."
      },
      "renounceOwnership()": {
        "details": "Leaves the contract without owner. It will not be possible to call `onlyOwner` functions anymore. Can only be called by the current owner. NOTE: Renouncing ownership will leave the contract without an owner, thereby removing any functionality that is only available to the owner."
      },
      "transferOwnership(address)": {
        "details": "Transfers ownership of the contract to a new account (`newOwner`). Can only be called by the current owner."
      }
    },
    "version": 1
  },
  "userdoc": {
    "kind": "user",
    "methods": {},
    "version": 1
  },
  "storageLayout": {
    "storage": [
      {
        "astId": 147,
        "contract": "contracts/messages/MessageSender.sol:MessageSender",
        "label": "_initialized",
        "offset": 0,
        "slot": "0",
        "type": "t_bool"
      },
      {
        "astId": 150,
        "contract": "contracts/messages/MessageSender.sol:MessageSender",
        "label": "_initializing",
        "offset": 1,
        "slot": "0",
        "type": "t_bool"
      },
      {
        "astId": 1608,
        "contract": "contracts/messages/MessageSender.sol:MessageSender",
        "label": "__gap",
        "offset": 0,
        "slot": "1",
        "type": "t_array(t_uint256)50_storage"
      },
      {
        "astId": 10,
        "contract": "contracts/messages/MessageSender.sol:MessageSender",
        "label": "_owner",
        "offset": 0,
        "slot": "51",
        "type": "t_address"
      },
      {
        "astId": 122,
        "contract": "contracts/messages/MessageSender.sol:MessageSender",
        "label": "__gap",
        "offset": 0,
        "slot": "52",
        "type": "t_array(t_uint256)49_storage"
      },
      {
        "astId": 5228,
        "contract": "contracts/messages/MessageSender.sol:MessageSender",
        "label": "srcChainPayment",
        "offset": 0,
        "slot": "101",
        "type": "t_address"
      },
      {
        "astId": 5230,
        "contract": "contracts/messages/MessageSender.sol:MessageSender",
        "label": "messageBus",
        "offset": 0,
        "slot": "102",
        "type": "t_address"
      },
      {
        "astId": 5233,
        "contract": "contracts/messages/MessageSender.sol:MessageSender",
        "label": "receiver",
        "offset": 0,
        "slot": "103",
        "type": "t_address"
      },
      {
        "astId": 5236,
        "contract": "contracts/messages/MessageSender.sol:MessageSender",
        "label": "dstChainId",
        "offset": 20,
        "slot": "103",
        "type": "t_uint64"
      }
    ],
    "types": {
      "t_address": {
        "encoding": "inplace",
        "label": "address",
        "numberOfBytes": "20"
      },
      "t_array(t_uint256)49_storage": {
        "base": "t_uint256",
        "encoding": "inplace",
        "label": "uint256[49]",
        "numberOfBytes": "1568"
      },
      "t_array(t_uint256)50_storage": {
        "base": "t_uint256",
        "encoding": "inplace",
        "label": "uint256[50]",
        "numberOfBytes": "1600"
      },
      "t_bool": {
        "encoding": "inplace",
        "label": "bool",
        "numberOfBytes": "1"
      },
      "t_uint256": {
        "encoding": "inplace",
        "label": "uint256",
        "numberOfBytes": "32"
      },
      "t_uint64": {
        "encoding": "inplace",
        "label": "uint64",
        "numberOfBytes": "8"
      }
    }
  }
}