{
  "address": "0x3a907F1fae2B541eaC98d7ED58BFeF69C38d8c17",
  "abi": [
    {
      "inputs": [
        {
          "internalType": "address",
          "name": "_messageBus",
          "type": "address"
        }
      ],
      "stateMutability": "nonpayable",
      "type": "constructor"
    },
    {
      "anonymous": false,
      "inputs": [
        {
          "indexed": false,
          "internalType": "address",
          "name": "messageBus",
          "type": "address"
        }
      ],
      "name": "MessageBusUpdated",
      "type": "event"
    },
    {
      "anonymous": false,
      "inputs": [
        {
          "indexed": true,
          "internalType": "address",
          "name": "previousOwner",
          "type": "address"
        },
        {
          "indexed": true,
          "internalType": "address",
          "name": "newOwner",
          "type": "address"
        }
      ],
      "name": "OwnershipTransferred",
      "type": "event"
    },
    {
      "inputs": [
        {
          "internalType": "address",
          "name": "_sender",
          "type": "address"
        },
        {
          "internalType": "uint64",
          "name": "_srcChainId",
          "type": "uint64"
        },
        {
          "internalType": "bytes",
          "name": "_message",
          "type": "bytes"
        },
        {
          "internalType": "address",
          "name": "_executor",
          "type": "address"
        }
      ],
      "name": "executeMessage",
      "outputs": [
        {
          "internalType": "enum IMessageReceiverApp.ExecutionStatus",
          "name": "",
          "type": "uint8"
        }
      ],
      "stateMutability": "payable",
      "type": "function"
    },
    {
      "inputs": [
        {
          "internalType": "address",
          "name": "_sender",
          "type": "address"
        },
        {
          "internalType": "address",
          "name": "_token",
          "type": "address"
        },
        {
          "internalType": "uint256",
          "name": "_amount",
          "type": "uint256"
        },
        {
          "internalType": "uint64",
          "name": "_srcChainId",
          "type": "uint64"
        },
        {
          "internalType": "bytes",
          "name": "_message",
          "type": "bytes"
        },
        {
          "internalType": "address",
          "name": "_executor",
          "type": "address"
        }
      ],
      "name": "executeMessageWithTransfer",
      "outputs": [
        {
          "internalType": "enum IMessageReceiverApp.ExecutionStatus",
          "name": "",
          "type": "uint8"
        }
      ],
      "stateMutability": "payable",
      "type": "function"
    },
    {
      "inputs": [
        {
          "internalType": "address",
          "name": "_sender",
          "type": "address"
        },
        {
          "internalType": "address",
          "name": "_token",
          "type": "address"
        },
        {
          "internalType": "uint256",
          "name": "_amount",
          "type": "uint256"
        },
        {
          "internalType": "uint64",
          "name": "_srcChainId",
          "type": "uint64"
        },
        {
          "internalType": "bytes",
          "name": "_message",
          "type": "bytes"
        },
        {
          "internalType": "address",
          "name": "_executor",
          "type": "address"
        }
      ],
      "name": "executeMessageWithTransferFallback",
      "outputs": [
        {
          "internalType": "enum IMessageReceiverApp.ExecutionStatus",
          "name": "",
          "type": "uint8"
        }
      ],
      "stateMutability": "payable",
      "type": "function"
    },
    {
      "inputs": [
        {
          "internalType": "address",
          "name": "_token",
          "type": "address"
        },
        {
          "internalType": "uint256",
          "name": "_amount",
          "type": "uint256"
        },
        {
          "internalType": "bytes",
          "name": "_message",
          "type": "bytes"
        },
        {
          "internalType": "address",
          "name": "_executor",
          "type": "address"
        }
      ],
      "name": "executeMessageWithTransferRefund",
      "outputs": [
        {
          "internalType": "enum IMessageReceiverApp.ExecutionStatus",
          "name": "",
          "type": "uint8"
        }
      ],
      "stateMutability": "payable",
      "type": "function"
    },
    {
      "inputs": [],
      "name": "executor",
      "outputs": [
        {
          "internalType": "address",
          "name": "",
          "type": "address"
        }
      ],
      "stateMutability": "view",
      "type": "function"
    },
    {
      "inputs": [],
      "name": "message",
      "outputs": [
        {
          "internalType": "bytes",
          "name": "",
          "type": "bytes"
        }
      ],
      "stateMutability": "view",
      "type": "function"
    },
    {
      "inputs": [],
      "name": "messageBus",
      "outputs": [
        {
          "internalType": "address",
          "name": "",
          "type": "address"
        }
      ],
      "stateMutability": "view",
      "type": "function"
    },
    {
      "inputs": [],
      "name": "owner",
      "outputs": [
        {
          "internalType": "address",
          "name": "",
          "type": "address"
        }
      ],
      "stateMutability": "view",
      "type": "function"
    },
    {
      "inputs": [],
      "name": "sender",
      "outputs": [
        {
          "internalType": "address",
          "name": "",
          "type": "address"
        }
      ],
      "stateMutability": "view",
      "type": "function"
    },
    {
      "inputs": [
        {
          "internalType": "address",
          "name": "_messageBus",
          "type": "address"
        }
      ],
      "name": "setMessageBus",
      "outputs": [],
      "stateMutability": "nonpayable",
      "type": "function"
    },
    {
      "inputs": [],
      "name": "srcChainId",
      "outputs": [
        {
          "internalType": "uint64",
          "name": "",
          "type": "uint64"
        }
      ],
      "stateMutability": "view",
      "type": "function"
    },
    {
      "inputs": [
        {
          "internalType": "address",
          "name": "newOwner",
          "type": "address"
        }
      ],
      "name": "transferOwnership",
      "outputs": [],
      "stateMutability": "nonpayable",
      "type": "function"
    }
  ],
  "transactionHash": "0xd6789fdd5a224535a5f27772c9207dddce39bcf5e3385f798ce5448fa46e68d4",
  "args": [
    "0xF25170F86E4291a99a9A560032Fe9948b8BcFBB2"
  ],
  "bytecode": "0x608060405234801561001057600080fd5b50604051610a39380380610a3983398101604081905261002f916100ad565b6100383361005d565b600180546001600160a01b0319166001600160a01b03929092169190911790556100dd565b600080546001600160a01b038381166001600160a01b0319831681178455604051919092169283917f8be0079c531659141344cd1fd0a4f28419497f9722a3daafe3b4186f6b6457e09190a35050565b6000602082840312156100bf57600080fd5b81516001600160a01b03811681146100d657600080fd5b9392505050565b61094d806100ec6000396000f3fe6080604052600436106100a75760003560e01c80638da5cb5b116100645780638da5cb5b146101835780639c649fdf146101a1578063a1a227fa146101b4578063c34c08e5146101d4578063e21f37ce146101f4578063f2fde38b1461021657600080fd5b80630bcb4982146100ac57806349d12605146100d5578063547cad12146101165780635ab7afc61461013857806367e404ce1461014b5780637cd2bffc14610138575b600080fd5b6100bf6100ba3660046106db565b610236565b6040516100cc919061074a565b60405180910390f35b3480156100e157600080fd5b506002546100fd90600160a01b900467ffffffffffffffff1681565b60405167ffffffffffffffff90911681526020016100cc565b34801561012257600080fd5b50610136610131366004610772565b61029d565b005b6100bf6101463660046107ac565b61035a565b34801561015757600080fd5b5060025461016b906001600160a01b031681565b6040516001600160a01b0390911681526020016100cc565b34801561018f57600080fd5b506000546001600160a01b031661016b565b6100bf6101af36600461083c565b6103be565b3480156101c057600080fd5b5060015461016b906001600160a01b031681565b3480156101e057600080fd5b5060045461016b906001600160a01b031681565b34801561020057600080fd5b50610209610425565b6040516100cc9190610887565b34801561022257600080fd5b50610136610231366004610772565b6104b3565b6001546000906001600160a01b031633146102945760405162461bcd60e51b815260206004820152601960248201527863616c6c6572206973206e6f74206d6573736167652062757360381b60448201526064015b60405180910390fd5b95945050505050565b336102b06000546001600160a01b031690565b6001600160a01b0316146103065760405162461bcd60e51b815260206004820181905260248201527f4f776e61626c653a2063616c6c6572206973206e6f7420746865206f776e6572604482015260640161028b565b600180546001600160a01b0319166001600160a01b0383169081179091556040519081527f3f8223bcd8b3b875473e9f9e14e1ad075451a2b5ffd31591655da9a01516bf5e9060200160405180910390a150565b6001546000906001600160a01b031633146103b35760405162461bcd60e51b815260206004820152601960248201527863616c6c6572206973206e6f74206d6573736167652062757360381b604482015260640161028b565b979650505050505050565b6002805467ffffffffffffffff8616600160a01b026001600160e01b03199091166001600160a01b0388161717905560006103fb600385856105dd565b5050600480546001600160a01b0383166001600160a01b0319909116179055600195945050505050565b60038054610432906108dc565b80601f016020809104026020016040519081016040528092919081815260200182805461045e906108dc565b80156104ab5780601f10610480576101008083540402835291602001916104ab565b820191906000526020600020905b81548152906001019060200180831161048e57829003601f168201915b505050505081565b336104c66000546001600160a01b031690565b6001600160a01b03161461051c5760405162461bcd60e51b815260206004820181905260248201527f4f776e61626c653a2063616c6c6572206973206e6f7420746865206f776e6572604482015260640161028b565b6001600160a01b0381166105815760405162461bcd60e51b815260206004820152602660248201527f4f776e61626c653a206e6577206f776e657220697320746865207a65726f206160448201526564647265737360d01b606482015260840161028b565b61058a8161058d565b50565b600080546001600160a01b038381166001600160a01b0319831681178455604051919092169283917f8be0079c531659141344cd1fd0a4f28419497f9722a3daafe3b4186f6b6457e09190a35050565b8280546105e9906108dc565b90600052602060002090601f01602090048101928261060b5760008555610651565b82601f106106245782800160ff19823516178555610651565b82800160010185558215610651579182015b82811115610651578235825591602001919060010190610636565b5061065d929150610661565b5090565b5b8082111561065d5760008155600101610662565b80356001600160a01b038116811461068d57600080fd5b919050565b60008083601f8401126106a457600080fd5b50813567ffffffffffffffff8111156106bc57600080fd5b6020830191508360208285010111156106d457600080fd5b9250929050565b6000806000806000608086880312156106f357600080fd5b6106fc86610676565b945060208601359350604086013567ffffffffffffffff81111561071f57600080fd5b61072b88828901610692565b909450925061073e905060608701610676565b90509295509295909350565b602081016003831061076c57634e487b7160e01b600052602160045260246000fd5b91905290565b60006020828403121561078457600080fd5b61078d82610676565b9392505050565b803567ffffffffffffffff8116811461068d57600080fd5b600080600080600080600060c0888a0312156107c757600080fd5b6107d088610676565b96506107de60208901610676565b9550604088013594506107f360608901610794565b9350608088013567ffffffffffffffff81111561080f57600080fd5b61081b8a828b01610692565b909450925061082e905060a08901610676565b905092959891949750929550565b60008060008060006080868803121561085457600080fd5b61085d86610676565b945061086b60208701610794565b9350604086013567ffffffffffffffff81111561071f57600080fd5b600060208083528351808285015260005b818110156108b457858101830151858201604001528201610898565b818111156108c6576000604083870101525b50601f01601f1916929092016040019392505050565b600181811c908216806108f057607f821691505b6020821081141561091157634e487b7160e01b600052602260045260246000fd5b5091905056fea264697066735822122015461fd9daa952bdd876b74bd3f81de73819567b1de7da1c914cf3fc20b1c03e64736f6c63430008090033"
}