{
  "address": "0xB92FCffb30fB16517439e667e045EEF041d5a48F",
  "abi": [
    {
      "inputs": [
        {
          "internalType": "address",
          "name": "_messageBus",
          "type": "address"
        }
      ],
      "stateMutability": "nonpayable",
      "type": "constructor"
    },
    {
      "anonymous": false,
      "inputs": [
        {
          "indexed": false,
          "internalType": "address",
          "name": "messageBus",
          "type": "address"
        }
      ],
      "name": "MessageBusUpdated",
      "type": "event"
    },
    {
      "anonymous": false,
      "inputs": [
        {
          "indexed": false,
          "internalType": "address",
          "name": "_sender",
          "type": "address"
        },
        {
          "indexed": false,
          "internalType": "uint64",
          "name": "_srcChainId",
          "type": "uint64"
        },
        {
          "indexed": false,
          "internalType": "bytes",
          "name": "_message",
          "type": "bytes"
        },
        {
          "indexed": false,
          "internalType": "address",
          "name": "executor",
          "type": "address"
        }
      ],
      "name": "MessageReceived",
      "type": "event"
    },
    {
      "anonymous": false,
      "inputs": [
        {
          "indexed": false,
          "internalType": "address",
          "name": "_sender",
          "type": "address"
        },
        {
          "indexed": false,
          "internalType": "address",
          "name": "_token",
          "type": "address"
        },
        {
          "indexed": false,
          "internalType": "uint256",
          "name": "_amount",
          "type": "uint256"
        },
        {
          "indexed": false,
          "internalType": "uint64",
          "name": "_srcChainId",
          "type": "uint64"
        },
        {
          "indexed": false,
          "internalType": "bytes",
          "name": "_message",
          "type": "bytes"
        },
        {
          "indexed": false,
          "internalType": "address",
          "name": "executor",
          "type": "address"
        }
      ],
      "name": "MessageReceivedWithTransfer",
      "type": "event"
    },
    {
      "anonymous": false,
      "inputs": [
        {
          "indexed": false,
          "internalType": "address",
          "name": "_token",
          "type": "address"
        },
        {
          "indexed": false,
          "internalType": "uint256",
          "name": "_amount",
          "type": "uint256"
        },
        {
          "indexed": false,
          "internalType": "bytes",
          "name": "_message",
          "type": "bytes"
        },
        {
          "indexed": false,
          "internalType": "address",
          "name": "executor",
          "type": "address"
        }
      ],
      "name": "MessageWithTransferRefund",
      "type": "event"
    },
    {
      "anonymous": false,
      "inputs": [
        {
          "indexed": true,
          "internalType": "address",
          "name": "previousOwner",
          "type": "address"
        },
        {
          "indexed": true,
          "internalType": "address",
          "name": "newOwner",
          "type": "address"
        }
      ],
      "name": "OwnershipTransferred",
      "type": "event"
    },
    {
      "inputs": [
        {
          "internalType": "address",
          "name": "_token",
          "type": "address"
        },
        {
          "internalType": "uint256",
          "name": "_amount",
          "type": "uint256"
        }
      ],
      "name": "drainToken",
      "outputs": [],
      "stateMutability": "nonpayable",
      "type": "function"
    },
    {
      "inputs": [
        {
          "internalType": "address",
          "name": "_sender",
          "type": "address"
        },
        {
          "internalType": "uint64",
          "name": "_srcChainId",
          "type": "uint64"
        },
        {
          "internalType": "bytes",
          "name": "_message",
          "type": "bytes"
        },
        {
          "internalType": "address",
          "name": "executor",
          "type": "address"
        }
      ],
      "name": "executeMessage",
      "outputs": [
        {
          "internalType": "enum IMessageReceiverApp.ExecutionStatus",
          "name": "",
          "type": "uint8"
        }
      ],
      "stateMutability": "payable",
      "type": "function"
    },
    {
      "inputs": [
        {
          "internalType": "address",
          "name": "_sender",
          "type": "address"
        },
        {
          "internalType": "address",
          "name": "_token",
          "type": "address"
        },
        {
          "internalType": "uint256",
          "name": "_amount",
          "type": "uint256"
        },
        {
          "internalType": "uint64",
          "name": "_srcChainId",
          "type": "uint64"
        },
        {
          "internalType": "bytes",
          "name": "_message",
          "type": "bytes"
        },
        {
          "internalType": "address",
          "name": "executor",
          "type": "address"
        }
      ],
      "name": "executeMessageWithTransfer",
      "outputs": [
        {
          "internalType": "enum IMessageReceiverApp.ExecutionStatus",
          "name": "",
          "type": "uint8"
        }
      ],
      "stateMutability": "payable",
      "type": "function"
    },
    {
      "inputs": [
        {
          "internalType": "address",
          "name": "_sender",
          "type": "address"
        },
        {
          "internalType": "address",
          "name": "_token",
          "type": "address"
        },
        {
          "internalType": "uint256",
          "name": "_amount",
          "type": "uint256"
        },
        {
          "internalType": "uint64",
          "name": "_srcChainId",
          "type": "uint64"
        },
        {
          "internalType": "bytes",
          "name": "_message",
          "type": "bytes"
        },
        {
          "internalType": "address",
          "name": "_executor",
          "type": "address"
        }
      ],
      "name": "executeMessageWithTransferFallback",
      "outputs": [
        {
          "internalType": "enum IMessageReceiverApp.ExecutionStatus",
          "name": "",
          "type": "uint8"
        }
      ],
      "stateMutability": "payable",
      "type": "function"
    },
    {
      "inputs": [
        {
          "internalType": "address",
          "name": "_token",
          "type": "address"
        },
        {
          "internalType": "uint256",
          "name": "_amount",
          "type": "uint256"
        },
        {
          "internalType": "bytes",
          "name": "_message",
          "type": "bytes"
        },
        {
          "internalType": "address",
          "name": "executor",
          "type": "address"
        }
      ],
      "name": "executeMessageWithTransferRefund",
      "outputs": [
        {
          "internalType": "enum IMessageReceiverApp.ExecutionStatus",
          "name": "",
          "type": "uint8"
        }
      ],
      "stateMutability": "payable",
      "type": "function"
    },
    {
      "inputs": [],
      "name": "messageBus",
      "outputs": [
        {
          "internalType": "address",
          "name": "",
          "type": "address"
        }
      ],
      "stateMutability": "view",
      "type": "function"
    },
    {
      "inputs": [],
      "name": "nonce",
      "outputs": [
        {
          "internalType": "uint64",
          "name": "",
          "type": "uint64"
        }
      ],
      "stateMutability": "view",
      "type": "function"
    },
    {
      "inputs": [],
      "name": "owner",
      "outputs": [
        {
          "internalType": "address",
          "name": "",
          "type": "address"
        }
      ],
      "stateMutability": "view",
      "type": "function"
    },
    {
      "inputs": [
        {
          "internalType": "address",
          "name": "_receiver",
          "type": "address"
        },
        {
          "internalType": "uint64",
          "name": "_dstChainId",
          "type": "uint64"
        },
        {
          "internalType": "bytes",
          "name": "_message",
          "type": "bytes"
        }
      ],
      "name": "sendMessage",
      "outputs": [],
      "stateMutability": "payable",
      "type": "function"
    },
    {
      "inputs": [
        {
          "internalType": "address",
          "name": "_receiver",
          "type": "address"
        },
        {
          "internalType": "address",
          "name": "_token",
          "type": "address"
        },
        {
          "internalType": "uint256",
          "name": "_amount",
          "type": "uint256"
        },
        {
          "internalType": "uint64",
          "name": "_dstChainId",
          "type": "uint64"
        },
        {
          "internalType": "uint32",
          "name": "_maxSlippage",
          "type": "uint32"
        },
        {
          "internalType": "bytes",
          "name": "_message",
          "type": "bytes"
        },
        {
          "internalType": "enum MsgDataTypes.BridgeSendType",
          "name": "_bridgeSendType",
          "type": "uint8"
        }
      ],
      "name": "sendMessageWithTransfer",
      "outputs": [],
      "stateMutability": "payable",
      "type": "function"
    },
    {
      "inputs": [
        {
          "internalType": "address",
          "name": "_messageBus",
          "type": "address"
        }
      ],
      "name": "setMessageBus",
      "outputs": [],
      "stateMutability": "nonpayable",
      "type": "function"
    },
    {
      "inputs": [
        {
          "internalType": "address",
          "name": "newOwner",
          "type": "address"
        }
      ],
      "name": "transferOwnership",
      "outputs": [],
      "stateMutability": "nonpayable",
      "type": "function"
    }
  ],
  "transactionHash": "0x2e2af711f73d25effa725df06c77111464a0d4149ff55d3c366448cf365f0197",
  "args": [
    "0xF25170F86E4291a99a9A560032Fe9948b8BcFBB2"
  ],
  "solcInputHash": "cb553968ef04c2e6128d7a7d2374b264",
  "bytecode": "0x60806040523480156200001157600080fd5b50604051620033d9380380620033d98339818101604052810190620000379190620001be565b62000048336200009060201b60201c565b80600160006101000a81548173ffffffffffffffffffffffffffffffffffffffff021916908373ffffffffffffffffffffffffffffffffffffffff16021790555050620001f0565b60008060009054906101000a900473ffffffffffffffffffffffffffffffffffffffff169050816000806101000a81548173ffffffffffffffffffffffffffffffffffffffff021916908373ffffffffffffffffffffffffffffffffffffffff1602179055508173ffffffffffffffffffffffffffffffffffffffff168173ffffffffffffffffffffffffffffffffffffffff167f8be0079c531659141344cd1fd0a4f28419497f9722a3daafe3b4186f6b6457e060405160405180910390a35050565b600080fd5b600073ffffffffffffffffffffffffffffffffffffffff82169050919050565b6000620001868262000159565b9050919050565b620001988162000179565b8114620001a457600080fd5b50565b600081519050620001b8816200018d565b92915050565b600060208284031215620001d757620001d662000154565b5b6000620001e784828501620001a7565b91505092915050565b6131d980620002006000396000f3fe6080604052600436106100a75760003560e01c80639c649fdf116100645780639c649fdf146101ac5780639d4323be146101dc578063a1a227fa14610205578063affed0e014610230578063c81739cd1461025b578063f2fde38b14610277576100a7565b80630bcb4982146100ac578063547cad12146100dc5780635ab7afc6146101055780637767b8d7146101355780637cd2bffc146101515780638da5cb5b14610181575b600080fd5b6100c660048036038101906100c19190611d5c565b6102a0565b6040516100d39190611e5b565b60405180910390f35b3480156100e857600080fd5b5061010360048036038101906100fe9190611e76565b61037e565b005b61011f600480360381019061011a9190611ee3565b610490565b60405161012c9190611e5b565b60405180910390f35b61014f600480360381019061014a9190611ff3565b61052d565b005b61016b600480360381019061016691906121f6565b610602565b6040516101789190611e5b565b60405180910390f35b34801561018d57600080fd5b506101966106e3565b6040516101a391906122ae565b60405180910390f35b6101c660048036038101906101c191906122c9565b61070c565b6040516101d39190611e5b565b60405180910390f35b3480156101e857600080fd5b5061020360048036038101906101fe9190612351565b6107ea565b005b34801561021157600080fd5b5061021a61088e565b60405161022791906122ae565b60405180910390f35b34801561023c57600080fd5b506102456108b4565b60405161025291906123a0565b60405180910390f35b610275600480360381019061027091906123bb565b6108ce565b005b34801561028357600080fd5b5061029e60048036038101906102999190611e76565b61096c565b005b6000600160009054906101000a900473ffffffffffffffffffffffffffffffffffffffff1673ffffffffffffffffffffffffffffffffffffffff163373ffffffffffffffffffffffffffffffffffffffff1614610332576040517f08c379a00000000000000000000000000000000000000000000000000000000081526004016103299061248c565b60405180910390fd5b7f9afeef02b2dc7c87e4d0fe67945dedf1c4ee5bcf5cdf26f94fb1837859816f3386868686866040516103699594939291906124f9565b60405180910390a16001905095945050505050565b3373ffffffffffffffffffffffffffffffffffffffff1661039d6106e3565b73ffffffffffffffffffffffffffffffffffffffff16146103f3576040517f08c379a00000000000000000000000000000000000000000000000000000000081526004016103ea90612593565b60405180910390fd5b80600160006101000a81548173ffffffffffffffffffffffffffffffffffffffff021916908373ffffffffffffffffffffffffffffffffffffffff1602179055507f3f8223bcd8b3b875473e9f9e14e1ad075451a2b5ffd31591655da9a01516bf5e600160009054906101000a900473ffffffffffffffffffffffffffffffffffffffff1660405161048591906122ae565b60405180910390a150565b6000600160009054906101000a900473ffffffffffffffffffffffffffffffffffffffff1673ffffffffffffffffffffffffffffffffffffffff163373ffffffffffffffffffffffffffffffffffffffff1614610522576040517f08c379a00000000000000000000000000000000000000000000000000000000081526004016105199061248c565b60405180910390fd5b979650505050505050565b61055a3330888a73ffffffffffffffffffffffffffffffffffffffff16610a5d909392919063ffffffff16565b6000338484604051602001610571939291906125b3565b60405160208183030381529060405290506105a989898989600160149054906101000a900467ffffffffffffffff168a878934610ae6565b506001601481819054906101000a900467ffffffffffffffff16809291906105d090612614565b91906101000a81548167ffffffffffffffff021916908367ffffffffffffffff16021790555050505050505050505050565b6000600160009054906101000a900473ffffffffffffffffffffffffffffffffffffffff1673ffffffffffffffffffffffffffffffffffffffff163373ffffffffffffffffffffffffffffffffffffffff1614610694576040517f08c379a000000000000000000000000000000000000000000000000000000000815260040161068b9061248c565b60405180910390fd5b7fa7dcc50f788db21d7b8b12825c0dff2107eea2711904867a3660f752d5bc8a458787878787876040516106cd969594939291906126bc565b60405180910390a1600190509695505050505050565b60008060009054906101000a900473ffffffffffffffffffffffffffffffffffffffff16905090565b6000600160009054906101000a900473ffffffffffffffffffffffffffffffffffffffff1673ffffffffffffffffffffffffffffffffffffffff163373ffffffffffffffffffffffffffffffffffffffff161461079e576040517f08c379a00000000000000000000000000000000000000000000000000000000081526004016107959061248c565b60405180910390fd5b7fc6b15dc748ae76c030485fa454af6e26ba43d301699a1c716e08e74e3c759e9f86868686866040516107d5959493929190612724565b60405180910390a16001905095945050505050565b3373ffffffffffffffffffffffffffffffffffffffff166108096106e3565b73ffffffffffffffffffffffffffffffffffffffff161461085f576040517f08c379a000000000000000000000000000000000000000000000000000000000815260040161085690612593565b60405180910390fd5b61088a33828473ffffffffffffffffffffffffffffffffffffffff16610b2b9092919063ffffffff16565b5050565b600160009054906101000a900473ffffffffffffffffffffffffffffffffffffffff1681565b600160149054906101000a900467ffffffffffffffff1681565b6000600160149054906101000a900467ffffffffffffffff1683836040516020016108fb93929190612772565b60405160208183030381529060405290506001601481819054906101000a900467ffffffffffffffff168092919061093290612614565b91906101000a81548167ffffffffffffffff021916908367ffffffffffffffff1602179055505061096585858334610bb1565b5050505050565b3373ffffffffffffffffffffffffffffffffffffffff1661098b6106e3565b73ffffffffffffffffffffffffffffffffffffffff16146109e1576040517f08c379a00000000000000000000000000000000000000000000000000000000081526004016109d890612593565b60405180910390fd5b600073ffffffffffffffffffffffffffffffffffffffff168173ffffffffffffffffffffffffffffffffffffffff161415610a51576040517f08c379a0000000000000000000000000000000000000000000000000000000008152600401610a4890612816565b60405180910390fd5b610a5a81610be6565b50565b610ae0846323b872dd60e01b858585604051602401610a7e93929190612836565b604051602081830303815290604052907bffffffffffffffffffffffffffffffffffffffffffffffffffffffff19166020820180517bffffffffffffffffffffffffffffffffffffffffffffffffffffffff8381831617835250505050610caa565b50505050565b6000610b1c8a8a8a8a8a8a8a8a600160009054906101000a900473ffffffffffffffffffffffffffffffffffffffff168b610d71565b90509998505050505050505050565b610bac8363a9059cbb60e01b8484604051602401610b4a92919061286d565b604051602081830303815290604052907bffffffffffffffffffffffffffffffffffffffffffffffffffffffff19166020820180517bffffffffffffffffffffffffffffffffffffffffffffffffffffffff8381831617835250505050610caa565b505050565b610be0848484600160009054906101000a900473ffffffffffffffffffffffffffffffffffffffff1685610ee9565b50505050565b60008060009054906101000a900473ffffffffffffffffffffffffffffffffffffffff169050816000806101000a81548173ffffffffffffffffffffffffffffffffffffffff021916908373ffffffffffffffffffffffffffffffffffffffff1602179055508173ffffffffffffffffffffffffffffffffffffffff168173ffffffffffffffffffffffffffffffffffffffff167f8be0079c531659141344cd1fd0a4f28419497f9722a3daafe3b4186f6b6457e060405160405180910390a35050565b6000610d0c826040518060400160405280602081526020017f5361666545524332303a206c6f772d6c6576656c2063616c6c206661696c65648152508573ffffffffffffffffffffffffffffffffffffffff16610f609092919063ffffffff16565b9050600081511115610d6c5780806020019051810190610d2c91906128ce565b610d6b576040517f08c379a0000000000000000000000000000000000000000000000000000000008152600401610d629061296d565b60405180910390fd5b5b505050565b600060016006811115610d8757610d86611de4565b5b846006811115610d9a57610d99611de4565b5b1415610db857610db18b8b8b8b8b8b8b8a8a610f78565b9050610edb565b60026006811115610dcc57610dcb611de4565b5b846006811115610ddf57610dde611de4565b5b1480610e0f575060046006811115610dfa57610df9611de4565b5b846006811115610e0d57610e0c611de4565b5b145b15610e2c57610e25848c8c8c8c8c8b8a8a611158565b9050610edb565b60036006811115610e4057610e3f611de4565b5b846006811115610e5357610e52611de4565b5b1480610e83575060056006811115610e6e57610e6d611de4565b5b846006811115610e8157610e80611de4565b5b145b15610ea057610e99848c8c8c8c8c8b8a8a6114b1565b9050610edb565b6040517f08c379a0000000000000000000000000000000000000000000000000000000008152600401610ed2906129d9565b60405180910390fd5b9a9950505050505050505050565b8173ffffffffffffffffffffffffffffffffffffffff16639f3ce55a828787876040518563ffffffff1660e01b8152600401610f2793929190612a34565b6000604051808303818588803b158015610f4057600080fd5b505af1158015610f54573d6000803e3d6000fd5b50505050505050505050565b6060610f6f8484600085611832565b90509392505050565b6000808373ffffffffffffffffffffffffffffffffffffffff166382980dc46040518163ffffffff1660e01b815260040160206040518083038186803b158015610fc157600080fd5b505afa158015610fd5573d6000803e3d6000fd5b505050506040513d601f19601f82011682018060405250810190610ff99190612a87565b9050611026818a8c73ffffffffffffffffffffffffffffffffffffffff166119469092919063ffffffff16565b8073ffffffffffffffffffffffffffffffffffffffff1663a5977fbb8c8c8c8c8c8c6040518763ffffffff1660e01b815260040161106996959493929190612ac3565b600060405180830381600087803b15801561108357600080fd5b505af1158015611097573d6000803e3d6000fd5b505050506000308c8c8c8c8c466040516020016110ba9796959493929190612bc3565b6040516020818303038152906040528051906020012090508473ffffffffffffffffffffffffffffffffffffffff16634289fbb3858e8c86868c6040518763ffffffff1660e01b8152600401611114959493929190612c5d565b6000604051808303818588803b15801561112d57600080fd5b505af1158015611141573d6000803e3d6000fd5b505050505080925050509998505050505050505050565b6000806002600681111561116f5761116e611de4565b5b8b600681111561118257611181611de4565b5b141561120d578373ffffffffffffffffffffffffffffffffffffffff1663d8257d176040518163ffffffff1660e01b815260040160206040518083038186803b1580156111ce57600080fd5b505afa1580156111e2573d6000803e3d6000fd5b505050506040513d601f19601f820116820180604052508101906112069190612a87565b905061128e565b8373ffffffffffffffffffffffffffffffffffffffff1663c66a9c5a6040518163ffffffff1660e01b815260040160206040518083038186803b15801561125357600080fd5b505afa158015611267573d6000803e3d6000fd5b505050506040513d601f19601f8201168201806040525081019061128b9190612a87565b90505b6112b981898b73ffffffffffffffffffffffffffffffffffffffff166119469092919063ffffffff16565b6000600260068111156112cf576112ce611de4565b5b8c60068111156112e2576112e1611de4565b5b1415611395578173ffffffffffffffffffffffffffffffffffffffff1663234636248b8b8b8f8c6040518663ffffffff1660e01b8152600401611329959493929190612cb7565b600060405180830381600087803b15801561134357600080fd5b505af1158015611357573d6000803e3d6000fd5b50505050308a8a8a8e8b466040516020016113789796959493929190612d0a565b60405160208183030381529060405280519060200120905061142b565b8173ffffffffffffffffffffffffffffffffffffffff1663234636248b8b8b8f8c6040518663ffffffff1660e01b81526004016113d6959493929190612cb7565b602060405180830381600087803b1580156113f057600080fd5b505af1158015611404573d6000803e3d6000fd5b505050506040513d601f19601f820116820180604052508101906114289190612db7565b90505b8473ffffffffffffffffffffffffffffffffffffffff16634289fbb3858d8b86868c6040518763ffffffff1660e01b815260040161146d959493929190612c5d565b6000604051808303818588803b15801561148657600080fd5b505af115801561149a573d6000803e3d6000fd5b505050505080925050509998505050505050505050565b600080600360068111156114c8576114c7611de4565b5b8b60068111156114db576114da611de4565b5b1415611566578373ffffffffffffffffffffffffffffffffffffffff1663dfa2dbaf6040518163ffffffff1660e01b815260040160206040518083038186803b15801561152757600080fd5b505afa15801561153b573d6000803e3d6000fd5b505050506040513d601f19601f8201168201806040525081019061155f9190612a87565b90506115e7565b8373ffffffffffffffffffffffffffffffffffffffff166395b12c276040518163ffffffff1660e01b815260040160206040518083038186803b1580156115ac57600080fd5b505afa1580156115c0573d6000803e3d6000fd5b505050506040513d601f19601f820116820180604052508101906115e49190612a87565b90505b61161281898b73ffffffffffffffffffffffffffffffffffffffff166119469092919063ffffffff16565b60006003600681111561162857611627611de4565b5b8c600681111561163b5761163a611de4565b5b14156116ea578173ffffffffffffffffffffffffffffffffffffffff1663de790c7e8b8b8e8b6040518563ffffffff1660e01b81526004016116809493929190612de4565b600060405180830381600087803b15801561169a57600080fd5b505af11580156116ae573d6000803e3d6000fd5b50505050308a8a8d8a466040516020016116cd96959493929190612e29565b604051602081830303815290604052805190602001209050611780565b8173ffffffffffffffffffffffffffffffffffffffff1663a00293018b8b8b8f8c6040518663ffffffff1660e01b815260040161172b959493929190612cb7565b602060405180830381600087803b15801561174557600080fd5b505af1158015611759573d6000803e3d6000fd5b505050506040513d601f19601f8201168201806040525081019061177d9190612db7565b90505b6117ac8260008c73ffffffffffffffffffffffffffffffffffffffff16611a679092919063ffffffff16565b8473ffffffffffffffffffffffffffffffffffffffff16634289fbb3858d8b86868c6040518763ffffffff1660e01b81526004016117ee959493929190612c5d565b6000604051808303818588803b15801561180757600080fd5b505af115801561181b573d6000803e3d6000fd5b505050505080925050509998505050505050505050565b606082471015611877576040517f08c379a000000000000000000000000000000000000000000000000000000000815260040161186e90612f0b565b60405180910390fd5b61188085611bc5565b6118bf576040517f08c379a00000000000000000000000000000000000000000000000000000000081526004016118b690612f77565b60405180910390fd5b6000808673ffffffffffffffffffffffffffffffffffffffff1685876040516118e89190612fd3565b60006040518083038185875af1925050503d8060008114611925576040519150601f19603f3d011682016040523d82523d6000602084013e61192a565b606091505b509150915061193a828286611be8565b92505050949350505050565b6000818473ffffffffffffffffffffffffffffffffffffffff1663dd62ed3e30866040518363ffffffff1660e01b8152600401611984929190612fea565b60206040518083038186803b15801561199c57600080fd5b505afa1580156119b0573d6000803e3d6000fd5b505050506040513d601f19601f820116820180604052508101906119d49190613028565b6119de9190613055565b9050611a618463095ea7b360e01b85846040516024016119ff92919061286d565b604051602081830303815290604052907bffffffffffffffffffffffffffffffffffffffffffffffffffffffff19166020820180517bffffffffffffffffffffffffffffffffffffffffffffffffffffffff8381831617835250505050610caa565b50505050565b6000811480611b00575060008373ffffffffffffffffffffffffffffffffffffffff1663dd62ed3e30856040518363ffffffff1660e01b8152600401611aae929190612fea565b60206040518083038186803b158015611ac657600080fd5b505afa158015611ada573d6000803e3d6000fd5b505050506040513d601f19601f82011682018060405250810190611afe9190613028565b145b611b3f576040517f08c379a0000000000000000000000000000000000000000000000000000000008152600401611b369061311d565b60405180910390fd5b611bc08363095ea7b360e01b8484604051602401611b5e92919061286d565b604051602081830303815290604052907bffffffffffffffffffffffffffffffffffffffffffffffffffffffff19166020820180517bffffffffffffffffffffffffffffffffffffffffffffffffffffffff8381831617835250505050610caa565b505050565b6000808273ffffffffffffffffffffffffffffffffffffffff163b119050919050565b60608315611bf857829050611c48565b600083511115611c0b5782518084602001fd5b816040517f08c379a0000000000000000000000000000000000000000000000000000000008152600401611c3f9190613181565b60405180910390fd5b9392505050565b6000604051905090565b600080fd5b600080fd5b600073ffffffffffffffffffffffffffffffffffffffff82169050919050565b6000611c8e82611c63565b9050919050565b611c9e81611c83565b8114611ca957600080fd5b50565b600081359050611cbb81611c95565b92915050565b6000819050919050565b611cd481611cc1565b8114611cdf57600080fd5b50565b600081359050611cf181611ccb565b92915050565b600080fd5b600080fd5b600080fd5b60008083601f840112611d1c57611d1b611cf7565b5b8235905067ffffffffffffffff811115611d3957611d38611cfc565b5b602083019150836001820283011115611d5557611d54611d01565b5b9250929050565b600080600080600060808688031215611d7857611d77611c59565b5b6000611d8688828901611cac565b9550506020611d9788828901611ce2565b945050604086013567ffffffffffffffff811115611db857611db7611c5e565b5b611dc488828901611d06565b93509350506060611dd788828901611cac565b9150509295509295909350565b7f4e487b7100000000000000000000000000000000000000000000000000000000600052602160045260246000fd5b60038110611e2457611e23611de4565b5b50565b6000819050611e3582611e13565b919050565b6000611e4582611e27565b9050919050565b611e5581611e3a565b82525050565b6000602082019050611e706000830184611e4c565b92915050565b600060208284031215611e8c57611e8b611c59565b5b6000611e9a84828501611cac565b91505092915050565b600067ffffffffffffffff82169050919050565b611ec081611ea3565b8114611ecb57600080fd5b50565b600081359050611edd81611eb7565b92915050565b600080600080600080600060c0888a031215611f0257611f01611c59565b5b6000611f108a828b01611cac565b9750506020611f218a828b01611cac565b9650506040611f328a828b01611ce2565b9550506060611f438a828b01611ece565b945050608088013567ffffffffffffffff811115611f6457611f63611c5e565b5b611f708a828b01611d06565b935093505060a0611f838a828b01611cac565b91505092959891949750929550565b600063ffffffff82169050919050565b611fab81611f92565b8114611fb657600080fd5b50565b600081359050611fc881611fa2565b92915050565b60078110611fdb57600080fd5b50565b600081359050611fed81611fce565b92915050565b60008060008060008060008060e0898b03121561201357612012611c59565b5b60006120218b828c01611cac565b98505060206120328b828c01611cac565b97505060406120438b828c01611ce2565b96505060606120548b828c01611ece565b95505060806120658b828c01611fb9565b94505060a089013567ffffffffffffffff81111561208657612085611c5e565b5b6120928b828c01611d06565b935093505060c06120a58b828c01611fde565b9150509295985092959890939650565b600080fd5b6000601f19601f8301169050919050565b7f4e487b7100000000000000000000000000000000000000000000000000000000600052604160045260246000fd5b612103826120ba565b810181811067ffffffffffffffff82111715612122576121216120cb565b5b80604052505050565b6000612135611c4f565b905061214182826120fa565b919050565b600067ffffffffffffffff821115612161576121606120cb565b5b61216a826120ba565b9050602081019050919050565b82818337600083830152505050565b600061219961219484612146565b61212b565b9050828152602081018484840111156121b5576121b46120b5565b5b6121c0848285612177565b509392505050565b600082601f8301126121dd576121dc611cf7565b5b81356121ed848260208601612186565b91505092915050565b60008060008060008060c0878903121561221357612212611c59565b5b600061222189828a01611cac565b965050602061223289828a01611cac565b955050604061224389828a01611ce2565b945050606061225489828a01611ece565b935050608087013567ffffffffffffffff81111561227557612274611c5e565b5b61228189828a016121c8565b92505060a061229289828a01611cac565b9150509295509295509295565b6122a881611c83565b82525050565b60006020820190506122c3600083018461229f565b92915050565b6000806000806000608086880312156122e5576122e4611c59565b5b60006122f388828901611cac565b955050602061230488828901611ece565b945050604086013567ffffffffffffffff81111561232557612324611c5e565b5b61233188828901611d06565b9350935050606061234488828901611cac565b9150509295509295909350565b6000806040838503121561236857612367611c59565b5b600061237685828601611cac565b925050602061238785828601611ce2565b9150509250929050565b61239a81611ea3565b82525050565b60006020820190506123b56000830184612391565b92915050565b600080600080606085870312156123d5576123d4611c59565b5b60006123e387828801611cac565b94505060206123f487828801611ece565b935050604085013567ffffffffffffffff81111561241557612414611c5e565b5b61242187828801611d06565b925092505092959194509250565b600082825260208201905092915050565b7f63616c6c6572206973206e6f74206d6573736167652062757300000000000000600082015250565b600061247660198361242f565b915061248182612440565b602082019050919050565b600060208201905081810360008301526124a581612469565b9050919050565b6124b581611cc1565b82525050565b600082825260208201905092915050565b60006124d883856124bb565b93506124e5838584612177565b6124ee836120ba565b840190509392505050565b600060808201905061250e600083018861229f565b61251b60208301876124ac565b818103604083015261252e8185876124cc565b905061253d606083018461229f565b9695505050505050565b7f4f776e61626c653a2063616c6c6572206973206e6f7420746865206f776e6572600082015250565b600061257d60208361242f565b915061258882612547565b602082019050919050565b600060208201905081810360008301526125ac81612570565b9050919050565b60006040820190506125c8600083018661229f565b81810360208301526125db8184866124cc565b9050949350505050565b7f4e487b7100000000000000000000000000000000000000000000000000000000600052601160045260246000fd5b600061261f82611ea3565b915067ffffffffffffffff82141561263a576126396125e5565b5b600182019050919050565b600081519050919050565b60005b8381101561266e578082015181840152602081019050612653565b8381111561267d576000848401525b50505050565b600061268e82612645565b61269881856124bb565b93506126a8818560208601612650565b6126b1816120ba565b840191505092915050565b600060c0820190506126d1600083018961229f565b6126de602083018861229f565b6126eb60408301876124ac565b6126f86060830186612391565b818103608083015261270a8185612683565b905061271960a083018461229f565b979650505050505050565b6000608082019050612739600083018861229f565b6127466020830187612391565b81810360408301526127598185876124cc565b9050612768606083018461229f565b9695505050505050565b60006040820190506127876000830186612391565b818103602083015261279a8184866124cc565b9050949350505050565b7f4f776e61626c653a206e6577206f776e657220697320746865207a65726f206160008201527f6464726573730000000000000000000000000000000000000000000000000000602082015250565b600061280060268361242f565b915061280b826127a4565b604082019050919050565b6000602082019050818103600083015261282f816127f3565b9050919050565b600060608201905061284b600083018661229f565b612858602083018561229f565b61286560408301846124ac565b949350505050565b6000604082019050612882600083018561229f565b61288f60208301846124ac565b9392505050565b60008115159050919050565b6128ab81612896565b81146128b657600080fd5b50565b6000815190506128c8816128a2565b92915050565b6000602082840312156128e4576128e3611c59565b5b60006128f2848285016128b9565b91505092915050565b7f5361666545524332303a204552433230206f7065726174696f6e20646964206e60008201527f6f74207375636365656400000000000000000000000000000000000000000000602082015250565b6000612957602a8361242f565b9150612962826128fb565b604082019050919050565b600060208201905081810360008301526129868161294a565b9050919050565b7f6272696467652074797065206e6f7420737570706f7274656400000000000000600082015250565b60006129c360198361242f565b91506129ce8261298d565b602082019050919050565b600060208201905081810360008301526129f2816129b6565b9050919050565b6000819050919050565b6000612a1e612a19612a1484611ea3565b6129f9565b611cc1565b9050919050565b612a2e81612a03565b82525050565b6000606082019050612a49600083018661229f565b612a566020830185612a25565b8181036040830152612a688184612683565b9050949350505050565b600081519050612a8181611c95565b92915050565b600060208284031215612a9d57612a9c611c59565b5b6000612aab84828501612a72565b91505092915050565b612abd81611f92565b82525050565b600060c082019050612ad8600083018961229f565b612ae5602083018861229f565b612af260408301876124ac565b612aff6060830186612391565b612b0c6080830185612391565b612b1960a0830184612ab4565b979650505050505050565b60008160601b9050919050565b6000612b3c82612b24565b9050919050565b6000612b4e82612b31565b9050919050565b612b66612b6182611c83565b612b43565b82525050565b6000819050919050565b612b87612b8282611cc1565b612b6c565b82525050565b60008160c01b9050919050565b6000612ba582612b8d565b9050919050565b612bbd612bb882611ea3565b612b9a565b82525050565b6000612bcf828a612b55565b601482019150612bdf8289612b55565b601482019150612bef8288612b55565b601482019150612bff8287612b76565b602082019150612c0f8286612bac565b600882019150612c1f8285612bac565b600882019150612c2f8284612bac565b60088201915081905098975050505050505050565b6000819050919050565b612c5781612c44565b82525050565b600060a082019050612c72600083018861229f565b612c7f6020830187612a25565b612c8c604083018661229f565b612c996060830185612c4e565b8181036080830152612cab8184612683565b90509695505050505050565b600060a082019050612ccc600083018861229f565b612cd960208301876124ac565b612ce66040830186612391565b612cf3606083018561229f565b612d006080830184612391565b9695505050505050565b6000612d16828a612b55565b601482019150612d268289612b55565b601482019150612d368288612b76565b602082019150612d468287612bac565b600882019150612d568286612b55565b601482019150612d668285612bac565b600882019150612d768284612bac565b60088201915081905098975050505050505050565b612d9481612c44565b8114612d9f57600080fd5b50565b600081519050612db181612d8b565b92915050565b600060208284031215612dcd57612dcc611c59565b5b6000612ddb84828501612da2565b91505092915050565b6000608082019050612df9600083018761229f565b612e0660208301866124ac565b612e13604083018561229f565b612e206060830184612391565b95945050505050565b6000612e358289612b55565b601482019150612e458288612b55565b601482019150612e558287612b76565b602082019150612e658286612b55565b601482019150612e758285612bac565b600882019150612e858284612bac565b600882019150819050979650505050505050565b7f416464726573733a20696e73756666696369656e742062616c616e636520666f60008201527f722063616c6c0000000000000000000000000000000000000000000000000000602082015250565b6000612ef560268361242f565b9150612f0082612e99565b604082019050919050565b60006020820190508181036000830152612f2481612ee8565b9050919050565b7f416464726573733a2063616c6c20746f206e6f6e2d636f6e7472616374000000600082015250565b6000612f61601d8361242f565b9150612f6c82612f2b565b602082019050919050565b60006020820190508181036000830152612f9081612f54565b9050919050565b600081905092915050565b6000612fad82612645565b612fb78185612f97565b9350612fc7818560208601612650565b80840191505092915050565b6000612fdf8284612fa2565b915081905092915050565b6000604082019050612fff600083018561229f565b61300c602083018461229f565b9392505050565b60008151905061302281611ccb565b92915050565b60006020828403121561303e5761303d611c59565b5b600061304c84828501613013565b91505092915050565b600061306082611cc1565b915061306b83611cc1565b9250827fffffffffffffffffffffffffffffffffffffffffffffffffffffffffffffffff038211156130a05761309f6125e5565b5b828201905092915050565b7f5361666545524332303a20617070726f76652066726f6d206e6f6e2d7a65726f60008201527f20746f206e6f6e2d7a65726f20616c6c6f77616e636500000000000000000000602082015250565b600061310760368361242f565b9150613112826130ab565b604082019050919050565b60006020820190508181036000830152613136816130fa565b9050919050565b600081519050919050565b60006131538261313d565b61315d818561242f565b935061316d818560208601612650565b613176816120ba565b840191505092915050565b6000602082019050818103600083015261319b8184613148565b90509291505056fea264697066735822122078fa47ce21dbed70567c35f95d9db8a00a9cdf740d973d5ffa30b865c62eb73264736f6c63430008090033",
  "devdoc": {
    "kind": "dev",
    "methods": {
      "executeMessageWithTransferFallback(address,address,uint256,uint64,bytes,address)": {
        "params": {
          "_amount": "The amount of tokens received at this contract through the cross-chain bridge.        the contract that implements this contract can safely assume that the tokens will arrive before this        function is called.",
          "_executor": "Address who called the MessageBus execution function",
          "_message": "Arbitrary message bytes originated from and encoded by the source app contract",
          "_sender": "The address of the source app contract",
          "_srcChainId": "The source chain ID where the transfer is originated from",
          "_token": "The address of the token that comes out of the bridge"
        }
      },
      "owner()": {
        "details": "Returns the address of the current owner."
      },
      "transferOwnership(address)": {
        "details": "Transfers ownership of the contract to a new account (`newOwner`). Can only be called by the current owner."
      }
    },
    "title": "Application to test message with transfer refund flow ",
    "version": 1
  },
  "userdoc": {
    "kind": "user",
    "methods": {
      "executeMessageWithTransferFallback(address,address,uint256,uint64,bytes,address)": {
        "notice": "Only called by MessageBus (MessageBusReceiver) if         1. executeMessageWithTransfer reverts, or         2. executeMessageWithTransfer returns ExecutionStatus.Fail"
      }
    },
    "version": 1
  },
  "storageLayout": {
    "storage": [
      {
        "astId": 4448,
        "contract": "contracts/messages/MsgTest.sol:MsgTest",
        "label": "_owner",
        "offset": 0,
        "slot": "0",
        "type": "t_address"
      },
      {
        "astId": 1134,
        "contract": "contracts/messages/MsgTest.sol:MsgTest",
        "label": "messageBus",
        "offset": 0,
        "slot": "1",
        "type": "t_address"
      },
      {
        "astId": 613,
        "contract": "contracts/messages/MsgTest.sol:MsgTest",
        "label": "nonce",
        "offset": 20,
        "slot": "1",
        "type": "t_uint64"
      }
    ],
    "types": {
      "t_address": {
        "encoding": "inplace",
        "label": "address",
        "numberOfBytes": "20"
      },
      "t_uint64": {
        "encoding": "inplace",
        "label": "uint64",
        "numberOfBytes": "8"
      }
    }
  }
}