{
  "address": "0x8E0CC53D6a1A558E5d5501e72b56c671f09f21d5",
  "abi": [
    {
      "anonymous": false,
      "inputs": [
        {
          "indexed": false,
          "internalType": "contract IERC20Upgradeable",
          "name": "token",
          "type": "address"
        }
      ],
      "name": "AddToken",
      "type": "event"
    },
    {
      "anonymous": false,
      "inputs": [
        {
          "indexed": false,
          "internalType": "contract IMessageSender",
          "name": "messageSender",
          "type": "address"
        }
      ],
      "name": "MessageSenderUpdated",
      "type": "event"
    },
    {
      "anonymous": false,
      "inputs": [
        {
          "indexed": false,
          "internalType": "address",
          "name": "to",
          "type": "address"
        },
        {
          "indexed": false,
          "internalType": "uint256",
          "name": "value",
          "type": "uint256"
        }
      ],
      "name": "NativeWithdrawal",
      "type": "event"
    },
    {
      "anonymous": false,
      "inputs": [
        {
          "indexed": true,
          "internalType": "address",
          "name": "previousOwner",
          "type": "address"
        },
        {
          "indexed": true,
          "internalType": "address",
          "name": "newOwner",
          "type": "address"
        }
      ],
      "name": "OwnershipTransferred",
      "type": "event"
    },
    {
      "anonymous": false,
      "inputs": [
        {
          "indexed": false,
          "internalType": "address",
          "name": "account",
          "type": "address"
        }
      ],
      "name": "Paused",
      "type": "event"
    },
    {
      "anonymous": false,
      "inputs": [
        {
          "indexed": false,
          "internalType": "address",
          "name": "account",
          "type": "address"
        }
      ],
      "name": "PauserAdded",
      "type": "event"
    },
    {
      "anonymous": false,
      "inputs": [
        {
          "indexed": false,
          "internalType": "address",
          "name": "account",
          "type": "address"
        }
      ],
      "name": "PauserRemoved",
      "type": "event"
    },
    {
      "anonymous": false,
      "inputs": [
        {
          "indexed": false,
          "internalType": "contract IERC20Upgradeable",
          "name": "token",
          "type": "address"
        }
      ],
      "name": "RemoveToken",
      "type": "event"
    },
    {
      "anonymous": false,
      "inputs": [
        {
          "indexed": false,
          "internalType": "address",
          "name": "account",
          "type": "address"
        }
      ],
      "name": "Unpaused",
      "type": "event"
    },
    {
      "anonymous": false,
      "inputs": [
        {
          "indexed": false,
          "internalType": "contract IERC20Upgradeable",
          "name": "token",
          "type": "address"
        },
        {
          "indexed": false,
          "internalType": "address",
          "name": "to",
          "type": "address"
        },
        {
          "indexed": false,
          "internalType": "uint256",
          "name": "value",
          "type": "uint256"
        }
      ],
      "name": "Withdrawal",
      "type": "event"
    },
    {
      "inputs": [
        {
          "internalType": "address",
          "name": "account",
          "type": "address"
        }
      ],
      "name": "addPauser",
      "outputs": [],
      "stateMutability": "nonpayable",
      "type": "function"
    },
    {
      "inputs": [
        {
          "internalType": "contract IERC20Upgradeable",
          "name": "token",
          "type": "address"
        }
      ],
      "name": "addToken",
      "outputs": [],
      "stateMutability": "nonpayable",
      "type": "function"
    },
    {
      "inputs": [
        {
          "internalType": "bytes",
          "name": "message",
          "type": "bytes"
        }
      ],
      "name": "decodeMessage",
      "outputs": [
        {
          "internalType": "address",
          "name": "destination",
          "type": "address"
        },
        {
          "internalType": "bytes32",
          "name": "account",
          "type": "bytes32"
        },
        {
          "components": [
            {
              "internalType": "enum ResourceData.MessageType",
              "name": "messageType",
              "type": "uint8"
            },
            {
              "internalType": "enum ResourceData.ResourceType",
              "name": "resourceType",
              "type": "uint8"
            },
            {
              "internalType": "uint256",
              "name": "value",
              "type": "uint256"
            }
          ],
          "internalType": "struct ResourceData.Payload[]",
          "name": "payloads",
          "type": "tuple[]"
        }
      ],
      "stateMutability": "view",
      "type": "function"
    },
    {
      "inputs": [],
      "name": "destination",
      "outputs": [
        {
          "internalType": "address",
          "name": "",
          "type": "address"
        }
      ],
      "stateMutability": "view",
      "type": "function"
    },
    {
      "inputs": [
        {
          "internalType": "bytes32",
          "name": "account",
          "type": "bytes32"
        },
        {
          "components": [
            {
              "internalType": "enum ResourceData.MessageType",
              "name": "messageType",
              "type": "uint8"
            },
            {
              "internalType": "enum ResourceData.ResourceType",
              "name": "resourceType",
              "type": "uint8"
            },
            {
              "internalType": "uint256",
              "name": "value",
              "type": "uint256"
            }
          ],
          "internalType": "struct ResourceData.Payload[]",
          "name": "payloads",
          "type": "tuple[]"
        }
      ],
      "name": "encodeMessage",
      "outputs": [
        {
          "internalType": "bytes",
          "name": "",
          "type": "bytes"
        }
      ],
      "stateMutability": "view",
      "type": "function"
    },
    {
      "inputs": [
        {
          "components": [
            {
              "internalType": "enum ResourceData.MessageType",
              "name": "messageType",
              "type": "uint8"
            },
            {
              "internalType": "enum ResourceData.ResourceType",
              "name": "resourceType",
              "type": "uint8"
            },
            {
              "internalType": "uint256",
              "name": "value",
              "type": "uint256"
            }
          ],
          "internalType": "struct ResourceData.Payload[]",
          "name": "payloads",
          "type": "tuple[]"
        }
      ],
      "name": "getValueOf",
      "outputs": [
        {
          "internalType": "uint256",
          "name": "value",
          "type": "uint256"
        }
      ],
      "stateMutability": "view",
      "type": "function"
    },
    {
      "inputs": [
        {
          "internalType": "address",
          "name": "account",
          "type": "address"
        }
      ],
      "name": "isPauser",
      "outputs": [
        {
          "internalType": "bool",
          "name": "",
          "type": "bool"
        }
      ],
      "stateMutability": "view",
      "type": "function"
    },
    {
      "inputs": [],
      "name": "messageSender",
      "outputs": [
        {
          "internalType": "contract IMessageSender",
          "name": "",
          "type": "address"
        }
      ],
      "stateMutability": "view",
      "type": "function"
    },
    {
      "inputs": [],
      "name": "owner",
      "outputs": [
        {
          "internalType": "address",
          "name": "",
          "type": "address"
        }
      ],
      "stateMutability": "view",
      "type": "function"
    },
    {
      "inputs": [],
      "name": "pause",
      "outputs": [],
      "stateMutability": "nonpayable",
      "type": "function"
    },
    {
      "inputs": [],
      "name": "paused",
      "outputs": [
        {
          "internalType": "bool",
          "name": "",
          "type": "bool"
        }
      ],
      "stateMutability": "view",
      "type": "function"
    },
    {
      "inputs": [
        {
          "internalType": "address",
          "name": "",
          "type": "address"
        }
      ],
      "name": "pausers",
      "outputs": [
        {
          "internalType": "bool",
          "name": "",
          "type": "bool"
        }
      ],
      "stateMutability": "view",
      "type": "function"
    },
    {
      "inputs": [
        {
          "internalType": "bytes32",
          "name": "account",
          "type": "bytes32"
        },
        {
          "internalType": "contract IERC20Upgradeable",
          "name": "token",
          "type": "address"
        },
        {
          "internalType": "uint64",
          "name": "nonce",
          "type": "uint64"
        },
        {
          "internalType": "uint32",
          "name": "maxSlippage",
          "type": "uint32"
        },
        {
          "components": [
            {
              "internalType": "enum ResourceData.MessageType",
              "name": "messageType",
              "type": "uint8"
            },
            {
              "internalType": "enum ResourceData.ResourceType",
              "name": "resourceType",
              "type": "uint8"
            },
            {
              "internalType": "uint256",
              "name": "value",
              "type": "uint256"
            }
          ],
          "internalType": "struct ResourceData.Payload[]",
          "name": "payloads",
          "type": "tuple[]"
        }
      ],
      "name": "pay",
      "outputs": [
        {
          "internalType": "bytes32",
          "name": "transferId",
          "type": "bytes32"
        }
      ],
      "stateMutability": "payable",
      "type": "function"
    },
    {
      "inputs": [
        {
          "internalType": "address",
          "name": "account",
          "type": "address"
        }
      ],
      "name": "removePauser",
      "outputs": [],
      "stateMutability": "nonpayable",
      "type": "function"
    },
    {
      "inputs": [
        {
          "internalType": "contract IERC20Upgradeable",
          "name": "token",
          "type": "address"
        }
      ],
      "name": "removeToken",
      "outputs": [],
      "stateMutability": "nonpayable",
      "type": "function"
    },
    {
      "inputs": [],
      "name": "renounceOwnership",
      "outputs": [],
      "stateMutability": "nonpayable",
      "type": "function"
    },
    {
      "inputs": [],
      "name": "renouncePauser",
      "outputs": [],
      "stateMutability": "nonpayable",
      "type": "function"
    },
    {
      "inputs": [
        {
          "internalType": "address",
          "name": "_destination",
          "type": "address"
        }
      ],
      "name": "setDestination",
      "outputs": [],
      "stateMutability": "nonpayable",
      "type": "function"
    },
    {
      "inputs": [
        {
          "internalType": "contract IMessageSender",
          "name": "_messageSender",
          "type": "address"
        }
      ],
      "name": "setMessageSender",
      "outputs": [],
      "stateMutability": "nonpayable",
      "type": "function"
    },
    {
      "inputs": [
        {
          "internalType": "contract IERC20Upgradeable",
          "name": "token",
          "type": "address"
        }
      ],
      "name": "tokenExists",
      "outputs": [
        {
          "internalType": "bool",
          "name": "",
          "type": "bool"
        }
      ],
      "stateMutability": "view",
      "type": "function"
    },
    {
      "inputs": [
        {
          "internalType": "address",
          "name": "newOwner",
          "type": "address"
        }
      ],
      "name": "transferOwnership",
      "outputs": [],
      "stateMutability": "nonpayable",
      "type": "function"
    },
    {
      "inputs": [],
      "name": "unpause",
      "outputs": [],
      "stateMutability": "nonpayable",
      "type": "function"
    },
    {
      "inputs": [
        {
          "internalType": "contract IERC20Upgradeable",
          "name": "token",
          "type": "address"
        },
        {
          "internalType": "address",
          "name": "to",
          "type": "address"
        },
        {
          "internalType": "uint256",
          "name": "value",
          "type": "uint256"
        }
      ],
      "name": "withdraw",
      "outputs": [],
      "stateMutability": "nonpayable",
      "type": "function"
    },
    {
      "inputs": [
        {
          "internalType": "address payable",
          "name": "to",
          "type": "address"
        },
        {
          "internalType": "uint256",
          "name": "value",
          "type": "uint256"
        }
      ],
      "name": "withdrawNative",
      "outputs": [],
      "stateMutability": "nonpayable",
      "type": "function"
    }
  ],
  "transactionHash": "0x7b860fdd776b166e983d9eed8241976f8ecdc637cea5a049782d74ff4c8a1b26",
  "args": [],
  "bytecode": "0x608060405234801561001057600080fd5b50611c63806100206000396000f3fe60806040526004361061014b5760003560e01c806374480b45116100b6578063b33f78ca1161006f578063b33f78ca146103b2578063bc67f832146103eb578063d48bfca71461040b578063d67bdd251461042b578063d9caed121461044b578063f2fde38b1461046b57600080fd5b806374480b45146102ce57806380f51c12146102fb57806382dc1ec41461032b5780638456cb591461034b5780638da5cb5b14610360578063b269681d1461039257600080fd5b80635c975abb116101085780635c975abb1461021d5780635fa7b58414610235578063634d45b2146102555780636b2c0f55146102845780636ef8d66d146102a4578063715018a6146102b957600080fd5b806307b18bde146101505780630a0a05e614610172578063118a083a14610192578063338d75a2146101c55780633f4ba83a146101d857806346fbf68e146101ed575b600080fd5b34801561015c57600080fd5b5061017061016b36600461155e565b61048b565b005b34801561017e57600080fd5b5061017061018d36600461158a565b61058a565b34801561019e57600080fd5b506101b26101ad3660046116f3565b6105d6565b6040519081526020015b60405180910390f35b6101b26101d3366004611728565b61062d565b3480156101e457600080fd5b50610170610838565b3480156101f957600080fd5b5061020d61020836600461158a565b610897565b60405190151581526020016101bc565b34801561022957600080fd5b5060655460ff1661020d565b34801561024157600080fd5b5061017061025036600461158a565b6108b5565b34801561026157600080fd5b506102756102703660046117bb565b6108eb565b6040516101bc93929190611876565b34801561029057600080fd5b5061017061029f36600461158a565b610911565b3480156102b057600080fd5b50610170610944565b3480156102c557600080fd5b5061017061094d565b3480156102da57600080fd5b506102ee6102e93660046118fb565b610981565b6040516101bc919061199a565b34801561030757600080fd5b5061020d61031636600461158a565b60976020526000908152604090205460ff1681565b34801561033757600080fd5b5061017061034636600461158a565b6109bd565b34801561035757600080fd5b506101706109f0565b34801561036c57600080fd5b506033546001600160a01b03165b6040516001600160a01b0390911681526020016101bc565b34801561039e57600080fd5b5060cb5461037a906001600160a01b031681565b3480156103be57600080fd5b5061020d6103cd36600461158a565b6001600160a01b0316600090815260cc602052604090205460ff1690565b3480156103f757600080fd5b5061017061040636600461158a565b610a4d565b34801561041757600080fd5b5061017061042636600461158a565b610a80565b34801561043757600080fd5b5060ca5461037a906001600160a01b031681565b34801561045757600080fd5b506101706104663660046119ad565b610ab3565b34801561047757600080fd5b5061017061048636600461158a565b610b39565b6033546001600160a01b031633146104be5760405162461bcd60e51b81526004016104b5906119ee565b60405180910390fd5b6040516000906001600160a01b0384169083156108fc0290849084818181858888f193505050509050806105425760405162461bcd60e51b815260206004820152602560248201527f5061796d656e743a207769746864726177206e617469766520746f6b656e2066604482015264185a5b195960da1b60648201526084016104b5565b604080516001600160a01b0385168152602081018490527f2c876ecb97b3c6854f2488d373403f903eacb800e51c159a5c0c7a9c857e482791015b60405180910390a1505050565b6033546001600160a01b031633146105b45760405162461bcd60e51b81526004016104b5906119ee565b60cb80546001600160a01b0319166001600160a01b0392909216919091179055565b6000805b8251811015610627576106138382815181106105f8576105f8611a23565b60200260200101516040015183610bd190919063ffffffff16565b91508061061f81611a4f565b9150506105da565b50919050565b600061063b60655460ff1690565b1561067b5760405162461bcd60e51b815260206004820152601060248201526f14185d5cd8589b194e881c185d5cd95960821b60448201526064016104b5565b600260985414156106ce5760405162461bcd60e51b815260206004820152601f60248201527f5265656e7472616e637947756172643a207265656e7472616e742063616c6c0060448201526064016104b5565b60026098556001600160a01b038516600090815260cc602052604090205460ff1661073b5760405162461bcd60e51b815260206004820152601a60248201527f5061796d656e743a206e6f6e6578697374656e7420746f6b656e00000000000060448201526064016104b5565b6000610746836105d6565b905061075d6001600160a01b038716333084610be4565b60ca54610777906001600160a01b03888116911683610c55565b60ca546001600160a01b031663f718845334888489896107978e8b610981565b60016040518863ffffffff1660e01b81526004016107ba96959493929190611a6a565b6020604051808303818588803b1580156107d357600080fd5b505af11580156107e7573d6000803e3d6000fd5b50505050506040513d601f19601f8201168201806040525081019061080c9190611ad0565b60ca54909250610829906001600160a01b03888116911683610d16565b50600160985595945050505050565b61084133610897565b61088d5760405162461bcd60e51b815260206004820152601c60248201527f5061757365723a2043616c6c6572206973206e6f74207061757365720000000060448201526064016104b5565b610895610e38565b565b6001600160a01b031660009081526097602052604090205460ff1690565b6033546001600160a01b031633146108df5760405162461bcd60e51b81526004016104b5906119ee565b6108e881610ecb565b50565b6000806060838060200190518101906109049190611ae9565b9196909550909350915050565b6033546001600160a01b0316331461093b5760405162461bcd60e51b81526004016104b5906119ee565b6108e881610f90565b61089533610f90565b6033546001600160a01b031633146109775760405162461bcd60e51b81526004016104b5906119ee565b610895600061103d565b60cb546040516060916109a6916001600160a01b039091169085908590602001611876565b604051602081830303815290604052905092915050565b6033546001600160a01b031633146109e75760405162461bcd60e51b81526004016104b5906119ee565b6108e88161108f565b6109f933610897565b610a455760405162461bcd60e51b815260206004820152601c60248201527f5061757365723a2043616c6c6572206973206e6f74207061757365720000000060448201526064016104b5565b610895611143565b6033546001600160a01b03163314610a775760405162461bcd60e51b81526004016104b5906119ee565b6108e8816111be565b6033546001600160a01b03163314610aaa5760405162461bcd60e51b81526004016104b5906119ee565b6108e88161120c565b6033546001600160a01b03163314610add5760405162461bcd60e51b81526004016104b5906119ee565b610af16001600160a01b03841683836112c1565b604080516001600160a01b038086168252841660208201529081018290527f2717ead6b9200dd235aad468c9809ea400fe33ac69b5bfaa6d3e90fc922b63989060600161057d565b6033546001600160a01b03163314610b635760405162461bcd60e51b81526004016104b5906119ee565b6001600160a01b038116610bc85760405162461bcd60e51b815260206004820152602660248201527f4f776e61626c653a206e6577206f776e657220697320746865207a65726f206160448201526564647265737360d01b60648201526084016104b5565b6108e88161103d565b6000610bdd8284611bd7565b9392505050565b6040516001600160a01b0380851660248301528316604482015260648101829052610c4f9085906323b872dd60e01b906084015b60408051601f198184030181529190526020810180516001600160e01b03166001600160e01b0319909316929092179091526112f6565b50505050565b604051636eb1769f60e11b81523060048201526001600160a01b038381166024830152600091839186169063dd62ed3e9060440160206040518083038186803b158015610ca157600080fd5b505afa158015610cb5573d6000803e3d6000fd5b505050506040513d601f19601f82011682018060405250810190610cd99190611ad0565b610ce39190611bd7565b6040516001600160a01b038516602482015260448101829052909150610c4f90859063095ea7b360e01b90606401610c18565b604051636eb1769f60e11b81523060048201526001600160a01b0383811660248301526000919085169063dd62ed3e9060440160206040518083038186803b158015610d6157600080fd5b505afa158015610d75573d6000803e3d6000fd5b505050506040513d601f19601f82011682018060405250810190610d999190611ad0565b905081811015610dfd5760405162461bcd60e51b815260206004820152602960248201527f5361666545524332303a2064656372656173656420616c6c6f77616e63652062604482015268656c6f77207a65726f60b81b60648201526084016104b5565b6040516001600160a01b03841660248201528282036044820181905290610e3190869063095ea7b360e01b90606401610c18565b5050505050565b60655460ff16610e815760405162461bcd60e51b815260206004820152601460248201527314185d5cd8589b194e881b9bdd081c185d5cd95960621b60448201526064016104b5565b6065805460ff191690557f5db9ee0a495bf2e6ff9c91a7834c1ba4fdd244a5e8aa4e537bd38aeae4b073aa335b6040516001600160a01b03909116815260200160405180910390a1565b6001600160a01b038116600090815260cc602052604090205460ff16610f335760405162461bcd60e51b815260206004820152601a60248201527f5061796d656e743a206e6f6e6578697374656e7420746f6b656e00000000000060448201526064016104b5565b6040516001600160a01b03821681527f4eb129c82dcd3eedb52df2b0e6fb4cfa41ac64ee9d63ff081acbb1877e85d79b9060200160405180910390a16001600160a01b0316600090815260cc60205260409020805460ff19169055565b610f9981610897565b610fe55760405162461bcd60e51b815260206004820152601d60248201527f5061757365723a204163636f756e74206973206e6f742070617573657200000060448201526064016104b5565b6001600160a01b038116600081815260976020908152604091829020805460ff1916905590519182527fcd265ebaf09df2871cc7bd4133404a235ba12eff2041bb89d9c714a2621c7c7e91015b60405180910390a150565b603380546001600160a01b038381166001600160a01b0319831681179093556040519116919082907f8be0079c531659141344cd1fd0a4f28419497f9722a3daafe3b4186f6b6457e090600090a35050565b61109881610897565b156110ef5760405162461bcd60e51b815260206004820152602160248201527f5061757365723a204163636f756e7420697320616c72656164792070617573656044820152603960f91b60648201526084016104b5565b6001600160a01b038116600081815260976020908152604091829020805460ff1916600117905590519182527f6719d08c1888103bea251a4ed56406bd0c3e69723c8a1686e017e7bbe159b6f89101611032565b60655460ff16156111895760405162461bcd60e51b815260206004820152601060248201526f14185d5cd8589b194e881c185d5cd95960821b60448201526064016104b5565b6065805460ff191660011790557f62e78cea01bee320cd4e420270b5ea74000d11b0c9f74754ebdbfc544b05a258610eae3390565b60ca80546001600160a01b0319166001600160a01b0383169081179091556040519081527fd3a626089875a97be3c9702fd526ab6e28bd30904def789b36b301f03afadcaf90602001611032565b6001600160a01b038116600090815260cc602052604090205460ff161561126d5760405162461bcd60e51b81526020600482015260156024820152745061796d656e743a20746f6b656e2065787369747360581b60448201526064016104b5565b6001600160a01b038116600081815260cc6020908152604091829020805460ff1916600117905590519182527fe473c74f34be27c1464d6624f14a0d7fd4e301cbfa29c3eba425d378c8a7ebe09101611032565b6040516001600160a01b0383166024820152604481018290526112f190849063a9059cbb60e01b90606401610c18565b505050565b600061134b826040518060400160405280602081526020017f5361666545524332303a206c6f772d6c6576656c2063616c6c206661696c6564815250856001600160a01b03166113c89092919063ffffffff16565b8051909150156112f157808060200190518101906113699190611bef565b6112f15760405162461bcd60e51b815260206004820152602a60248201527f5361666545524332303a204552433230206f7065726174696f6e20646964206e6044820152691bdd081cdd58d8d9595960b21b60648201526084016104b5565b60606113d784846000856113df565b949350505050565b6060824710156114405760405162461bcd60e51b815260206004820152602660248201527f416464726573733a20696e73756666696369656e742062616c616e636520666f6044820152651c8818d85b1b60d21b60648201526084016104b5565b6001600160a01b0385163b6114975760405162461bcd60e51b815260206004820152601d60248201527f416464726573733a2063616c6c20746f206e6f6e2d636f6e747261637400000060448201526064016104b5565b600080866001600160a01b031685876040516114b39190611c11565b60006040518083038185875af1925050503d80600081146114f0576040519150601f19603f3d011682016040523d82523d6000602084013e6114f5565b606091505b5091509150611505828286611510565b979650505050505050565b6060831561151f575081610bdd565b82511561152f5782518084602001fd5b8160405162461bcd60e51b81526004016104b5919061199a565b6001600160a01b03811681146108e857600080fd5b6000806040838503121561157157600080fd5b823561157c81611549565b946020939093013593505050565b60006020828403121561159c57600080fd5b8135610bdd81611549565b634e487b7160e01b600052604160045260246000fd5b6040516060810167ffffffffffffffff811182821017156115e0576115e06115a7565b60405290565b604051601f8201601f1916810167ffffffffffffffff8111828210171561160f5761160f6115a7565b604052919050565b600067ffffffffffffffff821115611631576116316115a7565b5060051b60200190565b600481106108e857600080fd5b600082601f83011261165957600080fd5b8135602061166e61166983611617565b6115e6565b8281526060928302850182019282820191908785111561168d57600080fd5b8387015b858110156116e65781818a0312156116a95760008081fd5b6116b16115bd565b81356116bc8161163b565b8152818601356116cb8161163b565b81870152604082810135908201528452928401928101611691565b5090979650505050505050565b60006020828403121561170557600080fd5b813567ffffffffffffffff81111561171c57600080fd5b6113d784828501611648565b600080600080600060a0868803121561174057600080fd5b85359450602086013561175281611549565b9350604086013567ffffffffffffffff808216821461177057600080fd5b90935060608701359063ffffffff8216821461178b57600080fd5b909250608087013590808211156117a157600080fd5b506117ae88828901611648565b9150509295509295909350565b600060208083850312156117ce57600080fd5b823567ffffffffffffffff808211156117e657600080fd5b818501915085601f8301126117fa57600080fd5b81358181111561180c5761180c6115a7565b61181e601f8201601f191685016115e6565b9150808252868482850101111561183457600080fd5b8084840185840137600090820190930192909252509392505050565b634e487b7160e01b600052602160045260246000fd5b600481106108e8576108e8611850565b6001600160a01b038416815260208082018490526060604080840182905284518483018190526000938681019290916080870190865b818110156118eb57855180516118c181611866565b8452808601516118d081611866565b848701528401518484015294840194918601916001016118ac565b50909a9950505050505050505050565b6000806040838503121561190e57600080fd5b82359150602083013567ffffffffffffffff81111561192c57600080fd5b61193885828601611648565b9150509250929050565b60005b8381101561195d578181015183820152602001611945565b83811115610c4f5750506000910152565b60008151808452611986816020860160208601611942565b601f01601f19169290920160200192915050565b602081526000610bdd602083018461196e565b6000806000606084860312156119c257600080fd5b83356119cd81611549565b925060208401356119dd81611549565b929592945050506040919091013590565b6020808252818101527f4f776e61626c653a2063616c6c6572206973206e6f7420746865206f776e6572604082015260600190565b634e487b7160e01b600052603260045260246000fd5b634e487b7160e01b600052601160045260246000fd5b6000600019821415611a6357611a63611a39565b5060010190565b60018060a01b038716815285602082015267ffffffffffffffff8516604082015263ffffffff8416606082015260c060808201526000611aad60c083018561196e565b905060078310611abf57611abf611850565b8260a0830152979650505050505050565b600060208284031215611ae257600080fd5b5051919050565b60008060006060808587031215611aff57600080fd5b8451611b0a81611549565b80945050602080860151935060408087015167ffffffffffffffff811115611b3157600080fd5b8701601f81018913611b4257600080fd5b8051611b5061166982611617565b8181529085028201840190848101908b831115611b6c57600080fd5b928501925b82841015611bc65786848d031215611b895760008081fd5b611b916115bd565b8451611b9c8161163b565b815284870151611bab8161163b565b81880152848601518682015282529286019290850190611b71565b809750505050505050509250925092565b60008219821115611bea57611bea611a39565b500190565b600060208284031215611c0157600080fd5b81518015158114610bdd57600080fd5b60008251611c23818460208701611942565b919091019291505056fea2646970667358221220ae0780e52a52c01611638139f6da44faa06d2f2450319ee518957e507e294c4a64736f6c63430008090033"
}