{
  "address": "0x98469e0D9d31BDC1D0d29485738614941492f9Dc",
  "abi": [
    {
      "inputs": [
        {
          "internalType": "address",
          "name": "owner",
          "type": "address"
        },
        {
          "internalType": "address[]",
          "name": "_providers",
          "type": "address[]"
        },
        {
          "internalType": "address[]",
          "name": "_wallets",
          "type": "address[]"
        }
      ],
      "stateMutability": "nonpayable",
      "type": "constructor"
    },
    {
      "anonymous": false,
      "inputs": [
        {
          "indexed": true,
          "internalType": "address",
          "name": "previousOwner",
          "type": "address"
        },
        {
          "indexed": true,
          "internalType": "address",
          "name": "newOwner",
          "type": "address"
        }
      ],
      "name": "OwnershipTransferred",
      "type": "event"
    },
    {
      "anonymous": false,
      "inputs": [
        {
          "indexed": false,
          "internalType": "address",
          "name": "provider",
          "type": "address"
        },
        {
          "indexed": false,
          "internalType": "address",
          "name": "wallet",
          "type": "address"
        }
      ],
      "name": "ProviderUpdated",
      "type": "event"
    },
    {
      "anonymous": false,
      "inputs": [
        {
          "indexed": false,
          "internalType": "address",
          "name": "provider",
          "type": "address"
        }
      ],
      "name": "RemoveProvider",
      "type": "event"
    },
    {
      "inputs": [
        {
          "internalType": "address",
          "name": "provider",
          "type": "address"
        },
        {
          "internalType": "address",
          "name": "wallet",
          "type": "address"
        }
      ],
      "name": "addProvider",
      "outputs": [],
      "stateMutability": "nonpayable",
      "type": "function"
    },
    {
      "inputs": [
        {
          "internalType": "address",
          "name": "owner",
          "type": "address"
        },
        {
          "internalType": "address[]",
          "name": "_providers",
          "type": "address[]"
        },
        {
          "internalType": "address[]",
          "name": "_wallets",
          "type": "address[]"
        }
      ],
      "name": "initialize",
      "outputs": [],
      "stateMutability": "nonpayable",
      "type": "function"
    },
    {
      "inputs": [
        {
          "internalType": "address",
          "name": "provider",
          "type": "address"
        }
      ],
      "name": "isProvider",
      "outputs": [
        {
          "internalType": "bool",
          "name": "",
          "type": "bool"
        }
      ],
      "stateMutability": "view",
      "type": "function"
    },
    {
      "inputs": [
        {
          "internalType": "address",
          "name": "provider",
          "type": "address"
        },
        {
          "internalType": "bytes32",
          "name": "hash",
          "type": "bytes32"
        },
        {
          "internalType": "bytes",
          "name": "signature",
          "type": "bytes"
        }
      ],
      "name": "isValidSignature",
      "outputs": [
        {
          "internalType": "bool",
          "name": "",
          "type": "bool"
        }
      ],
      "stateMutability": "view",
      "type": "function"
    },
    {
      "inputs": [],
      "name": "owner",
      "outputs": [
        {
          "internalType": "address",
          "name": "",
          "type": "address"
        }
      ],
      "stateMutability": "view",
      "type": "function"
    },
    {
      "inputs": [
        {
          "internalType": "address",
          "name": "provider",
          "type": "address"
        }
      ],
      "name": "removeProvider",
      "outputs": [],
      "stateMutability": "nonpayable",
      "type": "function"
    },
    {
      "inputs": [],
      "name": "renounceOwnership",
      "outputs": [],
      "stateMutability": "nonpayable",
      "type": "function"
    },
    {
      "inputs": [
        {
          "internalType": "address",
          "name": "wallet",
          "type": "address"
        }
      ],
      "name": "setWallet",
      "outputs": [],
      "stateMutability": "nonpayable",
      "type": "function"
    },
    {
      "inputs": [
        {
          "internalType": "address",
          "name": "newOwner",
          "type": "address"
        }
      ],
      "name": "transferOwnership",
      "outputs": [],
      "stateMutability": "nonpayable",
      "type": "function"
    },
    {
      "inputs": [
        {
          "internalType": "address",
          "name": "",
          "type": "address"
        }
      ],
      "name": "wallets",
      "outputs": [
        {
          "internalType": "address",
          "name": "",
          "type": "address"
        }
      ],
      "stateMutability": "view",
      "type": "function"
    }
  ],
  "transactionHash": "0x8794c3d359fb65177531b3fc16bdb2e0f778af04b39435a26d1a229a0cd5f88c",
  "args": [
    "0xF1658C608708172655A8e70a1624c29F956Ee63D",
    [
      "0xF1658C608708172655A8e70a1624c29F956Ee63D"
    ],
    [
      "0x517FCCA24Bdda4Ff7d4acF260776E5141D4960Ca"
    ]
  ],
  "solcInputHash": "4c6d0a9f2d25bbb837c9b893e47b3460",
  "bytecode": "0x60806040523480156200001157600080fd5b506040516200267f3803806200267f833981810160405281019062000037919062000715565b600060019054906101000a900460ff16620000615760008054906101000a900460ff161562000072565b620000716200015460201b60201c565b5b620000b4576040517f08c379a0000000000000000000000000000000000000000000000000000000008152600401620000ab9062000836565b60405180910390fd5b60008060019054906101000a900460ff16159050801562000105576001600060016101000a81548160ff02191690831515021790555060016000806101000a81548160ff0219169083151502179055505b62000116846200017260201b60201c565b6200012883836200023860201b60201c565b80156200014a5760008060016101000a81548160ff0219169083151502179055505b5050505062000ac8565b60006200016c306200034560201b620006d91760201c565b15905090565b6000603360009054906101000a900473ffffffffffffffffffffffffffffffffffffffff16905081603360006101000a81548173ffffffffffffffffffffffffffffffffffffffff021916908373ffffffffffffffffffffffffffffffffffffffff1602179055508173ffffffffffffffffffffffffffffffffffffffff168173ffffffffffffffffffffffffffffffffffffffff167f8be0079c531659141344cd1fd0a4f28419497f9722a3daafe3b4186f6b6457e060405160405180910390a35050565b600060019054906101000a900460ff166200028a576040517f08c379a00000000000000000000000000000000000000000000000000000000081526004016200028190620008ce565b60405180910390fd5b8051825114620002d1576040517f08c379a0000000000000000000000000000000000000000000000000000000008152600401620002c89062000940565b60405180910390fd5b60005b825181101562000340576200032a838281518110620002f857620002f762000962565b5b602002602001015183838151811062000316576200031562000962565b5b60200260200101516200036860201b60201c565b80806200033790620009ca565b915050620002d4565b505050565b6000808273ffffffffffffffffffffffffffffffffffffffff163b119050919050565b6200037982620004d160201b60201c565b15620003bc576040517f08c379a0000000000000000000000000000000000000000000000000000000008152600401620003b39062000a68565b60405180910390fd5b6001606560008473ffffffffffffffffffffffffffffffffffffffff1673ffffffffffffffffffffffffffffffffffffffff16815260200190815260200160002060006101000a81548160ff02191690831515021790555080606660008473ffffffffffffffffffffffffffffffffffffffff1673ffffffffffffffffffffffffffffffffffffffff16815260200190815260200160002060006101000a81548173ffffffffffffffffffffffffffffffffffffffff021916908373ffffffffffffffffffffffffffffffffffffffff1602179055507fa4652513510d8a8ef70d7c10761c2fd3d3f582d2e903ac7f7a74c3075331f53f8282604051620004c592919062000a9b565b60405180910390a15050565b6000606560008373ffffffffffffffffffffffffffffffffffffffff1673ffffffffffffffffffffffffffffffffffffffff16815260200190815260200160002060009054906101000a900460ff169050919050565b6000604051905090565b600080fd5b600080fd5b600073ffffffffffffffffffffffffffffffffffffffff82169050919050565b600062000568826200053b565b9050919050565b6200057a816200055b565b81146200058657600080fd5b50565b6000815190506200059a816200056f565b92915050565b600080fd5b6000601f19601f8301169050919050565b7f4e487b7100000000000000000000000000000000000000000000000000000000600052604160045260246000fd5b620005f082620005a5565b810181811067ffffffffffffffff82111715620006125762000611620005b6565b5b80604052505050565b60006200062762000527565b9050620006358282620005e5565b919050565b600067ffffffffffffffff821115620006585762000657620005b6565b5b602082029050602081019050919050565b600080fd5b6000620006856200067f846200063a565b6200061b565b90508083825260208201905060208402830185811115620006ab57620006aa62000669565b5b835b81811015620006d85780620006c3888262000589565b845260208401935050602081019050620006ad565b5050509392505050565b600082601f830112620006fa57620006f9620005a0565b5b81516200070c8482602086016200066e565b91505092915050565b60008060006060848603121562000731576200073062000531565b5b6000620007418682870162000589565b935050602084015167ffffffffffffffff81111562000765576200076462000536565b5b6200077386828701620006e2565b925050604084015167ffffffffffffffff81111562000797576200079662000536565b5b620007a586828701620006e2565b9150509250925092565b600082825260208201905092915050565b7f496e697469616c697a61626c653a20636f6e747261637420697320616c72656160008201527f647920696e697469616c697a6564000000000000000000000000000000000000602082015250565b60006200081e602e83620007af565b91506200082b82620007c0565b604082019050919050565b6000602082019050818103600083015262000851816200080f565b9050919050565b7f496e697469616c697a61626c653a20636f6e7472616374206973206e6f74206960008201527f6e697469616c697a696e67000000000000000000000000000000000000000000602082015250565b6000620008b6602b83620007af565b9150620008c38262000858565b604082019050919050565b60006020820190508181036000830152620008e981620008a7565b9050919050565b7f50726f7669646572733a20696e636f6e73697374656e74206c656e6774680000600082015250565b600062000928601e83620007af565b91506200093582620008f0565b602082019050919050565b600060208201905081810360008301526200095b8162000919565b9050919050565b7f4e487b7100000000000000000000000000000000000000000000000000000000600052603260045260246000fd5b7f4e487b7100000000000000000000000000000000000000000000000000000000600052601160045260246000fd5b6000819050919050565b6000620009d782620009c0565b91507fffffffffffffffffffffffffffffffffffffffffffffffffffffffffffffffff82141562000a0d5762000a0c62000991565b5b600182019050919050565b7f50726f7669646572733a2070726f766964657220657869737465640000000000600082015250565b600062000a50601b83620007af565b915062000a5d8262000a18565b602082019050919050565b6000602082019050818103600083015262000a838162000a41565b9050919050565b62000a95816200055b565b82525050565b600060408201905062000ab2600083018562000a8a565b62000ac1602083018462000a8a565b9392505050565b611ba78062000ad86000396000f3fe608060405234801561001057600080fd5b506004361061009e5760003560e01c80638a355a57116100665780638a355a57146101595780638da5cb5b146101755780639755f5be14610193578063deaa59df146101af578063f2fde38b146101cb5761009e565b8063238a4d1e146100a35780634a200fa5146100d35780636b074a07146100ef578063715018a61461011f57806389b08f1114610129575b600080fd5b6100bd60048036038101906100b8919061117a565b6101e7565b6040516100ca9190611204565b60405180910390f35b6100ed60048036038101906100e891906112e7565b610245565b005b61010960048036038101906101049190611372565b61033f565b6040516101169190611204565b60405180910390f35b610127610395565b005b610143600480360381019061013e9190611372565b61041d565b60405161015091906113ae565b60405180910390f35b610173600480360381019061016e9190611372565b610450565b005b61017d6104d8565b60405161018a91906113ae565b60405180910390f35b6101ad60048036038101906101a891906113c9565b610502565b005b6101c960048036038101906101c49190611372565b61058c565b005b6101e560048036038101906101e09190611372565b6105e1565b005b60006101f28461033f565b610231576040517f08c379a000000000000000000000000000000000000000000000000000000000815260040161022890611466565b60405180910390fd5b61023c8484846106fc565b90509392505050565b600060019054906101000a900460ff1661026d5760008054906101000a900460ff1615610276565b6102756108e1565b5b6102b5576040517f08c379a00000000000000000000000000000000000000000000000000000000081526004016102ac906114f8565b60405180910390fd5b60008060019054906101000a900460ff161590508015610305576001600060016101000a81548160ff02191690831515021790555060016000806101000a81548160ff0219169083151502179055505b61030e846108f2565b61031883836109b8565b80156103395760008060016101000a81548160ff0219169083151502179055505b50505050565b6000606560008373ffffffffffffffffffffffffffffffffffffffff1673ffffffffffffffffffffffffffffffffffffffff16815260200190815260200160002060009054906101000a900460ff169050919050565b61039d610aad565b73ffffffffffffffffffffffffffffffffffffffff166103bb6104d8565b73ffffffffffffffffffffffffffffffffffffffff1614610411576040517f08c379a000000000000000000000000000000000000000000000000000000000815260040161040890611564565b60405180910390fd5b61041b60006108f2565b565b60666020528060005260406000206000915054906101000a900473ffffffffffffffffffffffffffffffffffffffff1681565b610458610aad565b73ffffffffffffffffffffffffffffffffffffffff166104766104d8565b73ffffffffffffffffffffffffffffffffffffffff16146104cc576040517f08c379a00000000000000000000000000000000000000000000000000000000081526004016104c390611564565b60405180910390fd5b6104d581610ab5565b50565b6000603360009054906101000a900473ffffffffffffffffffffffffffffffffffffffff16905090565b61050a610aad565b73ffffffffffffffffffffffffffffffffffffffff166105286104d8565b73ffffffffffffffffffffffffffffffffffffffff161461057e576040517f08c379a000000000000000000000000000000000000000000000000000000000815260040161057590611564565b60405180910390fd5b6105888282610b86565b5050565b6105953361033f565b6105d4576040517f08c379a00000000000000000000000000000000000000000000000000000000081526004016105cb906115f6565b60405180910390fd5b6105de3382610ce2565b50565b6105e9610aad565b73ffffffffffffffffffffffffffffffffffffffff166106076104d8565b73ffffffffffffffffffffffffffffffffffffffff161461065d576040517f08c379a000000000000000000000000000000000000000000000000000000000815260040161065490611564565b60405180910390fd5b600073ffffffffffffffffffffffffffffffffffffffff168173ffffffffffffffffffffffffffffffffffffffff1614156106cd576040517f08c379a00000000000000000000000000000000000000000000000000000000081526004016106c490611688565b60405180910390fd5b6106d6816108f2565b50565b6000808273ffffffffffffffffffffffffffffffffffffffff163b119050919050565b600080600061070b8585610d9d565b9150915060006004811115610723576107226116a8565b5b816004811115610736576107356116a8565b5b14801561076e57508573ffffffffffffffffffffffffffffffffffffffff168273ffffffffffffffffffffffffffffffffffffffff16145b1561077e576001925050506108da565b6000808773ffffffffffffffffffffffffffffffffffffffff16631626ba7e60e01b88886040516024016107b392919061176e565b604051602081830303815290604052907bffffffffffffffffffffffffffffffffffffffffffffffffffffffff19166020820180517bffffffffffffffffffffffffffffffffffffffffffffffffffffffff838183161783525050505060405161081d91906117da565b600060405180830381855afa9150503d8060008114610858576040519150601f19603f3d011682016040523d82523d6000602084013e61085d565b606091505b5091509150818015610870575060208151145b80156108d35750631626ba7e60e01b7bffffffffffffffffffffffffffffffffffffffffffffffffffffffff1916818060200190518101906108b29190611849565b7bffffffffffffffffffffffffffffffffffffffffffffffffffffffff1916145b9450505050505b9392505050565b60006108ec306106d9565b15905090565b6000603360009054906101000a900473ffffffffffffffffffffffffffffffffffffffff16905081603360006101000a81548173ffffffffffffffffffffffffffffffffffffffff021916908373ffffffffffffffffffffffffffffffffffffffff1602179055508173ffffffffffffffffffffffffffffffffffffffff168173ffffffffffffffffffffffffffffffffffffffff167f8be0079c531659141344cd1fd0a4f28419497f9722a3daafe3b4186f6b6457e060405160405180910390a35050565b600060019054906101000a900460ff16610a07576040517f08c379a00000000000000000000000000000000000000000000000000000000081526004016109fe906118e8565b60405180910390fd5b8051825114610a4b576040517f08c379a0000000000000000000000000000000000000000000000000000000008152600401610a4290611954565b60405180910390fd5b60005b8251811015610aa857610a95838281518110610a6d57610a6c611974565b5b6020026020010151838381518110610a8857610a87611974565b5b6020026020010151610b86565b8080610aa0906119dc565b915050610a4e565b505050565b600033905090565b610abe8161033f565b610afd576040517f08c379a0000000000000000000000000000000000000000000000000000000008152600401610af490611466565b60405180910390fd5b7f8ab468b9f8f57e82f33d9a1742c03768ff84410a4911e8647bfa64182687690481604051610b2c91906113ae565b60405180910390a1606560008273ffffffffffffffffffffffffffffffffffffffff1673ffffffffffffffffffffffffffffffffffffffff16815260200190815260200160002060006101000a81549060ff021916905550565b610b8f8261033f565b15610bcf576040517f08c379a0000000000000000000000000000000000000000000000000000000008152600401610bc690611a71565b60405180910390fd5b6001606560008473ffffffffffffffffffffffffffffffffffffffff1673ffffffffffffffffffffffffffffffffffffffff16815260200190815260200160002060006101000a81548160ff02191690831515021790555080606660008473ffffffffffffffffffffffffffffffffffffffff1673ffffffffffffffffffffffffffffffffffffffff16815260200190815260200160002060006101000a81548173ffffffffffffffffffffffffffffffffffffffff021916908373ffffffffffffffffffffffffffffffffffffffff1602179055507fa4652513510d8a8ef70d7c10761c2fd3d3f582d2e903ac7f7a74c3075331f53f8282604051610cd6929190611a91565b60405180910390a15050565b80606660008473ffffffffffffffffffffffffffffffffffffffff1673ffffffffffffffffffffffffffffffffffffffff16815260200190815260200160002060006101000a81548173ffffffffffffffffffffffffffffffffffffffff021916908373ffffffffffffffffffffffffffffffffffffffff1602179055507fa4652513510d8a8ef70d7c10761c2fd3d3f582d2e903ac7f7a74c3075331f53f8282604051610d91929190611a91565b60405180910390a15050565b600080604183511415610ddf5760008060006020860151925060408601519150606086015160001a9050610dd387828585610e20565b94509450505050610e19565b604083511415610e10576000806020850151915060408501519050610e05868383610f2d565b935093505050610e19565b60006002915091505b9250929050565b6000807f7fffffffffffffffffffffffffffffff5d576e7357a4501ddfe92f46681b20a08360001c1115610e5b576000600391509150610f24565b601b8560ff1614158015610e735750601c8560ff1614155b15610e85576000600491509150610f24565b600060018787878760405160008152602001604052604051610eaa9493929190611ad6565b6020604051602081039080840390855afa158015610ecc573d6000803e3d6000fd5b505050602060405103519050600073ffffffffffffffffffffffffffffffffffffffff168173ffffffffffffffffffffffffffffffffffffffff161415610f1b57600060019250925050610f24565b80600092509250505b94509492505050565b60008060007f7fffffffffffffffffffffffffffffffffffffffffffffffffffffffffffffff60001b841690506000601b60ff8660001c901c610f709190611b1b565b9050610f7e87828885610e20565b935093505050935093915050565b6000604051905090565b600080fd5b600080fd5b600073ffffffffffffffffffffffffffffffffffffffff82169050919050565b6000610fcb82610fa0565b9050919050565b610fdb81610fc0565b8114610fe657600080fd5b50565b600081359050610ff881610fd2565b92915050565b6000819050919050565b61101181610ffe565b811461101c57600080fd5b50565b60008135905061102e81611008565b92915050565b600080fd5b600080fd5b6000601f19601f8301169050919050565b7f4e487b7100000000000000000000000000000000000000000000000000000000600052604160045260246000fd5b6110878261103e565b810181811067ffffffffffffffff821117156110a6576110a561104f565b5b80604052505050565b60006110b9610f8c565b90506110c5828261107e565b919050565b600067ffffffffffffffff8211156110e5576110e461104f565b5b6110ee8261103e565b9050602081019050919050565b82818337600083830152505050565b600061111d611118846110ca565b6110af565b90508281526020810184848401111561113957611138611039565b5b6111448482856110fb565b509392505050565b600082601f83011261116157611160611034565b5b813561117184826020860161110a565b91505092915050565b60008060006060848603121561119357611192610f96565b5b60006111a186828701610fe9565b93505060206111b28682870161101f565b925050604084013567ffffffffffffffff8111156111d3576111d2610f9b565b5b6111df8682870161114c565b9150509250925092565b60008115159050919050565b6111fe816111e9565b82525050565b600060208201905061121960008301846111f5565b92915050565b600067ffffffffffffffff82111561123a5761123961104f565b5b602082029050602081019050919050565b600080fd5b600061126361125e8461121f565b6110af565b905080838252602082019050602084028301858111156112865761128561124b565b5b835b818110156112af578061129b8882610fe9565b845260208401935050602081019050611288565b5050509392505050565b600082601f8301126112ce576112cd611034565b5b81356112de848260208601611250565b91505092915050565b600080600060608486031215611300576112ff610f96565b5b600061130e86828701610fe9565b935050602084013567ffffffffffffffff81111561132f5761132e610f9b565b5b61133b868287016112b9565b925050604084013567ffffffffffffffff81111561135c5761135b610f9b565b5b611368868287016112b9565b9150509250925092565b60006020828403121561138857611387610f96565b5b600061139684828501610fe9565b91505092915050565b6113a881610fc0565b82525050565b60006020820190506113c3600083018461139f565b92915050565b600080604083850312156113e0576113df610f96565b5b60006113ee85828601610fe9565b92505060206113ff85828601610fe9565b9150509250929050565b600082825260208201905092915050565b7f50726f7669646572733a206e6f6e6578697374656e742070726f766964657200600082015250565b6000611450601f83611409565b915061145b8261141a565b602082019050919050565b6000602082019050818103600083015261147f81611443565b9050919050565b7f496e697469616c697a61626c653a20636f6e747261637420697320616c72656160008201527f647920696e697469616c697a6564000000000000000000000000000000000000602082015250565b60006114e2602e83611409565b91506114ed82611486565b604082019050919050565b60006020820190508181036000830152611511816114d5565b9050919050565b7f4f776e61626c653a2063616c6c6572206973206e6f7420746865206f776e6572600082015250565b600061154e602083611409565b915061155982611518565b602082019050919050565b6000602082019050818103600083015261157d81611541565b9050919050565b7f50726f7669646572733a2063616c6c6572206973206e6f7420612070726f766960008201527f6465720000000000000000000000000000000000000000000000000000000000602082015250565b60006115e0602383611409565b91506115eb82611584565b604082019050919050565b6000602082019050818103600083015261160f816115d3565b9050919050565b7f4f776e61626c653a206e6577206f776e657220697320746865207a65726f206160008201527f6464726573730000000000000000000000000000000000000000000000000000602082015250565b6000611672602683611409565b915061167d82611616565b604082019050919050565b600060208201905081810360008301526116a181611665565b9050919050565b7f4e487b7100000000000000000000000000000000000000000000000000000000600052602160045260246000fd5b6116e081610ffe565b82525050565b600081519050919050565b600082825260208201905092915050565b60005b83811015611720578082015181840152602081019050611705565b8381111561172f576000848401525b50505050565b6000611740826116e6565b61174a81856116f1565b935061175a818560208601611702565b6117638161103e565b840191505092915050565b600060408201905061178360008301856116d7565b81810360208301526117958184611735565b90509392505050565b600081905092915050565b60006117b4826116e6565b6117be818561179e565b93506117ce818560208601611702565b80840191505092915050565b60006117e682846117a9565b915081905092915050565b60007fffffffff0000000000000000000000000000000000000000000000000000000082169050919050565b611826816117f1565b811461183157600080fd5b50565b6000815190506118438161181d565b92915050565b60006020828403121561185f5761185e610f96565b5b600061186d84828501611834565b91505092915050565b7f496e697469616c697a61626c653a20636f6e7472616374206973206e6f74206960008201527f6e697469616c697a696e67000000000000000000000000000000000000000000602082015250565b60006118d2602b83611409565b91506118dd82611876565b604082019050919050565b60006020820190508181036000830152611901816118c5565b9050919050565b7f50726f7669646572733a20696e636f6e73697374656e74206c656e6774680000600082015250565b600061193e601e83611409565b915061194982611908565b602082019050919050565b6000602082019050818103600083015261196d81611931565b9050919050565b7f4e487b7100000000000000000000000000000000000000000000000000000000600052603260045260246000fd5b7f4e487b7100000000000000000000000000000000000000000000000000000000600052601160045260246000fd5b6000819050919050565b60006119e7826119d2565b91507fffffffffffffffffffffffffffffffffffffffffffffffffffffffffffffffff821415611a1a57611a196119a3565b5b600182019050919050565b7f50726f7669646572733a2070726f766964657220657869737465640000000000600082015250565b6000611a5b601b83611409565b9150611a6682611a25565b602082019050919050565b60006020820190508181036000830152611a8a81611a4e565b9050919050565b6000604082019050611aa6600083018561139f565b611ab3602083018461139f565b9392505050565b600060ff82169050919050565b611ad081611aba565b82525050565b6000608082019050611aeb60008301876116d7565b611af86020830186611ac7565b611b0560408301856116d7565b611b1260608301846116d7565b95945050505050565b6000611b26826119d2565b9150611b31836119d2565b9250827fffffffffffffffffffffffffffffffffffffffffffffffffffffffffffffffff03821115611b6657611b656119a3565b5b82820190509291505056fea2646970667358221220eff37470a34cee022a6459635ef9e42cfaf6214010d67a5f0126207acf679d7264736f6c63430008090033",
  "devdoc": {
    "kind": "dev",
    "methods": {
      "owner()": {
        "details": "Returns the address of the current owner."
      },
      "renounceOwnership()": {
        "details": "Leaves the contract without owner. It will not be possible to call `onlyOwner` functions anymore. Can only be called by the current owner. NOTE: Renouncing ownership will leave the contract without an owner, thereby removing any functionality that is only available to the owner."
      },
      "transferOwnership(address)": {
        "details": "Transfers ownership of the contract to a new account (`newOwner`). Can only be called by the current owner."
      }
    },
    "version": 1
  },
  "userdoc": {
    "kind": "user",
    "methods": {},
    "version": 1
  },
  "storageLayout": {
    "storage": [
      {
        "astId": 147,
        "contract": "contracts/providers/Providers.sol:Providers",
        "label": "_initialized",
        "offset": 0,
        "slot": "0",
        "type": "t_bool"
      },
      {
        "astId": 150,
        "contract": "contracts/providers/Providers.sol:Providers",
        "label": "_initializing",
        "offset": 1,
        "slot": "0",
        "type": "t_bool"
      },
      {
        "astId": 970,
        "contract": "contracts/providers/Providers.sol:Providers",
        "label": "__gap",
        "offset": 0,
        "slot": "1",
        "type": "t_array(t_uint256)50_storage"
      },
      {
        "astId": 10,
        "contract": "contracts/providers/Providers.sol:Providers",
        "label": "_owner",
        "offset": 0,
        "slot": "51",
        "type": "t_address"
      },
      {
        "astId": 122,
        "contract": "contracts/providers/Providers.sol:Providers",
        "label": "__gap",
        "offset": 0,
        "slot": "52",
        "type": "t_array(t_uint256)49_storage"
      },
      {
        "astId": 5721,
        "contract": "contracts/providers/Providers.sol:Providers",
        "label": "providers",
        "offset": 0,
        "slot": "101",
        "type": "t_mapping(t_address,t_bool)"
      },
      {
        "astId": 5726,
        "contract": "contracts/providers/Providers.sol:Providers",
        "label": "wallets",
        "offset": 0,
        "slot": "102",
        "type": "t_mapping(t_address,t_address)"
      }
    ],
    "types": {
      "t_address": {
        "encoding": "inplace",
        "label": "address",
        "numberOfBytes": "20"
      },
      "t_array(t_uint256)49_storage": {
        "base": "t_uint256",
        "encoding": "inplace",
        "label": "uint256[49]",
        "numberOfBytes": "1568"
      },
      "t_array(t_uint256)50_storage": {
        "base": "t_uint256",
        "encoding": "inplace",
        "label": "uint256[50]",
        "numberOfBytes": "1600"
      },
      "t_bool": {
        "encoding": "inplace",
        "label": "bool",
        "numberOfBytes": "1"
      },
      "t_mapping(t_address,t_address)": {
        "encoding": "mapping",
        "key": "t_address",
        "label": "mapping(address => address)",
        "numberOfBytes": "32",
        "value": "t_address"
      },
      "t_mapping(t_address,t_bool)": {
        "encoding": "mapping",
        "key": "t_address",
        "label": "mapping(address => bool)",
        "numberOfBytes": "32",
        "value": "t_bool"
      },
      "t_uint256": {
        "encoding": "inplace",
        "label": "uint256",
        "numberOfBytes": "32"
      }
    }
  }
}