{
  "address": "0x1141eB47EbCAcf39CDc2e4317Dc8c3C23a96cF0D",
  "abi": [
    {
      "inputs": [
        {
          "internalType": "address",
          "name": "owner",
          "type": "address"
        },
        {
          "components": [
            {
              "internalType": "enum ResourceData.ResourceType",
              "name": "resourceType",
              "type": "uint8"
            },
            {
              "internalType": "uint256",
              "name": "price",
              "type": "uint256"
            }
          ],
          "internalType": "struct ResourceAdaptor.PriceAdaptor[]",
          "name": "adaptors",
          "type": "tuple[]"
        }
      ],
      "stateMutability": "nonpayable",
      "type": "constructor"
    },
    {
      "anonymous": false,
      "inputs": [
        {
          "indexed": true,
          "internalType": "address",
          "name": "previousOwner",
          "type": "address"
        },
        {
          "indexed": true,
          "internalType": "address",
          "name": "newOwner",
          "type": "address"
        }
      ],
      "name": "OwnershipTransferred",
      "type": "event"
    },
    {
      "anonymous": false,
      "inputs": [
        {
          "components": [
            {
              "internalType": "enum ResourceData.ResourceType",
              "name": "resourceType",
              "type": "uint8"
            },
            {
              "internalType": "uint256",
              "name": "price",
              "type": "uint256"
            }
          ],
          "indexed": false,
          "internalType": "struct ResourceAdaptor.PriceAdaptor[]",
          "name": "adaptors",
          "type": "tuple[]"
        }
      ],
      "name": "SetPriceAdaptors",
      "type": "event"
    },
    {
      "inputs": [
        {
          "internalType": "enum ResourceData.ResourceType",
          "name": "resourceType",
          "type": "uint8"
        },
        {
          "internalType": "uint256",
          "name": "value",
          "type": "uint256"
        },
        {
          "internalType": "uint256",
          "name": "_indexBlock",
          "type": "uint256"
        }
      ],
      "name": "getAmountAt",
      "outputs": [
        {
          "internalType": "uint256",
          "name": "",
          "type": "uint256"
        }
      ],
      "stateMutability": "view",
      "type": "function"
    },
    {
      "inputs": [
        {
          "internalType": "enum ResourceData.ResourceType",
          "name": "resourceType",
          "type": "uint8"
        },
        {
          "internalType": "uint256",
          "name": "value",
          "type": "uint256"
        }
      ],
      "name": "getAmountOf",
      "outputs": [
        {
          "internalType": "uint256",
          "name": "",
          "type": "uint256"
        }
      ],
      "stateMutability": "view",
      "type": "function"
    },
    {
      "inputs": [
        {
          "internalType": "enum ResourceData.ResourceType",
          "name": "resourceType",
          "type": "uint8"
        },
        {
          "internalType": "uint256",
          "name": "amount",
          "type": "uint256"
        },
        {
          "internalType": "uint256",
          "name": "_indexBlock",
          "type": "uint256"
        }
      ],
      "name": "getValueAt",
      "outputs": [
        {
          "internalType": "uint256",
          "name": "",
          "type": "uint256"
        }
      ],
      "stateMutability": "view",
      "type": "function"
    },
    {
      "inputs": [
        {
          "internalType": "enum ResourceData.ResourceType",
          "name": "resourceType",
          "type": "uint8"
        },
        {
          "internalType": "uint256",
          "name": "amount",
          "type": "uint256"
        }
      ],
      "name": "getValueOf",
      "outputs": [
        {
          "internalType": "uint256",
          "name": "",
          "type": "uint256"
        }
      ],
      "stateMutability": "view",
      "type": "function"
    },
    {
      "inputs": [],
      "name": "indexBlock",
      "outputs": [
        {
          "internalType": "uint256",
          "name": "",
          "type": "uint256"
        }
      ],
      "stateMutability": "view",
      "type": "function"
    },
    {
      "inputs": [
        {
          "internalType": "address",
          "name": "owner",
          "type": "address"
        },
        {
          "components": [
            {
              "internalType": "enum ResourceData.ResourceType",
              "name": "resourceType",
              "type": "uint8"
            },
            {
              "internalType": "uint256",
              "name": "price",
              "type": "uint256"
            }
          ],
          "internalType": "struct ResourceAdaptor.PriceAdaptor[]",
          "name": "adaptors",
          "type": "tuple[]"
        }
      ],
      "name": "initialize",
      "outputs": [],
      "stateMutability": "nonpayable",
      "type": "function"
    },
    {
      "inputs": [],
      "name": "owner",
      "outputs": [
        {
          "internalType": "address",
          "name": "",
          "type": "address"
        }
      ],
      "stateMutability": "view",
      "type": "function"
    },
    {
      "inputs": [
        {
          "internalType": "enum ResourceData.ResourceType",
          "name": "resourceType",
          "type": "uint8"
        },
        {
          "internalType": "uint256",
          "name": "_indexBlock",
          "type": "uint256"
        }
      ],
      "name": "priceAt",
      "outputs": [
        {
          "internalType": "uint256",
          "name": "",
          "type": "uint256"
        }
      ],
      "stateMutability": "view",
      "type": "function"
    },
    {
      "inputs": [
        {
          "internalType": "enum ResourceData.ResourceType",
          "name": "resourceType",
          "type": "uint8"
        }
      ],
      "name": "priceOf",
      "outputs": [
        {
          "internalType": "uint256",
          "name": "",
          "type": "uint256"
        }
      ],
      "stateMutability": "view",
      "type": "function"
    },
    {
      "inputs": [],
      "name": "renounceOwnership",
      "outputs": [],
      "stateMutability": "nonpayable",
      "type": "function"
    },
    {
      "inputs": [
        {
          "components": [
            {
              "internalType": "enum ResourceData.ResourceType",
              "name": "resourceType",
              "type": "uint8"
            },
            {
              "internalType": "uint256",
              "name": "price",
              "type": "uint256"
            }
          ],
          "internalType": "struct ResourceAdaptor.PriceAdaptor[]",
          "name": "adaptors",
          "type": "tuple[]"
        }
      ],
      "name": "setPriceAdaptors",
      "outputs": [],
      "stateMutability": "nonpayable",
      "type": "function"
    },
    {
      "inputs": [
        {
          "internalType": "address",
          "name": "newOwner",
          "type": "address"
        }
      ],
      "name": "transferOwnership",
      "outputs": [],
      "stateMutability": "nonpayable",
      "type": "function"
    }
  ],
  "transactionHash": "0x50a1b2c45909605ba6d115cf7c5775f995791b8a7ba935d4fcc6b64f8075202b",
  "args": [
    "0xF1658C608708172655A8e70a1624c29F956Ee63D",
    [
      {
        "resourceType": 1,
        "price": 1
      },
      {
        "resourceType": 2,
        "price": 2
      },
      {
        "resourceType": 3,
        "price": 3
      },
      {
        "resourceType": 4,
        "price": 4
      }
    ]
  ],
  "solcInputHash": "4c6d0a9f2d25bbb837c9b893e47b3460",
  "bytecode": "0x60806040523480156200001157600080fd5b5060405162002132380380620021328339818101604052810190620000379190620006fd565b600060019054906101000a900460ff16620000615760008054906101000a900460ff161562000072565b620000716200015260201b60201c565b5b620000b4576040517f08c379a0000000000000000000000000000000000000000000000000000000008152600401620000ab90620007ea565b60405180910390fd5b60008060019054906101000a900460ff16159050801562000105576001600060016101000a81548160ff02191690831515021790555060016000806101000a81548160ff0219169083151502179055505b62000116836200017060201b60201c565b62000127826200023660201b60201c565b8015620001495760008060016101000a81548160ff0219169083151502179055505b50505062000bd9565b60006200016a306200029c60201b6200072e1760201c565b15905090565b6000603360009054906101000a900473ffffffffffffffffffffffffffffffffffffffff16905081603360006101000a81548173ffffffffffffffffffffffffffffffffffffffff021916908373ffffffffffffffffffffffffffffffffffffffff1602179055508173ffffffffffffffffffffffffffffffffffffffff168173ffffffffffffffffffffffffffffffffffffffff167f8be0079c531659141344cd1fd0a4f28419497f9722a3daafe3b4186f6b6457e060405160405180910390a35050565b600060019054906101000a900460ff1662000288576040517f08c379a00000000000000000000000000000000000000000000000000000000081526004016200027f9062000882565b60405180910390fd5b6200029981620002bf60201b60201c565b50565b6000808273ffffffffffffffffffffffffffffffffffffffff163b119050919050565b600081511162000306576040517f08c379a0000000000000000000000000000000000000000000000000000000008152600401620002fd90620008f4565b60405180910390fd5b60005b81518110156200040a5760008282815181106200032b576200032a62000916565b5b6020026020010151602001519050600081116200037f576040517f08c379a0000000000000000000000000000000000000000000000000000000008152600401620003769062000995565b60405180910390fd5b80606660008585815181106200039a576200039962000916565b5b6020026020010151600001516004811115620003bb57620003ba620009b7565b5b6004811115620003d057620003cf620009b7565b5b8152602001908152602001600020600043815260200190815260200160002081905550508080620004019062000a15565b91505062000309565b50436065819055507fdaf171519e682ab2dd913c4734ab5c4d25a84eae73f45aa041119c8c4b5c5ef58160405162000443919062000bb5565b60405180910390a150565b6000604051905090565b600080fd5b600080fd5b600073ffffffffffffffffffffffffffffffffffffffff82169050919050565b60006200048f8262000462565b9050919050565b620004a18162000482565b8114620004ad57600080fd5b50565b600081519050620004c18162000496565b92915050565b600080fd5b6000601f19601f8301169050919050565b7f4e487b7100000000000000000000000000000000000000000000000000000000600052604160045260246000fd5b6200051782620004cc565b810181811067ffffffffffffffff82111715620005395762000538620004dd565b5b80604052505050565b60006200054e6200044e565b90506200055c82826200050c565b919050565b600067ffffffffffffffff8211156200057f576200057e620004dd565b5b602082029050602081019050919050565b600080fd5b600080fd5b60058110620005a857600080fd5b50565b600081519050620005bc816200059a565b92915050565b6000819050919050565b620005d781620005c2565b8114620005e357600080fd5b50565b600081519050620005f781620005cc565b92915050565b60006040828403121562000616576200061562000595565b5b62000622604062000542565b905060006200063484828501620005ab565b60008301525060206200064a84828501620005e6565b60208301525092915050565b60006200066d620006678462000561565b62000542565b9050808382526020820190506040840283018581111562000693576200069262000590565b5b835b81811015620006c05780620006ab8882620005fd565b84526020840193505060408101905062000695565b5050509392505050565b600082601f830112620006e257620006e1620004c7565b5b8151620006f484826020860162000656565b91505092915050565b6000806040838503121562000717576200071662000458565b5b60006200072785828601620004b0565b925050602083015167ffffffffffffffff8111156200074b576200074a6200045d565b5b6200075985828601620006ca565b9150509250929050565b600082825260208201905092915050565b7f496e697469616c697a61626c653a20636f6e747261637420697320616c72656160008201527f647920696e697469616c697a6564000000000000000000000000000000000000602082015250565b6000620007d2602e8362000763565b9150620007df8262000774565b604082019050919050565b600060208201905081810360008301526200080581620007c3565b9050919050565b7f496e697469616c697a61626c653a20636f6e7472616374206973206e6f74206960008201527f6e697469616c697a696e67000000000000000000000000000000000000000000602082015250565b60006200086a602b8362000763565b915062000877826200080c565b604082019050919050565b600060208201905081810360008301526200089d816200085b565b9050919050565b7f5265736f7572636541646170746f723a20696e76616c69642070726963657273600082015250565b6000620008dc60208362000763565b9150620008e982620008a4565b602082019050919050565b600060208201905081810360008301526200090f81620008cd565b9050919050565b7f4e487b7100000000000000000000000000000000000000000000000000000000600052603260045260246000fd5b7f5265736f7572636541646170746f723a20696e76616c69642070726963650000600082015250565b60006200097d601e8362000763565b91506200098a8262000945565b602082019050919050565b60006020820190508181036000830152620009b0816200096e565b9050919050565b7f4e487b7100000000000000000000000000000000000000000000000000000000600052602160045260246000fd5b7f4e487b7100000000000000000000000000000000000000000000000000000000600052601160045260246000fd5b600062000a2282620005c2565b91507fffffffffffffffffffffffffffffffffffffffffffffffffffffffffffffffff82141562000a585762000a57620009e6565b5b600182019050919050565b600081519050919050565b600082825260208201905092915050565b6000819050602082019050919050565b6005811062000aa35762000aa2620009b7565b5b50565b600081905062000ab68262000a8f565b919050565b600062000ac88262000aa6565b9050919050565b62000ada8162000abb565b82525050565b62000aeb81620005c2565b82525050565b60408201600082015162000b09600085018262000acf565b50602082015162000b1e602085018262000ae0565b50505050565b600062000b32838362000af1565b60408301905092915050565b6000602082019050919050565b600062000b588262000a63565b62000b64818562000a6e565b935062000b718362000a7f565b8060005b8381101562000ba857815162000b8c888262000b24565b975062000b998362000b3e565b92505060018101905062000b75565b5085935050505092915050565b6000602082019050818103600083015262000bd1818462000b4b565b905092915050565b6115498062000be96000396000f3fe608060405234801561001057600080fd5b50600436106100b45760003560e01c80639434023a116100715780639434023a14610179578063a6170b51146101a9578063a97f2772146101d9578063a9fd520f14610209578063c9a72f3914610239578063f2fde38b14610257576100b4565b806327b54756146100b95780632e4a1a23146100d557806368fbeb18146100f1578063715018a6146101215780638da5cb5b1461012b578063912397c314610149575b600080fd5b6100d360048036038101906100ce9190610c4b565b610273565b005b6100ef60048036038101906100ea9190610cf2565b6102fb565b005b61010b60048036038101906101069190610d4e565b6103f3565b6040516101189190610d9d565b60405180910390f35b610129610418565b005b6101336104a0565b6040516101409190610dc7565b60405180910390f35b610163600480360381019061015e9190610de2565b6104ca565b6040516101709190610d9d565b60405180910390f35b610193600480360381019061018e9190610d4e565b6104df565b6040516101a09190610d9d565b60405180910390f35b6101c360048036038101906101be9190610d4e565b6105bd565b6040516101d09190610d9d565b60405180910390f35b6101f360048036038101906101ee9190610e0f565b6105e2565b6040516102009190610d9d565b60405180910390f35b610223600480360381019061021e9190610e0f565b610609565b6040516102309190610d9d565b60405180910390f35b610241610630565b60405161024e9190610d9d565b60405180910390f35b610271600480360381019061026c9190610e62565b610636565b005b61027b610751565b73ffffffffffffffffffffffffffffffffffffffff166102996104a0565b73ffffffffffffffffffffffffffffffffffffffff16146102ef576040517f08c379a00000000000000000000000000000000000000000000000000000000081526004016102e690610eec565b60405180910390fd5b6102f881610759565b50565b600060019054906101000a900460ff166103235760008054906101000a900460ff161561032c565b61032b6108d0565b5b61036b576040517f08c379a000000000000000000000000000000000000000000000000000000000815260040161036290610f7e565b60405180910390fd5b60008060019054906101000a900460ff1615905080156103bb576001600060016101000a81548160ff02191690831515021790555060016000806101000a81548160ff0219169083151502179055505b6103c4836108e1565b6103cd826109a7565b80156103ee5760008060016101000a81548160ff0219169083151502179055505b505050565b600061041082610402856104ca565b610a0290919063ffffffff16565b905092915050565b610420610751565b73ffffffffffffffffffffffffffffffffffffffff1661043e6104a0565b73ffffffffffffffffffffffffffffffffffffffff1614610494576040517f08c379a000000000000000000000000000000000000000000000000000000000815260040161048b90610eec565b60405180910390fd5b61049e60006108e1565b565b6000603360009054906101000a900473ffffffffffffffffffffffffffffffffffffffff16905090565b60006104d8826065546104df565b9050919050565b600080606660008560048111156104f9576104f8610f9e565b5b600481111561050b5761050a610f9e565b5b8152602001908152602001600020600084815260200190815260200160002054141561056c576040517f08c379a00000000000000000000000000000000000000000000000000000000081526004016105639061103f565b60405180910390fd5b6066600084600481111561058357610582610f9e565b5b600481111561059557610594610f9e565b5b8152602001908152602001600020600083815260200190815260200160002054905092915050565b60006105da6105cb846104ca565b83610a1890919063ffffffff16565b905092915050565b6000610600836105f286856104df565b610a0290919063ffffffff16565b90509392505050565b600061062761061885846104df565b84610a1890919063ffffffff16565b90509392505050565b60655481565b61063e610751565b73ffffffffffffffffffffffffffffffffffffffff1661065c6104a0565b73ffffffffffffffffffffffffffffffffffffffff16146106b2576040517f08c379a00000000000000000000000000000000000000000000000000000000081526004016106a990610eec565b60405180910390fd5b600073ffffffffffffffffffffffffffffffffffffffff168173ffffffffffffffffffffffffffffffffffffffff161415610722576040517f08c379a0000000000000000000000000000000000000000000000000000000008152600401610719906110d1565b60405180910390fd5b61072b816108e1565b50565b6000808273ffffffffffffffffffffffffffffffffffffffff163b119050919050565b600033905090565b600081511161079d576040517f08c379a00000000000000000000000000000000000000000000000000000000081526004016107949061113d565b60405180910390fd5b60005b815181101561088e5760008282815181106107be576107bd61115d565b5b60200260200101516020015190506000811161080f576040517f08c379a0000000000000000000000000000000000000000000000000000000008152600401610806906111d8565b60405180910390fd5b80606660008585815181106108275761082661115d565b5b602002602001015160000151600481111561084557610844610f9e565b5b600481111561085757610856610f9e565b5b815260200190815260200160002060004381526020019081526020016000208190555050808061088690611227565b9150506107a0565b50436065819055507fdaf171519e682ab2dd913c4734ab5c4d25a84eae73f45aa041119c8c4b5c5ef5816040516108c591906113a5565b60405180910390a150565b60006108db3061072e565b15905090565b6000603360009054906101000a900473ffffffffffffffffffffffffffffffffffffffff16905081603360006101000a81548173ffffffffffffffffffffffffffffffffffffffff021916908373ffffffffffffffffffffffffffffffffffffffff1602179055508173ffffffffffffffffffffffffffffffffffffffff168173ffffffffffffffffffffffffffffffffffffffff167f8be0079c531659141344cd1fd0a4f28419497f9722a3daafe3b4186f6b6457e060405160405180910390a35050565b600060019054906101000a900460ff166109f6576040517f08c379a00000000000000000000000000000000000000000000000000000000081526004016109ed90611439565b60405180910390fd5b6109ff81610759565b50565b60008183610a109190611459565b905092915050565b60008183610a2691906114e2565b905092915050565b6000604051905090565b600080fd5b600080fd5b600080fd5b6000601f19601f8301169050919050565b7f4e487b7100000000000000000000000000000000000000000000000000000000600052604160045260246000fd5b610a9082610a47565b810181811067ffffffffffffffff82111715610aaf57610aae610a58565b5b80604052505050565b6000610ac2610a2e565b9050610ace8282610a87565b919050565b600067ffffffffffffffff821115610aee57610aed610a58565b5b602082029050602081019050919050565b600080fd5b600080fd5b60058110610b1657600080fd5b50565b600081359050610b2881610b09565b92915050565b6000819050919050565b610b4181610b2e565b8114610b4c57600080fd5b50565b600081359050610b5e81610b38565b92915050565b600060408284031215610b7a57610b79610b04565b5b610b846040610ab8565b90506000610b9484828501610b19565b6000830152506020610ba884828501610b4f565b60208301525092915050565b6000610bc7610bc284610ad3565b610ab8565b90508083825260208201905060408402830185811115610bea57610be9610aff565b5b835b81811015610c135780610bff8882610b64565b845260208401935050604081019050610bec565b5050509392505050565b600082601f830112610c3257610c31610a42565b5b8135610c42848260208601610bb4565b91505092915050565b600060208284031215610c6157610c60610a38565b5b600082013567ffffffffffffffff811115610c7f57610c7e610a3d565b5b610c8b84828501610c1d565b91505092915050565b600073ffffffffffffffffffffffffffffffffffffffff82169050919050565b6000610cbf82610c94565b9050919050565b610ccf81610cb4565b8114610cda57600080fd5b50565b600081359050610cec81610cc6565b92915050565b60008060408385031215610d0957610d08610a38565b5b6000610d1785828601610cdd565b925050602083013567ffffffffffffffff811115610d3857610d37610a3d565b5b610d4485828601610c1d565b9150509250929050565b60008060408385031215610d6557610d64610a38565b5b6000610d7385828601610b19565b9250506020610d8485828601610b4f565b9150509250929050565b610d9781610b2e565b82525050565b6000602082019050610db26000830184610d8e565b92915050565b610dc181610cb4565b82525050565b6000602082019050610ddc6000830184610db8565b92915050565b600060208284031215610df857610df7610a38565b5b6000610e0684828501610b19565b91505092915050565b600080600060608486031215610e2857610e27610a38565b5b6000610e3686828701610b19565b9350506020610e4786828701610b4f565b9250506040610e5886828701610b4f565b9150509250925092565b600060208284031215610e7857610e77610a38565b5b6000610e8684828501610cdd565b91505092915050565b600082825260208201905092915050565b7f4f776e61626c653a2063616c6c6572206973206e6f7420746865206f776e6572600082015250565b6000610ed6602083610e8f565b9150610ee182610ea0565b602082019050919050565b60006020820190508181036000830152610f0581610ec9565b9050919050565b7f496e697469616c697a61626c653a20636f6e747261637420697320616c72656160008201527f647920696e697469616c697a6564000000000000000000000000000000000000602082015250565b6000610f68602e83610e8f565b9150610f7382610f0c565b604082019050919050565b60006020820190508181036000830152610f9781610f5b565b9050919050565b7f4e487b7100000000000000000000000000000000000000000000000000000000600052602160045260246000fd5b7f5265736f7572636541646170746f723a20696e76616c696420696e646578426c60008201527f6f636b0000000000000000000000000000000000000000000000000000000000602082015250565b6000611029602383610e8f565b915061103482610fcd565b604082019050919050565b600060208201905081810360008301526110588161101c565b9050919050565b7f4f776e61626c653a206e6577206f776e657220697320746865207a65726f206160008201527f6464726573730000000000000000000000000000000000000000000000000000602082015250565b60006110bb602683610e8f565b91506110c68261105f565b604082019050919050565b600060208201905081810360008301526110ea816110ae565b9050919050565b7f5265736f7572636541646170746f723a20696e76616c69642070726963657273600082015250565b6000611127602083610e8f565b9150611132826110f1565b602082019050919050565b600060208201905081810360008301526111568161111a565b9050919050565b7f4e487b7100000000000000000000000000000000000000000000000000000000600052603260045260246000fd5b7f5265736f7572636541646170746f723a20696e76616c69642070726963650000600082015250565b60006111c2601e83610e8f565b91506111cd8261118c565b602082019050919050565b600060208201905081810360008301526111f1816111b5565b9050919050565b7f4e487b7100000000000000000000000000000000000000000000000000000000600052601160045260246000fd5b600061123282610b2e565b91507fffffffffffffffffffffffffffffffffffffffffffffffffffffffffffffffff821415611265576112646111f8565b5b600182019050919050565b600081519050919050565b600082825260208201905092915050565b6000819050602082019050919050565b600581106112ad576112ac610f9e565b5b50565b60008190506112be8261129c565b919050565b60006112ce826112b0565b9050919050565b6112de816112c3565b82525050565b6112ed81610b2e565b82525050565b60408201600082015161130960008501826112d5565b50602082015161131c60208501826112e4565b50505050565b600061132e83836112f3565b60408301905092915050565b6000602082019050919050565b600061135282611270565b61135c818561127b565b93506113678361128c565b8060005b8381101561139857815161137f8882611322565b975061138a8361133a565b92505060018101905061136b565b5085935050505092915050565b600060208201905081810360008301526113bf8184611347565b905092915050565b7f496e697469616c697a61626c653a20636f6e7472616374206973206e6f74206960008201527f6e697469616c697a696e67000000000000000000000000000000000000000000602082015250565b6000611423602b83610e8f565b915061142e826113c7565b604082019050919050565b6000602082019050818103600083015261145281611416565b9050919050565b600061146482610b2e565b915061146f83610b2e565b9250817fffffffffffffffffffffffffffffffffffffffffffffffffffffffffffffffff04831182151516156114a8576114a76111f8565b5b828202905092915050565b7f4e487b7100000000000000000000000000000000000000000000000000000000600052601260045260246000fd5b60006114ed82610b2e565b91506114f883610b2e565b925082611508576115076114b3565b5b82820490509291505056fea264697066735822122039b6fb0d9768495bf1104c76ad1f0c159e6b88eaf3c330cbd17c6b9ad8758c3464736f6c63430008090033",
  "devdoc": {
    "kind": "dev",
    "methods": {
      "owner()": {
        "details": "Returns the address of the current owner."
      },
      "renounceOwnership()": {
        "details": "Leaves the contract without owner. It will not be possible to call `onlyOwner` functions anymore. Can only be called by the current owner. NOTE: Renouncing ownership will leave the contract without an owner, thereby removing any functionality that is only available to the owner."
      },
      "transferOwnership(address)": {
        "details": "Transfers ownership of the contract to a new account (`newOwner`). Can only be called by the current owner."
      }
    },
    "version": 1
  },
  "userdoc": {
    "kind": "user",
    "methods": {},
    "version": 1
  },
  "storageLayout": {
    "storage": [
      {
        "astId": 147,
        "contract": "contracts/resources/ResourceAdaptor.sol:ResourceAdaptor",
        "label": "_initialized",
        "offset": 0,
        "slot": "0",
        "type": "t_bool"
      },
      {
        "astId": 150,
        "contract": "contracts/resources/ResourceAdaptor.sol:ResourceAdaptor",
        "label": "_initializing",
        "offset": 1,
        "slot": "0",
        "type": "t_bool"
      },
      {
        "astId": 970,
        "contract": "contracts/resources/ResourceAdaptor.sol:ResourceAdaptor",
        "label": "__gap",
        "offset": 0,
        "slot": "1",
        "type": "t_array(t_uint256)50_storage"
      },
      {
        "astId": 10,
        "contract": "contracts/resources/ResourceAdaptor.sol:ResourceAdaptor",
        "label": "_owner",
        "offset": 0,
        "slot": "51",
        "type": "t_address"
      },
      {
        "astId": 122,
        "contract": "contracts/resources/ResourceAdaptor.sol:ResourceAdaptor",
        "label": "__gap",
        "offset": 0,
        "slot": "52",
        "type": "t_array(t_uint256)49_storage"
      },
      {
        "astId": 6334,
        "contract": "contracts/resources/ResourceAdaptor.sol:ResourceAdaptor",
        "label": "indexBlock",
        "offset": 0,
        "slot": "101",
        "type": "t_uint256"
      },
      {
        "astId": 6341,
        "contract": "contracts/resources/ResourceAdaptor.sol:ResourceAdaptor",
        "label": "priceTraces",
        "offset": 0,
        "slot": "102",
        "type": "t_mapping(t_enum(ResourceType)3822,t_mapping(t_uint256,t_uint256))"
      }
    ],
    "types": {
      "t_address": {
        "encoding": "inplace",
        "label": "address",
        "numberOfBytes": "20"
      },
      "t_array(t_uint256)49_storage": {
        "base": "t_uint256",
        "encoding": "inplace",
        "label": "uint256[49]",
        "numberOfBytes": "1568"
      },
      "t_array(t_uint256)50_storage": {
        "base": "t_uint256",
        "encoding": "inplace",
        "label": "uint256[50]",
        "numberOfBytes": "1600"
      },
      "t_bool": {
        "encoding": "inplace",
        "label": "bool",
        "numberOfBytes": "1"
      },
      "t_enum(ResourceType)3822": {
        "encoding": "inplace",
        "label": "enum ResourceData.ResourceType",
        "numberOfBytes": "1"
      },
      "t_mapping(t_enum(ResourceType)3822,t_mapping(t_uint256,t_uint256))": {
        "encoding": "mapping",
        "key": "t_enum(ResourceType)3822",
        "label": "mapping(enum ResourceData.ResourceType => mapping(uint256 => uint256))",
        "numberOfBytes": "32",
        "value": "t_mapping(t_uint256,t_uint256)"
      },
      "t_mapping(t_uint256,t_uint256)": {
        "encoding": "mapping",
        "key": "t_uint256",
        "label": "mapping(uint256 => uint256)",
        "numberOfBytes": "32",
        "value": "t_uint256"
      },
      "t_uint256": {
        "encoding": "inplace",
        "label": "uint256",
        "numberOfBytes": "32"
      }
    }
  }
}